{
	"data": {
		"bytecode": {
			"linkReferences": {},
			"object": "6080604052600a600b555f600c55348015610018575f80fd5b50604051616217380380616217833981810160405281019061003a9190610586565b3360015f819055505f73ffffffffffffffffffffffffffffffffffffffff168173ffffffffffffffffffffffffffffffffffffffff16036100b2575f6040517f1e4fbdf70000000000000000000000000000000000000000000000000000000081526004016100a99190610659565b60405180910390fd5b6100c18161027a60201b60201c565b5088600f5f6101000a81548173ffffffffffffffffffffffffffffffffffffffff021916908373ffffffffffffffffffffffffffffffffffffffff16021790555087600d5f6101000a81548173ffffffffffffffffffffffffffffffffffffffff021916908373ffffffffffffffffffffffffffffffffffffffff16021790555086600e5f6101000a81548173ffffffffffffffffffffffffffffffffffffffff021916908373ffffffffffffffffffffffffffffffffffffffff1602179055508660105f6101000a81548173ffffffffffffffffffffffffffffffffffffffff021916908373ffffffffffffffffffffffffffffffffffffffff1602179055508560055f6101000a81548173ffffffffffffffffffffffffffffffffffffffff021916908373ffffffffffffffffffffffffffffffffffffffff1602179055508460065f6101000a81548173ffffffffffffffffffffffffffffffffffffffff021916908373ffffffffffffffffffffffffffffffffffffffff1602179055508360118190555082600281905550816003819055508060048190555061026c61033d60201b60201c565b505050505050505050610780565b5f60015f9054906101000a900473ffffffffffffffffffffffffffffffffffffffff1690508160015f6101000a81548173ffffffffffffffffffffffffffffffffffffffff021916908373ffffffffffffffffffffffffffffffffffffffff1602179055508173ffffffffffffffffffffffffffffffffffffffff168173ffffffffffffffffffffffffffffffffffffffff167f8be0079c531659141344cd1fd0a4f28419497f9722a3daafe3b4186f6b6457e060405160405180910390a35050565b5f80600c5411156103c457600a5f600c5481526020019081526020015f206005015f9054906101000a900460ff166103aa576040517f08c379a00000000000000000000000000000000000000000000000000000000081526004016103a1906106cc565b60405180910390fd5b600a5f600c5481526020019081526020015f206003015490505b5f600454426103d39190610717565b90506001600c5f8282546103e79190610717565b925050819055506040518060c001604052804281526020018281526020015f81526020018381526020015f81526020015f1515815250600a5f600c5481526020019081526020015f205f820151815f01556020820151816001015560408201518160020155606082015181600301556080820151816004015560a0820151816005015f6101000a81548160ff021916908315150217905550905050600c547f29db3deb62ef2036e5eb93aad68d2362aec0711af592cb365566603bd88651d442836040516104b6929190610759565b60405180910390a25050565b5f80fd5b5f73ffffffffffffffffffffffffffffffffffffffff82169050919050565b5f6104ef826104c6565b9050919050565b6104ff816104e5565b8114610509575f80fd5b50565b5f8151905061051a816104f6565b92915050565b5f819050919050565b61053281610520565b811461053c575f80fd5b50565b5f8151905061054d81610529565b92915050565b5f819050919050565b61056581610553565b811461056f575f80fd5b50565b5f815190506105808161055c565b92915050565b5f805f805f805f805f6101208a8c0312156105a4576105a36104c2565b5b5f6105b18c828d0161050c565b99505060206105c28c828d0161050c565b98505060406105d38c828d0161050c565b97505060606105e48c828d0161050c565b96505060806105f58c828d0161050c565b95505060a06106068c828d0161053f565b94505060c06106178c828d01610572565b93505060e06106288c828d01610572565b92505061010061063a8c828d01610572565b9150509295985092959850929598565b610653816104e5565b82525050565b5f60208201905061066c5f83018461064a565b92915050565b5f82825260208201905092915050565b7f50726576696f75732065706f6368206e6f742066696e616c697a6564000000005f82015250565b5f6106b6601c83610672565b91506106c182610682565b602082019050919050565b5f6020820190508181035f8301526106e3816106aa565b9050919050565b7f4e487b71000000000000000000000000000000000000000000000000000000005f52601160045260245ffd5b5f61072182610553565b915061072c83610553565b9250828201905080821115610744576107436106ea565b5b92915050565b61075381610553565b82525050565b5f60408201905061076c5f83018561074a565b610779602083018461074a565b9392505050565b615a8a8061078d5f395ff3fe608060405260043610610212575f3560e01c80638da5cb5b11610117578063c6b61e4c1161009f578063ee22fd6f1161006e578063ee22fd6f1461075e578063f2fde38b14610786578063f3dbdfe5146107ae578063f3fd622f146107ea578063f98d06f01461081257610219565b8063c6b61e4c146106a3578063d6b7494f146106e4578063d8990c111461070e578063d9cd6e391461073657610219565b8063a8559a96116100e6578063a8559a96146105bc578063a9563e4f146105e6578063aa9bbc0c14610622578063b5d5b5fa1461064c578063b88a802f1461068d57610219565b80638da5cb5b1461050457806391e98f551461052e5780639b23d3d914610558578063a1bab4471461059457610219565b806355f741fa1161019a5780636ee8cc45116101695780636ee8cc4514610448578063715018a61461047257806376f700031461048857806377b53ece146104b25780637a04ea99146104dc57610219565b806355f741fa14610391578063587b47b0146103b95780635fec5c64146103e1578063618dc65e1461040b57610219565b80631a2a5e15116101e15780631a2a5e15146102c55780632e1a7d4d146102ed57806330024dfe146103155780634a9138c61461033d5780634ff0876a1461036757610219565b80630818f6d71461021b57806309716dee146102435780630d07be2d1461025f57806315dacbea1461028957610219565b3661021957005b005b348015610226575f80fd5b50610241600480360381019061023c9190613770565b61083c565b005b61025d6004803603810190610258919061382f565b610935565b005b34801561026a575f80fd5b50610273611248565b6040516102809190613920565b60405180910390f35b348015610294575f80fd5b506102af60048036038101906102aa9190613939565b61126d565b6040516102bc91906139b8565b60405180910390f35b3480156102d0575f80fd5b506102eb60048036038101906102e69190613770565b611385565b005b3480156102f8575f80fd5b50610313600480360381019061030e91906139d1565b61141b565b005b348015610320575f80fd5b5061033b600480360381019061033691906139d1565b61203b565b005b348015610348575f80fd5b5061035161208f565b60405161035e9190613a14565b60405180910390f35b348015610372575f80fd5b5061037b612095565b6040516103889190613a3c565b60405180910390f35b34801561039c575f80fd5b506103b760048036038101906103b29190613770565b61209b565b005b3480156103c4575f80fd5b506103df60048036038101906103da9190613a7f565b612154565b005b3480156103ec575f80fd5b506103f5612166565b6040516104029190613a3c565b60405180910390f35b348015610416575f80fd5b50610431600480360381019061042c9190613be2565b61216c565b60405161043f929190613cb4565b60405180910390f35b348015610453575f80fd5b5061045c6122c1565b6040516104699190613cf1565b60405180910390f35b34801561047d575f80fd5b506104866122e6565b005b348015610493575f80fd5b5061049c6122f9565b6040516104a99190613a3c565b60405180910390f35b3480156104bd575f80fd5b506104c66122ff565b6040516104d39190613cf1565b60405180910390f35b3480156104e7575f80fd5b5061050260048036038101906104fd9190613770565b612324565b005b34801561050f575f80fd5b506105186123dd565b6040516105259190613cf1565b60405180910390f35b348015610539575f80fd5b50610542612405565b60405161054f9190613cf1565b60405180910390f35b348015610563575f80fd5b5061057e60048036038101906105799190613939565b61242a565b60405161058b91906139b8565b60405180910390f35b34801561059f575f80fd5b506105ba60048036038101906105b591906139d1565b612542565b005b3480156105c7575f80fd5b506105d0612598565b6040516105dd9190613d2a565b60405180910390f35b3480156105f1575f80fd5b5061060c60048036038101906106079190613d43565b6125bd565b6040516106199190613d9e565b60405180910390f35b34801561062d575f80fd5b506106366125e9565b6040516106439190613a3c565b60405180910390f35b348015610657575f80fd5b50610672600480360381019061066d9190613db7565b6125ef565b60405161068496959493929190613df5565b60405180910390f35b348015610698575f80fd5b506106a1612660565b005b3480156106ae575f80fd5b506106c960048036038101906106c491906139d1565b61299c565b6040516106db96959493929190613e6e565b60405180910390f35b3480156106ef575f80fd5b506106f86129e0565b6040516107059190613a3c565b60405180910390f35b348015610719575f80fd5b50610734600480360381019061072f9190613ecd565b6129e6565b005b348015610741575f80fd5b5061075c60048036038101906107579190613f35565b612a42565b005b348015610769575f80fd5b50610784600480360381019061077f9190613770565b612b2a565b005b348015610791575f80fd5b506107ac60048036038101906107a79190613770565b612be3565b005b3480156107b9575f80fd5b506107d460048036038101906107cf9190613770565b612c67565b6040516107e19190613a3c565b60405180910390f35b3480156107f5575f80fd5b50610810600480360381019061080b9190613770565b612c7c565b005b34801561081d575f80fd5b50610826612d35565b6040516108339190613fa5565b60405180910390f35b610844612d5a565b5f73ffffffffffffffffffffffffffffffffffffffff168173ffffffffffffffffffffffffffffffffffffffff16036108b2576040517f08c379a00000000000000000000000000000000000000000000000000000000081526004016108a990614018565b60405180910390fd5b80600e5f6101000a81548173ffffffffffffffffffffffffffffffffffffffff021916908373ffffffffffffffffffffffffffffffffffffffff1602179055508060105f6101000a81548173ffffffffffffffffffffffffffffffffffffffff021916908373ffffffffffffffffffffffffffffffffffffffff16021790555050565b61093d612de1565b5f600a5f600c5481526020019081526020015f2090508060010154421180156109745750806005015f9054906101000a900460ff16155b1561098a57610981612e25565b610989612f73565b5b5f86116109cc576040517f08c379a00000000000000000000000000000000000000000000000000000000081526004016109c390614080565b60405180910390fd5b60025485101580156109e057506003548511155b610a1f576040517f08c379a0000000000000000000000000000000000000000000000000000000008152600401610a16906140e8565b60405180910390fd5b600a60095f3373ffffffffffffffffffffffffffffffffffffffff1673ffffffffffffffffffffffffffffffffffffffff1681526020019081526020015f208054905010610aa2576040517f08c379a0000000000000000000000000000000000000000000000000000000008152600401610a9990614176565b60405180910390fd5b5f808790505f73ffffffffffffffffffffffffffffffffffffffff168973ffffffffffffffffffffffffffffffffffffffff1603610d9157873414610b1c576040517f08c379a0000000000000000000000000000000000000000000000000000000008152600401610b13906141de565b60405180910390fd5b5f600f5f9054906101000a900473ffffffffffffffffffffffffffffffffffffffff1673ffffffffffffffffffffffffffffffffffffffff1663d47eed4587876040518363ffffffff1660e01b8152600401610b79929190614354565b602060405180830381865afa158015610b94573d5f803e3d5ffd5b505050506040513d601f19601f82011682018060405250810190610bb8919061438a565b90508082610bc691906143e2565b9150600f5f9054906101000a900473ffffffffffffffffffffffffffffffffffffffff1673ffffffffffffffffffffffffffffffffffffffff1663ef9e5e288288886040518463ffffffff1660e01b8152600401610c25929190614354565b5f604051808303818588803b158015610c3c575f80fd5b505af1158015610c4e573d5f803e3d5ffd5b50505050505f600f5f9054906101000a900473ffffffffffffffffffffffffffffffffffffffff1673ffffffffffffffffffffffffffffffffffffffff1663a4ae35e0601154603c6040518363ffffffff1660e01b8152600401610cb392919061444e565b608060405180830381865afa158015610cce573d5f803e3d5ffd5b505050506040513d601f19601f82011682018060405250810190610cf2919061458b565b90505f8160400151610d03906145b6565b63ffffffff16600a610d15919061472b565b825f015160070b610d2691906147a2565b90506305f5e1008482610d3991906147d2565b610d4391906147a2565b94506064851015610d89576040517f08c379a0000000000000000000000000000000000000000000000000000000008152600401610d809061485d565b60405180910390fd5b505050610fb9565b5f610e658a60075f8d73ffffffffffffffffffffffffffffffffffffffff1673ffffffffffffffffffffffffffffffffffffffff1681526020019081526020015f205f60055f9054906101000a900473ffffffffffffffffffffffffffffffffffffffff1673ffffffffffffffffffffffffffffffffffffffff1673ffffffffffffffffffffffffffffffffffffffff1681526020019081526020015f205f9054906101000a900462ffffff1660055f9054906101000a900473ffffffffffffffffffffffffffffffffffffffff166130f8565b90505f600d5f9054906101000a900473ffffffffffffffffffffffffffffffffffffffff1673ffffffffffffffffffffffffffffffffffffffff1663cdca1753838c6040518363ffffffff1660e01b8152600401610ec492919061487b565b5f604051808303815f875af1158015610edf573d5f803e3d5ffd5b505050506040513d5f823e3d601f19601f82011682018060405250810190610f079190614a8c565b505050905061271081610f1a91906147a2565b93506064841015610f60576040517f08c379a0000000000000000000000000000000000000000000000000000000008152600401610f579061485d565b60405180910390fd5b5f610f6d8c33308e613127565b9050601660030b8114610fb5576040517f08c379a0000000000000000000000000000000000000000000000000000000008152600401610fac90614b72565b60405180910390fd5b5050505b5f8783610fc691906147d2565b90505f871115610fdd57610fda818861323f565b90505b60095f3373ffffffffffffffffffffffffffffffffffffffff1673ffffffffffffffffffffffffffffffffffffffff1681526020019081526020015f206040518060c001604052808c73ffffffffffffffffffffffffffffffffffffffff1681526020018481526020014281526020018a426110599190614b90565b8152602001838152602001600c54815250908060018154018082558091505060019003905f5260205f2090600602015f909190919091505f820151815f015f6101000a81548173ffffffffffffffffffffffffffffffffffffffff021916908373ffffffffffffffffffffffffffffffffffffffff1602179055506020820151816001015560408201518160020155606082015181600301556080820151816004015560a0820151816005015550508860085f8c73ffffffffffffffffffffffffffffffffffffffff1673ffffffffffffffffffffffffffffffffffffffff1681526020019081526020015f205f8282546111549190614b90565b9250508190555080600a5f600c5481526020019081526020015f206003015f8282546111809190614b90565b925050819055503373ffffffffffffffffffffffffffffffffffffffff167f902788162368fcc78ad80de846b620b397de2884386dbff8339fb699955dacc583428b426111cd9190614b90565b600160095f3373ffffffffffffffffffffffffffffffffffffffff1673ffffffffffffffffffffffffffffffffffffffff1681526020019081526020015f208054905061121a91906143e2565b8f60405161122c959493929190614bc3565b60405180910390a2505050506112406132ab565b505050505050565b600e5f9054906101000a900473ffffffffffffffffffffffffffffffffffffffff1681565b5f805f61016773ffffffffffffffffffffffffffffffffffffffff166315dacbea60e01b888888886040516024016112a89493929190614c14565b604051602081830303815290604052907bffffffffffffffffffffffffffffffffffffffffffffffffffffffff19166020820180517bffffffffffffffffffffffffffffffffffffffffffffffffffffffff83818316178352505050506040516113129190614c91565b5f604051808303815f865af19150503d805f811461134b576040519150601f19603f3d011682016040523d82523d5f602084013e611350565b606091505b509150915081611361576015611376565b808060200190518101906113759190614ca7565b5b60030b92505050949350505050565b61138d612d5a565b5f61139830836132b4565b9050601660030b81146113e0576040517f08c379a00000000000000000000000000000000000000000000000000000000081526004016113d790614d1c565b60405180910390fd5b7fbbbf805ef99ca7d0b7d2cc769719f2a281c9b3331a3642efa75a712e3094a1668260405161140f9190613cf1565b60405180910390a15050565b611423612de1565b5f600a5f600c5481526020019081526020015f20905080600101544211801561145a5750806005015f9054906101000a900460ff16155b1561147057611467612e25565b61146f612f73565b5b5f60095f3373ffffffffffffffffffffffffffffffffffffffff1673ffffffffffffffffffffffffffffffffffffffff1681526020019081526020015f208054905090508083106114f6576040517f08c379a00000000000000000000000000000000000000000000000000000000081526004016114ed90614d84565b60405180910390fd5b5f60095f3373ffffffffffffffffffffffffffffffffffffffff1673ffffffffffffffffffffffffffffffffffffffff1681526020019081526020015f20848154811061154657611545614da2565b5b905f5260205f20906006020190505f81600101541161159a576040517f08c379a000000000000000000000000000000000000000000000000000000000815260040161159190614e19565b60405180910390fd5b5f816001015490505f8260030154421090505f8082156115df576064600b54856115c491906147d2565b6115ce91906147a2565b915081846115dc91906143e2565b93505b81846115eb9190614b90565b60085f875f015f9054906101000a900473ffffffffffffffffffffffffffffffffffffffff1673ffffffffffffffffffffffffffffffffffffffff1673ffffffffffffffffffffffffffffffffffffffff1681526020019081526020015f205f82825461165891906143e2565b925050819055505f73ffffffffffffffffffffffffffffffffffffffff16855f015f9054906101000a900473ffffffffffffffffffffffffffffffffffffffff1673ffffffffffffffffffffffffffffffffffffffff16036117a857819050834710156116fa576040517f08c379a00000000000000000000000000000000000000000000000000000000081526004016116f190614e81565b60405180910390fd5b5f3373ffffffffffffffffffffffffffffffffffffffff168560405161171f90614ec2565b5f6040518083038185875af1925050503d805f8114611759576040519150601f19603f3d011682016040523d82523d5f602084013e61175e565b606091505b50509050806117a2576040517f08c379a000000000000000000000000000000000000000000000000000000000815260040161179990614f20565b60405180910390fd5b50611d53565b5f6117df865f015f9054906101000a900473ffffffffffffffffffffffffffffffffffffffff1630336117da896133c6565b613127565b9050601660030b8114611827576040517f08c379a000000000000000000000000000000000000000000000000000000000815260040161181e90614f88565b60405180910390fd5b8315611d515761187b865f015f9054906101000a900473ffffffffffffffffffffffffffffffffffffffff1660105f9054906101000a900473ffffffffffffffffffffffffffffffffffffffff168561341d565b9050601660030b81146118c3576040517f08c379a00000000000000000000000000000000000000000000000000000000081526004016118ba90615016565b60405180910390fd5b5f6119db875f015f9054906101000a900473ffffffffffffffffffffffffffffffffffffffff1660075f8a5f015f9054906101000a900473ffffffffffffffffffffffffffffffffffffffff1673ffffffffffffffffffffffffffffffffffffffff1673ffffffffffffffffffffffffffffffffffffffff1681526020019081526020015f205f60065f9054906101000a900473ffffffffffffffffffffffffffffffffffffffff1673ffffffffffffffffffffffffffffffffffffffff1673ffffffffffffffffffffffffffffffffffffffff1681526020019081526020015f205f9054906101000a900462ffffff1660065f9054906101000a900473ffffffffffffffffffffffffffffffffffffffff166130f8565b90505f600d5f9054906101000a900473ffffffffffffffffffffffffffffffffffffffff1673ffffffffffffffffffffffffffffffffffffffff1663cdca175383876040518363ffffffff1660e01b8152600401611a3a92919061487b565b5f604051808303815f875af1158015611a55573d5f803e3d5ffd5b505050506040513d5f823e3d601f19601f82011682018060405250810190611a7d9190614a8c565b50505090505f6040518060a0016040528084815260200160105f9054906101000a900473ffffffffffffffffffffffffffffffffffffffff1673ffffffffffffffffffffffffffffffffffffffff168152602001601e42611ade9190614b90565b81526020018781526020018381525090505f63c04b8d5960e01b82604051602401611b0991906150fd565b604051602081830303815290604052907bffffffffffffffffffffffffffffffffffffffffffffffffffffffff19166020820180517bffffffffffffffffffffffffffffffffffffffffffffffffffffffff838183161783525050505090505f635fb043af60e01b8430604051602401611b8492919061511d565b604051602081830303815290604052907bffffffffffffffffffffffffffffffffffffffffffffffffffffffff19166020820180517bffffffffffffffffffffffffffffffffffffffffffffffffffffffff838183161783525050505090505f600267ffffffffffffffff811115611bff57611bfe613abe565b5b604051908082528060200260200182016040528015611c3257816020015b6060815260200190600190039081611c1d5790505b50905082815f81518110611c4957611c48614da2565b5b60200260200101819052508181600181518110611c6957611c68614da2565b5b60200260200101819052505f600e5f9054906101000a900473ffffffffffffffffffffffffffffffffffffffff1673ffffffffffffffffffffffffffffffffffffffff1663ac9650d8836040518263ffffffff1660e01b8152600401611ccf91906151ef565b5f604051808303815f875af1158015611cea573d5f803e3d5ffd5b505050506040513d5f823e3d601f19601f82011682018060405250810190611d12919061535b565b90505f815f81518110611d2857611d27614da2565b5b6020026020010151806020019051810190611d43919061438a565b905080995050505050505050505b505b8215611d865780600a5f600c5481526020019081526020015f206002015f828254611d7e9190614b90565b925050819055505b3373ffffffffffffffffffffffffffffffffffffffff167f8e74f2e568a8fc64d8e10a0dd9ce40f78f234368743079ffb0e60ee702693ac989868685604051611dd294939291906153a2565b60405180910390a2600186118015611df65750600186611df291906143e2565b8814155b15611f7d575f8890505b600187611e0d91906143e2565b811015611f7b5760095f3373ffffffffffffffffffffffffffffffffffffffff1673ffffffffffffffffffffffffffffffffffffffff1681526020019081526020015f20600182611e5e9190614b90565b81548110611e6f57611e6e614da2565b5b905f5260205f20906006020160095f3373ffffffffffffffffffffffffffffffffffffffff1673ffffffffffffffffffffffffffffffffffffffff1681526020019081526020015f208281548110611eca57611ec9614da2565b5b905f5260205f2090600602015f82015f9054906101000a900473ffffffffffffffffffffffffffffffffffffffff16815f015f6101000a81548173ffffffffffffffffffffffffffffffffffffffff021916908373ffffffffffffffffffffffffffffffffffffffff16021790555060018201548160010155600282015481600201556003820154816003015560048201548160040155600582015481600501559050508080600101915050611e00565b505b60095f3373ffffffffffffffffffffffffffffffffffffffff1673ffffffffffffffffffffffffffffffffffffffff1681526020019081526020015f20805480611fca57611fc96153e5565b5b600190038181905f5260205f2090600602015f8082015f6101000a81549073ffffffffffffffffffffffffffffffffffffffff0219169055600182015f9055600282015f9055600382015f9055600482015f9055600582015f905550509055505050505050506120386132ab565b50565b612043612d5a565b5f8111612085576040517f08c379a000000000000000000000000000000000000000000000000000000000815260040161207c9061545c565b60405180910390fd5b8060048190555050565b60115481565b60045481565b6120a3612d5a565b5f73ffffffffffffffffffffffffffffffffffffffff168173ffffffffffffffffffffffffffffffffffffffff1603612111576040517f08c379a000000000000000000000000000000000000000000000000000000000815260040161210890614018565b60405180910390fd5b8060065f6101000a81548173ffffffffffffffffffffffffffffffffffffffff021916908373ffffffffffffffffffffffffffffffffffffffff16021790555050565b61215c612d5a565b8060118190555050565b60025481565b5f60605f8061016773ffffffffffffffffffffffffffffffffffffffff1663618dc65e60e01b87876040516024016121a592919061547a565b604051602081830303815290604052907bffffffffffffffffffffffffffffffffffffffffffffffffffffffff19166020820180517bffffffffffffffffffffffffffffffffffffffffffffffffffffffff838183161783525050505060405161220f9190614c91565b5f604051808303815f865af19150503d805f8114612248576040519150601f19603f3d011682016040523d82523d5f602084013e61224d565b606091505b50915091507f4af4780e06fe8cb9df64b0794fa6f01399af979175bb988e35e0e57e594567bc82826040516122839291906154a8565b60405180910390a1816122a657601560405180602001604052805f8152506122aa565b6016815b8160030b9150809450819550505050509250929050565b60105f9054906101000a900473ffffffffffffffffffffffffffffffffffffffff1681565b6122ee612d5a565b6122f75f613532565b565b60035481565b60055f9054906101000a900473ffffffffffffffffffffffffffffffffffffffff1681565b61232c612d5a565b5f73ffffffffffffffffffffffffffffffffffffffff168173ffffffffffffffffffffffffffffffffffffffff160361239a576040517f08c379a000000000000000000000000000000000000000000000000000000000815260040161239190614018565b60405180910390fd5b80600d5f6101000a81548173ffffffffffffffffffffffffffffffffffffffff021916908373ffffffffffffffffffffffffffffffffffffffff16021790555050565b5f60015f9054906101000a900473ffffffffffffffffffffffffffffffffffffffff16905090565b60065f9054906101000a900473ffffffffffffffffffffffffffffffffffffffff1681565b5f805f61016773ffffffffffffffffffffffffffffffffffffffff16639b23d3d960e01b888888886040516024016124659493929190614c14565b604051602081830303815290604052907bffffffffffffffffffffffffffffffffffffffffffffffffffffffff19166020820180517bffffffffffffffffffffffffffffffffffffffffffffffffffffffff83818316178352505050506040516124cf9190614c91565b5f604051808303815f865af19150503d805f8114612508576040519150601f19603f3d011682016040523d82523d5f602084013e61250d565b606091505b50915091508161251e576015612533565b808060200190518101906125329190614ca7565b5b60030b92505050949350505050565b61254a612d5a565b606481111561258e576040517f08c379a000000000000000000000000000000000000000000000000000000000815260040161258590615520565b60405180910390fd5b80600b8190555050565b600d5f9054906101000a900473ffffffffffffffffffffffffffffffffffffffff1681565b6007602052815f5260405f20602052805f5260405f205f915091509054906101000a900462ffffff1681565b600c5481565b6009602052815f5260405f208181548110612608575f80fd5b905f5260205f2090600602015f9150915050805f015f9054906101000a900473ffffffffffffffffffffffffffffffffffffffff16908060010154908060020154908060030154908060040154908060050154905086565b612668612de1565b5f600a5f600c5481526020019081526020015f20905080600101544211801561269f5750806005015f9054906101000a900460ff16155b156126b5576126ac612e25565b6126b4612f73565b5b5f8060095f3373ffffffffffffffffffffffffffffffffffffffff1673ffffffffffffffffffffffffffffffffffffffff1681526020019081526020015f208054905090505f811161273c576040517f08c379a000000000000000000000000000000000000000000000000000000000815260040161273390615588565b60405180910390fd5b5f5b81811015612854575f60095f3373ffffffffffffffffffffffffffffffffffffffff1673ffffffffffffffffffffffffffffffffffffffff1681526020019081526020015f20828154811061279657612795614da2565b5b905f5260205f20906006020190505f816004015490505f826005015490505f8190505b600c54811015612838575f600a5f8381526020019081526020015f209050806005015f9054906101000a900460ff1680156127f857505f816004015414155b1561282a576305f5e10084826004015461281291906147d2565b61281c91906147a2565b886128279190614b90565b97505b5080806001019150506127b9565b50600c548360050181905550505050808060010191505061273e565b5081471015612898576040517f08c379a000000000000000000000000000000000000000000000000000000000815260040161288f90614e81565b60405180910390fd5b5f3373ffffffffffffffffffffffffffffffffffffffff16836040516128bd90614ec2565b5f6040518083038185875af1925050503d805f81146128f7576040519150601f19603f3d011682016040523d82523d5f602084013e6128fc565b606091505b5050905080612940576040517f08c379a0000000000000000000000000000000000000000000000000000000008152600401612937906155f0565b60405180910390fd5b3373ffffffffffffffffffffffffffffffffffffffff167f106f923f993c2149d49b4255ff723acafa1f2d94393f561d3eda32ae348f7241846040516129869190613a3c565b60405180910390a25050505061299a6132ab565b565b600a602052805f5260405f205f91509050805f015490806001015490806002015490806003015490806004015490806005015f9054906101000a900460ff16905086565b600b5481565b6129ee612d5a565b808210612a30576040517f08c379a0000000000000000000000000000000000000000000000000000000008152600401612a279061567e565b60405180910390fd5b81600281905550806003819055505050565b612a4a612d5a565b5f8162ffffff1603612a91576040517f08c379a0000000000000000000000000000000000000000000000000000000008152600401612a88906156e6565b60405180910390fd5b8060075f8573ffffffffffffffffffffffffffffffffffffffff1673ffffffffffffffffffffffffffffffffffffffff1681526020019081526020015f205f8473ffffffffffffffffffffffffffffffffffffffff1673ffffffffffffffffffffffffffffffffffffffff1681526020019081526020015f205f6101000a81548162ffffff021916908362ffffff160217905550505050565b612b32612d5a565b5f73ffffffffffffffffffffffffffffffffffffffff168173ffffffffffffffffffffffffffffffffffffffff1603612ba0576040517f08c379a0000000000000000000000000000000000000000000000000000000008152600401612b9790614018565b60405180910390fd5b80600f5f6101000a81548173ffffffffffffffffffffffffffffffffffffffff021916908373ffffffffffffffffffffffffffffffffffffffff16021790555050565b612beb612d5a565b5f73ffffffffffffffffffffffffffffffffffffffff168173ffffffffffffffffffffffffffffffffffffffff1603612c5b575f6040517f1e4fbdf7000000000000000000000000000000000000000000000000000000008152600401612c529190613cf1565b60405180910390fd5b612c6481613532565b50565b6008602052805f5260405f205f915090505481565b612c84612d5a565b5f73ffffffffffffffffffffffffffffffffffffffff168173ffffffffffffffffffffffffffffffffffffffff1603612cf2576040517f08c379a0000000000000000000000000000000000000000000000000000000008152600401612ce990614018565b60405180910390fd5b8060055f6101000a81548173ffffffffffffffffffffffffffffffffffffffff021916908373ffffffffffffffffffffffffffffffffffffffff16021790555050565b600f5f9054906101000a900473ffffffffffffffffffffffffffffffffffffffff1681565b612d626135f5565b73ffffffffffffffffffffffffffffffffffffffff16612d806123dd565b73ffffffffffffffffffffffffffffffffffffffff1614612ddf57612da36135f5565b6040517f118cdaa7000000000000000000000000000000000000000000000000000000008152600401612dd69190613cf1565b60405180910390fd5b565b60025f5403612e1c576040517f3ee5aeb500000000000000000000000000000000000000000000000000000000815260040160405180910390fd5b60025f81905550565b5f600a5f600c5481526020019081526020015f209050806005015f9054906101000a900460ff1615612e8c576040517f08c379a0000000000000000000000000000000000000000000000000000000008152600401612e839061574e565b60405180910390fd5b80600101544211612ed2576040517f08c379a0000000000000000000000000000000000000000000000000000000008152600401612ec9906157b6565b60405180910390fd5b6001816005015f6101000a81548160ff0219169083151502179055505f81600301541115612f265780600301546305f5e1008260020154612f1391906147d2565b612f1d91906147a2565b81600401819055505b600c547f70801d4d63b3da6c19ba7349911f45bed5a99ccdfb51b8138c105872529bebd5826002015483600301548460040154604051612f68939291906157d4565b60405180910390a250565b5f80600c541115612ffa57600a5f600c5481526020019081526020015f206005015f9054906101000a900460ff16612fe0576040517f08c379a0000000000000000000000000000000000000000000000000000000008152600401612fd790615853565b60405180910390fd5b600a5f600c5481526020019081526020015f206003015490505b5f600454426130099190614b90565b90506001600c5f82825461301d9190614b90565b925050819055506040518060c001604052804281526020018281526020015f81526020018381526020015f81526020015f1515815250600a5f600c5481526020019081526020015f205f820151815f01556020820151816001015560408201518160020155606082015181600301556080820151816004015560a0820151816005015f6101000a81548160ff021916908315150217905550905050600c547f29db3deb62ef2036e5eb93aad68d2362aec0711af592cb365566603bd88651d442836040516130ec929190615871565b60405180910390a25050565b606083838360405160200161310f93929190615911565b60405160208183030381529060405290509392505050565b5f805f61016773ffffffffffffffffffffffffffffffffffffffff1663eca3691760e01b88888888604051602401613162949392919061594d565b604051602081830303815290604052907bffffffffffffffffffffffffffffffffffffffffffffffffffffffff19166020820180517bffffffffffffffffffffffffffffffffffffffffffffffffffffffff83818316178352505050506040516131cc9190614c91565b5f604051808303815f865af19150503d805f8114613205576040519150601f19603f3d011682016040523d82523d5f602084013e61320a565b606091505b50915091508161321b576015613230565b8080602001905181019061322f9190614ca7565b5b60030b92505050949350505050565b5f6305f5e100821015613254578290506132a5565b5f61326d6305f5e1008461326891906147a2565b6135fc565b9050601981111561327d57601990505b606481606461328c9190614b90565b8561329791906147d2565b6132a191906147a2565b9150505b92915050565b60015f81905550565b5f805f61016773ffffffffffffffffffffffffffffffffffffffff166349146bde60e01b86866040516024016132eb929190615990565b604051602081830303815290604052907bffffffffffffffffffffffffffffffffffffffffffffffffffffffff19166020820180517bffffffffffffffffffffffffffffffffffffffffffffffffffffffff83818316178352505050506040516133559190614c91565b5f604051808303815f865af19150503d805f811461338e576040519150601f19603f3d011682016040523d82523d5f602084013e613393565b606091505b5091509150816133a45760156133b9565b808060200190518101906133b89190614ca7565b5b60030b9250505092915050565b5f677fffffffffffffff60070b821115613415576040517f08c379a000000000000000000000000000000000000000000000000000000000815260040161340c90615a01565b60405180910390fd5b819050919050565b5f805f61016773ffffffffffffffffffffffffffffffffffffffff1663e1f21c6760e01b87878760405160240161345693929190615a1f565b604051602081830303815290604052907bffffffffffffffffffffffffffffffffffffffffffffffffffffffff19166020820180517bffffffffffffffffffffffffffffffffffffffffffffffffffffffff83818316178352505050506040516134c09190614c91565b5f604051808303815f865af19150503d805f81146134f9576040519150601f19603f3d011682016040523d82523d5f602084013e6134fe565b606091505b50915091508161350f576015613524565b808060200190518101906135239190614ca7565b5b60030b925050509392505050565b5f60015f9054906101000a900473ffffffffffffffffffffffffffffffffffffffff1690508160015f6101000a81548173ffffffffffffffffffffffffffffffffffffffff021916908373ffffffffffffffffffffffffffffffffffffffff1602179055508173ffffffffffffffffffffffffffffffffffffffff168173ffffffffffffffffffffffffffffffffffffffff167f8be0079c531659141344cd1fd0a4f28419497f9722a3daafe3b4186f6b6457e060405160405180910390a35050565b5f33905090565b5f805f90505f61361d6fffffffffffffffffffffffffffffffff85116136fa565b60800290508084901c9350808201915061364067ffffffffffffffff85116136fa565b60400290508084901c9350808201915061365f63ffffffff85116136fa565b60200290508084901c9350808201915061367c61ffff85116136fa565b60100290508084901c9350808201915061369860ff85116136fa565b60080290508084901c935080820191506136b4600f85116136fa565b60040290508084901c935080820191506136d0600385116136fa565b60020290508084901c935080820191506136ec600185116136fa565b820191508192505050919050565b5f8115159050919050565b5f604051905090565b5f80fd5b5f80fd5b5f73ffffffffffffffffffffffffffffffffffffffff82169050919050565b5f61373f82613716565b9050919050565b61374f81613735565b8114613759575f80fd5b50565b5f8135905061376a81613746565b92915050565b5f602082840312156137855761378461370e565b5b5f6137928482850161375c565b91505092915050565b5f819050919050565b6137ad8161379b565b81146137b7575f80fd5b50565b5f813590506137c8816137a4565b92915050565b5f80fd5b5f80fd5b5f80fd5b5f8083601f8401126137ef576137ee6137ce565b5b8235905067ffffffffffffffff81111561380c5761380b6137d2565b5b602083019150836020820283011115613828576138276137d6565b5b9250929050565b5f805f805f8060a087890312156138495761384861370e565b5b5f61385689828a0161375c565b965050602061386789828a016137ba565b955050604061387889828a016137ba565b945050606061388989828a016137ba565b935050608087013567ffffffffffffffff8111156138aa576138a9613712565b5b6138b689828a016137da565b92509250509295509295509295565b5f819050919050565b5f6138e86138e36138de84613716565b6138c5565b613716565b9050919050565b5f6138f9826138ce565b9050919050565b5f61390a826138ef565b9050919050565b61391a81613900565b82525050565b5f6020820190506139335f830184613911565b92915050565b5f805f80608085870312156139515761395061370e565b5b5f61395e8782880161375c565b945050602061396f8782880161375c565b93505060406139808782880161375c565b9250506060613991878288016137ba565b91505092959194509250565b5f8160070b9050919050565b6139b28161399d565b82525050565b5f6020820190506139cb5f8301846139a9565b92915050565b5f602082840312156139e6576139e561370e565b5b5f6139f3848285016137ba565b91505092915050565b5f819050919050565b613a0e816139fc565b82525050565b5f602082019050613a275f830184613a05565b92915050565b613a368161379b565b82525050565b5f602082019050613a4f5f830184613a2d565b92915050565b613a5e816139fc565b8114613a68575f80fd5b50565b5f81359050613a7981613a55565b92915050565b5f60208284031215613a9457613a9361370e565b5b5f613aa184828501613a6b565b91505092915050565b5f80fd5b5f601f19601f8301169050919050565b7f4e487b71000000000000000000000000000000000000000000000000000000005f52604160045260245ffd5b613af482613aae565b810181811067ffffffffffffffff82111715613b1357613b12613abe565b5b80604052505050565b5f613b25613705565b9050613b318282613aeb565b919050565b5f67ffffffffffffffff821115613b5057613b4f613abe565b5b613b5982613aae565b9050602081019050919050565b828183375f83830152505050565b5f613b86613b8184613b36565b613b1c565b905082815260208101848484011115613ba257613ba1613aaa565b5b613bad848285613b66565b509392505050565b5f82601f830112613bc957613bc86137ce565b5b8135613bd9848260208601613b74565b91505092915050565b5f8060408385031215613bf857613bf761370e565b5b5f613c058582860161375c565b925050602083013567ffffffffffffffff811115613c2657613c25613712565b5b613c3285828601613bb5565b9150509250929050565b5f819050919050565b613c4e81613c3c565b82525050565b5f81519050919050565b5f82825260208201905092915050565b8281835e5f83830152505050565b5f613c8682613c54565b613c908185613c5e565b9350613ca0818560208601613c6e565b613ca981613aae565b840191505092915050565b5f604082019050613cc75f830185613c45565b8181036020830152613cd98184613c7c565b90509392505050565b613ceb81613735565b82525050565b5f602082019050613d045f830184613ce2565b92915050565b5f613d14826138ef565b9050919050565b613d2481613d0a565b82525050565b5f602082019050613d3d5f830184613d1b565b92915050565b5f8060408385031215613d5957613d5861370e565b5b5f613d668582860161375c565b9250506020613d778582860161375c565b9150509250929050565b5f62ffffff82169050919050565b613d9881613d81565b82525050565b5f602082019050613db15f830184613d8f565b92915050565b5f8060408385031215613dcd57613dcc61370e565b5b5f613dda8582860161375c565b9250506020613deb858286016137ba565b9150509250929050565b5f60c082019050613e085f830189613ce2565b613e156020830188613a2d565b613e226040830187613a2d565b613e2f6060830186613a2d565b613e3c6080830185613a2d565b613e4960a0830184613a2d565b979650505050505050565b5f8115159050919050565b613e6881613e54565b82525050565b5f60c082019050613e815f830189613a2d565b613e8e6020830188613a2d565b613e9b6040830187613a2d565b613ea86060830186613a2d565b613eb56080830185613a2d565b613ec260a0830184613e5f565b979650505050505050565b5f8060408385031215613ee357613ee261370e565b5b5f613ef0858286016137ba565b9250506020613f01858286016137ba565b9150509250929050565b613f1481613d81565b8114613f1e575f80fd5b50565b5f81359050613f2f81613f0b565b92915050565b5f805f60608486031215613f4c57613f4b61370e565b5b5f613f598682870161375c565b9350506020613f6a8682870161375c565b9250506040613f7b86828701613f21565b9150509250925092565b5f613f8f826138ef565b9050919050565b613f9f81613f85565b82525050565b5f602082019050613fb85f830184613f96565b92915050565b5f82825260208201905092915050565b7f496e76616c6964206164647265737300000000000000000000000000000000005f82015250565b5f614002600f83613fbe565b915061400d82613fce565b602082019050919050565b5f6020820190508181035f83015261402f81613ff6565b9050919050565b7f5374616b6520616d6f756e74206d757374206265203e203000000000000000005f82015250565b5f61406a601883613fbe565b915061407582614036565b602082019050919050565b5f6020820190508181035f8301526140978161405e565b9050919050565b7f5374616b65206475726174696f6e206f7574206f662072616e676500000000005f82015250565b5f6140d2601b83613fbe565b91506140dd8261409e565b602082019050919050565b5f6020820190508181035f8301526140ff816140c6565b9050919050565b7f4d6178696d756d206e756d626572206f6620616374697665207374616b6573205f8201527f7265616368656400000000000000000000000000000000000000000000000000602082015250565b5f614160602783613fbe565b915061416b82614106565b604082019050919050565b5f6020820190508181035f83015261418d81614154565b9050919050565b7f496e636f7272656374204842415220616d6f756e742073656e740000000000005f82015250565b5f6141c8601a83613fbe565b91506141d382614194565b602082019050919050565b5f6020820190508181035f8301526141f5816141bc565b9050919050565b5f82825260208201905092915050565b5f819050919050565b5f82825260208201905092915050565b5f6142308385614215565b935061423d838584613b66565b61424683613aae565b840190509392505050565b5f61425d848484614225565b90509392505050565b5f80fd5b5f80fd5b5f80fd5b5f808335600160200384360303811261428e5761428d61426e565b5b83810192508235915060208301925067ffffffffffffffff8211156142b6576142b5614266565b5b6001820236038313156142cc576142cb61426a565b5b509250929050565b5f602082019050919050565b5f6142eb83856141fc565b9350836020840285016142fd8461420c565b805f5b878110156143425784840389526143178284614272565b614322868284614251565b955061432d846142d4565b935060208b019a505050600181019050614300565b50829750879450505050509392505050565b5f6020820190508181035f83015261436d8184866142e0565b90509392505050565b5f81519050614384816137a4565b92915050565b5f6020828403121561439f5761439e61370e565b5b5f6143ac84828501614376565b91505092915050565b7f4e487b71000000000000000000000000000000000000000000000000000000005f52601160045260245ffd5b5f6143ec8261379b565b91506143f78361379b565b925082820390508181111561440f5761440e6143b5565b5b92915050565b5f819050919050565b5f61443861443361442e84614415565b6138c5565b61379b565b9050919050565b6144488161441e565b82525050565b5f6040820190506144615f830185613a05565b61446e602083018461443f565b9392505050565b5f80fd5b6144828161399d565b811461448c575f80fd5b50565b5f8151905061449d81614479565b92915050565b5f67ffffffffffffffff82169050919050565b6144bf816144a3565b81146144c9575f80fd5b50565b5f815190506144da816144b6565b92915050565b5f8160030b9050919050565b6144f5816144e0565b81146144ff575f80fd5b50565b5f81519050614510816144ec565b92915050565b5f6080828403121561452b5761452a614475565b5b6145356080613b1c565b90505f6145448482850161448f565b5f830152506020614557848285016144cc565b602083015250604061456b84828501614502565b604083015250606061457f84828501614376565b60608301525092915050565b5f608082840312156145a05761459f61370e565b5b5f6145ad84828501614516565b91505092915050565b5f6145c0826144e0565b91507fffffffffffffffffffffffffffffffffffffffffffffffffffffffff8000000082036145f2576145f16143b5565b5b815f039050919050565b5f8160011c9050919050565b5f808291508390505b60018511156146515780860481111561462d5761462c6143b5565b5b600185161561463c5780820291505b808102905061464a856145fc565b9450614611565b94509492505050565b5f826146695760019050614724565b81614676575f9050614724565b816001811461468c5760028114614696576146c5565b6001915050614724565b60ff8411156146a8576146a76143b5565b5b8360020a9150848211156146bf576146be6143b5565b5b50614724565b5060208310610133831016604e8410600b84101617156146fa5782820a9050838111156146f5576146f46143b5565b5b614724565b6147078484846001614608565b9250905081840481111561471e5761471d6143b5565b5b81810290505b9392505050565b5f6147358261379b565b91506147408361379b565b925061476d7fffffffffffffffffffffffffffffffffffffffffffffffffffffffffffffffff848461465a565b905092915050565b7f4e487b71000000000000000000000000000000000000000000000000000000005f52601260045260245ffd5b5f6147ac8261379b565b91506147b78361379b565b9250826147c7576147c6614775565b5b828204905092915050565b5f6147dc8261379b565b91506147e78361379b565b92508282026147f58161379b565b9150828204841483151761480c5761480b6143b5565b5b5092915050565b7f546f6b656e2076616c756520756e6465722031205553440000000000000000005f82015250565b5f614847601783613fbe565b915061485282614813565b602082019050919050565b5f6020820190508181035f8301526148748161483b565b9050919050565b5f6040820190508181035f8301526148938185613c7c565b90506148a26020830184613a2d565b9392505050565b5f67ffffffffffffffff8211156148c3576148c2613abe565b5b602082029050602081019050919050565b6148dd81613716565b81146148e7575f80fd5b50565b5f815190506148f8816148d4565b92915050565b5f61491061490b846148a9565b613b1c565b90508083825260208201905060208402830185811115614933576149326137d6565b5b835b8181101561495c578061494888826148ea565b845260208401935050602081019050614935565b5050509392505050565b5f82601f83011261497a576149796137ce565b5b815161498a8482602086016148fe565b91505092915050565b5f67ffffffffffffffff8211156149ad576149ac613abe565b5b602082029050602081019050919050565b5f63ffffffff82169050919050565b6149d6816149be565b81146149e0575f80fd5b50565b5f815190506149f1816149cd565b92915050565b5f614a09614a0484614993565b613b1c565b90508083825260208201905060208402830185811115614a2c57614a2b6137d6565b5b835b81811015614a555780614a4188826149e3565b845260208401935050602081019050614a2e565b5050509392505050565b5f82601f830112614a7357614a726137ce565b5b8151614a838482602086016149f7565b91505092915050565b5f805f8060808587031215614aa457614aa361370e565b5b5f614ab187828801614376565b945050602085015167ffffffffffffffff811115614ad257614ad1613712565b5b614ade87828801614966565b935050604085015167ffffffffffffffff811115614aff57614afe613712565b5b614b0b87828801614a5f565b9250506060614b1c87828801614376565b91505092959194509250565b7f546f6b656e207472616e73666572206661696c656400000000000000000000005f82015250565b5f614b5c601583613fbe565b9150614b6782614b28565b602082019050919050565b5f6020820190508181035f830152614b8981614b50565b9050919050565b5f614b9a8261379b565b9150614ba58361379b565b9250828201905080821115614bbd57614bbc6143b5565b5b92915050565b5f60a082019050614bd65f830188613a2d565b614be36020830187613a2d565b614bf06040830186613a2d565b614bfd6060830185613a2d565b614c0a6080830184613ce2565b9695505050505050565b5f608082019050614c275f830187613ce2565b614c346020830186613ce2565b614c416040830185613ce2565b614c4e6060830184613a2d565b95945050505050565b5f81905092915050565b5f614c6b82613c54565b614c758185614c57565b9350614c85818560208601613c6e565b80840191505092915050565b5f614c9c8284614c61565b915081905092915050565b5f60208284031215614cbc57614cbb61370e565b5b5f614cc984828501614502565b91505092915050565b7f4173736f6369617465204661696c6564000000000000000000000000000000005f82015250565b5f614d06601083613fbe565b9150614d1182614cd2565b602082019050919050565b5f6020820190508181035f830152614d3381614cfa565b9050919050565b7f496e76616c696420696e646578000000000000000000000000000000000000005f82015250565b5f614d6e600d83613fbe565b9150614d7982614d3a565b602082019050919050565b5f6020820190508181035f830152614d9b81614d62565b9050919050565b7f4e487b71000000000000000000000000000000000000000000000000000000005f52603260045260245ffd5b7f416c72656164792077697468647261776e0000000000000000000000000000005f82015250565b5f614e03601183613fbe565b9150614e0e82614dcf565b602082019050919050565b5f6020820190508181035f830152614e3081614df7565b9050919050565b7f496e73756666696369656e7420636f6e74726163742062616c616e63650000005f82015250565b5f614e6b601d83613fbe565b9150614e7682614e37565b602082019050919050565b5f6020820190508181035f830152614e9881614e5f565b9050919050565b50565b5f614ead5f83614c57565b9150614eb882614e9f565b5f82019050919050565b5f614ecc82614ea2565b9150819050919050565b7f4661696c656420746f2073656e642048424152000000000000000000000000005f82015250565b5f614f0a601383613fbe565b9150614f1582614ed6565b602082019050919050565b5f6020820190508181035f830152614f3781614efe565b9050919050565b7f546f6b656e207472616e73666572206261636b206661696c65640000000000005f82015250565b5f614f72601a83613fbe565b9150614f7d82614f3e565b602082019050919050565b5f6020820190508181035f830152614f9f81614f66565b9050919050565b7f4661696c656420746f20617070726f766520746f6b656e7320666f7220726f755f8201527f7465720000000000000000000000000000000000000000000000000000000000602082015250565b5f615000602383613fbe565b915061500b82614fa6565b604082019050919050565b5f6020820190508181035f83015261502d81614ff4565b9050919050565b5f61503e82613c54565b6150488185614215565b9350615058818560208601613c6e565b61506181613aae565b840191505092915050565b61507581613735565b82525050565b6150848161379b565b82525050565b5f60a083015f8301518482035f8601526150a48282615034565b91505060208301516150b9602086018261506c565b5060408301516150cc604086018261507b565b5060608301516150df606086018261507b565b5060808301516150f2608086018261507b565b508091505092915050565b5f6020820190508181035f830152615115818461508a565b905092915050565b5f6040820190506151305f830185613a2d565b61513d6020830184613ce2565b9392505050565b5f81519050919050565b5f819050602082019050919050565b5f6151688383615034565b905092915050565b5f602082019050919050565b5f61518682615144565b61519081856141fc565b9350836020820285016151a28561514e565b805f5b858110156151dd57848403895281516151be858261515d565b94506151c983615170565b925060208a019950506001810190506151a5565b50829750879550505050505092915050565b5f6020820190508181035f830152615207818461517c565b905092915050565b5f67ffffffffffffffff82111561522957615228613abe565b5b602082029050602081019050919050565b5f61524c61524784613b36565b613b1c565b90508281526020810184848401111561526857615267613aaa565b5b615273848285613c6e565b509392505050565b5f82601f83011261528f5761528e6137ce565b5b815161529f84826020860161523a565b91505092915050565b5f6152ba6152b58461520f565b613b1c565b905080838252602082019050602084028301858111156152dd576152dc6137d6565b5b835b8181101561532457805167ffffffffffffffff811115615302576153016137ce565b5b80860161530f898261527b565b855260208501945050506020810190506152df565b5050509392505050565b5f82601f830112615342576153416137ce565b5b81516153528482602086016152a8565b91505092915050565b5f602082840312156153705761536f61370e565b5b5f82015167ffffffffffffffff81111561538d5761538c613712565b5b6153998482850161532e565b91505092915050565b5f6080820190506153b55f830187613a2d565b6153c26020830186613a2d565b6153cf6040830185613e5f565b6153dc6060830184613a2d565b95945050505050565b7f4e487b71000000000000000000000000000000000000000000000000000000005f52603160045260245ffd5b7f45706f6368206475726174696f6e206d757374206265203e20300000000000005f82015250565b5f615446601a83613fbe565b915061545182615412565b602082019050919050565b5f6020820190508181035f8301526154738161543a565b9050919050565b5f60408201905061548d5f830185613ce2565b818103602083015261549f8184613c7c565b90509392505050565b5f6040820190506154bb5f830185613e5f565b81810360208301526154cd8184613c7c565b90509392505050565b7f50656e616c7479207261746520657863656564732031303025000000000000005f82015250565b5f61550a601983613fbe565b9150615515826154d6565b602082019050919050565b5f6020820190508181035f830152615537816154fe565b9050919050565b7f4e6f20616374697665207374616b6573000000000000000000000000000000005f82015250565b5f615572601083613fbe565b915061557d8261553e565b602082019050919050565b5f6020820190508181035f83015261559f81615566565b9050919050565b7f48424152207472616e73666572206661696c65640000000000000000000000005f82015250565b5f6155da601483613fbe565b91506155e5826155a6565b602082019050919050565b5f6020820190508181035f830152615607816155ce565b9050919050565b7f4d696e696d756d206475726174696f6e206d757374206265206c6573732074685f8201527f616e206d6178696d756d00000000000000000000000000000000000000000000602082015250565b5f615668602a83613fbe565b91506156738261560e565b604082019050919050565b5f6020820190508181035f8301526156958161565c565b9050919050565b7f4665652063616e6e6f74206265203000000000000000000000000000000000005f82015250565b5f6156d0600f83613fbe565b91506156db8261569c565b602082019050919050565b5f6020820190508181035f8301526156fd816156c4565b9050919050565b7f416c72656164792066696e616c697a65640000000000000000000000000000005f82015250565b5f615738601183613fbe565b915061574382615704565b602082019050919050565b5f6020820190508181035f8301526157658161572c565b9050919050565b7f45706f6368206e6f7420656e64656400000000000000000000000000000000005f82015250565b5f6157a0600f83613fbe565b91506157ab8261576c565b602082019050919050565b5f6020820190508181035f8301526157cd81615794565b9050919050565b5f6060820190506157e75f830186613a2d565b6157f46020830185613a2d565b6158016040830184613a2d565b949350505050565b7f50726576696f75732065706f6368206e6f742066696e616c697a6564000000005f82015250565b5f61583d601c83613fbe565b915061584882615809565b602082019050919050565b5f6020820190508181035f83015261586a81615831565b9050919050565b5f6040820190506158845f830185613a2d565b6158916020830184613a2d565b9392505050565b5f8160601b9050919050565b5f6158ae82615898565b9050919050565b5f6158bf826158a4565b9050919050565b6158d76158d282613735565b6158b5565b82525050565b5f8160e81b9050919050565b5f6158f3826158dd565b9050919050565b61590b61590682613d81565b6158e9565b82525050565b5f61591c82866158c6565b60148201915061592c82856158fa565b60038201915061593c82846158c6565b601482019150819050949350505050565b5f6080820190506159605f830187613ce2565b61596d6020830186613ce2565b61597a6040830185613ce2565b61598760608301846139a9565b95945050505050565b5f6040820190506159a35f830185613ce2565b6159b06020830184613ce2565b9392505050565b7f56616c7565206578636565647320696e743634206d61780000000000000000005f82015250565b5f6159eb601783613fbe565b91506159f6826159b7565b602082019050919050565b5f6020820190508181035f830152615a18816159df565b9050919050565b5f606082019050615a325f830186613ce2565b615a3f6020830185613ce2565b615a4c6040830184613a2d565b94935050505056fea264697066735822122018fc59a33f981ee2d3dd9643253eed24cf5c64db1e439432c46d4801be7b258064736f6c634300081a0033",
			"opcodes": "PUSH1 0x80 PUSH1 0x40 MSTORE PUSH1 0xA PUSH1 0xB SSTORE PUSH0 PUSH1 0xC SSTORE CALLVALUE DUP1 ISZERO PUSH2 0x18 JUMPI PUSH0 DUP1 REVERT JUMPDEST POP PUSH1 0x40 MLOAD PUSH2 0x6217 CODESIZE SUB DUP1 PUSH2 0x6217 DUP4 CODECOPY DUP2 DUP2 ADD PUSH1 0x40 MSTORE DUP2 ADD SWAP1 PUSH2 0x3A SWAP2 SWAP1 PUSH2 0x586 JUMP JUMPDEST CALLER PUSH1 0x1 PUSH0 DUP2 SWAP1 SSTORE POP PUSH0 PUSH20 0xFFFFFFFFFFFFFFFFFFFFFFFFFFFFFFFFFFFFFFFF AND DUP2 PUSH20 0xFFFFFFFFFFFFFFFFFFFFFFFFFFFFFFFFFFFFFFFF AND SUB PUSH2 0xB2 JUMPI PUSH0 PUSH1 0x40 MLOAD PUSH32 0x1E4FBDF700000000000000000000000000000000000000000000000000000000 DUP2 MSTORE PUSH1 0x4 ADD PUSH2 0xA9 SWAP2 SWAP1 PUSH2 0x659 JUMP JUMPDEST PUSH1 0x40 MLOAD DUP1 SWAP2 SUB SWAP1 REVERT JUMPDEST PUSH2 0xC1 DUP2 PUSH2 0x27A PUSH1 0x20 SHL PUSH1 0x20 SHR JUMP JUMPDEST POP DUP9 PUSH1 0xF PUSH0 PUSH2 0x100 EXP DUP2 SLOAD DUP2 PUSH20 0xFFFFFFFFFFFFFFFFFFFFFFFFFFFFFFFFFFFFFFFF MUL NOT AND SWAP1 DUP4 PUSH20 0xFFFFFFFFFFFFFFFFFFFFFFFFFFFFFFFFFFFFFFFF AND MUL OR SWAP1 SSTORE POP DUP8 PUSH1 0xD PUSH0 PUSH2 0x100 EXP DUP2 SLOAD DUP2 PUSH20 0xFFFFFFFFFFFFFFFFFFFFFFFFFFFFFFFFFFFFFFFF MUL NOT AND SWAP1 DUP4 PUSH20 0xFFFFFFFFFFFFFFFFFFFFFFFFFFFFFFFFFFFFFFFF AND MUL OR SWAP1 SSTORE POP DUP7 PUSH1 0xE PUSH0 PUSH2 0x100 EXP DUP2 SLOAD DUP2 PUSH20 0xFFFFFFFFFFFFFFFFFFFFFFFFFFFFFFFFFFFFFFFF MUL NOT AND SWAP1 DUP4 PUSH20 0xFFFFFFFFFFFFFFFFFFFFFFFFFFFFFFFFFFFFFFFF AND MUL OR SWAP1 SSTORE POP DUP7 PUSH1 0x10 PUSH0 PUSH2 0x100 EXP DUP2 SLOAD DUP2 PUSH20 0xFFFFFFFFFFFFFFFFFFFFFFFFFFFFFFFFFFFFFFFF MUL NOT AND SWAP1 DUP4 PUSH20 0xFFFFFFFFFFFFFFFFFFFFFFFFFFFFFFFFFFFFFFFF AND MUL OR SWAP1 SSTORE POP DUP6 PUSH1 0x5 PUSH0 PUSH2 0x100 EXP DUP2 SLOAD DUP2 PUSH20 0xFFFFFFFFFFFFFFFFFFFFFFFFFFFFFFFFFFFFFFFF MUL NOT AND SWAP1 DUP4 PUSH20 0xFFFFFFFFFFFFFFFFFFFFFFFFFFFFFFFFFFFFFFFF AND MUL OR SWAP1 SSTORE POP DUP5 PUSH1 0x6 PUSH0 PUSH2 0x100 EXP DUP2 SLOAD DUP2 PUSH20 0xFFFFFFFFFFFFFFFFFFFFFFFFFFFFFFFFFFFFFFFF MUL NOT AND SWAP1 DUP4 PUSH20 0xFFFFFFFFFFFFFFFFFFFFFFFFFFFFFFFFFFFFFFFF AND MUL OR SWAP1 SSTORE POP DUP4 PUSH1 0x11 DUP2 SWAP1 SSTORE POP DUP3 PUSH1 0x2 DUP2 SWAP1 SSTORE POP DUP2 PUSH1 0x3 DUP2 SWAP1 SSTORE POP DUP1 PUSH1 0x4 DUP2 SWAP1 SSTORE POP PUSH2 0x26C PUSH2 0x33D PUSH1 0x20 SHL PUSH1 0x20 SHR JUMP JUMPDEST POP POP POP POP POP POP POP POP POP PUSH2 0x780 JUMP JUMPDEST PUSH0 PUSH1 0x1 PUSH0 SWAP1 SLOAD SWAP1 PUSH2 0x100 EXP SWAP1 DIV PUSH20 0xFFFFFFFFFFFFFFFFFFFFFFFFFFFFFFFFFFFFFFFF AND SWAP1 POP DUP2 PUSH1 0x1 PUSH0 PUSH2 0x100 EXP DUP2 SLOAD DUP2 PUSH20 0xFFFFFFFFFFFFFFFFFFFFFFFFFFFFFFFFFFFFFFFF MUL NOT AND SWAP1 DUP4 PUSH20 0xFFFFFFFFFFFFFFFFFFFFFFFFFFFFFFFFFFFFFFFF AND MUL OR SWAP1 SSTORE POP DUP2 PUSH20 0xFFFFFFFFFFFFFFFFFFFFFFFFFFFFFFFFFFFFFFFF AND DUP2 PUSH20 0xFFFFFFFFFFFFFFFFFFFFFFFFFFFFFFFFFFFFFFFF AND PUSH32 0x8BE0079C531659141344CD1FD0A4F28419497F9722A3DAAFE3B4186F6B6457E0 PUSH1 0x40 MLOAD PUSH1 0x40 MLOAD DUP1 SWAP2 SUB SWAP1 LOG3 POP POP JUMP JUMPDEST PUSH0 DUP1 PUSH1 0xC SLOAD GT ISZERO PUSH2 0x3C4 JUMPI PUSH1 0xA PUSH0 PUSH1 0xC SLOAD DUP2 MSTORE PUSH1 0x20 ADD SWAP1 DUP2 MSTORE PUSH1 0x20 ADD PUSH0 KECCAK256 PUSH1 0x5 ADD PUSH0 SWAP1 SLOAD SWAP1 PUSH2 0x100 EXP SWAP1 DIV PUSH1 0xFF AND PUSH2 0x3AA JUMPI PUSH1 0x40 MLOAD PUSH32 0x8C379A000000000000000000000000000000000000000000000000000000000 DUP2 MSTORE PUSH1 0x4 ADD PUSH2 0x3A1 SWAP1 PUSH2 0x6CC JUMP JUMPDEST PUSH1 0x40 MLOAD DUP1 SWAP2 SUB SWAP1 REVERT JUMPDEST PUSH1 0xA PUSH0 PUSH1 0xC SLOAD DUP2 MSTORE PUSH1 0x20 ADD SWAP1 DUP2 MSTORE PUSH1 0x20 ADD PUSH0 KECCAK256 PUSH1 0x3 ADD SLOAD SWAP1 POP JUMPDEST PUSH0 PUSH1 0x4 SLOAD TIMESTAMP PUSH2 0x3D3 SWAP2 SWAP1 PUSH2 0x717 JUMP JUMPDEST SWAP1 POP PUSH1 0x1 PUSH1 0xC PUSH0 DUP3 DUP3 SLOAD PUSH2 0x3E7 SWAP2 SWAP1 PUSH2 0x717 JUMP JUMPDEST SWAP3 POP POP DUP2 SWAP1 SSTORE POP PUSH1 0x40 MLOAD DUP1 PUSH1 0xC0 ADD PUSH1 0x40 MSTORE DUP1 TIMESTAMP DUP2 MSTORE PUSH1 0x20 ADD DUP3 DUP2 MSTORE PUSH1 0x20 ADD PUSH0 DUP2 MSTORE PUSH1 0x20 ADD DUP4 DUP2 MSTORE PUSH1 0x20 ADD PUSH0 DUP2 MSTORE PUSH1 0x20 ADD PUSH0 ISZERO ISZERO DUP2 MSTORE POP PUSH1 0xA PUSH0 PUSH1 0xC SLOAD DUP2 MSTORE PUSH1 0x20 ADD SWAP1 DUP2 MSTORE PUSH1 0x20 ADD PUSH0 KECCAK256 PUSH0 DUP3 ADD MLOAD DUP2 PUSH0 ADD SSTORE PUSH1 0x20 DUP3 ADD MLOAD DUP2 PUSH1 0x1 ADD SSTORE PUSH1 0x40 DUP3 ADD MLOAD DUP2 PUSH1 0x2 ADD SSTORE PUSH1 0x60 DUP3 ADD MLOAD DUP2 PUSH1 0x3 ADD SSTORE PUSH1 0x80 DUP3 ADD MLOAD DUP2 PUSH1 0x4 ADD SSTORE PUSH1 0xA0 DUP3 ADD MLOAD DUP2 PUSH1 0x5 ADD PUSH0 PUSH2 0x100 EXP DUP2 SLOAD DUP2 PUSH1 0xFF MUL NOT AND SWAP1 DUP4 ISZERO ISZERO MUL OR SWAP1 SSTORE POP SWAP1 POP POP PUSH1 0xC SLOAD PUSH32 0x29DB3DEB62EF2036E5EB93AAD68D2362AEC0711AF592CB365566603BD88651D4 TIMESTAMP DUP4 PUSH1 0x40 MLOAD PUSH2 0x4B6 SWAP3 SWAP2 SWAP1 PUSH2 0x759 JUMP JUMPDEST PUSH1 0x40 MLOAD DUP1 SWAP2 SUB SWAP1 LOG2 POP POP JUMP JUMPDEST PUSH0 DUP1 REVERT JUMPDEST PUSH0 PUSH20 0xFFFFFFFFFFFFFFFFFFFFFFFFFFFFFFFFFFFFFFFF DUP3 AND SWAP1 POP SWAP2 SWAP1 POP JUMP JUMPDEST PUSH0 PUSH2 0x4EF DUP3 PUSH2 0x4C6 JUMP JUMPDEST SWAP1 POP SWAP2 SWAP1 POP JUMP JUMPDEST PUSH2 0x4FF DUP2 PUSH2 0x4E5 JUMP JUMPDEST DUP2 EQ PUSH2 0x509 JUMPI PUSH0 DUP1 REVERT JUMPDEST POP JUMP JUMPDEST PUSH0 DUP2 MLOAD SWAP1 POP PUSH2 0x51A DUP2 PUSH2 0x4F6 JUMP JUMPDEST SWAP3 SWAP2 POP POP JUMP JUMPDEST PUSH0 DUP2 SWAP1 POP SWAP2 SWAP1 POP JUMP JUMPDEST PUSH2 0x532 DUP2 PUSH2 0x520 JUMP JUMPDEST DUP2 EQ PUSH2 0x53C JUMPI PUSH0 DUP1 REVERT JUMPDEST POP JUMP JUMPDEST PUSH0 DUP2 MLOAD SWAP1 POP PUSH2 0x54D DUP2 PUSH2 0x529 JUMP JUMPDEST SWAP3 SWAP2 POP POP JUMP JUMPDEST PUSH0 DUP2 SWAP1 POP SWAP2 SWAP1 POP JUMP JUMPDEST PUSH2 0x565 DUP2 PUSH2 0x553 JUMP JUMPDEST DUP2 EQ PUSH2 0x56F JUMPI PUSH0 DUP1 REVERT JUMPDEST POP JUMP JUMPDEST PUSH0 DUP2 MLOAD SWAP1 POP PUSH2 0x580 DUP2 PUSH2 0x55C JUMP JUMPDEST SWAP3 SWAP2 POP POP JUMP JUMPDEST PUSH0 DUP1 PUSH0 DUP1 PUSH0 DUP1 PUSH0 DUP1 PUSH0 PUSH2 0x120 DUP11 DUP13 SUB SLT ISZERO PUSH2 0x5A4 JUMPI PUSH2 0x5A3 PUSH2 0x4C2 JUMP JUMPDEST JUMPDEST PUSH0 PUSH2 0x5B1 DUP13 DUP3 DUP14 ADD PUSH2 0x50C JUMP JUMPDEST SWAP10 POP POP PUSH1 0x20 PUSH2 0x5C2 DUP13 DUP3 DUP14 ADD PUSH2 0x50C JUMP JUMPDEST SWAP9 POP POP PUSH1 0x40 PUSH2 0x5D3 DUP13 DUP3 DUP14 ADD PUSH2 0x50C JUMP JUMPDEST SWAP8 POP POP PUSH1 0x60 PUSH2 0x5E4 DUP13 DUP3 DUP14 ADD PUSH2 0x50C JUMP JUMPDEST SWAP7 POP POP PUSH1 0x80 PUSH2 0x5F5 DUP13 DUP3 DUP14 ADD PUSH2 0x50C JUMP JUMPDEST SWAP6 POP POP PUSH1 0xA0 PUSH2 0x606 DUP13 DUP3 DUP14 ADD PUSH2 0x53F JUMP JUMPDEST SWAP5 POP POP PUSH1 0xC0 PUSH2 0x617 DUP13 DUP3 DUP14 ADD PUSH2 0x572 JUMP JUMPDEST SWAP4 POP POP PUSH1 0xE0 PUSH2 0x628 DUP13 DUP3 DUP14 ADD PUSH2 0x572 JUMP JUMPDEST SWAP3 POP POP PUSH2 0x100 PUSH2 0x63A DUP13 DUP3 DUP14 ADD PUSH2 0x572 JUMP JUMPDEST SWAP2 POP POP SWAP3 SWAP6 SWAP9 POP SWAP3 SWAP6 SWAP9 POP SWAP3 SWAP6 SWAP9 JUMP JUMPDEST PUSH2 0x653 DUP2 PUSH2 0x4E5 JUMP JUMPDEST DUP3 MSTORE POP POP JUMP JUMPDEST PUSH0 PUSH1 0x20 DUP3 ADD SWAP1 POP PUSH2 0x66C PUSH0 DUP4 ADD DUP5 PUSH2 0x64A JUMP JUMPDEST SWAP3 SWAP2 POP POP JUMP JUMPDEST PUSH0 DUP3 DUP3 MSTORE PUSH1 0x20 DUP3 ADD SWAP1 POP SWAP3 SWAP2 POP POP JUMP JUMPDEST PUSH32 0x50726576696F75732065706F6368206E6F742066696E616C697A656400000000 PUSH0 DUP3 ADD MSTORE POP JUMP JUMPDEST PUSH0 PUSH2 0x6B6 PUSH1 0x1C DUP4 PUSH2 0x672 JUMP JUMPDEST SWAP2 POP PUSH2 0x6C1 DUP3 PUSH2 0x682 JUMP JUMPDEST PUSH1 0x20 DUP3 ADD SWAP1 POP SWAP2 SWAP1 POP JUMP JUMPDEST PUSH0 PUSH1 0x20 DUP3 ADD SWAP1 POP DUP2 DUP2 SUB PUSH0 DUP4 ADD MSTORE PUSH2 0x6E3 DUP2 PUSH2 0x6AA JUMP JUMPDEST SWAP1 POP SWAP2 SWAP1 POP JUMP JUMPDEST PUSH32 0x4E487B7100000000000000000000000000000000000000000000000000000000 PUSH0 MSTORE PUSH1 0x11 PUSH1 0x4 MSTORE PUSH1 0x24 PUSH0 REVERT JUMPDEST PUSH0 PUSH2 0x721 DUP3 PUSH2 0x553 JUMP JUMPDEST SWAP2 POP PUSH2 0x72C DUP4 PUSH2 0x553 JUMP JUMPDEST SWAP3 POP DUP3 DUP3 ADD SWAP1 POP DUP1 DUP3 GT ISZERO PUSH2 0x744 JUMPI PUSH2 0x743 PUSH2 0x6EA JUMP JUMPDEST JUMPDEST SWAP3 SWAP2 POP POP JUMP JUMPDEST PUSH2 0x753 DUP2 PUSH2 0x553 JUMP JUMPDEST DUP3 MSTORE POP POP JUMP JUMPDEST PUSH0 PUSH1 0x40 DUP3 ADD SWAP1 POP PUSH2 0x76C PUSH0 DUP4 ADD DUP6 PUSH2 0x74A JUMP JUMPDEST PUSH2 0x779 PUSH1 0x20 DUP4 ADD DUP5 PUSH2 0x74A JUMP JUMPDEST SWAP4 SWAP3 POP POP POP JUMP JUMPDEST PUSH2 0x5A8A DUP1 PUSH2 0x78D PUSH0 CODECOPY PUSH0 RETURN INVALID PUSH1 0x80 PUSH1 0x40 MSTORE PUSH1 0x4 CALLDATASIZE LT PUSH2 0x212 JUMPI PUSH0 CALLDATALOAD PUSH1 0xE0 SHR DUP1 PUSH4 0x8DA5CB5B GT PUSH2 0x117 JUMPI DUP1 PUSH4 0xC6B61E4C GT PUSH2 0x9F JUMPI DUP1 PUSH4 0xEE22FD6F GT PUSH2 0x6E JUMPI DUP1 PUSH4 0xEE22FD6F EQ PUSH2 0x75E JUMPI DUP1 PUSH4 0xF2FDE38B EQ PUSH2 0x786 JUMPI DUP1 PUSH4 0xF3DBDFE5 EQ PUSH2 0x7AE JUMPI DUP1 PUSH4 0xF3FD622F EQ PUSH2 0x7EA JUMPI DUP1 PUSH4 0xF98D06F0 EQ PUSH2 0x812 JUMPI PUSH2 0x219 JUMP JUMPDEST DUP1 PUSH4 0xC6B61E4C EQ PUSH2 0x6A3 JUMPI DUP1 PUSH4 0xD6B7494F EQ PUSH2 0x6E4 JUMPI DUP1 PUSH4 0xD8990C11 EQ PUSH2 0x70E JUMPI DUP1 PUSH4 0xD9CD6E39 EQ PUSH2 0x736 JUMPI PUSH2 0x219 JUMP JUMPDEST DUP1 PUSH4 0xA8559A96 GT PUSH2 0xE6 JUMPI DUP1 PUSH4 0xA8559A96 EQ PUSH2 0x5BC JUMPI DUP1 PUSH4 0xA9563E4F EQ PUSH2 0x5E6 JUMPI DUP1 PUSH4 0xAA9BBC0C EQ PUSH2 0x622 JUMPI DUP1 PUSH4 0xB5D5B5FA EQ PUSH2 0x64C JUMPI DUP1 PUSH4 0xB88A802F EQ PUSH2 0x68D JUMPI PUSH2 0x219 JUMP JUMPDEST DUP1 PUSH4 0x8DA5CB5B EQ PUSH2 0x504 JUMPI DUP1 PUSH4 0x91E98F55 EQ PUSH2 0x52E JUMPI DUP1 PUSH4 0x9B23D3D9 EQ PUSH2 0x558 JUMPI DUP1 PUSH4 0xA1BAB447 EQ PUSH2 0x594 JUMPI PUSH2 0x219 JUMP JUMPDEST DUP1 PUSH4 0x55F741FA GT PUSH2 0x19A JUMPI DUP1 PUSH4 0x6EE8CC45 GT PUSH2 0x169 JUMPI DUP1 PUSH4 0x6EE8CC45 EQ PUSH2 0x448 JUMPI DUP1 PUSH4 0x715018A6 EQ PUSH2 0x472 JUMPI DUP1 PUSH4 0x76F70003 EQ PUSH2 0x488 JUMPI DUP1 PUSH4 0x77B53ECE EQ PUSH2 0x4B2 JUMPI DUP1 PUSH4 0x7A04EA99 EQ PUSH2 0x4DC JUMPI PUSH2 0x219 JUMP JUMPDEST DUP1 PUSH4 0x55F741FA EQ PUSH2 0x391 JUMPI DUP1 PUSH4 0x587B47B0 EQ PUSH2 0x3B9 JUMPI DUP1 PUSH4 0x5FEC5C64 EQ PUSH2 0x3E1 JUMPI DUP1 PUSH4 0x618DC65E EQ PUSH2 0x40B JUMPI PUSH2 0x219 JUMP JUMPDEST DUP1 PUSH4 0x1A2A5E15 GT PUSH2 0x1E1 JUMPI DUP1 PUSH4 0x1A2A5E15 EQ PUSH2 0x2C5 JUMPI DUP1 PUSH4 0x2E1A7D4D EQ PUSH2 0x2ED JUMPI DUP1 PUSH4 0x30024DFE EQ PUSH2 0x315 JUMPI DUP1 PUSH4 0x4A9138C6 EQ PUSH2 0x33D JUMPI DUP1 PUSH4 0x4FF0876A EQ PUSH2 0x367 JUMPI PUSH2 0x219 JUMP JUMPDEST DUP1 PUSH4 0x818F6D7 EQ PUSH2 0x21B JUMPI DUP1 PUSH4 0x9716DEE EQ PUSH2 0x243 JUMPI DUP1 PUSH4 0xD07BE2D EQ PUSH2 0x25F JUMPI DUP1 PUSH4 0x15DACBEA EQ PUSH2 0x289 JUMPI PUSH2 0x219 JUMP JUMPDEST CALLDATASIZE PUSH2 0x219 JUMPI STOP JUMPDEST STOP JUMPDEST CALLVALUE DUP1 ISZERO PUSH2 0x226 JUMPI PUSH0 DUP1 REVERT JUMPDEST POP PUSH2 0x241 PUSH1 0x4 DUP1 CALLDATASIZE SUB DUP2 ADD SWAP1 PUSH2 0x23C SWAP2 SWAP1 PUSH2 0x3770 JUMP JUMPDEST PUSH2 0x83C JUMP JUMPDEST STOP JUMPDEST PUSH2 0x25D PUSH1 0x4 DUP1 CALLDATASIZE SUB DUP2 ADD SWAP1 PUSH2 0x258 SWAP2 SWAP1 PUSH2 0x382F JUMP JUMPDEST PUSH2 0x935 JUMP JUMPDEST STOP JUMPDEST CALLVALUE DUP1 ISZERO PUSH2 0x26A JUMPI PUSH0 DUP1 REVERT JUMPDEST POP PUSH2 0x273 PUSH2 0x1248 JUMP JUMPDEST PUSH1 0x40 MLOAD PUSH2 0x280 SWAP2 SWAP1 PUSH2 0x3920 JUMP JUMPDEST PUSH1 0x40 MLOAD DUP1 SWAP2 SUB SWAP1 RETURN JUMPDEST CALLVALUE DUP1 ISZERO PUSH2 0x294 JUMPI PUSH0 DUP1 REVERT JUMPDEST POP PUSH2 0x2AF PUSH1 0x4 DUP1 CALLDATASIZE SUB DUP2 ADD SWAP1 PUSH2 0x2AA SWAP2 SWAP1 PUSH2 0x3939 JUMP JUMPDEST PUSH2 0x126D JUMP JUMPDEST PUSH1 0x40 MLOAD PUSH2 0x2BC SWAP2 SWAP1 PUSH2 0x39B8 JUMP JUMPDEST PUSH1 0x40 MLOAD DUP1 SWAP2 SUB SWAP1 RETURN JUMPDEST CALLVALUE DUP1 ISZERO PUSH2 0x2D0 JUMPI PUSH0 DUP1 REVERT JUMPDEST POP PUSH2 0x2EB PUSH1 0x4 DUP1 CALLDATASIZE SUB DUP2 ADD SWAP1 PUSH2 0x2E6 SWAP2 SWAP1 PUSH2 0x3770 JUMP JUMPDEST PUSH2 0x1385 JUMP JUMPDEST STOP JUMPDEST CALLVALUE DUP1 ISZERO PUSH2 0x2F8 JUMPI PUSH0 DUP1 REVERT JUMPDEST POP PUSH2 0x313 PUSH1 0x4 DUP1 CALLDATASIZE SUB DUP2 ADD SWAP1 PUSH2 0x30E SWAP2 SWAP1 PUSH2 0x39D1 JUMP JUMPDEST PUSH2 0x141B JUMP JUMPDEST STOP JUMPDEST CALLVALUE DUP1 ISZERO PUSH2 0x320 JUMPI PUSH0 DUP1 REVERT JUMPDEST POP PUSH2 0x33B PUSH1 0x4 DUP1 CALLDATASIZE SUB DUP2 ADD SWAP1 PUSH2 0x336 SWAP2 SWAP1 PUSH2 0x39D1 JUMP JUMPDEST PUSH2 0x203B JUMP JUMPDEST STOP JUMPDEST CALLVALUE DUP1 ISZERO PUSH2 0x348 JUMPI PUSH0 DUP1 REVERT JUMPDEST POP PUSH2 0x351 PUSH2 0x208F JUMP JUMPDEST PUSH1 0x40 MLOAD PUSH2 0x35E SWAP2 SWAP1 PUSH2 0x3A14 JUMP JUMPDEST PUSH1 0x40 MLOAD DUP1 SWAP2 SUB SWAP1 RETURN JUMPDEST CALLVALUE DUP1 ISZERO PUSH2 0x372 JUMPI PUSH0 DUP1 REVERT JUMPDEST POP PUSH2 0x37B PUSH2 0x2095 JUMP JUMPDEST PUSH1 0x40 MLOAD PUSH2 0x388 SWAP2 SWAP1 PUSH2 0x3A3C JUMP JUMPDEST PUSH1 0x40 MLOAD DUP1 SWAP2 SUB SWAP1 RETURN JUMPDEST CALLVALUE DUP1 ISZERO PUSH2 0x39C JUMPI PUSH0 DUP1 REVERT JUMPDEST POP PUSH2 0x3B7 PUSH1 0x4 DUP1 CALLDATASIZE SUB DUP2 ADD SWAP1 PUSH2 0x3B2 SWAP2 SWAP1 PUSH2 0x3770 JUMP JUMPDEST PUSH2 0x209B JUMP JUMPDEST STOP JUMPDEST CALLVALUE DUP1 ISZERO PUSH2 0x3C4 JUMPI PUSH0 DUP1 REVERT JUMPDEST POP PUSH2 0x3DF PUSH1 0x4 DUP1 CALLDATASIZE SUB DUP2 ADD SWAP1 PUSH2 0x3DA SWAP2 SWAP1 PUSH2 0x3A7F JUMP JUMPDEST PUSH2 0x2154 JUMP JUMPDEST STOP JUMPDEST CALLVALUE DUP1 ISZERO PUSH2 0x3EC JUMPI PUSH0 DUP1 REVERT JUMPDEST POP PUSH2 0x3F5 PUSH2 0x2166 JUMP JUMPDEST PUSH1 0x40 MLOAD PUSH2 0x402 SWAP2 SWAP1 PUSH2 0x3A3C JUMP JUMPDEST PUSH1 0x40 MLOAD DUP1 SWAP2 SUB SWAP1 RETURN JUMPDEST CALLVALUE DUP1 ISZERO PUSH2 0x416 JUMPI PUSH0 DUP1 REVERT JUMPDEST POP PUSH2 0x431 PUSH1 0x4 DUP1 CALLDATASIZE SUB DUP2 ADD SWAP1 PUSH2 0x42C SWAP2 SWAP1 PUSH2 0x3BE2 JUMP JUMPDEST PUSH2 0x216C JUMP JUMPDEST PUSH1 0x40 MLOAD PUSH2 0x43F SWAP3 SWAP2 SWAP1 PUSH2 0x3CB4 JUMP JUMPDEST PUSH1 0x40 MLOAD DUP1 SWAP2 SUB SWAP1 RETURN JUMPDEST CALLVALUE DUP1 ISZERO PUSH2 0x453 JUMPI PUSH0 DUP1 REVERT JUMPDEST POP PUSH2 0x45C PUSH2 0x22C1 JUMP JUMPDEST PUSH1 0x40 MLOAD PUSH2 0x469 SWAP2 SWAP1 PUSH2 0x3CF1 JUMP JUMPDEST PUSH1 0x40 MLOAD DUP1 SWAP2 SUB SWAP1 RETURN JUMPDEST CALLVALUE DUP1 ISZERO PUSH2 0x47D JUMPI PUSH0 DUP1 REVERT JUMPDEST POP PUSH2 0x486 PUSH2 0x22E6 JUMP JUMPDEST STOP JUMPDEST CALLVALUE DUP1 ISZERO PUSH2 0x493 JUMPI PUSH0 DUP1 REVERT JUMPDEST POP PUSH2 0x49C PUSH2 0x22F9 JUMP JUMPDEST PUSH1 0x40 MLOAD PUSH2 0x4A9 SWAP2 SWAP1 PUSH2 0x3A3C JUMP JUMPDEST PUSH1 0x40 MLOAD DUP1 SWAP2 SUB SWAP1 RETURN JUMPDEST CALLVALUE DUP1 ISZERO PUSH2 0x4BD JUMPI PUSH0 DUP1 REVERT JUMPDEST POP PUSH2 0x4C6 PUSH2 0x22FF JUMP JUMPDEST PUSH1 0x40 MLOAD PUSH2 0x4D3 SWAP2 SWAP1 PUSH2 0x3CF1 JUMP JUMPDEST PUSH1 0x40 MLOAD DUP1 SWAP2 SUB SWAP1 RETURN JUMPDEST CALLVALUE DUP1 ISZERO PUSH2 0x4E7 JUMPI PUSH0 DUP1 REVERT JUMPDEST POP PUSH2 0x502 PUSH1 0x4 DUP1 CALLDATASIZE SUB DUP2 ADD SWAP1 PUSH2 0x4FD SWAP2 SWAP1 PUSH2 0x3770 JUMP JUMPDEST PUSH2 0x2324 JUMP JUMPDEST STOP JUMPDEST CALLVALUE DUP1 ISZERO PUSH2 0x50F JUMPI PUSH0 DUP1 REVERT JUMPDEST POP PUSH2 0x518 PUSH2 0x23DD JUMP JUMPDEST PUSH1 0x40 MLOAD PUSH2 0x525 SWAP2 SWAP1 PUSH2 0x3CF1 JUMP JUMPDEST PUSH1 0x40 MLOAD DUP1 SWAP2 SUB SWAP1 RETURN JUMPDEST CALLVALUE DUP1 ISZERO PUSH2 0x539 JUMPI PUSH0 DUP1 REVERT JUMPDEST POP PUSH2 0x542 PUSH2 0x2405 JUMP JUMPDEST PUSH1 0x40 MLOAD PUSH2 0x54F SWAP2 SWAP1 PUSH2 0x3CF1 JUMP JUMPDEST PUSH1 0x40 MLOAD DUP1 SWAP2 SUB SWAP1 RETURN JUMPDEST CALLVALUE DUP1 ISZERO PUSH2 0x563 JUMPI PUSH0 DUP1 REVERT JUMPDEST POP PUSH2 0x57E PUSH1 0x4 DUP1 CALLDATASIZE SUB DUP2 ADD SWAP1 PUSH2 0x579 SWAP2 SWAP1 PUSH2 0x3939 JUMP JUMPDEST PUSH2 0x242A JUMP JUMPDEST PUSH1 0x40 MLOAD PUSH2 0x58B SWAP2 SWAP1 PUSH2 0x39B8 JUMP JUMPDEST PUSH1 0x40 MLOAD DUP1 SWAP2 SUB SWAP1 RETURN JUMPDEST CALLVALUE DUP1 ISZERO PUSH2 0x59F JUMPI PUSH0 DUP1 REVERT JUMPDEST POP PUSH2 0x5BA PUSH1 0x4 DUP1 CALLDATASIZE SUB DUP2 ADD SWAP1 PUSH2 0x5B5 SWAP2 SWAP1 PUSH2 0x39D1 JUMP JUMPDEST PUSH2 0x2542 JUMP JUMPDEST STOP JUMPDEST CALLVALUE DUP1 ISZERO PUSH2 0x5C7 JUMPI PUSH0 DUP1 REVERT JUMPDEST POP PUSH2 0x5D0 PUSH2 0x2598 JUMP JUMPDEST PUSH1 0x40 MLOAD PUSH2 0x5DD SWAP2 SWAP1 PUSH2 0x3D2A JUMP JUMPDEST PUSH1 0x40 MLOAD DUP1 SWAP2 SUB SWAP1 RETURN JUMPDEST CALLVALUE DUP1 ISZERO PUSH2 0x5F1 JUMPI PUSH0 DUP1 REVERT JUMPDEST POP PUSH2 0x60C PUSH1 0x4 DUP1 CALLDATASIZE SUB DUP2 ADD SWAP1 PUSH2 0x607 SWAP2 SWAP1 PUSH2 0x3D43 JUMP JUMPDEST PUSH2 0x25BD JUMP JUMPDEST PUSH1 0x40 MLOAD PUSH2 0x619 SWAP2 SWAP1 PUSH2 0x3D9E JUMP JUMPDEST PUSH1 0x40 MLOAD DUP1 SWAP2 SUB SWAP1 RETURN JUMPDEST CALLVALUE DUP1 ISZERO PUSH2 0x62D JUMPI PUSH0 DUP1 REVERT JUMPDEST POP PUSH2 0x636 PUSH2 0x25E9 JUMP JUMPDEST PUSH1 0x40 MLOAD PUSH2 0x643 SWAP2 SWAP1 PUSH2 0x3A3C JUMP JUMPDEST PUSH1 0x40 MLOAD DUP1 SWAP2 SUB SWAP1 RETURN JUMPDEST CALLVALUE DUP1 ISZERO PUSH2 0x657 JUMPI PUSH0 DUP1 REVERT JUMPDEST POP PUSH2 0x672 PUSH1 0x4 DUP1 CALLDATASIZE SUB DUP2 ADD SWAP1 PUSH2 0x66D SWAP2 SWAP1 PUSH2 0x3DB7 JUMP JUMPDEST PUSH2 0x25EF JUMP JUMPDEST PUSH1 0x40 MLOAD PUSH2 0x684 SWAP7 SWAP6 SWAP5 SWAP4 SWAP3 SWAP2 SWAP1 PUSH2 0x3DF5 JUMP JUMPDEST PUSH1 0x40 MLOAD DUP1 SWAP2 SUB SWAP1 RETURN JUMPDEST CALLVALUE DUP1 ISZERO PUSH2 0x698 JUMPI PUSH0 DUP1 REVERT JUMPDEST POP PUSH2 0x6A1 PUSH2 0x2660 JUMP JUMPDEST STOP JUMPDEST CALLVALUE DUP1 ISZERO PUSH2 0x6AE JUMPI PUSH0 DUP1 REVERT JUMPDEST POP PUSH2 0x6C9 PUSH1 0x4 DUP1 CALLDATASIZE SUB DUP2 ADD SWAP1 PUSH2 0x6C4 SWAP2 SWAP1 PUSH2 0x39D1 JUMP JUMPDEST PUSH2 0x299C JUMP JUMPDEST PUSH1 0x40 MLOAD PUSH2 0x6DB SWAP7 SWAP6 SWAP5 SWAP4 SWAP3 SWAP2 SWAP1 PUSH2 0x3E6E JUMP JUMPDEST PUSH1 0x40 MLOAD DUP1 SWAP2 SUB SWAP1 RETURN JUMPDEST CALLVALUE DUP1 ISZERO PUSH2 0x6EF JUMPI PUSH0 DUP1 REVERT JUMPDEST POP PUSH2 0x6F8 PUSH2 0x29E0 JUMP JUMPDEST PUSH1 0x40 MLOAD PUSH2 0x705 SWAP2 SWAP1 PUSH2 0x3A3C JUMP JUMPDEST PUSH1 0x40 MLOAD DUP1 SWAP2 SUB SWAP1 RETURN JUMPDEST CALLVALUE DUP1 ISZERO PUSH2 0x719 JUMPI PUSH0 DUP1 REVERT JUMPDEST POP PUSH2 0x734 PUSH1 0x4 DUP1 CALLDATASIZE SUB DUP2 ADD SWAP1 PUSH2 0x72F SWAP2 SWAP1 PUSH2 0x3ECD JUMP JUMPDEST PUSH2 0x29E6 JUMP JUMPDEST STOP JUMPDEST CALLVALUE DUP1 ISZERO PUSH2 0x741 JUMPI PUSH0 DUP1 REVERT JUMPDEST POP PUSH2 0x75C PUSH1 0x4 DUP1 CALLDATASIZE SUB DUP2 ADD SWAP1 PUSH2 0x757 SWAP2 SWAP1 PUSH2 0x3F35 JUMP JUMPDEST PUSH2 0x2A42 JUMP JUMPDEST STOP JUMPDEST CALLVALUE DUP1 ISZERO PUSH2 0x769 JUMPI PUSH0 DUP1 REVERT JUMPDEST POP PUSH2 0x784 PUSH1 0x4 DUP1 CALLDATASIZE SUB DUP2 ADD SWAP1 PUSH2 0x77F SWAP2 SWAP1 PUSH2 0x3770 JUMP JUMPDEST PUSH2 0x2B2A JUMP JUMPDEST STOP JUMPDEST CALLVALUE DUP1 ISZERO PUSH2 0x791 JUMPI PUSH0 DUP1 REVERT JUMPDEST POP PUSH2 0x7AC PUSH1 0x4 DUP1 CALLDATASIZE SUB DUP2 ADD SWAP1 PUSH2 0x7A7 SWAP2 SWAP1 PUSH2 0x3770 JUMP JUMPDEST PUSH2 0x2BE3 JUMP JUMPDEST STOP JUMPDEST CALLVALUE DUP1 ISZERO PUSH2 0x7B9 JUMPI PUSH0 DUP1 REVERT JUMPDEST POP PUSH2 0x7D4 PUSH1 0x4 DUP1 CALLDATASIZE SUB DUP2 ADD SWAP1 PUSH2 0x7CF SWAP2 SWAP1 PUSH2 0x3770 JUMP JUMPDEST PUSH2 0x2C67 JUMP JUMPDEST PUSH1 0x40 MLOAD PUSH2 0x7E1 SWAP2 SWAP1 PUSH2 0x3A3C JUMP JUMPDEST PUSH1 0x40 MLOAD DUP1 SWAP2 SUB SWAP1 RETURN JUMPDEST CALLVALUE DUP1 ISZERO PUSH2 0x7F5 JUMPI PUSH0 DUP1 REVERT JUMPDEST POP PUSH2 0x810 PUSH1 0x4 DUP1 CALLDATASIZE SUB DUP2 ADD SWAP1 PUSH2 0x80B SWAP2 SWAP1 PUSH2 0x3770 JUMP JUMPDEST PUSH2 0x2C7C JUMP JUMPDEST STOP JUMPDEST CALLVALUE DUP1 ISZERO PUSH2 0x81D JUMPI PUSH0 DUP1 REVERT JUMPDEST POP PUSH2 0x826 PUSH2 0x2D35 JUMP JUMPDEST PUSH1 0x40 MLOAD PUSH2 0x833 SWAP2 SWAP1 PUSH2 0x3FA5 JUMP JUMPDEST PUSH1 0x40 MLOAD DUP1 SWAP2 SUB SWAP1 RETURN JUMPDEST PUSH2 0x844 PUSH2 0x2D5A JUMP JUMPDEST PUSH0 PUSH20 0xFFFFFFFFFFFFFFFFFFFFFFFFFFFFFFFFFFFFFFFF AND DUP2 PUSH20 0xFFFFFFFFFFFFFFFFFFFFFFFFFFFFFFFFFFFFFFFF AND SUB PUSH2 0x8B2 JUMPI PUSH1 0x40 MLOAD PUSH32 0x8C379A000000000000000000000000000000000000000000000000000000000 DUP2 MSTORE PUSH1 0x4 ADD PUSH2 0x8A9 SWAP1 PUSH2 0x4018 JUMP JUMPDEST PUSH1 0x40 MLOAD DUP1 SWAP2 SUB SWAP1 REVERT JUMPDEST DUP1 PUSH1 0xE PUSH0 PUSH2 0x100 EXP DUP2 SLOAD DUP2 PUSH20 0xFFFFFFFFFFFFFFFFFFFFFFFFFFFFFFFFFFFFFFFF MUL NOT AND SWAP1 DUP4 PUSH20 0xFFFFFFFFFFFFFFFFFFFFFFFFFFFFFFFFFFFFFFFF AND MUL OR SWAP1 SSTORE POP DUP1 PUSH1 0x10 PUSH0 PUSH2 0x100 EXP DUP2 SLOAD DUP2 PUSH20 0xFFFFFFFFFFFFFFFFFFFFFFFFFFFFFFFFFFFFFFFF MUL NOT AND SWAP1 DUP4 PUSH20 0xFFFFFFFFFFFFFFFFFFFFFFFFFFFFFFFFFFFFFFFF AND MUL OR SWAP1 SSTORE POP POP JUMP JUMPDEST PUSH2 0x93D PUSH2 0x2DE1 JUMP JUMPDEST PUSH0 PUSH1 0xA PUSH0 PUSH1 0xC SLOAD DUP2 MSTORE PUSH1 0x20 ADD SWAP1 DUP2 MSTORE PUSH1 0x20 ADD PUSH0 KECCAK256 SWAP1 POP DUP1 PUSH1 0x1 ADD SLOAD TIMESTAMP GT DUP1 ISZERO PUSH2 0x974 JUMPI POP DUP1 PUSH1 0x5 ADD PUSH0 SWAP1 SLOAD SWAP1 PUSH2 0x100 EXP SWAP1 DIV PUSH1 0xFF AND ISZERO JUMPDEST ISZERO PUSH2 0x98A JUMPI PUSH2 0x981 PUSH2 0x2E25 JUMP JUMPDEST PUSH2 0x989 PUSH2 0x2F73 JUMP JUMPDEST JUMPDEST PUSH0 DUP7 GT PUSH2 0x9CC JUMPI PUSH1 0x40 MLOAD PUSH32 0x8C379A000000000000000000000000000000000000000000000000000000000 DUP2 MSTORE PUSH1 0x4 ADD PUSH2 0x9C3 SWAP1 PUSH2 0x4080 JUMP JUMPDEST PUSH1 0x40 MLOAD DUP1 SWAP2 SUB SWAP1 REVERT JUMPDEST PUSH1 0x2 SLOAD DUP6 LT ISZERO DUP1 ISZERO PUSH2 0x9E0 JUMPI POP PUSH1 0x3 SLOAD DUP6 GT ISZERO JUMPDEST PUSH2 0xA1F JUMPI PUSH1 0x40 MLOAD PUSH32 0x8C379A000000000000000000000000000000000000000000000000000000000 DUP2 MSTORE PUSH1 0x4 ADD PUSH2 0xA16 SWAP1 PUSH2 0x40E8 JUMP JUMPDEST PUSH1 0x40 MLOAD DUP1 SWAP2 SUB SWAP1 REVERT JUMPDEST PUSH1 0xA PUSH1 0x9 PUSH0 CALLER PUSH20 0xFFFFFFFFFFFFFFFFFFFFFFFFFFFFFFFFFFFFFFFF AND PUSH20 0xFFFFFFFFFFFFFFFFFFFFFFFFFFFFFFFFFFFFFFFF AND DUP2 MSTORE PUSH1 0x20 ADD SWAP1 DUP2 MSTORE PUSH1 0x20 ADD PUSH0 KECCAK256 DUP1 SLOAD SWAP1 POP LT PUSH2 0xAA2 JUMPI PUSH1 0x40 MLOAD PUSH32 0x8C379A000000000000000000000000000000000000000000000000000000000 DUP2 MSTORE PUSH1 0x4 ADD PUSH2 0xA99 SWAP1 PUSH2 0x4176 JUMP JUMPDEST PUSH1 0x40 MLOAD DUP1 SWAP2 SUB SWAP1 REVERT JUMPDEST PUSH0 DUP1 DUP8 SWAP1 POP PUSH0 PUSH20 0xFFFFFFFFFFFFFFFFFFFFFFFFFFFFFFFFFFFFFFFF AND DUP10 PUSH20 0xFFFFFFFFFFFFFFFFFFFFFFFFFFFFFFFFFFFFFFFF AND SUB PUSH2 0xD91 JUMPI DUP8 CALLVALUE EQ PUSH2 0xB1C JUMPI PUSH1 0x40 MLOAD PUSH32 0x8C379A000000000000000000000000000000000000000000000000000000000 DUP2 MSTORE PUSH1 0x4 ADD PUSH2 0xB13 SWAP1 PUSH2 0x41DE JUMP JUMPDEST PUSH1 0x40 MLOAD DUP1 SWAP2 SUB SWAP1 REVERT JUMPDEST PUSH0 PUSH1 0xF PUSH0 SWAP1 SLOAD SWAP1 PUSH2 0x100 EXP SWAP1 DIV PUSH20 0xFFFFFFFFFFFFFFFFFFFFFFFFFFFFFFFFFFFFFFFF AND PUSH20 0xFFFFFFFFFFFFFFFFFFFFFFFFFFFFFFFFFFFFFFFF AND PUSH4 0xD47EED45 DUP8 DUP8 PUSH1 0x40 MLOAD DUP4 PUSH4 0xFFFFFFFF AND PUSH1 0xE0 SHL DUP2 MSTORE PUSH1 0x4 ADD PUSH2 0xB79 SWAP3 SWAP2 SWAP1 PUSH2 0x4354 JUMP JUMPDEST PUSH1 0x20 PUSH1 0x40 MLOAD DUP1 DUP4 SUB DUP2 DUP7 GAS STATICCALL ISZERO DUP1 ISZERO PUSH2 0xB94 JUMPI RETURNDATASIZE PUSH0 DUP1 RETURNDATACOPY RETURNDATASIZE PUSH0 REVERT JUMPDEST POP POP POP POP PUSH1 0x40 MLOAD RETURNDATASIZE PUSH1 0x1F NOT PUSH1 0x1F DUP3 ADD AND DUP3 ADD DUP1 PUSH1 0x40 MSTORE POP DUP2 ADD SWAP1 PUSH2 0xBB8 SWAP2 SWAP1 PUSH2 0x438A JUMP JUMPDEST SWAP1 POP DUP1 DUP3 PUSH2 0xBC6 SWAP2 SWAP1 PUSH2 0x43E2 JUMP JUMPDEST SWAP2 POP PUSH1 0xF PUSH0 SWAP1 SLOAD SWAP1 PUSH2 0x100 EXP SWAP1 DIV PUSH20 0xFFFFFFFFFFFFFFFFFFFFFFFFFFFFFFFFFFFFFFFF AND PUSH20 0xFFFFFFFFFFFFFFFFFFFFFFFFFFFFFFFFFFFFFFFF AND PUSH4 0xEF9E5E28 DUP3 DUP9 DUP9 PUSH1 0x40 MLOAD DUP5 PUSH4 0xFFFFFFFF AND PUSH1 0xE0 SHL DUP2 MSTORE PUSH1 0x4 ADD PUSH2 0xC25 SWAP3 SWAP2 SWAP1 PUSH2 0x4354 JUMP JUMPDEST PUSH0 PUSH1 0x40 MLOAD DUP1 DUP4 SUB DUP2 DUP6 DUP9 DUP1 EXTCODESIZE ISZERO DUP1 ISZERO PUSH2 0xC3C JUMPI PUSH0 DUP1 REVERT JUMPDEST POP GAS CALL ISZERO DUP1 ISZERO PUSH2 0xC4E JUMPI RETURNDATASIZE PUSH0 DUP1 RETURNDATACOPY RETURNDATASIZE PUSH0 REVERT JUMPDEST POP POP POP POP POP PUSH0 PUSH1 0xF PUSH0 SWAP1 SLOAD SWAP1 PUSH2 0x100 EXP SWAP1 DIV PUSH20 0xFFFFFFFFFFFFFFFFFFFFFFFFFFFFFFFFFFFFFFFF AND PUSH20 0xFFFFFFFFFFFFFFFFFFFFFFFFFFFFFFFFFFFFFFFF AND PUSH4 0xA4AE35E0 PUSH1 0x11 SLOAD PUSH1 0x3C PUSH1 0x40 MLOAD DUP4 PUSH4 0xFFFFFFFF AND PUSH1 0xE0 SHL DUP2 MSTORE PUSH1 0x4 ADD PUSH2 0xCB3 SWAP3 SWAP2 SWAP1 PUSH2 0x444E JUMP JUMPDEST PUSH1 0x80 PUSH1 0x40 MLOAD DUP1 DUP4 SUB DUP2 DUP7 GAS STATICCALL ISZERO DUP1 ISZERO PUSH2 0xCCE JUMPI RETURNDATASIZE PUSH0 DUP1 RETURNDATACOPY RETURNDATASIZE PUSH0 REVERT JUMPDEST POP POP POP POP PUSH1 0x40 MLOAD RETURNDATASIZE PUSH1 0x1F NOT PUSH1 0x1F DUP3 ADD AND DUP3 ADD DUP1 PUSH1 0x40 MSTORE POP DUP2 ADD SWAP1 PUSH2 0xCF2 SWAP2 SWAP1 PUSH2 0x458B JUMP JUMPDEST SWAP1 POP PUSH0 DUP2 PUSH1 0x40 ADD MLOAD PUSH2 0xD03 SWAP1 PUSH2 0x45B6 JUMP JUMPDEST PUSH4 0xFFFFFFFF AND PUSH1 0xA PUSH2 0xD15 SWAP2 SWAP1 PUSH2 0x472B JUMP JUMPDEST DUP3 PUSH0 ADD MLOAD PUSH1 0x7 SIGNEXTEND PUSH2 0xD26 SWAP2 SWAP1 PUSH2 0x47A2 JUMP JUMPDEST SWAP1 POP PUSH4 0x5F5E100 DUP5 DUP3 PUSH2 0xD39 SWAP2 SWAP1 PUSH2 0x47D2 JUMP JUMPDEST PUSH2 0xD43 SWAP2 SWAP1 PUSH2 0x47A2 JUMP JUMPDEST SWAP5 POP PUSH1 0x64 DUP6 LT ISZERO PUSH2 0xD89 JUMPI PUSH1 0x40 MLOAD PUSH32 0x8C379A000000000000000000000000000000000000000000000000000000000 DUP2 MSTORE PUSH1 0x4 ADD PUSH2 0xD80 SWAP1 PUSH2 0x485D JUMP JUMPDEST PUSH1 0x40 MLOAD DUP1 SWAP2 SUB SWAP1 REVERT JUMPDEST POP POP POP PUSH2 0xFB9 JUMP JUMPDEST PUSH0 PUSH2 0xE65 DUP11 PUSH1 0x7 PUSH0 DUP14 PUSH20 0xFFFFFFFFFFFFFFFFFFFFFFFFFFFFFFFFFFFFFFFF AND PUSH20 0xFFFFFFFFFFFFFFFFFFFFFFFFFFFFFFFFFFFFFFFF AND DUP2 MSTORE PUSH1 0x20 ADD SWAP1 DUP2 MSTORE PUSH1 0x20 ADD PUSH0 KECCAK256 PUSH0 PUSH1 0x5 PUSH0 SWAP1 SLOAD SWAP1 PUSH2 0x100 EXP SWAP1 DIV PUSH20 0xFFFFFFFFFFFFFFFFFFFFFFFFFFFFFFFFFFFFFFFF AND PUSH20 0xFFFFFFFFFFFFFFFFFFFFFFFFFFFFFFFFFFFFFFFF AND PUSH20 0xFFFFFFFFFFFFFFFFFFFFFFFFFFFFFFFFFFFFFFFF AND DUP2 MSTORE PUSH1 0x20 ADD SWAP1 DUP2 MSTORE PUSH1 0x20 ADD PUSH0 KECCAK256 PUSH0 SWAP1 SLOAD SWAP1 PUSH2 0x100 EXP SWAP1 DIV PUSH3 0xFFFFFF AND PUSH1 0x5 PUSH0 SWAP1 SLOAD SWAP1 PUSH2 0x100 EXP SWAP1 DIV PUSH20 0xFFFFFFFFFFFFFFFFFFFFFFFFFFFFFFFFFFFFFFFF AND PUSH2 0x30F8 JUMP JUMPDEST SWAP1 POP PUSH0 PUSH1 0xD PUSH0 SWAP1 SLOAD SWAP1 PUSH2 0x100 EXP SWAP1 DIV PUSH20 0xFFFFFFFFFFFFFFFFFFFFFFFFFFFFFFFFFFFFFFFF AND PUSH20 0xFFFFFFFFFFFFFFFFFFFFFFFFFFFFFFFFFFFFFFFF AND PUSH4 0xCDCA1753 DUP4 DUP13 PUSH1 0x40 MLOAD DUP4 PUSH4 0xFFFFFFFF AND PUSH1 0xE0 SHL DUP2 MSTORE PUSH1 0x4 ADD PUSH2 0xEC4 SWAP3 SWAP2 SWAP1 PUSH2 0x487B JUMP JUMPDEST PUSH0 PUSH1 0x40 MLOAD DUP1 DUP4 SUB DUP2 PUSH0 DUP8 GAS CALL ISZERO DUP1 ISZERO PUSH2 0xEDF JUMPI RETURNDATASIZE PUSH0 DUP1 RETURNDATACOPY RETURNDATASIZE PUSH0 REVERT JUMPDEST POP POP POP POP PUSH1 0x40 MLOAD RETURNDATASIZE PUSH0 DUP3 RETURNDATACOPY RETURNDATASIZE PUSH1 0x1F NOT PUSH1 0x1F DUP3 ADD AND DUP3 ADD DUP1 PUSH1 0x40 MSTORE POP DUP2 ADD SWAP1 PUSH2 0xF07 SWAP2 SWAP1 PUSH2 0x4A8C JUMP JUMPDEST POP POP POP SWAP1 POP PUSH2 0x2710 DUP2 PUSH2 0xF1A SWAP2 SWAP1 PUSH2 0x47A2 JUMP JUMPDEST SWAP4 POP PUSH1 0x64 DUP5 LT ISZERO PUSH2 0xF60 JUMPI PUSH1 0x40 MLOAD PUSH32 0x8C379A000000000000000000000000000000000000000000000000000000000 DUP2 MSTORE PUSH1 0x4 ADD PUSH2 0xF57 SWAP1 PUSH2 0x485D JUMP JUMPDEST PUSH1 0x40 MLOAD DUP1 SWAP2 SUB SWAP1 REVERT JUMPDEST PUSH0 PUSH2 0xF6D DUP13 CALLER ADDRESS DUP15 PUSH2 0x3127 JUMP JUMPDEST SWAP1 POP PUSH1 0x16 PUSH1 0x3 SIGNEXTEND DUP2 EQ PUSH2 0xFB5 JUMPI PUSH1 0x40 MLOAD PUSH32 0x8C379A000000000000000000000000000000000000000000000000000000000 DUP2 MSTORE PUSH1 0x4 ADD PUSH2 0xFAC SWAP1 PUSH2 0x4B72 JUMP JUMPDEST PUSH1 0x40 MLOAD DUP1 SWAP2 SUB SWAP1 REVERT JUMPDEST POP POP POP JUMPDEST PUSH0 DUP8 DUP4 PUSH2 0xFC6 SWAP2 SWAP1 PUSH2 0x47D2 JUMP JUMPDEST SWAP1 POP PUSH0 DUP8 GT ISZERO PUSH2 0xFDD JUMPI PUSH2 0xFDA DUP2 DUP9 PUSH2 0x323F JUMP JUMPDEST SWAP1 POP JUMPDEST PUSH1 0x9 PUSH0 CALLER PUSH20 0xFFFFFFFFFFFFFFFFFFFFFFFFFFFFFFFFFFFFFFFF AND PUSH20 0xFFFFFFFFFFFFFFFFFFFFFFFFFFFFFFFFFFFFFFFF AND DUP2 MSTORE PUSH1 0x20 ADD SWAP1 DUP2 MSTORE PUSH1 0x20 ADD PUSH0 KECCAK256 PUSH1 0x40 MLOAD DUP1 PUSH1 0xC0 ADD PUSH1 0x40 MSTORE DUP1 DUP13 PUSH20 0xFFFFFFFFFFFFFFFFFFFFFFFFFFFFFFFFFFFFFFFF AND DUP2 MSTORE PUSH1 0x20 ADD DUP5 DUP2 MSTORE PUSH1 0x20 ADD TIMESTAMP DUP2 MSTORE PUSH1 0x20 ADD DUP11 TIMESTAMP PUSH2 0x1059 SWAP2 SWAP1 PUSH2 0x4B90 JUMP JUMPDEST DUP2 MSTORE PUSH1 0x20 ADD DUP4 DUP2 MSTORE PUSH1 0x20 ADD PUSH1 0xC SLOAD DUP2 MSTORE POP SWAP1 DUP1 PUSH1 0x1 DUP2 SLOAD ADD DUP1 DUP3 SSTORE DUP1 SWAP2 POP POP PUSH1 0x1 SWAP1 SUB SWAP1 PUSH0 MSTORE PUSH1 0x20 PUSH0 KECCAK256 SWAP1 PUSH1 0x6 MUL ADD PUSH0 SWAP1 SWAP2 SWAP1 SWAP2 SWAP1 SWAP2 POP PUSH0 DUP3 ADD MLOAD DUP2 PUSH0 ADD PUSH0 PUSH2 0x100 EXP DUP2 SLOAD DUP2 PUSH20 0xFFFFFFFFFFFFFFFFFFFFFFFFFFFFFFFFFFFFFFFF MUL NOT AND SWAP1 DUP4 PUSH20 0xFFFFFFFFFFFFFFFFFFFFFFFFFFFFFFFFFFFFFFFF AND MUL OR SWAP1 SSTORE POP PUSH1 0x20 DUP3 ADD MLOAD DUP2 PUSH1 0x1 ADD SSTORE PUSH1 0x40 DUP3 ADD MLOAD DUP2 PUSH1 0x2 ADD SSTORE PUSH1 0x60 DUP3 ADD MLOAD DUP2 PUSH1 0x3 ADD SSTORE PUSH1 0x80 DUP3 ADD MLOAD DUP2 PUSH1 0x4 ADD SSTORE PUSH1 0xA0 DUP3 ADD MLOAD DUP2 PUSH1 0x5 ADD SSTORE POP POP DUP9 PUSH1 0x8 PUSH0 DUP13 PUSH20 0xFFFFFFFFFFFFFFFFFFFFFFFFFFFFFFFFFFFFFFFF AND PUSH20 0xFFFFFFFFFFFFFFFFFFFFFFFFFFFFFFFFFFFFFFFF AND DUP2 MSTORE PUSH1 0x20 ADD SWAP1 DUP2 MSTORE PUSH1 0x20 ADD PUSH0 KECCAK256 PUSH0 DUP3 DUP3 SLOAD PUSH2 0x1154 SWAP2 SWAP1 PUSH2 0x4B90 JUMP JUMPDEST SWAP3 POP POP DUP2 SWAP1 SSTORE POP DUP1 PUSH1 0xA PUSH0 PUSH1 0xC SLOAD DUP2 MSTORE PUSH1 0x20 ADD SWAP1 DUP2 MSTORE PUSH1 0x20 ADD PUSH0 KECCAK256 PUSH1 0x3 ADD PUSH0 DUP3 DUP3 SLOAD PUSH2 0x1180 SWAP2 SWAP1 PUSH2 0x4B90 JUMP JUMPDEST SWAP3 POP POP DUP2 SWAP1 SSTORE POP CALLER PUSH20 0xFFFFFFFFFFFFFFFFFFFFFFFFFFFFFFFFFFFFFFFF AND PUSH32 0x902788162368FCC78AD80DE846B620B397DE2884386DBFF8339FB699955DACC5 DUP4 TIMESTAMP DUP12 TIMESTAMP PUSH2 0x11CD SWAP2 SWAP1 PUSH2 0x4B90 JUMP JUMPDEST PUSH1 0x1 PUSH1 0x9 PUSH0 CALLER PUSH20 0xFFFFFFFFFFFFFFFFFFFFFFFFFFFFFFFFFFFFFFFF AND PUSH20 0xFFFFFFFFFFFFFFFFFFFFFFFFFFFFFFFFFFFFFFFF AND DUP2 MSTORE PUSH1 0x20 ADD SWAP1 DUP2 MSTORE PUSH1 0x20 ADD PUSH0 KECCAK256 DUP1 SLOAD SWAP1 POP PUSH2 0x121A SWAP2 SWAP1 PUSH2 0x43E2 JUMP JUMPDEST DUP16 PUSH1 0x40 MLOAD PUSH2 0x122C SWAP6 SWAP5 SWAP4 SWAP3 SWAP2 SWAP1 PUSH2 0x4BC3 JUMP JUMPDEST PUSH1 0x40 MLOAD DUP1 SWAP2 SUB SWAP1 LOG2 POP POP POP POP PUSH2 0x1240 PUSH2 0x32AB JUMP JUMPDEST POP POP POP POP POP POP JUMP JUMPDEST PUSH1 0xE PUSH0 SWAP1 SLOAD SWAP1 PUSH2 0x100 EXP SWAP1 DIV PUSH20 0xFFFFFFFFFFFFFFFFFFFFFFFFFFFFFFFFFFFFFFFF AND DUP2 JUMP JUMPDEST PUSH0 DUP1 PUSH0 PUSH2 0x167 PUSH20 0xFFFFFFFFFFFFFFFFFFFFFFFFFFFFFFFFFFFFFFFF AND PUSH4 0x15DACBEA PUSH1 0xE0 SHL DUP9 DUP9 DUP9 DUP9 PUSH1 0x40 MLOAD PUSH1 0x24 ADD PUSH2 0x12A8 SWAP5 SWAP4 SWAP3 SWAP2 SWAP1 PUSH2 0x4C14 JUMP JUMPDEST PUSH1 0x40 MLOAD PUSH1 0x20 DUP2 DUP4 SUB SUB DUP2 MSTORE SWAP1 PUSH1 0x40 MSTORE SWAP1 PUSH28 0xFFFFFFFFFFFFFFFFFFFFFFFFFFFFFFFFFFFFFFFFFFFFFFFFFFFFFFFF NOT AND PUSH1 0x20 DUP3 ADD DUP1 MLOAD PUSH28 0xFFFFFFFFFFFFFFFFFFFFFFFFFFFFFFFFFFFFFFFFFFFFFFFFFFFFFFFF DUP4 DUP2 DUP4 AND OR DUP4 MSTORE POP POP POP POP PUSH1 0x40 MLOAD PUSH2 0x1312 SWAP2 SWAP1 PUSH2 0x4C91 JUMP JUMPDEST PUSH0 PUSH1 0x40 MLOAD DUP1 DUP4 SUB DUP2 PUSH0 DUP7 GAS CALL SWAP2 POP POP RETURNDATASIZE DUP1 PUSH0 DUP2 EQ PUSH2 0x134B JUMPI PUSH1 0x40 MLOAD SWAP2 POP PUSH1 0x1F NOT PUSH1 0x3F RETURNDATASIZE ADD AND DUP3 ADD PUSH1 0x40 MSTORE RETURNDATASIZE DUP3 MSTORE RETURNDATASIZE PUSH0 PUSH1 0x20 DUP5 ADD RETURNDATACOPY PUSH2 0x1350 JUMP JUMPDEST PUSH1 0x60 SWAP2 POP JUMPDEST POP SWAP2 POP SWAP2 POP DUP2 PUSH2 0x1361 JUMPI PUSH1 0x15 PUSH2 0x1376 JUMP JUMPDEST DUP1 DUP1 PUSH1 0x20 ADD SWAP1 MLOAD DUP2 ADD SWAP1 PUSH2 0x1375 SWAP2 SWAP1 PUSH2 0x4CA7 JUMP JUMPDEST JUMPDEST PUSH1 0x3 SIGNEXTEND SWAP3 POP POP POP SWAP5 SWAP4 POP POP POP POP JUMP JUMPDEST PUSH2 0x138D PUSH2 0x2D5A JUMP JUMPDEST PUSH0 PUSH2 0x1398 ADDRESS DUP4 PUSH2 0x32B4 JUMP JUMPDEST SWAP1 POP PUSH1 0x16 PUSH1 0x3 SIGNEXTEND DUP2 EQ PUSH2 0x13E0 JUMPI PUSH1 0x40 MLOAD PUSH32 0x8C379A000000000000000000000000000000000000000000000000000000000 DUP2 MSTORE PUSH1 0x4 ADD PUSH2 0x13D7 SWAP1 PUSH2 0x4D1C JUMP JUMPDEST PUSH1 0x40 MLOAD DUP1 SWAP2 SUB SWAP1 REVERT JUMPDEST PUSH32 0xBBBF805EF99CA7D0B7D2CC769719F2A281C9B3331A3642EFA75A712E3094A166 DUP3 PUSH1 0x40 MLOAD PUSH2 0x140F SWAP2 SWAP1 PUSH2 0x3CF1 JUMP JUMPDEST PUSH1 0x40 MLOAD DUP1 SWAP2 SUB SWAP1 LOG1 POP POP JUMP JUMPDEST PUSH2 0x1423 PUSH2 0x2DE1 JUMP JUMPDEST PUSH0 PUSH1 0xA PUSH0 PUSH1 0xC SLOAD DUP2 MSTORE PUSH1 0x20 ADD SWAP1 DUP2 MSTORE PUSH1 0x20 ADD PUSH0 KECCAK256 SWAP1 POP DUP1 PUSH1 0x1 ADD SLOAD TIMESTAMP GT DUP1 ISZERO PUSH2 0x145A JUMPI POP DUP1 PUSH1 0x5 ADD PUSH0 SWAP1 SLOAD SWAP1 PUSH2 0x100 EXP SWAP1 DIV PUSH1 0xFF AND ISZERO JUMPDEST ISZERO PUSH2 0x1470 JUMPI PUSH2 0x1467 PUSH2 0x2E25 JUMP JUMPDEST PUSH2 0x146F PUSH2 0x2F73 JUMP JUMPDEST JUMPDEST PUSH0 PUSH1 0x9 PUSH0 CALLER PUSH20 0xFFFFFFFFFFFFFFFFFFFFFFFFFFFFFFFFFFFFFFFF AND PUSH20 0xFFFFFFFFFFFFFFFFFFFFFFFFFFFFFFFFFFFFFFFF AND DUP2 MSTORE PUSH1 0x20 ADD SWAP1 DUP2 MSTORE PUSH1 0x20 ADD PUSH0 KECCAK256 DUP1 SLOAD SWAP1 POP SWAP1 POP DUP1 DUP4 LT PUSH2 0x14F6 JUMPI PUSH1 0x40 MLOAD PUSH32 0x8C379A000000000000000000000000000000000000000000000000000000000 DUP2 MSTORE PUSH1 0x4 ADD PUSH2 0x14ED SWAP1 PUSH2 0x4D84 JUMP JUMPDEST PUSH1 0x40 MLOAD DUP1 SWAP2 SUB SWAP1 REVERT JUMPDEST PUSH0 PUSH1 0x9 PUSH0 CALLER PUSH20 0xFFFFFFFFFFFFFFFFFFFFFFFFFFFFFFFFFFFFFFFF AND PUSH20 0xFFFFFFFFFFFFFFFFFFFFFFFFFFFFFFFFFFFFFFFF AND DUP2 MSTORE PUSH1 0x20 ADD SWAP1 DUP2 MSTORE PUSH1 0x20 ADD PUSH0 KECCAK256 DUP5 DUP2 SLOAD DUP2 LT PUSH2 0x1546 JUMPI PUSH2 0x1545 PUSH2 0x4DA2 JUMP JUMPDEST JUMPDEST SWAP1 PUSH0 MSTORE PUSH1 0x20 PUSH0 KECCAK256 SWAP1 PUSH1 0x6 MUL ADD SWAP1 POP PUSH0 DUP2 PUSH1 0x1 ADD SLOAD GT PUSH2 0x159A JUMPI PUSH1 0x40 MLOAD PUSH32 0x8C379A000000000000000000000000000000000000000000000000000000000 DUP2 MSTORE PUSH1 0x4 ADD PUSH2 0x1591 SWAP1 PUSH2 0x4E19 JUMP JUMPDEST PUSH1 0x40 MLOAD DUP1 SWAP2 SUB SWAP1 REVERT JUMPDEST PUSH0 DUP2 PUSH1 0x1 ADD SLOAD SWAP1 POP PUSH0 DUP3 PUSH1 0x3 ADD SLOAD TIMESTAMP LT SWAP1 POP PUSH0 DUP1 DUP3 ISZERO PUSH2 0x15DF JUMPI PUSH1 0x64 PUSH1 0xB SLOAD DUP6 PUSH2 0x15C4 SWAP2 SWAP1 PUSH2 0x47D2 JUMP JUMPDEST PUSH2 0x15CE SWAP2 SWAP1 PUSH2 0x47A2 JUMP JUMPDEST SWAP2 POP DUP2 DUP5 PUSH2 0x15DC SWAP2 SWAP1 PUSH2 0x43E2 JUMP JUMPDEST SWAP4 POP JUMPDEST DUP2 DUP5 PUSH2 0x15EB SWAP2 SWAP1 PUSH2 0x4B90 JUMP JUMPDEST PUSH1 0x8 PUSH0 DUP8 PUSH0 ADD PUSH0 SWAP1 SLOAD SWAP1 PUSH2 0x100 EXP SWAP1 DIV PUSH20 0xFFFFFFFFFFFFFFFFFFFFFFFFFFFFFFFFFFFFFFFF AND PUSH20 0xFFFFFFFFFFFFFFFFFFFFFFFFFFFFFFFFFFFFFFFF AND PUSH20 0xFFFFFFFFFFFFFFFFFFFFFFFFFFFFFFFFFFFFFFFF AND DUP2 MSTORE PUSH1 0x20 ADD SWAP1 DUP2 MSTORE PUSH1 0x20 ADD PUSH0 KECCAK256 PUSH0 DUP3 DUP3 SLOAD PUSH2 0x1658 SWAP2 SWAP1 PUSH2 0x43E2 JUMP JUMPDEST SWAP3 POP POP DUP2 SWAP1 SSTORE POP PUSH0 PUSH20 0xFFFFFFFFFFFFFFFFFFFFFFFFFFFFFFFFFFFFFFFF AND DUP6 PUSH0 ADD PUSH0 SWAP1 SLOAD SWAP1 PUSH2 0x100 EXP SWAP1 DIV PUSH20 0xFFFFFFFFFFFFFFFFFFFFFFFFFFFFFFFFFFFFFFFF AND PUSH20 0xFFFFFFFFFFFFFFFFFFFFFFFFFFFFFFFFFFFFFFFF AND SUB PUSH2 0x17A8 JUMPI DUP2 SWAP1 POP DUP4 SELFBALANCE LT ISZERO PUSH2 0x16FA JUMPI PUSH1 0x40 MLOAD PUSH32 0x8C379A000000000000000000000000000000000000000000000000000000000 DUP2 MSTORE PUSH1 0x4 ADD PUSH2 0x16F1 SWAP1 PUSH2 0x4E81 JUMP JUMPDEST PUSH1 0x40 MLOAD DUP1 SWAP2 SUB SWAP1 REVERT JUMPDEST PUSH0 CALLER PUSH20 0xFFFFFFFFFFFFFFFFFFFFFFFFFFFFFFFFFFFFFFFF AND DUP6 PUSH1 0x40 MLOAD PUSH2 0x171F SWAP1 PUSH2 0x4EC2 JUMP JUMPDEST PUSH0 PUSH1 0x40 MLOAD DUP1 DUP4 SUB DUP2 DUP6 DUP8 GAS CALL SWAP3 POP POP POP RETURNDATASIZE DUP1 PUSH0 DUP2 EQ PUSH2 0x1759 JUMPI PUSH1 0x40 MLOAD SWAP2 POP PUSH1 0x1F NOT PUSH1 0x3F RETURNDATASIZE ADD AND DUP3 ADD PUSH1 0x40 MSTORE RETURNDATASIZE DUP3 MSTORE RETURNDATASIZE PUSH0 PUSH1 0x20 DUP5 ADD RETURNDATACOPY PUSH2 0x175E JUMP JUMPDEST PUSH1 0x60 SWAP2 POP JUMPDEST POP POP SWAP1 POP DUP1 PUSH2 0x17A2 JUMPI PUSH1 0x40 MLOAD PUSH32 0x8C379A000000000000000000000000000000000000000000000000000000000 DUP2 MSTORE PUSH1 0x4 ADD PUSH2 0x1799 SWAP1 PUSH2 0x4F20 JUMP JUMPDEST PUSH1 0x40 MLOAD DUP1 SWAP2 SUB SWAP1 REVERT JUMPDEST POP PUSH2 0x1D53 JUMP JUMPDEST PUSH0 PUSH2 0x17DF DUP7 PUSH0 ADD PUSH0 SWAP1 SLOAD SWAP1 PUSH2 0x100 EXP SWAP1 DIV PUSH20 0xFFFFFFFFFFFFFFFFFFFFFFFFFFFFFFFFFFFFFFFF AND ADDRESS CALLER PUSH2 0x17DA DUP10 PUSH2 0x33C6 JUMP JUMPDEST PUSH2 0x3127 JUMP JUMPDEST SWAP1 POP PUSH1 0x16 PUSH1 0x3 SIGNEXTEND DUP2 EQ PUSH2 0x1827 JUMPI PUSH1 0x40 MLOAD PUSH32 0x8C379A000000000000000000000000000000000000000000000000000000000 DUP2 MSTORE PUSH1 0x4 ADD PUSH2 0x181E SWAP1 PUSH2 0x4F88 JUMP JUMPDEST PUSH1 0x40 MLOAD DUP1 SWAP2 SUB SWAP1 REVERT JUMPDEST DUP4 ISZERO PUSH2 0x1D51 JUMPI PUSH2 0x187B DUP7 PUSH0 ADD PUSH0 SWAP1 SLOAD SWAP1 PUSH2 0x100 EXP SWAP1 DIV PUSH20 0xFFFFFFFFFFFFFFFFFFFFFFFFFFFFFFFFFFFFFFFF AND PUSH1 0x10 PUSH0 SWAP1 SLOAD SWAP1 PUSH2 0x100 EXP SWAP1 DIV PUSH20 0xFFFFFFFFFFFFFFFFFFFFFFFFFFFFFFFFFFFFFFFF AND DUP6 PUSH2 0x341D JUMP JUMPDEST SWAP1 POP PUSH1 0x16 PUSH1 0x3 SIGNEXTEND DUP2 EQ PUSH2 0x18C3 JUMPI PUSH1 0x40 MLOAD PUSH32 0x8C379A000000000000000000000000000000000000000000000000000000000 DUP2 MSTORE PUSH1 0x4 ADD PUSH2 0x18BA SWAP1 PUSH2 0x5016 JUMP JUMPDEST PUSH1 0x40 MLOAD DUP1 SWAP2 SUB SWAP1 REVERT JUMPDEST PUSH0 PUSH2 0x19DB DUP8 PUSH0 ADD PUSH0 SWAP1 SLOAD SWAP1 PUSH2 0x100 EXP SWAP1 DIV PUSH20 0xFFFFFFFFFFFFFFFFFFFFFFFFFFFFFFFFFFFFFFFF AND PUSH1 0x7 PUSH0 DUP11 PUSH0 ADD PUSH0 SWAP1 SLOAD SWAP1 PUSH2 0x100 EXP SWAP1 DIV PUSH20 0xFFFFFFFFFFFFFFFFFFFFFFFFFFFFFFFFFFFFFFFF AND PUSH20 0xFFFFFFFFFFFFFFFFFFFFFFFFFFFFFFFFFFFFFFFF AND PUSH20 0xFFFFFFFFFFFFFFFFFFFFFFFFFFFFFFFFFFFFFFFF AND DUP2 MSTORE PUSH1 0x20 ADD SWAP1 DUP2 MSTORE PUSH1 0x20 ADD PUSH0 KECCAK256 PUSH0 PUSH1 0x6 PUSH0 SWAP1 SLOAD SWAP1 PUSH2 0x100 EXP SWAP1 DIV PUSH20 0xFFFFFFFFFFFFFFFFFFFFFFFFFFFFFFFFFFFFFFFF AND PUSH20 0xFFFFFFFFFFFFFFFFFFFFFFFFFFFFFFFFFFFFFFFF AND PUSH20 0xFFFFFFFFFFFFFFFFFFFFFFFFFFFFFFFFFFFFFFFF AND DUP2 MSTORE PUSH1 0x20 ADD SWAP1 DUP2 MSTORE PUSH1 0x20 ADD PUSH0 KECCAK256 PUSH0 SWAP1 SLOAD SWAP1 PUSH2 0x100 EXP SWAP1 DIV PUSH3 0xFFFFFF AND PUSH1 0x6 PUSH0 SWAP1 SLOAD SWAP1 PUSH2 0x100 EXP SWAP1 DIV PUSH20 0xFFFFFFFFFFFFFFFFFFFFFFFFFFFFFFFFFFFFFFFF AND PUSH2 0x30F8 JUMP JUMPDEST SWAP1 POP PUSH0 PUSH1 0xD PUSH0 SWAP1 SLOAD SWAP1 PUSH2 0x100 EXP SWAP1 DIV PUSH20 0xFFFFFFFFFFFFFFFFFFFFFFFFFFFFFFFFFFFFFFFF AND PUSH20 0xFFFFFFFFFFFFFFFFFFFFFFFFFFFFFFFFFFFFFFFF AND PUSH4 0xCDCA1753 DUP4 DUP8 PUSH1 0x40 MLOAD DUP4 PUSH4 0xFFFFFFFF AND PUSH1 0xE0 SHL DUP2 MSTORE PUSH1 0x4 ADD PUSH2 0x1A3A SWAP3 SWAP2 SWAP1 PUSH2 0x487B JUMP JUMPDEST PUSH0 PUSH1 0x40 MLOAD DUP1 DUP4 SUB DUP2 PUSH0 DUP8 GAS CALL ISZERO DUP1 ISZERO PUSH2 0x1A55 JUMPI RETURNDATASIZE PUSH0 DUP1 RETURNDATACOPY RETURNDATASIZE PUSH0 REVERT JUMPDEST POP POP POP POP PUSH1 0x40 MLOAD RETURNDATASIZE PUSH0 DUP3 RETURNDATACOPY RETURNDATASIZE PUSH1 0x1F NOT PUSH1 0x1F DUP3 ADD AND DUP3 ADD DUP1 PUSH1 0x40 MSTORE POP DUP2 ADD SWAP1 PUSH2 0x1A7D SWAP2 SWAP1 PUSH2 0x4A8C JUMP JUMPDEST POP POP POP SWAP1 POP PUSH0 PUSH1 0x40 MLOAD DUP1 PUSH1 0xA0 ADD PUSH1 0x40 MSTORE DUP1 DUP5 DUP2 MSTORE PUSH1 0x20 ADD PUSH1 0x10 PUSH0 SWAP1 SLOAD SWAP1 PUSH2 0x100 EXP SWAP1 DIV PUSH20 0xFFFFFFFFFFFFFFFFFFFFFFFFFFFFFFFFFFFFFFFF AND PUSH20 0xFFFFFFFFFFFFFFFFFFFFFFFFFFFFFFFFFFFFFFFF AND DUP2 MSTORE PUSH1 0x20 ADD PUSH1 0x1E TIMESTAMP PUSH2 0x1ADE SWAP2 SWAP1 PUSH2 0x4B90 JUMP JUMPDEST DUP2 MSTORE PUSH1 0x20 ADD DUP8 DUP2 MSTORE PUSH1 0x20 ADD DUP4 DUP2 MSTORE POP SWAP1 POP PUSH0 PUSH4 0xC04B8D59 PUSH1 0xE0 SHL DUP3 PUSH1 0x40 MLOAD PUSH1 0x24 ADD PUSH2 0x1B09 SWAP2 SWAP1 PUSH2 0x50FD JUMP JUMPDEST PUSH1 0x40 MLOAD PUSH1 0x20 DUP2 DUP4 SUB SUB DUP2 MSTORE SWAP1 PUSH1 0x40 MSTORE SWAP1 PUSH28 0xFFFFFFFFFFFFFFFFFFFFFFFFFFFFFFFFFFFFFFFFFFFFFFFFFFFFFFFF NOT AND PUSH1 0x20 DUP3 ADD DUP1 MLOAD PUSH28 0xFFFFFFFFFFFFFFFFFFFFFFFFFFFFFFFFFFFFFFFFFFFFFFFFFFFFFFFF DUP4 DUP2 DUP4 AND OR DUP4 MSTORE POP POP POP POP SWAP1 POP PUSH0 PUSH4 0x5FB043AF PUSH1 0xE0 SHL DUP5 ADDRESS PUSH1 0x40 MLOAD PUSH1 0x24 ADD PUSH2 0x1B84 SWAP3 SWAP2 SWAP1 PUSH2 0x511D JUMP JUMPDEST PUSH1 0x40 MLOAD PUSH1 0x20 DUP2 DUP4 SUB SUB DUP2 MSTORE SWAP1 PUSH1 0x40 MSTORE SWAP1 PUSH28 0xFFFFFFFFFFFFFFFFFFFFFFFFFFFFFFFFFFFFFFFFFFFFFFFFFFFFFFFF NOT AND PUSH1 0x20 DUP3 ADD DUP1 MLOAD PUSH28 0xFFFFFFFFFFFFFFFFFFFFFFFFFFFFFFFFFFFFFFFFFFFFFFFFFFFFFFFF DUP4 DUP2 DUP4 AND OR DUP4 MSTORE POP POP POP POP SWAP1 POP PUSH0 PUSH1 0x2 PUSH8 0xFFFFFFFFFFFFFFFF DUP2 GT ISZERO PUSH2 0x1BFF JUMPI PUSH2 0x1BFE PUSH2 0x3ABE JUMP JUMPDEST JUMPDEST PUSH1 0x40 MLOAD SWAP1 DUP1 DUP3 MSTORE DUP1 PUSH1 0x20 MUL PUSH1 0x20 ADD DUP3 ADD PUSH1 0x40 MSTORE DUP1 ISZERO PUSH2 0x1C32 JUMPI DUP2 PUSH1 0x20 ADD JUMPDEST PUSH1 0x60 DUP2 MSTORE PUSH1 0x20 ADD SWAP1 PUSH1 0x1 SWAP1 SUB SWAP1 DUP2 PUSH2 0x1C1D JUMPI SWAP1 POP JUMPDEST POP SWAP1 POP DUP3 DUP2 PUSH0 DUP2 MLOAD DUP2 LT PUSH2 0x1C49 JUMPI PUSH2 0x1C48 PUSH2 0x4DA2 JUMP JUMPDEST JUMPDEST PUSH1 0x20 MUL PUSH1 0x20 ADD ADD DUP2 SWAP1 MSTORE POP DUP2 DUP2 PUSH1 0x1 DUP2 MLOAD DUP2 LT PUSH2 0x1C69 JUMPI PUSH2 0x1C68 PUSH2 0x4DA2 JUMP JUMPDEST JUMPDEST PUSH1 0x20 MUL PUSH1 0x20 ADD ADD DUP2 SWAP1 MSTORE POP PUSH0 PUSH1 0xE PUSH0 SWAP1 SLOAD SWAP1 PUSH2 0x100 EXP SWAP1 DIV PUSH20 0xFFFFFFFFFFFFFFFFFFFFFFFFFFFFFFFFFFFFFFFF AND PUSH20 0xFFFFFFFFFFFFFFFFFFFFFFFFFFFFFFFFFFFFFFFF AND PUSH4 0xAC9650D8 DUP4 PUSH1 0x40 MLOAD DUP3 PUSH4 0xFFFFFFFF AND PUSH1 0xE0 SHL DUP2 MSTORE PUSH1 0x4 ADD PUSH2 0x1CCF SWAP2 SWAP1 PUSH2 0x51EF JUMP JUMPDEST PUSH0 PUSH1 0x40 MLOAD DUP1 DUP4 SUB DUP2 PUSH0 DUP8 GAS CALL ISZERO DUP1 ISZERO PUSH2 0x1CEA JUMPI RETURNDATASIZE PUSH0 DUP1 RETURNDATACOPY RETURNDATASIZE PUSH0 REVERT JUMPDEST POP POP POP POP PUSH1 0x40 MLOAD RETURNDATASIZE PUSH0 DUP3 RETURNDATACOPY RETURNDATASIZE PUSH1 0x1F NOT PUSH1 0x1F DUP3 ADD AND DUP3 ADD DUP1 PUSH1 0x40 MSTORE POP DUP2 ADD SWAP1 PUSH2 0x1D12 SWAP2 SWAP1 PUSH2 0x535B JUMP JUMPDEST SWAP1 POP PUSH0 DUP2 PUSH0 DUP2 MLOAD DUP2 LT PUSH2 0x1D28 JUMPI PUSH2 0x1D27 PUSH2 0x4DA2 JUMP JUMPDEST JUMPDEST PUSH1 0x20 MUL PUSH1 0x20 ADD ADD MLOAD DUP1 PUSH1 0x20 ADD SWAP1 MLOAD DUP2 ADD SWAP1 PUSH2 0x1D43 SWAP2 SWAP1 PUSH2 0x438A JUMP JUMPDEST SWAP1 POP DUP1 SWAP10 POP POP POP POP POP POP POP POP POP JUMPDEST POP JUMPDEST DUP3 ISZERO PUSH2 0x1D86 JUMPI DUP1 PUSH1 0xA PUSH0 PUSH1 0xC SLOAD DUP2 MSTORE PUSH1 0x20 ADD SWAP1 DUP2 MSTORE PUSH1 0x20 ADD PUSH0 KECCAK256 PUSH1 0x2 ADD PUSH0 DUP3 DUP3 SLOAD PUSH2 0x1D7E SWAP2 SWAP1 PUSH2 0x4B90 JUMP JUMPDEST SWAP3 POP POP DUP2 SWAP1 SSTORE POP JUMPDEST CALLER PUSH20 0xFFFFFFFFFFFFFFFFFFFFFFFFFFFFFFFFFFFFFFFF AND PUSH32 0x8E74F2E568A8FC64D8E10A0DD9CE40F78F234368743079FFB0E60EE702693AC9 DUP10 DUP7 DUP7 DUP6 PUSH1 0x40 MLOAD PUSH2 0x1DD2 SWAP5 SWAP4 SWAP3 SWAP2 SWAP1 PUSH2 0x53A2 JUMP JUMPDEST PUSH1 0x40 MLOAD DUP1 SWAP2 SUB SWAP1 LOG2 PUSH1 0x1 DUP7 GT DUP1 ISZERO PUSH2 0x1DF6 JUMPI POP PUSH1 0x1 DUP7 PUSH2 0x1DF2 SWAP2 SWAP1 PUSH2 0x43E2 JUMP JUMPDEST DUP9 EQ ISZERO JUMPDEST ISZERO PUSH2 0x1F7D JUMPI PUSH0 DUP9 SWAP1 POP JUMPDEST PUSH1 0x1 DUP8 PUSH2 0x1E0D SWAP2 SWAP1 PUSH2 0x43E2 JUMP JUMPDEST DUP2 LT ISZERO PUSH2 0x1F7B JUMPI PUSH1 0x9 PUSH0 CALLER PUSH20 0xFFFFFFFFFFFFFFFFFFFFFFFFFFFFFFFFFFFFFFFF AND PUSH20 0xFFFFFFFFFFFFFFFFFFFFFFFFFFFFFFFFFFFFFFFF AND DUP2 MSTORE PUSH1 0x20 ADD SWAP1 DUP2 MSTORE PUSH1 0x20 ADD PUSH0 KECCAK256 PUSH1 0x1 DUP3 PUSH2 0x1E5E SWAP2 SWAP1 PUSH2 0x4B90 JUMP JUMPDEST DUP2 SLOAD DUP2 LT PUSH2 0x1E6F JUMPI PUSH2 0x1E6E PUSH2 0x4DA2 JUMP JUMPDEST JUMPDEST SWAP1 PUSH0 MSTORE PUSH1 0x20 PUSH0 KECCAK256 SWAP1 PUSH1 0x6 MUL ADD PUSH1 0x9 PUSH0 CALLER PUSH20 0xFFFFFFFFFFFFFFFFFFFFFFFFFFFFFFFFFFFFFFFF AND PUSH20 0xFFFFFFFFFFFFFFFFFFFFFFFFFFFFFFFFFFFFFFFF AND DUP2 MSTORE PUSH1 0x20 ADD SWAP1 DUP2 MSTORE PUSH1 0x20 ADD PUSH0 KECCAK256 DUP3 DUP2 SLOAD DUP2 LT PUSH2 0x1ECA JUMPI PUSH2 0x1EC9 PUSH2 0x4DA2 JUMP JUMPDEST JUMPDEST SWAP1 PUSH0 MSTORE PUSH1 0x20 PUSH0 KECCAK256 SWAP1 PUSH1 0x6 MUL ADD PUSH0 DUP3 ADD PUSH0 SWAP1 SLOAD SWAP1 PUSH2 0x100 EXP SWAP1 DIV PUSH20 0xFFFFFFFFFFFFFFFFFFFFFFFFFFFFFFFFFFFFFFFF AND DUP2 PUSH0 ADD PUSH0 PUSH2 0x100 EXP DUP2 SLOAD DUP2 PUSH20 0xFFFFFFFFFFFFFFFFFFFFFFFFFFFFFFFFFFFFFFFF MUL NOT AND SWAP1 DUP4 PUSH20 0xFFFFFFFFFFFFFFFFFFFFFFFFFFFFFFFFFFFFFFFF AND MUL OR SWAP1 SSTORE POP PUSH1 0x1 DUP3 ADD SLOAD DUP2 PUSH1 0x1 ADD SSTORE PUSH1 0x2 DUP3 ADD SLOAD DUP2 PUSH1 0x2 ADD SSTORE PUSH1 0x3 DUP3 ADD SLOAD DUP2 PUSH1 0x3 ADD SSTORE PUSH1 0x4 DUP3 ADD SLOAD DUP2 PUSH1 0x4 ADD SSTORE PUSH1 0x5 DUP3 ADD SLOAD DUP2 PUSH1 0x5 ADD SSTORE SWAP1 POP POP DUP1 DUP1 PUSH1 0x1 ADD SWAP2 POP POP PUSH2 0x1E00 JUMP JUMPDEST POP JUMPDEST PUSH1 0x9 PUSH0 CALLER PUSH20 0xFFFFFFFFFFFFFFFFFFFFFFFFFFFFFFFFFFFFFFFF AND PUSH20 0xFFFFFFFFFFFFFFFFFFFFFFFFFFFFFFFFFFFFFFFF AND DUP2 MSTORE PUSH1 0x20 ADD SWAP1 DUP2 MSTORE PUSH1 0x20 ADD PUSH0 KECCAK256 DUP1 SLOAD DUP1 PUSH2 0x1FCA JUMPI PUSH2 0x1FC9 PUSH2 0x53E5 JUMP JUMPDEST JUMPDEST PUSH1 0x1 SWAP1 SUB DUP2 DUP2 SWAP1 PUSH0 MSTORE PUSH1 0x20 PUSH0 KECCAK256 SWAP1 PUSH1 0x6 MUL ADD PUSH0 DUP1 DUP3 ADD PUSH0 PUSH2 0x100 EXP DUP2 SLOAD SWAP1 PUSH20 0xFFFFFFFFFFFFFFFFFFFFFFFFFFFFFFFFFFFFFFFF MUL NOT AND SWAP1 SSTORE PUSH1 0x1 DUP3 ADD PUSH0 SWAP1 SSTORE PUSH1 0x2 DUP3 ADD PUSH0 SWAP1 SSTORE PUSH1 0x3 DUP3 ADD PUSH0 SWAP1 SSTORE PUSH1 0x4 DUP3 ADD PUSH0 SWAP1 SSTORE PUSH1 0x5 DUP3 ADD PUSH0 SWAP1 SSTORE POP POP SWAP1 SSTORE POP POP POP POP POP POP POP PUSH2 0x2038 PUSH2 0x32AB JUMP JUMPDEST POP JUMP JUMPDEST PUSH2 0x2043 PUSH2 0x2D5A JUMP JUMPDEST PUSH0 DUP2 GT PUSH2 0x2085 JUMPI PUSH1 0x40 MLOAD PUSH32 0x8C379A000000000000000000000000000000000000000000000000000000000 DUP2 MSTORE PUSH1 0x4 ADD PUSH2 0x207C SWAP1 PUSH2 0x545C JUMP JUMPDEST PUSH1 0x40 MLOAD DUP1 SWAP2 SUB SWAP1 REVERT JUMPDEST DUP1 PUSH1 0x4 DUP2 SWAP1 SSTORE POP POP JUMP JUMPDEST PUSH1 0x11 SLOAD DUP2 JUMP JUMPDEST PUSH1 0x4 SLOAD DUP2 JUMP JUMPDEST PUSH2 0x20A3 PUSH2 0x2D5A JUMP JUMPDEST PUSH0 PUSH20 0xFFFFFFFFFFFFFFFFFFFFFFFFFFFFFFFFFFFFFFFF AND DUP2 PUSH20 0xFFFFFFFFFFFFFFFFFFFFFFFFFFFFFFFFFFFFFFFF AND SUB PUSH2 0x2111 JUMPI PUSH1 0x40 MLOAD PUSH32 0x8C379A000000000000000000000000000000000000000000000000000000000 DUP2 MSTORE PUSH1 0x4 ADD PUSH2 0x2108 SWAP1 PUSH2 0x4018 JUMP JUMPDEST PUSH1 0x40 MLOAD DUP1 SWAP2 SUB SWAP1 REVERT JUMPDEST DUP1 PUSH1 0x6 PUSH0 PUSH2 0x100 EXP DUP2 SLOAD DUP2 PUSH20 0xFFFFFFFFFFFFFFFFFFFFFFFFFFFFFFFFFFFFFFFF MUL NOT AND SWAP1 DUP4 PUSH20 0xFFFFFFFFFFFFFFFFFFFFFFFFFFFFFFFFFFFFFFFF AND MUL OR SWAP1 SSTORE POP POP JUMP JUMPDEST PUSH2 0x215C PUSH2 0x2D5A JUMP JUMPDEST DUP1 PUSH1 0x11 DUP2 SWAP1 SSTORE POP POP JUMP JUMPDEST PUSH1 0x2 SLOAD DUP2 JUMP JUMPDEST PUSH0 PUSH1 0x60 PUSH0 DUP1 PUSH2 0x167 PUSH20 0xFFFFFFFFFFFFFFFFFFFFFFFFFFFFFFFFFFFFFFFF AND PUSH4 0x618DC65E PUSH1 0xE0 SHL DUP8 DUP8 PUSH1 0x40 MLOAD PUSH1 0x24 ADD PUSH2 0x21A5 SWAP3 SWAP2 SWAP1 PUSH2 0x547A JUMP JUMPDEST PUSH1 0x40 MLOAD PUSH1 0x20 DUP2 DUP4 SUB SUB DUP2 MSTORE SWAP1 PUSH1 0x40 MSTORE SWAP1 PUSH28 0xFFFFFFFFFFFFFFFFFFFFFFFFFFFFFFFFFFFFFFFFFFFFFFFFFFFFFFFF NOT AND PUSH1 0x20 DUP3 ADD DUP1 MLOAD PUSH28 0xFFFFFFFFFFFFFFFFFFFFFFFFFFFFFFFFFFFFFFFFFFFFFFFFFFFFFFFF DUP4 DUP2 DUP4 AND OR DUP4 MSTORE POP POP POP POP PUSH1 0x40 MLOAD PUSH2 0x220F SWAP2 SWAP1 PUSH2 0x4C91 JUMP JUMPDEST PUSH0 PUSH1 0x40 MLOAD DUP1 DUP4 SUB DUP2 PUSH0 DUP7 GAS CALL SWAP2 POP POP RETURNDATASIZE DUP1 PUSH0 DUP2 EQ PUSH2 0x2248 JUMPI PUSH1 0x40 MLOAD SWAP2 POP PUSH1 0x1F NOT PUSH1 0x3F RETURNDATASIZE ADD AND DUP3 ADD PUSH1 0x40 MSTORE RETURNDATASIZE DUP3 MSTORE RETURNDATASIZE PUSH0 PUSH1 0x20 DUP5 ADD RETURNDATACOPY PUSH2 0x224D JUMP JUMPDEST PUSH1 0x60 SWAP2 POP JUMPDEST POP SWAP2 POP SWAP2 POP PUSH32 0x4AF4780E06FE8CB9DF64B0794FA6F01399AF979175BB988E35E0E57E594567BC DUP3 DUP3 PUSH1 0x40 MLOAD PUSH2 0x2283 SWAP3 SWAP2 SWAP1 PUSH2 0x54A8 JUMP JUMPDEST PUSH1 0x40 MLOAD DUP1 SWAP2 SUB SWAP1 LOG1 DUP2 PUSH2 0x22A6 JUMPI PUSH1 0x15 PUSH1 0x40 MLOAD DUP1 PUSH1 0x20 ADD PUSH1 0x40 MSTORE DUP1 PUSH0 DUP2 MSTORE POP PUSH2 0x22AA JUMP JUMPDEST PUSH1 0x16 DUP2 JUMPDEST DUP2 PUSH1 0x3 SIGNEXTEND SWAP2 POP DUP1 SWAP5 POP DUP2 SWAP6 POP POP POP POP POP SWAP3 POP SWAP3 SWAP1 POP JUMP JUMPDEST PUSH1 0x10 PUSH0 SWAP1 SLOAD SWAP1 PUSH2 0x100 EXP SWAP1 DIV PUSH20 0xFFFFFFFFFFFFFFFFFFFFFFFFFFFFFFFFFFFFFFFF AND DUP2 JUMP JUMPDEST PUSH2 0x22EE PUSH2 0x2D5A JUMP JUMPDEST PUSH2 0x22F7 PUSH0 PUSH2 0x3532 JUMP JUMPDEST JUMP JUMPDEST PUSH1 0x3 SLOAD DUP2 JUMP JUMPDEST PUSH1 0x5 PUSH0 SWAP1 SLOAD SWAP1 PUSH2 0x100 EXP SWAP1 DIV PUSH20 0xFFFFFFFFFFFFFFFFFFFFFFFFFFFFFFFFFFFFFFFF AND DUP2 JUMP JUMPDEST PUSH2 0x232C PUSH2 0x2D5A JUMP JUMPDEST PUSH0 PUSH20 0xFFFFFFFFFFFFFFFFFFFFFFFFFFFFFFFFFFFFFFFF AND DUP2 PUSH20 0xFFFFFFFFFFFFFFFFFFFFFFFFFFFFFFFFFFFFFFFF AND SUB PUSH2 0x239A JUMPI PUSH1 0x40 MLOAD PUSH32 0x8C379A000000000000000000000000000000000000000000000000000000000 DUP2 MSTORE PUSH1 0x4 ADD PUSH2 0x2391 SWAP1 PUSH2 0x4018 JUMP JUMPDEST PUSH1 0x40 MLOAD DUP1 SWAP2 SUB SWAP1 REVERT JUMPDEST DUP1 PUSH1 0xD PUSH0 PUSH2 0x100 EXP DUP2 SLOAD DUP2 PUSH20 0xFFFFFFFFFFFFFFFFFFFFFFFFFFFFFFFFFFFFFFFF MUL NOT AND SWAP1 DUP4 PUSH20 0xFFFFFFFFFFFFFFFFFFFFFFFFFFFFFFFFFFFFFFFF AND MUL OR SWAP1 SSTORE POP POP JUMP JUMPDEST PUSH0 PUSH1 0x1 PUSH0 SWAP1 SLOAD SWAP1 PUSH2 0x100 EXP SWAP1 DIV PUSH20 0xFFFFFFFFFFFFFFFFFFFFFFFFFFFFFFFFFFFFFFFF AND SWAP1 POP SWAP1 JUMP JUMPDEST PUSH1 0x6 PUSH0 SWAP1 SLOAD SWAP1 PUSH2 0x100 EXP SWAP1 DIV PUSH20 0xFFFFFFFFFFFFFFFFFFFFFFFFFFFFFFFFFFFFFFFF AND DUP2 JUMP JUMPDEST PUSH0 DUP1 PUSH0 PUSH2 0x167 PUSH20 0xFFFFFFFFFFFFFFFFFFFFFFFFFFFFFFFFFFFFFFFF AND PUSH4 0x9B23D3D9 PUSH1 0xE0 SHL DUP9 DUP9 DUP9 DUP9 PUSH1 0x40 MLOAD PUSH1 0x24 ADD PUSH2 0x2465 SWAP5 SWAP4 SWAP3 SWAP2 SWAP1 PUSH2 0x4C14 JUMP JUMPDEST PUSH1 0x40 MLOAD PUSH1 0x20 DUP2 DUP4 SUB SUB DUP2 MSTORE SWAP1 PUSH1 0x40 MSTORE SWAP1 PUSH28 0xFFFFFFFFFFFFFFFFFFFFFFFFFFFFFFFFFFFFFFFFFFFFFFFFFFFFFFFF NOT AND PUSH1 0x20 DUP3 ADD DUP1 MLOAD PUSH28 0xFFFFFFFFFFFFFFFFFFFFFFFFFFFFFFFFFFFFFFFFFFFFFFFFFFFFFFFF DUP4 DUP2 DUP4 AND OR DUP4 MSTORE POP POP POP POP PUSH1 0x40 MLOAD PUSH2 0x24CF SWAP2 SWAP1 PUSH2 0x4C91 JUMP JUMPDEST PUSH0 PUSH1 0x40 MLOAD DUP1 DUP4 SUB DUP2 PUSH0 DUP7 GAS CALL SWAP2 POP POP RETURNDATASIZE DUP1 PUSH0 DUP2 EQ PUSH2 0x2508 JUMPI PUSH1 0x40 MLOAD SWAP2 POP PUSH1 0x1F NOT PUSH1 0x3F RETURNDATASIZE ADD AND DUP3 ADD PUSH1 0x40 MSTORE RETURNDATASIZE DUP3 MSTORE RETURNDATASIZE PUSH0 PUSH1 0x20 DUP5 ADD RETURNDATACOPY PUSH2 0x250D JUMP JUMPDEST PUSH1 0x60 SWAP2 POP JUMPDEST POP SWAP2 POP SWAP2 POP DUP2 PUSH2 0x251E JUMPI PUSH1 0x15 PUSH2 0x2533 JUMP JUMPDEST DUP1 DUP1 PUSH1 0x20 ADD SWAP1 MLOAD DUP2 ADD SWAP1 PUSH2 0x2532 SWAP2 SWAP1 PUSH2 0x4CA7 JUMP JUMPDEST JUMPDEST PUSH1 0x3 SIGNEXTEND SWAP3 POP POP POP SWAP5 SWAP4 POP POP POP POP JUMP JUMPDEST PUSH2 0x254A PUSH2 0x2D5A JUMP JUMPDEST PUSH1 0x64 DUP2 GT ISZERO PUSH2 0x258E JUMPI PUSH1 0x40 MLOAD PUSH32 0x8C379A000000000000000000000000000000000000000000000000000000000 DUP2 MSTORE PUSH1 0x4 ADD PUSH2 0x2585 SWAP1 PUSH2 0x5520 JUMP JUMPDEST PUSH1 0x40 MLOAD DUP1 SWAP2 SUB SWAP1 REVERT JUMPDEST DUP1 PUSH1 0xB DUP2 SWAP1 SSTORE POP POP JUMP JUMPDEST PUSH1 0xD PUSH0 SWAP1 SLOAD SWAP1 PUSH2 0x100 EXP SWAP1 DIV PUSH20 0xFFFFFFFFFFFFFFFFFFFFFFFFFFFFFFFFFFFFFFFF AND DUP2 JUMP JUMPDEST PUSH1 0x7 PUSH1 0x20 MSTORE DUP2 PUSH0 MSTORE PUSH1 0x40 PUSH0 KECCAK256 PUSH1 0x20 MSTORE DUP1 PUSH0 MSTORE PUSH1 0x40 PUSH0 KECCAK256 PUSH0 SWAP2 POP SWAP2 POP SWAP1 SLOAD SWAP1 PUSH2 0x100 EXP SWAP1 DIV PUSH3 0xFFFFFF AND DUP2 JUMP JUMPDEST PUSH1 0xC SLOAD DUP2 JUMP JUMPDEST PUSH1 0x9 PUSH1 0x20 MSTORE DUP2 PUSH0 MSTORE PUSH1 0x40 PUSH0 KECCAK256 DUP2 DUP2 SLOAD DUP2 LT PUSH2 0x2608 JUMPI PUSH0 DUP1 REVERT JUMPDEST SWAP1 PUSH0 MSTORE PUSH1 0x20 PUSH0 KECCAK256 SWAP1 PUSH1 0x6 MUL ADD PUSH0 SWAP2 POP SWAP2 POP POP DUP1 PUSH0 ADD PUSH0 SWAP1 SLOAD SWAP1 PUSH2 0x100 EXP SWAP1 DIV PUSH20 0xFFFFFFFFFFFFFFFFFFFFFFFFFFFFFFFFFFFFFFFF AND SWAP1 DUP1 PUSH1 0x1 ADD SLOAD SWAP1 DUP1 PUSH1 0x2 ADD SLOAD SWAP1 DUP1 PUSH1 0x3 ADD SLOAD SWAP1 DUP1 PUSH1 0x4 ADD SLOAD SWAP1 DUP1 PUSH1 0x5 ADD SLOAD SWAP1 POP DUP7 JUMP JUMPDEST PUSH2 0x2668 PUSH2 0x2DE1 JUMP JUMPDEST PUSH0 PUSH1 0xA PUSH0 PUSH1 0xC SLOAD DUP2 MSTORE PUSH1 0x20 ADD SWAP1 DUP2 MSTORE PUSH1 0x20 ADD PUSH0 KECCAK256 SWAP1 POP DUP1 PUSH1 0x1 ADD SLOAD TIMESTAMP GT DUP1 ISZERO PUSH2 0x269F JUMPI POP DUP1 PUSH1 0x5 ADD PUSH0 SWAP1 SLOAD SWAP1 PUSH2 0x100 EXP SWAP1 DIV PUSH1 0xFF AND ISZERO JUMPDEST ISZERO PUSH2 0x26B5 JUMPI PUSH2 0x26AC PUSH2 0x2E25 JUMP JUMPDEST PUSH2 0x26B4 PUSH2 0x2F73 JUMP JUMPDEST JUMPDEST PUSH0 DUP1 PUSH1 0x9 PUSH0 CALLER PUSH20 0xFFFFFFFFFFFFFFFFFFFFFFFFFFFFFFFFFFFFFFFF AND PUSH20 0xFFFFFFFFFFFFFFFFFFFFFFFFFFFFFFFFFFFFFFFF AND DUP2 MSTORE PUSH1 0x20 ADD SWAP1 DUP2 MSTORE PUSH1 0x20 ADD PUSH0 KECCAK256 DUP1 SLOAD SWAP1 POP SWAP1 POP PUSH0 DUP2 GT PUSH2 0x273C JUMPI PUSH1 0x40 MLOAD PUSH32 0x8C379A000000000000000000000000000000000000000000000000000000000 DUP2 MSTORE PUSH1 0x4 ADD PUSH2 0x2733 SWAP1 PUSH2 0x5588 JUMP JUMPDEST PUSH1 0x40 MLOAD DUP1 SWAP2 SUB SWAP1 REVERT JUMPDEST PUSH0 JUMPDEST DUP2 DUP2 LT ISZERO PUSH2 0x2854 JUMPI PUSH0 PUSH1 0x9 PUSH0 CALLER PUSH20 0xFFFFFFFFFFFFFFFFFFFFFFFFFFFFFFFFFFFFFFFF AND PUSH20 0xFFFFFFFFFFFFFFFFFFFFFFFFFFFFFFFFFFFFFFFF AND DUP2 MSTORE PUSH1 0x20 ADD SWAP1 DUP2 MSTORE PUSH1 0x20 ADD PUSH0 KECCAK256 DUP3 DUP2 SLOAD DUP2 LT PUSH2 0x2796 JUMPI PUSH2 0x2795 PUSH2 0x4DA2 JUMP JUMPDEST JUMPDEST SWAP1 PUSH0 MSTORE PUSH1 0x20 PUSH0 KECCAK256 SWAP1 PUSH1 0x6 MUL ADD SWAP1 POP PUSH0 DUP2 PUSH1 0x4 ADD SLOAD SWAP1 POP PUSH0 DUP3 PUSH1 0x5 ADD SLOAD SWAP1 POP PUSH0 DUP2 SWAP1 POP JUMPDEST PUSH1 0xC SLOAD DUP2 LT ISZERO PUSH2 0x2838 JUMPI PUSH0 PUSH1 0xA PUSH0 DUP4 DUP2 MSTORE PUSH1 0x20 ADD SWAP1 DUP2 MSTORE PUSH1 0x20 ADD PUSH0 KECCAK256 SWAP1 POP DUP1 PUSH1 0x5 ADD PUSH0 SWAP1 SLOAD SWAP1 PUSH2 0x100 EXP SWAP1 DIV PUSH1 0xFF AND DUP1 ISZERO PUSH2 0x27F8 JUMPI POP PUSH0 DUP2 PUSH1 0x4 ADD SLOAD EQ ISZERO JUMPDEST ISZERO PUSH2 0x282A JUMPI PUSH4 0x5F5E100 DUP5 DUP3 PUSH1 0x4 ADD SLOAD PUSH2 0x2812 SWAP2 SWAP1 PUSH2 0x47D2 JUMP JUMPDEST PUSH2 0x281C SWAP2 SWAP1 PUSH2 0x47A2 JUMP JUMPDEST DUP9 PUSH2 0x2827 SWAP2 SWAP1 PUSH2 0x4B90 JUMP JUMPDEST SWAP8 POP JUMPDEST POP DUP1 DUP1 PUSH1 0x1 ADD SWAP2 POP POP PUSH2 0x27B9 JUMP JUMPDEST POP PUSH1 0xC SLOAD DUP4 PUSH1 0x5 ADD DUP2 SWAP1 SSTORE POP POP POP POP DUP1 DUP1 PUSH1 0x1 ADD SWAP2 POP POP PUSH2 0x273E JUMP JUMPDEST POP DUP2 SELFBALANCE LT ISZERO PUSH2 0x2898 JUMPI PUSH1 0x40 MLOAD PUSH32 0x8C379A000000000000000000000000000000000000000000000000000000000 DUP2 MSTORE PUSH1 0x4 ADD PUSH2 0x288F SWAP1 PUSH2 0x4E81 JUMP JUMPDEST PUSH1 0x40 MLOAD DUP1 SWAP2 SUB SWAP1 REVERT JUMPDEST PUSH0 CALLER PUSH20 0xFFFFFFFFFFFFFFFFFFFFFFFFFFFFFFFFFFFFFFFF AND DUP4 PUSH1 0x40 MLOAD PUSH2 0x28BD SWAP1 PUSH2 0x4EC2 JUMP JUMPDEST PUSH0 PUSH1 0x40 MLOAD DUP1 DUP4 SUB DUP2 DUP6 DUP8 GAS CALL SWAP3 POP POP POP RETURNDATASIZE DUP1 PUSH0 DUP2 EQ PUSH2 0x28F7 JUMPI PUSH1 0x40 MLOAD SWAP2 POP PUSH1 0x1F NOT PUSH1 0x3F RETURNDATASIZE ADD AND DUP3 ADD PUSH1 0x40 MSTORE RETURNDATASIZE DUP3 MSTORE RETURNDATASIZE PUSH0 PUSH1 0x20 DUP5 ADD RETURNDATACOPY PUSH2 0x28FC JUMP JUMPDEST PUSH1 0x60 SWAP2 POP JUMPDEST POP POP SWAP1 POP DUP1 PUSH2 0x2940 JUMPI PUSH1 0x40 MLOAD PUSH32 0x8C379A000000000000000000000000000000000000000000000000000000000 DUP2 MSTORE PUSH1 0x4 ADD PUSH2 0x2937 SWAP1 PUSH2 0x55F0 JUMP JUMPDEST PUSH1 0x40 MLOAD DUP1 SWAP2 SUB SWAP1 REVERT JUMPDEST CALLER PUSH20 0xFFFFFFFFFFFFFFFFFFFFFFFFFFFFFFFFFFFFFFFF AND PUSH32 0x106F923F993C2149D49B4255FF723ACAFA1F2D94393F561D3EDA32AE348F7241 DUP5 PUSH1 0x40 MLOAD PUSH2 0x2986 SWAP2 SWAP1 PUSH2 0x3A3C JUMP JUMPDEST PUSH1 0x40 MLOAD DUP1 SWAP2 SUB SWAP1 LOG2 POP POP POP POP PUSH2 0x299A PUSH2 0x32AB JUMP JUMPDEST JUMP JUMPDEST PUSH1 0xA PUSH1 0x20 MSTORE DUP1 PUSH0 MSTORE PUSH1 0x40 PUSH0 KECCAK256 PUSH0 SWAP2 POP SWAP1 POP DUP1 PUSH0 ADD SLOAD SWAP1 DUP1 PUSH1 0x1 ADD SLOAD SWAP1 DUP1 PUSH1 0x2 ADD SLOAD SWAP1 DUP1 PUSH1 0x3 ADD SLOAD SWAP1 DUP1 PUSH1 0x4 ADD SLOAD SWAP1 DUP1 PUSH1 0x5 ADD PUSH0 SWAP1 SLOAD SWAP1 PUSH2 0x100 EXP SWAP1 DIV PUSH1 0xFF AND SWAP1 POP DUP7 JUMP JUMPDEST PUSH1 0xB SLOAD DUP2 JUMP JUMPDEST PUSH2 0x29EE PUSH2 0x2D5A JUMP JUMPDEST DUP1 DUP3 LT PUSH2 0x2A30 JUMPI PUSH1 0x40 MLOAD PUSH32 0x8C379A000000000000000000000000000000000000000000000000000000000 DUP2 MSTORE PUSH1 0x4 ADD PUSH2 0x2A27 SWAP1 PUSH2 0x567E JUMP JUMPDEST PUSH1 0x40 MLOAD DUP1 SWAP2 SUB SWAP1 REVERT JUMPDEST DUP2 PUSH1 0x2 DUP2 SWAP1 SSTORE POP DUP1 PUSH1 0x3 DUP2 SWAP1 SSTORE POP POP POP JUMP JUMPDEST PUSH2 0x2A4A PUSH2 0x2D5A JUMP JUMPDEST PUSH0 DUP2 PUSH3 0xFFFFFF AND SUB PUSH2 0x2A91 JUMPI PUSH1 0x40 MLOAD PUSH32 0x8C379A000000000000000000000000000000000000000000000000000000000 DUP2 MSTORE PUSH1 0x4 ADD PUSH2 0x2A88 SWAP1 PUSH2 0x56E6 JUMP JUMPDEST PUSH1 0x40 MLOAD DUP1 SWAP2 SUB SWAP1 REVERT JUMPDEST DUP1 PUSH1 0x7 PUSH0 DUP6 PUSH20 0xFFFFFFFFFFFFFFFFFFFFFFFFFFFFFFFFFFFFFFFF AND PUSH20 0xFFFFFFFFFFFFFFFFFFFFFFFFFFFFFFFFFFFFFFFF AND DUP2 MSTORE PUSH1 0x20 ADD SWAP1 DUP2 MSTORE PUSH1 0x20 ADD PUSH0 KECCAK256 PUSH0 DUP5 PUSH20 0xFFFFFFFFFFFFFFFFFFFFFFFFFFFFFFFFFFFFFFFF AND PUSH20 0xFFFFFFFFFFFFFFFFFFFFFFFFFFFFFFFFFFFFFFFF AND DUP2 MSTORE PUSH1 0x20 ADD SWAP1 DUP2 MSTORE PUSH1 0x20 ADD PUSH0 KECCAK256 PUSH0 PUSH2 0x100 EXP DUP2 SLOAD DUP2 PUSH3 0xFFFFFF MUL NOT AND SWAP1 DUP4 PUSH3 0xFFFFFF AND MUL OR SWAP1 SSTORE POP POP POP POP JUMP JUMPDEST PUSH2 0x2B32 PUSH2 0x2D5A JUMP JUMPDEST PUSH0 PUSH20 0xFFFFFFFFFFFFFFFFFFFFFFFFFFFFFFFFFFFFFFFF AND DUP2 PUSH20 0xFFFFFFFFFFFFFFFFFFFFFFFFFFFFFFFFFFFFFFFF AND SUB PUSH2 0x2BA0 JUMPI PUSH1 0x40 MLOAD PUSH32 0x8C379A000000000000000000000000000000000000000000000000000000000 DUP2 MSTORE PUSH1 0x4 ADD PUSH2 0x2B97 SWAP1 PUSH2 0x4018 JUMP JUMPDEST PUSH1 0x40 MLOAD DUP1 SWAP2 SUB SWAP1 REVERT JUMPDEST DUP1 PUSH1 0xF PUSH0 PUSH2 0x100 EXP DUP2 SLOAD DUP2 PUSH20 0xFFFFFFFFFFFFFFFFFFFFFFFFFFFFFFFFFFFFFFFF MUL NOT AND SWAP1 DUP4 PUSH20 0xFFFFFFFFFFFFFFFFFFFFFFFFFFFFFFFFFFFFFFFF AND MUL OR SWAP1 SSTORE POP POP JUMP JUMPDEST PUSH2 0x2BEB PUSH2 0x2D5A JUMP JUMPDEST PUSH0 PUSH20 0xFFFFFFFFFFFFFFFFFFFFFFFFFFFFFFFFFFFFFFFF AND DUP2 PUSH20 0xFFFFFFFFFFFFFFFFFFFFFFFFFFFFFFFFFFFFFFFF AND SUB PUSH2 0x2C5B JUMPI PUSH0 PUSH1 0x40 MLOAD PUSH32 0x1E4FBDF700000000000000000000000000000000000000000000000000000000 DUP2 MSTORE PUSH1 0x4 ADD PUSH2 0x2C52 SWAP2 SWAP1 PUSH2 0x3CF1 JUMP JUMPDEST PUSH1 0x40 MLOAD DUP1 SWAP2 SUB SWAP1 REVERT JUMPDEST PUSH2 0x2C64 DUP2 PUSH2 0x3532 JUMP JUMPDEST POP JUMP JUMPDEST PUSH1 0x8 PUSH1 0x20 MSTORE DUP1 PUSH0 MSTORE PUSH1 0x40 PUSH0 KECCAK256 PUSH0 SWAP2 POP SWAP1 POP SLOAD DUP2 JUMP JUMPDEST PUSH2 0x2C84 PUSH2 0x2D5A JUMP JUMPDEST PUSH0 PUSH20 0xFFFFFFFFFFFFFFFFFFFFFFFFFFFFFFFFFFFFFFFF AND DUP2 PUSH20 0xFFFFFFFFFFFFFFFFFFFFFFFFFFFFFFFFFFFFFFFF AND SUB PUSH2 0x2CF2 JUMPI PUSH1 0x40 MLOAD PUSH32 0x8C379A000000000000000000000000000000000000000000000000000000000 DUP2 MSTORE PUSH1 0x4 ADD PUSH2 0x2CE9 SWAP1 PUSH2 0x4018 JUMP JUMPDEST PUSH1 0x40 MLOAD DUP1 SWAP2 SUB SWAP1 REVERT JUMPDEST DUP1 PUSH1 0x5 PUSH0 PUSH2 0x100 EXP DUP2 SLOAD DUP2 PUSH20 0xFFFFFFFFFFFFFFFFFFFFFFFFFFFFFFFFFFFFFFFF MUL NOT AND SWAP1 DUP4 PUSH20 0xFFFFFFFFFFFFFFFFFFFFFFFFFFFFFFFFFFFFFFFF AND MUL OR SWAP1 SSTORE POP POP JUMP JUMPDEST PUSH1 0xF PUSH0 SWAP1 SLOAD SWAP1 PUSH2 0x100 EXP SWAP1 DIV PUSH20 0xFFFFFFFFFFFFFFFFFFFFFFFFFFFFFFFFFFFFFFFF AND DUP2 JUMP JUMPDEST PUSH2 0x2D62 PUSH2 0x35F5 JUMP JUMPDEST PUSH20 0xFFFFFFFFFFFFFFFFFFFFFFFFFFFFFFFFFFFFFFFF AND PUSH2 0x2D80 PUSH2 0x23DD JUMP JUMPDEST PUSH20 0xFFFFFFFFFFFFFFFFFFFFFFFFFFFFFFFFFFFFFFFF AND EQ PUSH2 0x2DDF JUMPI PUSH2 0x2DA3 PUSH2 0x35F5 JUMP JUMPDEST PUSH1 0x40 MLOAD PUSH32 0x118CDAA700000000000000000000000000000000000000000000000000000000 DUP2 MSTORE PUSH1 0x4 ADD PUSH2 0x2DD6 SWAP2 SWAP1 PUSH2 0x3CF1 JUMP JUMPDEST PUSH1 0x40 MLOAD DUP1 SWAP2 SUB SWAP1 REVERT JUMPDEST JUMP JUMPDEST PUSH1 0x2 PUSH0 SLOAD SUB PUSH2 0x2E1C JUMPI PUSH1 0x40 MLOAD PUSH32 0x3EE5AEB500000000000000000000000000000000000000000000000000000000 DUP2 MSTORE PUSH1 0x4 ADD PUSH1 0x40 MLOAD DUP1 SWAP2 SUB SWAP1 REVERT JUMPDEST PUSH1 0x2 PUSH0 DUP2 SWAP1 SSTORE POP JUMP JUMPDEST PUSH0 PUSH1 0xA PUSH0 PUSH1 0xC SLOAD DUP2 MSTORE PUSH1 0x20 ADD SWAP1 DUP2 MSTORE PUSH1 0x20 ADD PUSH0 KECCAK256 SWAP1 POP DUP1 PUSH1 0x5 ADD PUSH0 SWAP1 SLOAD SWAP1 PUSH2 0x100 EXP SWAP1 DIV PUSH1 0xFF AND ISZERO PUSH2 0x2E8C JUMPI PUSH1 0x40 MLOAD PUSH32 0x8C379A000000000000000000000000000000000000000000000000000000000 DUP2 MSTORE PUSH1 0x4 ADD PUSH2 0x2E83 SWAP1 PUSH2 0x574E JUMP JUMPDEST PUSH1 0x40 MLOAD DUP1 SWAP2 SUB SWAP1 REVERT JUMPDEST DUP1 PUSH1 0x1 ADD SLOAD TIMESTAMP GT PUSH2 0x2ED2 JUMPI PUSH1 0x40 MLOAD PUSH32 0x8C379A000000000000000000000000000000000000000000000000000000000 DUP2 MSTORE PUSH1 0x4 ADD PUSH2 0x2EC9 SWAP1 PUSH2 0x57B6 JUMP JUMPDEST PUSH1 0x40 MLOAD DUP1 SWAP2 SUB SWAP1 REVERT JUMPDEST PUSH1 0x1 DUP2 PUSH1 0x5 ADD PUSH0 PUSH2 0x100 EXP DUP2 SLOAD DUP2 PUSH1 0xFF MUL NOT AND SWAP1 DUP4 ISZERO ISZERO MUL OR SWAP1 SSTORE POP PUSH0 DUP2 PUSH1 0x3 ADD SLOAD GT ISZERO PUSH2 0x2F26 JUMPI DUP1 PUSH1 0x3 ADD SLOAD PUSH4 0x5F5E100 DUP3 PUSH1 0x2 ADD SLOAD PUSH2 0x2F13 SWAP2 SWAP1 PUSH2 0x47D2 JUMP JUMPDEST PUSH2 0x2F1D SWAP2 SWAP1 PUSH2 0x47A2 JUMP JUMPDEST DUP2 PUSH1 0x4 ADD DUP2 SWAP1 SSTORE POP JUMPDEST PUSH1 0xC SLOAD PUSH32 0x70801D4D63B3DA6C19BA7349911F45BED5A99CCDFB51B8138C105872529BEBD5 DUP3 PUSH1 0x2 ADD SLOAD DUP4 PUSH1 0x3 ADD SLOAD DUP5 PUSH1 0x4 ADD SLOAD PUSH1 0x40 MLOAD PUSH2 0x2F68 SWAP4 SWAP3 SWAP2 SWAP1 PUSH2 0x57D4 JUMP JUMPDEST PUSH1 0x40 MLOAD DUP1 SWAP2 SUB SWAP1 LOG2 POP JUMP JUMPDEST PUSH0 DUP1 PUSH1 0xC SLOAD GT ISZERO PUSH2 0x2FFA JUMPI PUSH1 0xA PUSH0 PUSH1 0xC SLOAD DUP2 MSTORE PUSH1 0x20 ADD SWAP1 DUP2 MSTORE PUSH1 0x20 ADD PUSH0 KECCAK256 PUSH1 0x5 ADD PUSH0 SWAP1 SLOAD SWAP1 PUSH2 0x100 EXP SWAP1 DIV PUSH1 0xFF AND PUSH2 0x2FE0 JUMPI PUSH1 0x40 MLOAD PUSH32 0x8C379A000000000000000000000000000000000000000000000000000000000 DUP2 MSTORE PUSH1 0x4 ADD PUSH2 0x2FD7 SWAP1 PUSH2 0x5853 JUMP JUMPDEST PUSH1 0x40 MLOAD DUP1 SWAP2 SUB SWAP1 REVERT JUMPDEST PUSH1 0xA PUSH0 PUSH1 0xC SLOAD DUP2 MSTORE PUSH1 0x20 ADD SWAP1 DUP2 MSTORE PUSH1 0x20 ADD PUSH0 KECCAK256 PUSH1 0x3 ADD SLOAD SWAP1 POP JUMPDEST PUSH0 PUSH1 0x4 SLOAD TIMESTAMP PUSH2 0x3009 SWAP2 SWAP1 PUSH2 0x4B90 JUMP JUMPDEST SWAP1 POP PUSH1 0x1 PUSH1 0xC PUSH0 DUP3 DUP3 SLOAD PUSH2 0x301D SWAP2 SWAP1 PUSH2 0x4B90 JUMP JUMPDEST SWAP3 POP POP DUP2 SWAP1 SSTORE POP PUSH1 0x40 MLOAD DUP1 PUSH1 0xC0 ADD PUSH1 0x40 MSTORE DUP1 TIMESTAMP DUP2 MSTORE PUSH1 0x20 ADD DUP3 DUP2 MSTORE PUSH1 0x20 ADD PUSH0 DUP2 MSTORE PUSH1 0x20 ADD DUP4 DUP2 MSTORE PUSH1 0x20 ADD PUSH0 DUP2 MSTORE PUSH1 0x20 ADD PUSH0 ISZERO ISZERO DUP2 MSTORE POP PUSH1 0xA PUSH0 PUSH1 0xC SLOAD DUP2 MSTORE PUSH1 0x20 ADD SWAP1 DUP2 MSTORE PUSH1 0x20 ADD PUSH0 KECCAK256 PUSH0 DUP3 ADD MLOAD DUP2 PUSH0 ADD SSTORE PUSH1 0x20 DUP3 ADD MLOAD DUP2 PUSH1 0x1 ADD SSTORE PUSH1 0x40 DUP3 ADD MLOAD DUP2 PUSH1 0x2 ADD SSTORE PUSH1 0x60 DUP3 ADD MLOAD DUP2 PUSH1 0x3 ADD SSTORE PUSH1 0x80 DUP3 ADD MLOAD DUP2 PUSH1 0x4 ADD SSTORE PUSH1 0xA0 DUP3 ADD MLOAD DUP2 PUSH1 0x5 ADD PUSH0 PUSH2 0x100 EXP DUP2 SLOAD DUP2 PUSH1 0xFF MUL NOT AND SWAP1 DUP4 ISZERO ISZERO MUL OR SWAP1 SSTORE POP SWAP1 POP POP PUSH1 0xC SLOAD PUSH32 0x29DB3DEB62EF2036E5EB93AAD68D2362AEC0711AF592CB365566603BD88651D4 TIMESTAMP DUP4 PUSH1 0x40 MLOAD PUSH2 0x30EC SWAP3 SWAP2 SWAP1 PUSH2 0x5871 JUMP JUMPDEST PUSH1 0x40 MLOAD DUP1 SWAP2 SUB SWAP1 LOG2 POP POP JUMP JUMPDEST PUSH1 0x60 DUP4 DUP4 DUP4 PUSH1 0x40 MLOAD PUSH1 0x20 ADD PUSH2 0x310F SWAP4 SWAP3 SWAP2 SWAP1 PUSH2 0x5911 JUMP JUMPDEST PUSH1 0x40 MLOAD PUSH1 0x20 DUP2 DUP4 SUB SUB DUP2 MSTORE SWAP1 PUSH1 0x40 MSTORE SWAP1 POP SWAP4 SWAP3 POP POP POP JUMP JUMPDEST PUSH0 DUP1 PUSH0 PUSH2 0x167 PUSH20 0xFFFFFFFFFFFFFFFFFFFFFFFFFFFFFFFFFFFFFFFF AND PUSH4 0xECA36917 PUSH1 0xE0 SHL DUP9 DUP9 DUP9 DUP9 PUSH1 0x40 MLOAD PUSH1 0x24 ADD PUSH2 0x3162 SWAP5 SWAP4 SWAP3 SWAP2 SWAP1 PUSH2 0x594D JUMP JUMPDEST PUSH1 0x40 MLOAD PUSH1 0x20 DUP2 DUP4 SUB SUB DUP2 MSTORE SWAP1 PUSH1 0x40 MSTORE SWAP1 PUSH28 0xFFFFFFFFFFFFFFFFFFFFFFFFFFFFFFFFFFFFFFFFFFFFFFFFFFFFFFFF NOT AND PUSH1 0x20 DUP3 ADD DUP1 MLOAD PUSH28 0xFFFFFFFFFFFFFFFFFFFFFFFFFFFFFFFFFFFFFFFFFFFFFFFFFFFFFFFF DUP4 DUP2 DUP4 AND OR DUP4 MSTORE POP POP POP POP PUSH1 0x40 MLOAD PUSH2 0x31CC SWAP2 SWAP1 PUSH2 0x4C91 JUMP JUMPDEST PUSH0 PUSH1 0x40 MLOAD DUP1 DUP4 SUB DUP2 PUSH0 DUP7 GAS CALL SWAP2 POP POP RETURNDATASIZE DUP1 PUSH0 DUP2 EQ PUSH2 0x3205 JUMPI PUSH1 0x40 MLOAD SWAP2 POP PUSH1 0x1F NOT PUSH1 0x3F RETURNDATASIZE ADD AND DUP3 ADD PUSH1 0x40 MSTORE RETURNDATASIZE DUP3 MSTORE RETURNDATASIZE PUSH0 PUSH1 0x20 DUP5 ADD RETURNDATACOPY PUSH2 0x320A JUMP JUMPDEST PUSH1 0x60 SWAP2 POP JUMPDEST POP SWAP2 POP SWAP2 POP DUP2 PUSH2 0x321B JUMPI PUSH1 0x15 PUSH2 0x3230 JUMP JUMPDEST DUP1 DUP1 PUSH1 0x20 ADD SWAP1 MLOAD DUP2 ADD SWAP1 PUSH2 0x322F SWAP2 SWAP1 PUSH2 0x4CA7 JUMP JUMPDEST JUMPDEST PUSH1 0x3 SIGNEXTEND SWAP3 POP POP POP SWAP5 SWAP4 POP POP POP POP JUMP JUMPDEST PUSH0 PUSH4 0x5F5E100 DUP3 LT ISZERO PUSH2 0x3254 JUMPI DUP3 SWAP1 POP PUSH2 0x32A5 JUMP JUMPDEST PUSH0 PUSH2 0x326D PUSH4 0x5F5E100 DUP5 PUSH2 0x3268 SWAP2 SWAP1 PUSH2 0x47A2 JUMP JUMPDEST PUSH2 0x35FC JUMP JUMPDEST SWAP1 POP PUSH1 0x19 DUP2 GT ISZERO PUSH2 0x327D JUMPI PUSH1 0x19 SWAP1 POP JUMPDEST PUSH1 0x64 DUP2 PUSH1 0x64 PUSH2 0x328C SWAP2 SWAP1 PUSH2 0x4B90 JUMP JUMPDEST DUP6 PUSH2 0x3297 SWAP2 SWAP1 PUSH2 0x47D2 JUMP JUMPDEST PUSH2 0x32A1 SWAP2 SWAP1 PUSH2 0x47A2 JUMP JUMPDEST SWAP2 POP POP JUMPDEST SWAP3 SWAP2 POP POP JUMP JUMPDEST PUSH1 0x1 PUSH0 DUP2 SWAP1 SSTORE POP JUMP JUMPDEST PUSH0 DUP1 PUSH0 PUSH2 0x167 PUSH20 0xFFFFFFFFFFFFFFFFFFFFFFFFFFFFFFFFFFFFFFFF AND PUSH4 0x49146BDE PUSH1 0xE0 SHL DUP7 DUP7 PUSH1 0x40 MLOAD PUSH1 0x24 ADD PUSH2 0x32EB SWAP3 SWAP2 SWAP1 PUSH2 0x5990 JUMP JUMPDEST PUSH1 0x40 MLOAD PUSH1 0x20 DUP2 DUP4 SUB SUB DUP2 MSTORE SWAP1 PUSH1 0x40 MSTORE SWAP1 PUSH28 0xFFFFFFFFFFFFFFFFFFFFFFFFFFFFFFFFFFFFFFFFFFFFFFFFFFFFFFFF NOT AND PUSH1 0x20 DUP3 ADD DUP1 MLOAD PUSH28 0xFFFFFFFFFFFFFFFFFFFFFFFFFFFFFFFFFFFFFFFFFFFFFFFFFFFFFFFF DUP4 DUP2 DUP4 AND OR DUP4 MSTORE POP POP POP POP PUSH1 0x40 MLOAD PUSH2 0x3355 SWAP2 SWAP1 PUSH2 0x4C91 JUMP JUMPDEST PUSH0 PUSH1 0x40 MLOAD DUP1 DUP4 SUB DUP2 PUSH0 DUP7 GAS CALL SWAP2 POP POP RETURNDATASIZE DUP1 PUSH0 DUP2 EQ PUSH2 0x338E JUMPI PUSH1 0x40 MLOAD SWAP2 POP PUSH1 0x1F NOT PUSH1 0x3F RETURNDATASIZE ADD AND DUP3 ADD PUSH1 0x40 MSTORE RETURNDATASIZE DUP3 MSTORE RETURNDATASIZE PUSH0 PUSH1 0x20 DUP5 ADD RETURNDATACOPY PUSH2 0x3393 JUMP JUMPDEST PUSH1 0x60 SWAP2 POP JUMPDEST POP SWAP2 POP SWAP2 POP DUP2 PUSH2 0x33A4 JUMPI PUSH1 0x15 PUSH2 0x33B9 JUMP JUMPDEST DUP1 DUP1 PUSH1 0x20 ADD SWAP1 MLOAD DUP2 ADD SWAP1 PUSH2 0x33B8 SWAP2 SWAP1 PUSH2 0x4CA7 JUMP JUMPDEST JUMPDEST PUSH1 0x3 SIGNEXTEND SWAP3 POP POP POP SWAP3 SWAP2 POP POP JUMP JUMPDEST PUSH0 PUSH8 0x7FFFFFFFFFFFFFFF PUSH1 0x7 SIGNEXTEND DUP3 GT ISZERO PUSH2 0x3415 JUMPI PUSH1 0x40 MLOAD PUSH32 0x8C379A000000000000000000000000000000000000000000000000000000000 DUP2 MSTORE PUSH1 0x4 ADD PUSH2 0x340C SWAP1 PUSH2 0x5A01 JUMP JUMPDEST PUSH1 0x40 MLOAD DUP1 SWAP2 SUB SWAP1 REVERT JUMPDEST DUP2 SWAP1 POP SWAP2 SWAP1 POP JUMP JUMPDEST PUSH0 DUP1 PUSH0 PUSH2 0x167 PUSH20 0xFFFFFFFFFFFFFFFFFFFFFFFFFFFFFFFFFFFFFFFF AND PUSH4 0xE1F21C67 PUSH1 0xE0 SHL DUP8 DUP8 DUP8 PUSH1 0x40 MLOAD PUSH1 0x24 ADD PUSH2 0x3456 SWAP4 SWAP3 SWAP2 SWAP1 PUSH2 0x5A1F JUMP JUMPDEST PUSH1 0x40 MLOAD PUSH1 0x20 DUP2 DUP4 SUB SUB DUP2 MSTORE SWAP1 PUSH1 0x40 MSTORE SWAP1 PUSH28 0xFFFFFFFFFFFFFFFFFFFFFFFFFFFFFFFFFFFFFFFFFFFFFFFFFFFFFFFF NOT AND PUSH1 0x20 DUP3 ADD DUP1 MLOAD PUSH28 0xFFFFFFFFFFFFFFFFFFFFFFFFFFFFFFFFFFFFFFFFFFFFFFFFFFFFFFFF DUP4 DUP2 DUP4 AND OR DUP4 MSTORE POP POP POP POP PUSH1 0x40 MLOAD PUSH2 0x34C0 SWAP2 SWAP1 PUSH2 0x4C91 JUMP JUMPDEST PUSH0 PUSH1 0x40 MLOAD DUP1 DUP4 SUB DUP2 PUSH0 DUP7 GAS CALL SWAP2 POP POP RETURNDATASIZE DUP1 PUSH0 DUP2 EQ PUSH2 0x34F9 JUMPI PUSH1 0x40 MLOAD SWAP2 POP PUSH1 0x1F NOT PUSH1 0x3F RETURNDATASIZE ADD AND DUP3 ADD PUSH1 0x40 MSTORE RETURNDATASIZE DUP3 MSTORE RETURNDATASIZE PUSH0 PUSH1 0x20 DUP5 ADD RETURNDATACOPY PUSH2 0x34FE JUMP JUMPDEST PUSH1 0x60 SWAP2 POP JUMPDEST POP SWAP2 POP SWAP2 POP DUP2 PUSH2 0x350F JUMPI PUSH1 0x15 PUSH2 0x3524 JUMP JUMPDEST DUP1 DUP1 PUSH1 0x20 ADD SWAP1 MLOAD DUP2 ADD SWAP1 PUSH2 0x3523 SWAP2 SWAP1 PUSH2 0x4CA7 JUMP JUMPDEST JUMPDEST PUSH1 0x3 SIGNEXTEND SWAP3 POP POP POP SWAP4 SWAP3 POP POP POP JUMP JUMPDEST PUSH0 PUSH1 0x1 PUSH0 SWAP1 SLOAD SWAP1 PUSH2 0x100 EXP SWAP1 DIV PUSH20 0xFFFFFFFFFFFFFFFFFFFFFFFFFFFFFFFFFFFFFFFF AND SWAP1 POP DUP2 PUSH1 0x1 PUSH0 PUSH2 0x100 EXP DUP2 SLOAD DUP2 PUSH20 0xFFFFFFFFFFFFFFFFFFFFFFFFFFFFFFFFFFFFFFFF MUL NOT AND SWAP1 DUP4 PUSH20 0xFFFFFFFFFFFFFFFFFFFFFFFFFFFFFFFFFFFFFFFF AND MUL OR SWAP1 SSTORE POP DUP2 PUSH20 0xFFFFFFFFFFFFFFFFFFFFFFFFFFFFFFFFFFFFFFFF AND DUP2 PUSH20 0xFFFFFFFFFFFFFFFFFFFFFFFFFFFFFFFFFFFFFFFF AND PUSH32 0x8BE0079C531659141344CD1FD0A4F28419497F9722A3DAAFE3B4186F6B6457E0 PUSH1 0x40 MLOAD PUSH1 0x40 MLOAD DUP1 SWAP2 SUB SWAP1 LOG3 POP POP JUMP JUMPDEST PUSH0 CALLER SWAP1 POP SWAP1 JUMP JUMPDEST PUSH0 DUP1 PUSH0 SWAP1 POP PUSH0 PUSH2 0x361D PUSH16 0xFFFFFFFFFFFFFFFFFFFFFFFFFFFFFFFF DUP6 GT PUSH2 0x36FA JUMP JUMPDEST PUSH1 0x80 MUL SWAP1 POP DUP1 DUP5 SWAP1 SHR SWAP4 POP DUP1 DUP3 ADD SWAP2 POP PUSH2 0x3640 PUSH8 0xFFFFFFFFFFFFFFFF DUP6 GT PUSH2 0x36FA JUMP JUMPDEST PUSH1 0x40 MUL SWAP1 POP DUP1 DUP5 SWAP1 SHR SWAP4 POP DUP1 DUP3 ADD SWAP2 POP PUSH2 0x365F PUSH4 0xFFFFFFFF DUP6 GT PUSH2 0x36FA JUMP JUMPDEST PUSH1 0x20 MUL SWAP1 POP DUP1 DUP5 SWAP1 SHR SWAP4 POP DUP1 DUP3 ADD SWAP2 POP PUSH2 0x367C PUSH2 0xFFFF DUP6 GT PUSH2 0x36FA JUMP JUMPDEST PUSH1 0x10 MUL SWAP1 POP DUP1 DUP5 SWAP1 SHR SWAP4 POP DUP1 DUP3 ADD SWAP2 POP PUSH2 0x3698 PUSH1 0xFF DUP6 GT PUSH2 0x36FA JUMP JUMPDEST PUSH1 0x8 MUL SWAP1 POP DUP1 DUP5 SWAP1 SHR SWAP4 POP DUP1 DUP3 ADD SWAP2 POP PUSH2 0x36B4 PUSH1 0xF DUP6 GT PUSH2 0x36FA JUMP JUMPDEST PUSH1 0x4 MUL SWAP1 POP DUP1 DUP5 SWAP1 SHR SWAP4 POP DUP1 DUP3 ADD SWAP2 POP PUSH2 0x36D0 PUSH1 0x3 DUP6 GT PUSH2 0x36FA JUMP JUMPDEST PUSH1 0x2 MUL SWAP1 POP DUP1 DUP5 SWAP1 SHR SWAP4 POP DUP1 DUP3 ADD SWAP2 POP PUSH2 0x36EC PUSH1 0x1 DUP6 GT PUSH2 0x36FA JUMP JUMPDEST DUP3 ADD SWAP2 POP DUP2 SWAP3 POP POP POP SWAP2 SWAP1 POP JUMP JUMPDEST PUSH0 DUP2 ISZERO ISZERO SWAP1 POP SWAP2 SWAP1 POP JUMP JUMPDEST PUSH0 PUSH1 0x40 MLOAD SWAP1 POP SWAP1 JUMP JUMPDEST PUSH0 DUP1 REVERT JUMPDEST PUSH0 DUP1 REVERT JUMPDEST PUSH0 PUSH20 0xFFFFFFFFFFFFFFFFFFFFFFFFFFFFFFFFFFFFFFFF DUP3 AND SWAP1 POP SWAP2 SWAP1 POP JUMP JUMPDEST PUSH0 PUSH2 0x373F DUP3 PUSH2 0x3716 JUMP JUMPDEST SWAP1 POP SWAP2 SWAP1 POP JUMP JUMPDEST PUSH2 0x374F DUP2 PUSH2 0x3735 JUMP JUMPDEST DUP2 EQ PUSH2 0x3759 JUMPI PUSH0 DUP1 REVERT JUMPDEST POP JUMP JUMPDEST PUSH0 DUP2 CALLDATALOAD SWAP1 POP PUSH2 0x376A DUP2 PUSH2 0x3746 JUMP JUMPDEST SWAP3 SWAP2 POP POP JUMP JUMPDEST PUSH0 PUSH1 0x20 DUP3 DUP5 SUB SLT ISZERO PUSH2 0x3785 JUMPI PUSH2 0x3784 PUSH2 0x370E JUMP JUMPDEST JUMPDEST PUSH0 PUSH2 0x3792 DUP5 DUP3 DUP6 ADD PUSH2 0x375C JUMP JUMPDEST SWAP2 POP POP SWAP3 SWAP2 POP POP JUMP JUMPDEST PUSH0 DUP2 SWAP1 POP SWAP2 SWAP1 POP JUMP JUMPDEST PUSH2 0x37AD DUP2 PUSH2 0x379B JUMP JUMPDEST DUP2 EQ PUSH2 0x37B7 JUMPI PUSH0 DUP1 REVERT JUMPDEST POP JUMP JUMPDEST PUSH0 DUP2 CALLDATALOAD SWAP1 POP PUSH2 0x37C8 DUP2 PUSH2 0x37A4 JUMP JUMPDEST SWAP3 SWAP2 POP POP JUMP JUMPDEST PUSH0 DUP1 REVERT JUMPDEST PUSH0 DUP1 REVERT JUMPDEST PUSH0 DUP1 REVERT JUMPDEST PUSH0 DUP1 DUP4 PUSH1 0x1F DUP5 ADD SLT PUSH2 0x37EF JUMPI PUSH2 0x37EE PUSH2 0x37CE JUMP JUMPDEST JUMPDEST DUP3 CALLDATALOAD SWAP1 POP PUSH8 0xFFFFFFFFFFFFFFFF DUP2 GT ISZERO PUSH2 0x380C JUMPI PUSH2 0x380B PUSH2 0x37D2 JUMP JUMPDEST JUMPDEST PUSH1 0x20 DUP4 ADD SWAP2 POP DUP4 PUSH1 0x20 DUP3 MUL DUP4 ADD GT ISZERO PUSH2 0x3828 JUMPI PUSH2 0x3827 PUSH2 0x37D6 JUMP JUMPDEST JUMPDEST SWAP3 POP SWAP3 SWAP1 POP JUMP JUMPDEST PUSH0 DUP1 PUSH0 DUP1 PUSH0 DUP1 PUSH1 0xA0 DUP8 DUP10 SUB SLT ISZERO PUSH2 0x3849 JUMPI PUSH2 0x3848 PUSH2 0x370E JUMP JUMPDEST JUMPDEST PUSH0 PUSH2 0x3856 DUP10 DUP3 DUP11 ADD PUSH2 0x375C JUMP JUMPDEST SWAP7 POP POP PUSH1 0x20 PUSH2 0x3867 DUP10 DUP3 DUP11 ADD PUSH2 0x37BA JUMP JUMPDEST SWAP6 POP POP PUSH1 0x40 PUSH2 0x3878 DUP10 DUP3 DUP11 ADD PUSH2 0x37BA JUMP JUMPDEST SWAP5 POP POP PUSH1 0x60 PUSH2 0x3889 DUP10 DUP3 DUP11 ADD PUSH2 0x37BA JUMP JUMPDEST SWAP4 POP POP PUSH1 0x80 DUP8 ADD CALLDATALOAD PUSH8 0xFFFFFFFFFFFFFFFF DUP2 GT ISZERO PUSH2 0x38AA JUMPI PUSH2 0x38A9 PUSH2 0x3712 JUMP JUMPDEST JUMPDEST PUSH2 0x38B6 DUP10 DUP3 DUP11 ADD PUSH2 0x37DA JUMP JUMPDEST SWAP3 POP SWAP3 POP POP SWAP3 SWAP6 POP SWAP3 SWAP6 POP SWAP3 SWAP6 JUMP JUMPDEST PUSH0 DUP2 SWAP1 POP SWAP2 SWAP1 POP JUMP JUMPDEST PUSH0 PUSH2 0x38E8 PUSH2 0x38E3 PUSH2 0x38DE DUP5 PUSH2 0x3716 JUMP JUMPDEST PUSH2 0x38C5 JUMP JUMPDEST PUSH2 0x3716 JUMP JUMPDEST SWAP1 POP SWAP2 SWAP1 POP JUMP JUMPDEST PUSH0 PUSH2 0x38F9 DUP3 PUSH2 0x38CE JUMP JUMPDEST SWAP1 POP SWAP2 SWAP1 POP JUMP JUMPDEST PUSH0 PUSH2 0x390A DUP3 PUSH2 0x38EF JUMP JUMPDEST SWAP1 POP SWAP2 SWAP1 POP JUMP JUMPDEST PUSH2 0x391A DUP2 PUSH2 0x3900 JUMP JUMPDEST DUP3 MSTORE POP POP JUMP JUMPDEST PUSH0 PUSH1 0x20 DUP3 ADD SWAP1 POP PUSH2 0x3933 PUSH0 DUP4 ADD DUP5 PUSH2 0x3911 JUMP JUMPDEST SWAP3 SWAP2 POP POP JUMP JUMPDEST PUSH0 DUP1 PUSH0 DUP1 PUSH1 0x80 DUP6 DUP8 SUB SLT ISZERO PUSH2 0x3951 JUMPI PUSH2 0x3950 PUSH2 0x370E JUMP JUMPDEST JUMPDEST PUSH0 PUSH2 0x395E DUP8 DUP3 DUP9 ADD PUSH2 0x375C JUMP JUMPDEST SWAP5 POP POP PUSH1 0x20 PUSH2 0x396F DUP8 DUP3 DUP9 ADD PUSH2 0x375C JUMP JUMPDEST SWAP4 POP POP PUSH1 0x40 PUSH2 0x3980 DUP8 DUP3 DUP9 ADD PUSH2 0x375C JUMP JUMPDEST SWAP3 POP POP PUSH1 0x60 PUSH2 0x3991 DUP8 DUP3 DUP9 ADD PUSH2 0x37BA JUMP JUMPDEST SWAP2 POP POP SWAP3 SWAP6 SWAP2 SWAP5 POP SWAP3 POP JUMP JUMPDEST PUSH0 DUP2 PUSH1 0x7 SIGNEXTEND SWAP1 POP SWAP2 SWAP1 POP JUMP JUMPDEST PUSH2 0x39B2 DUP2 PUSH2 0x399D JUMP JUMPDEST DUP3 MSTORE POP POP JUMP JUMPDEST PUSH0 PUSH1 0x20 DUP3 ADD SWAP1 POP PUSH2 0x39CB PUSH0 DUP4 ADD DUP5 PUSH2 0x39A9 JUMP JUMPDEST SWAP3 SWAP2 POP POP JUMP JUMPDEST PUSH0 PUSH1 0x20 DUP3 DUP5 SUB SLT ISZERO PUSH2 0x39E6 JUMPI PUSH2 0x39E5 PUSH2 0x370E JUMP JUMPDEST JUMPDEST PUSH0 PUSH2 0x39F3 DUP5 DUP3 DUP6 ADD PUSH2 0x37BA JUMP JUMPDEST SWAP2 POP POP SWAP3 SWAP2 POP POP JUMP JUMPDEST PUSH0 DUP2 SWAP1 POP SWAP2 SWAP1 POP JUMP JUMPDEST PUSH2 0x3A0E DUP2 PUSH2 0x39FC JUMP JUMPDEST DUP3 MSTORE POP POP JUMP JUMPDEST PUSH0 PUSH1 0x20 DUP3 ADD SWAP1 POP PUSH2 0x3A27 PUSH0 DUP4 ADD DUP5 PUSH2 0x3A05 JUMP JUMPDEST SWAP3 SWAP2 POP POP JUMP JUMPDEST PUSH2 0x3A36 DUP2 PUSH2 0x379B JUMP JUMPDEST DUP3 MSTORE POP POP JUMP JUMPDEST PUSH0 PUSH1 0x20 DUP3 ADD SWAP1 POP PUSH2 0x3A4F PUSH0 DUP4 ADD DUP5 PUSH2 0x3A2D JUMP JUMPDEST SWAP3 SWAP2 POP POP JUMP JUMPDEST PUSH2 0x3A5E DUP2 PUSH2 0x39FC JUMP JUMPDEST DUP2 EQ PUSH2 0x3A68 JUMPI PUSH0 DUP1 REVERT JUMPDEST POP JUMP JUMPDEST PUSH0 DUP2 CALLDATALOAD SWAP1 POP PUSH2 0x3A79 DUP2 PUSH2 0x3A55 JUMP JUMPDEST SWAP3 SWAP2 POP POP JUMP JUMPDEST PUSH0 PUSH1 0x20 DUP3 DUP5 SUB SLT ISZERO PUSH2 0x3A94 JUMPI PUSH2 0x3A93 PUSH2 0x370E JUMP JUMPDEST JUMPDEST PUSH0 PUSH2 0x3AA1 DUP5 DUP3 DUP6 ADD PUSH2 0x3A6B JUMP JUMPDEST SWAP2 POP POP SWAP3 SWAP2 POP POP JUMP JUMPDEST PUSH0 DUP1 REVERT JUMPDEST PUSH0 PUSH1 0x1F NOT PUSH1 0x1F DUP4 ADD AND SWAP1 POP SWAP2 SWAP1 POP JUMP JUMPDEST PUSH32 0x4E487B7100000000000000000000000000000000000000000000000000000000 PUSH0 MSTORE PUSH1 0x41 PUSH1 0x4 MSTORE PUSH1 0x24 PUSH0 REVERT JUMPDEST PUSH2 0x3AF4 DUP3 PUSH2 0x3AAE JUMP JUMPDEST DUP2 ADD DUP2 DUP2 LT PUSH8 0xFFFFFFFFFFFFFFFF DUP3 GT OR ISZERO PUSH2 0x3B13 JUMPI PUSH2 0x3B12 PUSH2 0x3ABE JUMP JUMPDEST JUMPDEST DUP1 PUSH1 0x40 MSTORE POP POP POP JUMP JUMPDEST PUSH0 PUSH2 0x3B25 PUSH2 0x3705 JUMP JUMPDEST SWAP1 POP PUSH2 0x3B31 DUP3 DUP3 PUSH2 0x3AEB JUMP JUMPDEST SWAP2 SWAP1 POP JUMP JUMPDEST PUSH0 PUSH8 0xFFFFFFFFFFFFFFFF DUP3 GT ISZERO PUSH2 0x3B50 JUMPI PUSH2 0x3B4F PUSH2 0x3ABE JUMP JUMPDEST JUMPDEST PUSH2 0x3B59 DUP3 PUSH2 0x3AAE JUMP JUMPDEST SWAP1 POP PUSH1 0x20 DUP2 ADD SWAP1 POP SWAP2 SWAP1 POP JUMP JUMPDEST DUP3 DUP2 DUP4 CALLDATACOPY PUSH0 DUP4 DUP4 ADD MSTORE POP POP POP JUMP JUMPDEST PUSH0 PUSH2 0x3B86 PUSH2 0x3B81 DUP5 PUSH2 0x3B36 JUMP JUMPDEST PUSH2 0x3B1C JUMP JUMPDEST SWAP1 POP DUP3 DUP2 MSTORE PUSH1 0x20 DUP2 ADD DUP5 DUP5 DUP5 ADD GT ISZERO PUSH2 0x3BA2 JUMPI PUSH2 0x3BA1 PUSH2 0x3AAA JUMP JUMPDEST JUMPDEST PUSH2 0x3BAD DUP5 DUP3 DUP6 PUSH2 0x3B66 JUMP JUMPDEST POP SWAP4 SWAP3 POP POP POP JUMP JUMPDEST PUSH0 DUP3 PUSH1 0x1F DUP4 ADD SLT PUSH2 0x3BC9 JUMPI PUSH2 0x3BC8 PUSH2 0x37CE JUMP JUMPDEST JUMPDEST DUP2 CALLDATALOAD PUSH2 0x3BD9 DUP5 DUP3 PUSH1 0x20 DUP7 ADD PUSH2 0x3B74 JUMP JUMPDEST SWAP2 POP POP SWAP3 SWAP2 POP POP JUMP JUMPDEST PUSH0 DUP1 PUSH1 0x40 DUP4 DUP6 SUB SLT ISZERO PUSH2 0x3BF8 JUMPI PUSH2 0x3BF7 PUSH2 0x370E JUMP JUMPDEST JUMPDEST PUSH0 PUSH2 0x3C05 DUP6 DUP3 DUP7 ADD PUSH2 0x375C JUMP JUMPDEST SWAP3 POP POP PUSH1 0x20 DUP4 ADD CALLDATALOAD PUSH8 0xFFFFFFFFFFFFFFFF DUP2 GT ISZERO PUSH2 0x3C26 JUMPI PUSH2 0x3C25 PUSH2 0x3712 JUMP JUMPDEST JUMPDEST PUSH2 0x3C32 DUP6 DUP3 DUP7 ADD PUSH2 0x3BB5 JUMP JUMPDEST SWAP2 POP POP SWAP3 POP SWAP3 SWAP1 POP JUMP JUMPDEST PUSH0 DUP2 SWAP1 POP SWAP2 SWAP1 POP JUMP JUMPDEST PUSH2 0x3C4E DUP2 PUSH2 0x3C3C JUMP JUMPDEST DUP3 MSTORE POP POP JUMP JUMPDEST PUSH0 DUP2 MLOAD SWAP1 POP SWAP2 SWAP1 POP JUMP JUMPDEST PUSH0 DUP3 DUP3 MSTORE PUSH1 0x20 DUP3 ADD SWAP1 POP SWAP3 SWAP2 POP POP JUMP JUMPDEST DUP3 DUP2 DUP4 MCOPY PUSH0 DUP4 DUP4 ADD MSTORE POP POP POP JUMP JUMPDEST PUSH0 PUSH2 0x3C86 DUP3 PUSH2 0x3C54 JUMP JUMPDEST PUSH2 0x3C90 DUP2 DUP6 PUSH2 0x3C5E JUMP JUMPDEST SWAP4 POP PUSH2 0x3CA0 DUP2 DUP6 PUSH1 0x20 DUP7 ADD PUSH2 0x3C6E JUMP JUMPDEST PUSH2 0x3CA9 DUP2 PUSH2 0x3AAE JUMP JUMPDEST DUP5 ADD SWAP2 POP POP SWAP3 SWAP2 POP POP JUMP JUMPDEST PUSH0 PUSH1 0x40 DUP3 ADD SWAP1 POP PUSH2 0x3CC7 PUSH0 DUP4 ADD DUP6 PUSH2 0x3C45 JUMP JUMPDEST DUP2 DUP2 SUB PUSH1 0x20 DUP4 ADD MSTORE PUSH2 0x3CD9 DUP2 DUP5 PUSH2 0x3C7C JUMP JUMPDEST SWAP1 POP SWAP4 SWAP3 POP POP POP JUMP JUMPDEST PUSH2 0x3CEB DUP2 PUSH2 0x3735 JUMP JUMPDEST DUP3 MSTORE POP POP JUMP JUMPDEST PUSH0 PUSH1 0x20 DUP3 ADD SWAP1 POP PUSH2 0x3D04 PUSH0 DUP4 ADD DUP5 PUSH2 0x3CE2 JUMP JUMPDEST SWAP3 SWAP2 POP POP JUMP JUMPDEST PUSH0 PUSH2 0x3D14 DUP3 PUSH2 0x38EF JUMP JUMPDEST SWAP1 POP SWAP2 SWAP1 POP JUMP JUMPDEST PUSH2 0x3D24 DUP2 PUSH2 0x3D0A JUMP JUMPDEST DUP3 MSTORE POP POP JUMP JUMPDEST PUSH0 PUSH1 0x20 DUP3 ADD SWAP1 POP PUSH2 0x3D3D PUSH0 DUP4 ADD DUP5 PUSH2 0x3D1B JUMP JUMPDEST SWAP3 SWAP2 POP POP JUMP JUMPDEST PUSH0 DUP1 PUSH1 0x40 DUP4 DUP6 SUB SLT ISZERO PUSH2 0x3D59 JUMPI PUSH2 0x3D58 PUSH2 0x370E JUMP JUMPDEST JUMPDEST PUSH0 PUSH2 0x3D66 DUP6 DUP3 DUP7 ADD PUSH2 0x375C JUMP JUMPDEST SWAP3 POP POP PUSH1 0x20 PUSH2 0x3D77 DUP6 DUP3 DUP7 ADD PUSH2 0x375C JUMP JUMPDEST SWAP2 POP POP SWAP3 POP SWAP3 SWAP1 POP JUMP JUMPDEST PUSH0 PUSH3 0xFFFFFF DUP3 AND SWAP1 POP SWAP2 SWAP1 POP JUMP JUMPDEST PUSH2 0x3D98 DUP2 PUSH2 0x3D81 JUMP JUMPDEST DUP3 MSTORE POP POP JUMP JUMPDEST PUSH0 PUSH1 0x20 DUP3 ADD SWAP1 POP PUSH2 0x3DB1 PUSH0 DUP4 ADD DUP5 PUSH2 0x3D8F JUMP JUMPDEST SWAP3 SWAP2 POP POP JUMP JUMPDEST PUSH0 DUP1 PUSH1 0x40 DUP4 DUP6 SUB SLT ISZERO PUSH2 0x3DCD JUMPI PUSH2 0x3DCC PUSH2 0x370E JUMP JUMPDEST JUMPDEST PUSH0 PUSH2 0x3DDA DUP6 DUP3 DUP7 ADD PUSH2 0x375C JUMP JUMPDEST SWAP3 POP POP PUSH1 0x20 PUSH2 0x3DEB DUP6 DUP3 DUP7 ADD PUSH2 0x37BA JUMP JUMPDEST SWAP2 POP POP SWAP3 POP SWAP3 SWAP1 POP JUMP JUMPDEST PUSH0 PUSH1 0xC0 DUP3 ADD SWAP1 POP PUSH2 0x3E08 PUSH0 DUP4 ADD DUP10 PUSH2 0x3CE2 JUMP JUMPDEST PUSH2 0x3E15 PUSH1 0x20 DUP4 ADD DUP9 PUSH2 0x3A2D JUMP JUMPDEST PUSH2 0x3E22 PUSH1 0x40 DUP4 ADD DUP8 PUSH2 0x3A2D JUMP JUMPDEST PUSH2 0x3E2F PUSH1 0x60 DUP4 ADD DUP7 PUSH2 0x3A2D JUMP JUMPDEST PUSH2 0x3E3C PUSH1 0x80 DUP4 ADD DUP6 PUSH2 0x3A2D JUMP JUMPDEST PUSH2 0x3E49 PUSH1 0xA0 DUP4 ADD DUP5 PUSH2 0x3A2D JUMP JUMPDEST SWAP8 SWAP7 POP POP POP POP POP POP POP JUMP JUMPDEST PUSH0 DUP2 ISZERO ISZERO SWAP1 POP SWAP2 SWAP1 POP JUMP JUMPDEST PUSH2 0x3E68 DUP2 PUSH2 0x3E54 JUMP JUMPDEST DUP3 MSTORE POP POP JUMP JUMPDEST PUSH0 PUSH1 0xC0 DUP3 ADD SWAP1 POP PUSH2 0x3E81 PUSH0 DUP4 ADD DUP10 PUSH2 0x3A2D JUMP JUMPDEST PUSH2 0x3E8E PUSH1 0x20 DUP4 ADD DUP9 PUSH2 0x3A2D JUMP JUMPDEST PUSH2 0x3E9B PUSH1 0x40 DUP4 ADD DUP8 PUSH2 0x3A2D JUMP JUMPDEST PUSH2 0x3EA8 PUSH1 0x60 DUP4 ADD DUP7 PUSH2 0x3A2D JUMP JUMPDEST PUSH2 0x3EB5 PUSH1 0x80 DUP4 ADD DUP6 PUSH2 0x3A2D JUMP JUMPDEST PUSH2 0x3EC2 PUSH1 0xA0 DUP4 ADD DUP5 PUSH2 0x3E5F JUMP JUMPDEST SWAP8 SWAP7 POP POP POP POP POP POP POP JUMP JUMPDEST PUSH0 DUP1 PUSH1 0x40 DUP4 DUP6 SUB SLT ISZERO PUSH2 0x3EE3 JUMPI PUSH2 0x3EE2 PUSH2 0x370E JUMP JUMPDEST JUMPDEST PUSH0 PUSH2 0x3EF0 DUP6 DUP3 DUP7 ADD PUSH2 0x37BA JUMP JUMPDEST SWAP3 POP POP PUSH1 0x20 PUSH2 0x3F01 DUP6 DUP3 DUP7 ADD PUSH2 0x37BA JUMP JUMPDEST SWAP2 POP POP SWAP3 POP SWAP3 SWAP1 POP JUMP JUMPDEST PUSH2 0x3F14 DUP2 PUSH2 0x3D81 JUMP JUMPDEST DUP2 EQ PUSH2 0x3F1E JUMPI PUSH0 DUP1 REVERT JUMPDEST POP JUMP JUMPDEST PUSH0 DUP2 CALLDATALOAD SWAP1 POP PUSH2 0x3F2F DUP2 PUSH2 0x3F0B JUMP JUMPDEST SWAP3 SWAP2 POP POP JUMP JUMPDEST PUSH0 DUP1 PUSH0 PUSH1 0x60 DUP5 DUP7 SUB SLT ISZERO PUSH2 0x3F4C JUMPI PUSH2 0x3F4B PUSH2 0x370E JUMP JUMPDEST JUMPDEST PUSH0 PUSH2 0x3F59 DUP7 DUP3 DUP8 ADD PUSH2 0x375C JUMP JUMPDEST SWAP4 POP POP PUSH1 0x20 PUSH2 0x3F6A DUP7 DUP3 DUP8 ADD PUSH2 0x375C JUMP JUMPDEST SWAP3 POP POP PUSH1 0x40 PUSH2 0x3F7B DUP7 DUP3 DUP8 ADD PUSH2 0x3F21 JUMP JUMPDEST SWAP2 POP POP SWAP3 POP SWAP3 POP SWAP3 JUMP JUMPDEST PUSH0 PUSH2 0x3F8F DUP3 PUSH2 0x38EF JUMP JUMPDEST SWAP1 POP SWAP2 SWAP1 POP JUMP JUMPDEST PUSH2 0x3F9F DUP2 PUSH2 0x3F85 JUMP JUMPDEST DUP3 MSTORE POP POP JUMP JUMPDEST PUSH0 PUSH1 0x20 DUP3 ADD SWAP1 POP PUSH2 0x3FB8 PUSH0 DUP4 ADD DUP5 PUSH2 0x3F96 JUMP JUMPDEST SWAP3 SWAP2 POP POP JUMP JUMPDEST PUSH0 DUP3 DUP3 MSTORE PUSH1 0x20 DUP3 ADD SWAP1 POP SWAP3 SWAP2 POP POP JUMP JUMPDEST PUSH32 0x496E76616C696420616464726573730000000000000000000000000000000000 PUSH0 DUP3 ADD MSTORE POP JUMP JUMPDEST PUSH0 PUSH2 0x4002 PUSH1 0xF DUP4 PUSH2 0x3FBE JUMP JUMPDEST SWAP2 POP PUSH2 0x400D DUP3 PUSH2 0x3FCE JUMP JUMPDEST PUSH1 0x20 DUP3 ADD SWAP1 POP SWAP2 SWAP1 POP JUMP JUMPDEST PUSH0 PUSH1 0x20 DUP3 ADD SWAP1 POP DUP2 DUP2 SUB PUSH0 DUP4 ADD MSTORE PUSH2 0x402F DUP2 PUSH2 0x3FF6 JUMP JUMPDEST SWAP1 POP SWAP2 SWAP1 POP JUMP JUMPDEST PUSH32 0x5374616B6520616D6F756E74206D757374206265203E20300000000000000000 PUSH0 DUP3 ADD MSTORE POP JUMP JUMPDEST PUSH0 PUSH2 0x406A PUSH1 0x18 DUP4 PUSH2 0x3FBE JUMP JUMPDEST SWAP2 POP PUSH2 0x4075 DUP3 PUSH2 0x4036 JUMP JUMPDEST PUSH1 0x20 DUP3 ADD SWAP1 POP SWAP2 SWAP1 POP JUMP JUMPDEST PUSH0 PUSH1 0x20 DUP3 ADD SWAP1 POP DUP2 DUP2 SUB PUSH0 DUP4 ADD MSTORE PUSH2 0x4097 DUP2 PUSH2 0x405E JUMP JUMPDEST SWAP1 POP SWAP2 SWAP1 POP JUMP JUMPDEST PUSH32 0x5374616B65206475726174696F6E206F7574206F662072616E67650000000000 PUSH0 DUP3 ADD MSTORE POP JUMP JUMPDEST PUSH0 PUSH2 0x40D2 PUSH1 0x1B DUP4 PUSH2 0x3FBE JUMP JUMPDEST SWAP2 POP PUSH2 0x40DD DUP3 PUSH2 0x409E JUMP JUMPDEST PUSH1 0x20 DUP3 ADD SWAP1 POP SWAP2 SWAP1 POP JUMP JUMPDEST PUSH0 PUSH1 0x20 DUP3 ADD SWAP1 POP DUP2 DUP2 SUB PUSH0 DUP4 ADD MSTORE PUSH2 0x40FF DUP2 PUSH2 0x40C6 JUMP JUMPDEST SWAP1 POP SWAP2 SWAP1 POP JUMP JUMPDEST PUSH32 0x4D6178696D756D206E756D626572206F6620616374697665207374616B657320 PUSH0 DUP3 ADD MSTORE PUSH32 0x7265616368656400000000000000000000000000000000000000000000000000 PUSH1 0x20 DUP3 ADD MSTORE POP JUMP JUMPDEST PUSH0 PUSH2 0x4160 PUSH1 0x27 DUP4 PUSH2 0x3FBE JUMP JUMPDEST SWAP2 POP PUSH2 0x416B DUP3 PUSH2 0x4106 JUMP JUMPDEST PUSH1 0x40 DUP3 ADD SWAP1 POP SWAP2 SWAP1 POP JUMP JUMPDEST PUSH0 PUSH1 0x20 DUP3 ADD SWAP1 POP DUP2 DUP2 SUB PUSH0 DUP4 ADD MSTORE PUSH2 0x418D DUP2 PUSH2 0x4154 JUMP JUMPDEST SWAP1 POP SWAP2 SWAP1 POP JUMP JUMPDEST PUSH32 0x496E636F7272656374204842415220616D6F756E742073656E74000000000000 PUSH0 DUP3 ADD MSTORE POP JUMP JUMPDEST PUSH0 PUSH2 0x41C8 PUSH1 0x1A DUP4 PUSH2 0x3FBE JUMP JUMPDEST SWAP2 POP PUSH2 0x41D3 DUP3 PUSH2 0x4194 JUMP JUMPDEST PUSH1 0x20 DUP3 ADD SWAP1 POP SWAP2 SWAP1 POP JUMP JUMPDEST PUSH0 PUSH1 0x20 DUP3 ADD SWAP1 POP DUP2 DUP2 SUB PUSH0 DUP4 ADD MSTORE PUSH2 0x41F5 DUP2 PUSH2 0x41BC JUMP JUMPDEST SWAP1 POP SWAP2 SWAP1 POP JUMP JUMPDEST PUSH0 DUP3 DUP3 MSTORE PUSH1 0x20 DUP3 ADD SWAP1 POP SWAP3 SWAP2 POP POP JUMP JUMPDEST PUSH0 DUP2 SWAP1 POP SWAP2 SWAP1 POP JUMP JUMPDEST PUSH0 DUP3 DUP3 MSTORE PUSH1 0x20 DUP3 ADD SWAP1 POP SWAP3 SWAP2 POP POP JUMP JUMPDEST PUSH0 PUSH2 0x4230 DUP4 DUP6 PUSH2 0x4215 JUMP JUMPDEST SWAP4 POP PUSH2 0x423D DUP4 DUP6 DUP5 PUSH2 0x3B66 JUMP JUMPDEST PUSH2 0x4246 DUP4 PUSH2 0x3AAE JUMP JUMPDEST DUP5 ADD SWAP1 POP SWAP4 SWAP3 POP POP POP JUMP JUMPDEST PUSH0 PUSH2 0x425D DUP5 DUP5 DUP5 PUSH2 0x4225 JUMP JUMPDEST SWAP1 POP SWAP4 SWAP3 POP POP POP JUMP JUMPDEST PUSH0 DUP1 REVERT JUMPDEST PUSH0 DUP1 REVERT JUMPDEST PUSH0 DUP1 REVERT JUMPDEST PUSH0 DUP1 DUP4 CALLDATALOAD PUSH1 0x1 PUSH1 0x20 SUB DUP5 CALLDATASIZE SUB SUB DUP2 SLT PUSH2 0x428E JUMPI PUSH2 0x428D PUSH2 0x426E JUMP JUMPDEST JUMPDEST DUP4 DUP2 ADD SWAP3 POP DUP3 CALLDATALOAD SWAP2 POP PUSH1 0x20 DUP4 ADD SWAP3 POP PUSH8 0xFFFFFFFFFFFFFFFF DUP3 GT ISZERO PUSH2 0x42B6 JUMPI PUSH2 0x42B5 PUSH2 0x4266 JUMP JUMPDEST JUMPDEST PUSH1 0x1 DUP3 MUL CALLDATASIZE SUB DUP4 SGT ISZERO PUSH2 0x42CC JUMPI PUSH2 0x42CB PUSH2 0x426A JUMP JUMPDEST JUMPDEST POP SWAP3 POP SWAP3 SWAP1 POP JUMP JUMPDEST PUSH0 PUSH1 0x20 DUP3 ADD SWAP1 POP SWAP2 SWAP1 POP JUMP JUMPDEST PUSH0 PUSH2 0x42EB DUP4 DUP6 PUSH2 0x41FC JUMP JUMPDEST SWAP4 POP DUP4 PUSH1 0x20 DUP5 MUL DUP6 ADD PUSH2 0x42FD DUP5 PUSH2 0x420C JUMP JUMPDEST DUP1 PUSH0 JUMPDEST DUP8 DUP2 LT ISZERO PUSH2 0x4342 JUMPI DUP5 DUP5 SUB DUP10 MSTORE PUSH2 0x4317 DUP3 DUP5 PUSH2 0x4272 JUMP JUMPDEST PUSH2 0x4322 DUP7 DUP3 DUP5 PUSH2 0x4251 JUMP JUMPDEST SWAP6 POP PUSH2 0x432D DUP5 PUSH2 0x42D4 JUMP JUMPDEST SWAP4 POP PUSH1 0x20 DUP12 ADD SWAP11 POP POP POP PUSH1 0x1 DUP2 ADD SWAP1 POP PUSH2 0x4300 JUMP JUMPDEST POP DUP3 SWAP8 POP DUP8 SWAP5 POP POP POP POP POP SWAP4 SWAP3 POP POP POP JUMP JUMPDEST PUSH0 PUSH1 0x20 DUP3 ADD SWAP1 POP DUP2 DUP2 SUB PUSH0 DUP4 ADD MSTORE PUSH2 0x436D DUP2 DUP5 DUP7 PUSH2 0x42E0 JUMP JUMPDEST SWAP1 POP SWAP4 SWAP3 POP POP POP JUMP JUMPDEST PUSH0 DUP2 MLOAD SWAP1 POP PUSH2 0x4384 DUP2 PUSH2 0x37A4 JUMP JUMPDEST SWAP3 SWAP2 POP POP JUMP JUMPDEST PUSH0 PUSH1 0x20 DUP3 DUP5 SUB SLT ISZERO PUSH2 0x439F JUMPI PUSH2 0x439E PUSH2 0x370E JUMP JUMPDEST JUMPDEST PUSH0 PUSH2 0x43AC DUP5 DUP3 DUP6 ADD PUSH2 0x4376 JUMP JUMPDEST SWAP2 POP POP SWAP3 SWAP2 POP POP JUMP JUMPDEST PUSH32 0x4E487B7100000000000000000000000000000000000000000000000000000000 PUSH0 MSTORE PUSH1 0x11 PUSH1 0x4 MSTORE PUSH1 0x24 PUSH0 REVERT JUMPDEST PUSH0 PUSH2 0x43EC DUP3 PUSH2 0x379B JUMP JUMPDEST SWAP2 POP PUSH2 0x43F7 DUP4 PUSH2 0x379B JUMP JUMPDEST SWAP3 POP DUP3 DUP3 SUB SWAP1 POP DUP2 DUP2 GT ISZERO PUSH2 0x440F JUMPI PUSH2 0x440E PUSH2 0x43B5 JUMP JUMPDEST JUMPDEST SWAP3 SWAP2 POP POP JUMP JUMPDEST PUSH0 DUP2 SWAP1 POP SWAP2 SWAP1 POP JUMP JUMPDEST PUSH0 PUSH2 0x4438 PUSH2 0x4433 PUSH2 0x442E DUP5 PUSH2 0x4415 JUMP JUMPDEST PUSH2 0x38C5 JUMP JUMPDEST PUSH2 0x379B JUMP JUMPDEST SWAP1 POP SWAP2 SWAP1 POP JUMP JUMPDEST PUSH2 0x4448 DUP2 PUSH2 0x441E JUMP JUMPDEST DUP3 MSTORE POP POP JUMP JUMPDEST PUSH0 PUSH1 0x40 DUP3 ADD SWAP1 POP PUSH2 0x4461 PUSH0 DUP4 ADD DUP6 PUSH2 0x3A05 JUMP JUMPDEST PUSH2 0x446E PUSH1 0x20 DUP4 ADD DUP5 PUSH2 0x443F JUMP JUMPDEST SWAP4 SWAP3 POP POP POP JUMP JUMPDEST PUSH0 DUP1 REVERT JUMPDEST PUSH2 0x4482 DUP2 PUSH2 0x399D JUMP JUMPDEST DUP2 EQ PUSH2 0x448C JUMPI PUSH0 DUP1 REVERT JUMPDEST POP JUMP JUMPDEST PUSH0 DUP2 MLOAD SWAP1 POP PUSH2 0x449D DUP2 PUSH2 0x4479 JUMP JUMPDEST SWAP3 SWAP2 POP POP JUMP JUMPDEST PUSH0 PUSH8 0xFFFFFFFFFFFFFFFF DUP3 AND SWAP1 POP SWAP2 SWAP1 POP JUMP JUMPDEST PUSH2 0x44BF DUP2 PUSH2 0x44A3 JUMP JUMPDEST DUP2 EQ PUSH2 0x44C9 JUMPI PUSH0 DUP1 REVERT JUMPDEST POP JUMP JUMPDEST PUSH0 DUP2 MLOAD SWAP1 POP PUSH2 0x44DA DUP2 PUSH2 0x44B6 JUMP JUMPDEST SWAP3 SWAP2 POP POP JUMP JUMPDEST PUSH0 DUP2 PUSH1 0x3 SIGNEXTEND SWAP1 POP SWAP2 SWAP1 POP JUMP JUMPDEST PUSH2 0x44F5 DUP2 PUSH2 0x44E0 JUMP JUMPDEST DUP2 EQ PUSH2 0x44FF JUMPI PUSH0 DUP1 REVERT JUMPDEST POP JUMP JUMPDEST PUSH0 DUP2 MLOAD SWAP1 POP PUSH2 0x4510 DUP2 PUSH2 0x44EC JUMP JUMPDEST SWAP3 SWAP2 POP POP JUMP JUMPDEST PUSH0 PUSH1 0x80 DUP3 DUP5 SUB SLT ISZERO PUSH2 0x452B JUMPI PUSH2 0x452A PUSH2 0x4475 JUMP JUMPDEST JUMPDEST PUSH2 0x4535 PUSH1 0x80 PUSH2 0x3B1C JUMP JUMPDEST SWAP1 POP PUSH0 PUSH2 0x4544 DUP5 DUP3 DUP6 ADD PUSH2 0x448F JUMP JUMPDEST PUSH0 DUP4 ADD MSTORE POP PUSH1 0x20 PUSH2 0x4557 DUP5 DUP3 DUP6 ADD PUSH2 0x44CC JUMP JUMPDEST PUSH1 0x20 DUP4 ADD MSTORE POP PUSH1 0x40 PUSH2 0x456B DUP5 DUP3 DUP6 ADD PUSH2 0x4502 JUMP JUMPDEST PUSH1 0x40 DUP4 ADD MSTORE POP PUSH1 0x60 PUSH2 0x457F DUP5 DUP3 DUP6 ADD PUSH2 0x4376 JUMP JUMPDEST PUSH1 0x60 DUP4 ADD MSTORE POP SWAP3 SWAP2 POP POP JUMP JUMPDEST PUSH0 PUSH1 0x80 DUP3 DUP5 SUB SLT ISZERO PUSH2 0x45A0 JUMPI PUSH2 0x459F PUSH2 0x370E JUMP JUMPDEST JUMPDEST PUSH0 PUSH2 0x45AD DUP5 DUP3 DUP6 ADD PUSH2 0x4516 JUMP JUMPDEST SWAP2 POP POP SWAP3 SWAP2 POP POP JUMP JUMPDEST PUSH0 PUSH2 0x45C0 DUP3 PUSH2 0x44E0 JUMP JUMPDEST SWAP2 POP PUSH32 0xFFFFFFFFFFFFFFFFFFFFFFFFFFFFFFFFFFFFFFFFFFFFFFFFFFFFFFFF80000000 DUP3 SUB PUSH2 0x45F2 JUMPI PUSH2 0x45F1 PUSH2 0x43B5 JUMP JUMPDEST JUMPDEST DUP2 PUSH0 SUB SWAP1 POP SWAP2 SWAP1 POP JUMP JUMPDEST PUSH0 DUP2 PUSH1 0x1 SHR SWAP1 POP SWAP2 SWAP1 POP JUMP JUMPDEST PUSH0 DUP1 DUP3 SWAP2 POP DUP4 SWAP1 POP JUMPDEST PUSH1 0x1 DUP6 GT ISZERO PUSH2 0x4651 JUMPI DUP1 DUP7 DIV DUP2 GT ISZERO PUSH2 0x462D JUMPI PUSH2 0x462C PUSH2 0x43B5 JUMP JUMPDEST JUMPDEST PUSH1 0x1 DUP6 AND ISZERO PUSH2 0x463C JUMPI DUP1 DUP3 MUL SWAP2 POP JUMPDEST DUP1 DUP2 MUL SWAP1 POP PUSH2 0x464A DUP6 PUSH2 0x45FC JUMP JUMPDEST SWAP5 POP PUSH2 0x4611 JUMP JUMPDEST SWAP5 POP SWAP5 SWAP3 POP POP POP JUMP JUMPDEST PUSH0 DUP3 PUSH2 0x4669 JUMPI PUSH1 0x1 SWAP1 POP PUSH2 0x4724 JUMP JUMPDEST DUP2 PUSH2 0x4676 JUMPI PUSH0 SWAP1 POP PUSH2 0x4724 JUMP JUMPDEST DUP2 PUSH1 0x1 DUP2 EQ PUSH2 0x468C JUMPI PUSH1 0x2 DUP2 EQ PUSH2 0x4696 JUMPI PUSH2 0x46C5 JUMP JUMPDEST PUSH1 0x1 SWAP2 POP POP PUSH2 0x4724 JUMP JUMPDEST PUSH1 0xFF DUP5 GT ISZERO PUSH2 0x46A8 JUMPI PUSH2 0x46A7 PUSH2 0x43B5 JUMP JUMPDEST JUMPDEST DUP4 PUSH1 0x2 EXP SWAP2 POP DUP5 DUP3 GT ISZERO PUSH2 0x46BF JUMPI PUSH2 0x46BE PUSH2 0x43B5 JUMP JUMPDEST JUMPDEST POP PUSH2 0x4724 JUMP JUMPDEST POP PUSH1 0x20 DUP4 LT PUSH2 0x133 DUP4 LT AND PUSH1 0x4E DUP5 LT PUSH1 0xB DUP5 LT AND OR ISZERO PUSH2 0x46FA JUMPI DUP3 DUP3 EXP SWAP1 POP DUP4 DUP2 GT ISZERO PUSH2 0x46F5 JUMPI PUSH2 0x46F4 PUSH2 0x43B5 JUMP JUMPDEST JUMPDEST PUSH2 0x4724 JUMP JUMPDEST PUSH2 0x4707 DUP5 DUP5 DUP5 PUSH1 0x1 PUSH2 0x4608 JUMP JUMPDEST SWAP3 POP SWAP1 POP DUP2 DUP5 DIV DUP2 GT ISZERO PUSH2 0x471E JUMPI PUSH2 0x471D PUSH2 0x43B5 JUMP JUMPDEST JUMPDEST DUP2 DUP2 MUL SWAP1 POP JUMPDEST SWAP4 SWAP3 POP POP POP JUMP JUMPDEST PUSH0 PUSH2 0x4735 DUP3 PUSH2 0x379B JUMP JUMPDEST SWAP2 POP PUSH2 0x4740 DUP4 PUSH2 0x379B JUMP JUMPDEST SWAP3 POP PUSH2 0x476D PUSH32 0xFFFFFFFFFFFFFFFFFFFFFFFFFFFFFFFFFFFFFFFFFFFFFFFFFFFFFFFFFFFFFFFF DUP5 DUP5 PUSH2 0x465A JUMP JUMPDEST SWAP1 POP SWAP3 SWAP2 POP POP JUMP JUMPDEST PUSH32 0x4E487B7100000000000000000000000000000000000000000000000000000000 PUSH0 MSTORE PUSH1 0x12 PUSH1 0x4 MSTORE PUSH1 0x24 PUSH0 REVERT JUMPDEST PUSH0 PUSH2 0x47AC DUP3 PUSH2 0x379B JUMP JUMPDEST SWAP2 POP PUSH2 0x47B7 DUP4 PUSH2 0x379B JUMP JUMPDEST SWAP3 POP DUP3 PUSH2 0x47C7 JUMPI PUSH2 0x47C6 PUSH2 0x4775 JUMP JUMPDEST JUMPDEST DUP3 DUP3 DIV SWAP1 POP SWAP3 SWAP2 POP POP JUMP JUMPDEST PUSH0 PUSH2 0x47DC DUP3 PUSH2 0x379B JUMP JUMPDEST SWAP2 POP PUSH2 0x47E7 DUP4 PUSH2 0x379B JUMP JUMPDEST SWAP3 POP DUP3 DUP3 MUL PUSH2 0x47F5 DUP2 PUSH2 0x379B JUMP JUMPDEST SWAP2 POP DUP3 DUP3 DIV DUP5 EQ DUP4 ISZERO OR PUSH2 0x480C JUMPI PUSH2 0x480B PUSH2 0x43B5 JUMP JUMPDEST JUMPDEST POP SWAP3 SWAP2 POP POP JUMP JUMPDEST PUSH32 0x546F6B656E2076616C756520756E646572203120555344000000000000000000 PUSH0 DUP3 ADD MSTORE POP JUMP JUMPDEST PUSH0 PUSH2 0x4847 PUSH1 0x17 DUP4 PUSH2 0x3FBE JUMP JUMPDEST SWAP2 POP PUSH2 0x4852 DUP3 PUSH2 0x4813 JUMP JUMPDEST PUSH1 0x20 DUP3 ADD SWAP1 POP SWAP2 SWAP1 POP JUMP JUMPDEST PUSH0 PUSH1 0x20 DUP3 ADD SWAP1 POP DUP2 DUP2 SUB PUSH0 DUP4 ADD MSTORE PUSH2 0x4874 DUP2 PUSH2 0x483B JUMP JUMPDEST SWAP1 POP SWAP2 SWAP1 POP JUMP JUMPDEST PUSH0 PUSH1 0x40 DUP3 ADD SWAP1 POP DUP2 DUP2 SUB PUSH0 DUP4 ADD MSTORE PUSH2 0x4893 DUP2 DUP6 PUSH2 0x3C7C JUMP JUMPDEST SWAP1 POP PUSH2 0x48A2 PUSH1 0x20 DUP4 ADD DUP5 PUSH2 0x3A2D JUMP JUMPDEST SWAP4 SWAP3 POP POP POP JUMP JUMPDEST PUSH0 PUSH8 0xFFFFFFFFFFFFFFFF DUP3 GT ISZERO PUSH2 0x48C3 JUMPI PUSH2 0x48C2 PUSH2 0x3ABE JUMP JUMPDEST JUMPDEST PUSH1 0x20 DUP3 MUL SWAP1 POP PUSH1 0x20 DUP2 ADD SWAP1 POP SWAP2 SWAP1 POP JUMP JUMPDEST PUSH2 0x48DD DUP2 PUSH2 0x3716 JUMP JUMPDEST DUP2 EQ PUSH2 0x48E7 JUMPI PUSH0 DUP1 REVERT JUMPDEST POP JUMP JUMPDEST PUSH0 DUP2 MLOAD SWAP1 POP PUSH2 0x48F8 DUP2 PUSH2 0x48D4 JUMP JUMPDEST SWAP3 SWAP2 POP POP JUMP JUMPDEST PUSH0 PUSH2 0x4910 PUSH2 0x490B DUP5 PUSH2 0x48A9 JUMP JUMPDEST PUSH2 0x3B1C JUMP JUMPDEST SWAP1 POP DUP1 DUP4 DUP3 MSTORE PUSH1 0x20 DUP3 ADD SWAP1 POP PUSH1 0x20 DUP5 MUL DUP4 ADD DUP6 DUP2 GT ISZERO PUSH2 0x4933 JUMPI PUSH2 0x4932 PUSH2 0x37D6 JUMP JUMPDEST JUMPDEST DUP4 JUMPDEST DUP2 DUP2 LT ISZERO PUSH2 0x495C JUMPI DUP1 PUSH2 0x4948 DUP9 DUP3 PUSH2 0x48EA JUMP JUMPDEST DUP5 MSTORE PUSH1 0x20 DUP5 ADD SWAP4 POP POP PUSH1 0x20 DUP2 ADD SWAP1 POP PUSH2 0x4935 JUMP JUMPDEST POP POP POP SWAP4 SWAP3 POP POP POP JUMP JUMPDEST PUSH0 DUP3 PUSH1 0x1F DUP4 ADD SLT PUSH2 0x497A JUMPI PUSH2 0x4979 PUSH2 0x37CE JUMP JUMPDEST JUMPDEST DUP2 MLOAD PUSH2 0x498A DUP5 DUP3 PUSH1 0x20 DUP7 ADD PUSH2 0x48FE JUMP JUMPDEST SWAP2 POP POP SWAP3 SWAP2 POP POP JUMP JUMPDEST PUSH0 PUSH8 0xFFFFFFFFFFFFFFFF DUP3 GT ISZERO PUSH2 0x49AD JUMPI PUSH2 0x49AC PUSH2 0x3ABE JUMP JUMPDEST JUMPDEST PUSH1 0x20 DUP3 MUL SWAP1 POP PUSH1 0x20 DUP2 ADD SWAP1 POP SWAP2 SWAP1 POP JUMP JUMPDEST PUSH0 PUSH4 0xFFFFFFFF DUP3 AND SWAP1 POP SWAP2 SWAP1 POP JUMP JUMPDEST PUSH2 0x49D6 DUP2 PUSH2 0x49BE JUMP JUMPDEST DUP2 EQ PUSH2 0x49E0 JUMPI PUSH0 DUP1 REVERT JUMPDEST POP JUMP JUMPDEST PUSH0 DUP2 MLOAD SWAP1 POP PUSH2 0x49F1 DUP2 PUSH2 0x49CD JUMP JUMPDEST SWAP3 SWAP2 POP POP JUMP JUMPDEST PUSH0 PUSH2 0x4A09 PUSH2 0x4A04 DUP5 PUSH2 0x4993 JUMP JUMPDEST PUSH2 0x3B1C JUMP JUMPDEST SWAP1 POP DUP1 DUP4 DUP3 MSTORE PUSH1 0x20 DUP3 ADD SWAP1 POP PUSH1 0x20 DUP5 MUL DUP4 ADD DUP6 DUP2 GT ISZERO PUSH2 0x4A2C JUMPI PUSH2 0x4A2B PUSH2 0x37D6 JUMP JUMPDEST JUMPDEST DUP4 JUMPDEST DUP2 DUP2 LT ISZERO PUSH2 0x4A55 JUMPI DUP1 PUSH2 0x4A41 DUP9 DUP3 PUSH2 0x49E3 JUMP JUMPDEST DUP5 MSTORE PUSH1 0x20 DUP5 ADD SWAP4 POP POP PUSH1 0x20 DUP2 ADD SWAP1 POP PUSH2 0x4A2E JUMP JUMPDEST POP POP POP SWAP4 SWAP3 POP POP POP JUMP JUMPDEST PUSH0 DUP3 PUSH1 0x1F DUP4 ADD SLT PUSH2 0x4A73 JUMPI PUSH2 0x4A72 PUSH2 0x37CE JUMP JUMPDEST JUMPDEST DUP2 MLOAD PUSH2 0x4A83 DUP5 DUP3 PUSH1 0x20 DUP7 ADD PUSH2 0x49F7 JUMP JUMPDEST SWAP2 POP POP SWAP3 SWAP2 POP POP JUMP JUMPDEST PUSH0 DUP1 PUSH0 DUP1 PUSH1 0x80 DUP6 DUP8 SUB SLT ISZERO PUSH2 0x4AA4 JUMPI PUSH2 0x4AA3 PUSH2 0x370E JUMP JUMPDEST JUMPDEST PUSH0 PUSH2 0x4AB1 DUP8 DUP3 DUP9 ADD PUSH2 0x4376 JUMP JUMPDEST SWAP5 POP POP PUSH1 0x20 DUP6 ADD MLOAD PUSH8 0xFFFFFFFFFFFFFFFF DUP2 GT ISZERO PUSH2 0x4AD2 JUMPI PUSH2 0x4AD1 PUSH2 0x3712 JUMP JUMPDEST JUMPDEST PUSH2 0x4ADE DUP8 DUP3 DUP9 ADD PUSH2 0x4966 JUMP JUMPDEST SWAP4 POP POP PUSH1 0x40 DUP6 ADD MLOAD PUSH8 0xFFFFFFFFFFFFFFFF DUP2 GT ISZERO PUSH2 0x4AFF JUMPI PUSH2 0x4AFE PUSH2 0x3712 JUMP JUMPDEST JUMPDEST PUSH2 0x4B0B DUP8 DUP3 DUP9 ADD PUSH2 0x4A5F JUMP JUMPDEST SWAP3 POP POP PUSH1 0x60 PUSH2 0x4B1C DUP8 DUP3 DUP9 ADD PUSH2 0x4376 JUMP JUMPDEST SWAP2 POP POP SWAP3 SWAP6 SWAP2 SWAP5 POP SWAP3 POP JUMP JUMPDEST PUSH32 0x546F6B656E207472616E73666572206661696C65640000000000000000000000 PUSH0 DUP3 ADD MSTORE POP JUMP JUMPDEST PUSH0 PUSH2 0x4B5C PUSH1 0x15 DUP4 PUSH2 0x3FBE JUMP JUMPDEST SWAP2 POP PUSH2 0x4B67 DUP3 PUSH2 0x4B28 JUMP JUMPDEST PUSH1 0x20 DUP3 ADD SWAP1 POP SWAP2 SWAP1 POP JUMP JUMPDEST PUSH0 PUSH1 0x20 DUP3 ADD SWAP1 POP DUP2 DUP2 SUB PUSH0 DUP4 ADD MSTORE PUSH2 0x4B89 DUP2 PUSH2 0x4B50 JUMP JUMPDEST SWAP1 POP SWAP2 SWAP1 POP JUMP JUMPDEST PUSH0 PUSH2 0x4B9A DUP3 PUSH2 0x379B JUMP JUMPDEST SWAP2 POP PUSH2 0x4BA5 DUP4 PUSH2 0x379B JUMP JUMPDEST SWAP3 POP DUP3 DUP3 ADD SWAP1 POP DUP1 DUP3 GT ISZERO PUSH2 0x4BBD JUMPI PUSH2 0x4BBC PUSH2 0x43B5 JUMP JUMPDEST JUMPDEST SWAP3 SWAP2 POP POP JUMP JUMPDEST PUSH0 PUSH1 0xA0 DUP3 ADD SWAP1 POP PUSH2 0x4BD6 PUSH0 DUP4 ADD DUP9 PUSH2 0x3A2D JUMP JUMPDEST PUSH2 0x4BE3 PUSH1 0x20 DUP4 ADD DUP8 PUSH2 0x3A2D JUMP JUMPDEST PUSH2 0x4BF0 PUSH1 0x40 DUP4 ADD DUP7 PUSH2 0x3A2D JUMP JUMPDEST PUSH2 0x4BFD PUSH1 0x60 DUP4 ADD DUP6 PUSH2 0x3A2D JUMP JUMPDEST PUSH2 0x4C0A PUSH1 0x80 DUP4 ADD DUP5 PUSH2 0x3CE2 JUMP JUMPDEST SWAP7 SWAP6 POP POP POP POP POP POP JUMP JUMPDEST PUSH0 PUSH1 0x80 DUP3 ADD SWAP1 POP PUSH2 0x4C27 PUSH0 DUP4 ADD DUP8 PUSH2 0x3CE2 JUMP JUMPDEST PUSH2 0x4C34 PUSH1 0x20 DUP4 ADD DUP7 PUSH2 0x3CE2 JUMP JUMPDEST PUSH2 0x4C41 PUSH1 0x40 DUP4 ADD DUP6 PUSH2 0x3CE2 JUMP JUMPDEST PUSH2 0x4C4E PUSH1 0x60 DUP4 ADD DUP5 PUSH2 0x3A2D JUMP JUMPDEST SWAP6 SWAP5 POP POP POP POP POP JUMP JUMPDEST PUSH0 DUP2 SWAP1 POP SWAP3 SWAP2 POP POP JUMP JUMPDEST PUSH0 PUSH2 0x4C6B DUP3 PUSH2 0x3C54 JUMP JUMPDEST PUSH2 0x4C75 DUP2 DUP6 PUSH2 0x4C57 JUMP JUMPDEST SWAP4 POP PUSH2 0x4C85 DUP2 DUP6 PUSH1 0x20 DUP7 ADD PUSH2 0x3C6E JUMP JUMPDEST DUP1 DUP5 ADD SWAP2 POP POP SWAP3 SWAP2 POP POP JUMP JUMPDEST PUSH0 PUSH2 0x4C9C DUP3 DUP5 PUSH2 0x4C61 JUMP JUMPDEST SWAP2 POP DUP2 SWAP1 POP SWAP3 SWAP2 POP POP JUMP JUMPDEST PUSH0 PUSH1 0x20 DUP3 DUP5 SUB SLT ISZERO PUSH2 0x4CBC JUMPI PUSH2 0x4CBB PUSH2 0x370E JUMP JUMPDEST JUMPDEST PUSH0 PUSH2 0x4CC9 DUP5 DUP3 DUP6 ADD PUSH2 0x4502 JUMP JUMPDEST SWAP2 POP POP SWAP3 SWAP2 POP POP JUMP JUMPDEST PUSH32 0x4173736F6369617465204661696C656400000000000000000000000000000000 PUSH0 DUP3 ADD MSTORE POP JUMP JUMPDEST PUSH0 PUSH2 0x4D06 PUSH1 0x10 DUP4 PUSH2 0x3FBE JUMP JUMPDEST SWAP2 POP PUSH2 0x4D11 DUP3 PUSH2 0x4CD2 JUMP JUMPDEST PUSH1 0x20 DUP3 ADD SWAP1 POP SWAP2 SWAP1 POP JUMP JUMPDEST PUSH0 PUSH1 0x20 DUP3 ADD SWAP1 POP DUP2 DUP2 SUB PUSH0 DUP4 ADD MSTORE PUSH2 0x4D33 DUP2 PUSH2 0x4CFA JUMP JUMPDEST SWAP1 POP SWAP2 SWAP1 POP JUMP JUMPDEST PUSH32 0x496E76616C696420696E64657800000000000000000000000000000000000000 PUSH0 DUP3 ADD MSTORE POP JUMP JUMPDEST PUSH0 PUSH2 0x4D6E PUSH1 0xD DUP4 PUSH2 0x3FBE JUMP JUMPDEST SWAP2 POP PUSH2 0x4D79 DUP3 PUSH2 0x4D3A JUMP JUMPDEST PUSH1 0x20 DUP3 ADD SWAP1 POP SWAP2 SWAP1 POP JUMP JUMPDEST PUSH0 PUSH1 0x20 DUP3 ADD SWAP1 POP DUP2 DUP2 SUB PUSH0 DUP4 ADD MSTORE PUSH2 0x4D9B DUP2 PUSH2 0x4D62 JUMP JUMPDEST SWAP1 POP SWAP2 SWAP1 POP JUMP JUMPDEST PUSH32 0x4E487B7100000000000000000000000000000000000000000000000000000000 PUSH0 MSTORE PUSH1 0x32 PUSH1 0x4 MSTORE PUSH1 0x24 PUSH0 REVERT JUMPDEST PUSH32 0x416C72656164792077697468647261776E000000000000000000000000000000 PUSH0 DUP3 ADD MSTORE POP JUMP JUMPDEST PUSH0 PUSH2 0x4E03 PUSH1 0x11 DUP4 PUSH2 0x3FBE JUMP JUMPDEST SWAP2 POP PUSH2 0x4E0E DUP3 PUSH2 0x4DCF JUMP JUMPDEST PUSH1 0x20 DUP3 ADD SWAP1 POP SWAP2 SWAP1 POP JUMP JUMPDEST PUSH0 PUSH1 0x20 DUP3 ADD SWAP1 POP DUP2 DUP2 SUB PUSH0 DUP4 ADD MSTORE PUSH2 0x4E30 DUP2 PUSH2 0x4DF7 JUMP JUMPDEST SWAP1 POP SWAP2 SWAP1 POP JUMP JUMPDEST PUSH32 0x496E73756666696369656E7420636F6E74726163742062616C616E6365000000 PUSH0 DUP3 ADD MSTORE POP JUMP JUMPDEST PUSH0 PUSH2 0x4E6B PUSH1 0x1D DUP4 PUSH2 0x3FBE JUMP JUMPDEST SWAP2 POP PUSH2 0x4E76 DUP3 PUSH2 0x4E37 JUMP JUMPDEST PUSH1 0x20 DUP3 ADD SWAP1 POP SWAP2 SWAP1 POP JUMP JUMPDEST PUSH0 PUSH1 0x20 DUP3 ADD SWAP1 POP DUP2 DUP2 SUB PUSH0 DUP4 ADD MSTORE PUSH2 0x4E98 DUP2 PUSH2 0x4E5F JUMP JUMPDEST SWAP1 POP SWAP2 SWAP1 POP JUMP JUMPDEST POP JUMP JUMPDEST PUSH0 PUSH2 0x4EAD PUSH0 DUP4 PUSH2 0x4C57 JUMP JUMPDEST SWAP2 POP PUSH2 0x4EB8 DUP3 PUSH2 0x4E9F JUMP JUMPDEST PUSH0 DUP3 ADD SWAP1 POP SWAP2 SWAP1 POP JUMP JUMPDEST PUSH0 PUSH2 0x4ECC DUP3 PUSH2 0x4EA2 JUMP JUMPDEST SWAP2 POP DUP2 SWAP1 POP SWAP2 SWAP1 POP JUMP JUMPDEST PUSH32 0x4661696C656420746F2073656E64204842415200000000000000000000000000 PUSH0 DUP3 ADD MSTORE POP JUMP JUMPDEST PUSH0 PUSH2 0x4F0A PUSH1 0x13 DUP4 PUSH2 0x3FBE JUMP JUMPDEST SWAP2 POP PUSH2 0x4F15 DUP3 PUSH2 0x4ED6 JUMP JUMPDEST PUSH1 0x20 DUP3 ADD SWAP1 POP SWAP2 SWAP1 POP JUMP JUMPDEST PUSH0 PUSH1 0x20 DUP3 ADD SWAP1 POP DUP2 DUP2 SUB PUSH0 DUP4 ADD MSTORE PUSH2 0x4F37 DUP2 PUSH2 0x4EFE JUMP JUMPDEST SWAP1 POP SWAP2 SWAP1 POP JUMP JUMPDEST PUSH32 0x546F6B656E207472616E73666572206261636B206661696C6564000000000000 PUSH0 DUP3 ADD MSTORE POP JUMP JUMPDEST PUSH0 PUSH2 0x4F72 PUSH1 0x1A DUP4 PUSH2 0x3FBE JUMP JUMPDEST SWAP2 POP PUSH2 0x4F7D DUP3 PUSH2 0x4F3E JUMP JUMPDEST PUSH1 0x20 DUP3 ADD SWAP1 POP SWAP2 SWAP1 POP JUMP JUMPDEST PUSH0 PUSH1 0x20 DUP3 ADD SWAP1 POP DUP2 DUP2 SUB PUSH0 DUP4 ADD MSTORE PUSH2 0x4F9F DUP2 PUSH2 0x4F66 JUMP JUMPDEST SWAP1 POP SWAP2 SWAP1 POP JUMP JUMPDEST PUSH32 0x4661696C656420746F20617070726F766520746F6B656E7320666F7220726F75 PUSH0 DUP3 ADD MSTORE PUSH32 0x7465720000000000000000000000000000000000000000000000000000000000 PUSH1 0x20 DUP3 ADD MSTORE POP JUMP JUMPDEST PUSH0 PUSH2 0x5000 PUSH1 0x23 DUP4 PUSH2 0x3FBE JUMP JUMPDEST SWAP2 POP PUSH2 0x500B DUP3 PUSH2 0x4FA6 JUMP JUMPDEST PUSH1 0x40 DUP3 ADD SWAP1 POP SWAP2 SWAP1 POP JUMP JUMPDEST PUSH0 PUSH1 0x20 DUP3 ADD SWAP1 POP DUP2 DUP2 SUB PUSH0 DUP4 ADD MSTORE PUSH2 0x502D DUP2 PUSH2 0x4FF4 JUMP JUMPDEST SWAP1 POP SWAP2 SWAP1 POP JUMP JUMPDEST PUSH0 PUSH2 0x503E DUP3 PUSH2 0x3C54 JUMP JUMPDEST PUSH2 0x5048 DUP2 DUP6 PUSH2 0x4215 JUMP JUMPDEST SWAP4 POP PUSH2 0x5058 DUP2 DUP6 PUSH1 0x20 DUP7 ADD PUSH2 0x3C6E JUMP JUMPDEST PUSH2 0x5061 DUP2 PUSH2 0x3AAE JUMP JUMPDEST DUP5 ADD SWAP2 POP POP SWAP3 SWAP2 POP POP JUMP JUMPDEST PUSH2 0x5075 DUP2 PUSH2 0x3735 JUMP JUMPDEST DUP3 MSTORE POP POP JUMP JUMPDEST PUSH2 0x5084 DUP2 PUSH2 0x379B JUMP JUMPDEST DUP3 MSTORE POP POP JUMP JUMPDEST PUSH0 PUSH1 0xA0 DUP4 ADD PUSH0 DUP4 ADD MLOAD DUP5 DUP3 SUB PUSH0 DUP7 ADD MSTORE PUSH2 0x50A4 DUP3 DUP3 PUSH2 0x5034 JUMP JUMPDEST SWAP2 POP POP PUSH1 0x20 DUP4 ADD MLOAD PUSH2 0x50B9 PUSH1 0x20 DUP7 ADD DUP3 PUSH2 0x506C JUMP JUMPDEST POP PUSH1 0x40 DUP4 ADD MLOAD PUSH2 0x50CC PUSH1 0x40 DUP7 ADD DUP3 PUSH2 0x507B JUMP JUMPDEST POP PUSH1 0x60 DUP4 ADD MLOAD PUSH2 0x50DF PUSH1 0x60 DUP7 ADD DUP3 PUSH2 0x507B JUMP JUMPDEST POP PUSH1 0x80 DUP4 ADD MLOAD PUSH2 0x50F2 PUSH1 0x80 DUP7 ADD DUP3 PUSH2 0x507B JUMP JUMPDEST POP DUP1 SWAP2 POP POP SWAP3 SWAP2 POP POP JUMP JUMPDEST PUSH0 PUSH1 0x20 DUP3 ADD SWAP1 POP DUP2 DUP2 SUB PUSH0 DUP4 ADD MSTORE PUSH2 0x5115 DUP2 DUP5 PUSH2 0x508A JUMP JUMPDEST SWAP1 POP SWAP3 SWAP2 POP POP JUMP JUMPDEST PUSH0 PUSH1 0x40 DUP3 ADD SWAP1 POP PUSH2 0x5130 PUSH0 DUP4 ADD DUP6 PUSH2 0x3A2D JUMP JUMPDEST PUSH2 0x513D PUSH1 0x20 DUP4 ADD DUP5 PUSH2 0x3CE2 JUMP JUMPDEST SWAP4 SWAP3 POP POP POP JUMP JUMPDEST PUSH0 DUP2 MLOAD SWAP1 POP SWAP2 SWAP1 POP JUMP JUMPDEST PUSH0 DUP2 SWAP1 POP PUSH1 0x20 DUP3 ADD SWAP1 POP SWAP2 SWAP1 POP JUMP JUMPDEST PUSH0 PUSH2 0x5168 DUP4 DUP4 PUSH2 0x5034 JUMP JUMPDEST SWAP1 POP SWAP3 SWAP2 POP POP JUMP JUMPDEST PUSH0 PUSH1 0x20 DUP3 ADD SWAP1 POP SWAP2 SWAP1 POP JUMP JUMPDEST PUSH0 PUSH2 0x5186 DUP3 PUSH2 0x5144 JUMP JUMPDEST PUSH2 0x5190 DUP2 DUP6 PUSH2 0x41FC JUMP JUMPDEST SWAP4 POP DUP4 PUSH1 0x20 DUP3 MUL DUP6 ADD PUSH2 0x51A2 DUP6 PUSH2 0x514E JUMP JUMPDEST DUP1 PUSH0 JUMPDEST DUP6 DUP2 LT ISZERO PUSH2 0x51DD JUMPI DUP5 DUP5 SUB DUP10 MSTORE DUP2 MLOAD PUSH2 0x51BE DUP6 DUP3 PUSH2 0x515D JUMP JUMPDEST SWAP5 POP PUSH2 0x51C9 DUP4 PUSH2 0x5170 JUMP JUMPDEST SWAP3 POP PUSH1 0x20 DUP11 ADD SWAP10 POP POP PUSH1 0x1 DUP2 ADD SWAP1 POP PUSH2 0x51A5 JUMP JUMPDEST POP DUP3 SWAP8 POP DUP8 SWAP6 POP POP POP POP POP POP SWAP3 SWAP2 POP POP JUMP JUMPDEST PUSH0 PUSH1 0x20 DUP3 ADD SWAP1 POP DUP2 DUP2 SUB PUSH0 DUP4 ADD MSTORE PUSH2 0x5207 DUP2 DUP5 PUSH2 0x517C JUMP JUMPDEST SWAP1 POP SWAP3 SWAP2 POP POP JUMP JUMPDEST PUSH0 PUSH8 0xFFFFFFFFFFFFFFFF DUP3 GT ISZERO PUSH2 0x5229 JUMPI PUSH2 0x5228 PUSH2 0x3ABE JUMP JUMPDEST JUMPDEST PUSH1 0x20 DUP3 MUL SWAP1 POP PUSH1 0x20 DUP2 ADD SWAP1 POP SWAP2 SWAP1 POP JUMP JUMPDEST PUSH0 PUSH2 0x524C PUSH2 0x5247 DUP5 PUSH2 0x3B36 JUMP JUMPDEST PUSH2 0x3B1C JUMP JUMPDEST SWAP1 POP DUP3 DUP2 MSTORE PUSH1 0x20 DUP2 ADD DUP5 DUP5 DUP5 ADD GT ISZERO PUSH2 0x5268 JUMPI PUSH2 0x5267 PUSH2 0x3AAA JUMP JUMPDEST JUMPDEST PUSH2 0x5273 DUP5 DUP3 DUP6 PUSH2 0x3C6E JUMP JUMPDEST POP SWAP4 SWAP3 POP POP POP JUMP JUMPDEST PUSH0 DUP3 PUSH1 0x1F DUP4 ADD SLT PUSH2 0x528F JUMPI PUSH2 0x528E PUSH2 0x37CE JUMP JUMPDEST JUMPDEST DUP2 MLOAD PUSH2 0x529F DUP5 DUP3 PUSH1 0x20 DUP7 ADD PUSH2 0x523A JUMP JUMPDEST SWAP2 POP POP SWAP3 SWAP2 POP POP JUMP JUMPDEST PUSH0 PUSH2 0x52BA PUSH2 0x52B5 DUP5 PUSH2 0x520F JUMP JUMPDEST PUSH2 0x3B1C JUMP JUMPDEST SWAP1 POP DUP1 DUP4 DUP3 MSTORE PUSH1 0x20 DUP3 ADD SWAP1 POP PUSH1 0x20 DUP5 MUL DUP4 ADD DUP6 DUP2 GT ISZERO PUSH2 0x52DD JUMPI PUSH2 0x52DC PUSH2 0x37D6 JUMP JUMPDEST JUMPDEST DUP4 JUMPDEST DUP2 DUP2 LT ISZERO PUSH2 0x5324 JUMPI DUP1 MLOAD PUSH8 0xFFFFFFFFFFFFFFFF DUP2 GT ISZERO PUSH2 0x5302 JUMPI PUSH2 0x5301 PUSH2 0x37CE JUMP JUMPDEST JUMPDEST DUP1 DUP7 ADD PUSH2 0x530F DUP10 DUP3 PUSH2 0x527B JUMP JUMPDEST DUP6 MSTORE PUSH1 0x20 DUP6 ADD SWAP5 POP POP POP PUSH1 0x20 DUP2 ADD SWAP1 POP PUSH2 0x52DF JUMP JUMPDEST POP POP POP SWAP4 SWAP3 POP POP POP JUMP JUMPDEST PUSH0 DUP3 PUSH1 0x1F DUP4 ADD SLT PUSH2 0x5342 JUMPI PUSH2 0x5341 PUSH2 0x37CE JUMP JUMPDEST JUMPDEST DUP2 MLOAD PUSH2 0x5352 DUP5 DUP3 PUSH1 0x20 DUP7 ADD PUSH2 0x52A8 JUMP JUMPDEST SWAP2 POP POP SWAP3 SWAP2 POP POP JUMP JUMPDEST PUSH0 PUSH1 0x20 DUP3 DUP5 SUB SLT ISZERO PUSH2 0x5370 JUMPI PUSH2 0x536F PUSH2 0x370E JUMP JUMPDEST JUMPDEST PUSH0 DUP3 ADD MLOAD PUSH8 0xFFFFFFFFFFFFFFFF DUP2 GT ISZERO PUSH2 0x538D JUMPI PUSH2 0x538C PUSH2 0x3712 JUMP JUMPDEST JUMPDEST PUSH2 0x5399 DUP5 DUP3 DUP6 ADD PUSH2 0x532E JUMP JUMPDEST SWAP2 POP POP SWAP3 SWAP2 POP POP JUMP JUMPDEST PUSH0 PUSH1 0x80 DUP3 ADD SWAP1 POP PUSH2 0x53B5 PUSH0 DUP4 ADD DUP8 PUSH2 0x3A2D JUMP JUMPDEST PUSH2 0x53C2 PUSH1 0x20 DUP4 ADD DUP7 PUSH2 0x3A2D JUMP JUMPDEST PUSH2 0x53CF PUSH1 0x40 DUP4 ADD DUP6 PUSH2 0x3E5F JUMP JUMPDEST PUSH2 0x53DC PUSH1 0x60 DUP4 ADD DUP5 PUSH2 0x3A2D JUMP JUMPDEST SWAP6 SWAP5 POP POP POP POP POP JUMP JUMPDEST PUSH32 0x4E487B7100000000000000000000000000000000000000000000000000000000 PUSH0 MSTORE PUSH1 0x31 PUSH1 0x4 MSTORE PUSH1 0x24 PUSH0 REVERT JUMPDEST PUSH32 0x45706F6368206475726174696F6E206D757374206265203E2030000000000000 PUSH0 DUP3 ADD MSTORE POP JUMP JUMPDEST PUSH0 PUSH2 0x5446 PUSH1 0x1A DUP4 PUSH2 0x3FBE JUMP JUMPDEST SWAP2 POP PUSH2 0x5451 DUP3 PUSH2 0x5412 JUMP JUMPDEST PUSH1 0x20 DUP3 ADD SWAP1 POP SWAP2 SWAP1 POP JUMP JUMPDEST PUSH0 PUSH1 0x20 DUP3 ADD SWAP1 POP DUP2 DUP2 SUB PUSH0 DUP4 ADD MSTORE PUSH2 0x5473 DUP2 PUSH2 0x543A JUMP JUMPDEST SWAP1 POP SWAP2 SWAP1 POP JUMP JUMPDEST PUSH0 PUSH1 0x40 DUP3 ADD SWAP1 POP PUSH2 0x548D PUSH0 DUP4 ADD DUP6 PUSH2 0x3CE2 JUMP JUMPDEST DUP2 DUP2 SUB PUSH1 0x20 DUP4 ADD MSTORE PUSH2 0x549F DUP2 DUP5 PUSH2 0x3C7C JUMP JUMPDEST SWAP1 POP SWAP4 SWAP3 POP POP POP JUMP JUMPDEST PUSH0 PUSH1 0x40 DUP3 ADD SWAP1 POP PUSH2 0x54BB PUSH0 DUP4 ADD DUP6 PUSH2 0x3E5F JUMP JUMPDEST DUP2 DUP2 SUB PUSH1 0x20 DUP4 ADD MSTORE PUSH2 0x54CD DUP2 DUP5 PUSH2 0x3C7C JUMP JUMPDEST SWAP1 POP SWAP4 SWAP3 POP POP POP JUMP JUMPDEST PUSH32 0x50656E616C747920726174652065786365656473203130302500000000000000 PUSH0 DUP3 ADD MSTORE POP JUMP JUMPDEST PUSH0 PUSH2 0x550A PUSH1 0x19 DUP4 PUSH2 0x3FBE JUMP JUMPDEST SWAP2 POP PUSH2 0x5515 DUP3 PUSH2 0x54D6 JUMP JUMPDEST PUSH1 0x20 DUP3 ADD SWAP1 POP SWAP2 SWAP1 POP JUMP JUMPDEST PUSH0 PUSH1 0x20 DUP3 ADD SWAP1 POP DUP2 DUP2 SUB PUSH0 DUP4 ADD MSTORE PUSH2 0x5537 DUP2 PUSH2 0x54FE JUMP JUMPDEST SWAP1 POP SWAP2 SWAP1 POP JUMP JUMPDEST PUSH32 0x4E6F20616374697665207374616B657300000000000000000000000000000000 PUSH0 DUP3 ADD MSTORE POP JUMP JUMPDEST PUSH0 PUSH2 0x5572 PUSH1 0x10 DUP4 PUSH2 0x3FBE JUMP JUMPDEST SWAP2 POP PUSH2 0x557D DUP3 PUSH2 0x553E JUMP JUMPDEST PUSH1 0x20 DUP3 ADD SWAP1 POP SWAP2 SWAP1 POP JUMP JUMPDEST PUSH0 PUSH1 0x20 DUP3 ADD SWAP1 POP DUP2 DUP2 SUB PUSH0 DUP4 ADD MSTORE PUSH2 0x559F DUP2 PUSH2 0x5566 JUMP JUMPDEST SWAP1 POP SWAP2 SWAP1 POP JUMP JUMPDEST PUSH32 0x48424152207472616E73666572206661696C6564000000000000000000000000 PUSH0 DUP3 ADD MSTORE POP JUMP JUMPDEST PUSH0 PUSH2 0x55DA PUSH1 0x14 DUP4 PUSH2 0x3FBE JUMP JUMPDEST SWAP2 POP PUSH2 0x55E5 DUP3 PUSH2 0x55A6 JUMP JUMPDEST PUSH1 0x20 DUP3 ADD SWAP1 POP SWAP2 SWAP1 POP JUMP JUMPDEST PUSH0 PUSH1 0x20 DUP3 ADD SWAP1 POP DUP2 DUP2 SUB PUSH0 DUP4 ADD MSTORE PUSH2 0x5607 DUP2 PUSH2 0x55CE JUMP JUMPDEST SWAP1 POP SWAP2 SWAP1 POP JUMP JUMPDEST PUSH32 0x4D696E696D756D206475726174696F6E206D757374206265206C657373207468 PUSH0 DUP3 ADD MSTORE PUSH32 0x616E206D6178696D756D00000000000000000000000000000000000000000000 PUSH1 0x20 DUP3 ADD MSTORE POP JUMP JUMPDEST PUSH0 PUSH2 0x5668 PUSH1 0x2A DUP4 PUSH2 0x3FBE JUMP JUMPDEST SWAP2 POP PUSH2 0x5673 DUP3 PUSH2 0x560E JUMP JUMPDEST PUSH1 0x40 DUP3 ADD SWAP1 POP SWAP2 SWAP1 POP JUMP JUMPDEST PUSH0 PUSH1 0x20 DUP3 ADD SWAP1 POP DUP2 DUP2 SUB PUSH0 DUP4 ADD MSTORE PUSH2 0x5695 DUP2 PUSH2 0x565C JUMP JUMPDEST SWAP1 POP SWAP2 SWAP1 POP JUMP JUMPDEST PUSH32 0x4665652063616E6E6F7420626520300000000000000000000000000000000000 PUSH0 DUP3 ADD MSTORE POP JUMP JUMPDEST PUSH0 PUSH2 0x56D0 PUSH1 0xF DUP4 PUSH2 0x3FBE JUMP JUMPDEST SWAP2 POP PUSH2 0x56DB DUP3 PUSH2 0x569C JUMP JUMPDEST PUSH1 0x20 DUP3 ADD SWAP1 POP SWAP2 SWAP1 POP JUMP JUMPDEST PUSH0 PUSH1 0x20 DUP3 ADD SWAP1 POP DUP2 DUP2 SUB PUSH0 DUP4 ADD MSTORE PUSH2 0x56FD DUP2 PUSH2 0x56C4 JUMP JUMPDEST SWAP1 POP SWAP2 SWAP1 POP JUMP JUMPDEST PUSH32 0x416C72656164792066696E616C697A6564000000000000000000000000000000 PUSH0 DUP3 ADD MSTORE POP JUMP JUMPDEST PUSH0 PUSH2 0x5738 PUSH1 0x11 DUP4 PUSH2 0x3FBE JUMP JUMPDEST SWAP2 POP PUSH2 0x5743 DUP3 PUSH2 0x5704 JUMP JUMPDEST PUSH1 0x20 DUP3 ADD SWAP1 POP SWAP2 SWAP1 POP JUMP JUMPDEST PUSH0 PUSH1 0x20 DUP3 ADD SWAP1 POP DUP2 DUP2 SUB PUSH0 DUP4 ADD MSTORE PUSH2 0x5765 DUP2 PUSH2 0x572C JUMP JUMPDEST SWAP1 POP SWAP2 SWAP1 POP JUMP JUMPDEST PUSH32 0x45706F6368206E6F7420656E6465640000000000000000000000000000000000 PUSH0 DUP3 ADD MSTORE POP JUMP JUMPDEST PUSH0 PUSH2 0x57A0 PUSH1 0xF DUP4 PUSH2 0x3FBE JUMP JUMPDEST SWAP2 POP PUSH2 0x57AB DUP3 PUSH2 0x576C JUMP JUMPDEST PUSH1 0x20 DUP3 ADD SWAP1 POP SWAP2 SWAP1 POP JUMP JUMPDEST PUSH0 PUSH1 0x20 DUP3 ADD SWAP1 POP DUP2 DUP2 SUB PUSH0 DUP4 ADD MSTORE PUSH2 0x57CD DUP2 PUSH2 0x5794 JUMP JUMPDEST SWAP1 POP SWAP2 SWAP1 POP JUMP JUMPDEST PUSH0 PUSH1 0x60 DUP3 ADD SWAP1 POP PUSH2 0x57E7 PUSH0 DUP4 ADD DUP7 PUSH2 0x3A2D JUMP JUMPDEST PUSH2 0x57F4 PUSH1 0x20 DUP4 ADD DUP6 PUSH2 0x3A2D JUMP JUMPDEST PUSH2 0x5801 PUSH1 0x40 DUP4 ADD DUP5 PUSH2 0x3A2D JUMP JUMPDEST SWAP5 SWAP4 POP POP POP POP JUMP JUMPDEST PUSH32 0x50726576696F75732065706F6368206E6F742066696E616C697A656400000000 PUSH0 DUP3 ADD MSTORE POP JUMP JUMPDEST PUSH0 PUSH2 0x583D PUSH1 0x1C DUP4 PUSH2 0x3FBE JUMP JUMPDEST SWAP2 POP PUSH2 0x5848 DUP3 PUSH2 0x5809 JUMP JUMPDEST PUSH1 0x20 DUP3 ADD SWAP1 POP SWAP2 SWAP1 POP JUMP JUMPDEST PUSH0 PUSH1 0x20 DUP3 ADD SWAP1 POP DUP2 DUP2 SUB PUSH0 DUP4 ADD MSTORE PUSH2 0x586A DUP2 PUSH2 0x5831 JUMP JUMPDEST SWAP1 POP SWAP2 SWAP1 POP JUMP JUMPDEST PUSH0 PUSH1 0x40 DUP3 ADD SWAP1 POP PUSH2 0x5884 PUSH0 DUP4 ADD DUP6 PUSH2 0x3A2D JUMP JUMPDEST PUSH2 0x5891 PUSH1 0x20 DUP4 ADD DUP5 PUSH2 0x3A2D JUMP JUMPDEST SWAP4 SWAP3 POP POP POP JUMP JUMPDEST PUSH0 DUP2 PUSH1 0x60 SHL SWAP1 POP SWAP2 SWAP1 POP JUMP JUMPDEST PUSH0 PUSH2 0x58AE DUP3 PUSH2 0x5898 JUMP JUMPDEST SWAP1 POP SWAP2 SWAP1 POP JUMP JUMPDEST PUSH0 PUSH2 0x58BF DUP3 PUSH2 0x58A4 JUMP JUMPDEST SWAP1 POP SWAP2 SWAP1 POP JUMP JUMPDEST PUSH2 0x58D7 PUSH2 0x58D2 DUP3 PUSH2 0x3735 JUMP JUMPDEST PUSH2 0x58B5 JUMP JUMPDEST DUP3 MSTORE POP POP JUMP JUMPDEST PUSH0 DUP2 PUSH1 0xE8 SHL SWAP1 POP SWAP2 SWAP1 POP JUMP JUMPDEST PUSH0 PUSH2 0x58F3 DUP3 PUSH2 0x58DD JUMP JUMPDEST SWAP1 POP SWAP2 SWAP1 POP JUMP JUMPDEST PUSH2 0x590B PUSH2 0x5906 DUP3 PUSH2 0x3D81 JUMP JUMPDEST PUSH2 0x58E9 JUMP JUMPDEST DUP3 MSTORE POP POP JUMP JUMPDEST PUSH0 PUSH2 0x591C DUP3 DUP7 PUSH2 0x58C6 JUMP JUMPDEST PUSH1 0x14 DUP3 ADD SWAP2 POP PUSH2 0x592C DUP3 DUP6 PUSH2 0x58FA JUMP JUMPDEST PUSH1 0x3 DUP3 ADD SWAP2 POP PUSH2 0x593C DUP3 DUP5 PUSH2 0x58C6 JUMP JUMPDEST PUSH1 0x14 DUP3 ADD SWAP2 POP DUP2 SWAP1 POP SWAP5 SWAP4 POP POP POP POP JUMP JUMPDEST PUSH0 PUSH1 0x80 DUP3 ADD SWAP1 POP PUSH2 0x5960 PUSH0 DUP4 ADD DUP8 PUSH2 0x3CE2 JUMP JUMPDEST PUSH2 0x596D PUSH1 0x20 DUP4 ADD DUP7 PUSH2 0x3CE2 JUMP JUMPDEST PUSH2 0x597A PUSH1 0x40 DUP4 ADD DUP6 PUSH2 0x3CE2 JUMP JUMPDEST PUSH2 0x5987 PUSH1 0x60 DUP4 ADD DUP5 PUSH2 0x39A9 JUMP JUMPDEST SWAP6 SWAP5 POP POP POP POP POP JUMP JUMPDEST PUSH0 PUSH1 0x40 DUP3 ADD SWAP1 POP PUSH2 0x59A3 PUSH0 DUP4 ADD DUP6 PUSH2 0x3CE2 JUMP JUMPDEST PUSH2 0x59B0 PUSH1 0x20 DUP4 ADD DUP5 PUSH2 0x3CE2 JUMP JUMPDEST SWAP4 SWAP3 POP POP POP JUMP JUMPDEST PUSH32 0x56616C7565206578636565647320696E743634206D6178000000000000000000 PUSH0 DUP3 ADD MSTORE POP JUMP JUMPDEST PUSH0 PUSH2 0x59EB PUSH1 0x17 DUP4 PUSH2 0x3FBE JUMP JUMPDEST SWAP2 POP PUSH2 0x59F6 DUP3 PUSH2 0x59B7 JUMP JUMPDEST PUSH1 0x20 DUP3 ADD SWAP1 POP SWAP2 SWAP1 POP JUMP JUMPDEST PUSH0 PUSH1 0x20 DUP3 ADD SWAP1 POP DUP2 DUP2 SUB PUSH0 DUP4 ADD MSTORE PUSH2 0x5A18 DUP2 PUSH2 0x59DF JUMP JUMPDEST SWAP1 POP SWAP2 SWAP1 POP JUMP JUMPDEST PUSH0 PUSH1 0x60 DUP3 ADD SWAP1 POP PUSH2 0x5A32 PUSH0 DUP4 ADD DUP7 PUSH2 0x3CE2 JUMP JUMPDEST PUSH2 0x5A3F PUSH1 0x20 DUP4 ADD DUP6 PUSH2 0x3CE2 JUMP JUMPDEST PUSH2 0x5A4C PUSH1 0x40 DUP4 ADD DUP5 PUSH2 0x3A2D JUMP JUMPDEST SWAP5 SWAP4 POP POP POP POP JUMP INVALID LOG2 PUSH5 0x6970667358 0x22 SLT KECCAK256 XOR 0xFC MSIZE LOG3 EXTCODEHASH SWAP9 0x1E 0xE2 0xD3 0xDD SWAP7 NUMBER 0x25 RETURNDATACOPY 0xED 0x24 0xCF TLOAD PUSH5 0xDB1E439432 0xC4 PUSH14 0x4801BE7B258064736F6C63430008 BYTE STOP CALLER "
		},
		"gasEstimates": {
			"creation": {
				"codeDepositCost": "4635600",
				"executionCost": "infinite",
				"totalCost": "infinite"
			},
			"external": {
				"": "219",
				"claimReward()": "infinite",
				"epochDuration()": "2559",
				"epochId()": "2514",
				"epochs(uint256)": "infinite",
				"hbarUsdPriceId()": "2537",
				"maxStakeDuration()": "2514",
				"minStakeDuration()": "2515",
				"owner()": "2561",
				"penaltyRate()": "2492",
				"poolFees(address,address)": "infinite",
				"pyth()": "infinite",
				"redirectForToken(address,bytes)": "infinite",
				"renounceOwnership()": "infinite",
				"saucerSwapQuoter()": "infinite",
				"saucerSwapRouter()": "infinite",
				"saucerSwapRouterAddress()": "2553",
				"setEpochDuration(uint256)": "infinite",
				"setHbarUsdPriceId(bytes32)": "infinite",
				"setPenaltyRate(uint256)": "infinite",
				"setPoolFees(address,address,uint24)": "infinite",
				"setPyth(address)": "infinite",
				"setStakeDurationBounds(uint256,uint256)": "infinite",
				"setUsdcTokenAddress(address)": "infinite",
				"setWhbarTokenAddress(address)": "infinite",
				"setsaucerSwapQuoter(address)": "infinite",
				"setsaucerSwapRouter(address)": "infinite",
				"stake(address,uint256,uint256,uint256,bytes[])": "infinite",
				"tokenAssociate(address)": "infinite",
				"totalStakedAmount(address)": "2890",
				"transferFrom(address,address,address,uint256)": "infinite",
				"transferFromNFT(address,address,address,uint256)": "infinite",
				"transferOwnership(address)": "infinite",
				"usdcTokenAddress()": "2619",
				"userStakes(address,uint256)": "infinite",
				"whbarTokenAddress()": "2576",
				"withdraw(uint256)": "infinite"
			},
			"internal": {
				"_calculateBoostedShares(uint256,uint256)": "infinite",
				"_finalizeEpoch()": "infinite",
				"_startNewEpoch()": "infinite",
				"encodeSwapPath(address,uint24,address)": "infinite",
				"safeCastToInt64(uint256)": "infinite"
			}
		},
		"methodIdentifiers": {
			"claimReward()": "b88a802f",
			"epochDuration()": "4ff0876a",
			"epochId()": "aa9bbc0c",
			"epochs(uint256)": "c6b61e4c",
			"hbarUsdPriceId()": "4a9138c6",
			"maxStakeDuration()": "76f70003",
			"minStakeDuration()": "5fec5c64",
			"owner()": "8da5cb5b",
			"penaltyRate()": "d6b7494f",
			"poolFees(address,address)": "a9563e4f",
			"pyth()": "f98d06f0",
			"redirectForToken(address,bytes)": "618dc65e",
			"renounceOwnership()": "715018a6",
			"saucerSwapQuoter()": "a8559a96",
			"saucerSwapRouter()": "0d07be2d",
			"saucerSwapRouterAddress()": "6ee8cc45",
			"setEpochDuration(uint256)": "30024dfe",
			"setHbarUsdPriceId(bytes32)": "587b47b0",
			"setPenaltyRate(uint256)": "a1bab447",
			"setPoolFees(address,address,uint24)": "d9cd6e39",
			"setPyth(address)": "ee22fd6f",
			"setStakeDurationBounds(uint256,uint256)": "d8990c11",
			"setUsdcTokenAddress(address)": "f3fd622f",
			"setWhbarTokenAddress(address)": "55f741fa",
			"setsaucerSwapQuoter(address)": "7a04ea99",
			"setsaucerSwapRouter(address)": "0818f6d7",
			"stake(address,uint256,uint256,uint256,bytes[])": "09716dee",
			"tokenAssociate(address)": "1a2a5e15",
			"totalStakedAmount(address)": "f3dbdfe5",
			"transferFrom(address,address,address,uint256)": "15dacbea",
			"transferFromNFT(address,address,address,uint256)": "9b23d3d9",
			"transferOwnership(address)": "f2fde38b",
			"usdcTokenAddress()": "77b53ece",
			"userStakes(address,uint256)": "b5d5b5fa",
			"whbarTokenAddress()": "91e98f55",
			"withdraw(uint256)": "2e1a7d4d"
		}
	},
	"abi": [
		{
			"inputs": [
				{
					"internalType": "address",
					"name": "_pyth",
					"type": "address"
				},
				{
					"internalType": "address",
					"name": "_saucerSwapQuoterAddress",
					"type": "address"
				},
				{
					"internalType": "address",
					"name": "_saucerSwapRouterAddress",
					"type": "address"
				},
				{
					"internalType": "address",
					"name": "_usdcTokenAddress",
					"type": "address"
				},
				{
					"internalType": "address",
					"name": "_whbarTokenAddress",
					"type": "address"
				},
				{
					"internalType": "bytes32",
					"name": "_hbarUsdPriceId",
					"type": "bytes32"
				},
				{
					"internalType": "uint256",
					"name": "_minStakeDuration",
					"type": "uint256"
				},
				{
					"internalType": "uint256",
					"name": "_maxStakeDuration",
					"type": "uint256"
				},
				{
					"internalType": "uint256",
					"name": "_epochDuration",
					"type": "uint256"
				}
			],
			"stateMutability": "nonpayable",
			"type": "constructor"
		},
		{
			"inputs": [
				{
					"internalType": "address",
					"name": "owner",
					"type": "address"
				}
			],
			"name": "OwnableInvalidOwner",
			"type": "error"
		},
		{
			"inputs": [
				{
					"internalType": "address",
					"name": "account",
					"type": "address"
				}
			],
			"name": "OwnableUnauthorizedAccount",
			"type": "error"
		},
		{
			"inputs": [],
			"name": "ReentrancyGuardReentrantCall",
			"type": "error"
		},
		{
			"anonymous": false,
			"inputs": [
				{
					"indexed": true,
					"internalType": "address",
					"name": "user",
					"type": "address"
				},
				{
					"indexed": false,
					"internalType": "uint256",
					"name": "stakeIndex",
					"type": "uint256"
				},
				{
					"indexed": false,
					"internalType": "uint256",
					"name": "boostAmount",
					"type": "uint256"
				},
				{
					"indexed": false,
					"internalType": "uint256",
					"name": "newRewardPercent",
					"type": "uint256"
				}
			],
			"name": "BoostUsed",
			"type": "event"
		},
		{
			"anonymous": false,
			"inputs": [
				{
					"indexed": false,
					"internalType": "bool",
					"name": "",
					"type": "bool"
				},
				{
					"indexed": false,
					"internalType": "bytes",
					"name": "",
					"type": "bytes"
				}
			],
			"name": "CallResponseEvent",
			"type": "event"
		},
		{
			"anonymous": false,
			"inputs": [
				{
					"indexed": true,
					"internalType": "uint256",
					"name": "epochId",
					"type": "uint256"
				},
				{
					"indexed": false,
					"internalType": "uint256",
					"name": "totalReward",
					"type": "uint256"
				},
				{
					"indexed": false,
					"internalType": "uint256",
					"name": "totalRewardShares",
					"type": "uint256"
				},
				{
					"indexed": false,
					"internalType": "uint256",
					"name": "rewardPerShare",
					"type": "uint256"
				}
			],
			"name": "EpochFinalized",
			"type": "event"
		},
		{
			"anonymous": false,
			"inputs": [
				{
					"indexed": true,
					"internalType": "uint256",
					"name": "epochId",
					"type": "uint256"
				},
				{
					"indexed": false,
					"internalType": "uint256",
					"name": "startTime",
					"type": "uint256"
				},
				{
					"indexed": false,
					"internalType": "uint256",
					"name": "endTime",
					"type": "uint256"
				}
			],
			"name": "EpochStarted",
			"type": "event"
		},
		{
			"anonymous": false,
			"inputs": [
				{
					"indexed": true,
					"internalType": "address",
					"name": "previousOwner",
					"type": "address"
				},
				{
					"indexed": true,
					"internalType": "address",
					"name": "newOwner",
					"type": "address"
				}
			],
			"name": "OwnershipTransferred",
			"type": "event"
		},
		{
			"anonymous": false,
			"inputs": [
				{
					"indexed": true,
					"internalType": "address",
					"name": "user",
					"type": "address"
				},
				{
					"indexed": false,
					"internalType": "uint256",
					"name": "totalReward",
					"type": "uint256"
				}
			],
			"name": "RewardClaimed",
			"type": "event"
		},
		{
			"anonymous": false,
			"inputs": [
				{
					"indexed": true,
					"internalType": "address",
					"name": "user",
					"type": "address"
				},
				{
					"indexed": false,
					"internalType": "uint256",
					"name": "amount",
					"type": "uint256"
				},
				{
					"indexed": false,
					"internalType": "uint256",
					"name": "startTime",
					"type": "uint256"
				},
				{
					"indexed": false,
					"internalType": "uint256",
					"name": "endTime",
					"type": "uint256"
				},
				{
					"indexed": false,
					"internalType": "uint256",
					"name": "stakeIndex",
					"type": "uint256"
				},
				{
					"indexed": false,
					"internalType": "address",
					"name": "tokenId",
					"type": "address"
				}
			],
			"name": "Staked",
			"type": "event"
		},
		{
			"anonymous": false,
			"inputs": [
				{
					"indexed": false,
					"internalType": "address",
					"name": "tokenId",
					"type": "address"
				}
			],
			"name": "TokenAssociated",
			"type": "event"
		},
		{
			"anonymous": false,
			"inputs": [
				{
					"indexed": true,
					"internalType": "address",
					"name": "user",
					"type": "address"
				},
				{
					"indexed": false,
					"internalType": "uint256",
					"name": "stakeIndex",
					"type": "uint256"
				},
				{
					"indexed": false,
					"internalType": "uint256",
					"name": "amount",
					"type": "uint256"
				},
				{
					"indexed": false,
					"internalType": "bool",
					"name": "early",
					"type": "bool"
				},
				{
					"indexed": false,
					"internalType": "uint256",
					"name": "penalty",
					"type": "uint256"
				}
			],
			"name": "Withdrawn",
			"type": "event"
		},
		{
			"stateMutability": "payable",
			"type": "fallback"
		},
		{
			"inputs": [],
			"name": "claimReward",
			"outputs": [],
			"stateMutability": "nonpayable",
			"type": "function"
		},
		{
			"inputs": [],
			"name": "epochDuration",
			"outputs": [
				{
					"internalType": "uint256",
					"name": "",
					"type": "uint256"
				}
			],
			"stateMutability": "view",
			"type": "function"
		},
		{
			"inputs": [],
			"name": "epochId",
			"outputs": [
				{
					"internalType": "uint256",
					"name": "",
					"type": "uint256"
				}
			],
			"stateMutability": "view",
			"type": "function"
		},
		{
			"inputs": [
				{
					"internalType": "uint256",
					"name": "",
					"type": "uint256"
				}
			],
			"name": "epochs",
			"outputs": [
				{
					"internalType": "uint256",
					"name": "startTime",
					"type": "uint256"
				},
				{
					"internalType": "uint256",
					"name": "endTime",
					"type": "uint256"
				},
				{
					"internalType": "uint256",
					"name": "totalReward",
					"type": "uint256"
				},
				{
					"internalType": "uint256",
					"name": "totalRewardShares",
					"type": "uint256"
				},
				{
					"internalType": "uint256",
					"name": "rewardPerShare",
					"type": "uint256"
				},
				{
					"internalType": "bool",
					"name": "finalized",
					"type": "bool"
				}
			],
			"stateMutability": "view",
			"type": "function"
		},
		{
			"inputs": [],
			"name": "hbarUsdPriceId",
			"outputs": [
				{
					"internalType": "bytes32",
					"name": "",
					"type": "bytes32"
				}
			],
			"stateMutability": "view",
			"type": "function"
		},
		{
			"inputs": [],
			"name": "maxStakeDuration",
			"outputs": [
				{
					"internalType": "uint256",
					"name": "",
					"type": "uint256"
				}
			],
			"stateMutability": "view",
			"type": "function"
		},
		{
			"inputs": [],
			"name": "minStakeDuration",
			"outputs": [
				{
					"internalType": "uint256",
					"name": "",
					"type": "uint256"
				}
			],
			"stateMutability": "view",
			"type": "function"
		},
		{
			"inputs": [],
			"name": "owner",
			"outputs": [
				{
					"internalType": "address",
					"name": "",
					"type": "address"
				}
			],
			"stateMutability": "view",
			"type": "function"
		},
		{
			"inputs": [],
			"name": "penaltyRate",
			"outputs": [
				{
					"internalType": "uint256",
					"name": "",
					"type": "uint256"
				}
			],
			"stateMutability": "view",
			"type": "function"
		},
		{
			"inputs": [
				{
					"internalType": "address",
					"name": "",
					"type": "address"
				},
				{
					"internalType": "address",
					"name": "",
					"type": "address"
				}
			],
			"name": "poolFees",
			"outputs": [
				{
					"internalType": "uint24",
					"name": "",
					"type": "uint24"
				}
			],
			"stateMutability": "view",
			"type": "function"
		},
		{
			"inputs": [],
			"name": "pyth",
			"outputs": [
				{
					"internalType": "contract IPyth",
					"name": "",
					"type": "address"
				}
			],
			"stateMutability": "view",
			"type": "function"
		},
		{
			"inputs": [
				{
					"internalType": "address",
					"name": "token",
					"type": "address"
				},
				{
					"internalType": "bytes",
					"name": "encodedFunctionSelector",
					"type": "bytes"
				}
			],
			"name": "redirectForToken",
			"outputs": [
				{
					"internalType": "int256",
					"name": "responseCode",
					"type": "int256"
				},
				{
					"internalType": "bytes",
					"name": "response",
					"type": "bytes"
				}
			],
			"stateMutability": "nonpayable",
			"type": "function"
		},
		{
			"inputs": [],
			"name": "renounceOwnership",
			"outputs": [],
			"stateMutability": "nonpayable",
			"type": "function"
		},
		{
			"inputs": [],
			"name": "saucerSwapQuoter",
			"outputs": [
				{
					"internalType": "contract IQuoter",
					"name": "",
					"type": "address"
				}
			],
			"stateMutability": "view",
			"type": "function"
		},
		{
			"inputs": [],
			"name": "saucerSwapRouter",
			"outputs": [
				{
					"internalType": "contract IRouter",
					"name": "",
					"type": "address"
				}
			],
			"stateMutability": "view",
			"type": "function"
		},
		{
			"inputs": [],
			"name": "saucerSwapRouterAddress",
			"outputs": [
				{
					"internalType": "address",
					"name": "",
					"type": "address"
				}
			],
			"stateMutability": "view",
			"type": "function"
		},
		{
			"inputs": [
				{
					"internalType": "uint256",
					"name": "_epochDuration",
					"type": "uint256"
				}
			],
			"name": "setEpochDuration",
			"outputs": [],
			"stateMutability": "nonpayable",
			"type": "function"
		},
		{
			"inputs": [
				{
					"internalType": "bytes32",
					"name": "_priceId",
					"type": "bytes32"
				}
			],
			"name": "setHbarUsdPriceId",
			"outputs": [],
			"stateMutability": "nonpayable",
			"type": "function"
		},
		{
			"inputs": [
				{
					"internalType": "uint256",
					"name": "_penaltyRate",
					"type": "uint256"
				}
			],
			"name": "setPenaltyRate",
			"outputs": [],
			"stateMutability": "nonpayable",
			"type": "function"
		},
		{
			"inputs": [
				{
					"internalType": "address",
					"name": "token1",
					"type": "address"
				},
				{
					"internalType": "address",
					"name": "token2",
					"type": "address"
				},
				{
					"internalType": "uint24",
					"name": "newFee",
					"type": "uint24"
				}
			],
			"name": "setPoolFees",
			"outputs": [],
			"stateMutability": "nonpayable",
			"type": "function"
		},
		{
			"inputs": [
				{
					"internalType": "address",
					"name": "_pyth",
					"type": "address"
				}
			],
			"name": "setPyth",
			"outputs": [],
			"stateMutability": "nonpayable",
			"type": "function"
		},
		{
			"inputs": [
				{
					"internalType": "uint256",
					"name": "_min",
					"type": "uint256"
				},
				{
					"internalType": "uint256",
					"name": "_max",
					"type": "uint256"
				}
			],
			"name": "setStakeDurationBounds",
			"outputs": [],
			"stateMutability": "nonpayable",
			"type": "function"
		},
		{
			"inputs": [
				{
					"internalType": "address",
					"name": "_usdcTokenAddress",
					"type": "address"
				}
			],
			"name": "setUsdcTokenAddress",
			"outputs": [],
			"stateMutability": "nonpayable",
			"type": "function"
		},
		{
			"inputs": [
				{
					"internalType": "address",
					"name": "_whbarTokenAddress",
					"type": "address"
				}
			],
			"name": "setWhbarTokenAddress",
			"outputs": [],
			"stateMutability": "nonpayable",
			"type": "function"
		},
		{
			"inputs": [
				{
					"internalType": "address",
					"name": "_saucerSwapQuoter",
					"type": "address"
				}
			],
			"name": "setsaucerSwapQuoter",
			"outputs": [],
			"stateMutability": "nonpayable",
			"type": "function"
		},
		{
			"inputs": [
				{
					"internalType": "address",
					"name": "_router",
					"type": "address"
				}
			],
			"name": "setsaucerSwapRouter",
			"outputs": [],
			"stateMutability": "nonpayable",
			"type": "function"
		},
		{
			"inputs": [
				{
					"internalType": "address",
					"name": "tokenId",
					"type": "address"
				},
				{
					"internalType": "uint256",
					"name": "amount",
					"type": "uint256"
				},
				{
					"internalType": "uint256",
					"name": "duration",
					"type": "uint256"
				},
				{
					"internalType": "uint256",
					"name": "boostTokenAmount",
					"type": "uint256"
				},
				{
					"internalType": "bytes[]",
					"name": "priceUpdate",
					"type": "bytes[]"
				}
			],
			"name": "stake",
			"outputs": [],
			"stateMutability": "payable",
			"type": "function"
		},
		{
			"inputs": [
				{
					"internalType": "address",
					"name": "tokenId",
					"type": "address"
				}
			],
			"name": "tokenAssociate",
			"outputs": [],
			"stateMutability": "nonpayable",
			"type": "function"
		},
		{
			"inputs": [
				{
					"internalType": "address",
					"name": "",
					"type": "address"
				}
			],
			"name": "totalStakedAmount",
			"outputs": [
				{
					"internalType": "uint256",
					"name": "",
					"type": "uint256"
				}
			],
			"stateMutability": "view",
			"type": "function"
		},
		{
			"inputs": [
				{
					"internalType": "address",
					"name": "token",
					"type": "address"
				},
				{
					"internalType": "address",
					"name": "from",
					"type": "address"
				},
				{
					"internalType": "address",
					"name": "to",
					"type": "address"
				},
				{
					"internalType": "uint256",
					"name": "amount",
					"type": "uint256"
				}
			],
			"name": "transferFrom",
			"outputs": [
				{
					"internalType": "int64",
					"name": "responseCode",
					"type": "int64"
				}
			],
			"stateMutability": "nonpayable",
			"type": "function"
		},
		{
			"inputs": [
				{
					"internalType": "address",
					"name": "token",
					"type": "address"
				},
				{
					"internalType": "address",
					"name": "from",
					"type": "address"
				},
				{
					"internalType": "address",
					"name": "to",
					"type": "address"
				},
				{
					"internalType": "uint256",
					"name": "serialNumber",
					"type": "uint256"
				}
			],
			"name": "transferFromNFT",
			"outputs": [
				{
					"internalType": "int64",
					"name": "responseCode",
					"type": "int64"
				}
			],
			"stateMutability": "nonpayable",
			"type": "function"
		},
		{
			"inputs": [
				{
					"internalType": "address",
					"name": "newOwner",
					"type": "address"
				}
			],
			"name": "transferOwnership",
			"outputs": [],
			"stateMutability": "nonpayable",
			"type": "function"
		},
		{
			"inputs": [],
			"name": "usdcTokenAddress",
			"outputs": [
				{
					"internalType": "address",
					"name": "",
					"type": "address"
				}
			],
			"stateMutability": "view",
			"type": "function"
		},
		{
			"inputs": [
				{
					"internalType": "address",
					"name": "",
					"type": "address"
				},
				{
					"internalType": "uint256",
					"name": "",
					"type": "uint256"
				}
			],
			"name": "userStakes",
			"outputs": [
				{
					"internalType": "address",
					"name": "tokenId",
					"type": "address"
				},
				{
					"internalType": "uint256",
					"name": "amount",
					"type": "uint256"
				},
				{
					"internalType": "uint256",
					"name": "startTime",
					"type": "uint256"
				},
				{
					"internalType": "uint256",
					"name": "endTime",
					"type": "uint256"
				},
				{
					"internalType": "uint256",
					"name": "rewardShares",
					"type": "uint256"
				},
				{
					"internalType": "uint256",
					"name": "nextToClaim",
					"type": "uint256"
				}
			],
			"stateMutability": "view",
			"type": "function"
		},
		{
			"inputs": [],
			"name": "whbarTokenAddress",
			"outputs": [
				{
					"internalType": "address",
					"name": "",
					"type": "address"
				}
			],
			"stateMutability": "view",
			"type": "function"
		},
		{
			"inputs": [
				{
					"internalType": "uint256",
					"name": "stakeIndex",
					"type": "uint256"
				}
			],
			"name": "withdraw",
			"outputs": [],
			"stateMutability": "nonpayable",
			"type": "function"
		},
		{
			"stateMutability": "payable",
			"type": "receive"
		}
	]
}