{
	"data": {
		"bytecode": {
			"linkReferences": {},
			"object": "6080604052600a6001555f600255348015610018575f80fd5b50604051613781380380613781833981810160405281019061003a9190610291565b8160035f6101000a81548173ffffffffffffffffffffffffffffffffffffffff021916908373ffffffffffffffffffffffffffffffffffffffff1602179055508060048190555061008f61009660201b60201c565b50506103e6565b5f60025411156101035760065f60025481526020019081526020015f206005015f9054906101000a900460ff16610102576040517f08c379a00000000000000000000000000000000000000000000000000000000081526004016100f990610329565b60405180910390fd5b5b5f610e1042610112919061037d565b9050600160025f828254610126919061037d565b925050819055506040518060c001604052804281526020018281526020015f81526020015f81526020015f81526020015f151581525060065f60025481526020019081526020015f205f820151815f01556020820151816001015560408201518160020155606082015181600301556080820151816004015560a0820151816005015f6101000a81548160ff0219169083151502179055509050506002547f29db3deb62ef2036e5eb93aad68d2362aec0711af592cb365566603bd88651d442836040516101f59291906103bf565b60405180910390a250565b5f80fd5b5f73ffffffffffffffffffffffffffffffffffffffff82169050919050565b5f61022d82610204565b9050919050565b61023d81610223565b8114610247575f80fd5b50565b5f8151905061025881610234565b92915050565b5f819050919050565b6102708161025e565b811461027a575f80fd5b50565b5f8151905061028b81610267565b92915050565b5f80604083850312156102a7576102a6610200565b5b5f6102b48582860161024a565b92505060206102c58582860161027d565b9150509250929050565b5f82825260208201905092915050565b7f50726576696f75732065706f6368206e6f742066696e616c697a6564000000005f82015250565b5f610313601c836102cf565b915061031e826102df565b602082019050919050565b5f6020820190508181035f83015261034081610307565b9050919050565b5f819050919050565b7f4e487b71000000000000000000000000000000000000000000000000000000005f52601160045260245ffd5b5f61038782610347565b915061039283610347565b92508282019050808211156103aa576103a9610350565b5b92915050565b6103b981610347565b82525050565b5f6040820190506103d25f8301856103b0565b6103df60208301846103b0565b9392505050565b61338e806103f35f395ff3fe6080604052600436106100c5575f3560e01c80639b23d3d91161007e578063b5d5b5fa11610058578063b5d5b5fa14610291578063b88a802f146102d2578063c6b61e4c146102e8578063d6b7494f14610329576100cc565b80639b23d3d9146101ef5780639bfd8d611461022b578063aa9bbc0c14610267576100cc565b806309716dee146100ce57806315dacbea146100ea5780631a2a5e15146101265780632e1a7d4d1461014e57806356fdfc5714610176578063618dc65e146101b2576100cc565b366100cc57005b005b6100e860048036038101906100e39190611fe3565b610353565b005b3480156100f5575f80fd5b50610110600480360381019061010b9190612079565b610980565b60405161011d91906120f8565b60405180910390f35b348015610131575f80fd5b5061014c60048036038101906101479190612111565b610a98565b005b348015610159575f80fd5b50610174600480360381019061016f919061213c565b610b26565b005b348015610181575f80fd5b5061019c60048036038101906101979190612167565b610ffa565b6040516101a991906121d1565b60405180910390f35b3480156101bd575f80fd5b506101d860048036038101906101d39190612322565b61102f565b6040516101e69291906123f4565b60405180910390f35b3480156101fa575f80fd5b5061021560048036038101906102109190612079565b611184565b60405161022291906120f8565b60405180910390f35b348015610236575f80fd5b50610251600480360381019061024c9190612111565b61129c565b60405161025e9190612431565b60405180910390f35b348015610272575f80fd5b5061027b6112b0565b6040516102889190612431565b60405180910390f35b34801561029c575f80fd5b506102b760048036038101906102b2919061244a565b6112b6565b6040516102c996959493929190612497565b60405180910390f35b3480156102dd575f80fd5b506102e6611327565b005b3480156102f3575f80fd5b5061030e6004803603810190610309919061213c565b6117cd565b604051610320969594939291906124f6565b60405180910390f35b348015610334575f80fd5b5061033d611811565b60405161034a9190612431565b60405180910390f35b5f60065f60025481526020019081526020015f206040518060c00160405290815f820154815260200160018201548152602001600282015481526020016003820154815260200160048201548152602001600582015f9054906101000a900460ff161515151581525050905080602001514211156103dc576103d3611817565b6103db6119d7565b5b5f861161041e576040517f08c379a0000000000000000000000000000000000000000000000000000000008152600401610415906125af565b60405180910390fd5b61012c851015801561043257506107088511155b610471576040517f08c379a000000000000000000000000000000000000000000000000000000000815260040161046890612617565b60405180910390fd5b5f73ffffffffffffffffffffffffffffffffffffffff168773ffffffffffffffffffffffffffffffffffffffff16036104eb578534146104e6576040517f08c379a00000000000000000000000000000000000000000000000000000000081526004016104dd9061267f565b60405180910390fd5b610542565b5f6104f88833308a611b41565b9050601660030b8114610540576040517f08c379a00000000000000000000000000000000000000000000000000000000081526004016105379061270d565b60405180910390fd5b505b5f808511156105575761055485611c59565b90505b5f60035f9054906101000a900473ffffffffffffffffffffffffffffffffffffffff1673ffffffffffffffffffffffffffffffffffffffff1663d47eed4586866040518363ffffffff1660e01b81526004016105b4929190612883565b602060405180830381865afa1580156105cf573d5f803e3d5ffd5b505050506040513d601f19601f820116820180604052508101906105f391906128b9565b905060035f9054906101000a900473ffffffffffffffffffffffffffffffffffffffff1673ffffffffffffffffffffffffffffffffffffffff1663ef9e5e288287876040518463ffffffff1660e01b8152600401610652929190612883565b5f604051808303818588803b158015610669575f80fd5b505af115801561067b573d5f803e3d5ffd5b50505050505f60035f9054906101000a900473ffffffffffffffffffffffffffffffffffffffff1673ffffffffffffffffffffffffffffffffffffffff1663a4ae35e0600454603c6040518363ffffffff1660e01b81526004016106e092919061293e565b608060405180830381865afa1580156106fb573d5f803e3d5ffd5b505050506040513d601f19601f8201168201806040525081019061071f9190612a7b565b90505f83620f42408a6107329190612b00565b6305f5e1008c855f015167ffffffffffffffff166107509190612b30565b61075a9190612b00565b6107649190612b30565b61076e9190612b30565b905060055f3373ffffffffffffffffffffffffffffffffffffffff1673ffffffffffffffffffffffffffffffffffffffff1681526020019081526020015f206040518060c001604052808d73ffffffffffffffffffffffffffffffffffffffff1681526020018c81526020014281526020018b426107ec9190612b71565b8152602001838152602001600254815250908060018154018082558091505060019003905f5260205f2090600602015f909190919091505f820151815f015f6101000a81548173ffffffffffffffffffffffffffffffffffffffff021916908373ffffffffffffffffffffffffffffffffffffffff1602179055506020820151816001015560408201518160020155606082015181600301556080820151816004015560a082015181600501555050895f808d73ffffffffffffffffffffffffffffffffffffffff1673ffffffffffffffffffffffffffffffffffffffff1681526020019081526020015f205f8282546108e69190612b71565b925050819055508060065f60025481526020019081526020015f206003015f8282546109129190612b71565b925050819055503373ffffffffffffffffffffffffffffffffffffffff167f9cfd25589d1eb8ad71e342a86a8524e83522e3936c0803048c08f6d9ad974f408b42886020015160025460405161096b9493929190612ba4565b60405180910390a25050505050505050505050565b5f805f61016773ffffffffffffffffffffffffffffffffffffffff166315dacbea60e01b888888886040516024016109bb9493929190612be7565b604051602081830303815290604052907bffffffffffffffffffffffffffffffffffffffffffffffffffffffff19166020820180517bffffffffffffffffffffffffffffffffffffffffffffffffffffffff8381831617835250505050604051610a259190612c64565b5f604051808303815f865af19150503d805f8114610a5e576040519150601f19603f3d011682016040523d82523d5f602084013e610a63565b606091505b509150915081610a74576015610a89565b80806020019051810190610a889190612c7a565b5b60030b92505050949350505050565b5f610aa33083611cc9565b9050601660030b8114610aeb576040517f08c379a0000000000000000000000000000000000000000000000000000000008152600401610ae290612cef565b60405180910390fd5b7fbbbf805ef99ca7d0b7d2cc769719f2a281c9b3331a3642efa75a712e3094a16682604051610b1a9190612d0d565b60405180910390a15050565b5f60055f3373ffffffffffffffffffffffffffffffffffffffff1673ffffffffffffffffffffffffffffffffffffffff1681526020019081526020015f20805480602002602001604051908101604052809291908181526020015f905b82821015610c39578382905f5260205f2090600602016040518060c00160405290815f82015f9054906101000a900473ffffffffffffffffffffffffffffffffffffffff1673ffffffffffffffffffffffffffffffffffffffff1673ffffffffffffffffffffffffffffffffffffffff1681526020016001820154815260200160028201548152602001600382015481526020016004820154815260200160058201548152505081526020019060010190610b83565b50505050905080518210610c82576040517f08c379a0000000000000000000000000000000000000000000000000000000008152600401610c7990612d70565b60405180910390fd5b5f818381518110610c9657610c95612d8e565b5b60200260200101516020015111610ce2576040517f08c379a0000000000000000000000000000000000000000000000000000000008152600401610cd990612e05565b60405180910390fd5b5f60065f60025481526020019081526020015f206040518060c00160405290815f820154815260200160018201548152602001600282015481526020016003820154815260200160048201548152602001600582015f9054906101000a900460ff16151515158152505090508060200151421115610d6b57610d62611817565b610d6a6119d7565b5b5f60055f3373ffffffffffffffffffffffffffffffffffffffff1673ffffffffffffffffffffffffffffffffffffffff1681526020019081526020015f208481548110610dbb57610dba612d8e565b5b905f5260205f209060060201600101819055505f828481518110610de257610de1612d8e565b5b60200260200101516020015190505f838581518110610e0457610e03612d8e565b5b602002602001015160600151421090505f8115610e7257606460015484610e2b9190612b30565b610e359190612b00565b90508083610e439190612e23565b92508060065f60025481526020019081526020015f206002015f828254610e6a9190612b71565b925050819055505b8083610e7e9190612b71565b5f80878981518110610e9357610e92612d8e565b5b60200260200101515f015173ffffffffffffffffffffffffffffffffffffffff1673ffffffffffffffffffffffffffffffffffffffff1681526020019081526020015f205f828254610ee59190612e23565b925050819055505f831115610f9e575f3373ffffffffffffffffffffffffffffffffffffffff1684604051610f1990612e79565b5f6040518083038185875af1925050503d805f8114610f53576040519150601f19603f3d011682016040523d82523d5f602084013e610f58565b606091505b5050905080610f9c576040517f08c379a0000000000000000000000000000000000000000000000000000000008152600401610f9390612efd565b60405180910390fd5b505b3373ffffffffffffffffffffffffffffffffffffffff167f8e74f2e568a8fc64d8e10a0dd9ce40f78f234368743079ffb0e60ee702693ac987858585604051610fea9493929190612f1b565b60405180910390a2505050505050565b6007602052825f5260405f20602052815f5260405f20602052805f5260405f205f92509250509054906101000a900460ff1681565b5f60605f8061016773ffffffffffffffffffffffffffffffffffffffff1663618dc65e60e01b8787604051602401611068929190612f5e565b604051602081830303815290604052907bffffffffffffffffffffffffffffffffffffffffffffffffffffffff19166020820180517bffffffffffffffffffffffffffffffffffffffffffffffffffffffff83818316178352505050506040516110d29190612c64565b5f604051808303815f865af19150503d805f811461110b576040519150601f19603f3d011682016040523d82523d5f602084013e611110565b606091505b50915091507f4af4780e06fe8cb9df64b0794fa6f01399af979175bb988e35e0e57e594567bc8282604051611146929190612f8c565b60405180910390a18161116957601560405180602001604052805f81525061116d565b6016815b8160030b9150809450819550505050509250929050565b5f805f61016773ffffffffffffffffffffffffffffffffffffffff16639b23d3d960e01b888888886040516024016111bf9493929190612be7565b604051602081830303815290604052907bffffffffffffffffffffffffffffffffffffffffffffffffffffffff19166020820180517bffffffffffffffffffffffffffffffffffffffffffffffffffffffff83818316178352505050506040516112299190612c64565b5f604051808303815f865af19150503d805f8114611262576040519150601f19603f3d011682016040523d82523d5f602084013e611267565b606091505b50915091508161127857601561128d565b8080602001905181019061128c9190612c7a565b5b60030b92505050949350505050565b5f602052805f5260405f205f915090505481565b60025481565b6005602052815f5260405f2081815481106112cf575f80fd5b905f5260205f2090600602015f9150915050805f015f9054906101000a900473ffffffffffffffffffffffffffffffffffffffff16908060010154908060020154908060030154908060040154908060050154905086565b5f60055f3373ffffffffffffffffffffffffffffffffffffffff1673ffffffffffffffffffffffffffffffffffffffff1681526020019081526020015f20805480602002602001604051908101604052809291908181526020015f905b8282101561143a578382905f5260205f2090600602016040518060c00160405290815f82015f9054906101000a900473ffffffffffffffffffffffffffffffffffffffff1673ffffffffffffffffffffffffffffffffffffffff1673ffffffffffffffffffffffffffffffffffffffff1681526020016001820154815260200160028201548152602001600382015481526020016004820154815260200160058201548152505081526020019060010190611384565b5050505090505f815111611483576040517f08c379a000000000000000000000000000000000000000000000000000000000815260040161147a90613004565b60405180910390fd5b5f60065f60025481526020019081526020015f206040518060c00160405290815f820154815260200160018201548152602001600282015481526020016003820154815260200160048201548152602001600582015f9054906101000a900460ff1615151515815250509050806020015142111561150c57611503611817565b61150b6119d7565b5b5f805b8351811015611699575f84828151811061152c5761152b612d8e565b5b602002602001015160a0015190505b600254811015611626575f60065f8381526020019081526020015f206040518060c00160405290815f820154815260200160018201548152602001600282015481526020016003820154815260200160048201548152602001600582015f9054906101000a900460ff16151515158152505090508060a0015180156115c457505f816080015114155b1561161857670de0b6b3a76400008684815181106115e5576115e4612d8e565b5b60200260200101516080015182608001516116009190612b30565b61160a9190612b00565b846116159190612b71565b93505b50808060010191505061153b565b5060025460055f3373ffffffffffffffffffffffffffffffffffffffff1673ffffffffffffffffffffffffffffffffffffffff1681526020019081526020015f20828154811061167957611678612d8e565b5b905f5260205f20906006020160050181905550808060010191505061150f565b505f81116116dc576040517f08c379a00000000000000000000000000000000000000000000000000000000081526004016116d39061306c565b60405180910390fd5b8047101561171f576040517f08c379a0000000000000000000000000000000000000000000000000000000008152600401611716906130d4565b60405180910390fd5b5f3373ffffffffffffffffffffffffffffffffffffffff168260405161174490612e79565b5f6040518083038185875af1925050503d805f811461177e576040519150601f19603f3d011682016040523d82523d5f602084013e611783565b606091505b50509050806117c7576040517f08c379a00000000000000000000000000000000000000000000000000000000081526004016117be9061313c565b60405180910390fd5b50505050565b6006602052805f5260405f205f91509050805f015490806001015490806002015490806003015490806004015490806005015f9054906101000a900460ff16905086565b60015481565b5f60065f60025481526020019081526020015f206040518060c00160405290815f820154815260200160018201548152602001600282015481526020016003820154815260200160048201548152602001600582015f9054906101000a900460ff16151515158152505090508060a00151156118c8576040517f08c379a00000000000000000000000000000000000000000000000000000000081526004016118bf906131a4565b60405180910390fd5b8060200151421161190e576040517f08c379a00000000000000000000000000000000000000000000000000000000081526004016119059061320c565b60405180910390fd5b600160065f60025481526020019081526020015f206005015f6101000a81548160ff0219169083151502179055505f8160600151111561198a578060600151670de0b6b3a764000082604001516119659190612b30565b61196f9190612b00565b60065f60025481526020019081526020015f20600401819055505b6002547f70801d4d63b3da6c19ba7349911f45bed5a99ccdfb51b8138c105872529bebd58260400151836060015184608001516040516119cc9392919061322a565b60405180910390a250565b5f6002541115611a445760065f60025481526020019081526020015f206005015f9054906101000a900460ff16611a43576040517f08c379a0000000000000000000000000000000000000000000000000000000008152600401611a3a906132a9565b60405180910390fd5b5b5f610e1042611a539190612b71565b9050600160025f828254611a679190612b71565b925050819055506040518060c001604052804281526020018281526020015f81526020015f81526020015f81526020015f151581525060065f60025481526020019081526020015f205f820151815f01556020820151816001015560408201518160020155606082015181600301556080820151816004015560a0820151816005015f6101000a81548160ff0219169083151502179055509050506002547f29db3deb62ef2036e5eb93aad68d2362aec0711af592cb365566603bd88651d44283604051611b369291906132c7565b60405180910390a250565b5f805f61016773ffffffffffffffffffffffffffffffffffffffff1663eca3691760e01b88888888604051602401611b7c94939291906132ee565b604051602081830303815290604052907bffffffffffffffffffffffffffffffffffffffffffffffffffffffff19166020820180517bffffffffffffffffffffffffffffffffffffffffffffffffffffffff8381831617835250505050604051611be69190612c64565b5f604051808303815f865af19150503d805f8114611c1f576040519150601f19603f3d011682016040523d82523d5f602084013e611c24565b606091505b509150915081611c35576015611c4a565b80806020019051810190611c499190612c7a565b5b60030b92505050949350505050565b5f6001821015611c6b575f9050611cc4565b5f6103e8611c84600185611c7f9190612b71565b611ddb565b611c8e9190612b30565b90505f61016990506103e88183611ca59190612b30565b611caf9190612b00565b92506109c4831115611cc1576109c492505b50505b919050565b5f805f61016773ffffffffffffffffffffffffffffffffffffffff166349146bde60e01b8686604051602401611d00929190613331565b604051602081830303815290604052907bffffffffffffffffffffffffffffffffffffffffffffffffffffffff19166020820180517bffffffffffffffffffffffffffffffffffffffffffffffffffffffff8381831617835250505050604051611d6a9190612c64565b5f604051808303815f865af19150503d805f8114611da3576040519150601f19603f3d011682016040523d82523d5f602084013e611da8565b606091505b509150915081611db9576015611dce565b80806020019051810190611dcd9190612c7a565b5b60030b9250505092915050565b5f805f90505f611dfc6fffffffffffffffffffffffffffffffff8511611ed9565b60800290508084901c93508082019150611e1f67ffffffffffffffff8511611ed9565b60400290508084901c93508082019150611e3e63ffffffff8511611ed9565b60200290508084901c93508082019150611e5b61ffff8511611ed9565b60100290508084901c93508082019150611e7760ff8511611ed9565b60080290508084901c93508082019150611e93600f8511611ed9565b60040290508084901c93508082019150611eaf60038511611ed9565b60020290508084901c93508082019150611ecb60018511611ed9565b820191508192505050919050565b5f8115159050919050565b5f604051905090565b5f80fd5b5f80fd5b5f73ffffffffffffffffffffffffffffffffffffffff82169050919050565b5f611f1e82611ef5565b9050919050565b611f2e81611f14565b8114611f38575f80fd5b50565b5f81359050611f4981611f25565b92915050565b5f819050919050565b611f6181611f4f565b8114611f6b575f80fd5b50565b5f81359050611f7c81611f58565b92915050565b5f80fd5b5f80fd5b5f80fd5b5f8083601f840112611fa357611fa2611f82565b5b8235905067ffffffffffffffff811115611fc057611fbf611f86565b5b602083019150836020820283011115611fdc57611fdb611f8a565b5b9250929050565b5f805f805f8060a08789031215611ffd57611ffc611eed565b5b5f61200a89828a01611f3b565b965050602061201b89828a01611f6e565b955050604061202c89828a01611f6e565b945050606061203d89828a01611f6e565b935050608087013567ffffffffffffffff81111561205e5761205d611ef1565b5b61206a89828a01611f8e565b92509250509295509295509295565b5f805f806080858703121561209157612090611eed565b5b5f61209e87828801611f3b565b94505060206120af87828801611f3b565b93505060406120c087828801611f3b565b92505060606120d187828801611f6e565b91505092959194509250565b5f8160070b9050919050565b6120f2816120dd565b82525050565b5f60208201905061210b5f8301846120e9565b92915050565b5f6020828403121561212657612125611eed565b5b5f61213384828501611f3b565b91505092915050565b5f6020828403121561215157612150611eed565b5b5f61215e84828501611f6e565b91505092915050565b5f805f6060848603121561217e5761217d611eed565b5b5f61218b86828701611f6e565b935050602061219c86828701611f3b565b92505060406121ad86828701611f6e565b9150509250925092565b5f8115159050919050565b6121cb816121b7565b82525050565b5f6020820190506121e45f8301846121c2565b92915050565b5f80fd5b5f601f19601f8301169050919050565b7f4e487b71000000000000000000000000000000000000000000000000000000005f52604160045260245ffd5b612234826121ee565b810181811067ffffffffffffffff82111715612253576122526121fe565b5b80604052505050565b5f612265611ee4565b9050612271828261222b565b919050565b5f67ffffffffffffffff8211156122905761228f6121fe565b5b612299826121ee565b9050602081019050919050565b828183375f83830152505050565b5f6122c66122c184612276565b61225c565b9050828152602081018484840111156122e2576122e16121ea565b5b6122ed8482856122a6565b509392505050565b5f82601f83011261230957612308611f82565b5b81356123198482602086016122b4565b91505092915050565b5f806040838503121561233857612337611eed565b5b5f61234585828601611f3b565b925050602083013567ffffffffffffffff81111561236657612365611ef1565b5b612372858286016122f5565b9150509250929050565b5f819050919050565b61238e8161237c565b82525050565b5f81519050919050565b5f82825260208201905092915050565b8281835e5f83830152505050565b5f6123c682612394565b6123d0818561239e565b93506123e08185602086016123ae565b6123e9816121ee565b840191505092915050565b5f6040820190506124075f830185612385565b818103602083015261241981846123bc565b90509392505050565b61242b81611f4f565b82525050565b5f6020820190506124445f830184612422565b92915050565b5f80604083850312156124605761245f611eed565b5b5f61246d85828601611f3b565b925050602061247e85828601611f6e565b9150509250929050565b61249181611f14565b82525050565b5f60c0820190506124aa5f830189612488565b6124b76020830188612422565b6124c46040830187612422565b6124d16060830186612422565b6124de6080830185612422565b6124eb60a0830184612422565b979650505050505050565b5f60c0820190506125095f830189612422565b6125166020830188612422565b6125236040830187612422565b6125306060830186612422565b61253d6080830185612422565b61254a60a08301846121c2565b979650505050505050565b5f82825260208201905092915050565b7f5374616b6520616d6f756e74206d757374206265203e203000000000000000005f82015250565b5f612599601883612555565b91506125a482612565565b602082019050919050565b5f6020820190508181035f8301526125c68161258d565b9050919050565b7f57726f6e67207374616b65206475726174696f6e0000000000000000000000005f82015250565b5f612601601483612555565b915061260c826125cd565b602082019050919050565b5f6020820190508181035f83015261262e816125f5565b9050919050565b7f496e636f7272656374204842415220616d6f756e742073656e740000000000005f82015250565b5f612669601a83612555565b915061267482612635565b602082019050919050565b5f6020820190508181035f8301526126968161265d565b9050919050565b7f546f6b656e207472616e7366657220746f2065786368616e6765206661696c655f8201527f6400000000000000000000000000000000000000000000000000000000000000602082015250565b5f6126f7602183612555565b91506127028261269d565b604082019050919050565b5f6020820190508181035f830152612724816126eb565b9050919050565b5f82825260208201905092915050565b5f819050919050565b5f82825260208201905092915050565b5f61275f8385612744565b935061276c8385846122a6565b612775836121ee565b840190509392505050565b5f61278c848484612754565b90509392505050565b5f80fd5b5f80fd5b5f80fd5b5f80833560016020038436030381126127bd576127bc61279d565b5b83810192508235915060208301925067ffffffffffffffff8211156127e5576127e4612795565b5b6001820236038313156127fb576127fa612799565b5b509250929050565b5f602082019050919050565b5f61281a838561272b565b93508360208402850161282c8461273b565b805f5b8781101561287157848403895261284682846127a1565b612851868284612780565b955061285c84612803565b935060208b019a50505060018101905061282f565b50829750879450505050509392505050565b5f6020820190508181035f83015261289c81848661280f565b90509392505050565b5f815190506128b381611f58565b92915050565b5f602082840312156128ce576128cd611eed565b5b5f6128db848285016128a5565b91505092915050565b5f819050919050565b6128f6816128e4565b82525050565b5f819050919050565b5f819050919050565b5f61292861292361291e846128fc565b612905565b611f4f565b9050919050565b6129388161290e565b82525050565b5f6040820190506129515f8301856128ed565b61295e602083018461292f565b9392505050565b5f80fd5b612972816120dd565b811461297c575f80fd5b50565b5f8151905061298d81612969565b92915050565b5f67ffffffffffffffff82169050919050565b6129af81612993565b81146129b9575f80fd5b50565b5f815190506129ca816129a6565b92915050565b5f8160030b9050919050565b6129e5816129d0565b81146129ef575f80fd5b50565b5f81519050612a00816129dc565b92915050565b5f60808284031215612a1b57612a1a612965565b5b612a25608061225c565b90505f612a348482850161297f565b5f830152506020612a47848285016129bc565b6020830152506040612a5b848285016129f2565b6040830152506060612a6f848285016128a5565b60608301525092915050565b5f60808284031215612a9057612a8f611eed565b5b5f612a9d84828501612a06565b91505092915050565b7f4e487b71000000000000000000000000000000000000000000000000000000005f52601260045260245ffd5b7f4e487b71000000000000000000000000000000000000000000000000000000005f52601160045260245ffd5b5f612b0a82611f4f565b9150612b1583611f4f565b925082612b2557612b24612aa6565b5b828204905092915050565b5f612b3a82611f4f565b9150612b4583611f4f565b9250828202612b5381611f4f565b91508282048414831517612b6a57612b69612ad3565b5b5092915050565b5f612b7b82611f4f565b9150612b8683611f4f565b9250828201905080821115612b9e57612b9d612ad3565b5b92915050565b5f608082019050612bb75f830187612422565b612bc46020830186612422565b612bd16040830185612422565b612bde6060830184612422565b95945050505050565b5f608082019050612bfa5f830187612488565b612c076020830186612488565b612c146040830185612488565b612c216060830184612422565b95945050505050565b5f81905092915050565b5f612c3e82612394565b612c488185612c2a565b9350612c588185602086016123ae565b80840191505092915050565b5f612c6f8284612c34565b915081905092915050565b5f60208284031215612c8f57612c8e611eed565b5b5f612c9c848285016129f2565b91505092915050565b7f4173736f6369617465204661696c6564000000000000000000000000000000005f82015250565b5f612cd9601083612555565b9150612ce482612ca5565b602082019050919050565b5f6020820190508181035f830152612d0681612ccd565b9050919050565b5f602082019050612d205f830184612488565b92915050565b7f496e76616c696420696e646578000000000000000000000000000000000000005f82015250565b5f612d5a600d83612555565b9150612d6582612d26565b602082019050919050565b5f6020820190508181035f830152612d8781612d4e565b9050919050565b7f4e487b71000000000000000000000000000000000000000000000000000000005f52603260045260245ffd5b7f416c72656164792077697468647261776e0000000000000000000000000000005f82015250565b5f612def601183612555565b9150612dfa82612dbb565b602082019050919050565b5f6020820190508181035f830152612e1c81612de3565b9050919050565b5f612e2d82611f4f565b9150612e3883611f4f565b9250828203905081811115612e5057612e4f612ad3565b5b92915050565b50565b5f612e645f83612c2a565b9150612e6f82612e56565b5f82019050919050565b5f612e8382612e59565b9150819050919050565b7f4661696c656420746f2073656e64204842415220746f206578697374696e67205f8201527f7265717565737465720000000000000000000000000000000000000000000000602082015250565b5f612ee7602983612555565b9150612ef282612e8d565b604082019050919050565b5f6020820190508181035f830152612f1481612edb565b9050919050565b5f608082019050612f2e5f830187612422565b612f3b6020830186612422565b612f4860408301856121c2565b612f556060830184612422565b95945050505050565b5f604082019050612f715f830185612488565b8181036020830152612f8381846123bc565b90509392505050565b5f604082019050612f9f5f8301856121c2565b8181036020830152612fb181846123bc565b90509392505050565b7f4e6f20616374697665207374616b6573000000000000000000000000000000005f82015250565b5f612fee601083612555565b9150612ff982612fba565b602082019050919050565b5f6020820190508181035f83015261301b81612fe2565b9050919050565b7f4e6f2072657761726420746f20636c61696d00000000000000000000000000005f82015250565b5f613056601283612555565b915061306182613022565b602082019050919050565b5f6020820190508181035f8301526130838161304a565b9050919050565b7f496e73756666696369656e7420636f6e74726163742062616c616e63650000005f82015250565b5f6130be601d83612555565b91506130c98261308a565b602082019050919050565b5f6020820190508181035f8301526130eb816130b2565b9050919050565b7f48424152207472616e73666572206661696c65640000000000000000000000005f82015250565b5f613126601483612555565b9150613131826130f2565b602082019050919050565b5f6020820190508181035f8301526131538161311a565b9050919050565b7f416c72656164792066696e616c697a65640000000000000000000000000000005f82015250565b5f61318e601183612555565b91506131998261315a565b602082019050919050565b5f6020820190508181035f8301526131bb81613182565b9050919050565b7f45706f6368206e6f7420656e64656400000000000000000000000000000000005f82015250565b5f6131f6600f83612555565b9150613201826131c2565b602082019050919050565b5f6020820190508181035f830152613223816131ea565b9050919050565b5f60608201905061323d5f830186612422565b61324a6020830185612422565b6132576040830184612422565b949350505050565b7f50726576696f75732065706f6368206e6f742066696e616c697a6564000000005f82015250565b5f613293601c83612555565b915061329e8261325f565b602082019050919050565b5f6020820190508181035f8301526132c081613287565b9050919050565b5f6040820190506132da5f830185612422565b6132e76020830184612422565b9392505050565b5f6080820190506133015f830187612488565b61330e6020830186612488565b61331b6040830185612488565b61332860608301846120e9565b95945050505050565b5f6040820190506133445f830185612488565b6133516020830184612488565b939250505056fea2646970667358221220d2d08c7b2d854c1f03905e1cc8975067f7bca9eb16442b7c54fd94bb291ed06864736f6c634300081a0033",
			"opcodes": "PUSH1 0x80 PUSH1 0x40 MSTORE PUSH1 0xA PUSH1 0x1 SSTORE PUSH0 PUSH1 0x2 SSTORE CALLVALUE DUP1 ISZERO PUSH2 0x18 JUMPI PUSH0 DUP1 REVERT JUMPDEST POP PUSH1 0x40 MLOAD PUSH2 0x3781 CODESIZE SUB DUP1 PUSH2 0x3781 DUP4 CODECOPY DUP2 DUP2 ADD PUSH1 0x40 MSTORE DUP2 ADD SWAP1 PUSH2 0x3A SWAP2 SWAP1 PUSH2 0x291 JUMP JUMPDEST DUP2 PUSH1 0x3 PUSH0 PUSH2 0x100 EXP DUP2 SLOAD DUP2 PUSH20 0xFFFFFFFFFFFFFFFFFFFFFFFFFFFFFFFFFFFFFFFF MUL NOT AND SWAP1 DUP4 PUSH20 0xFFFFFFFFFFFFFFFFFFFFFFFFFFFFFFFFFFFFFFFF AND MUL OR SWAP1 SSTORE POP DUP1 PUSH1 0x4 DUP2 SWAP1 SSTORE POP PUSH2 0x8F PUSH2 0x96 PUSH1 0x20 SHL PUSH1 0x20 SHR JUMP JUMPDEST POP POP PUSH2 0x3E6 JUMP JUMPDEST PUSH0 PUSH1 0x2 SLOAD GT ISZERO PUSH2 0x103 JUMPI PUSH1 0x6 PUSH0 PUSH1 0x2 SLOAD DUP2 MSTORE PUSH1 0x20 ADD SWAP1 DUP2 MSTORE PUSH1 0x20 ADD PUSH0 KECCAK256 PUSH1 0x5 ADD PUSH0 SWAP1 SLOAD SWAP1 PUSH2 0x100 EXP SWAP1 DIV PUSH1 0xFF AND PUSH2 0x102 JUMPI PUSH1 0x40 MLOAD PUSH32 0x8C379A000000000000000000000000000000000000000000000000000000000 DUP2 MSTORE PUSH1 0x4 ADD PUSH2 0xF9 SWAP1 PUSH2 0x329 JUMP JUMPDEST PUSH1 0x40 MLOAD DUP1 SWAP2 SUB SWAP1 REVERT JUMPDEST JUMPDEST PUSH0 PUSH2 0xE10 TIMESTAMP PUSH2 0x112 SWAP2 SWAP1 PUSH2 0x37D JUMP JUMPDEST SWAP1 POP PUSH1 0x1 PUSH1 0x2 PUSH0 DUP3 DUP3 SLOAD PUSH2 0x126 SWAP2 SWAP1 PUSH2 0x37D JUMP JUMPDEST SWAP3 POP POP DUP2 SWAP1 SSTORE POP PUSH1 0x40 MLOAD DUP1 PUSH1 0xC0 ADD PUSH1 0x40 MSTORE DUP1 TIMESTAMP DUP2 MSTORE PUSH1 0x20 ADD DUP3 DUP2 MSTORE PUSH1 0x20 ADD PUSH0 DUP2 MSTORE PUSH1 0x20 ADD PUSH0 DUP2 MSTORE PUSH1 0x20 ADD PUSH0 DUP2 MSTORE PUSH1 0x20 ADD PUSH0 ISZERO ISZERO DUP2 MSTORE POP PUSH1 0x6 PUSH0 PUSH1 0x2 SLOAD DUP2 MSTORE PUSH1 0x20 ADD SWAP1 DUP2 MSTORE PUSH1 0x20 ADD PUSH0 KECCAK256 PUSH0 DUP3 ADD MLOAD DUP2 PUSH0 ADD SSTORE PUSH1 0x20 DUP3 ADD MLOAD DUP2 PUSH1 0x1 ADD SSTORE PUSH1 0x40 DUP3 ADD MLOAD DUP2 PUSH1 0x2 ADD SSTORE PUSH1 0x60 DUP3 ADD MLOAD DUP2 PUSH1 0x3 ADD SSTORE PUSH1 0x80 DUP3 ADD MLOAD DUP2 PUSH1 0x4 ADD SSTORE PUSH1 0xA0 DUP3 ADD MLOAD DUP2 PUSH1 0x5 ADD PUSH0 PUSH2 0x100 EXP DUP2 SLOAD DUP2 PUSH1 0xFF MUL NOT AND SWAP1 DUP4 ISZERO ISZERO MUL OR SWAP1 SSTORE POP SWAP1 POP POP PUSH1 0x2 SLOAD PUSH32 0x29DB3DEB62EF2036E5EB93AAD68D2362AEC0711AF592CB365566603BD88651D4 TIMESTAMP DUP4 PUSH1 0x40 MLOAD PUSH2 0x1F5 SWAP3 SWAP2 SWAP1 PUSH2 0x3BF JUMP JUMPDEST PUSH1 0x40 MLOAD DUP1 SWAP2 SUB SWAP1 LOG2 POP JUMP JUMPDEST PUSH0 DUP1 REVERT JUMPDEST PUSH0 PUSH20 0xFFFFFFFFFFFFFFFFFFFFFFFFFFFFFFFFFFFFFFFF DUP3 AND SWAP1 POP SWAP2 SWAP1 POP JUMP JUMPDEST PUSH0 PUSH2 0x22D DUP3 PUSH2 0x204 JUMP JUMPDEST SWAP1 POP SWAP2 SWAP1 POP JUMP JUMPDEST PUSH2 0x23D DUP2 PUSH2 0x223 JUMP JUMPDEST DUP2 EQ PUSH2 0x247 JUMPI PUSH0 DUP1 REVERT JUMPDEST POP JUMP JUMPDEST PUSH0 DUP2 MLOAD SWAP1 POP PUSH2 0x258 DUP2 PUSH2 0x234 JUMP JUMPDEST SWAP3 SWAP2 POP POP JUMP JUMPDEST PUSH0 DUP2 SWAP1 POP SWAP2 SWAP1 POP JUMP JUMPDEST PUSH2 0x270 DUP2 PUSH2 0x25E JUMP JUMPDEST DUP2 EQ PUSH2 0x27A JUMPI PUSH0 DUP1 REVERT JUMPDEST POP JUMP JUMPDEST PUSH0 DUP2 MLOAD SWAP1 POP PUSH2 0x28B DUP2 PUSH2 0x267 JUMP JUMPDEST SWAP3 SWAP2 POP POP JUMP JUMPDEST PUSH0 DUP1 PUSH1 0x40 DUP4 DUP6 SUB SLT ISZERO PUSH2 0x2A7 JUMPI PUSH2 0x2A6 PUSH2 0x200 JUMP JUMPDEST JUMPDEST PUSH0 PUSH2 0x2B4 DUP6 DUP3 DUP7 ADD PUSH2 0x24A JUMP JUMPDEST SWAP3 POP POP PUSH1 0x20 PUSH2 0x2C5 DUP6 DUP3 DUP7 ADD PUSH2 0x27D JUMP JUMPDEST SWAP2 POP POP SWAP3 POP SWAP3 SWAP1 POP JUMP JUMPDEST PUSH0 DUP3 DUP3 MSTORE PUSH1 0x20 DUP3 ADD SWAP1 POP SWAP3 SWAP2 POP POP JUMP JUMPDEST PUSH32 0x50726576696F75732065706F6368206E6F742066696E616C697A656400000000 PUSH0 DUP3 ADD MSTORE POP JUMP JUMPDEST PUSH0 PUSH2 0x313 PUSH1 0x1C DUP4 PUSH2 0x2CF JUMP JUMPDEST SWAP2 POP PUSH2 0x31E DUP3 PUSH2 0x2DF JUMP JUMPDEST PUSH1 0x20 DUP3 ADD SWAP1 POP SWAP2 SWAP1 POP JUMP JUMPDEST PUSH0 PUSH1 0x20 DUP3 ADD SWAP1 POP DUP2 DUP2 SUB PUSH0 DUP4 ADD MSTORE PUSH2 0x340 DUP2 PUSH2 0x307 JUMP JUMPDEST SWAP1 POP SWAP2 SWAP1 POP JUMP JUMPDEST PUSH0 DUP2 SWAP1 POP SWAP2 SWAP1 POP JUMP JUMPDEST PUSH32 0x4E487B7100000000000000000000000000000000000000000000000000000000 PUSH0 MSTORE PUSH1 0x11 PUSH1 0x4 MSTORE PUSH1 0x24 PUSH0 REVERT JUMPDEST PUSH0 PUSH2 0x387 DUP3 PUSH2 0x347 JUMP JUMPDEST SWAP2 POP PUSH2 0x392 DUP4 PUSH2 0x347 JUMP JUMPDEST SWAP3 POP DUP3 DUP3 ADD SWAP1 POP DUP1 DUP3 GT ISZERO PUSH2 0x3AA JUMPI PUSH2 0x3A9 PUSH2 0x350 JUMP JUMPDEST JUMPDEST SWAP3 SWAP2 POP POP JUMP JUMPDEST PUSH2 0x3B9 DUP2 PUSH2 0x347 JUMP JUMPDEST DUP3 MSTORE POP POP JUMP JUMPDEST PUSH0 PUSH1 0x40 DUP3 ADD SWAP1 POP PUSH2 0x3D2 PUSH0 DUP4 ADD DUP6 PUSH2 0x3B0 JUMP JUMPDEST PUSH2 0x3DF PUSH1 0x20 DUP4 ADD DUP5 PUSH2 0x3B0 JUMP JUMPDEST SWAP4 SWAP3 POP POP POP JUMP JUMPDEST PUSH2 0x338E DUP1 PUSH2 0x3F3 PUSH0 CODECOPY PUSH0 RETURN INVALID PUSH1 0x80 PUSH1 0x40 MSTORE PUSH1 0x4 CALLDATASIZE LT PUSH2 0xC5 JUMPI PUSH0 CALLDATALOAD PUSH1 0xE0 SHR DUP1 PUSH4 0x9B23D3D9 GT PUSH2 0x7E JUMPI DUP1 PUSH4 0xB5D5B5FA GT PUSH2 0x58 JUMPI DUP1 PUSH4 0xB5D5B5FA EQ PUSH2 0x291 JUMPI DUP1 PUSH4 0xB88A802F EQ PUSH2 0x2D2 JUMPI DUP1 PUSH4 0xC6B61E4C EQ PUSH2 0x2E8 JUMPI DUP1 PUSH4 0xD6B7494F EQ PUSH2 0x329 JUMPI PUSH2 0xCC JUMP JUMPDEST DUP1 PUSH4 0x9B23D3D9 EQ PUSH2 0x1EF JUMPI DUP1 PUSH4 0x9BFD8D61 EQ PUSH2 0x22B JUMPI DUP1 PUSH4 0xAA9BBC0C EQ PUSH2 0x267 JUMPI PUSH2 0xCC JUMP JUMPDEST DUP1 PUSH4 0x9716DEE EQ PUSH2 0xCE JUMPI DUP1 PUSH4 0x15DACBEA EQ PUSH2 0xEA JUMPI DUP1 PUSH4 0x1A2A5E15 EQ PUSH2 0x126 JUMPI DUP1 PUSH4 0x2E1A7D4D EQ PUSH2 0x14E JUMPI DUP1 PUSH4 0x56FDFC57 EQ PUSH2 0x176 JUMPI DUP1 PUSH4 0x618DC65E EQ PUSH2 0x1B2 JUMPI PUSH2 0xCC JUMP JUMPDEST CALLDATASIZE PUSH2 0xCC JUMPI STOP JUMPDEST STOP JUMPDEST PUSH2 0xE8 PUSH1 0x4 DUP1 CALLDATASIZE SUB DUP2 ADD SWAP1 PUSH2 0xE3 SWAP2 SWAP1 PUSH2 0x1FE3 JUMP JUMPDEST PUSH2 0x353 JUMP JUMPDEST STOP JUMPDEST CALLVALUE DUP1 ISZERO PUSH2 0xF5 JUMPI PUSH0 DUP1 REVERT JUMPDEST POP PUSH2 0x110 PUSH1 0x4 DUP1 CALLDATASIZE SUB DUP2 ADD SWAP1 PUSH2 0x10B SWAP2 SWAP1 PUSH2 0x2079 JUMP JUMPDEST PUSH2 0x980 JUMP JUMPDEST PUSH1 0x40 MLOAD PUSH2 0x11D SWAP2 SWAP1 PUSH2 0x20F8 JUMP JUMPDEST PUSH1 0x40 MLOAD DUP1 SWAP2 SUB SWAP1 RETURN JUMPDEST CALLVALUE DUP1 ISZERO PUSH2 0x131 JUMPI PUSH0 DUP1 REVERT JUMPDEST POP PUSH2 0x14C PUSH1 0x4 DUP1 CALLDATASIZE SUB DUP2 ADD SWAP1 PUSH2 0x147 SWAP2 SWAP1 PUSH2 0x2111 JUMP JUMPDEST PUSH2 0xA98 JUMP JUMPDEST STOP JUMPDEST CALLVALUE DUP1 ISZERO PUSH2 0x159 JUMPI PUSH0 DUP1 REVERT JUMPDEST POP PUSH2 0x174 PUSH1 0x4 DUP1 CALLDATASIZE SUB DUP2 ADD SWAP1 PUSH2 0x16F SWAP2 SWAP1 PUSH2 0x213C JUMP JUMPDEST PUSH2 0xB26 JUMP JUMPDEST STOP JUMPDEST CALLVALUE DUP1 ISZERO PUSH2 0x181 JUMPI PUSH0 DUP1 REVERT JUMPDEST POP PUSH2 0x19C PUSH1 0x4 DUP1 CALLDATASIZE SUB DUP2 ADD SWAP1 PUSH2 0x197 SWAP2 SWAP1 PUSH2 0x2167 JUMP JUMPDEST PUSH2 0xFFA JUMP JUMPDEST PUSH1 0x40 MLOAD PUSH2 0x1A9 SWAP2 SWAP1 PUSH2 0x21D1 JUMP JUMPDEST PUSH1 0x40 MLOAD DUP1 SWAP2 SUB SWAP1 RETURN JUMPDEST CALLVALUE DUP1 ISZERO PUSH2 0x1BD JUMPI PUSH0 DUP1 REVERT JUMPDEST POP PUSH2 0x1D8 PUSH1 0x4 DUP1 CALLDATASIZE SUB DUP2 ADD SWAP1 PUSH2 0x1D3 SWAP2 SWAP1 PUSH2 0x2322 JUMP JUMPDEST PUSH2 0x102F JUMP JUMPDEST PUSH1 0x40 MLOAD PUSH2 0x1E6 SWAP3 SWAP2 SWAP1 PUSH2 0x23F4 JUMP JUMPDEST PUSH1 0x40 MLOAD DUP1 SWAP2 SUB SWAP1 RETURN JUMPDEST CALLVALUE DUP1 ISZERO PUSH2 0x1FA JUMPI PUSH0 DUP1 REVERT JUMPDEST POP PUSH2 0x215 PUSH1 0x4 DUP1 CALLDATASIZE SUB DUP2 ADD SWAP1 PUSH2 0x210 SWAP2 SWAP1 PUSH2 0x2079 JUMP JUMPDEST PUSH2 0x1184 JUMP JUMPDEST PUSH1 0x40 MLOAD PUSH2 0x222 SWAP2 SWAP1 PUSH2 0x20F8 JUMP JUMPDEST PUSH1 0x40 MLOAD DUP1 SWAP2 SUB SWAP1 RETURN JUMPDEST CALLVALUE DUP1 ISZERO PUSH2 0x236 JUMPI PUSH0 DUP1 REVERT JUMPDEST POP PUSH2 0x251 PUSH1 0x4 DUP1 CALLDATASIZE SUB DUP2 ADD SWAP1 PUSH2 0x24C SWAP2 SWAP1 PUSH2 0x2111 JUMP JUMPDEST PUSH2 0x129C JUMP JUMPDEST PUSH1 0x40 MLOAD PUSH2 0x25E SWAP2 SWAP1 PUSH2 0x2431 JUMP JUMPDEST PUSH1 0x40 MLOAD DUP1 SWAP2 SUB SWAP1 RETURN JUMPDEST CALLVALUE DUP1 ISZERO PUSH2 0x272 JUMPI PUSH0 DUP1 REVERT JUMPDEST POP PUSH2 0x27B PUSH2 0x12B0 JUMP JUMPDEST PUSH1 0x40 MLOAD PUSH2 0x288 SWAP2 SWAP1 PUSH2 0x2431 JUMP JUMPDEST PUSH1 0x40 MLOAD DUP1 SWAP2 SUB SWAP1 RETURN JUMPDEST CALLVALUE DUP1 ISZERO PUSH2 0x29C JUMPI PUSH0 DUP1 REVERT JUMPDEST POP PUSH2 0x2B7 PUSH1 0x4 DUP1 CALLDATASIZE SUB DUP2 ADD SWAP1 PUSH2 0x2B2 SWAP2 SWAP1 PUSH2 0x244A JUMP JUMPDEST PUSH2 0x12B6 JUMP JUMPDEST PUSH1 0x40 MLOAD PUSH2 0x2C9 SWAP7 SWAP6 SWAP5 SWAP4 SWAP3 SWAP2 SWAP1 PUSH2 0x2497 JUMP JUMPDEST PUSH1 0x40 MLOAD DUP1 SWAP2 SUB SWAP1 RETURN JUMPDEST CALLVALUE DUP1 ISZERO PUSH2 0x2DD JUMPI PUSH0 DUP1 REVERT JUMPDEST POP PUSH2 0x2E6 PUSH2 0x1327 JUMP JUMPDEST STOP JUMPDEST CALLVALUE DUP1 ISZERO PUSH2 0x2F3 JUMPI PUSH0 DUP1 REVERT JUMPDEST POP PUSH2 0x30E PUSH1 0x4 DUP1 CALLDATASIZE SUB DUP2 ADD SWAP1 PUSH2 0x309 SWAP2 SWAP1 PUSH2 0x213C JUMP JUMPDEST PUSH2 0x17CD JUMP JUMPDEST PUSH1 0x40 MLOAD PUSH2 0x320 SWAP7 SWAP6 SWAP5 SWAP4 SWAP3 SWAP2 SWAP1 PUSH2 0x24F6 JUMP JUMPDEST PUSH1 0x40 MLOAD DUP1 SWAP2 SUB SWAP1 RETURN JUMPDEST CALLVALUE DUP1 ISZERO PUSH2 0x334 JUMPI PUSH0 DUP1 REVERT JUMPDEST POP PUSH2 0x33D PUSH2 0x1811 JUMP JUMPDEST PUSH1 0x40 MLOAD PUSH2 0x34A SWAP2 SWAP1 PUSH2 0x2431 JUMP JUMPDEST PUSH1 0x40 MLOAD DUP1 SWAP2 SUB SWAP1 RETURN JUMPDEST PUSH0 PUSH1 0x6 PUSH0 PUSH1 0x2 SLOAD DUP2 MSTORE PUSH1 0x20 ADD SWAP1 DUP2 MSTORE PUSH1 0x20 ADD PUSH0 KECCAK256 PUSH1 0x40 MLOAD DUP1 PUSH1 0xC0 ADD PUSH1 0x40 MSTORE SWAP1 DUP2 PUSH0 DUP3 ADD SLOAD DUP2 MSTORE PUSH1 0x20 ADD PUSH1 0x1 DUP3 ADD SLOAD DUP2 MSTORE PUSH1 0x20 ADD PUSH1 0x2 DUP3 ADD SLOAD DUP2 MSTORE PUSH1 0x20 ADD PUSH1 0x3 DUP3 ADD SLOAD DUP2 MSTORE PUSH1 0x20 ADD PUSH1 0x4 DUP3 ADD SLOAD DUP2 MSTORE PUSH1 0x20 ADD PUSH1 0x5 DUP3 ADD PUSH0 SWAP1 SLOAD SWAP1 PUSH2 0x100 EXP SWAP1 DIV PUSH1 0xFF AND ISZERO ISZERO ISZERO ISZERO DUP2 MSTORE POP POP SWAP1 POP DUP1 PUSH1 0x20 ADD MLOAD TIMESTAMP GT ISZERO PUSH2 0x3DC JUMPI PUSH2 0x3D3 PUSH2 0x1817 JUMP JUMPDEST PUSH2 0x3DB PUSH2 0x19D7 JUMP JUMPDEST JUMPDEST PUSH0 DUP7 GT PUSH2 0x41E JUMPI PUSH1 0x40 MLOAD PUSH32 0x8C379A000000000000000000000000000000000000000000000000000000000 DUP2 MSTORE PUSH1 0x4 ADD PUSH2 0x415 SWAP1 PUSH2 0x25AF JUMP JUMPDEST PUSH1 0x40 MLOAD DUP1 SWAP2 SUB SWAP1 REVERT JUMPDEST PUSH2 0x12C DUP6 LT ISZERO DUP1 ISZERO PUSH2 0x432 JUMPI POP PUSH2 0x708 DUP6 GT ISZERO JUMPDEST PUSH2 0x471 JUMPI PUSH1 0x40 MLOAD PUSH32 0x8C379A000000000000000000000000000000000000000000000000000000000 DUP2 MSTORE PUSH1 0x4 ADD PUSH2 0x468 SWAP1 PUSH2 0x2617 JUMP JUMPDEST PUSH1 0x40 MLOAD DUP1 SWAP2 SUB SWAP1 REVERT JUMPDEST PUSH0 PUSH20 0xFFFFFFFFFFFFFFFFFFFFFFFFFFFFFFFFFFFFFFFF AND DUP8 PUSH20 0xFFFFFFFFFFFFFFFFFFFFFFFFFFFFFFFFFFFFFFFF AND SUB PUSH2 0x4EB JUMPI DUP6 CALLVALUE EQ PUSH2 0x4E6 JUMPI PUSH1 0x40 MLOAD PUSH32 0x8C379A000000000000000000000000000000000000000000000000000000000 DUP2 MSTORE PUSH1 0x4 ADD PUSH2 0x4DD SWAP1 PUSH2 0x267F JUMP JUMPDEST PUSH1 0x40 MLOAD DUP1 SWAP2 SUB SWAP1 REVERT JUMPDEST PUSH2 0x542 JUMP JUMPDEST PUSH0 PUSH2 0x4F8 DUP9 CALLER ADDRESS DUP11 PUSH2 0x1B41 JUMP JUMPDEST SWAP1 POP PUSH1 0x16 PUSH1 0x3 SIGNEXTEND DUP2 EQ PUSH2 0x540 JUMPI PUSH1 0x40 MLOAD PUSH32 0x8C379A000000000000000000000000000000000000000000000000000000000 DUP2 MSTORE PUSH1 0x4 ADD PUSH2 0x537 SWAP1 PUSH2 0x270D JUMP JUMPDEST PUSH1 0x40 MLOAD DUP1 SWAP2 SUB SWAP1 REVERT JUMPDEST POP JUMPDEST PUSH0 DUP1 DUP6 GT ISZERO PUSH2 0x557 JUMPI PUSH2 0x554 DUP6 PUSH2 0x1C59 JUMP JUMPDEST SWAP1 POP JUMPDEST PUSH0 PUSH1 0x3 PUSH0 SWAP1 SLOAD SWAP1 PUSH2 0x100 EXP SWAP1 DIV PUSH20 0xFFFFFFFFFFFFFFFFFFFFFFFFFFFFFFFFFFFFFFFF AND PUSH20 0xFFFFFFFFFFFFFFFFFFFFFFFFFFFFFFFFFFFFFFFF AND PUSH4 0xD47EED45 DUP7 DUP7 PUSH1 0x40 MLOAD DUP4 PUSH4 0xFFFFFFFF AND PUSH1 0xE0 SHL DUP2 MSTORE PUSH1 0x4 ADD PUSH2 0x5B4 SWAP3 SWAP2 SWAP1 PUSH2 0x2883 JUMP JUMPDEST PUSH1 0x20 PUSH1 0x40 MLOAD DUP1 DUP4 SUB DUP2 DUP7 GAS STATICCALL ISZERO DUP1 ISZERO PUSH2 0x5CF JUMPI RETURNDATASIZE PUSH0 DUP1 RETURNDATACOPY RETURNDATASIZE PUSH0 REVERT JUMPDEST POP POP POP POP PUSH1 0x40 MLOAD RETURNDATASIZE PUSH1 0x1F NOT PUSH1 0x1F DUP3 ADD AND DUP3 ADD DUP1 PUSH1 0x40 MSTORE POP DUP2 ADD SWAP1 PUSH2 0x5F3 SWAP2 SWAP1 PUSH2 0x28B9 JUMP JUMPDEST SWAP1 POP PUSH1 0x3 PUSH0 SWAP1 SLOAD SWAP1 PUSH2 0x100 EXP SWAP1 DIV PUSH20 0xFFFFFFFFFFFFFFFFFFFFFFFFFFFFFFFFFFFFFFFF AND PUSH20 0xFFFFFFFFFFFFFFFFFFFFFFFFFFFFFFFFFFFFFFFF AND PUSH4 0xEF9E5E28 DUP3 DUP8 DUP8 PUSH1 0x40 MLOAD DUP5 PUSH4 0xFFFFFFFF AND PUSH1 0xE0 SHL DUP2 MSTORE PUSH1 0x4 ADD PUSH2 0x652 SWAP3 SWAP2 SWAP1 PUSH2 0x2883 JUMP JUMPDEST PUSH0 PUSH1 0x40 MLOAD DUP1 DUP4 SUB DUP2 DUP6 DUP9 DUP1 EXTCODESIZE ISZERO DUP1 ISZERO PUSH2 0x669 JUMPI PUSH0 DUP1 REVERT JUMPDEST POP GAS CALL ISZERO DUP1 ISZERO PUSH2 0x67B JUMPI RETURNDATASIZE PUSH0 DUP1 RETURNDATACOPY RETURNDATASIZE PUSH0 REVERT JUMPDEST POP POP POP POP POP PUSH0 PUSH1 0x3 PUSH0 SWAP1 SLOAD SWAP1 PUSH2 0x100 EXP SWAP1 DIV PUSH20 0xFFFFFFFFFFFFFFFFFFFFFFFFFFFFFFFFFFFFFFFF AND PUSH20 0xFFFFFFFFFFFFFFFFFFFFFFFFFFFFFFFFFFFFFFFF AND PUSH4 0xA4AE35E0 PUSH1 0x4 SLOAD PUSH1 0x3C PUSH1 0x40 MLOAD DUP4 PUSH4 0xFFFFFFFF AND PUSH1 0xE0 SHL DUP2 MSTORE PUSH1 0x4 ADD PUSH2 0x6E0 SWAP3 SWAP2 SWAP1 PUSH2 0x293E JUMP JUMPDEST PUSH1 0x80 PUSH1 0x40 MLOAD DUP1 DUP4 SUB DUP2 DUP7 GAS STATICCALL ISZERO DUP1 ISZERO PUSH2 0x6FB JUMPI RETURNDATASIZE PUSH0 DUP1 RETURNDATACOPY RETURNDATASIZE PUSH0 REVERT JUMPDEST POP POP POP POP PUSH1 0x40 MLOAD RETURNDATASIZE PUSH1 0x1F NOT PUSH1 0x1F DUP3 ADD AND DUP3 ADD DUP1 PUSH1 0x40 MSTORE POP DUP2 ADD SWAP1 PUSH2 0x71F SWAP2 SWAP1 PUSH2 0x2A7B JUMP JUMPDEST SWAP1 POP PUSH0 DUP4 PUSH3 0xF4240 DUP11 PUSH2 0x732 SWAP2 SWAP1 PUSH2 0x2B00 JUMP JUMPDEST PUSH4 0x5F5E100 DUP13 DUP6 PUSH0 ADD MLOAD PUSH8 0xFFFFFFFFFFFFFFFF AND PUSH2 0x750 SWAP2 SWAP1 PUSH2 0x2B30 JUMP JUMPDEST PUSH2 0x75A SWAP2 SWAP1 PUSH2 0x2B00 JUMP JUMPDEST PUSH2 0x764 SWAP2 SWAP1 PUSH2 0x2B30 JUMP JUMPDEST PUSH2 0x76E SWAP2 SWAP1 PUSH2 0x2B30 JUMP JUMPDEST SWAP1 POP PUSH1 0x5 PUSH0 CALLER PUSH20 0xFFFFFFFFFFFFFFFFFFFFFFFFFFFFFFFFFFFFFFFF AND PUSH20 0xFFFFFFFFFFFFFFFFFFFFFFFFFFFFFFFFFFFFFFFF AND DUP2 MSTORE PUSH1 0x20 ADD SWAP1 DUP2 MSTORE PUSH1 0x20 ADD PUSH0 KECCAK256 PUSH1 0x40 MLOAD DUP1 PUSH1 0xC0 ADD PUSH1 0x40 MSTORE DUP1 DUP14 PUSH20 0xFFFFFFFFFFFFFFFFFFFFFFFFFFFFFFFFFFFFFFFF AND DUP2 MSTORE PUSH1 0x20 ADD DUP13 DUP2 MSTORE PUSH1 0x20 ADD TIMESTAMP DUP2 MSTORE PUSH1 0x20 ADD DUP12 TIMESTAMP PUSH2 0x7EC SWAP2 SWAP1 PUSH2 0x2B71 JUMP JUMPDEST DUP2 MSTORE PUSH1 0x20 ADD DUP4 DUP2 MSTORE PUSH1 0x20 ADD PUSH1 0x2 SLOAD DUP2 MSTORE POP SWAP1 DUP1 PUSH1 0x1 DUP2 SLOAD ADD DUP1 DUP3 SSTORE DUP1 SWAP2 POP POP PUSH1 0x1 SWAP1 SUB SWAP1 PUSH0 MSTORE PUSH1 0x20 PUSH0 KECCAK256 SWAP1 PUSH1 0x6 MUL ADD PUSH0 SWAP1 SWAP2 SWAP1 SWAP2 SWAP1 SWAP2 POP PUSH0 DUP3 ADD MLOAD DUP2 PUSH0 ADD PUSH0 PUSH2 0x100 EXP DUP2 SLOAD DUP2 PUSH20 0xFFFFFFFFFFFFFFFFFFFFFFFFFFFFFFFFFFFFFFFF MUL NOT AND SWAP1 DUP4 PUSH20 0xFFFFFFFFFFFFFFFFFFFFFFFFFFFFFFFFFFFFFFFF AND MUL OR SWAP1 SSTORE POP PUSH1 0x20 DUP3 ADD MLOAD DUP2 PUSH1 0x1 ADD SSTORE PUSH1 0x40 DUP3 ADD MLOAD DUP2 PUSH1 0x2 ADD SSTORE PUSH1 0x60 DUP3 ADD MLOAD DUP2 PUSH1 0x3 ADD SSTORE PUSH1 0x80 DUP3 ADD MLOAD DUP2 PUSH1 0x4 ADD SSTORE PUSH1 0xA0 DUP3 ADD MLOAD DUP2 PUSH1 0x5 ADD SSTORE POP POP DUP10 PUSH0 DUP1 DUP14 PUSH20 0xFFFFFFFFFFFFFFFFFFFFFFFFFFFFFFFFFFFFFFFF AND PUSH20 0xFFFFFFFFFFFFFFFFFFFFFFFFFFFFFFFFFFFFFFFF AND DUP2 MSTORE PUSH1 0x20 ADD SWAP1 DUP2 MSTORE PUSH1 0x20 ADD PUSH0 KECCAK256 PUSH0 DUP3 DUP3 SLOAD PUSH2 0x8E6 SWAP2 SWAP1 PUSH2 0x2B71 JUMP JUMPDEST SWAP3 POP POP DUP2 SWAP1 SSTORE POP DUP1 PUSH1 0x6 PUSH0 PUSH1 0x2 SLOAD DUP2 MSTORE PUSH1 0x20 ADD SWAP1 DUP2 MSTORE PUSH1 0x20 ADD PUSH0 KECCAK256 PUSH1 0x3 ADD PUSH0 DUP3 DUP3 SLOAD PUSH2 0x912 SWAP2 SWAP1 PUSH2 0x2B71 JUMP JUMPDEST SWAP3 POP POP DUP2 SWAP1 SSTORE POP CALLER PUSH20 0xFFFFFFFFFFFFFFFFFFFFFFFFFFFFFFFFFFFFFFFF AND PUSH32 0x9CFD25589D1EB8AD71E342A86A8524E83522E3936C0803048C08F6D9AD974F40 DUP12 TIMESTAMP DUP9 PUSH1 0x20 ADD MLOAD PUSH1 0x2 SLOAD PUSH1 0x40 MLOAD PUSH2 0x96B SWAP5 SWAP4 SWAP3 SWAP2 SWAP1 PUSH2 0x2BA4 JUMP JUMPDEST PUSH1 0x40 MLOAD DUP1 SWAP2 SUB SWAP1 LOG2 POP POP POP POP POP POP POP POP POP POP POP JUMP JUMPDEST PUSH0 DUP1 PUSH0 PUSH2 0x167 PUSH20 0xFFFFFFFFFFFFFFFFFFFFFFFFFFFFFFFFFFFFFFFF AND PUSH4 0x15DACBEA PUSH1 0xE0 SHL DUP9 DUP9 DUP9 DUP9 PUSH1 0x40 MLOAD PUSH1 0x24 ADD PUSH2 0x9BB SWAP5 SWAP4 SWAP3 SWAP2 SWAP1 PUSH2 0x2BE7 JUMP JUMPDEST PUSH1 0x40 MLOAD PUSH1 0x20 DUP2 DUP4 SUB SUB DUP2 MSTORE SWAP1 PUSH1 0x40 MSTORE SWAP1 PUSH28 0xFFFFFFFFFFFFFFFFFFFFFFFFFFFFFFFFFFFFFFFFFFFFFFFFFFFFFFFF NOT AND PUSH1 0x20 DUP3 ADD DUP1 MLOAD PUSH28 0xFFFFFFFFFFFFFFFFFFFFFFFFFFFFFFFFFFFFFFFFFFFFFFFFFFFFFFFF DUP4 DUP2 DUP4 AND OR DUP4 MSTORE POP POP POP POP PUSH1 0x40 MLOAD PUSH2 0xA25 SWAP2 SWAP1 PUSH2 0x2C64 JUMP JUMPDEST PUSH0 PUSH1 0x40 MLOAD DUP1 DUP4 SUB DUP2 PUSH0 DUP7 GAS CALL SWAP2 POP POP RETURNDATASIZE DUP1 PUSH0 DUP2 EQ PUSH2 0xA5E JUMPI PUSH1 0x40 MLOAD SWAP2 POP PUSH1 0x1F NOT PUSH1 0x3F RETURNDATASIZE ADD AND DUP3 ADD PUSH1 0x40 MSTORE RETURNDATASIZE DUP3 MSTORE RETURNDATASIZE PUSH0 PUSH1 0x20 DUP5 ADD RETURNDATACOPY PUSH2 0xA63 JUMP JUMPDEST PUSH1 0x60 SWAP2 POP JUMPDEST POP SWAP2 POP SWAP2 POP DUP2 PUSH2 0xA74 JUMPI PUSH1 0x15 PUSH2 0xA89 JUMP JUMPDEST DUP1 DUP1 PUSH1 0x20 ADD SWAP1 MLOAD DUP2 ADD SWAP1 PUSH2 0xA88 SWAP2 SWAP1 PUSH2 0x2C7A JUMP JUMPDEST JUMPDEST PUSH1 0x3 SIGNEXTEND SWAP3 POP POP POP SWAP5 SWAP4 POP POP POP POP JUMP JUMPDEST PUSH0 PUSH2 0xAA3 ADDRESS DUP4 PUSH2 0x1CC9 JUMP JUMPDEST SWAP1 POP PUSH1 0x16 PUSH1 0x3 SIGNEXTEND DUP2 EQ PUSH2 0xAEB JUMPI PUSH1 0x40 MLOAD PUSH32 0x8C379A000000000000000000000000000000000000000000000000000000000 DUP2 MSTORE PUSH1 0x4 ADD PUSH2 0xAE2 SWAP1 PUSH2 0x2CEF JUMP JUMPDEST PUSH1 0x40 MLOAD DUP1 SWAP2 SUB SWAP1 REVERT JUMPDEST PUSH32 0xBBBF805EF99CA7D0B7D2CC769719F2A281C9B3331A3642EFA75A712E3094A166 DUP3 PUSH1 0x40 MLOAD PUSH2 0xB1A SWAP2 SWAP1 PUSH2 0x2D0D JUMP JUMPDEST PUSH1 0x40 MLOAD DUP1 SWAP2 SUB SWAP1 LOG1 POP POP JUMP JUMPDEST PUSH0 PUSH1 0x5 PUSH0 CALLER PUSH20 0xFFFFFFFFFFFFFFFFFFFFFFFFFFFFFFFFFFFFFFFF AND PUSH20 0xFFFFFFFFFFFFFFFFFFFFFFFFFFFFFFFFFFFFFFFF AND DUP2 MSTORE PUSH1 0x20 ADD SWAP1 DUP2 MSTORE PUSH1 0x20 ADD PUSH0 KECCAK256 DUP1 SLOAD DUP1 PUSH1 0x20 MUL PUSH1 0x20 ADD PUSH1 0x40 MLOAD SWAP1 DUP2 ADD PUSH1 0x40 MSTORE DUP1 SWAP3 SWAP2 SWAP1 DUP2 DUP2 MSTORE PUSH1 0x20 ADD PUSH0 SWAP1 JUMPDEST DUP3 DUP3 LT ISZERO PUSH2 0xC39 JUMPI DUP4 DUP3 SWAP1 PUSH0 MSTORE PUSH1 0x20 PUSH0 KECCAK256 SWAP1 PUSH1 0x6 MUL ADD PUSH1 0x40 MLOAD DUP1 PUSH1 0xC0 ADD PUSH1 0x40 MSTORE SWAP1 DUP2 PUSH0 DUP3 ADD PUSH0 SWAP1 SLOAD SWAP1 PUSH2 0x100 EXP SWAP1 DIV PUSH20 0xFFFFFFFFFFFFFFFFFFFFFFFFFFFFFFFFFFFFFFFF AND PUSH20 0xFFFFFFFFFFFFFFFFFFFFFFFFFFFFFFFFFFFFFFFF AND PUSH20 0xFFFFFFFFFFFFFFFFFFFFFFFFFFFFFFFFFFFFFFFF AND DUP2 MSTORE PUSH1 0x20 ADD PUSH1 0x1 DUP3 ADD SLOAD DUP2 MSTORE PUSH1 0x20 ADD PUSH1 0x2 DUP3 ADD SLOAD DUP2 MSTORE PUSH1 0x20 ADD PUSH1 0x3 DUP3 ADD SLOAD DUP2 MSTORE PUSH1 0x20 ADD PUSH1 0x4 DUP3 ADD SLOAD DUP2 MSTORE PUSH1 0x20 ADD PUSH1 0x5 DUP3 ADD SLOAD DUP2 MSTORE POP POP DUP2 MSTORE PUSH1 0x20 ADD SWAP1 PUSH1 0x1 ADD SWAP1 PUSH2 0xB83 JUMP JUMPDEST POP POP POP POP SWAP1 POP DUP1 MLOAD DUP3 LT PUSH2 0xC82 JUMPI PUSH1 0x40 MLOAD PUSH32 0x8C379A000000000000000000000000000000000000000000000000000000000 DUP2 MSTORE PUSH1 0x4 ADD PUSH2 0xC79 SWAP1 PUSH2 0x2D70 JUMP JUMPDEST PUSH1 0x40 MLOAD DUP1 SWAP2 SUB SWAP1 REVERT JUMPDEST PUSH0 DUP2 DUP4 DUP2 MLOAD DUP2 LT PUSH2 0xC96 JUMPI PUSH2 0xC95 PUSH2 0x2D8E JUMP JUMPDEST JUMPDEST PUSH1 0x20 MUL PUSH1 0x20 ADD ADD MLOAD PUSH1 0x20 ADD MLOAD GT PUSH2 0xCE2 JUMPI PUSH1 0x40 MLOAD PUSH32 0x8C379A000000000000000000000000000000000000000000000000000000000 DUP2 MSTORE PUSH1 0x4 ADD PUSH2 0xCD9 SWAP1 PUSH2 0x2E05 JUMP JUMPDEST PUSH1 0x40 MLOAD DUP1 SWAP2 SUB SWAP1 REVERT JUMPDEST PUSH0 PUSH1 0x6 PUSH0 PUSH1 0x2 SLOAD DUP2 MSTORE PUSH1 0x20 ADD SWAP1 DUP2 MSTORE PUSH1 0x20 ADD PUSH0 KECCAK256 PUSH1 0x40 MLOAD DUP1 PUSH1 0xC0 ADD PUSH1 0x40 MSTORE SWAP1 DUP2 PUSH0 DUP3 ADD SLOAD DUP2 MSTORE PUSH1 0x20 ADD PUSH1 0x1 DUP3 ADD SLOAD DUP2 MSTORE PUSH1 0x20 ADD PUSH1 0x2 DUP3 ADD SLOAD DUP2 MSTORE PUSH1 0x20 ADD PUSH1 0x3 DUP3 ADD SLOAD DUP2 MSTORE PUSH1 0x20 ADD PUSH1 0x4 DUP3 ADD SLOAD DUP2 MSTORE PUSH1 0x20 ADD PUSH1 0x5 DUP3 ADD PUSH0 SWAP1 SLOAD SWAP1 PUSH2 0x100 EXP SWAP1 DIV PUSH1 0xFF AND ISZERO ISZERO ISZERO ISZERO DUP2 MSTORE POP POP SWAP1 POP DUP1 PUSH1 0x20 ADD MLOAD TIMESTAMP GT ISZERO PUSH2 0xD6B JUMPI PUSH2 0xD62 PUSH2 0x1817 JUMP JUMPDEST PUSH2 0xD6A PUSH2 0x19D7 JUMP JUMPDEST JUMPDEST PUSH0 PUSH1 0x5 PUSH0 CALLER PUSH20 0xFFFFFFFFFFFFFFFFFFFFFFFFFFFFFFFFFFFFFFFF AND PUSH20 0xFFFFFFFFFFFFFFFFFFFFFFFFFFFFFFFFFFFFFFFF AND DUP2 MSTORE PUSH1 0x20 ADD SWAP1 DUP2 MSTORE PUSH1 0x20 ADD PUSH0 KECCAK256 DUP5 DUP2 SLOAD DUP2 LT PUSH2 0xDBB JUMPI PUSH2 0xDBA PUSH2 0x2D8E JUMP JUMPDEST JUMPDEST SWAP1 PUSH0 MSTORE PUSH1 0x20 PUSH0 KECCAK256 SWAP1 PUSH1 0x6 MUL ADD PUSH1 0x1 ADD DUP2 SWAP1 SSTORE POP PUSH0 DUP3 DUP5 DUP2 MLOAD DUP2 LT PUSH2 0xDE2 JUMPI PUSH2 0xDE1 PUSH2 0x2D8E JUMP JUMPDEST JUMPDEST PUSH1 0x20 MUL PUSH1 0x20 ADD ADD MLOAD PUSH1 0x20 ADD MLOAD SWAP1 POP PUSH0 DUP4 DUP6 DUP2 MLOAD DUP2 LT PUSH2 0xE04 JUMPI PUSH2 0xE03 PUSH2 0x2D8E JUMP JUMPDEST JUMPDEST PUSH1 0x20 MUL PUSH1 0x20 ADD ADD MLOAD PUSH1 0x60 ADD MLOAD TIMESTAMP LT SWAP1 POP PUSH0 DUP2 ISZERO PUSH2 0xE72 JUMPI PUSH1 0x64 PUSH1 0x1 SLOAD DUP5 PUSH2 0xE2B SWAP2 SWAP1 PUSH2 0x2B30 JUMP JUMPDEST PUSH2 0xE35 SWAP2 SWAP1 PUSH2 0x2B00 JUMP JUMPDEST SWAP1 POP DUP1 DUP4 PUSH2 0xE43 SWAP2 SWAP1 PUSH2 0x2E23 JUMP JUMPDEST SWAP3 POP DUP1 PUSH1 0x6 PUSH0 PUSH1 0x2 SLOAD DUP2 MSTORE PUSH1 0x20 ADD SWAP1 DUP2 MSTORE PUSH1 0x20 ADD PUSH0 KECCAK256 PUSH1 0x2 ADD PUSH0 DUP3 DUP3 SLOAD PUSH2 0xE6A SWAP2 SWAP1 PUSH2 0x2B71 JUMP JUMPDEST SWAP3 POP POP DUP2 SWAP1 SSTORE POP JUMPDEST DUP1 DUP4 PUSH2 0xE7E SWAP2 SWAP1 PUSH2 0x2B71 JUMP JUMPDEST PUSH0 DUP1 DUP8 DUP10 DUP2 MLOAD DUP2 LT PUSH2 0xE93 JUMPI PUSH2 0xE92 PUSH2 0x2D8E JUMP JUMPDEST JUMPDEST PUSH1 0x20 MUL PUSH1 0x20 ADD ADD MLOAD PUSH0 ADD MLOAD PUSH20 0xFFFFFFFFFFFFFFFFFFFFFFFFFFFFFFFFFFFFFFFF AND PUSH20 0xFFFFFFFFFFFFFFFFFFFFFFFFFFFFFFFFFFFFFFFF AND DUP2 MSTORE PUSH1 0x20 ADD SWAP1 DUP2 MSTORE PUSH1 0x20 ADD PUSH0 KECCAK256 PUSH0 DUP3 DUP3 SLOAD PUSH2 0xEE5 SWAP2 SWAP1 PUSH2 0x2E23 JUMP JUMPDEST SWAP3 POP POP DUP2 SWAP1 SSTORE POP PUSH0 DUP4 GT ISZERO PUSH2 0xF9E JUMPI PUSH0 CALLER PUSH20 0xFFFFFFFFFFFFFFFFFFFFFFFFFFFFFFFFFFFFFFFF AND DUP5 PUSH1 0x40 MLOAD PUSH2 0xF19 SWAP1 PUSH2 0x2E79 JUMP JUMPDEST PUSH0 PUSH1 0x40 MLOAD DUP1 DUP4 SUB DUP2 DUP6 DUP8 GAS CALL SWAP3 POP POP POP RETURNDATASIZE DUP1 PUSH0 DUP2 EQ PUSH2 0xF53 JUMPI PUSH1 0x40 MLOAD SWAP2 POP PUSH1 0x1F NOT PUSH1 0x3F RETURNDATASIZE ADD AND DUP3 ADD PUSH1 0x40 MSTORE RETURNDATASIZE DUP3 MSTORE RETURNDATASIZE PUSH0 PUSH1 0x20 DUP5 ADD RETURNDATACOPY PUSH2 0xF58 JUMP JUMPDEST PUSH1 0x60 SWAP2 POP JUMPDEST POP POP SWAP1 POP DUP1 PUSH2 0xF9C JUMPI PUSH1 0x40 MLOAD PUSH32 0x8C379A000000000000000000000000000000000000000000000000000000000 DUP2 MSTORE PUSH1 0x4 ADD PUSH2 0xF93 SWAP1 PUSH2 0x2EFD JUMP JUMPDEST PUSH1 0x40 MLOAD DUP1 SWAP2 SUB SWAP1 REVERT JUMPDEST POP JUMPDEST CALLER PUSH20 0xFFFFFFFFFFFFFFFFFFFFFFFFFFFFFFFFFFFFFFFF AND PUSH32 0x8E74F2E568A8FC64D8E10A0DD9CE40F78F234368743079FFB0E60EE702693AC9 DUP8 DUP6 DUP6 DUP6 PUSH1 0x40 MLOAD PUSH2 0xFEA SWAP5 SWAP4 SWAP3 SWAP2 SWAP1 PUSH2 0x2F1B JUMP JUMPDEST PUSH1 0x40 MLOAD DUP1 SWAP2 SUB SWAP1 LOG2 POP POP POP POP POP POP JUMP JUMPDEST PUSH1 0x7 PUSH1 0x20 MSTORE DUP3 PUSH0 MSTORE PUSH1 0x40 PUSH0 KECCAK256 PUSH1 0x20 MSTORE DUP2 PUSH0 MSTORE PUSH1 0x40 PUSH0 KECCAK256 PUSH1 0x20 MSTORE DUP1 PUSH0 MSTORE PUSH1 0x40 PUSH0 KECCAK256 PUSH0 SWAP3 POP SWAP3 POP POP SWAP1 SLOAD SWAP1 PUSH2 0x100 EXP SWAP1 DIV PUSH1 0xFF AND DUP2 JUMP JUMPDEST PUSH0 PUSH1 0x60 PUSH0 DUP1 PUSH2 0x167 PUSH20 0xFFFFFFFFFFFFFFFFFFFFFFFFFFFFFFFFFFFFFFFF AND PUSH4 0x618DC65E PUSH1 0xE0 SHL DUP8 DUP8 PUSH1 0x40 MLOAD PUSH1 0x24 ADD PUSH2 0x1068 SWAP3 SWAP2 SWAP1 PUSH2 0x2F5E JUMP JUMPDEST PUSH1 0x40 MLOAD PUSH1 0x20 DUP2 DUP4 SUB SUB DUP2 MSTORE SWAP1 PUSH1 0x40 MSTORE SWAP1 PUSH28 0xFFFFFFFFFFFFFFFFFFFFFFFFFFFFFFFFFFFFFFFFFFFFFFFFFFFFFFFF NOT AND PUSH1 0x20 DUP3 ADD DUP1 MLOAD PUSH28 0xFFFFFFFFFFFFFFFFFFFFFFFFFFFFFFFFFFFFFFFFFFFFFFFFFFFFFFFF DUP4 DUP2 DUP4 AND OR DUP4 MSTORE POP POP POP POP PUSH1 0x40 MLOAD PUSH2 0x10D2 SWAP2 SWAP1 PUSH2 0x2C64 JUMP JUMPDEST PUSH0 PUSH1 0x40 MLOAD DUP1 DUP4 SUB DUP2 PUSH0 DUP7 GAS CALL SWAP2 POP POP RETURNDATASIZE DUP1 PUSH0 DUP2 EQ PUSH2 0x110B JUMPI PUSH1 0x40 MLOAD SWAP2 POP PUSH1 0x1F NOT PUSH1 0x3F RETURNDATASIZE ADD AND DUP3 ADD PUSH1 0x40 MSTORE RETURNDATASIZE DUP3 MSTORE RETURNDATASIZE PUSH0 PUSH1 0x20 DUP5 ADD RETURNDATACOPY PUSH2 0x1110 JUMP JUMPDEST PUSH1 0x60 SWAP2 POP JUMPDEST POP SWAP2 POP SWAP2 POP PUSH32 0x4AF4780E06FE8CB9DF64B0794FA6F01399AF979175BB988E35E0E57E594567BC DUP3 DUP3 PUSH1 0x40 MLOAD PUSH2 0x1146 SWAP3 SWAP2 SWAP1 PUSH2 0x2F8C JUMP JUMPDEST PUSH1 0x40 MLOAD DUP1 SWAP2 SUB SWAP1 LOG1 DUP2 PUSH2 0x1169 JUMPI PUSH1 0x15 PUSH1 0x40 MLOAD DUP1 PUSH1 0x20 ADD PUSH1 0x40 MSTORE DUP1 PUSH0 DUP2 MSTORE POP PUSH2 0x116D JUMP JUMPDEST PUSH1 0x16 DUP2 JUMPDEST DUP2 PUSH1 0x3 SIGNEXTEND SWAP2 POP DUP1 SWAP5 POP DUP2 SWAP6 POP POP POP POP POP SWAP3 POP SWAP3 SWAP1 POP JUMP JUMPDEST PUSH0 DUP1 PUSH0 PUSH2 0x167 PUSH20 0xFFFFFFFFFFFFFFFFFFFFFFFFFFFFFFFFFFFFFFFF AND PUSH4 0x9B23D3D9 PUSH1 0xE0 SHL DUP9 DUP9 DUP9 DUP9 PUSH1 0x40 MLOAD PUSH1 0x24 ADD PUSH2 0x11BF SWAP5 SWAP4 SWAP3 SWAP2 SWAP1 PUSH2 0x2BE7 JUMP JUMPDEST PUSH1 0x40 MLOAD PUSH1 0x20 DUP2 DUP4 SUB SUB DUP2 MSTORE SWAP1 PUSH1 0x40 MSTORE SWAP1 PUSH28 0xFFFFFFFFFFFFFFFFFFFFFFFFFFFFFFFFFFFFFFFFFFFFFFFFFFFFFFFF NOT AND PUSH1 0x20 DUP3 ADD DUP1 MLOAD PUSH28 0xFFFFFFFFFFFFFFFFFFFFFFFFFFFFFFFFFFFFFFFFFFFFFFFFFFFFFFFF DUP4 DUP2 DUP4 AND OR DUP4 MSTORE POP POP POP POP PUSH1 0x40 MLOAD PUSH2 0x1229 SWAP2 SWAP1 PUSH2 0x2C64 JUMP JUMPDEST PUSH0 PUSH1 0x40 MLOAD DUP1 DUP4 SUB DUP2 PUSH0 DUP7 GAS CALL SWAP2 POP POP RETURNDATASIZE DUP1 PUSH0 DUP2 EQ PUSH2 0x1262 JUMPI PUSH1 0x40 MLOAD SWAP2 POP PUSH1 0x1F NOT PUSH1 0x3F RETURNDATASIZE ADD AND DUP3 ADD PUSH1 0x40 MSTORE RETURNDATASIZE DUP3 MSTORE RETURNDATASIZE PUSH0 PUSH1 0x20 DUP5 ADD RETURNDATACOPY PUSH2 0x1267 JUMP JUMPDEST PUSH1 0x60 SWAP2 POP JUMPDEST POP SWAP2 POP SWAP2 POP DUP2 PUSH2 0x1278 JUMPI PUSH1 0x15 PUSH2 0x128D JUMP JUMPDEST DUP1 DUP1 PUSH1 0x20 ADD SWAP1 MLOAD DUP2 ADD SWAP1 PUSH2 0x128C SWAP2 SWAP1 PUSH2 0x2C7A JUMP JUMPDEST JUMPDEST PUSH1 0x3 SIGNEXTEND SWAP3 POP POP POP SWAP5 SWAP4 POP POP POP POP JUMP JUMPDEST PUSH0 PUSH1 0x20 MSTORE DUP1 PUSH0 MSTORE PUSH1 0x40 PUSH0 KECCAK256 PUSH0 SWAP2 POP SWAP1 POP SLOAD DUP2 JUMP JUMPDEST PUSH1 0x2 SLOAD DUP2 JUMP JUMPDEST PUSH1 0x5 PUSH1 0x20 MSTORE DUP2 PUSH0 MSTORE PUSH1 0x40 PUSH0 KECCAK256 DUP2 DUP2 SLOAD DUP2 LT PUSH2 0x12CF JUMPI PUSH0 DUP1 REVERT JUMPDEST SWAP1 PUSH0 MSTORE PUSH1 0x20 PUSH0 KECCAK256 SWAP1 PUSH1 0x6 MUL ADD PUSH0 SWAP2 POP SWAP2 POP POP DUP1 PUSH0 ADD PUSH0 SWAP1 SLOAD SWAP1 PUSH2 0x100 EXP SWAP1 DIV PUSH20 0xFFFFFFFFFFFFFFFFFFFFFFFFFFFFFFFFFFFFFFFF AND SWAP1 DUP1 PUSH1 0x1 ADD SLOAD SWAP1 DUP1 PUSH1 0x2 ADD SLOAD SWAP1 DUP1 PUSH1 0x3 ADD SLOAD SWAP1 DUP1 PUSH1 0x4 ADD SLOAD SWAP1 DUP1 PUSH1 0x5 ADD SLOAD SWAP1 POP DUP7 JUMP JUMPDEST PUSH0 PUSH1 0x5 PUSH0 CALLER PUSH20 0xFFFFFFFFFFFFFFFFFFFFFFFFFFFFFFFFFFFFFFFF AND PUSH20 0xFFFFFFFFFFFFFFFFFFFFFFFFFFFFFFFFFFFFFFFF AND DUP2 MSTORE PUSH1 0x20 ADD SWAP1 DUP2 MSTORE PUSH1 0x20 ADD PUSH0 KECCAK256 DUP1 SLOAD DUP1 PUSH1 0x20 MUL PUSH1 0x20 ADD PUSH1 0x40 MLOAD SWAP1 DUP2 ADD PUSH1 0x40 MSTORE DUP1 SWAP3 SWAP2 SWAP1 DUP2 DUP2 MSTORE PUSH1 0x20 ADD PUSH0 SWAP1 JUMPDEST DUP3 DUP3 LT ISZERO PUSH2 0x143A JUMPI DUP4 DUP3 SWAP1 PUSH0 MSTORE PUSH1 0x20 PUSH0 KECCAK256 SWAP1 PUSH1 0x6 MUL ADD PUSH1 0x40 MLOAD DUP1 PUSH1 0xC0 ADD PUSH1 0x40 MSTORE SWAP1 DUP2 PUSH0 DUP3 ADD PUSH0 SWAP1 SLOAD SWAP1 PUSH2 0x100 EXP SWAP1 DIV PUSH20 0xFFFFFFFFFFFFFFFFFFFFFFFFFFFFFFFFFFFFFFFF AND PUSH20 0xFFFFFFFFFFFFFFFFFFFFFFFFFFFFFFFFFFFFFFFF AND PUSH20 0xFFFFFFFFFFFFFFFFFFFFFFFFFFFFFFFFFFFFFFFF AND DUP2 MSTORE PUSH1 0x20 ADD PUSH1 0x1 DUP3 ADD SLOAD DUP2 MSTORE PUSH1 0x20 ADD PUSH1 0x2 DUP3 ADD SLOAD DUP2 MSTORE PUSH1 0x20 ADD PUSH1 0x3 DUP3 ADD SLOAD DUP2 MSTORE PUSH1 0x20 ADD PUSH1 0x4 DUP3 ADD SLOAD DUP2 MSTORE PUSH1 0x20 ADD PUSH1 0x5 DUP3 ADD SLOAD DUP2 MSTORE POP POP DUP2 MSTORE PUSH1 0x20 ADD SWAP1 PUSH1 0x1 ADD SWAP1 PUSH2 0x1384 JUMP JUMPDEST POP POP POP POP SWAP1 POP PUSH0 DUP2 MLOAD GT PUSH2 0x1483 JUMPI PUSH1 0x40 MLOAD PUSH32 0x8C379A000000000000000000000000000000000000000000000000000000000 DUP2 MSTORE PUSH1 0x4 ADD PUSH2 0x147A SWAP1 PUSH2 0x3004 JUMP JUMPDEST PUSH1 0x40 MLOAD DUP1 SWAP2 SUB SWAP1 REVERT JUMPDEST PUSH0 PUSH1 0x6 PUSH0 PUSH1 0x2 SLOAD DUP2 MSTORE PUSH1 0x20 ADD SWAP1 DUP2 MSTORE PUSH1 0x20 ADD PUSH0 KECCAK256 PUSH1 0x40 MLOAD DUP1 PUSH1 0xC0 ADD PUSH1 0x40 MSTORE SWAP1 DUP2 PUSH0 DUP3 ADD SLOAD DUP2 MSTORE PUSH1 0x20 ADD PUSH1 0x1 DUP3 ADD SLOAD DUP2 MSTORE PUSH1 0x20 ADD PUSH1 0x2 DUP3 ADD SLOAD DUP2 MSTORE PUSH1 0x20 ADD PUSH1 0x3 DUP3 ADD SLOAD DUP2 MSTORE PUSH1 0x20 ADD PUSH1 0x4 DUP3 ADD SLOAD DUP2 MSTORE PUSH1 0x20 ADD PUSH1 0x5 DUP3 ADD PUSH0 SWAP1 SLOAD SWAP1 PUSH2 0x100 EXP SWAP1 DIV PUSH1 0xFF AND ISZERO ISZERO ISZERO ISZERO DUP2 MSTORE POP POP SWAP1 POP DUP1 PUSH1 0x20 ADD MLOAD TIMESTAMP GT ISZERO PUSH2 0x150C JUMPI PUSH2 0x1503 PUSH2 0x1817 JUMP JUMPDEST PUSH2 0x150B PUSH2 0x19D7 JUMP JUMPDEST JUMPDEST PUSH0 DUP1 JUMPDEST DUP4 MLOAD DUP2 LT ISZERO PUSH2 0x1699 JUMPI PUSH0 DUP5 DUP3 DUP2 MLOAD DUP2 LT PUSH2 0x152C JUMPI PUSH2 0x152B PUSH2 0x2D8E JUMP JUMPDEST JUMPDEST PUSH1 0x20 MUL PUSH1 0x20 ADD ADD MLOAD PUSH1 0xA0 ADD MLOAD SWAP1 POP JUMPDEST PUSH1 0x2 SLOAD DUP2 LT ISZERO PUSH2 0x1626 JUMPI PUSH0 PUSH1 0x6 PUSH0 DUP4 DUP2 MSTORE PUSH1 0x20 ADD SWAP1 DUP2 MSTORE PUSH1 0x20 ADD PUSH0 KECCAK256 PUSH1 0x40 MLOAD DUP1 PUSH1 0xC0 ADD PUSH1 0x40 MSTORE SWAP1 DUP2 PUSH0 DUP3 ADD SLOAD DUP2 MSTORE PUSH1 0x20 ADD PUSH1 0x1 DUP3 ADD SLOAD DUP2 MSTORE PUSH1 0x20 ADD PUSH1 0x2 DUP3 ADD SLOAD DUP2 MSTORE PUSH1 0x20 ADD PUSH1 0x3 DUP3 ADD SLOAD DUP2 MSTORE PUSH1 0x20 ADD PUSH1 0x4 DUP3 ADD SLOAD DUP2 MSTORE PUSH1 0x20 ADD PUSH1 0x5 DUP3 ADD PUSH0 SWAP1 SLOAD SWAP1 PUSH2 0x100 EXP SWAP1 DIV PUSH1 0xFF AND ISZERO ISZERO ISZERO ISZERO DUP2 MSTORE POP POP SWAP1 POP DUP1 PUSH1 0xA0 ADD MLOAD DUP1 ISZERO PUSH2 0x15C4 JUMPI POP PUSH0 DUP2 PUSH1 0x80 ADD MLOAD EQ ISZERO JUMPDEST ISZERO PUSH2 0x1618 JUMPI PUSH8 0xDE0B6B3A7640000 DUP7 DUP5 DUP2 MLOAD DUP2 LT PUSH2 0x15E5 JUMPI PUSH2 0x15E4 PUSH2 0x2D8E JUMP JUMPDEST JUMPDEST PUSH1 0x20 MUL PUSH1 0x20 ADD ADD MLOAD PUSH1 0x80 ADD MLOAD DUP3 PUSH1 0x80 ADD MLOAD PUSH2 0x1600 SWAP2 SWAP1 PUSH2 0x2B30 JUMP JUMPDEST PUSH2 0x160A SWAP2 SWAP1 PUSH2 0x2B00 JUMP JUMPDEST DUP5 PUSH2 0x1615 SWAP2 SWAP1 PUSH2 0x2B71 JUMP JUMPDEST SWAP4 POP JUMPDEST POP DUP1 DUP1 PUSH1 0x1 ADD SWAP2 POP POP PUSH2 0x153B JUMP JUMPDEST POP PUSH1 0x2 SLOAD PUSH1 0x5 PUSH0 CALLER PUSH20 0xFFFFFFFFFFFFFFFFFFFFFFFFFFFFFFFFFFFFFFFF AND PUSH20 0xFFFFFFFFFFFFFFFFFFFFFFFFFFFFFFFFFFFFFFFF AND DUP2 MSTORE PUSH1 0x20 ADD SWAP1 DUP2 MSTORE PUSH1 0x20 ADD PUSH0 KECCAK256 DUP3 DUP2 SLOAD DUP2 LT PUSH2 0x1679 JUMPI PUSH2 0x1678 PUSH2 0x2D8E JUMP JUMPDEST JUMPDEST SWAP1 PUSH0 MSTORE PUSH1 0x20 PUSH0 KECCAK256 SWAP1 PUSH1 0x6 MUL ADD PUSH1 0x5 ADD DUP2 SWAP1 SSTORE POP DUP1 DUP1 PUSH1 0x1 ADD SWAP2 POP POP PUSH2 0x150F JUMP JUMPDEST POP PUSH0 DUP2 GT PUSH2 0x16DC JUMPI PUSH1 0x40 MLOAD PUSH32 0x8C379A000000000000000000000000000000000000000000000000000000000 DUP2 MSTORE PUSH1 0x4 ADD PUSH2 0x16D3 SWAP1 PUSH2 0x306C JUMP JUMPDEST PUSH1 0x40 MLOAD DUP1 SWAP2 SUB SWAP1 REVERT JUMPDEST DUP1 SELFBALANCE LT ISZERO PUSH2 0x171F JUMPI PUSH1 0x40 MLOAD PUSH32 0x8C379A000000000000000000000000000000000000000000000000000000000 DUP2 MSTORE PUSH1 0x4 ADD PUSH2 0x1716 SWAP1 PUSH2 0x30D4 JUMP JUMPDEST PUSH1 0x40 MLOAD DUP1 SWAP2 SUB SWAP1 REVERT JUMPDEST PUSH0 CALLER PUSH20 0xFFFFFFFFFFFFFFFFFFFFFFFFFFFFFFFFFFFFFFFF AND DUP3 PUSH1 0x40 MLOAD PUSH2 0x1744 SWAP1 PUSH2 0x2E79 JUMP JUMPDEST PUSH0 PUSH1 0x40 MLOAD DUP1 DUP4 SUB DUP2 DUP6 DUP8 GAS CALL SWAP3 POP POP POP RETURNDATASIZE DUP1 PUSH0 DUP2 EQ PUSH2 0x177E JUMPI PUSH1 0x40 MLOAD SWAP2 POP PUSH1 0x1F NOT PUSH1 0x3F RETURNDATASIZE ADD AND DUP3 ADD PUSH1 0x40 MSTORE RETURNDATASIZE DUP3 MSTORE RETURNDATASIZE PUSH0 PUSH1 0x20 DUP5 ADD RETURNDATACOPY PUSH2 0x1783 JUMP JUMPDEST PUSH1 0x60 SWAP2 POP JUMPDEST POP POP SWAP1 POP DUP1 PUSH2 0x17C7 JUMPI PUSH1 0x40 MLOAD PUSH32 0x8C379A000000000000000000000000000000000000000000000000000000000 DUP2 MSTORE PUSH1 0x4 ADD PUSH2 0x17BE SWAP1 PUSH2 0x313C JUMP JUMPDEST PUSH1 0x40 MLOAD DUP1 SWAP2 SUB SWAP1 REVERT JUMPDEST POP POP POP POP JUMP JUMPDEST PUSH1 0x6 PUSH1 0x20 MSTORE DUP1 PUSH0 MSTORE PUSH1 0x40 PUSH0 KECCAK256 PUSH0 SWAP2 POP SWAP1 POP DUP1 PUSH0 ADD SLOAD SWAP1 DUP1 PUSH1 0x1 ADD SLOAD SWAP1 DUP1 PUSH1 0x2 ADD SLOAD SWAP1 DUP1 PUSH1 0x3 ADD SLOAD SWAP1 DUP1 PUSH1 0x4 ADD SLOAD SWAP1 DUP1 PUSH1 0x5 ADD PUSH0 SWAP1 SLOAD SWAP1 PUSH2 0x100 EXP SWAP1 DIV PUSH1 0xFF AND SWAP1 POP DUP7 JUMP JUMPDEST PUSH1 0x1 SLOAD DUP2 JUMP JUMPDEST PUSH0 PUSH1 0x6 PUSH0 PUSH1 0x2 SLOAD DUP2 MSTORE PUSH1 0x20 ADD SWAP1 DUP2 MSTORE PUSH1 0x20 ADD PUSH0 KECCAK256 PUSH1 0x40 MLOAD DUP1 PUSH1 0xC0 ADD PUSH1 0x40 MSTORE SWAP1 DUP2 PUSH0 DUP3 ADD SLOAD DUP2 MSTORE PUSH1 0x20 ADD PUSH1 0x1 DUP3 ADD SLOAD DUP2 MSTORE PUSH1 0x20 ADD PUSH1 0x2 DUP3 ADD SLOAD DUP2 MSTORE PUSH1 0x20 ADD PUSH1 0x3 DUP3 ADD SLOAD DUP2 MSTORE PUSH1 0x20 ADD PUSH1 0x4 DUP3 ADD SLOAD DUP2 MSTORE PUSH1 0x20 ADD PUSH1 0x5 DUP3 ADD PUSH0 SWAP1 SLOAD SWAP1 PUSH2 0x100 EXP SWAP1 DIV PUSH1 0xFF AND ISZERO ISZERO ISZERO ISZERO DUP2 MSTORE POP POP SWAP1 POP DUP1 PUSH1 0xA0 ADD MLOAD ISZERO PUSH2 0x18C8 JUMPI PUSH1 0x40 MLOAD PUSH32 0x8C379A000000000000000000000000000000000000000000000000000000000 DUP2 MSTORE PUSH1 0x4 ADD PUSH2 0x18BF SWAP1 PUSH2 0x31A4 JUMP JUMPDEST PUSH1 0x40 MLOAD DUP1 SWAP2 SUB SWAP1 REVERT JUMPDEST DUP1 PUSH1 0x20 ADD MLOAD TIMESTAMP GT PUSH2 0x190E JUMPI PUSH1 0x40 MLOAD PUSH32 0x8C379A000000000000000000000000000000000000000000000000000000000 DUP2 MSTORE PUSH1 0x4 ADD PUSH2 0x1905 SWAP1 PUSH2 0x320C JUMP JUMPDEST PUSH1 0x40 MLOAD DUP1 SWAP2 SUB SWAP1 REVERT JUMPDEST PUSH1 0x1 PUSH1 0x6 PUSH0 PUSH1 0x2 SLOAD DUP2 MSTORE PUSH1 0x20 ADD SWAP1 DUP2 MSTORE PUSH1 0x20 ADD PUSH0 KECCAK256 PUSH1 0x5 ADD PUSH0 PUSH2 0x100 EXP DUP2 SLOAD DUP2 PUSH1 0xFF MUL NOT AND SWAP1 DUP4 ISZERO ISZERO MUL OR SWAP1 SSTORE POP PUSH0 DUP2 PUSH1 0x60 ADD MLOAD GT ISZERO PUSH2 0x198A JUMPI DUP1 PUSH1 0x60 ADD MLOAD PUSH8 0xDE0B6B3A7640000 DUP3 PUSH1 0x40 ADD MLOAD PUSH2 0x1965 SWAP2 SWAP1 PUSH2 0x2B30 JUMP JUMPDEST PUSH2 0x196F SWAP2 SWAP1 PUSH2 0x2B00 JUMP JUMPDEST PUSH1 0x6 PUSH0 PUSH1 0x2 SLOAD DUP2 MSTORE PUSH1 0x20 ADD SWAP1 DUP2 MSTORE PUSH1 0x20 ADD PUSH0 KECCAK256 PUSH1 0x4 ADD DUP2 SWAP1 SSTORE POP JUMPDEST PUSH1 0x2 SLOAD PUSH32 0x70801D4D63B3DA6C19BA7349911F45BED5A99CCDFB51B8138C105872529BEBD5 DUP3 PUSH1 0x40 ADD MLOAD DUP4 PUSH1 0x60 ADD MLOAD DUP5 PUSH1 0x80 ADD MLOAD PUSH1 0x40 MLOAD PUSH2 0x19CC SWAP4 SWAP3 SWAP2 SWAP1 PUSH2 0x322A JUMP JUMPDEST PUSH1 0x40 MLOAD DUP1 SWAP2 SUB SWAP1 LOG2 POP JUMP JUMPDEST PUSH0 PUSH1 0x2 SLOAD GT ISZERO PUSH2 0x1A44 JUMPI PUSH1 0x6 PUSH0 PUSH1 0x2 SLOAD DUP2 MSTORE PUSH1 0x20 ADD SWAP1 DUP2 MSTORE PUSH1 0x20 ADD PUSH0 KECCAK256 PUSH1 0x5 ADD PUSH0 SWAP1 SLOAD SWAP1 PUSH2 0x100 EXP SWAP1 DIV PUSH1 0xFF AND PUSH2 0x1A43 JUMPI PUSH1 0x40 MLOAD PUSH32 0x8C379A000000000000000000000000000000000000000000000000000000000 DUP2 MSTORE PUSH1 0x4 ADD PUSH2 0x1A3A SWAP1 PUSH2 0x32A9 JUMP JUMPDEST PUSH1 0x40 MLOAD DUP1 SWAP2 SUB SWAP1 REVERT JUMPDEST JUMPDEST PUSH0 PUSH2 0xE10 TIMESTAMP PUSH2 0x1A53 SWAP2 SWAP1 PUSH2 0x2B71 JUMP JUMPDEST SWAP1 POP PUSH1 0x1 PUSH1 0x2 PUSH0 DUP3 DUP3 SLOAD PUSH2 0x1A67 SWAP2 SWAP1 PUSH2 0x2B71 JUMP JUMPDEST SWAP3 POP POP DUP2 SWAP1 SSTORE POP PUSH1 0x40 MLOAD DUP1 PUSH1 0xC0 ADD PUSH1 0x40 MSTORE DUP1 TIMESTAMP DUP2 MSTORE PUSH1 0x20 ADD DUP3 DUP2 MSTORE PUSH1 0x20 ADD PUSH0 DUP2 MSTORE PUSH1 0x20 ADD PUSH0 DUP2 MSTORE PUSH1 0x20 ADD PUSH0 DUP2 MSTORE PUSH1 0x20 ADD PUSH0 ISZERO ISZERO DUP2 MSTORE POP PUSH1 0x6 PUSH0 PUSH1 0x2 SLOAD DUP2 MSTORE PUSH1 0x20 ADD SWAP1 DUP2 MSTORE PUSH1 0x20 ADD PUSH0 KECCAK256 PUSH0 DUP3 ADD MLOAD DUP2 PUSH0 ADD SSTORE PUSH1 0x20 DUP3 ADD MLOAD DUP2 PUSH1 0x1 ADD SSTORE PUSH1 0x40 DUP3 ADD MLOAD DUP2 PUSH1 0x2 ADD SSTORE PUSH1 0x60 DUP3 ADD MLOAD DUP2 PUSH1 0x3 ADD SSTORE PUSH1 0x80 DUP3 ADD MLOAD DUP2 PUSH1 0x4 ADD SSTORE PUSH1 0xA0 DUP3 ADD MLOAD DUP2 PUSH1 0x5 ADD PUSH0 PUSH2 0x100 EXP DUP2 SLOAD DUP2 PUSH1 0xFF MUL NOT AND SWAP1 DUP4 ISZERO ISZERO MUL OR SWAP1 SSTORE POP SWAP1 POP POP PUSH1 0x2 SLOAD PUSH32 0x29DB3DEB62EF2036E5EB93AAD68D2362AEC0711AF592CB365566603BD88651D4 TIMESTAMP DUP4 PUSH1 0x40 MLOAD PUSH2 0x1B36 SWAP3 SWAP2 SWAP1 PUSH2 0x32C7 JUMP JUMPDEST PUSH1 0x40 MLOAD DUP1 SWAP2 SUB SWAP1 LOG2 POP JUMP JUMPDEST PUSH0 DUP1 PUSH0 PUSH2 0x167 PUSH20 0xFFFFFFFFFFFFFFFFFFFFFFFFFFFFFFFFFFFFFFFF AND PUSH4 0xECA36917 PUSH1 0xE0 SHL DUP9 DUP9 DUP9 DUP9 PUSH1 0x40 MLOAD PUSH1 0x24 ADD PUSH2 0x1B7C SWAP5 SWAP4 SWAP3 SWAP2 SWAP1 PUSH2 0x32EE JUMP JUMPDEST PUSH1 0x40 MLOAD PUSH1 0x20 DUP2 DUP4 SUB SUB DUP2 MSTORE SWAP1 PUSH1 0x40 MSTORE SWAP1 PUSH28 0xFFFFFFFFFFFFFFFFFFFFFFFFFFFFFFFFFFFFFFFFFFFFFFFFFFFFFFFF NOT AND PUSH1 0x20 DUP3 ADD DUP1 MLOAD PUSH28 0xFFFFFFFFFFFFFFFFFFFFFFFFFFFFFFFFFFFFFFFFFFFFFFFFFFFFFFFF DUP4 DUP2 DUP4 AND OR DUP4 MSTORE POP POP POP POP PUSH1 0x40 MLOAD PUSH2 0x1BE6 SWAP2 SWAP1 PUSH2 0x2C64 JUMP JUMPDEST PUSH0 PUSH1 0x40 MLOAD DUP1 DUP4 SUB DUP2 PUSH0 DUP7 GAS CALL SWAP2 POP POP RETURNDATASIZE DUP1 PUSH0 DUP2 EQ PUSH2 0x1C1F JUMPI PUSH1 0x40 MLOAD SWAP2 POP PUSH1 0x1F NOT PUSH1 0x3F RETURNDATASIZE ADD AND DUP3 ADD PUSH1 0x40 MSTORE RETURNDATASIZE DUP3 MSTORE RETURNDATASIZE PUSH0 PUSH1 0x20 DUP5 ADD RETURNDATACOPY PUSH2 0x1C24 JUMP JUMPDEST PUSH1 0x60 SWAP2 POP JUMPDEST POP SWAP2 POP SWAP2 POP DUP2 PUSH2 0x1C35 JUMPI PUSH1 0x15 PUSH2 0x1C4A JUMP JUMPDEST DUP1 DUP1 PUSH1 0x20 ADD SWAP1 MLOAD DUP2 ADD SWAP1 PUSH2 0x1C49 SWAP2 SWAP1 PUSH2 0x2C7A JUMP JUMPDEST JUMPDEST PUSH1 0x3 SIGNEXTEND SWAP3 POP POP POP SWAP5 SWAP4 POP POP POP POP JUMP JUMPDEST PUSH0 PUSH1 0x1 DUP3 LT ISZERO PUSH2 0x1C6B JUMPI PUSH0 SWAP1 POP PUSH2 0x1CC4 JUMP JUMPDEST PUSH0 PUSH2 0x3E8 PUSH2 0x1C84 PUSH1 0x1 DUP6 PUSH2 0x1C7F SWAP2 SWAP1 PUSH2 0x2B71 JUMP JUMPDEST PUSH2 0x1DDB JUMP JUMPDEST PUSH2 0x1C8E SWAP2 SWAP1 PUSH2 0x2B30 JUMP JUMPDEST SWAP1 POP PUSH0 PUSH2 0x169 SWAP1 POP PUSH2 0x3E8 DUP2 DUP4 PUSH2 0x1CA5 SWAP2 SWAP1 PUSH2 0x2B30 JUMP JUMPDEST PUSH2 0x1CAF SWAP2 SWAP1 PUSH2 0x2B00 JUMP JUMPDEST SWAP3 POP PUSH2 0x9C4 DUP4 GT ISZERO PUSH2 0x1CC1 JUMPI PUSH2 0x9C4 SWAP3 POP JUMPDEST POP POP JUMPDEST SWAP2 SWAP1 POP JUMP JUMPDEST PUSH0 DUP1 PUSH0 PUSH2 0x167 PUSH20 0xFFFFFFFFFFFFFFFFFFFFFFFFFFFFFFFFFFFFFFFF AND PUSH4 0x49146BDE PUSH1 0xE0 SHL DUP7 DUP7 PUSH1 0x40 MLOAD PUSH1 0x24 ADD PUSH2 0x1D00 SWAP3 SWAP2 SWAP1 PUSH2 0x3331 JUMP JUMPDEST PUSH1 0x40 MLOAD PUSH1 0x20 DUP2 DUP4 SUB SUB DUP2 MSTORE SWAP1 PUSH1 0x40 MSTORE SWAP1 PUSH28 0xFFFFFFFFFFFFFFFFFFFFFFFFFFFFFFFFFFFFFFFFFFFFFFFFFFFFFFFF NOT AND PUSH1 0x20 DUP3 ADD DUP1 MLOAD PUSH28 0xFFFFFFFFFFFFFFFFFFFFFFFFFFFFFFFFFFFFFFFFFFFFFFFFFFFFFFFF DUP4 DUP2 DUP4 AND OR DUP4 MSTORE POP POP POP POP PUSH1 0x40 MLOAD PUSH2 0x1D6A SWAP2 SWAP1 PUSH2 0x2C64 JUMP JUMPDEST PUSH0 PUSH1 0x40 MLOAD DUP1 DUP4 SUB DUP2 PUSH0 DUP7 GAS CALL SWAP2 POP POP RETURNDATASIZE DUP1 PUSH0 DUP2 EQ PUSH2 0x1DA3 JUMPI PUSH1 0x40 MLOAD SWAP2 POP PUSH1 0x1F NOT PUSH1 0x3F RETURNDATASIZE ADD AND DUP3 ADD PUSH1 0x40 MSTORE RETURNDATASIZE DUP3 MSTORE RETURNDATASIZE PUSH0 PUSH1 0x20 DUP5 ADD RETURNDATACOPY PUSH2 0x1DA8 JUMP JUMPDEST PUSH1 0x60 SWAP2 POP JUMPDEST POP SWAP2 POP SWAP2 POP DUP2 PUSH2 0x1DB9 JUMPI PUSH1 0x15 PUSH2 0x1DCE JUMP JUMPDEST DUP1 DUP1 PUSH1 0x20 ADD SWAP1 MLOAD DUP2 ADD SWAP1 PUSH2 0x1DCD SWAP2 SWAP1 PUSH2 0x2C7A JUMP JUMPDEST JUMPDEST PUSH1 0x3 SIGNEXTEND SWAP3 POP POP POP SWAP3 SWAP2 POP POP JUMP JUMPDEST PUSH0 DUP1 PUSH0 SWAP1 POP PUSH0 PUSH2 0x1DFC PUSH16 0xFFFFFFFFFFFFFFFFFFFFFFFFFFFFFFFF DUP6 GT PUSH2 0x1ED9 JUMP JUMPDEST PUSH1 0x80 MUL SWAP1 POP DUP1 DUP5 SWAP1 SHR SWAP4 POP DUP1 DUP3 ADD SWAP2 POP PUSH2 0x1E1F PUSH8 0xFFFFFFFFFFFFFFFF DUP6 GT PUSH2 0x1ED9 JUMP JUMPDEST PUSH1 0x40 MUL SWAP1 POP DUP1 DUP5 SWAP1 SHR SWAP4 POP DUP1 DUP3 ADD SWAP2 POP PUSH2 0x1E3E PUSH4 0xFFFFFFFF DUP6 GT PUSH2 0x1ED9 JUMP JUMPDEST PUSH1 0x20 MUL SWAP1 POP DUP1 DUP5 SWAP1 SHR SWAP4 POP DUP1 DUP3 ADD SWAP2 POP PUSH2 0x1E5B PUSH2 0xFFFF DUP6 GT PUSH2 0x1ED9 JUMP JUMPDEST PUSH1 0x10 MUL SWAP1 POP DUP1 DUP5 SWAP1 SHR SWAP4 POP DUP1 DUP3 ADD SWAP2 POP PUSH2 0x1E77 PUSH1 0xFF DUP6 GT PUSH2 0x1ED9 JUMP JUMPDEST PUSH1 0x8 MUL SWAP1 POP DUP1 DUP5 SWAP1 SHR SWAP4 POP DUP1 DUP3 ADD SWAP2 POP PUSH2 0x1E93 PUSH1 0xF DUP6 GT PUSH2 0x1ED9 JUMP JUMPDEST PUSH1 0x4 MUL SWAP1 POP DUP1 DUP5 SWAP1 SHR SWAP4 POP DUP1 DUP3 ADD SWAP2 POP PUSH2 0x1EAF PUSH1 0x3 DUP6 GT PUSH2 0x1ED9 JUMP JUMPDEST PUSH1 0x2 MUL SWAP1 POP DUP1 DUP5 SWAP1 SHR SWAP4 POP DUP1 DUP3 ADD SWAP2 POP PUSH2 0x1ECB PUSH1 0x1 DUP6 GT PUSH2 0x1ED9 JUMP JUMPDEST DUP3 ADD SWAP2 POP DUP2 SWAP3 POP POP POP SWAP2 SWAP1 POP JUMP JUMPDEST PUSH0 DUP2 ISZERO ISZERO SWAP1 POP SWAP2 SWAP1 POP JUMP JUMPDEST PUSH0 PUSH1 0x40 MLOAD SWAP1 POP SWAP1 JUMP JUMPDEST PUSH0 DUP1 REVERT JUMPDEST PUSH0 DUP1 REVERT JUMPDEST PUSH0 PUSH20 0xFFFFFFFFFFFFFFFFFFFFFFFFFFFFFFFFFFFFFFFF DUP3 AND SWAP1 POP SWAP2 SWAP1 POP JUMP JUMPDEST PUSH0 PUSH2 0x1F1E DUP3 PUSH2 0x1EF5 JUMP JUMPDEST SWAP1 POP SWAP2 SWAP1 POP JUMP JUMPDEST PUSH2 0x1F2E DUP2 PUSH2 0x1F14 JUMP JUMPDEST DUP2 EQ PUSH2 0x1F38 JUMPI PUSH0 DUP1 REVERT JUMPDEST POP JUMP JUMPDEST PUSH0 DUP2 CALLDATALOAD SWAP1 POP PUSH2 0x1F49 DUP2 PUSH2 0x1F25 JUMP JUMPDEST SWAP3 SWAP2 POP POP JUMP JUMPDEST PUSH0 DUP2 SWAP1 POP SWAP2 SWAP1 POP JUMP JUMPDEST PUSH2 0x1F61 DUP2 PUSH2 0x1F4F JUMP JUMPDEST DUP2 EQ PUSH2 0x1F6B JUMPI PUSH0 DUP1 REVERT JUMPDEST POP JUMP JUMPDEST PUSH0 DUP2 CALLDATALOAD SWAP1 POP PUSH2 0x1F7C DUP2 PUSH2 0x1F58 JUMP JUMPDEST SWAP3 SWAP2 POP POP JUMP JUMPDEST PUSH0 DUP1 REVERT JUMPDEST PUSH0 DUP1 REVERT JUMPDEST PUSH0 DUP1 REVERT JUMPDEST PUSH0 DUP1 DUP4 PUSH1 0x1F DUP5 ADD SLT PUSH2 0x1FA3 JUMPI PUSH2 0x1FA2 PUSH2 0x1F82 JUMP JUMPDEST JUMPDEST DUP3 CALLDATALOAD SWAP1 POP PUSH8 0xFFFFFFFFFFFFFFFF DUP2 GT ISZERO PUSH2 0x1FC0 JUMPI PUSH2 0x1FBF PUSH2 0x1F86 JUMP JUMPDEST JUMPDEST PUSH1 0x20 DUP4 ADD SWAP2 POP DUP4 PUSH1 0x20 DUP3 MUL DUP4 ADD GT ISZERO PUSH2 0x1FDC JUMPI PUSH2 0x1FDB PUSH2 0x1F8A JUMP JUMPDEST JUMPDEST SWAP3 POP SWAP3 SWAP1 POP JUMP JUMPDEST PUSH0 DUP1 PUSH0 DUP1 PUSH0 DUP1 PUSH1 0xA0 DUP8 DUP10 SUB SLT ISZERO PUSH2 0x1FFD JUMPI PUSH2 0x1FFC PUSH2 0x1EED JUMP JUMPDEST JUMPDEST PUSH0 PUSH2 0x200A DUP10 DUP3 DUP11 ADD PUSH2 0x1F3B JUMP JUMPDEST SWAP7 POP POP PUSH1 0x20 PUSH2 0x201B DUP10 DUP3 DUP11 ADD PUSH2 0x1F6E JUMP JUMPDEST SWAP6 POP POP PUSH1 0x40 PUSH2 0x202C DUP10 DUP3 DUP11 ADD PUSH2 0x1F6E JUMP JUMPDEST SWAP5 POP POP PUSH1 0x60 PUSH2 0x203D DUP10 DUP3 DUP11 ADD PUSH2 0x1F6E JUMP JUMPDEST SWAP4 POP POP PUSH1 0x80 DUP8 ADD CALLDATALOAD PUSH8 0xFFFFFFFFFFFFFFFF DUP2 GT ISZERO PUSH2 0x205E JUMPI PUSH2 0x205D PUSH2 0x1EF1 JUMP JUMPDEST JUMPDEST PUSH2 0x206A DUP10 DUP3 DUP11 ADD PUSH2 0x1F8E JUMP JUMPDEST SWAP3 POP SWAP3 POP POP SWAP3 SWAP6 POP SWAP3 SWAP6 POP SWAP3 SWAP6 JUMP JUMPDEST PUSH0 DUP1 PUSH0 DUP1 PUSH1 0x80 DUP6 DUP8 SUB SLT ISZERO PUSH2 0x2091 JUMPI PUSH2 0x2090 PUSH2 0x1EED JUMP JUMPDEST JUMPDEST PUSH0 PUSH2 0x209E DUP8 DUP3 DUP9 ADD PUSH2 0x1F3B JUMP JUMPDEST SWAP5 POP POP PUSH1 0x20 PUSH2 0x20AF DUP8 DUP3 DUP9 ADD PUSH2 0x1F3B JUMP JUMPDEST SWAP4 POP POP PUSH1 0x40 PUSH2 0x20C0 DUP8 DUP3 DUP9 ADD PUSH2 0x1F3B JUMP JUMPDEST SWAP3 POP POP PUSH1 0x60 PUSH2 0x20D1 DUP8 DUP3 DUP9 ADD PUSH2 0x1F6E JUMP JUMPDEST SWAP2 POP POP SWAP3 SWAP6 SWAP2 SWAP5 POP SWAP3 POP JUMP JUMPDEST PUSH0 DUP2 PUSH1 0x7 SIGNEXTEND SWAP1 POP SWAP2 SWAP1 POP JUMP JUMPDEST PUSH2 0x20F2 DUP2 PUSH2 0x20DD JUMP JUMPDEST DUP3 MSTORE POP POP JUMP JUMPDEST PUSH0 PUSH1 0x20 DUP3 ADD SWAP1 POP PUSH2 0x210B PUSH0 DUP4 ADD DUP5 PUSH2 0x20E9 JUMP JUMPDEST SWAP3 SWAP2 POP POP JUMP JUMPDEST PUSH0 PUSH1 0x20 DUP3 DUP5 SUB SLT ISZERO PUSH2 0x2126 JUMPI PUSH2 0x2125 PUSH2 0x1EED JUMP JUMPDEST JUMPDEST PUSH0 PUSH2 0x2133 DUP5 DUP3 DUP6 ADD PUSH2 0x1F3B JUMP JUMPDEST SWAP2 POP POP SWAP3 SWAP2 POP POP JUMP JUMPDEST PUSH0 PUSH1 0x20 DUP3 DUP5 SUB SLT ISZERO PUSH2 0x2151 JUMPI PUSH2 0x2150 PUSH2 0x1EED JUMP JUMPDEST JUMPDEST PUSH0 PUSH2 0x215E DUP5 DUP3 DUP6 ADD PUSH2 0x1F6E JUMP JUMPDEST SWAP2 POP POP SWAP3 SWAP2 POP POP JUMP JUMPDEST PUSH0 DUP1 PUSH0 PUSH1 0x60 DUP5 DUP7 SUB SLT ISZERO PUSH2 0x217E JUMPI PUSH2 0x217D PUSH2 0x1EED JUMP JUMPDEST JUMPDEST PUSH0 PUSH2 0x218B DUP7 DUP3 DUP8 ADD PUSH2 0x1F6E JUMP JUMPDEST SWAP4 POP POP PUSH1 0x20 PUSH2 0x219C DUP7 DUP3 DUP8 ADD PUSH2 0x1F3B JUMP JUMPDEST SWAP3 POP POP PUSH1 0x40 PUSH2 0x21AD DUP7 DUP3 DUP8 ADD PUSH2 0x1F6E JUMP JUMPDEST SWAP2 POP POP SWAP3 POP SWAP3 POP SWAP3 JUMP JUMPDEST PUSH0 DUP2 ISZERO ISZERO SWAP1 POP SWAP2 SWAP1 POP JUMP JUMPDEST PUSH2 0x21CB DUP2 PUSH2 0x21B7 JUMP JUMPDEST DUP3 MSTORE POP POP JUMP JUMPDEST PUSH0 PUSH1 0x20 DUP3 ADD SWAP1 POP PUSH2 0x21E4 PUSH0 DUP4 ADD DUP5 PUSH2 0x21C2 JUMP JUMPDEST SWAP3 SWAP2 POP POP JUMP JUMPDEST PUSH0 DUP1 REVERT JUMPDEST PUSH0 PUSH1 0x1F NOT PUSH1 0x1F DUP4 ADD AND SWAP1 POP SWAP2 SWAP1 POP JUMP JUMPDEST PUSH32 0x4E487B7100000000000000000000000000000000000000000000000000000000 PUSH0 MSTORE PUSH1 0x41 PUSH1 0x4 MSTORE PUSH1 0x24 PUSH0 REVERT JUMPDEST PUSH2 0x2234 DUP3 PUSH2 0x21EE JUMP JUMPDEST DUP2 ADD DUP2 DUP2 LT PUSH8 0xFFFFFFFFFFFFFFFF DUP3 GT OR ISZERO PUSH2 0x2253 JUMPI PUSH2 0x2252 PUSH2 0x21FE JUMP JUMPDEST JUMPDEST DUP1 PUSH1 0x40 MSTORE POP POP POP JUMP JUMPDEST PUSH0 PUSH2 0x2265 PUSH2 0x1EE4 JUMP JUMPDEST SWAP1 POP PUSH2 0x2271 DUP3 DUP3 PUSH2 0x222B JUMP JUMPDEST SWAP2 SWAP1 POP JUMP JUMPDEST PUSH0 PUSH8 0xFFFFFFFFFFFFFFFF DUP3 GT ISZERO PUSH2 0x2290 JUMPI PUSH2 0x228F PUSH2 0x21FE JUMP JUMPDEST JUMPDEST PUSH2 0x2299 DUP3 PUSH2 0x21EE JUMP JUMPDEST SWAP1 POP PUSH1 0x20 DUP2 ADD SWAP1 POP SWAP2 SWAP1 POP JUMP JUMPDEST DUP3 DUP2 DUP4 CALLDATACOPY PUSH0 DUP4 DUP4 ADD MSTORE POP POP POP JUMP JUMPDEST PUSH0 PUSH2 0x22C6 PUSH2 0x22C1 DUP5 PUSH2 0x2276 JUMP JUMPDEST PUSH2 0x225C JUMP JUMPDEST SWAP1 POP DUP3 DUP2 MSTORE PUSH1 0x20 DUP2 ADD DUP5 DUP5 DUP5 ADD GT ISZERO PUSH2 0x22E2 JUMPI PUSH2 0x22E1 PUSH2 0x21EA JUMP JUMPDEST JUMPDEST PUSH2 0x22ED DUP5 DUP3 DUP6 PUSH2 0x22A6 JUMP JUMPDEST POP SWAP4 SWAP3 POP POP POP JUMP JUMPDEST PUSH0 DUP3 PUSH1 0x1F DUP4 ADD SLT PUSH2 0x2309 JUMPI PUSH2 0x2308 PUSH2 0x1F82 JUMP JUMPDEST JUMPDEST DUP2 CALLDATALOAD PUSH2 0x2319 DUP5 DUP3 PUSH1 0x20 DUP7 ADD PUSH2 0x22B4 JUMP JUMPDEST SWAP2 POP POP SWAP3 SWAP2 POP POP JUMP JUMPDEST PUSH0 DUP1 PUSH1 0x40 DUP4 DUP6 SUB SLT ISZERO PUSH2 0x2338 JUMPI PUSH2 0x2337 PUSH2 0x1EED JUMP JUMPDEST JUMPDEST PUSH0 PUSH2 0x2345 DUP6 DUP3 DUP7 ADD PUSH2 0x1F3B JUMP JUMPDEST SWAP3 POP POP PUSH1 0x20 DUP4 ADD CALLDATALOAD PUSH8 0xFFFFFFFFFFFFFFFF DUP2 GT ISZERO PUSH2 0x2366 JUMPI PUSH2 0x2365 PUSH2 0x1EF1 JUMP JUMPDEST JUMPDEST PUSH2 0x2372 DUP6 DUP3 DUP7 ADD PUSH2 0x22F5 JUMP JUMPDEST SWAP2 POP POP SWAP3 POP SWAP3 SWAP1 POP JUMP JUMPDEST PUSH0 DUP2 SWAP1 POP SWAP2 SWAP1 POP JUMP JUMPDEST PUSH2 0x238E DUP2 PUSH2 0x237C JUMP JUMPDEST DUP3 MSTORE POP POP JUMP JUMPDEST PUSH0 DUP2 MLOAD SWAP1 POP SWAP2 SWAP1 POP JUMP JUMPDEST PUSH0 DUP3 DUP3 MSTORE PUSH1 0x20 DUP3 ADD SWAP1 POP SWAP3 SWAP2 POP POP JUMP JUMPDEST DUP3 DUP2 DUP4 MCOPY PUSH0 DUP4 DUP4 ADD MSTORE POP POP POP JUMP JUMPDEST PUSH0 PUSH2 0x23C6 DUP3 PUSH2 0x2394 JUMP JUMPDEST PUSH2 0x23D0 DUP2 DUP6 PUSH2 0x239E JUMP JUMPDEST SWAP4 POP PUSH2 0x23E0 DUP2 DUP6 PUSH1 0x20 DUP7 ADD PUSH2 0x23AE JUMP JUMPDEST PUSH2 0x23E9 DUP2 PUSH2 0x21EE JUMP JUMPDEST DUP5 ADD SWAP2 POP POP SWAP3 SWAP2 POP POP JUMP JUMPDEST PUSH0 PUSH1 0x40 DUP3 ADD SWAP1 POP PUSH2 0x2407 PUSH0 DUP4 ADD DUP6 PUSH2 0x2385 JUMP JUMPDEST DUP2 DUP2 SUB PUSH1 0x20 DUP4 ADD MSTORE PUSH2 0x2419 DUP2 DUP5 PUSH2 0x23BC JUMP JUMPDEST SWAP1 POP SWAP4 SWAP3 POP POP POP JUMP JUMPDEST PUSH2 0x242B DUP2 PUSH2 0x1F4F JUMP JUMPDEST DUP3 MSTORE POP POP JUMP JUMPDEST PUSH0 PUSH1 0x20 DUP3 ADD SWAP1 POP PUSH2 0x2444 PUSH0 DUP4 ADD DUP5 PUSH2 0x2422 JUMP JUMPDEST SWAP3 SWAP2 POP POP JUMP JUMPDEST PUSH0 DUP1 PUSH1 0x40 DUP4 DUP6 SUB SLT ISZERO PUSH2 0x2460 JUMPI PUSH2 0x245F PUSH2 0x1EED JUMP JUMPDEST JUMPDEST PUSH0 PUSH2 0x246D DUP6 DUP3 DUP7 ADD PUSH2 0x1F3B JUMP JUMPDEST SWAP3 POP POP PUSH1 0x20 PUSH2 0x247E DUP6 DUP3 DUP7 ADD PUSH2 0x1F6E JUMP JUMPDEST SWAP2 POP POP SWAP3 POP SWAP3 SWAP1 POP JUMP JUMPDEST PUSH2 0x2491 DUP2 PUSH2 0x1F14 JUMP JUMPDEST DUP3 MSTORE POP POP JUMP JUMPDEST PUSH0 PUSH1 0xC0 DUP3 ADD SWAP1 POP PUSH2 0x24AA PUSH0 DUP4 ADD DUP10 PUSH2 0x2488 JUMP JUMPDEST PUSH2 0x24B7 PUSH1 0x20 DUP4 ADD DUP9 PUSH2 0x2422 JUMP JUMPDEST PUSH2 0x24C4 PUSH1 0x40 DUP4 ADD DUP8 PUSH2 0x2422 JUMP JUMPDEST PUSH2 0x24D1 PUSH1 0x60 DUP4 ADD DUP7 PUSH2 0x2422 JUMP JUMPDEST PUSH2 0x24DE PUSH1 0x80 DUP4 ADD DUP6 PUSH2 0x2422 JUMP JUMPDEST PUSH2 0x24EB PUSH1 0xA0 DUP4 ADD DUP5 PUSH2 0x2422 JUMP JUMPDEST SWAP8 SWAP7 POP POP POP POP POP POP POP JUMP JUMPDEST PUSH0 PUSH1 0xC0 DUP3 ADD SWAP1 POP PUSH2 0x2509 PUSH0 DUP4 ADD DUP10 PUSH2 0x2422 JUMP JUMPDEST PUSH2 0x2516 PUSH1 0x20 DUP4 ADD DUP9 PUSH2 0x2422 JUMP JUMPDEST PUSH2 0x2523 PUSH1 0x40 DUP4 ADD DUP8 PUSH2 0x2422 JUMP JUMPDEST PUSH2 0x2530 PUSH1 0x60 DUP4 ADD DUP7 PUSH2 0x2422 JUMP JUMPDEST PUSH2 0x253D PUSH1 0x80 DUP4 ADD DUP6 PUSH2 0x2422 JUMP JUMPDEST PUSH2 0x254A PUSH1 0xA0 DUP4 ADD DUP5 PUSH2 0x21C2 JUMP JUMPDEST SWAP8 SWAP7 POP POP POP POP POP POP POP JUMP JUMPDEST PUSH0 DUP3 DUP3 MSTORE PUSH1 0x20 DUP3 ADD SWAP1 POP SWAP3 SWAP2 POP POP JUMP JUMPDEST PUSH32 0x5374616B6520616D6F756E74206D757374206265203E20300000000000000000 PUSH0 DUP3 ADD MSTORE POP JUMP JUMPDEST PUSH0 PUSH2 0x2599 PUSH1 0x18 DUP4 PUSH2 0x2555 JUMP JUMPDEST SWAP2 POP PUSH2 0x25A4 DUP3 PUSH2 0x2565 JUMP JUMPDEST PUSH1 0x20 DUP3 ADD SWAP1 POP SWAP2 SWAP1 POP JUMP JUMPDEST PUSH0 PUSH1 0x20 DUP3 ADD SWAP1 POP DUP2 DUP2 SUB PUSH0 DUP4 ADD MSTORE PUSH2 0x25C6 DUP2 PUSH2 0x258D JUMP JUMPDEST SWAP1 POP SWAP2 SWAP1 POP JUMP JUMPDEST PUSH32 0x57726F6E67207374616B65206475726174696F6E000000000000000000000000 PUSH0 DUP3 ADD MSTORE POP JUMP JUMPDEST PUSH0 PUSH2 0x2601 PUSH1 0x14 DUP4 PUSH2 0x2555 JUMP JUMPDEST SWAP2 POP PUSH2 0x260C DUP3 PUSH2 0x25CD JUMP JUMPDEST PUSH1 0x20 DUP3 ADD SWAP1 POP SWAP2 SWAP1 POP JUMP JUMPDEST PUSH0 PUSH1 0x20 DUP3 ADD SWAP1 POP DUP2 DUP2 SUB PUSH0 DUP4 ADD MSTORE PUSH2 0x262E DUP2 PUSH2 0x25F5 JUMP JUMPDEST SWAP1 POP SWAP2 SWAP1 POP JUMP JUMPDEST PUSH32 0x496E636F7272656374204842415220616D6F756E742073656E74000000000000 PUSH0 DUP3 ADD MSTORE POP JUMP JUMPDEST PUSH0 PUSH2 0x2669 PUSH1 0x1A DUP4 PUSH2 0x2555 JUMP JUMPDEST SWAP2 POP PUSH2 0x2674 DUP3 PUSH2 0x2635 JUMP JUMPDEST PUSH1 0x20 DUP3 ADD SWAP1 POP SWAP2 SWAP1 POP JUMP JUMPDEST PUSH0 PUSH1 0x20 DUP3 ADD SWAP1 POP DUP2 DUP2 SUB PUSH0 DUP4 ADD MSTORE PUSH2 0x2696 DUP2 PUSH2 0x265D JUMP JUMPDEST SWAP1 POP SWAP2 SWAP1 POP JUMP JUMPDEST PUSH32 0x546F6B656E207472616E7366657220746F2065786368616E6765206661696C65 PUSH0 DUP3 ADD MSTORE PUSH32 0x6400000000000000000000000000000000000000000000000000000000000000 PUSH1 0x20 DUP3 ADD MSTORE POP JUMP JUMPDEST PUSH0 PUSH2 0x26F7 PUSH1 0x21 DUP4 PUSH2 0x2555 JUMP JUMPDEST SWAP2 POP PUSH2 0x2702 DUP3 PUSH2 0x269D JUMP JUMPDEST PUSH1 0x40 DUP3 ADD SWAP1 POP SWAP2 SWAP1 POP JUMP JUMPDEST PUSH0 PUSH1 0x20 DUP3 ADD SWAP1 POP DUP2 DUP2 SUB PUSH0 DUP4 ADD MSTORE PUSH2 0x2724 DUP2 PUSH2 0x26EB JUMP JUMPDEST SWAP1 POP SWAP2 SWAP1 POP JUMP JUMPDEST PUSH0 DUP3 DUP3 MSTORE PUSH1 0x20 DUP3 ADD SWAP1 POP SWAP3 SWAP2 POP POP JUMP JUMPDEST PUSH0 DUP2 SWAP1 POP SWAP2 SWAP1 POP JUMP JUMPDEST PUSH0 DUP3 DUP3 MSTORE PUSH1 0x20 DUP3 ADD SWAP1 POP SWAP3 SWAP2 POP POP JUMP JUMPDEST PUSH0 PUSH2 0x275F DUP4 DUP6 PUSH2 0x2744 JUMP JUMPDEST SWAP4 POP PUSH2 0x276C DUP4 DUP6 DUP5 PUSH2 0x22A6 JUMP JUMPDEST PUSH2 0x2775 DUP4 PUSH2 0x21EE JUMP JUMPDEST DUP5 ADD SWAP1 POP SWAP4 SWAP3 POP POP POP JUMP JUMPDEST PUSH0 PUSH2 0x278C DUP5 DUP5 DUP5 PUSH2 0x2754 JUMP JUMPDEST SWAP1 POP SWAP4 SWAP3 POP POP POP JUMP JUMPDEST PUSH0 DUP1 REVERT JUMPDEST PUSH0 DUP1 REVERT JUMPDEST PUSH0 DUP1 REVERT JUMPDEST PUSH0 DUP1 DUP4 CALLDATALOAD PUSH1 0x1 PUSH1 0x20 SUB DUP5 CALLDATASIZE SUB SUB DUP2 SLT PUSH2 0x27BD JUMPI PUSH2 0x27BC PUSH2 0x279D JUMP JUMPDEST JUMPDEST DUP4 DUP2 ADD SWAP3 POP DUP3 CALLDATALOAD SWAP2 POP PUSH1 0x20 DUP4 ADD SWAP3 POP PUSH8 0xFFFFFFFFFFFFFFFF DUP3 GT ISZERO PUSH2 0x27E5 JUMPI PUSH2 0x27E4 PUSH2 0x2795 JUMP JUMPDEST JUMPDEST PUSH1 0x1 DUP3 MUL CALLDATASIZE SUB DUP4 SGT ISZERO PUSH2 0x27FB JUMPI PUSH2 0x27FA PUSH2 0x2799 JUMP JUMPDEST JUMPDEST POP SWAP3 POP SWAP3 SWAP1 POP JUMP JUMPDEST PUSH0 PUSH1 0x20 DUP3 ADD SWAP1 POP SWAP2 SWAP1 POP JUMP JUMPDEST PUSH0 PUSH2 0x281A DUP4 DUP6 PUSH2 0x272B JUMP JUMPDEST SWAP4 POP DUP4 PUSH1 0x20 DUP5 MUL DUP6 ADD PUSH2 0x282C DUP5 PUSH2 0x273B JUMP JUMPDEST DUP1 PUSH0 JUMPDEST DUP8 DUP2 LT ISZERO PUSH2 0x2871 JUMPI DUP5 DUP5 SUB DUP10 MSTORE PUSH2 0x2846 DUP3 DUP5 PUSH2 0x27A1 JUMP JUMPDEST PUSH2 0x2851 DUP7 DUP3 DUP5 PUSH2 0x2780 JUMP JUMPDEST SWAP6 POP PUSH2 0x285C DUP5 PUSH2 0x2803 JUMP JUMPDEST SWAP4 POP PUSH1 0x20 DUP12 ADD SWAP11 POP POP POP PUSH1 0x1 DUP2 ADD SWAP1 POP PUSH2 0x282F JUMP JUMPDEST POP DUP3 SWAP8 POP DUP8 SWAP5 POP POP POP POP POP SWAP4 SWAP3 POP POP POP JUMP JUMPDEST PUSH0 PUSH1 0x20 DUP3 ADD SWAP1 POP DUP2 DUP2 SUB PUSH0 DUP4 ADD MSTORE PUSH2 0x289C DUP2 DUP5 DUP7 PUSH2 0x280F JUMP JUMPDEST SWAP1 POP SWAP4 SWAP3 POP POP POP JUMP JUMPDEST PUSH0 DUP2 MLOAD SWAP1 POP PUSH2 0x28B3 DUP2 PUSH2 0x1F58 JUMP JUMPDEST SWAP3 SWAP2 POP POP JUMP JUMPDEST PUSH0 PUSH1 0x20 DUP3 DUP5 SUB SLT ISZERO PUSH2 0x28CE JUMPI PUSH2 0x28CD PUSH2 0x1EED JUMP JUMPDEST JUMPDEST PUSH0 PUSH2 0x28DB DUP5 DUP3 DUP6 ADD PUSH2 0x28A5 JUMP JUMPDEST SWAP2 POP POP SWAP3 SWAP2 POP POP JUMP JUMPDEST PUSH0 DUP2 SWAP1 POP SWAP2 SWAP1 POP JUMP JUMPDEST PUSH2 0x28F6 DUP2 PUSH2 0x28E4 JUMP JUMPDEST DUP3 MSTORE POP POP JUMP JUMPDEST PUSH0 DUP2 SWAP1 POP SWAP2 SWAP1 POP JUMP JUMPDEST PUSH0 DUP2 SWAP1 POP SWAP2 SWAP1 POP JUMP JUMPDEST PUSH0 PUSH2 0x2928 PUSH2 0x2923 PUSH2 0x291E DUP5 PUSH2 0x28FC JUMP JUMPDEST PUSH2 0x2905 JUMP JUMPDEST PUSH2 0x1F4F JUMP JUMPDEST SWAP1 POP SWAP2 SWAP1 POP JUMP JUMPDEST PUSH2 0x2938 DUP2 PUSH2 0x290E JUMP JUMPDEST DUP3 MSTORE POP POP JUMP JUMPDEST PUSH0 PUSH1 0x40 DUP3 ADD SWAP1 POP PUSH2 0x2951 PUSH0 DUP4 ADD DUP6 PUSH2 0x28ED JUMP JUMPDEST PUSH2 0x295E PUSH1 0x20 DUP4 ADD DUP5 PUSH2 0x292F JUMP JUMPDEST SWAP4 SWAP3 POP POP POP JUMP JUMPDEST PUSH0 DUP1 REVERT JUMPDEST PUSH2 0x2972 DUP2 PUSH2 0x20DD JUMP JUMPDEST DUP2 EQ PUSH2 0x297C JUMPI PUSH0 DUP1 REVERT JUMPDEST POP JUMP JUMPDEST PUSH0 DUP2 MLOAD SWAP1 POP PUSH2 0x298D DUP2 PUSH2 0x2969 JUMP JUMPDEST SWAP3 SWAP2 POP POP JUMP JUMPDEST PUSH0 PUSH8 0xFFFFFFFFFFFFFFFF DUP3 AND SWAP1 POP SWAP2 SWAP1 POP JUMP JUMPDEST PUSH2 0x29AF DUP2 PUSH2 0x2993 JUMP JUMPDEST DUP2 EQ PUSH2 0x29B9 JUMPI PUSH0 DUP1 REVERT JUMPDEST POP JUMP JUMPDEST PUSH0 DUP2 MLOAD SWAP1 POP PUSH2 0x29CA DUP2 PUSH2 0x29A6 JUMP JUMPDEST SWAP3 SWAP2 POP POP JUMP JUMPDEST PUSH0 DUP2 PUSH1 0x3 SIGNEXTEND SWAP1 POP SWAP2 SWAP1 POP JUMP JUMPDEST PUSH2 0x29E5 DUP2 PUSH2 0x29D0 JUMP JUMPDEST DUP2 EQ PUSH2 0x29EF JUMPI PUSH0 DUP1 REVERT JUMPDEST POP JUMP JUMPDEST PUSH0 DUP2 MLOAD SWAP1 POP PUSH2 0x2A00 DUP2 PUSH2 0x29DC JUMP JUMPDEST SWAP3 SWAP2 POP POP JUMP JUMPDEST PUSH0 PUSH1 0x80 DUP3 DUP5 SUB SLT ISZERO PUSH2 0x2A1B JUMPI PUSH2 0x2A1A PUSH2 0x2965 JUMP JUMPDEST JUMPDEST PUSH2 0x2A25 PUSH1 0x80 PUSH2 0x225C JUMP JUMPDEST SWAP1 POP PUSH0 PUSH2 0x2A34 DUP5 DUP3 DUP6 ADD PUSH2 0x297F JUMP JUMPDEST PUSH0 DUP4 ADD MSTORE POP PUSH1 0x20 PUSH2 0x2A47 DUP5 DUP3 DUP6 ADD PUSH2 0x29BC JUMP JUMPDEST PUSH1 0x20 DUP4 ADD MSTORE POP PUSH1 0x40 PUSH2 0x2A5B DUP5 DUP3 DUP6 ADD PUSH2 0x29F2 JUMP JUMPDEST PUSH1 0x40 DUP4 ADD MSTORE POP PUSH1 0x60 PUSH2 0x2A6F DUP5 DUP3 DUP6 ADD PUSH2 0x28A5 JUMP JUMPDEST PUSH1 0x60 DUP4 ADD MSTORE POP SWAP3 SWAP2 POP POP JUMP JUMPDEST PUSH0 PUSH1 0x80 DUP3 DUP5 SUB SLT ISZERO PUSH2 0x2A90 JUMPI PUSH2 0x2A8F PUSH2 0x1EED JUMP JUMPDEST JUMPDEST PUSH0 PUSH2 0x2A9D DUP5 DUP3 DUP6 ADD PUSH2 0x2A06 JUMP JUMPDEST SWAP2 POP POP SWAP3 SWAP2 POP POP JUMP JUMPDEST PUSH32 0x4E487B7100000000000000000000000000000000000000000000000000000000 PUSH0 MSTORE PUSH1 0x12 PUSH1 0x4 MSTORE PUSH1 0x24 PUSH0 REVERT JUMPDEST PUSH32 0x4E487B7100000000000000000000000000000000000000000000000000000000 PUSH0 MSTORE PUSH1 0x11 PUSH1 0x4 MSTORE PUSH1 0x24 PUSH0 REVERT JUMPDEST PUSH0 PUSH2 0x2B0A DUP3 PUSH2 0x1F4F JUMP JUMPDEST SWAP2 POP PUSH2 0x2B15 DUP4 PUSH2 0x1F4F JUMP JUMPDEST SWAP3 POP DUP3 PUSH2 0x2B25 JUMPI PUSH2 0x2B24 PUSH2 0x2AA6 JUMP JUMPDEST JUMPDEST DUP3 DUP3 DIV SWAP1 POP SWAP3 SWAP2 POP POP JUMP JUMPDEST PUSH0 PUSH2 0x2B3A DUP3 PUSH2 0x1F4F JUMP JUMPDEST SWAP2 POP PUSH2 0x2B45 DUP4 PUSH2 0x1F4F JUMP JUMPDEST SWAP3 POP DUP3 DUP3 MUL PUSH2 0x2B53 DUP2 PUSH2 0x1F4F JUMP JUMPDEST SWAP2 POP DUP3 DUP3 DIV DUP5 EQ DUP4 ISZERO OR PUSH2 0x2B6A JUMPI PUSH2 0x2B69 PUSH2 0x2AD3 JUMP JUMPDEST JUMPDEST POP SWAP3 SWAP2 POP POP JUMP JUMPDEST PUSH0 PUSH2 0x2B7B DUP3 PUSH2 0x1F4F JUMP JUMPDEST SWAP2 POP PUSH2 0x2B86 DUP4 PUSH2 0x1F4F JUMP JUMPDEST SWAP3 POP DUP3 DUP3 ADD SWAP1 POP DUP1 DUP3 GT ISZERO PUSH2 0x2B9E JUMPI PUSH2 0x2B9D PUSH2 0x2AD3 JUMP JUMPDEST JUMPDEST SWAP3 SWAP2 POP POP JUMP JUMPDEST PUSH0 PUSH1 0x80 DUP3 ADD SWAP1 POP PUSH2 0x2BB7 PUSH0 DUP4 ADD DUP8 PUSH2 0x2422 JUMP JUMPDEST PUSH2 0x2BC4 PUSH1 0x20 DUP4 ADD DUP7 PUSH2 0x2422 JUMP JUMPDEST PUSH2 0x2BD1 PUSH1 0x40 DUP4 ADD DUP6 PUSH2 0x2422 JUMP JUMPDEST PUSH2 0x2BDE PUSH1 0x60 DUP4 ADD DUP5 PUSH2 0x2422 JUMP JUMPDEST SWAP6 SWAP5 POP POP POP POP POP JUMP JUMPDEST PUSH0 PUSH1 0x80 DUP3 ADD SWAP1 POP PUSH2 0x2BFA PUSH0 DUP4 ADD DUP8 PUSH2 0x2488 JUMP JUMPDEST PUSH2 0x2C07 PUSH1 0x20 DUP4 ADD DUP7 PUSH2 0x2488 JUMP JUMPDEST PUSH2 0x2C14 PUSH1 0x40 DUP4 ADD DUP6 PUSH2 0x2488 JUMP JUMPDEST PUSH2 0x2C21 PUSH1 0x60 DUP4 ADD DUP5 PUSH2 0x2422 JUMP JUMPDEST SWAP6 SWAP5 POP POP POP POP POP JUMP JUMPDEST PUSH0 DUP2 SWAP1 POP SWAP3 SWAP2 POP POP JUMP JUMPDEST PUSH0 PUSH2 0x2C3E DUP3 PUSH2 0x2394 JUMP JUMPDEST PUSH2 0x2C48 DUP2 DUP6 PUSH2 0x2C2A JUMP JUMPDEST SWAP4 POP PUSH2 0x2C58 DUP2 DUP6 PUSH1 0x20 DUP7 ADD PUSH2 0x23AE JUMP JUMPDEST DUP1 DUP5 ADD SWAP2 POP POP SWAP3 SWAP2 POP POP JUMP JUMPDEST PUSH0 PUSH2 0x2C6F DUP3 DUP5 PUSH2 0x2C34 JUMP JUMPDEST SWAP2 POP DUP2 SWAP1 POP SWAP3 SWAP2 POP POP JUMP JUMPDEST PUSH0 PUSH1 0x20 DUP3 DUP5 SUB SLT ISZERO PUSH2 0x2C8F JUMPI PUSH2 0x2C8E PUSH2 0x1EED JUMP JUMPDEST JUMPDEST PUSH0 PUSH2 0x2C9C DUP5 DUP3 DUP6 ADD PUSH2 0x29F2 JUMP JUMPDEST SWAP2 POP POP SWAP3 SWAP2 POP POP JUMP JUMPDEST PUSH32 0x4173736F6369617465204661696C656400000000000000000000000000000000 PUSH0 DUP3 ADD MSTORE POP JUMP JUMPDEST PUSH0 PUSH2 0x2CD9 PUSH1 0x10 DUP4 PUSH2 0x2555 JUMP JUMPDEST SWAP2 POP PUSH2 0x2CE4 DUP3 PUSH2 0x2CA5 JUMP JUMPDEST PUSH1 0x20 DUP3 ADD SWAP1 POP SWAP2 SWAP1 POP JUMP JUMPDEST PUSH0 PUSH1 0x20 DUP3 ADD SWAP1 POP DUP2 DUP2 SUB PUSH0 DUP4 ADD MSTORE PUSH2 0x2D06 DUP2 PUSH2 0x2CCD JUMP JUMPDEST SWAP1 POP SWAP2 SWAP1 POP JUMP JUMPDEST PUSH0 PUSH1 0x20 DUP3 ADD SWAP1 POP PUSH2 0x2D20 PUSH0 DUP4 ADD DUP5 PUSH2 0x2488 JUMP JUMPDEST SWAP3 SWAP2 POP POP JUMP JUMPDEST PUSH32 0x496E76616C696420696E64657800000000000000000000000000000000000000 PUSH0 DUP3 ADD MSTORE POP JUMP JUMPDEST PUSH0 PUSH2 0x2D5A PUSH1 0xD DUP4 PUSH2 0x2555 JUMP JUMPDEST SWAP2 POP PUSH2 0x2D65 DUP3 PUSH2 0x2D26 JUMP JUMPDEST PUSH1 0x20 DUP3 ADD SWAP1 POP SWAP2 SWAP1 POP JUMP JUMPDEST PUSH0 PUSH1 0x20 DUP3 ADD SWAP1 POP DUP2 DUP2 SUB PUSH0 DUP4 ADD MSTORE PUSH2 0x2D87 DUP2 PUSH2 0x2D4E JUMP JUMPDEST SWAP1 POP SWAP2 SWAP1 POP JUMP JUMPDEST PUSH32 0x4E487B7100000000000000000000000000000000000000000000000000000000 PUSH0 MSTORE PUSH1 0x32 PUSH1 0x4 MSTORE PUSH1 0x24 PUSH0 REVERT JUMPDEST PUSH32 0x416C72656164792077697468647261776E000000000000000000000000000000 PUSH0 DUP3 ADD MSTORE POP JUMP JUMPDEST PUSH0 PUSH2 0x2DEF PUSH1 0x11 DUP4 PUSH2 0x2555 JUMP JUMPDEST SWAP2 POP PUSH2 0x2DFA DUP3 PUSH2 0x2DBB JUMP JUMPDEST PUSH1 0x20 DUP3 ADD SWAP1 POP SWAP2 SWAP1 POP JUMP JUMPDEST PUSH0 PUSH1 0x20 DUP3 ADD SWAP1 POP DUP2 DUP2 SUB PUSH0 DUP4 ADD MSTORE PUSH2 0x2E1C DUP2 PUSH2 0x2DE3 JUMP JUMPDEST SWAP1 POP SWAP2 SWAP1 POP JUMP JUMPDEST PUSH0 PUSH2 0x2E2D DUP3 PUSH2 0x1F4F JUMP JUMPDEST SWAP2 POP PUSH2 0x2E38 DUP4 PUSH2 0x1F4F JUMP JUMPDEST SWAP3 POP DUP3 DUP3 SUB SWAP1 POP DUP2 DUP2 GT ISZERO PUSH2 0x2E50 JUMPI PUSH2 0x2E4F PUSH2 0x2AD3 JUMP JUMPDEST JUMPDEST SWAP3 SWAP2 POP POP JUMP JUMPDEST POP JUMP JUMPDEST PUSH0 PUSH2 0x2E64 PUSH0 DUP4 PUSH2 0x2C2A JUMP JUMPDEST SWAP2 POP PUSH2 0x2E6F DUP3 PUSH2 0x2E56 JUMP JUMPDEST PUSH0 DUP3 ADD SWAP1 POP SWAP2 SWAP1 POP JUMP JUMPDEST PUSH0 PUSH2 0x2E83 DUP3 PUSH2 0x2E59 JUMP JUMPDEST SWAP2 POP DUP2 SWAP1 POP SWAP2 SWAP1 POP JUMP JUMPDEST PUSH32 0x4661696C656420746F2073656E64204842415220746F206578697374696E6720 PUSH0 DUP3 ADD MSTORE PUSH32 0x7265717565737465720000000000000000000000000000000000000000000000 PUSH1 0x20 DUP3 ADD MSTORE POP JUMP JUMPDEST PUSH0 PUSH2 0x2EE7 PUSH1 0x29 DUP4 PUSH2 0x2555 JUMP JUMPDEST SWAP2 POP PUSH2 0x2EF2 DUP3 PUSH2 0x2E8D JUMP JUMPDEST PUSH1 0x40 DUP3 ADD SWAP1 POP SWAP2 SWAP1 POP JUMP JUMPDEST PUSH0 PUSH1 0x20 DUP3 ADD SWAP1 POP DUP2 DUP2 SUB PUSH0 DUP4 ADD MSTORE PUSH2 0x2F14 DUP2 PUSH2 0x2EDB JUMP JUMPDEST SWAP1 POP SWAP2 SWAP1 POP JUMP JUMPDEST PUSH0 PUSH1 0x80 DUP3 ADD SWAP1 POP PUSH2 0x2F2E PUSH0 DUP4 ADD DUP8 PUSH2 0x2422 JUMP JUMPDEST PUSH2 0x2F3B PUSH1 0x20 DUP4 ADD DUP7 PUSH2 0x2422 JUMP JUMPDEST PUSH2 0x2F48 PUSH1 0x40 DUP4 ADD DUP6 PUSH2 0x21C2 JUMP JUMPDEST PUSH2 0x2F55 PUSH1 0x60 DUP4 ADD DUP5 PUSH2 0x2422 JUMP JUMPDEST SWAP6 SWAP5 POP POP POP POP POP JUMP JUMPDEST PUSH0 PUSH1 0x40 DUP3 ADD SWAP1 POP PUSH2 0x2F71 PUSH0 DUP4 ADD DUP6 PUSH2 0x2488 JUMP JUMPDEST DUP2 DUP2 SUB PUSH1 0x20 DUP4 ADD MSTORE PUSH2 0x2F83 DUP2 DUP5 PUSH2 0x23BC JUMP JUMPDEST SWAP1 POP SWAP4 SWAP3 POP POP POP JUMP JUMPDEST PUSH0 PUSH1 0x40 DUP3 ADD SWAP1 POP PUSH2 0x2F9F PUSH0 DUP4 ADD DUP6 PUSH2 0x21C2 JUMP JUMPDEST DUP2 DUP2 SUB PUSH1 0x20 DUP4 ADD MSTORE PUSH2 0x2FB1 DUP2 DUP5 PUSH2 0x23BC JUMP JUMPDEST SWAP1 POP SWAP4 SWAP3 POP POP POP JUMP JUMPDEST PUSH32 0x4E6F20616374697665207374616B657300000000000000000000000000000000 PUSH0 DUP3 ADD MSTORE POP JUMP JUMPDEST PUSH0 PUSH2 0x2FEE PUSH1 0x10 DUP4 PUSH2 0x2555 JUMP JUMPDEST SWAP2 POP PUSH2 0x2FF9 DUP3 PUSH2 0x2FBA JUMP JUMPDEST PUSH1 0x20 DUP3 ADD SWAP1 POP SWAP2 SWAP1 POP JUMP JUMPDEST PUSH0 PUSH1 0x20 DUP3 ADD SWAP1 POP DUP2 DUP2 SUB PUSH0 DUP4 ADD MSTORE PUSH2 0x301B DUP2 PUSH2 0x2FE2 JUMP JUMPDEST SWAP1 POP SWAP2 SWAP1 POP JUMP JUMPDEST PUSH32 0x4E6F2072657761726420746F20636C61696D0000000000000000000000000000 PUSH0 DUP3 ADD MSTORE POP JUMP JUMPDEST PUSH0 PUSH2 0x3056 PUSH1 0x12 DUP4 PUSH2 0x2555 JUMP JUMPDEST SWAP2 POP PUSH2 0x3061 DUP3 PUSH2 0x3022 JUMP JUMPDEST PUSH1 0x20 DUP3 ADD SWAP1 POP SWAP2 SWAP1 POP JUMP JUMPDEST PUSH0 PUSH1 0x20 DUP3 ADD SWAP1 POP DUP2 DUP2 SUB PUSH0 DUP4 ADD MSTORE PUSH2 0x3083 DUP2 PUSH2 0x304A JUMP JUMPDEST SWAP1 POP SWAP2 SWAP1 POP JUMP JUMPDEST PUSH32 0x496E73756666696369656E7420636F6E74726163742062616C616E6365000000 PUSH0 DUP3 ADD MSTORE POP JUMP JUMPDEST PUSH0 PUSH2 0x30BE PUSH1 0x1D DUP4 PUSH2 0x2555 JUMP JUMPDEST SWAP2 POP PUSH2 0x30C9 DUP3 PUSH2 0x308A JUMP JUMPDEST PUSH1 0x20 DUP3 ADD SWAP1 POP SWAP2 SWAP1 POP JUMP JUMPDEST PUSH0 PUSH1 0x20 DUP3 ADD SWAP1 POP DUP2 DUP2 SUB PUSH0 DUP4 ADD MSTORE PUSH2 0x30EB DUP2 PUSH2 0x30B2 JUMP JUMPDEST SWAP1 POP SWAP2 SWAP1 POP JUMP JUMPDEST PUSH32 0x48424152207472616E73666572206661696C6564000000000000000000000000 PUSH0 DUP3 ADD MSTORE POP JUMP JUMPDEST PUSH0 PUSH2 0x3126 PUSH1 0x14 DUP4 PUSH2 0x2555 JUMP JUMPDEST SWAP2 POP PUSH2 0x3131 DUP3 PUSH2 0x30F2 JUMP JUMPDEST PUSH1 0x20 DUP3 ADD SWAP1 POP SWAP2 SWAP1 POP JUMP JUMPDEST PUSH0 PUSH1 0x20 DUP3 ADD SWAP1 POP DUP2 DUP2 SUB PUSH0 DUP4 ADD MSTORE PUSH2 0x3153 DUP2 PUSH2 0x311A JUMP JUMPDEST SWAP1 POP SWAP2 SWAP1 POP JUMP JUMPDEST PUSH32 0x416C72656164792066696E616C697A6564000000000000000000000000000000 PUSH0 DUP3 ADD MSTORE POP JUMP JUMPDEST PUSH0 PUSH2 0x318E PUSH1 0x11 DUP4 PUSH2 0x2555 JUMP JUMPDEST SWAP2 POP PUSH2 0x3199 DUP3 PUSH2 0x315A JUMP JUMPDEST PUSH1 0x20 DUP3 ADD SWAP1 POP SWAP2 SWAP1 POP JUMP JUMPDEST PUSH0 PUSH1 0x20 DUP3 ADD SWAP1 POP DUP2 DUP2 SUB PUSH0 DUP4 ADD MSTORE PUSH2 0x31BB DUP2 PUSH2 0x3182 JUMP JUMPDEST SWAP1 POP SWAP2 SWAP1 POP JUMP JUMPDEST PUSH32 0x45706F6368206E6F7420656E6465640000000000000000000000000000000000 PUSH0 DUP3 ADD MSTORE POP JUMP JUMPDEST PUSH0 PUSH2 0x31F6 PUSH1 0xF DUP4 PUSH2 0x2555 JUMP JUMPDEST SWAP2 POP PUSH2 0x3201 DUP3 PUSH2 0x31C2 JUMP JUMPDEST PUSH1 0x20 DUP3 ADD SWAP1 POP SWAP2 SWAP1 POP JUMP JUMPDEST PUSH0 PUSH1 0x20 DUP3 ADD SWAP1 POP DUP2 DUP2 SUB PUSH0 DUP4 ADD MSTORE PUSH2 0x3223 DUP2 PUSH2 0x31EA JUMP JUMPDEST SWAP1 POP SWAP2 SWAP1 POP JUMP JUMPDEST PUSH0 PUSH1 0x60 DUP3 ADD SWAP1 POP PUSH2 0x323D PUSH0 DUP4 ADD DUP7 PUSH2 0x2422 JUMP JUMPDEST PUSH2 0x324A PUSH1 0x20 DUP4 ADD DUP6 PUSH2 0x2422 JUMP JUMPDEST PUSH2 0x3257 PUSH1 0x40 DUP4 ADD DUP5 PUSH2 0x2422 JUMP JUMPDEST SWAP5 SWAP4 POP POP POP POP JUMP JUMPDEST PUSH32 0x50726576696F75732065706F6368206E6F742066696E616C697A656400000000 PUSH0 DUP3 ADD MSTORE POP JUMP JUMPDEST PUSH0 PUSH2 0x3293 PUSH1 0x1C DUP4 PUSH2 0x2555 JUMP JUMPDEST SWAP2 POP PUSH2 0x329E DUP3 PUSH2 0x325F JUMP JUMPDEST PUSH1 0x20 DUP3 ADD SWAP1 POP SWAP2 SWAP1 POP JUMP JUMPDEST PUSH0 PUSH1 0x20 DUP3 ADD SWAP1 POP DUP2 DUP2 SUB PUSH0 DUP4 ADD MSTORE PUSH2 0x32C0 DUP2 PUSH2 0x3287 JUMP JUMPDEST SWAP1 POP SWAP2 SWAP1 POP JUMP JUMPDEST PUSH0 PUSH1 0x40 DUP3 ADD SWAP1 POP PUSH2 0x32DA PUSH0 DUP4 ADD DUP6 PUSH2 0x2422 JUMP JUMPDEST PUSH2 0x32E7 PUSH1 0x20 DUP4 ADD DUP5 PUSH2 0x2422 JUMP JUMPDEST SWAP4 SWAP3 POP POP POP JUMP JUMPDEST PUSH0 PUSH1 0x80 DUP3 ADD SWAP1 POP PUSH2 0x3301 PUSH0 DUP4 ADD DUP8 PUSH2 0x2488 JUMP JUMPDEST PUSH2 0x330E PUSH1 0x20 DUP4 ADD DUP7 PUSH2 0x2488 JUMP JUMPDEST PUSH2 0x331B PUSH1 0x40 DUP4 ADD DUP6 PUSH2 0x2488 JUMP JUMPDEST PUSH2 0x3328 PUSH1 0x60 DUP4 ADD DUP5 PUSH2 0x20E9 JUMP JUMPDEST SWAP6 SWAP5 POP POP POP POP POP JUMP JUMPDEST PUSH0 PUSH1 0x40 DUP3 ADD SWAP1 POP PUSH2 0x3344 PUSH0 DUP4 ADD DUP6 PUSH2 0x2488 JUMP JUMPDEST PUSH2 0x3351 PUSH1 0x20 DUP4 ADD DUP5 PUSH2 0x2488 JUMP JUMPDEST SWAP4 SWAP3 POP POP POP JUMP INVALID LOG2 PUSH5 0x6970667358 0x22 SLT KECCAK256 0xD2 0xD0 DUP13 PUSH28 0x2D854C1F03905E1CC8975067F7BCA9EB16442B7C54FD94BB291ED068 PUSH5 0x736F6C6343 STOP ADDMOD BYTE STOP CALLER "
		},
		"gasEstimates": {
			"creation": {
				"codeDepositCost": "2639600",
				"executionCost": "infinite",
				"totalCost": "infinite"
			},
			"external": {
				"": "217",
				"claimReward()": "infinite",
				"epochClaimed(uint256,address,uint256)": "infinite",
				"epochId()": "2492",
				"epochs(uint256)": "infinite",
				"penaltyRate()": "2513",
				"redirectForToken(address,bytes)": "infinite",
				"stake(address,uint256,uint256,uint256,bytes[])": "infinite",
				"tokenAssociate(address)": "infinite",
				"totalStaked(address)": "2846",
				"transferFrom(address,address,address,uint256)": "infinite",
				"transferFromNFT(address,address,address,uint256)": "infinite",
				"userStakes(address,uint256)": "infinite",
				"withdraw(uint256)": "infinite"
			},
			"internal": {
				"calculateBoost(uint256)": "infinite",
				"finalizeEpoch()": "infinite",
				"safeCastToInt64(uint256)": "infinite",
				"startNewEpoch()": "infinite"
			}
		},
		"methodIdentifiers": {
			"claimReward()": "b88a802f",
			"epochClaimed(uint256,address,uint256)": "56fdfc57",
			"epochId()": "aa9bbc0c",
			"epochs(uint256)": "c6b61e4c",
			"penaltyRate()": "d6b7494f",
			"redirectForToken(address,bytes)": "618dc65e",
			"stake(address,uint256,uint256,uint256,bytes[])": "09716dee",
			"tokenAssociate(address)": "1a2a5e15",
			"totalStaked(address)": "9bfd8d61",
			"transferFrom(address,address,address,uint256)": "15dacbea",
			"transferFromNFT(address,address,address,uint256)": "9b23d3d9",
			"userStakes(address,uint256)": "b5d5b5fa",
			"withdraw(uint256)": "2e1a7d4d"
		}
	},
	"abi": [
		{
			"inputs": [
				{
					"internalType": "address",
					"name": "_pyth",
					"type": "address"
				},
				{
					"internalType": "bytes32",
					"name": "_hbarUsdPriceId",
					"type": "bytes32"
				}
			],
			"stateMutability": "nonpayable",
			"type": "constructor"
		},
		{
			"anonymous": false,
			"inputs": [
				{
					"indexed": true,
					"internalType": "address",
					"name": "user",
					"type": "address"
				},
				{
					"indexed": false,
					"internalType": "uint256",
					"name": "stakeIndex",
					"type": "uint256"
				},
				{
					"indexed": false,
					"internalType": "uint256",
					"name": "boostAmount",
					"type": "uint256"
				},
				{
					"indexed": false,
					"internalType": "uint256",
					"name": "newRewardPercent",
					"type": "uint256"
				}
			],
			"name": "BoostUsed",
			"type": "event"
		},
		{
			"anonymous": false,
			"inputs": [
				{
					"indexed": false,
					"internalType": "bool",
					"name": "",
					"type": "bool"
				},
				{
					"indexed": false,
					"internalType": "bytes",
					"name": "",
					"type": "bytes"
				}
			],
			"name": "CallResponseEvent",
			"type": "event"
		},
		{
			"anonymous": false,
			"inputs": [
				{
					"indexed": true,
					"internalType": "uint256",
					"name": "epochId",
					"type": "uint256"
				},
				{
					"indexed": false,
					"internalType": "uint256",
					"name": "totalReward",
					"type": "uint256"
				},
				{
					"indexed": false,
					"internalType": "uint256",
					"name": "totalRewardShares",
					"type": "uint256"
				},
				{
					"indexed": false,
					"internalType": "uint256",
					"name": "rewardPerShare",
					"type": "uint256"
				}
			],
			"name": "EpochFinalized",
			"type": "event"
		},
		{
			"anonymous": false,
			"inputs": [
				{
					"indexed": true,
					"internalType": "uint256",
					"name": "epochId",
					"type": "uint256"
				},
				{
					"indexed": false,
					"internalType": "uint256",
					"name": "startTime",
					"type": "uint256"
				},
				{
					"indexed": false,
					"internalType": "uint256",
					"name": "endTime",
					"type": "uint256"
				}
			],
			"name": "EpochStarted",
			"type": "event"
		},
		{
			"anonymous": false,
			"inputs": [
				{
					"indexed": false,
					"internalType": "uint256",
					"name": "epochId",
					"type": "uint256"
				},
				{
					"indexed": false,
					"internalType": "uint256",
					"name": "totalHBARDistributed",
					"type": "uint256"
				},
				{
					"indexed": false,
					"internalType": "uint256",
					"name": "totalRewardTokenDistributed",
					"type": "uint256"
				}
			],
			"name": "RewardsDistributed",
			"type": "event"
		},
		{
			"anonymous": false,
			"inputs": [
				{
					"indexed": true,
					"internalType": "address",
					"name": "user",
					"type": "address"
				},
				{
					"indexed": false,
					"internalType": "uint256",
					"name": "amount",
					"type": "uint256"
				},
				{
					"indexed": false,
					"internalType": "uint256",
					"name": "startTime",
					"type": "uint256"
				},
				{
					"indexed": false,
					"internalType": "uint256",
					"name": "endTime",
					"type": "uint256"
				},
				{
					"indexed": false,
					"internalType": "uint256",
					"name": "epochId",
					"type": "uint256"
				}
			],
			"name": "Staked",
			"type": "event"
		},
		{
			"anonymous": false,
			"inputs": [
				{
					"indexed": false,
					"internalType": "address",
					"name": "tokenId",
					"type": "address"
				}
			],
			"name": "TokenAssociated",
			"type": "event"
		},
		{
			"anonymous": false,
			"inputs": [
				{
					"indexed": true,
					"internalType": "address",
					"name": "user",
					"type": "address"
				},
				{
					"indexed": false,
					"internalType": "uint256",
					"name": "stakeIndex",
					"type": "uint256"
				},
				{
					"indexed": false,
					"internalType": "uint256",
					"name": "amount",
					"type": "uint256"
				},
				{
					"indexed": false,
					"internalType": "bool",
					"name": "early",
					"type": "bool"
				},
				{
					"indexed": false,
					"internalType": "uint256",
					"name": "penalty",
					"type": "uint256"
				}
			],
			"name": "Withdrawn",
			"type": "event"
		},
		{
			"stateMutability": "payable",
			"type": "fallback"
		},
		{
			"inputs": [],
			"name": "claimReward",
			"outputs": [],
			"stateMutability": "nonpayable",
			"type": "function"
		},
		{
			"inputs": [
				{
					"internalType": "uint256",
					"name": "",
					"type": "uint256"
				},
				{
					"internalType": "address",
					"name": "",
					"type": "address"
				},
				{
					"internalType": "uint256",
					"name": "",
					"type": "uint256"
				}
			],
			"name": "epochClaimed",
			"outputs": [
				{
					"internalType": "bool",
					"name": "",
					"type": "bool"
				}
			],
			"stateMutability": "view",
			"type": "function"
		},
		{
			"inputs": [],
			"name": "epochId",
			"outputs": [
				{
					"internalType": "uint256",
					"name": "",
					"type": "uint256"
				}
			],
			"stateMutability": "view",
			"type": "function"
		},
		{
			"inputs": [
				{
					"internalType": "uint256",
					"name": "",
					"type": "uint256"
				}
			],
			"name": "epochs",
			"outputs": [
				{
					"internalType": "uint256",
					"name": "startTime",
					"type": "uint256"
				},
				{
					"internalType": "uint256",
					"name": "endTime",
					"type": "uint256"
				},
				{
					"internalType": "uint256",
					"name": "totalReward",
					"type": "uint256"
				},
				{
					"internalType": "uint256",
					"name": "totalRewardShares",
					"type": "uint256"
				},
				{
					"internalType": "uint256",
					"name": "rewardPerShare",
					"type": "uint256"
				},
				{
					"internalType": "bool",
					"name": "finalized",
					"type": "bool"
				}
			],
			"stateMutability": "view",
			"type": "function"
		},
		{
			"inputs": [],
			"name": "penaltyRate",
			"outputs": [
				{
					"internalType": "uint256",
					"name": "",
					"type": "uint256"
				}
			],
			"stateMutability": "view",
			"type": "function"
		},
		{
			"inputs": [
				{
					"internalType": "address",
					"name": "token",
					"type": "address"
				},
				{
					"internalType": "bytes",
					"name": "encodedFunctionSelector",
					"type": "bytes"
				}
			],
			"name": "redirectForToken",
			"outputs": [
				{
					"internalType": "int256",
					"name": "responseCode",
					"type": "int256"
				},
				{
					"internalType": "bytes",
					"name": "response",
					"type": "bytes"
				}
			],
			"stateMutability": "nonpayable",
			"type": "function"
		},
		{
			"inputs": [
				{
					"internalType": "address",
					"name": "tokenId",
					"type": "address"
				},
				{
					"internalType": "uint256",
					"name": "amount",
					"type": "uint256"
				},
				{
					"internalType": "uint256",
					"name": "duration",
					"type": "uint256"
				},
				{
					"internalType": "uint256",
					"name": "boostTokenAmount",
					"type": "uint256"
				},
				{
					"internalType": "bytes[]",
					"name": "priceUpdate",
					"type": "bytes[]"
				}
			],
			"name": "stake",
			"outputs": [],
			"stateMutability": "payable",
			"type": "function"
		},
		{
			"inputs": [
				{
					"internalType": "address",
					"name": "tokenId",
					"type": "address"
				}
			],
			"name": "tokenAssociate",
			"outputs": [],
			"stateMutability": "nonpayable",
			"type": "function"
		},
		{
			"inputs": [
				{
					"internalType": "address",
					"name": "",
					"type": "address"
				}
			],
			"name": "totalStaked",
			"outputs": [
				{
					"internalType": "uint256",
					"name": "",
					"type": "uint256"
				}
			],
			"stateMutability": "view",
			"type": "function"
		},
		{
			"inputs": [
				{
					"internalType": "address",
					"name": "token",
					"type": "address"
				},
				{
					"internalType": "address",
					"name": "from",
					"type": "address"
				},
				{
					"internalType": "address",
					"name": "to",
					"type": "address"
				},
				{
					"internalType": "uint256",
					"name": "amount",
					"type": "uint256"
				}
			],
			"name": "transferFrom",
			"outputs": [
				{
					"internalType": "int64",
					"name": "responseCode",
					"type": "int64"
				}
			],
			"stateMutability": "nonpayable",
			"type": "function"
		},
		{
			"inputs": [
				{
					"internalType": "address",
					"name": "token",
					"type": "address"
				},
				{
					"internalType": "address",
					"name": "from",
					"type": "address"
				},
				{
					"internalType": "address",
					"name": "to",
					"type": "address"
				},
				{
					"internalType": "uint256",
					"name": "serialNumber",
					"type": "uint256"
				}
			],
			"name": "transferFromNFT",
			"outputs": [
				{
					"internalType": "int64",
					"name": "responseCode",
					"type": "int64"
				}
			],
			"stateMutability": "nonpayable",
			"type": "function"
		},
		{
			"inputs": [
				{
					"internalType": "address",
					"name": "",
					"type": "address"
				},
				{
					"internalType": "uint256",
					"name": "",
					"type": "uint256"
				}
			],
			"name": "userStakes",
			"outputs": [
				{
					"internalType": "address",
					"name": "tokenId",
					"type": "address"
				},
				{
					"internalType": "uint256",
					"name": "amount",
					"type": "uint256"
				},
				{
					"internalType": "uint256",
					"name": "startTime",
					"type": "uint256"
				},
				{
					"internalType": "uint256",
					"name": "endTime",
					"type": "uint256"
				},
				{
					"internalType": "uint256",
					"name": "rewardShares",
					"type": "uint256"
				},
				{
					"internalType": "uint256",
					"name": "nextToClaim",
					"type": "uint256"
				}
			],
			"stateMutability": "view",
			"type": "function"
		},
		{
			"inputs": [
				{
					"internalType": "uint256",
					"name": "stakeIndex",
					"type": "uint256"
				}
			],
			"name": "withdraw",
			"outputs": [],
			"stateMutability": "nonpayable",
			"type": "function"
		},
		{
			"stateMutability": "payable",
			"type": "receive"
		}
	]
}