{
	"data": {
		"bytecode": {
			"linkReferences": {},
			"object": "608060405260056002556107086003556005600455613ad260055f6101000a81548173ffffffffffffffffffffffffffffffffffffffff021916908373ffffffffffffffffffffffffffffffffffffffff160217905550613ad260065f6101000a81548173ffffffffffffffffffffffffffffffffffffffff021916908373ffffffffffffffffffffffffffffffffffffffff160217905550600a600c555f600d553480156100ac575f80fd5b50604051615ea9380380615ea983398181016040528101906100ce919061054d565b3360015f819055505f73ffffffffffffffffffffffffffffffffffffffff168173ffffffffffffffffffffffffffffffffffffffff1603610146575f6040517f1e4fbdf700000000000000000000000000000000000000000000000000000000815260040161013d91906105c0565b60405180910390fd5b6101558161027460201b60201c565b508360105f6101000a81548173ffffffffffffffffffffffffffffffffffffffff021916908373ffffffffffffffffffffffffffffffffffffffff16021790555082600e5f6101000a81548173ffffffffffffffffffffffffffffffffffffffff021916908373ffffffffffffffffffffffffffffffffffffffff16021790555081600f5f6101000a81548173ffffffffffffffffffffffffffffffffffffffff021916908373ffffffffffffffffffffffffffffffffffffffff1602179055508160115f6101000a81548173ffffffffffffffffffffffffffffffffffffffff021916908373ffffffffffffffffffffffffffffffffffffffff1602179055508060128190555061026b61033760201b60201c565b505050506106f0565b5f60015f9054906101000a900473ffffffffffffffffffffffffffffffffffffffff1690508160015f6101000a81548173ffffffffffffffffffffffffffffffffffffffff021916908373ffffffffffffffffffffffffffffffffffffffff1602179055508173ffffffffffffffffffffffffffffffffffffffff168173ffffffffffffffffffffffffffffffffffffffff167f8be0079c531659141344cd1fd0a4f28419497f9722a3daafe3b4186f6b6457e060405160405180910390a35050565b5f80600d5411156103be57600a5f600d5481526020019081526020015f206005015f9054906101000a900460ff166103a4576040517f08c379a000000000000000000000000000000000000000000000000000000000815260040161039b90610633565b60405180910390fd5b600a5f600d5481526020019081526020015f206003015490505b5f600454426103cd9190610687565b90506001600d5f8282546103e19190610687565b925050819055506040518060c001604052804281526020018281526020015f81526020018381526020015f81526020015f1515815250600a5f600d5481526020019081526020015f205f820151815f01556020820151816001015560408201518160020155606082015181600301556080820151816004015560a0820151816005015f6101000a81548160ff021916908315150217905550905050600d547f29db3deb62ef2036e5eb93aad68d2362aec0711af592cb365566603bd88651d442836040516104b09291906106c9565b60405180910390a25050565b5f80fd5b5f73ffffffffffffffffffffffffffffffffffffffff82169050919050565b5f6104e9826104c0565b9050919050565b6104f9816104df565b8114610503575f80fd5b50565b5f81519050610514816104f0565b92915050565b5f819050919050565b61052c8161051a565b8114610536575f80fd5b50565b5f8151905061054781610523565b92915050565b5f805f8060808587031215610565576105646104bc565b5b5f61057287828801610506565b945050602061058387828801610506565b935050604061059487828801610506565b92505060606105a587828801610539565b91505092959194509250565b6105ba816104df565b82525050565b5f6020820190506105d35f8301846105b1565b92915050565b5f82825260208201905092915050565b7f50726576696f75732065706f6368206e6f742066696e616c697a6564000000005f82015250565b5f61061d601c836105d9565b9150610628826105e9565b602082019050919050565b5f6020820190508181035f83015261064a81610611565b9050919050565b5f819050919050565b7f4e487b71000000000000000000000000000000000000000000000000000000005f52601160045260245ffd5b5f61069182610651565b915061069c83610651565b92508282019050808211156106b4576106b361065a565b5b92915050565b6106c381610651565b82525050565b5f6040820190506106dc5f8301856106ba565b6106e960208301846106ba565b9392505050565b6157ac806106fd5f395ff3fe60806040526004361061021d575f3560e01c80638da5cb5b11610122578063be7b26aa116100aa578063e20dccb21161006e578063e20dccb2146107b5578063ee1da7c2146107df578063ee22fd6f14610809578063f2fde38b14610831578063f98d06f01461085957610224565b8063be7b26aa146106d2578063c6b61e4c146106fa578063d38bcdee1461073b578063d6b7494f14610763578063d8990c111461078d57610224565b8063a1bab447116100f1578063a1bab447146105ff578063aa9bbc0c14610627578063abd10b1014610651578063b5d5b5fa1461067b578063b88a802f146106bc57610224565b80638da5cb5b146105215780639b23d3d91461054b5780639b9ac2cb146105875780639bfd8d61146105c357610224565b80634ff0876a116101a55780635fec5c64116101745780635fec5c6414610452578063618dc65e1461047c57806361e7bc12146104b9578063715018a6146104e157806376f70003146104f757610224565b80634ff0876a1461039a578063500f6e14146103c457806356fdfc57146103ee578063587b47b01461042a57610224565b80631a2a5e15116101ec5780631a2a5e15146102d05780632e1a7d4d146102f857806330024dfe146103205780634a9138c6146103485780634d7098ef1461037257610224565b8063015e358d1461022657806302d454571461024e57806309716dee1461027857806315dacbea1461029457610224565b3661022457005b005b348015610231575f80fd5b5061024c6004803603810190610247919061350a565b610883565b005b348015610259575f80fd5b5061026261093c565b60405161026f9190613544565b60405180910390f35b610292600480360381019061028d91906135f1565b610961565b005b34801561029f575f80fd5b506102ba60048036038101906102b59190613687565b6111f1565b6040516102c79190613706565b60405180910390f35b3480156102db575f80fd5b506102f660048036038101906102f1919061350a565b611309565b005b348015610303575f80fd5b5061031e6004803603810190610319919061371f565b61139f565b005b34801561032b575f80fd5b506103466004803603810190610341919061371f565b611d74565b005b348015610353575f80fd5b5061035c611dc8565b6040516103699190613762565b60405180910390f35b34801561037d575f80fd5b50610398600480360381019061039391906137b3565b611dce565b005b3480156103a5575f80fd5b506103ae611eb6565b6040516103bb9190613812565b60405180910390f35b3480156103cf575f80fd5b506103d8611ebc565b6040516103e59190613544565b60405180910390f35b3480156103f9575f80fd5b50610414600480360381019061040f919061382b565b611ee1565b6040516104219190613895565b60405180910390f35b348015610435575f80fd5b50610450600480360381019061044b91906138d8565b611f16565b005b34801561045d575f80fd5b50610466611f28565b6040516104739190613812565b60405180910390f35b348015610487575f80fd5b506104a2600480360381019061049d9190613a3b565b611f2e565b6040516104b0929190613b0d565b60405180910390f35b3480156104c4575f80fd5b506104df60048036038101906104da919061350a565b612083565b005b3480156104ec575f80fd5b506104f561213c565b005b348015610502575f80fd5b5061050b61214f565b6040516105189190613812565b60405180910390f35b34801561052c575f80fd5b50610535612155565b6040516105429190613544565b60405180910390f35b348015610556575f80fd5b50610571600480360381019061056c9190613687565b61217d565b60405161057e9190613706565b60405180910390f35b348015610592575f80fd5b506105ad60048036038101906105a89190613b3b565b612295565b6040516105ba9190613b88565b60405180910390f35b3480156105ce575f80fd5b506105e960048036038101906105e4919061350a565b6122c1565b6040516105f69190613812565b60405180910390f35b34801561060a575f80fd5b506106256004803603810190610620919061371f565b6122d6565b005b348015610632575f80fd5b5061063b61232c565b6040516106489190613812565b60405180910390f35b34801561065c575f80fd5b50610665612332565b6040516106729190613544565b60405180910390f35b348015610686575f80fd5b506106a1600480360381019061069c9190613ba1565b612357565b6040516106b396959493929190613bdf565b60405180910390f35b3480156106c7575f80fd5b506106d06123c8565b005b3480156106dd575f80fd5b506106f860048036038101906106f3919061350a565b6126c2565b005b348015610705575f80fd5b50610720600480360381019061071b919061371f565b6127bb565b60405161073296959493929190613c3e565b60405180910390f35b348015610746575f80fd5b50610761600480360381019061075c919061350a565b6127ff565b005b34801561076e575f80fd5b506107776128b8565b6040516107849190613812565b60405180910390f35b348015610798575f80fd5b506107b360048036038101906107ae9190613c9d565b6128be565b005b3480156107c0575f80fd5b506107c961291a565b6040516107d69190613d36565b60405180910390f35b3480156107ea575f80fd5b506107f361293f565b6040516108009190613d6f565b60405180910390f35b348015610814575f80fd5b5061082f600480360381019061082a919061350a565b612964565b005b34801561083c575f80fd5b506108576004803603810190610852919061350a565b612a1d565b005b348015610864575f80fd5b5061086d612aa1565b60405161087a9190613da8565b60405180910390f35b61088b612ac6565b5f73ffffffffffffffffffffffffffffffffffffffff168173ffffffffffffffffffffffffffffffffffffffff16036108f9576040517f08c379a00000000000000000000000000000000000000000000000000000000081526004016108f090613e1b565b60405180910390fd5b8060065f6101000a81548173ffffffffffffffffffffffffffffffffffffffff021916908373ffffffffffffffffffffffffffffffffffffffff16021790555050565b60055f9054906101000a900473ffffffffffffffffffffffffffffffffffffffff1681565b610969612b4d565b5f600a5f600d5481526020019081526020015f2090508060010154421180156109a05750806005015f9054906101000a900460ff16155b156109b6576109ad612b91565b6109b5612cdf565b5b5f86116109f8576040517f08c379a00000000000000000000000000000000000000000000000000000000081526004016109ef90613e83565b60405180910390fd5b6002548510158015610a0c57506003548511155b610a4b576040517f08c379a0000000000000000000000000000000000000000000000000000000008152600401610a4290613eeb565b60405180910390fd5b5f808790505f73ffffffffffffffffffffffffffffffffffffffff168973ffffffffffffffffffffffffffffffffffffffff1603610d3a57873414610ac5576040517f08c379a0000000000000000000000000000000000000000000000000000000008152600401610abc90613f53565b60405180910390fd5b5f60105f9054906101000a900473ffffffffffffffffffffffffffffffffffffffff1673ffffffffffffffffffffffffffffffffffffffff1663d47eed4587876040518363ffffffff1660e01b8152600401610b229291906140c9565b602060405180830381865afa158015610b3d573d5f803e3d5ffd5b505050506040513d601f19601f82011682018060405250810190610b6191906140ff565b90508082610b6f9190614157565b915060105f9054906101000a900473ffffffffffffffffffffffffffffffffffffffff1673ffffffffffffffffffffffffffffffffffffffff1663ef9e5e288288886040518463ffffffff1660e01b8152600401610bce9291906140c9565b5f604051808303818588803b158015610be5575f80fd5b505af1158015610bf7573d5f803e3d5ffd5b50505050505f60105f9054906101000a900473ffffffffffffffffffffffffffffffffffffffff1673ffffffffffffffffffffffffffffffffffffffff1663a4ae35e0601254603c6040518363ffffffff1660e01b8152600401610c5c9291906141c3565b608060405180830381865afa158015610c77573d5f803e3d5ffd5b505050506040513d601f19601f82011682018060405250810190610c9b9190614300565b90505f8160400151610cac9061432b565b63ffffffff16600a610cbe91906144a0565b825f015160070b610ccf9190614517565b90506305f5e1008482610ce29190614547565b610cec9190614517565b94506064851015610d32576040517f08c379a0000000000000000000000000000000000000000000000000000000008152600401610d29906145d2565b60405180910390fd5b505050610f62565b5f610e0e8a60075f8d73ffffffffffffffffffffffffffffffffffffffff1673ffffffffffffffffffffffffffffffffffffffff1681526020019081526020015f205f60055f9054906101000a900473ffffffffffffffffffffffffffffffffffffffff1673ffffffffffffffffffffffffffffffffffffffff1673ffffffffffffffffffffffffffffffffffffffff1681526020019081526020015f205f9054906101000a900462ffffff1660055f9054906101000a900473ffffffffffffffffffffffffffffffffffffffff16612e64565b90505f600e5f9054906101000a900473ffffffffffffffffffffffffffffffffffffffff1673ffffffffffffffffffffffffffffffffffffffff1663cdca1753838c6040518363ffffffff1660e01b8152600401610e6d9291906145f0565b5f604051808303815f875af1158015610e88573d5f803e3d5ffd5b505050506040513d5f823e3d601f19601f82011682018060405250810190610eb09190614801565b505050905061271081610ec39190614517565b93506064841015610f09576040517f08c379a0000000000000000000000000000000000000000000000000000000008152600401610f00906145d2565b60405180910390fd5b5f610f168c33308e612e93565b9050601660030b8114610f5e576040517f08c379a0000000000000000000000000000000000000000000000000000000008152600401610f55906148e7565b60405180910390fd5b5050505b5f8783610f6f9190614547565b90505f871115610f8657610f838188612fab565b90505b60095f3373ffffffffffffffffffffffffffffffffffffffff1673ffffffffffffffffffffffffffffffffffffffff1681526020019081526020015f206040518060c001604052808c73ffffffffffffffffffffffffffffffffffffffff1681526020018481526020014281526020018a426110029190614905565b8152602001838152602001600d54815250908060018154018082558091505060019003905f5260205f2090600602015f909190919091505f820151815f015f6101000a81548173ffffffffffffffffffffffffffffffffffffffff021916908373ffffffffffffffffffffffffffffffffffffffff1602179055506020820151816001015560408201518160020155606082015181600301556080820151816004015560a0820151816005015550508860085f8c73ffffffffffffffffffffffffffffffffffffffff1673ffffffffffffffffffffffffffffffffffffffff1681526020019081526020015f205f8282546110fd9190614905565b9250508190555080600a5f600d5481526020019081526020015f206003015f8282546111299190614905565b925050819055503373ffffffffffffffffffffffffffffffffffffffff167f902788162368fcc78ad80de846b620b397de2884386dbff8339fb699955dacc583428b426111769190614905565b600160095f3373ffffffffffffffffffffffffffffffffffffffff1673ffffffffffffffffffffffffffffffffffffffff1681526020019081526020015f20805490506111c39190614157565b8f6040516111d5959493929190614938565b60405180910390a2505050506111e9613045565b505050505050565b5f805f61016773ffffffffffffffffffffffffffffffffffffffff166315dacbea60e01b8888888860405160240161122c9493929190614989565b604051602081830303815290604052907bffffffffffffffffffffffffffffffffffffffffffffffffffffffff19166020820180517bffffffffffffffffffffffffffffffffffffffffffffffffffffffff83818316178352505050506040516112969190614a06565b5f604051808303815f865af19150503d805f81146112cf576040519150601f19603f3d011682016040523d82523d5f602084013e6112d4565b606091505b5091509150816112e55760156112fa565b808060200190518101906112f99190614a1c565b5b60030b92505050949350505050565b611311612ac6565b5f61131c308361304e565b9050601660030b8114611364576040517f08c379a000000000000000000000000000000000000000000000000000000000815260040161135b90614a91565b60405180910390fd5b7fbbbf805ef99ca7d0b7d2cc769719f2a281c9b3331a3642efa75a712e3094a166826040516113939190613544565b60405180910390a15050565b6113a7612b4d565b5f600a5f600d5481526020019081526020015f2090508060010154421180156113de5750806005015f9054906101000a900460ff16155b156113f4576113eb612b91565b6113f3612cdf565b5b60095f3373ffffffffffffffffffffffffffffffffffffffff1673ffffffffffffffffffffffffffffffffffffffff1681526020019081526020015f20805490508210611476576040517f08c379a000000000000000000000000000000000000000000000000000000000815260040161146d90614af9565b60405180910390fd5b5f60095f3373ffffffffffffffffffffffffffffffffffffffff1673ffffffffffffffffffffffffffffffffffffffff1681526020019081526020015f2083815481106114c6576114c5614b17565b5b905f5260205f20906006020190505f81600101541161151a576040517f08c379a000000000000000000000000000000000000000000000000000000000815260040161151190614b8e565b60405180910390fd5b5f816001015490505f8260030154421090505f80821561155f576064600c54856115449190614547565b61154e9190614517565b9150818461155c9190614157565b93505b5f856001018190555081846115749190614905565b60085f875f015f9054906101000a900473ffffffffffffffffffffffffffffffffffffffff1673ffffffffffffffffffffffffffffffffffffffff1673ffffffffffffffffffffffffffffffffffffffff1681526020019081526020015f205f8282546115e19190614157565b925050819055505f73ffffffffffffffffffffffffffffffffffffffff16855f015f9054906101000a900473ffffffffffffffffffffffffffffffffffffffff1673ffffffffffffffffffffffffffffffffffffffff16036117315781905083471015611683576040517f08c379a000000000000000000000000000000000000000000000000000000000815260040161167a90614bf6565b60405180910390fd5b5f3373ffffffffffffffffffffffffffffffffffffffff16856040516116a890614c37565b5f6040518083038185875af1925050503d805f81146116e2576040519150601f19603f3d011682016040523d82523d5f602084013e6116e7565b606091505b505090508061172b576040517f08c379a000000000000000000000000000000000000000000000000000000000815260040161172290614c95565b60405180910390fd5b50611cdc565b5f611768865f015f9054906101000a900473ffffffffffffffffffffffffffffffffffffffff16303361176389613160565b612e93565b9050601660030b81146117b0576040517f08c379a00000000000000000000000000000000000000000000000000000000081526004016117a790614cfd565b60405180910390fd5b8315611cda57611804865f015f9054906101000a900473ffffffffffffffffffffffffffffffffffffffff1660115f9054906101000a900473ffffffffffffffffffffffffffffffffffffffff16856131b7565b9050601660030b811461184c576040517f08c379a000000000000000000000000000000000000000000000000000000000815260040161184390614d8b565b60405180910390fd5b5f611964875f015f9054906101000a900473ffffffffffffffffffffffffffffffffffffffff1660075f8a5f015f9054906101000a900473ffffffffffffffffffffffffffffffffffffffff1673ffffffffffffffffffffffffffffffffffffffff1673ffffffffffffffffffffffffffffffffffffffff1681526020019081526020015f205f60065f9054906101000a900473ffffffffffffffffffffffffffffffffffffffff1673ffffffffffffffffffffffffffffffffffffffff1673ffffffffffffffffffffffffffffffffffffffff1681526020019081526020015f205f9054906101000a900462ffffff1660065f9054906101000a900473ffffffffffffffffffffffffffffffffffffffff16612e64565b90505f600e5f9054906101000a900473ffffffffffffffffffffffffffffffffffffffff1673ffffffffffffffffffffffffffffffffffffffff1663cdca175383876040518363ffffffff1660e01b81526004016119c39291906145f0565b5f604051808303815f875af11580156119de573d5f803e3d5ffd5b505050506040513d5f823e3d601f19601f82011682018060405250810190611a069190614801565b50505090505f6040518060a0016040528084815260200160115f9054906101000a900473ffffffffffffffffffffffffffffffffffffffff1673ffffffffffffffffffffffffffffffffffffffff168152602001601e42611a679190614905565b81526020018781526020018381525090505f63c04b8d5960e01b82604051602401611a929190614e72565b604051602081830303815290604052907bffffffffffffffffffffffffffffffffffffffffffffffffffffffff19166020820180517bffffffffffffffffffffffffffffffffffffffffffffffffffffffff838183161783525050505090505f635fb043af60e01b8430604051602401611b0d929190614e92565b604051602081830303815290604052907bffffffffffffffffffffffffffffffffffffffffffffffffffffffff19166020820180517bffffffffffffffffffffffffffffffffffffffffffffffffffffffff838183161783525050505090505f600267ffffffffffffffff811115611b8857611b87613917565b5b604051908082528060200260200182016040528015611bbb57816020015b6060815260200190600190039081611ba65790505b50905082815f81518110611bd257611bd1614b17565b5b60200260200101819052508181600181518110611bf257611bf1614b17565b5b60200260200101819052505f600f5f9054906101000a900473ffffffffffffffffffffffffffffffffffffffff1673ffffffffffffffffffffffffffffffffffffffff1663ac9650d8836040518263ffffffff1660e01b8152600401611c589190614f64565b5f604051808303815f875af1158015611c73573d5f803e3d5ffd5b505050506040513d5f823e3d601f19601f82011682018060405250810190611c9b91906150d0565b90505f815f81518110611cb157611cb0614b17565b5b6020026020010151806020019051810190611ccc91906140ff565b905080995050505050505050505b505b8215611d0f5780600a5f600d5481526020019081526020015f206002015f828254611d079190614905565b925050819055505b3373ffffffffffffffffffffffffffffffffffffffff167f8e74f2e568a8fc64d8e10a0dd9ce40f78f234368743079ffb0e60ee702693ac988868685604051611d5b9493929190615117565b60405180910390a2505050505050611d71613045565b50565b611d7c612ac6565b5f8111611dbe576040517f08c379a0000000000000000000000000000000000000000000000000000000008152600401611db5906151a4565b60405180910390fd5b8060048190555050565b60125481565b611dd6612ac6565b5f8162ffffff1603611e1d576040517f08c379a0000000000000000000000000000000000000000000000000000000008152600401611e149061520c565b60405180910390fd5b8060075f8573ffffffffffffffffffffffffffffffffffffffff1673ffffffffffffffffffffffffffffffffffffffff1681526020019081526020015f205f8473ffffffffffffffffffffffffffffffffffffffff1673ffffffffffffffffffffffffffffffffffffffff1681526020019081526020015f205f6101000a81548162ffffff021916908362ffffff160217905550505050565b60045481565b60065f9054906101000a900473ffffffffffffffffffffffffffffffffffffffff1681565b600b602052825f5260405f20602052815f5260405f20602052805f5260405f205f92509250509054906101000a900460ff1681565b611f1e612ac6565b8060128190555050565b60025481565b5f60605f8061016773ffffffffffffffffffffffffffffffffffffffff1663618dc65e60e01b8787604051602401611f6792919061522a565b604051602081830303815290604052907bffffffffffffffffffffffffffffffffffffffffffffffffffffffff19166020820180517bffffffffffffffffffffffffffffffffffffffffffffffffffffffff8381831617835250505050604051611fd19190614a06565b5f604051808303815f865af19150503d805f811461200a576040519150601f19603f3d011682016040523d82523d5f602084013e61200f565b606091505b50915091507f4af4780e06fe8cb9df64b0794fa6f01399af979175bb988e35e0e57e594567bc8282604051612045929190615258565b60405180910390a18161206857601560405180602001604052805f81525061206c565b6016815b8160030b9150809450819550505050509250929050565b61208b612ac6565b5f73ffffffffffffffffffffffffffffffffffffffff168173ffffffffffffffffffffffffffffffffffffffff16036120f9576040517f08c379a00000000000000000000000000000000000000000000000000000000081526004016120f090613e1b565b60405180910390fd5b80600e5f6101000a81548173ffffffffffffffffffffffffffffffffffffffff021916908373ffffffffffffffffffffffffffffffffffffffff16021790555050565b612144612ac6565b61214d5f6132cc565b565b60035481565b5f60015f9054906101000a900473ffffffffffffffffffffffffffffffffffffffff16905090565b5f805f61016773ffffffffffffffffffffffffffffffffffffffff16639b23d3d960e01b888888886040516024016121b89493929190614989565b604051602081830303815290604052907bffffffffffffffffffffffffffffffffffffffffffffffffffffffff19166020820180517bffffffffffffffffffffffffffffffffffffffffffffffffffffffff83818316178352505050506040516122229190614a06565b5f604051808303815f865af19150503d805f811461225b576040519150601f19603f3d011682016040523d82523d5f602084013e612260565b606091505b509150915081612271576015612286565b808060200190518101906122859190614a1c565b5b60030b92505050949350505050565b6007602052815f5260405f20602052805f5260405f205f915091509054906101000a900462ffffff1681565b6008602052805f5260405f205f915090505481565b6122de612ac6565b6064811115612322576040517f08c379a0000000000000000000000000000000000000000000000000000000008152600401612319906152d0565b60405180910390fd5b80600c8190555050565b600d5481565b60115f9054906101000a900473ffffffffffffffffffffffffffffffffffffffff1681565b6009602052815f5260405f208181548110612370575f80fd5b905f5260205f2090600602015f9150915050805f015f9054906101000a900473ffffffffffffffffffffffffffffffffffffffff16908060010154908060020154908060030154908060040154908060050154905086565b6123d0612b4d565b5f600a5f600d5481526020019081526020015f2090508060010154421180156124075750806005015f9054906101000a900460ff16155b1561241d57612414612b91565b61241c612cdf565b5b5f60095f3373ffffffffffffffffffffffffffffffffffffffff1673ffffffffffffffffffffffffffffffffffffffff1681526020019081526020015f2090505f8180549050116124a3576040517f08c379a000000000000000000000000000000000000000000000000000000000815260040161249a90615338565b60405180910390fd5b5f805b828054905081101561257a575f8382815481106124c6576124c5614b17565b5b905f5260205f20906006020190505f816005015490505b600d54811015612560575f600a5f8381526020019081526020015f209050806005015f9054906101000a900460ff16801561251c57505f816004015414155b15612552576305f5e1008360040154826004015461253a9190614547565b6125449190614517565b8561254f9190614905565b94505b5080806001019150506124dd565b50600d5481600501819055505080806001019150506124a6565b50804710156125be576040517f08c379a00000000000000000000000000000000000000000000000000000000081526004016125b590614bf6565b60405180910390fd5b5f3373ffffffffffffffffffffffffffffffffffffffff16826040516125e390614c37565b5f6040518083038185875af1925050503d805f811461261d576040519150601f19603f3d011682016040523d82523d5f602084013e612622565b606091505b5050905080612666576040517f08c379a000000000000000000000000000000000000000000000000000000000815260040161265d906153a0565b60405180910390fd5b3373ffffffffffffffffffffffffffffffffffffffff167f106f923f993c2149d49b4255ff723acafa1f2d94393f561d3eda32ae348f7241836040516126ac9190613812565b60405180910390a2505050506126c0613045565b565b6126ca612ac6565b5f73ffffffffffffffffffffffffffffffffffffffff168173ffffffffffffffffffffffffffffffffffffffff1603612738576040517f08c379a000000000000000000000000000000000000000000000000000000000815260040161272f90613e1b565b60405180910390fd5b80600f5f6101000a81548173ffffffffffffffffffffffffffffffffffffffff021916908373ffffffffffffffffffffffffffffffffffffffff1602179055508060115f6101000a81548173ffffffffffffffffffffffffffffffffffffffff021916908373ffffffffffffffffffffffffffffffffffffffff16021790555050565b600a602052805f5260405f205f91509050805f015490806001015490806002015490806003015490806004015490806005015f9054906101000a900460ff16905086565b612807612ac6565b5f73ffffffffffffffffffffffffffffffffffffffff168173ffffffffffffffffffffffffffffffffffffffff1603612875576040517f08c379a000000000000000000000000000000000000000000000000000000000815260040161286c90613e1b565b60405180910390fd5b8060055f6101000a81548173ffffffffffffffffffffffffffffffffffffffff021916908373ffffffffffffffffffffffffffffffffffffffff16021790555050565b600c5481565b6128c6612ac6565b808210612908576040517f08c379a00000000000000000000000000000000000000000000000000000000081526004016128ff90615408565b60405180910390fd5b81600281905550806003819055505050565b600e5f9054906101000a900473ffffffffffffffffffffffffffffffffffffffff1681565b600f5f9054906101000a900473ffffffffffffffffffffffffffffffffffffffff1681565b61296c612ac6565b5f73ffffffffffffffffffffffffffffffffffffffff168173ffffffffffffffffffffffffffffffffffffffff16036129da576040517f08c379a00000000000000000000000000000000000000000000000000000000081526004016129d190613e1b565b60405180910390fd5b8060105f6101000a81548173ffffffffffffffffffffffffffffffffffffffff021916908373ffffffffffffffffffffffffffffffffffffffff16021790555050565b612a25612ac6565b5f73ffffffffffffffffffffffffffffffffffffffff168173ffffffffffffffffffffffffffffffffffffffff1603612a95575f6040517f1e4fbdf7000000000000000000000000000000000000000000000000000000008152600401612a8c9190613544565b60405180910390fd5b612a9e816132cc565b50565b60105f9054906101000a900473ffffffffffffffffffffffffffffffffffffffff1681565b612ace61338f565b73ffffffffffffffffffffffffffffffffffffffff16612aec612155565b73ffffffffffffffffffffffffffffffffffffffff1614612b4b57612b0f61338f565b6040517f118cdaa7000000000000000000000000000000000000000000000000000000008152600401612b429190613544565b60405180910390fd5b565b60025f5403612b88576040517f3ee5aeb500000000000000000000000000000000000000000000000000000000815260040160405180910390fd5b60025f81905550565b5f600a5f600d5481526020019081526020015f209050806005015f9054906101000a900460ff1615612bf8576040517f08c379a0000000000000000000000000000000000000000000000000000000008152600401612bef90615470565b60405180910390fd5b80600101544211612c3e576040517f08c379a0000000000000000000000000000000000000000000000000000000008152600401612c35906154d8565b60405180910390fd5b6001816005015f6101000a81548160ff0219169083151502179055505f81600301541115612c925780600301546305f5e1008260020154612c7f9190614547565b612c899190614517565b81600401819055505b600d547f70801d4d63b3da6c19ba7349911f45bed5a99ccdfb51b8138c105872529bebd5826002015483600301548460040154604051612cd4939291906154f6565b60405180910390a250565b5f80600d541115612d6657600a5f600d5481526020019081526020015f206005015f9054906101000a900460ff16612d4c576040517f08c379a0000000000000000000000000000000000000000000000000000000008152600401612d4390615575565b60405180910390fd5b600a5f600d5481526020019081526020015f206003015490505b5f60045442612d759190614905565b90506001600d5f828254612d899190614905565b925050819055506040518060c001604052804281526020018281526020015f81526020018381526020015f81526020015f1515815250600a5f600d5481526020019081526020015f205f820151815f01556020820151816001015560408201518160020155606082015181600301556080820151816004015560a0820151816005015f6101000a81548160ff021916908315150217905550905050600d547f29db3deb62ef2036e5eb93aad68d2362aec0711af592cb365566603bd88651d44283604051612e58929190615593565b60405180910390a25050565b6060838383604051602001612e7b93929190615633565b60405160208183030381529060405290509392505050565b5f805f61016773ffffffffffffffffffffffffffffffffffffffff1663eca3691760e01b88888888604051602401612ece949392919061566f565b604051602081830303815290604052907bffffffffffffffffffffffffffffffffffffffffffffffffffffffff19166020820180517bffffffffffffffffffffffffffffffffffffffffffffffffffffffff8381831617835250505050604051612f389190614a06565b5f604051808303815f865af19150503d805f8114612f71576040519150601f19603f3d011682016040523d82523d5f602084013e612f76565b606091505b509150915081612f87576015612f9c565b80806020019051810190612f9b9190614a1c565b5b60030b92505050949350505050565b5f6001821015612fbd5782905061303f565b5f6103e8612fd6600185612fd19190614905565b613396565b612fe09190614547565b90505f61016990505f620186a08284612ff99190614547565b6130039190614517565b90506109c4811115613015576109c490505b60648160646130249190614905565b8761302f9190614547565b6130399190614517565b93505050505b92915050565b60015f81905550565b5f805f61016773ffffffffffffffffffffffffffffffffffffffff166349146bde60e01b86866040516024016130859291906156b2565b604051602081830303815290604052907bffffffffffffffffffffffffffffffffffffffffffffffffffffffff19166020820180517bffffffffffffffffffffffffffffffffffffffffffffffffffffffff83818316178352505050506040516130ef9190614a06565b5f604051808303815f865af19150503d805f8114613128576040519150601f19603f3d011682016040523d82523d5f602084013e61312d565b606091505b50915091508161313e576015613153565b808060200190518101906131529190614a1c565b5b60030b9250505092915050565b5f677fffffffffffffff60070b8211156131af576040517f08c379a00000000000000000000000000000000000000000000000000000000081526004016131a690615723565b60405180910390fd5b819050919050565b5f805f61016773ffffffffffffffffffffffffffffffffffffffff1663e1f21c6760e01b8787876040516024016131f093929190615741565b604051602081830303815290604052907bffffffffffffffffffffffffffffffffffffffffffffffffffffffff19166020820180517bffffffffffffffffffffffffffffffffffffffffffffffffffffffff838183161783525050505060405161325a9190614a06565b5f604051808303815f865af19150503d805f8114613293576040519150601f19603f3d011682016040523d82523d5f602084013e613298565b606091505b5091509150816132a95760156132be565b808060200190518101906132bd9190614a1c565b5b60030b925050509392505050565b5f60015f9054906101000a900473ffffffffffffffffffffffffffffffffffffffff1690508160015f6101000a81548173ffffffffffffffffffffffffffffffffffffffff021916908373ffffffffffffffffffffffffffffffffffffffff1602179055508173ffffffffffffffffffffffffffffffffffffffff168173ffffffffffffffffffffffffffffffffffffffff167f8be0079c531659141344cd1fd0a4f28419497f9722a3daafe3b4186f6b6457e060405160405180910390a35050565b5f33905090565b5f805f90505f6133b76fffffffffffffffffffffffffffffffff8511613494565b60800290508084901c935080820191506133da67ffffffffffffffff8511613494565b60400290508084901c935080820191506133f963ffffffff8511613494565b60200290508084901c9350808201915061341661ffff8511613494565b60100290508084901c9350808201915061343260ff8511613494565b60080290508084901c9350808201915061344e600f8511613494565b60040290508084901c9350808201915061346a60038511613494565b60020290508084901c9350808201915061348660018511613494565b820191508192505050919050565b5f8115159050919050565b5f604051905090565b5f80fd5b5f80fd5b5f73ffffffffffffffffffffffffffffffffffffffff82169050919050565b5f6134d9826134b0565b9050919050565b6134e9816134cf565b81146134f3575f80fd5b50565b5f81359050613504816134e0565b92915050565b5f6020828403121561351f5761351e6134a8565b5b5f61352c848285016134f6565b91505092915050565b61353e816134cf565b82525050565b5f6020820190506135575f830184613535565b92915050565b5f819050919050565b61356f8161355d565b8114613579575f80fd5b50565b5f8135905061358a81613566565b92915050565b5f80fd5b5f80fd5b5f80fd5b5f8083601f8401126135b1576135b0613590565b5b8235905067ffffffffffffffff8111156135ce576135cd613594565b5b6020830191508360208202830111156135ea576135e9613598565b5b9250929050565b5f805f805f8060a0878903121561360b5761360a6134a8565b5b5f61361889828a016134f6565b965050602061362989828a0161357c565b955050604061363a89828a0161357c565b945050606061364b89828a0161357c565b935050608087013567ffffffffffffffff81111561366c5761366b6134ac565b5b61367889828a0161359c565b92509250509295509295509295565b5f805f806080858703121561369f5761369e6134a8565b5b5f6136ac878288016134f6565b94505060206136bd878288016134f6565b93505060406136ce878288016134f6565b92505060606136df8782880161357c565b91505092959194509250565b5f8160070b9050919050565b613700816136eb565b82525050565b5f6020820190506137195f8301846136f7565b92915050565b5f60208284031215613734576137336134a8565b5b5f6137418482850161357c565b91505092915050565b5f819050919050565b61375c8161374a565b82525050565b5f6020820190506137755f830184613753565b92915050565b5f62ffffff82169050919050565b6137928161377b565b811461379c575f80fd5b50565b5f813590506137ad81613789565b92915050565b5f805f606084860312156137ca576137c96134a8565b5b5f6137d7868287016134f6565b93505060206137e8868287016134f6565b92505060406137f98682870161379f565b9150509250925092565b61380c8161355d565b82525050565b5f6020820190506138255f830184613803565b92915050565b5f805f60608486031215613842576138416134a8565b5b5f61384f8682870161357c565b9350506020613860868287016134f6565b92505060406138718682870161357c565b9150509250925092565b5f8115159050919050565b61388f8161387b565b82525050565b5f6020820190506138a85f830184613886565b92915050565b6138b78161374a565b81146138c1575f80fd5b50565b5f813590506138d2816138ae565b92915050565b5f602082840312156138ed576138ec6134a8565b5b5f6138fa848285016138c4565b91505092915050565b5f80fd5b5f601f19601f8301169050919050565b7f4e487b71000000000000000000000000000000000000000000000000000000005f52604160045260245ffd5b61394d82613907565b810181811067ffffffffffffffff8211171561396c5761396b613917565b5b80604052505050565b5f61397e61349f565b905061398a8282613944565b919050565b5f67ffffffffffffffff8211156139a9576139a8613917565b5b6139b282613907565b9050602081019050919050565b828183375f83830152505050565b5f6139df6139da8461398f565b613975565b9050828152602081018484840111156139fb576139fa613903565b5b613a068482856139bf565b509392505050565b5f82601f830112613a2257613a21613590565b5b8135613a328482602086016139cd565b91505092915050565b5f8060408385031215613a5157613a506134a8565b5b5f613a5e858286016134f6565b925050602083013567ffffffffffffffff811115613a7f57613a7e6134ac565b5b613a8b85828601613a0e565b9150509250929050565b5f819050919050565b613aa781613a95565b82525050565b5f81519050919050565b5f82825260208201905092915050565b8281835e5f83830152505050565b5f613adf82613aad565b613ae98185613ab7565b9350613af9818560208601613ac7565b613b0281613907565b840191505092915050565b5f604082019050613b205f830185613a9e565b8181036020830152613b328184613ad5565b90509392505050565b5f8060408385031215613b5157613b506134a8565b5b5f613b5e858286016134f6565b9250506020613b6f858286016134f6565b9150509250929050565b613b828161377b565b82525050565b5f602082019050613b9b5f830184613b79565b92915050565b5f8060408385031215613bb757613bb66134a8565b5b5f613bc4858286016134f6565b9250506020613bd58582860161357c565b9150509250929050565b5f60c082019050613bf25f830189613535565b613bff6020830188613803565b613c0c6040830187613803565b613c196060830186613803565b613c266080830185613803565b613c3360a0830184613803565b979650505050505050565b5f60c082019050613c515f830189613803565b613c5e6020830188613803565b613c6b6040830187613803565b613c786060830186613803565b613c856080830185613803565b613c9260a0830184613886565b979650505050505050565b5f8060408385031215613cb357613cb26134a8565b5b5f613cc08582860161357c565b9250506020613cd18582860161357c565b9150509250929050565b5f819050919050565b5f613cfe613cf9613cf4846134b0565b613cdb565b6134b0565b9050919050565b5f613d0f82613ce4565b9050919050565b5f613d2082613d05565b9050919050565b613d3081613d16565b82525050565b5f602082019050613d495f830184613d27565b92915050565b5f613d5982613d05565b9050919050565b613d6981613d4f565b82525050565b5f602082019050613d825f830184613d60565b92915050565b5f613d9282613d05565b9050919050565b613da281613d88565b82525050565b5f602082019050613dbb5f830184613d99565b92915050565b5f82825260208201905092915050565b7f496e76616c6964206164647265737300000000000000000000000000000000005f82015250565b5f613e05600f83613dc1565b9150613e1082613dd1565b602082019050919050565b5f6020820190508181035f830152613e3281613df9565b9050919050565b7f5374616b6520616d6f756e74206d757374206265203e203000000000000000005f82015250565b5f613e6d601883613dc1565b9150613e7882613e39565b602082019050919050565b5f6020820190508181035f830152613e9a81613e61565b9050919050565b7f5374616b65206475726174696f6e206f7574206f662072616e676500000000005f82015250565b5f613ed5601b83613dc1565b9150613ee082613ea1565b602082019050919050565b5f6020820190508181035f830152613f0281613ec9565b9050919050565b7f496e636f7272656374204842415220616d6f756e742073656e740000000000005f82015250565b5f613f3d601a83613dc1565b9150613f4882613f09565b602082019050919050565b5f6020820190508181035f830152613f6a81613f31565b9050919050565b5f82825260208201905092915050565b5f819050919050565b5f82825260208201905092915050565b5f613fa58385613f8a565b9350613fb28385846139bf565b613fbb83613907565b840190509392505050565b5f613fd2848484613f9a565b90509392505050565b5f80fd5b5f80fd5b5f80fd5b5f808335600160200384360303811261400357614002613fe3565b5b83810192508235915060208301925067ffffffffffffffff82111561402b5761402a613fdb565b5b60018202360383131561404157614040613fdf565b5b509250929050565b5f602082019050919050565b5f6140608385613f71565b93508360208402850161407284613f81565b805f5b878110156140b757848403895261408c8284613fe7565b614097868284613fc6565b95506140a284614049565b935060208b019a505050600181019050614075565b50829750879450505050509392505050565b5f6020820190508181035f8301526140e2818486614055565b90509392505050565b5f815190506140f981613566565b92915050565b5f60208284031215614114576141136134a8565b5b5f614121848285016140eb565b91505092915050565b7f4e487b71000000000000000000000000000000000000000000000000000000005f52601160045260245ffd5b5f6141618261355d565b915061416c8361355d565b92508282039050818111156141845761418361412a565b5b92915050565b5f819050919050565b5f6141ad6141a86141a38461418a565b613cdb565b61355d565b9050919050565b6141bd81614193565b82525050565b5f6040820190506141d65f830185613753565b6141e360208301846141b4565b9392505050565b5f80fd5b6141f7816136eb565b8114614201575f80fd5b50565b5f81519050614212816141ee565b92915050565b5f67ffffffffffffffff82169050919050565b61423481614218565b811461423e575f80fd5b50565b5f8151905061424f8161422b565b92915050565b5f8160030b9050919050565b61426a81614255565b8114614274575f80fd5b50565b5f8151905061428581614261565b92915050565b5f608082840312156142a05761429f6141ea565b5b6142aa6080613975565b90505f6142b984828501614204565b5f8301525060206142cc84828501614241565b60208301525060406142e084828501614277565b60408301525060606142f4848285016140eb565b60608301525092915050565b5f60808284031215614315576143146134a8565b5b5f6143228482850161428b565b91505092915050565b5f61433582614255565b91507fffffffffffffffffffffffffffffffffffffffffffffffffffffffff8000000082036143675761436661412a565b5b815f039050919050565b5f8160011c9050919050565b5f808291508390505b60018511156143c6578086048111156143a2576143a161412a565b5b60018516156143b15780820291505b80810290506143bf85614371565b9450614386565b94509492505050565b5f826143de5760019050614499565b816143eb575f9050614499565b8160018114614401576002811461440b5761443a565b6001915050614499565b60ff84111561441d5761441c61412a565b5b8360020a9150848211156144345761443361412a565b5b50614499565b5060208310610133831016604e8410600b841016171561446f5782820a90508381111561446a5761446961412a565b5b614499565b61447c848484600161437d565b925090508184048111156144935761449261412a565b5b81810290505b9392505050565b5f6144aa8261355d565b91506144b58361355d565b92506144e27fffffffffffffffffffffffffffffffffffffffffffffffffffffffffffffffff84846143cf565b905092915050565b7f4e487b71000000000000000000000000000000000000000000000000000000005f52601260045260245ffd5b5f6145218261355d565b915061452c8361355d565b92508261453c5761453b6144ea565b5b828204905092915050565b5f6145518261355d565b915061455c8361355d565b925082820261456a8161355d565b915082820484148315176145815761458061412a565b5b5092915050565b7f546f6b656e2076616c756520756e6465722031205553440000000000000000005f82015250565b5f6145bc601783613dc1565b91506145c782614588565b602082019050919050565b5f6020820190508181035f8301526145e9816145b0565b9050919050565b5f6040820190508181035f8301526146088185613ad5565b90506146176020830184613803565b9392505050565b5f67ffffffffffffffff82111561463857614637613917565b5b602082029050602081019050919050565b614652816134b0565b811461465c575f80fd5b50565b5f8151905061466d81614649565b92915050565b5f6146856146808461461e565b613975565b905080838252602082019050602084028301858111156146a8576146a7613598565b5b835b818110156146d157806146bd888261465f565b8452602084019350506020810190506146aa565b5050509392505050565b5f82601f8301126146ef576146ee613590565b5b81516146ff848260208601614673565b91505092915050565b5f67ffffffffffffffff82111561472257614721613917565b5b602082029050602081019050919050565b5f63ffffffff82169050919050565b61474b81614733565b8114614755575f80fd5b50565b5f8151905061476681614742565b92915050565b5f61477e61477984614708565b613975565b905080838252602082019050602084028301858111156147a1576147a0613598565b5b835b818110156147ca57806147b68882614758565b8452602084019350506020810190506147a3565b5050509392505050565b5f82601f8301126147e8576147e7613590565b5b81516147f884826020860161476c565b91505092915050565b5f805f8060808587031215614819576148186134a8565b5b5f614826878288016140eb565b945050602085015167ffffffffffffffff811115614847576148466134ac565b5b614853878288016146db565b935050604085015167ffffffffffffffff811115614874576148736134ac565b5b614880878288016147d4565b9250506060614891878288016140eb565b91505092959194509250565b7f546f6b656e207472616e73666572206661696c656400000000000000000000005f82015250565b5f6148d1601583613dc1565b91506148dc8261489d565b602082019050919050565b5f6020820190508181035f8301526148fe816148c5565b9050919050565b5f61490f8261355d565b915061491a8361355d565b92508282019050808211156149325761493161412a565b5b92915050565b5f60a08201905061494b5f830188613803565b6149586020830187613803565b6149656040830186613803565b6149726060830185613803565b61497f6080830184613535565b9695505050505050565b5f60808201905061499c5f830187613535565b6149a96020830186613535565b6149b66040830185613535565b6149c36060830184613803565b95945050505050565b5f81905092915050565b5f6149e082613aad565b6149ea81856149cc565b93506149fa818560208601613ac7565b80840191505092915050565b5f614a1182846149d6565b915081905092915050565b5f60208284031215614a3157614a306134a8565b5b5f614a3e84828501614277565b91505092915050565b7f4173736f6369617465204661696c6564000000000000000000000000000000005f82015250565b5f614a7b601083613dc1565b9150614a8682614a47565b602082019050919050565b5f6020820190508181035f830152614aa881614a6f565b9050919050565b7f496e76616c696420696e646578000000000000000000000000000000000000005f82015250565b5f614ae3600d83613dc1565b9150614aee82614aaf565b602082019050919050565b5f6020820190508181035f830152614b1081614ad7565b9050919050565b7f4e487b71000000000000000000000000000000000000000000000000000000005f52603260045260245ffd5b7f416c72656164792077697468647261776e0000000000000000000000000000005f82015250565b5f614b78601183613dc1565b9150614b8382614b44565b602082019050919050565b5f6020820190508181035f830152614ba581614b6c565b9050919050565b7f496e73756666696369656e7420636f6e74726163742062616c616e63650000005f82015250565b5f614be0601d83613dc1565b9150614beb82614bac565b602082019050919050565b5f6020820190508181035f830152614c0d81614bd4565b9050919050565b50565b5f614c225f836149cc565b9150614c2d82614c14565b5f82019050919050565b5f614c4182614c17565b9150819050919050565b7f4661696c656420746f2073656e642048424152000000000000000000000000005f82015250565b5f614c7f601383613dc1565b9150614c8a82614c4b565b602082019050919050565b5f6020820190508181035f830152614cac81614c73565b9050919050565b7f546f6b656e207472616e73666572206261636b206661696c65640000000000005f82015250565b5f614ce7601a83613dc1565b9150614cf282614cb3565b602082019050919050565b5f6020820190508181035f830152614d1481614cdb565b9050919050565b7f4661696c656420746f20617070726f766520746f6b656e7320666f7220726f755f8201527f7465720000000000000000000000000000000000000000000000000000000000602082015250565b5f614d75602383613dc1565b9150614d8082614d1b565b604082019050919050565b5f6020820190508181035f830152614da281614d69565b9050919050565b5f614db382613aad565b614dbd8185613f8a565b9350614dcd818560208601613ac7565b614dd681613907565b840191505092915050565b614dea816134cf565b82525050565b614df98161355d565b82525050565b5f60a083015f8301518482035f860152614e198282614da9565b9150506020830151614e2e6020860182614de1565b506040830151614e416040860182614df0565b506060830151614e546060860182614df0565b506080830151614e676080860182614df0565b508091505092915050565b5f6020820190508181035f830152614e8a8184614dff565b905092915050565b5f604082019050614ea55f830185613803565b614eb26020830184613535565b9392505050565b5f81519050919050565b5f819050602082019050919050565b5f614edd8383614da9565b905092915050565b5f602082019050919050565b5f614efb82614eb9565b614f058185613f71565b935083602082028501614f1785614ec3565b805f5b85811015614f525784840389528151614f338582614ed2565b9450614f3e83614ee5565b925060208a01995050600181019050614f1a565b50829750879550505050505092915050565b5f6020820190508181035f830152614f7c8184614ef1565b905092915050565b5f67ffffffffffffffff821115614f9e57614f9d613917565b5b602082029050602081019050919050565b5f614fc1614fbc8461398f565b613975565b905082815260208101848484011115614fdd57614fdc613903565b5b614fe8848285613ac7565b509392505050565b5f82601f83011261500457615003613590565b5b8151615014848260208601614faf565b91505092915050565b5f61502f61502a84614f84565b613975565b9050808382526020820190506020840283018581111561505257615051613598565b5b835b8181101561509957805167ffffffffffffffff81111561507757615076613590565b5b8086016150848982614ff0565b85526020850194505050602081019050615054565b5050509392505050565b5f82601f8301126150b7576150b6613590565b5b81516150c784826020860161501d565b91505092915050565b5f602082840312156150e5576150e46134a8565b5b5f82015167ffffffffffffffff811115615102576151016134ac565b5b61510e848285016150a3565b91505092915050565b5f60808201905061512a5f830187613803565b6151376020830186613803565b6151446040830185613886565b6151516060830184613803565b95945050505050565b7f45706f6368206475726174696f6e206d757374206265203e20300000000000005f82015250565b5f61518e601a83613dc1565b91506151998261515a565b602082019050919050565b5f6020820190508181035f8301526151bb81615182565b9050919050565b7f466565732063616e6e6f742062652030000000000000000000000000000000005f82015250565b5f6151f6601083613dc1565b9150615201826151c2565b602082019050919050565b5f6020820190508181035f830152615223816151ea565b9050919050565b5f60408201905061523d5f830185613535565b818103602083015261524f8184613ad5565b90509392505050565b5f60408201905061526b5f830185613886565b818103602083015261527d8184613ad5565b90509392505050565b7f50656e616c7479207261746520657863656564732031303025000000000000005f82015250565b5f6152ba601983613dc1565b91506152c582615286565b602082019050919050565b5f6020820190508181035f8301526152e7816152ae565b9050919050565b7f4e6f20616374697665207374616b6573000000000000000000000000000000005f82015250565b5f615322601083613dc1565b915061532d826152ee565b602082019050919050565b5f6020820190508181035f83015261534f81615316565b9050919050565b7f48424152207472616e73666572206661696c65640000000000000000000000005f82015250565b5f61538a601483613dc1565b915061539582615356565b602082019050919050565b5f6020820190508181035f8301526153b78161537e565b9050919050565b7f6d696e206d757374206265203c206d61780000000000000000000000000000005f82015250565b5f6153f2601183613dc1565b91506153fd826153be565b602082019050919050565b5f6020820190508181035f83015261541f816153e6565b9050919050565b7f416c72656164792066696e616c697a65640000000000000000000000000000005f82015250565b5f61545a601183613dc1565b915061546582615426565b602082019050919050565b5f6020820190508181035f8301526154878161544e565b9050919050565b7f45706f6368206e6f7420656e64656400000000000000000000000000000000005f82015250565b5f6154c2600f83613dc1565b91506154cd8261548e565b602082019050919050565b5f6020820190508181035f8301526154ef816154b6565b9050919050565b5f6060820190506155095f830186613803565b6155166020830185613803565b6155236040830184613803565b949350505050565b7f50726576696f75732065706f6368206e6f742066696e616c697a6564000000005f82015250565b5f61555f601c83613dc1565b915061556a8261552b565b602082019050919050565b5f6020820190508181035f83015261558c81615553565b9050919050565b5f6040820190506155a65f830185613803565b6155b36020830184613803565b9392505050565b5f8160601b9050919050565b5f6155d0826155ba565b9050919050565b5f6155e1826155c6565b9050919050565b6155f96155f4826134cf565b6155d7565b82525050565b5f8160e81b9050919050565b5f615615826155ff565b9050919050565b61562d6156288261377b565b61560b565b82525050565b5f61563e82866155e8565b60148201915061564e828561561c565b60038201915061565e82846155e8565b601482019150819050949350505050565b5f6080820190506156825f830187613535565b61568f6020830186613535565b61569c6040830185613535565b6156a960608301846136f7565b95945050505050565b5f6040820190506156c55f830185613535565b6156d26020830184613535565b9392505050565b7f56616c7565206578636565647320696e743634206d61780000000000000000005f82015250565b5f61570d601783613dc1565b9150615718826156d9565b602082019050919050565b5f6020820190508181035f83015261573a81615701565b9050919050565b5f6060820190506157545f830186613535565b6157616020830185613535565b61576e6040830184613803565b94935050505056fea264697066735822122044eec777c848bec5d7bc79a91c359abb603b54ebbefef42a3a9b21f60ea5602364736f6c634300081a0033",
			"opcodes": "PUSH1 0x80 PUSH1 0x40 MSTORE PUSH1 0x5 PUSH1 0x2 SSTORE PUSH2 0x708 PUSH1 0x3 SSTORE PUSH1 0x5 PUSH1 0x4 SSTORE PUSH2 0x3AD2 PUSH1 0x5 PUSH0 PUSH2 0x100 EXP DUP2 SLOAD DUP2 PUSH20 0xFFFFFFFFFFFFFFFFFFFFFFFFFFFFFFFFFFFFFFFF MUL NOT AND SWAP1 DUP4 PUSH20 0xFFFFFFFFFFFFFFFFFFFFFFFFFFFFFFFFFFFFFFFF AND MUL OR SWAP1 SSTORE POP PUSH2 0x3AD2 PUSH1 0x6 PUSH0 PUSH2 0x100 EXP DUP2 SLOAD DUP2 PUSH20 0xFFFFFFFFFFFFFFFFFFFFFFFFFFFFFFFFFFFFFFFF MUL NOT AND SWAP1 DUP4 PUSH20 0xFFFFFFFFFFFFFFFFFFFFFFFFFFFFFFFFFFFFFFFF AND MUL OR SWAP1 SSTORE POP PUSH1 0xA PUSH1 0xC SSTORE PUSH0 PUSH1 0xD SSTORE CALLVALUE DUP1 ISZERO PUSH2 0xAC JUMPI PUSH0 DUP1 REVERT JUMPDEST POP PUSH1 0x40 MLOAD PUSH2 0x5EA9 CODESIZE SUB DUP1 PUSH2 0x5EA9 DUP4 CODECOPY DUP2 DUP2 ADD PUSH1 0x40 MSTORE DUP2 ADD SWAP1 PUSH2 0xCE SWAP2 SWAP1 PUSH2 0x54D JUMP JUMPDEST CALLER PUSH1 0x1 PUSH0 DUP2 SWAP1 SSTORE POP PUSH0 PUSH20 0xFFFFFFFFFFFFFFFFFFFFFFFFFFFFFFFFFFFFFFFF AND DUP2 PUSH20 0xFFFFFFFFFFFFFFFFFFFFFFFFFFFFFFFFFFFFFFFF AND SUB PUSH2 0x146 JUMPI PUSH0 PUSH1 0x40 MLOAD PUSH32 0x1E4FBDF700000000000000000000000000000000000000000000000000000000 DUP2 MSTORE PUSH1 0x4 ADD PUSH2 0x13D SWAP2 SWAP1 PUSH2 0x5C0 JUMP JUMPDEST PUSH1 0x40 MLOAD DUP1 SWAP2 SUB SWAP1 REVERT JUMPDEST PUSH2 0x155 DUP2 PUSH2 0x274 PUSH1 0x20 SHL PUSH1 0x20 SHR JUMP JUMPDEST POP DUP4 PUSH1 0x10 PUSH0 PUSH2 0x100 EXP DUP2 SLOAD DUP2 PUSH20 0xFFFFFFFFFFFFFFFFFFFFFFFFFFFFFFFFFFFFFFFF MUL NOT AND SWAP1 DUP4 PUSH20 0xFFFFFFFFFFFFFFFFFFFFFFFFFFFFFFFFFFFFFFFF AND MUL OR SWAP1 SSTORE POP DUP3 PUSH1 0xE PUSH0 PUSH2 0x100 EXP DUP2 SLOAD DUP2 PUSH20 0xFFFFFFFFFFFFFFFFFFFFFFFFFFFFFFFFFFFFFFFF MUL NOT AND SWAP1 DUP4 PUSH20 0xFFFFFFFFFFFFFFFFFFFFFFFFFFFFFFFFFFFFFFFF AND MUL OR SWAP1 SSTORE POP DUP2 PUSH1 0xF PUSH0 PUSH2 0x100 EXP DUP2 SLOAD DUP2 PUSH20 0xFFFFFFFFFFFFFFFFFFFFFFFFFFFFFFFFFFFFFFFF MUL NOT AND SWAP1 DUP4 PUSH20 0xFFFFFFFFFFFFFFFFFFFFFFFFFFFFFFFFFFFFFFFF AND MUL OR SWAP1 SSTORE POP DUP2 PUSH1 0x11 PUSH0 PUSH2 0x100 EXP DUP2 SLOAD DUP2 PUSH20 0xFFFFFFFFFFFFFFFFFFFFFFFFFFFFFFFFFFFFFFFF MUL NOT AND SWAP1 DUP4 PUSH20 0xFFFFFFFFFFFFFFFFFFFFFFFFFFFFFFFFFFFFFFFF AND MUL OR SWAP1 SSTORE POP DUP1 PUSH1 0x12 DUP2 SWAP1 SSTORE POP PUSH2 0x26B PUSH2 0x337 PUSH1 0x20 SHL PUSH1 0x20 SHR JUMP JUMPDEST POP POP POP POP PUSH2 0x6F0 JUMP JUMPDEST PUSH0 PUSH1 0x1 PUSH0 SWAP1 SLOAD SWAP1 PUSH2 0x100 EXP SWAP1 DIV PUSH20 0xFFFFFFFFFFFFFFFFFFFFFFFFFFFFFFFFFFFFFFFF AND SWAP1 POP DUP2 PUSH1 0x1 PUSH0 PUSH2 0x100 EXP DUP2 SLOAD DUP2 PUSH20 0xFFFFFFFFFFFFFFFFFFFFFFFFFFFFFFFFFFFFFFFF MUL NOT AND SWAP1 DUP4 PUSH20 0xFFFFFFFFFFFFFFFFFFFFFFFFFFFFFFFFFFFFFFFF AND MUL OR SWAP1 SSTORE POP DUP2 PUSH20 0xFFFFFFFFFFFFFFFFFFFFFFFFFFFFFFFFFFFFFFFF AND DUP2 PUSH20 0xFFFFFFFFFFFFFFFFFFFFFFFFFFFFFFFFFFFFFFFF AND PUSH32 0x8BE0079C531659141344CD1FD0A4F28419497F9722A3DAAFE3B4186F6B6457E0 PUSH1 0x40 MLOAD PUSH1 0x40 MLOAD DUP1 SWAP2 SUB SWAP1 LOG3 POP POP JUMP JUMPDEST PUSH0 DUP1 PUSH1 0xD SLOAD GT ISZERO PUSH2 0x3BE JUMPI PUSH1 0xA PUSH0 PUSH1 0xD SLOAD DUP2 MSTORE PUSH1 0x20 ADD SWAP1 DUP2 MSTORE PUSH1 0x20 ADD PUSH0 KECCAK256 PUSH1 0x5 ADD PUSH0 SWAP1 SLOAD SWAP1 PUSH2 0x100 EXP SWAP1 DIV PUSH1 0xFF AND PUSH2 0x3A4 JUMPI PUSH1 0x40 MLOAD PUSH32 0x8C379A000000000000000000000000000000000000000000000000000000000 DUP2 MSTORE PUSH1 0x4 ADD PUSH2 0x39B SWAP1 PUSH2 0x633 JUMP JUMPDEST PUSH1 0x40 MLOAD DUP1 SWAP2 SUB SWAP1 REVERT JUMPDEST PUSH1 0xA PUSH0 PUSH1 0xD SLOAD DUP2 MSTORE PUSH1 0x20 ADD SWAP1 DUP2 MSTORE PUSH1 0x20 ADD PUSH0 KECCAK256 PUSH1 0x3 ADD SLOAD SWAP1 POP JUMPDEST PUSH0 PUSH1 0x4 SLOAD TIMESTAMP PUSH2 0x3CD SWAP2 SWAP1 PUSH2 0x687 JUMP JUMPDEST SWAP1 POP PUSH1 0x1 PUSH1 0xD PUSH0 DUP3 DUP3 SLOAD PUSH2 0x3E1 SWAP2 SWAP1 PUSH2 0x687 JUMP JUMPDEST SWAP3 POP POP DUP2 SWAP1 SSTORE POP PUSH1 0x40 MLOAD DUP1 PUSH1 0xC0 ADD PUSH1 0x40 MSTORE DUP1 TIMESTAMP DUP2 MSTORE PUSH1 0x20 ADD DUP3 DUP2 MSTORE PUSH1 0x20 ADD PUSH0 DUP2 MSTORE PUSH1 0x20 ADD DUP4 DUP2 MSTORE PUSH1 0x20 ADD PUSH0 DUP2 MSTORE PUSH1 0x20 ADD PUSH0 ISZERO ISZERO DUP2 MSTORE POP PUSH1 0xA PUSH0 PUSH1 0xD SLOAD DUP2 MSTORE PUSH1 0x20 ADD SWAP1 DUP2 MSTORE PUSH1 0x20 ADD PUSH0 KECCAK256 PUSH0 DUP3 ADD MLOAD DUP2 PUSH0 ADD SSTORE PUSH1 0x20 DUP3 ADD MLOAD DUP2 PUSH1 0x1 ADD SSTORE PUSH1 0x40 DUP3 ADD MLOAD DUP2 PUSH1 0x2 ADD SSTORE PUSH1 0x60 DUP3 ADD MLOAD DUP2 PUSH1 0x3 ADD SSTORE PUSH1 0x80 DUP3 ADD MLOAD DUP2 PUSH1 0x4 ADD SSTORE PUSH1 0xA0 DUP3 ADD MLOAD DUP2 PUSH1 0x5 ADD PUSH0 PUSH2 0x100 EXP DUP2 SLOAD DUP2 PUSH1 0xFF MUL NOT AND SWAP1 DUP4 ISZERO ISZERO MUL OR SWAP1 SSTORE POP SWAP1 POP POP PUSH1 0xD SLOAD PUSH32 0x29DB3DEB62EF2036E5EB93AAD68D2362AEC0711AF592CB365566603BD88651D4 TIMESTAMP DUP4 PUSH1 0x40 MLOAD PUSH2 0x4B0 SWAP3 SWAP2 SWAP1 PUSH2 0x6C9 JUMP JUMPDEST PUSH1 0x40 MLOAD DUP1 SWAP2 SUB SWAP1 LOG2 POP POP JUMP JUMPDEST PUSH0 DUP1 REVERT JUMPDEST PUSH0 PUSH20 0xFFFFFFFFFFFFFFFFFFFFFFFFFFFFFFFFFFFFFFFF DUP3 AND SWAP1 POP SWAP2 SWAP1 POP JUMP JUMPDEST PUSH0 PUSH2 0x4E9 DUP3 PUSH2 0x4C0 JUMP JUMPDEST SWAP1 POP SWAP2 SWAP1 POP JUMP JUMPDEST PUSH2 0x4F9 DUP2 PUSH2 0x4DF JUMP JUMPDEST DUP2 EQ PUSH2 0x503 JUMPI PUSH0 DUP1 REVERT JUMPDEST POP JUMP JUMPDEST PUSH0 DUP2 MLOAD SWAP1 POP PUSH2 0x514 DUP2 PUSH2 0x4F0 JUMP JUMPDEST SWAP3 SWAP2 POP POP JUMP JUMPDEST PUSH0 DUP2 SWAP1 POP SWAP2 SWAP1 POP JUMP JUMPDEST PUSH2 0x52C DUP2 PUSH2 0x51A JUMP JUMPDEST DUP2 EQ PUSH2 0x536 JUMPI PUSH0 DUP1 REVERT JUMPDEST POP JUMP JUMPDEST PUSH0 DUP2 MLOAD SWAP1 POP PUSH2 0x547 DUP2 PUSH2 0x523 JUMP JUMPDEST SWAP3 SWAP2 POP POP JUMP JUMPDEST PUSH0 DUP1 PUSH0 DUP1 PUSH1 0x80 DUP6 DUP8 SUB SLT ISZERO PUSH2 0x565 JUMPI PUSH2 0x564 PUSH2 0x4BC JUMP JUMPDEST JUMPDEST PUSH0 PUSH2 0x572 DUP8 DUP3 DUP9 ADD PUSH2 0x506 JUMP JUMPDEST SWAP5 POP POP PUSH1 0x20 PUSH2 0x583 DUP8 DUP3 DUP9 ADD PUSH2 0x506 JUMP JUMPDEST SWAP4 POP POP PUSH1 0x40 PUSH2 0x594 DUP8 DUP3 DUP9 ADD PUSH2 0x506 JUMP JUMPDEST SWAP3 POP POP PUSH1 0x60 PUSH2 0x5A5 DUP8 DUP3 DUP9 ADD PUSH2 0x539 JUMP JUMPDEST SWAP2 POP POP SWAP3 SWAP6 SWAP2 SWAP5 POP SWAP3 POP JUMP JUMPDEST PUSH2 0x5BA DUP2 PUSH2 0x4DF JUMP JUMPDEST DUP3 MSTORE POP POP JUMP JUMPDEST PUSH0 PUSH1 0x20 DUP3 ADD SWAP1 POP PUSH2 0x5D3 PUSH0 DUP4 ADD DUP5 PUSH2 0x5B1 JUMP JUMPDEST SWAP3 SWAP2 POP POP JUMP JUMPDEST PUSH0 DUP3 DUP3 MSTORE PUSH1 0x20 DUP3 ADD SWAP1 POP SWAP3 SWAP2 POP POP JUMP JUMPDEST PUSH32 0x50726576696F75732065706F6368206E6F742066696E616C697A656400000000 PUSH0 DUP3 ADD MSTORE POP JUMP JUMPDEST PUSH0 PUSH2 0x61D PUSH1 0x1C DUP4 PUSH2 0x5D9 JUMP JUMPDEST SWAP2 POP PUSH2 0x628 DUP3 PUSH2 0x5E9 JUMP JUMPDEST PUSH1 0x20 DUP3 ADD SWAP1 POP SWAP2 SWAP1 POP JUMP JUMPDEST PUSH0 PUSH1 0x20 DUP3 ADD SWAP1 POP DUP2 DUP2 SUB PUSH0 DUP4 ADD MSTORE PUSH2 0x64A DUP2 PUSH2 0x611 JUMP JUMPDEST SWAP1 POP SWAP2 SWAP1 POP JUMP JUMPDEST PUSH0 DUP2 SWAP1 POP SWAP2 SWAP1 POP JUMP JUMPDEST PUSH32 0x4E487B7100000000000000000000000000000000000000000000000000000000 PUSH0 MSTORE PUSH1 0x11 PUSH1 0x4 MSTORE PUSH1 0x24 PUSH0 REVERT JUMPDEST PUSH0 PUSH2 0x691 DUP3 PUSH2 0x651 JUMP JUMPDEST SWAP2 POP PUSH2 0x69C DUP4 PUSH2 0x651 JUMP JUMPDEST SWAP3 POP DUP3 DUP3 ADD SWAP1 POP DUP1 DUP3 GT ISZERO PUSH2 0x6B4 JUMPI PUSH2 0x6B3 PUSH2 0x65A JUMP JUMPDEST JUMPDEST SWAP3 SWAP2 POP POP JUMP JUMPDEST PUSH2 0x6C3 DUP2 PUSH2 0x651 JUMP JUMPDEST DUP3 MSTORE POP POP JUMP JUMPDEST PUSH0 PUSH1 0x40 DUP3 ADD SWAP1 POP PUSH2 0x6DC PUSH0 DUP4 ADD DUP6 PUSH2 0x6BA JUMP JUMPDEST PUSH2 0x6E9 PUSH1 0x20 DUP4 ADD DUP5 PUSH2 0x6BA JUMP JUMPDEST SWAP4 SWAP3 POP POP POP JUMP JUMPDEST PUSH2 0x57AC DUP1 PUSH2 0x6FD PUSH0 CODECOPY PUSH0 RETURN INVALID PUSH1 0x80 PUSH1 0x40 MSTORE PUSH1 0x4 CALLDATASIZE LT PUSH2 0x21D JUMPI PUSH0 CALLDATALOAD PUSH1 0xE0 SHR DUP1 PUSH4 0x8DA5CB5B GT PUSH2 0x122 JUMPI DUP1 PUSH4 0xBE7B26AA GT PUSH2 0xAA JUMPI DUP1 PUSH4 0xE20DCCB2 GT PUSH2 0x6E JUMPI DUP1 PUSH4 0xE20DCCB2 EQ PUSH2 0x7B5 JUMPI DUP1 PUSH4 0xEE1DA7C2 EQ PUSH2 0x7DF JUMPI DUP1 PUSH4 0xEE22FD6F EQ PUSH2 0x809 JUMPI DUP1 PUSH4 0xF2FDE38B EQ PUSH2 0x831 JUMPI DUP1 PUSH4 0xF98D06F0 EQ PUSH2 0x859 JUMPI PUSH2 0x224 JUMP JUMPDEST DUP1 PUSH4 0xBE7B26AA EQ PUSH2 0x6D2 JUMPI DUP1 PUSH4 0xC6B61E4C EQ PUSH2 0x6FA JUMPI DUP1 PUSH4 0xD38BCDEE EQ PUSH2 0x73B JUMPI DUP1 PUSH4 0xD6B7494F EQ PUSH2 0x763 JUMPI DUP1 PUSH4 0xD8990C11 EQ PUSH2 0x78D JUMPI PUSH2 0x224 JUMP JUMPDEST DUP1 PUSH4 0xA1BAB447 GT PUSH2 0xF1 JUMPI DUP1 PUSH4 0xA1BAB447 EQ PUSH2 0x5FF JUMPI DUP1 PUSH4 0xAA9BBC0C EQ PUSH2 0x627 JUMPI DUP1 PUSH4 0xABD10B10 EQ PUSH2 0x651 JUMPI DUP1 PUSH4 0xB5D5B5FA EQ PUSH2 0x67B JUMPI DUP1 PUSH4 0xB88A802F EQ PUSH2 0x6BC JUMPI PUSH2 0x224 JUMP JUMPDEST DUP1 PUSH4 0x8DA5CB5B EQ PUSH2 0x521 JUMPI DUP1 PUSH4 0x9B23D3D9 EQ PUSH2 0x54B JUMPI DUP1 PUSH4 0x9B9AC2CB EQ PUSH2 0x587 JUMPI DUP1 PUSH4 0x9BFD8D61 EQ PUSH2 0x5C3 JUMPI PUSH2 0x224 JUMP JUMPDEST DUP1 PUSH4 0x4FF0876A GT PUSH2 0x1A5 JUMPI DUP1 PUSH4 0x5FEC5C64 GT PUSH2 0x174 JUMPI DUP1 PUSH4 0x5FEC5C64 EQ PUSH2 0x452 JUMPI DUP1 PUSH4 0x618DC65E EQ PUSH2 0x47C JUMPI DUP1 PUSH4 0x61E7BC12 EQ PUSH2 0x4B9 JUMPI DUP1 PUSH4 0x715018A6 EQ PUSH2 0x4E1 JUMPI DUP1 PUSH4 0x76F70003 EQ PUSH2 0x4F7 JUMPI PUSH2 0x224 JUMP JUMPDEST DUP1 PUSH4 0x4FF0876A EQ PUSH2 0x39A JUMPI DUP1 PUSH4 0x500F6E14 EQ PUSH2 0x3C4 JUMPI DUP1 PUSH4 0x56FDFC57 EQ PUSH2 0x3EE JUMPI DUP1 PUSH4 0x587B47B0 EQ PUSH2 0x42A JUMPI PUSH2 0x224 JUMP JUMPDEST DUP1 PUSH4 0x1A2A5E15 GT PUSH2 0x1EC JUMPI DUP1 PUSH4 0x1A2A5E15 EQ PUSH2 0x2D0 JUMPI DUP1 PUSH4 0x2E1A7D4D EQ PUSH2 0x2F8 JUMPI DUP1 PUSH4 0x30024DFE EQ PUSH2 0x320 JUMPI DUP1 PUSH4 0x4A9138C6 EQ PUSH2 0x348 JUMPI DUP1 PUSH4 0x4D7098EF EQ PUSH2 0x372 JUMPI PUSH2 0x224 JUMP JUMPDEST DUP1 PUSH4 0x15E358D EQ PUSH2 0x226 JUMPI DUP1 PUSH4 0x2D45457 EQ PUSH2 0x24E JUMPI DUP1 PUSH4 0x9716DEE EQ PUSH2 0x278 JUMPI DUP1 PUSH4 0x15DACBEA EQ PUSH2 0x294 JUMPI PUSH2 0x224 JUMP JUMPDEST CALLDATASIZE PUSH2 0x224 JUMPI STOP JUMPDEST STOP JUMPDEST CALLVALUE DUP1 ISZERO PUSH2 0x231 JUMPI PUSH0 DUP1 REVERT JUMPDEST POP PUSH2 0x24C PUSH1 0x4 DUP1 CALLDATASIZE SUB DUP2 ADD SWAP1 PUSH2 0x247 SWAP2 SWAP1 PUSH2 0x350A JUMP JUMPDEST PUSH2 0x883 JUMP JUMPDEST STOP JUMPDEST CALLVALUE DUP1 ISZERO PUSH2 0x259 JUMPI PUSH0 DUP1 REVERT JUMPDEST POP PUSH2 0x262 PUSH2 0x93C JUMP JUMPDEST PUSH1 0x40 MLOAD PUSH2 0x26F SWAP2 SWAP1 PUSH2 0x3544 JUMP JUMPDEST PUSH1 0x40 MLOAD DUP1 SWAP2 SUB SWAP1 RETURN JUMPDEST PUSH2 0x292 PUSH1 0x4 DUP1 CALLDATASIZE SUB DUP2 ADD SWAP1 PUSH2 0x28D SWAP2 SWAP1 PUSH2 0x35F1 JUMP JUMPDEST PUSH2 0x961 JUMP JUMPDEST STOP JUMPDEST CALLVALUE DUP1 ISZERO PUSH2 0x29F JUMPI PUSH0 DUP1 REVERT JUMPDEST POP PUSH2 0x2BA PUSH1 0x4 DUP1 CALLDATASIZE SUB DUP2 ADD SWAP1 PUSH2 0x2B5 SWAP2 SWAP1 PUSH2 0x3687 JUMP JUMPDEST PUSH2 0x11F1 JUMP JUMPDEST PUSH1 0x40 MLOAD PUSH2 0x2C7 SWAP2 SWAP1 PUSH2 0x3706 JUMP JUMPDEST PUSH1 0x40 MLOAD DUP1 SWAP2 SUB SWAP1 RETURN JUMPDEST CALLVALUE DUP1 ISZERO PUSH2 0x2DB JUMPI PUSH0 DUP1 REVERT JUMPDEST POP PUSH2 0x2F6 PUSH1 0x4 DUP1 CALLDATASIZE SUB DUP2 ADD SWAP1 PUSH2 0x2F1 SWAP2 SWAP1 PUSH2 0x350A JUMP JUMPDEST PUSH2 0x1309 JUMP JUMPDEST STOP JUMPDEST CALLVALUE DUP1 ISZERO PUSH2 0x303 JUMPI PUSH0 DUP1 REVERT JUMPDEST POP PUSH2 0x31E PUSH1 0x4 DUP1 CALLDATASIZE SUB DUP2 ADD SWAP1 PUSH2 0x319 SWAP2 SWAP1 PUSH2 0x371F JUMP JUMPDEST PUSH2 0x139F JUMP JUMPDEST STOP JUMPDEST CALLVALUE DUP1 ISZERO PUSH2 0x32B JUMPI PUSH0 DUP1 REVERT JUMPDEST POP PUSH2 0x346 PUSH1 0x4 DUP1 CALLDATASIZE SUB DUP2 ADD SWAP1 PUSH2 0x341 SWAP2 SWAP1 PUSH2 0x371F JUMP JUMPDEST PUSH2 0x1D74 JUMP JUMPDEST STOP JUMPDEST CALLVALUE DUP1 ISZERO PUSH2 0x353 JUMPI PUSH0 DUP1 REVERT JUMPDEST POP PUSH2 0x35C PUSH2 0x1DC8 JUMP JUMPDEST PUSH1 0x40 MLOAD PUSH2 0x369 SWAP2 SWAP1 PUSH2 0x3762 JUMP JUMPDEST PUSH1 0x40 MLOAD DUP1 SWAP2 SUB SWAP1 RETURN JUMPDEST CALLVALUE DUP1 ISZERO PUSH2 0x37D JUMPI PUSH0 DUP1 REVERT JUMPDEST POP PUSH2 0x398 PUSH1 0x4 DUP1 CALLDATASIZE SUB DUP2 ADD SWAP1 PUSH2 0x393 SWAP2 SWAP1 PUSH2 0x37B3 JUMP JUMPDEST PUSH2 0x1DCE JUMP JUMPDEST STOP JUMPDEST CALLVALUE DUP1 ISZERO PUSH2 0x3A5 JUMPI PUSH0 DUP1 REVERT JUMPDEST POP PUSH2 0x3AE PUSH2 0x1EB6 JUMP JUMPDEST PUSH1 0x40 MLOAD PUSH2 0x3BB SWAP2 SWAP1 PUSH2 0x3812 JUMP JUMPDEST PUSH1 0x40 MLOAD DUP1 SWAP2 SUB SWAP1 RETURN JUMPDEST CALLVALUE DUP1 ISZERO PUSH2 0x3CF JUMPI PUSH0 DUP1 REVERT JUMPDEST POP PUSH2 0x3D8 PUSH2 0x1EBC JUMP JUMPDEST PUSH1 0x40 MLOAD PUSH2 0x3E5 SWAP2 SWAP1 PUSH2 0x3544 JUMP JUMPDEST PUSH1 0x40 MLOAD DUP1 SWAP2 SUB SWAP1 RETURN JUMPDEST CALLVALUE DUP1 ISZERO PUSH2 0x3F9 JUMPI PUSH0 DUP1 REVERT JUMPDEST POP PUSH2 0x414 PUSH1 0x4 DUP1 CALLDATASIZE SUB DUP2 ADD SWAP1 PUSH2 0x40F SWAP2 SWAP1 PUSH2 0x382B JUMP JUMPDEST PUSH2 0x1EE1 JUMP JUMPDEST PUSH1 0x40 MLOAD PUSH2 0x421 SWAP2 SWAP1 PUSH2 0x3895 JUMP JUMPDEST PUSH1 0x40 MLOAD DUP1 SWAP2 SUB SWAP1 RETURN JUMPDEST CALLVALUE DUP1 ISZERO PUSH2 0x435 JUMPI PUSH0 DUP1 REVERT JUMPDEST POP PUSH2 0x450 PUSH1 0x4 DUP1 CALLDATASIZE SUB DUP2 ADD SWAP1 PUSH2 0x44B SWAP2 SWAP1 PUSH2 0x38D8 JUMP JUMPDEST PUSH2 0x1F16 JUMP JUMPDEST STOP JUMPDEST CALLVALUE DUP1 ISZERO PUSH2 0x45D JUMPI PUSH0 DUP1 REVERT JUMPDEST POP PUSH2 0x466 PUSH2 0x1F28 JUMP JUMPDEST PUSH1 0x40 MLOAD PUSH2 0x473 SWAP2 SWAP1 PUSH2 0x3812 JUMP JUMPDEST PUSH1 0x40 MLOAD DUP1 SWAP2 SUB SWAP1 RETURN JUMPDEST CALLVALUE DUP1 ISZERO PUSH2 0x487 JUMPI PUSH0 DUP1 REVERT JUMPDEST POP PUSH2 0x4A2 PUSH1 0x4 DUP1 CALLDATASIZE SUB DUP2 ADD SWAP1 PUSH2 0x49D SWAP2 SWAP1 PUSH2 0x3A3B JUMP JUMPDEST PUSH2 0x1F2E JUMP JUMPDEST PUSH1 0x40 MLOAD PUSH2 0x4B0 SWAP3 SWAP2 SWAP1 PUSH2 0x3B0D JUMP JUMPDEST PUSH1 0x40 MLOAD DUP1 SWAP2 SUB SWAP1 RETURN JUMPDEST CALLVALUE DUP1 ISZERO PUSH2 0x4C4 JUMPI PUSH0 DUP1 REVERT JUMPDEST POP PUSH2 0x4DF PUSH1 0x4 DUP1 CALLDATASIZE SUB DUP2 ADD SWAP1 PUSH2 0x4DA SWAP2 SWAP1 PUSH2 0x350A JUMP JUMPDEST PUSH2 0x2083 JUMP JUMPDEST STOP JUMPDEST CALLVALUE DUP1 ISZERO PUSH2 0x4EC JUMPI PUSH0 DUP1 REVERT JUMPDEST POP PUSH2 0x4F5 PUSH2 0x213C JUMP JUMPDEST STOP JUMPDEST CALLVALUE DUP1 ISZERO PUSH2 0x502 JUMPI PUSH0 DUP1 REVERT JUMPDEST POP PUSH2 0x50B PUSH2 0x214F JUMP JUMPDEST PUSH1 0x40 MLOAD PUSH2 0x518 SWAP2 SWAP1 PUSH2 0x3812 JUMP JUMPDEST PUSH1 0x40 MLOAD DUP1 SWAP2 SUB SWAP1 RETURN JUMPDEST CALLVALUE DUP1 ISZERO PUSH2 0x52C JUMPI PUSH0 DUP1 REVERT JUMPDEST POP PUSH2 0x535 PUSH2 0x2155 JUMP JUMPDEST PUSH1 0x40 MLOAD PUSH2 0x542 SWAP2 SWAP1 PUSH2 0x3544 JUMP JUMPDEST PUSH1 0x40 MLOAD DUP1 SWAP2 SUB SWAP1 RETURN JUMPDEST CALLVALUE DUP1 ISZERO PUSH2 0x556 JUMPI PUSH0 DUP1 REVERT JUMPDEST POP PUSH2 0x571 PUSH1 0x4 DUP1 CALLDATASIZE SUB DUP2 ADD SWAP1 PUSH2 0x56C SWAP2 SWAP1 PUSH2 0x3687 JUMP JUMPDEST PUSH2 0x217D JUMP JUMPDEST PUSH1 0x40 MLOAD PUSH2 0x57E SWAP2 SWAP1 PUSH2 0x3706 JUMP JUMPDEST PUSH1 0x40 MLOAD DUP1 SWAP2 SUB SWAP1 RETURN JUMPDEST CALLVALUE DUP1 ISZERO PUSH2 0x592 JUMPI PUSH0 DUP1 REVERT JUMPDEST POP PUSH2 0x5AD PUSH1 0x4 DUP1 CALLDATASIZE SUB DUP2 ADD SWAP1 PUSH2 0x5A8 SWAP2 SWAP1 PUSH2 0x3B3B JUMP JUMPDEST PUSH2 0x2295 JUMP JUMPDEST PUSH1 0x40 MLOAD PUSH2 0x5BA SWAP2 SWAP1 PUSH2 0x3B88 JUMP JUMPDEST PUSH1 0x40 MLOAD DUP1 SWAP2 SUB SWAP1 RETURN JUMPDEST CALLVALUE DUP1 ISZERO PUSH2 0x5CE JUMPI PUSH0 DUP1 REVERT JUMPDEST POP PUSH2 0x5E9 PUSH1 0x4 DUP1 CALLDATASIZE SUB DUP2 ADD SWAP1 PUSH2 0x5E4 SWAP2 SWAP1 PUSH2 0x350A JUMP JUMPDEST PUSH2 0x22C1 JUMP JUMPDEST PUSH1 0x40 MLOAD PUSH2 0x5F6 SWAP2 SWAP1 PUSH2 0x3812 JUMP JUMPDEST PUSH1 0x40 MLOAD DUP1 SWAP2 SUB SWAP1 RETURN JUMPDEST CALLVALUE DUP1 ISZERO PUSH2 0x60A JUMPI PUSH0 DUP1 REVERT JUMPDEST POP PUSH2 0x625 PUSH1 0x4 DUP1 CALLDATASIZE SUB DUP2 ADD SWAP1 PUSH2 0x620 SWAP2 SWAP1 PUSH2 0x371F JUMP JUMPDEST PUSH2 0x22D6 JUMP JUMPDEST STOP JUMPDEST CALLVALUE DUP1 ISZERO PUSH2 0x632 JUMPI PUSH0 DUP1 REVERT JUMPDEST POP PUSH2 0x63B PUSH2 0x232C JUMP JUMPDEST PUSH1 0x40 MLOAD PUSH2 0x648 SWAP2 SWAP1 PUSH2 0x3812 JUMP JUMPDEST PUSH1 0x40 MLOAD DUP1 SWAP2 SUB SWAP1 RETURN JUMPDEST CALLVALUE DUP1 ISZERO PUSH2 0x65C JUMPI PUSH0 DUP1 REVERT JUMPDEST POP PUSH2 0x665 PUSH2 0x2332 JUMP JUMPDEST PUSH1 0x40 MLOAD PUSH2 0x672 SWAP2 SWAP1 PUSH2 0x3544 JUMP JUMPDEST PUSH1 0x40 MLOAD DUP1 SWAP2 SUB SWAP1 RETURN JUMPDEST CALLVALUE DUP1 ISZERO PUSH2 0x686 JUMPI PUSH0 DUP1 REVERT JUMPDEST POP PUSH2 0x6A1 PUSH1 0x4 DUP1 CALLDATASIZE SUB DUP2 ADD SWAP1 PUSH2 0x69C SWAP2 SWAP1 PUSH2 0x3BA1 JUMP JUMPDEST PUSH2 0x2357 JUMP JUMPDEST PUSH1 0x40 MLOAD PUSH2 0x6B3 SWAP7 SWAP6 SWAP5 SWAP4 SWAP3 SWAP2 SWAP1 PUSH2 0x3BDF JUMP JUMPDEST PUSH1 0x40 MLOAD DUP1 SWAP2 SUB SWAP1 RETURN JUMPDEST CALLVALUE DUP1 ISZERO PUSH2 0x6C7 JUMPI PUSH0 DUP1 REVERT JUMPDEST POP PUSH2 0x6D0 PUSH2 0x23C8 JUMP JUMPDEST STOP JUMPDEST CALLVALUE DUP1 ISZERO PUSH2 0x6DD JUMPI PUSH0 DUP1 REVERT JUMPDEST POP PUSH2 0x6F8 PUSH1 0x4 DUP1 CALLDATASIZE SUB DUP2 ADD SWAP1 PUSH2 0x6F3 SWAP2 SWAP1 PUSH2 0x350A JUMP JUMPDEST PUSH2 0x26C2 JUMP JUMPDEST STOP JUMPDEST CALLVALUE DUP1 ISZERO PUSH2 0x705 JUMPI PUSH0 DUP1 REVERT JUMPDEST POP PUSH2 0x720 PUSH1 0x4 DUP1 CALLDATASIZE SUB DUP2 ADD SWAP1 PUSH2 0x71B SWAP2 SWAP1 PUSH2 0x371F JUMP JUMPDEST PUSH2 0x27BB JUMP JUMPDEST PUSH1 0x40 MLOAD PUSH2 0x732 SWAP7 SWAP6 SWAP5 SWAP4 SWAP3 SWAP2 SWAP1 PUSH2 0x3C3E JUMP JUMPDEST PUSH1 0x40 MLOAD DUP1 SWAP2 SUB SWAP1 RETURN JUMPDEST CALLVALUE DUP1 ISZERO PUSH2 0x746 JUMPI PUSH0 DUP1 REVERT JUMPDEST POP PUSH2 0x761 PUSH1 0x4 DUP1 CALLDATASIZE SUB DUP2 ADD SWAP1 PUSH2 0x75C SWAP2 SWAP1 PUSH2 0x350A JUMP JUMPDEST PUSH2 0x27FF JUMP JUMPDEST STOP JUMPDEST CALLVALUE DUP1 ISZERO PUSH2 0x76E JUMPI PUSH0 DUP1 REVERT JUMPDEST POP PUSH2 0x777 PUSH2 0x28B8 JUMP JUMPDEST PUSH1 0x40 MLOAD PUSH2 0x784 SWAP2 SWAP1 PUSH2 0x3812 JUMP JUMPDEST PUSH1 0x40 MLOAD DUP1 SWAP2 SUB SWAP1 RETURN JUMPDEST CALLVALUE DUP1 ISZERO PUSH2 0x798 JUMPI PUSH0 DUP1 REVERT JUMPDEST POP PUSH2 0x7B3 PUSH1 0x4 DUP1 CALLDATASIZE SUB DUP2 ADD SWAP1 PUSH2 0x7AE SWAP2 SWAP1 PUSH2 0x3C9D JUMP JUMPDEST PUSH2 0x28BE JUMP JUMPDEST STOP JUMPDEST CALLVALUE DUP1 ISZERO PUSH2 0x7C0 JUMPI PUSH0 DUP1 REVERT JUMPDEST POP PUSH2 0x7C9 PUSH2 0x291A JUMP JUMPDEST PUSH1 0x40 MLOAD PUSH2 0x7D6 SWAP2 SWAP1 PUSH2 0x3D36 JUMP JUMPDEST PUSH1 0x40 MLOAD DUP1 SWAP2 SUB SWAP1 RETURN JUMPDEST CALLVALUE DUP1 ISZERO PUSH2 0x7EA JUMPI PUSH0 DUP1 REVERT JUMPDEST POP PUSH2 0x7F3 PUSH2 0x293F JUMP JUMPDEST PUSH1 0x40 MLOAD PUSH2 0x800 SWAP2 SWAP1 PUSH2 0x3D6F JUMP JUMPDEST PUSH1 0x40 MLOAD DUP1 SWAP2 SUB SWAP1 RETURN JUMPDEST CALLVALUE DUP1 ISZERO PUSH2 0x814 JUMPI PUSH0 DUP1 REVERT JUMPDEST POP PUSH2 0x82F PUSH1 0x4 DUP1 CALLDATASIZE SUB DUP2 ADD SWAP1 PUSH2 0x82A SWAP2 SWAP1 PUSH2 0x350A JUMP JUMPDEST PUSH2 0x2964 JUMP JUMPDEST STOP JUMPDEST CALLVALUE DUP1 ISZERO PUSH2 0x83C JUMPI PUSH0 DUP1 REVERT JUMPDEST POP PUSH2 0x857 PUSH1 0x4 DUP1 CALLDATASIZE SUB DUP2 ADD SWAP1 PUSH2 0x852 SWAP2 SWAP1 PUSH2 0x350A JUMP JUMPDEST PUSH2 0x2A1D JUMP JUMPDEST STOP JUMPDEST CALLVALUE DUP1 ISZERO PUSH2 0x864 JUMPI PUSH0 DUP1 REVERT JUMPDEST POP PUSH2 0x86D PUSH2 0x2AA1 JUMP JUMPDEST PUSH1 0x40 MLOAD PUSH2 0x87A SWAP2 SWAP1 PUSH2 0x3DA8 JUMP JUMPDEST PUSH1 0x40 MLOAD DUP1 SWAP2 SUB SWAP1 RETURN JUMPDEST PUSH2 0x88B PUSH2 0x2AC6 JUMP JUMPDEST PUSH0 PUSH20 0xFFFFFFFFFFFFFFFFFFFFFFFFFFFFFFFFFFFFFFFF AND DUP2 PUSH20 0xFFFFFFFFFFFFFFFFFFFFFFFFFFFFFFFFFFFFFFFF AND SUB PUSH2 0x8F9 JUMPI PUSH1 0x40 MLOAD PUSH32 0x8C379A000000000000000000000000000000000000000000000000000000000 DUP2 MSTORE PUSH1 0x4 ADD PUSH2 0x8F0 SWAP1 PUSH2 0x3E1B JUMP JUMPDEST PUSH1 0x40 MLOAD DUP1 SWAP2 SUB SWAP1 REVERT JUMPDEST DUP1 PUSH1 0x6 PUSH0 PUSH2 0x100 EXP DUP2 SLOAD DUP2 PUSH20 0xFFFFFFFFFFFFFFFFFFFFFFFFFFFFFFFFFFFFFFFF MUL NOT AND SWAP1 DUP4 PUSH20 0xFFFFFFFFFFFFFFFFFFFFFFFFFFFFFFFFFFFFFFFF AND MUL OR SWAP1 SSTORE POP POP JUMP JUMPDEST PUSH1 0x5 PUSH0 SWAP1 SLOAD SWAP1 PUSH2 0x100 EXP SWAP1 DIV PUSH20 0xFFFFFFFFFFFFFFFFFFFFFFFFFFFFFFFFFFFFFFFF AND DUP2 JUMP JUMPDEST PUSH2 0x969 PUSH2 0x2B4D JUMP JUMPDEST PUSH0 PUSH1 0xA PUSH0 PUSH1 0xD SLOAD DUP2 MSTORE PUSH1 0x20 ADD SWAP1 DUP2 MSTORE PUSH1 0x20 ADD PUSH0 KECCAK256 SWAP1 POP DUP1 PUSH1 0x1 ADD SLOAD TIMESTAMP GT DUP1 ISZERO PUSH2 0x9A0 JUMPI POP DUP1 PUSH1 0x5 ADD PUSH0 SWAP1 SLOAD SWAP1 PUSH2 0x100 EXP SWAP1 DIV PUSH1 0xFF AND ISZERO JUMPDEST ISZERO PUSH2 0x9B6 JUMPI PUSH2 0x9AD PUSH2 0x2B91 JUMP JUMPDEST PUSH2 0x9B5 PUSH2 0x2CDF JUMP JUMPDEST JUMPDEST PUSH0 DUP7 GT PUSH2 0x9F8 JUMPI PUSH1 0x40 MLOAD PUSH32 0x8C379A000000000000000000000000000000000000000000000000000000000 DUP2 MSTORE PUSH1 0x4 ADD PUSH2 0x9EF SWAP1 PUSH2 0x3E83 JUMP JUMPDEST PUSH1 0x40 MLOAD DUP1 SWAP2 SUB SWAP1 REVERT JUMPDEST PUSH1 0x2 SLOAD DUP6 LT ISZERO DUP1 ISZERO PUSH2 0xA0C JUMPI POP PUSH1 0x3 SLOAD DUP6 GT ISZERO JUMPDEST PUSH2 0xA4B JUMPI PUSH1 0x40 MLOAD PUSH32 0x8C379A000000000000000000000000000000000000000000000000000000000 DUP2 MSTORE PUSH1 0x4 ADD PUSH2 0xA42 SWAP1 PUSH2 0x3EEB JUMP JUMPDEST PUSH1 0x40 MLOAD DUP1 SWAP2 SUB SWAP1 REVERT JUMPDEST PUSH0 DUP1 DUP8 SWAP1 POP PUSH0 PUSH20 0xFFFFFFFFFFFFFFFFFFFFFFFFFFFFFFFFFFFFFFFF AND DUP10 PUSH20 0xFFFFFFFFFFFFFFFFFFFFFFFFFFFFFFFFFFFFFFFF AND SUB PUSH2 0xD3A JUMPI DUP8 CALLVALUE EQ PUSH2 0xAC5 JUMPI PUSH1 0x40 MLOAD PUSH32 0x8C379A000000000000000000000000000000000000000000000000000000000 DUP2 MSTORE PUSH1 0x4 ADD PUSH2 0xABC SWAP1 PUSH2 0x3F53 JUMP JUMPDEST PUSH1 0x40 MLOAD DUP1 SWAP2 SUB SWAP1 REVERT JUMPDEST PUSH0 PUSH1 0x10 PUSH0 SWAP1 SLOAD SWAP1 PUSH2 0x100 EXP SWAP1 DIV PUSH20 0xFFFFFFFFFFFFFFFFFFFFFFFFFFFFFFFFFFFFFFFF AND PUSH20 0xFFFFFFFFFFFFFFFFFFFFFFFFFFFFFFFFFFFFFFFF AND PUSH4 0xD47EED45 DUP8 DUP8 PUSH1 0x40 MLOAD DUP4 PUSH4 0xFFFFFFFF AND PUSH1 0xE0 SHL DUP2 MSTORE PUSH1 0x4 ADD PUSH2 0xB22 SWAP3 SWAP2 SWAP1 PUSH2 0x40C9 JUMP JUMPDEST PUSH1 0x20 PUSH1 0x40 MLOAD DUP1 DUP4 SUB DUP2 DUP7 GAS STATICCALL ISZERO DUP1 ISZERO PUSH2 0xB3D JUMPI RETURNDATASIZE PUSH0 DUP1 RETURNDATACOPY RETURNDATASIZE PUSH0 REVERT JUMPDEST POP POP POP POP PUSH1 0x40 MLOAD RETURNDATASIZE PUSH1 0x1F NOT PUSH1 0x1F DUP3 ADD AND DUP3 ADD DUP1 PUSH1 0x40 MSTORE POP DUP2 ADD SWAP1 PUSH2 0xB61 SWAP2 SWAP1 PUSH2 0x40FF JUMP JUMPDEST SWAP1 POP DUP1 DUP3 PUSH2 0xB6F SWAP2 SWAP1 PUSH2 0x4157 JUMP JUMPDEST SWAP2 POP PUSH1 0x10 PUSH0 SWAP1 SLOAD SWAP1 PUSH2 0x100 EXP SWAP1 DIV PUSH20 0xFFFFFFFFFFFFFFFFFFFFFFFFFFFFFFFFFFFFFFFF AND PUSH20 0xFFFFFFFFFFFFFFFFFFFFFFFFFFFFFFFFFFFFFFFF AND PUSH4 0xEF9E5E28 DUP3 DUP9 DUP9 PUSH1 0x40 MLOAD DUP5 PUSH4 0xFFFFFFFF AND PUSH1 0xE0 SHL DUP2 MSTORE PUSH1 0x4 ADD PUSH2 0xBCE SWAP3 SWAP2 SWAP1 PUSH2 0x40C9 JUMP JUMPDEST PUSH0 PUSH1 0x40 MLOAD DUP1 DUP4 SUB DUP2 DUP6 DUP9 DUP1 EXTCODESIZE ISZERO DUP1 ISZERO PUSH2 0xBE5 JUMPI PUSH0 DUP1 REVERT JUMPDEST POP GAS CALL ISZERO DUP1 ISZERO PUSH2 0xBF7 JUMPI RETURNDATASIZE PUSH0 DUP1 RETURNDATACOPY RETURNDATASIZE PUSH0 REVERT JUMPDEST POP POP POP POP POP PUSH0 PUSH1 0x10 PUSH0 SWAP1 SLOAD SWAP1 PUSH2 0x100 EXP SWAP1 DIV PUSH20 0xFFFFFFFFFFFFFFFFFFFFFFFFFFFFFFFFFFFFFFFF AND PUSH20 0xFFFFFFFFFFFFFFFFFFFFFFFFFFFFFFFFFFFFFFFF AND PUSH4 0xA4AE35E0 PUSH1 0x12 SLOAD PUSH1 0x3C PUSH1 0x40 MLOAD DUP4 PUSH4 0xFFFFFFFF AND PUSH1 0xE0 SHL DUP2 MSTORE PUSH1 0x4 ADD PUSH2 0xC5C SWAP3 SWAP2 SWAP1 PUSH2 0x41C3 JUMP JUMPDEST PUSH1 0x80 PUSH1 0x40 MLOAD DUP1 DUP4 SUB DUP2 DUP7 GAS STATICCALL ISZERO DUP1 ISZERO PUSH2 0xC77 JUMPI RETURNDATASIZE PUSH0 DUP1 RETURNDATACOPY RETURNDATASIZE PUSH0 REVERT JUMPDEST POP POP POP POP PUSH1 0x40 MLOAD RETURNDATASIZE PUSH1 0x1F NOT PUSH1 0x1F DUP3 ADD AND DUP3 ADD DUP1 PUSH1 0x40 MSTORE POP DUP2 ADD SWAP1 PUSH2 0xC9B SWAP2 SWAP1 PUSH2 0x4300 JUMP JUMPDEST SWAP1 POP PUSH0 DUP2 PUSH1 0x40 ADD MLOAD PUSH2 0xCAC SWAP1 PUSH2 0x432B JUMP JUMPDEST PUSH4 0xFFFFFFFF AND PUSH1 0xA PUSH2 0xCBE SWAP2 SWAP1 PUSH2 0x44A0 JUMP JUMPDEST DUP3 PUSH0 ADD MLOAD PUSH1 0x7 SIGNEXTEND PUSH2 0xCCF SWAP2 SWAP1 PUSH2 0x4517 JUMP JUMPDEST SWAP1 POP PUSH4 0x5F5E100 DUP5 DUP3 PUSH2 0xCE2 SWAP2 SWAP1 PUSH2 0x4547 JUMP JUMPDEST PUSH2 0xCEC SWAP2 SWAP1 PUSH2 0x4517 JUMP JUMPDEST SWAP5 POP PUSH1 0x64 DUP6 LT ISZERO PUSH2 0xD32 JUMPI PUSH1 0x40 MLOAD PUSH32 0x8C379A000000000000000000000000000000000000000000000000000000000 DUP2 MSTORE PUSH1 0x4 ADD PUSH2 0xD29 SWAP1 PUSH2 0x45D2 JUMP JUMPDEST PUSH1 0x40 MLOAD DUP1 SWAP2 SUB SWAP1 REVERT JUMPDEST POP POP POP PUSH2 0xF62 JUMP JUMPDEST PUSH0 PUSH2 0xE0E DUP11 PUSH1 0x7 PUSH0 DUP14 PUSH20 0xFFFFFFFFFFFFFFFFFFFFFFFFFFFFFFFFFFFFFFFF AND PUSH20 0xFFFFFFFFFFFFFFFFFFFFFFFFFFFFFFFFFFFFFFFF AND DUP2 MSTORE PUSH1 0x20 ADD SWAP1 DUP2 MSTORE PUSH1 0x20 ADD PUSH0 KECCAK256 PUSH0 PUSH1 0x5 PUSH0 SWAP1 SLOAD SWAP1 PUSH2 0x100 EXP SWAP1 DIV PUSH20 0xFFFFFFFFFFFFFFFFFFFFFFFFFFFFFFFFFFFFFFFF AND PUSH20 0xFFFFFFFFFFFFFFFFFFFFFFFFFFFFFFFFFFFFFFFF AND PUSH20 0xFFFFFFFFFFFFFFFFFFFFFFFFFFFFFFFFFFFFFFFF AND DUP2 MSTORE PUSH1 0x20 ADD SWAP1 DUP2 MSTORE PUSH1 0x20 ADD PUSH0 KECCAK256 PUSH0 SWAP1 SLOAD SWAP1 PUSH2 0x100 EXP SWAP1 DIV PUSH3 0xFFFFFF AND PUSH1 0x5 PUSH0 SWAP1 SLOAD SWAP1 PUSH2 0x100 EXP SWAP1 DIV PUSH20 0xFFFFFFFFFFFFFFFFFFFFFFFFFFFFFFFFFFFFFFFF AND PUSH2 0x2E64 JUMP JUMPDEST SWAP1 POP PUSH0 PUSH1 0xE PUSH0 SWAP1 SLOAD SWAP1 PUSH2 0x100 EXP SWAP1 DIV PUSH20 0xFFFFFFFFFFFFFFFFFFFFFFFFFFFFFFFFFFFFFFFF AND PUSH20 0xFFFFFFFFFFFFFFFFFFFFFFFFFFFFFFFFFFFFFFFF AND PUSH4 0xCDCA1753 DUP4 DUP13 PUSH1 0x40 MLOAD DUP4 PUSH4 0xFFFFFFFF AND PUSH1 0xE0 SHL DUP2 MSTORE PUSH1 0x4 ADD PUSH2 0xE6D SWAP3 SWAP2 SWAP1 PUSH2 0x45F0 JUMP JUMPDEST PUSH0 PUSH1 0x40 MLOAD DUP1 DUP4 SUB DUP2 PUSH0 DUP8 GAS CALL ISZERO DUP1 ISZERO PUSH2 0xE88 JUMPI RETURNDATASIZE PUSH0 DUP1 RETURNDATACOPY RETURNDATASIZE PUSH0 REVERT JUMPDEST POP POP POP POP PUSH1 0x40 MLOAD RETURNDATASIZE PUSH0 DUP3 RETURNDATACOPY RETURNDATASIZE PUSH1 0x1F NOT PUSH1 0x1F DUP3 ADD AND DUP3 ADD DUP1 PUSH1 0x40 MSTORE POP DUP2 ADD SWAP1 PUSH2 0xEB0 SWAP2 SWAP1 PUSH2 0x4801 JUMP JUMPDEST POP POP POP SWAP1 POP PUSH2 0x2710 DUP2 PUSH2 0xEC3 SWAP2 SWAP1 PUSH2 0x4517 JUMP JUMPDEST SWAP4 POP PUSH1 0x64 DUP5 LT ISZERO PUSH2 0xF09 JUMPI PUSH1 0x40 MLOAD PUSH32 0x8C379A000000000000000000000000000000000000000000000000000000000 DUP2 MSTORE PUSH1 0x4 ADD PUSH2 0xF00 SWAP1 PUSH2 0x45D2 JUMP JUMPDEST PUSH1 0x40 MLOAD DUP1 SWAP2 SUB SWAP1 REVERT JUMPDEST PUSH0 PUSH2 0xF16 DUP13 CALLER ADDRESS DUP15 PUSH2 0x2E93 JUMP JUMPDEST SWAP1 POP PUSH1 0x16 PUSH1 0x3 SIGNEXTEND DUP2 EQ PUSH2 0xF5E JUMPI PUSH1 0x40 MLOAD PUSH32 0x8C379A000000000000000000000000000000000000000000000000000000000 DUP2 MSTORE PUSH1 0x4 ADD PUSH2 0xF55 SWAP1 PUSH2 0x48E7 JUMP JUMPDEST PUSH1 0x40 MLOAD DUP1 SWAP2 SUB SWAP1 REVERT JUMPDEST POP POP POP JUMPDEST PUSH0 DUP8 DUP4 PUSH2 0xF6F SWAP2 SWAP1 PUSH2 0x4547 JUMP JUMPDEST SWAP1 POP PUSH0 DUP8 GT ISZERO PUSH2 0xF86 JUMPI PUSH2 0xF83 DUP2 DUP9 PUSH2 0x2FAB JUMP JUMPDEST SWAP1 POP JUMPDEST PUSH1 0x9 PUSH0 CALLER PUSH20 0xFFFFFFFFFFFFFFFFFFFFFFFFFFFFFFFFFFFFFFFF AND PUSH20 0xFFFFFFFFFFFFFFFFFFFFFFFFFFFFFFFFFFFFFFFF AND DUP2 MSTORE PUSH1 0x20 ADD SWAP1 DUP2 MSTORE PUSH1 0x20 ADD PUSH0 KECCAK256 PUSH1 0x40 MLOAD DUP1 PUSH1 0xC0 ADD PUSH1 0x40 MSTORE DUP1 DUP13 PUSH20 0xFFFFFFFFFFFFFFFFFFFFFFFFFFFFFFFFFFFFFFFF AND DUP2 MSTORE PUSH1 0x20 ADD DUP5 DUP2 MSTORE PUSH1 0x20 ADD TIMESTAMP DUP2 MSTORE PUSH1 0x20 ADD DUP11 TIMESTAMP PUSH2 0x1002 SWAP2 SWAP1 PUSH2 0x4905 JUMP JUMPDEST DUP2 MSTORE PUSH1 0x20 ADD DUP4 DUP2 MSTORE PUSH1 0x20 ADD PUSH1 0xD SLOAD DUP2 MSTORE POP SWAP1 DUP1 PUSH1 0x1 DUP2 SLOAD ADD DUP1 DUP3 SSTORE DUP1 SWAP2 POP POP PUSH1 0x1 SWAP1 SUB SWAP1 PUSH0 MSTORE PUSH1 0x20 PUSH0 KECCAK256 SWAP1 PUSH1 0x6 MUL ADD PUSH0 SWAP1 SWAP2 SWAP1 SWAP2 SWAP1 SWAP2 POP PUSH0 DUP3 ADD MLOAD DUP2 PUSH0 ADD PUSH0 PUSH2 0x100 EXP DUP2 SLOAD DUP2 PUSH20 0xFFFFFFFFFFFFFFFFFFFFFFFFFFFFFFFFFFFFFFFF MUL NOT AND SWAP1 DUP4 PUSH20 0xFFFFFFFFFFFFFFFFFFFFFFFFFFFFFFFFFFFFFFFF AND MUL OR SWAP1 SSTORE POP PUSH1 0x20 DUP3 ADD MLOAD DUP2 PUSH1 0x1 ADD SSTORE PUSH1 0x40 DUP3 ADD MLOAD DUP2 PUSH1 0x2 ADD SSTORE PUSH1 0x60 DUP3 ADD MLOAD DUP2 PUSH1 0x3 ADD SSTORE PUSH1 0x80 DUP3 ADD MLOAD DUP2 PUSH1 0x4 ADD SSTORE PUSH1 0xA0 DUP3 ADD MLOAD DUP2 PUSH1 0x5 ADD SSTORE POP POP DUP9 PUSH1 0x8 PUSH0 DUP13 PUSH20 0xFFFFFFFFFFFFFFFFFFFFFFFFFFFFFFFFFFFFFFFF AND PUSH20 0xFFFFFFFFFFFFFFFFFFFFFFFFFFFFFFFFFFFFFFFF AND DUP2 MSTORE PUSH1 0x20 ADD SWAP1 DUP2 MSTORE PUSH1 0x20 ADD PUSH0 KECCAK256 PUSH0 DUP3 DUP3 SLOAD PUSH2 0x10FD SWAP2 SWAP1 PUSH2 0x4905 JUMP JUMPDEST SWAP3 POP POP DUP2 SWAP1 SSTORE POP DUP1 PUSH1 0xA PUSH0 PUSH1 0xD SLOAD DUP2 MSTORE PUSH1 0x20 ADD SWAP1 DUP2 MSTORE PUSH1 0x20 ADD PUSH0 KECCAK256 PUSH1 0x3 ADD PUSH0 DUP3 DUP3 SLOAD PUSH2 0x1129 SWAP2 SWAP1 PUSH2 0x4905 JUMP JUMPDEST SWAP3 POP POP DUP2 SWAP1 SSTORE POP CALLER PUSH20 0xFFFFFFFFFFFFFFFFFFFFFFFFFFFFFFFFFFFFFFFF AND PUSH32 0x902788162368FCC78AD80DE846B620B397DE2884386DBFF8339FB699955DACC5 DUP4 TIMESTAMP DUP12 TIMESTAMP PUSH2 0x1176 SWAP2 SWAP1 PUSH2 0x4905 JUMP JUMPDEST PUSH1 0x1 PUSH1 0x9 PUSH0 CALLER PUSH20 0xFFFFFFFFFFFFFFFFFFFFFFFFFFFFFFFFFFFFFFFF AND PUSH20 0xFFFFFFFFFFFFFFFFFFFFFFFFFFFFFFFFFFFFFFFF AND DUP2 MSTORE PUSH1 0x20 ADD SWAP1 DUP2 MSTORE PUSH1 0x20 ADD PUSH0 KECCAK256 DUP1 SLOAD SWAP1 POP PUSH2 0x11C3 SWAP2 SWAP1 PUSH2 0x4157 JUMP JUMPDEST DUP16 PUSH1 0x40 MLOAD PUSH2 0x11D5 SWAP6 SWAP5 SWAP4 SWAP3 SWAP2 SWAP1 PUSH2 0x4938 JUMP JUMPDEST PUSH1 0x40 MLOAD DUP1 SWAP2 SUB SWAP1 LOG2 POP POP POP POP PUSH2 0x11E9 PUSH2 0x3045 JUMP JUMPDEST POP POP POP POP POP POP JUMP JUMPDEST PUSH0 DUP1 PUSH0 PUSH2 0x167 PUSH20 0xFFFFFFFFFFFFFFFFFFFFFFFFFFFFFFFFFFFFFFFF AND PUSH4 0x15DACBEA PUSH1 0xE0 SHL DUP9 DUP9 DUP9 DUP9 PUSH1 0x40 MLOAD PUSH1 0x24 ADD PUSH2 0x122C SWAP5 SWAP4 SWAP3 SWAP2 SWAP1 PUSH2 0x4989 JUMP JUMPDEST PUSH1 0x40 MLOAD PUSH1 0x20 DUP2 DUP4 SUB SUB DUP2 MSTORE SWAP1 PUSH1 0x40 MSTORE SWAP1 PUSH28 0xFFFFFFFFFFFFFFFFFFFFFFFFFFFFFFFFFFFFFFFFFFFFFFFFFFFFFFFF NOT AND PUSH1 0x20 DUP3 ADD DUP1 MLOAD PUSH28 0xFFFFFFFFFFFFFFFFFFFFFFFFFFFFFFFFFFFFFFFFFFFFFFFFFFFFFFFF DUP4 DUP2 DUP4 AND OR DUP4 MSTORE POP POP POP POP PUSH1 0x40 MLOAD PUSH2 0x1296 SWAP2 SWAP1 PUSH2 0x4A06 JUMP JUMPDEST PUSH0 PUSH1 0x40 MLOAD DUP1 DUP4 SUB DUP2 PUSH0 DUP7 GAS CALL SWAP2 POP POP RETURNDATASIZE DUP1 PUSH0 DUP2 EQ PUSH2 0x12CF JUMPI PUSH1 0x40 MLOAD SWAP2 POP PUSH1 0x1F NOT PUSH1 0x3F RETURNDATASIZE ADD AND DUP3 ADD PUSH1 0x40 MSTORE RETURNDATASIZE DUP3 MSTORE RETURNDATASIZE PUSH0 PUSH1 0x20 DUP5 ADD RETURNDATACOPY PUSH2 0x12D4 JUMP JUMPDEST PUSH1 0x60 SWAP2 POP JUMPDEST POP SWAP2 POP SWAP2 POP DUP2 PUSH2 0x12E5 JUMPI PUSH1 0x15 PUSH2 0x12FA JUMP JUMPDEST DUP1 DUP1 PUSH1 0x20 ADD SWAP1 MLOAD DUP2 ADD SWAP1 PUSH2 0x12F9 SWAP2 SWAP1 PUSH2 0x4A1C JUMP JUMPDEST JUMPDEST PUSH1 0x3 SIGNEXTEND SWAP3 POP POP POP SWAP5 SWAP4 POP POP POP POP JUMP JUMPDEST PUSH2 0x1311 PUSH2 0x2AC6 JUMP JUMPDEST PUSH0 PUSH2 0x131C ADDRESS DUP4 PUSH2 0x304E JUMP JUMPDEST SWAP1 POP PUSH1 0x16 PUSH1 0x3 SIGNEXTEND DUP2 EQ PUSH2 0x1364 JUMPI PUSH1 0x40 MLOAD PUSH32 0x8C379A000000000000000000000000000000000000000000000000000000000 DUP2 MSTORE PUSH1 0x4 ADD PUSH2 0x135B SWAP1 PUSH2 0x4A91 JUMP JUMPDEST PUSH1 0x40 MLOAD DUP1 SWAP2 SUB SWAP1 REVERT JUMPDEST PUSH32 0xBBBF805EF99CA7D0B7D2CC769719F2A281C9B3331A3642EFA75A712E3094A166 DUP3 PUSH1 0x40 MLOAD PUSH2 0x1393 SWAP2 SWAP1 PUSH2 0x3544 JUMP JUMPDEST PUSH1 0x40 MLOAD DUP1 SWAP2 SUB SWAP1 LOG1 POP POP JUMP JUMPDEST PUSH2 0x13A7 PUSH2 0x2B4D JUMP JUMPDEST PUSH0 PUSH1 0xA PUSH0 PUSH1 0xD SLOAD DUP2 MSTORE PUSH1 0x20 ADD SWAP1 DUP2 MSTORE PUSH1 0x20 ADD PUSH0 KECCAK256 SWAP1 POP DUP1 PUSH1 0x1 ADD SLOAD TIMESTAMP GT DUP1 ISZERO PUSH2 0x13DE JUMPI POP DUP1 PUSH1 0x5 ADD PUSH0 SWAP1 SLOAD SWAP1 PUSH2 0x100 EXP SWAP1 DIV PUSH1 0xFF AND ISZERO JUMPDEST ISZERO PUSH2 0x13F4 JUMPI PUSH2 0x13EB PUSH2 0x2B91 JUMP JUMPDEST PUSH2 0x13F3 PUSH2 0x2CDF JUMP JUMPDEST JUMPDEST PUSH1 0x9 PUSH0 CALLER PUSH20 0xFFFFFFFFFFFFFFFFFFFFFFFFFFFFFFFFFFFFFFFF AND PUSH20 0xFFFFFFFFFFFFFFFFFFFFFFFFFFFFFFFFFFFFFFFF AND DUP2 MSTORE PUSH1 0x20 ADD SWAP1 DUP2 MSTORE PUSH1 0x20 ADD PUSH0 KECCAK256 DUP1 SLOAD SWAP1 POP DUP3 LT PUSH2 0x1476 JUMPI PUSH1 0x40 MLOAD PUSH32 0x8C379A000000000000000000000000000000000000000000000000000000000 DUP2 MSTORE PUSH1 0x4 ADD PUSH2 0x146D SWAP1 PUSH2 0x4AF9 JUMP JUMPDEST PUSH1 0x40 MLOAD DUP1 SWAP2 SUB SWAP1 REVERT JUMPDEST PUSH0 PUSH1 0x9 PUSH0 CALLER PUSH20 0xFFFFFFFFFFFFFFFFFFFFFFFFFFFFFFFFFFFFFFFF AND PUSH20 0xFFFFFFFFFFFFFFFFFFFFFFFFFFFFFFFFFFFFFFFF AND DUP2 MSTORE PUSH1 0x20 ADD SWAP1 DUP2 MSTORE PUSH1 0x20 ADD PUSH0 KECCAK256 DUP4 DUP2 SLOAD DUP2 LT PUSH2 0x14C6 JUMPI PUSH2 0x14C5 PUSH2 0x4B17 JUMP JUMPDEST JUMPDEST SWAP1 PUSH0 MSTORE PUSH1 0x20 PUSH0 KECCAK256 SWAP1 PUSH1 0x6 MUL ADD SWAP1 POP PUSH0 DUP2 PUSH1 0x1 ADD SLOAD GT PUSH2 0x151A JUMPI PUSH1 0x40 MLOAD PUSH32 0x8C379A000000000000000000000000000000000000000000000000000000000 DUP2 MSTORE PUSH1 0x4 ADD PUSH2 0x1511 SWAP1 PUSH2 0x4B8E JUMP JUMPDEST PUSH1 0x40 MLOAD DUP1 SWAP2 SUB SWAP1 REVERT JUMPDEST PUSH0 DUP2 PUSH1 0x1 ADD SLOAD SWAP1 POP PUSH0 DUP3 PUSH1 0x3 ADD SLOAD TIMESTAMP LT SWAP1 POP PUSH0 DUP1 DUP3 ISZERO PUSH2 0x155F JUMPI PUSH1 0x64 PUSH1 0xC SLOAD DUP6 PUSH2 0x1544 SWAP2 SWAP1 PUSH2 0x4547 JUMP JUMPDEST PUSH2 0x154E SWAP2 SWAP1 PUSH2 0x4517 JUMP JUMPDEST SWAP2 POP DUP2 DUP5 PUSH2 0x155C SWAP2 SWAP1 PUSH2 0x4157 JUMP JUMPDEST SWAP4 POP JUMPDEST PUSH0 DUP6 PUSH1 0x1 ADD DUP2 SWAP1 SSTORE POP DUP2 DUP5 PUSH2 0x1574 SWAP2 SWAP1 PUSH2 0x4905 JUMP JUMPDEST PUSH1 0x8 PUSH0 DUP8 PUSH0 ADD PUSH0 SWAP1 SLOAD SWAP1 PUSH2 0x100 EXP SWAP1 DIV PUSH20 0xFFFFFFFFFFFFFFFFFFFFFFFFFFFFFFFFFFFFFFFF AND PUSH20 0xFFFFFFFFFFFFFFFFFFFFFFFFFFFFFFFFFFFFFFFF AND PUSH20 0xFFFFFFFFFFFFFFFFFFFFFFFFFFFFFFFFFFFFFFFF AND DUP2 MSTORE PUSH1 0x20 ADD SWAP1 DUP2 MSTORE PUSH1 0x20 ADD PUSH0 KECCAK256 PUSH0 DUP3 DUP3 SLOAD PUSH2 0x15E1 SWAP2 SWAP1 PUSH2 0x4157 JUMP JUMPDEST SWAP3 POP POP DUP2 SWAP1 SSTORE POP PUSH0 PUSH20 0xFFFFFFFFFFFFFFFFFFFFFFFFFFFFFFFFFFFFFFFF AND DUP6 PUSH0 ADD PUSH0 SWAP1 SLOAD SWAP1 PUSH2 0x100 EXP SWAP1 DIV PUSH20 0xFFFFFFFFFFFFFFFFFFFFFFFFFFFFFFFFFFFFFFFF AND PUSH20 0xFFFFFFFFFFFFFFFFFFFFFFFFFFFFFFFFFFFFFFFF AND SUB PUSH2 0x1731 JUMPI DUP2 SWAP1 POP DUP4 SELFBALANCE LT ISZERO PUSH2 0x1683 JUMPI PUSH1 0x40 MLOAD PUSH32 0x8C379A000000000000000000000000000000000000000000000000000000000 DUP2 MSTORE PUSH1 0x4 ADD PUSH2 0x167A SWAP1 PUSH2 0x4BF6 JUMP JUMPDEST PUSH1 0x40 MLOAD DUP1 SWAP2 SUB SWAP1 REVERT JUMPDEST PUSH0 CALLER PUSH20 0xFFFFFFFFFFFFFFFFFFFFFFFFFFFFFFFFFFFFFFFF AND DUP6 PUSH1 0x40 MLOAD PUSH2 0x16A8 SWAP1 PUSH2 0x4C37 JUMP JUMPDEST PUSH0 PUSH1 0x40 MLOAD DUP1 DUP4 SUB DUP2 DUP6 DUP8 GAS CALL SWAP3 POP POP POP RETURNDATASIZE DUP1 PUSH0 DUP2 EQ PUSH2 0x16E2 JUMPI PUSH1 0x40 MLOAD SWAP2 POP PUSH1 0x1F NOT PUSH1 0x3F RETURNDATASIZE ADD AND DUP3 ADD PUSH1 0x40 MSTORE RETURNDATASIZE DUP3 MSTORE RETURNDATASIZE PUSH0 PUSH1 0x20 DUP5 ADD RETURNDATACOPY PUSH2 0x16E7 JUMP JUMPDEST PUSH1 0x60 SWAP2 POP JUMPDEST POP POP SWAP1 POP DUP1 PUSH2 0x172B JUMPI PUSH1 0x40 MLOAD PUSH32 0x8C379A000000000000000000000000000000000000000000000000000000000 DUP2 MSTORE PUSH1 0x4 ADD PUSH2 0x1722 SWAP1 PUSH2 0x4C95 JUMP JUMPDEST PUSH1 0x40 MLOAD DUP1 SWAP2 SUB SWAP1 REVERT JUMPDEST POP PUSH2 0x1CDC JUMP JUMPDEST PUSH0 PUSH2 0x1768 DUP7 PUSH0 ADD PUSH0 SWAP1 SLOAD SWAP1 PUSH2 0x100 EXP SWAP1 DIV PUSH20 0xFFFFFFFFFFFFFFFFFFFFFFFFFFFFFFFFFFFFFFFF AND ADDRESS CALLER PUSH2 0x1763 DUP10 PUSH2 0x3160 JUMP JUMPDEST PUSH2 0x2E93 JUMP JUMPDEST SWAP1 POP PUSH1 0x16 PUSH1 0x3 SIGNEXTEND DUP2 EQ PUSH2 0x17B0 JUMPI PUSH1 0x40 MLOAD PUSH32 0x8C379A000000000000000000000000000000000000000000000000000000000 DUP2 MSTORE PUSH1 0x4 ADD PUSH2 0x17A7 SWAP1 PUSH2 0x4CFD JUMP JUMPDEST PUSH1 0x40 MLOAD DUP1 SWAP2 SUB SWAP1 REVERT JUMPDEST DUP4 ISZERO PUSH2 0x1CDA JUMPI PUSH2 0x1804 DUP7 PUSH0 ADD PUSH0 SWAP1 SLOAD SWAP1 PUSH2 0x100 EXP SWAP1 DIV PUSH20 0xFFFFFFFFFFFFFFFFFFFFFFFFFFFFFFFFFFFFFFFF AND PUSH1 0x11 PUSH0 SWAP1 SLOAD SWAP1 PUSH2 0x100 EXP SWAP1 DIV PUSH20 0xFFFFFFFFFFFFFFFFFFFFFFFFFFFFFFFFFFFFFFFF AND DUP6 PUSH2 0x31B7 JUMP JUMPDEST SWAP1 POP PUSH1 0x16 PUSH1 0x3 SIGNEXTEND DUP2 EQ PUSH2 0x184C JUMPI PUSH1 0x40 MLOAD PUSH32 0x8C379A000000000000000000000000000000000000000000000000000000000 DUP2 MSTORE PUSH1 0x4 ADD PUSH2 0x1843 SWAP1 PUSH2 0x4D8B JUMP JUMPDEST PUSH1 0x40 MLOAD DUP1 SWAP2 SUB SWAP1 REVERT JUMPDEST PUSH0 PUSH2 0x1964 DUP8 PUSH0 ADD PUSH0 SWAP1 SLOAD SWAP1 PUSH2 0x100 EXP SWAP1 DIV PUSH20 0xFFFFFFFFFFFFFFFFFFFFFFFFFFFFFFFFFFFFFFFF AND PUSH1 0x7 PUSH0 DUP11 PUSH0 ADD PUSH0 SWAP1 SLOAD SWAP1 PUSH2 0x100 EXP SWAP1 DIV PUSH20 0xFFFFFFFFFFFFFFFFFFFFFFFFFFFFFFFFFFFFFFFF AND PUSH20 0xFFFFFFFFFFFFFFFFFFFFFFFFFFFFFFFFFFFFFFFF AND PUSH20 0xFFFFFFFFFFFFFFFFFFFFFFFFFFFFFFFFFFFFFFFF AND DUP2 MSTORE PUSH1 0x20 ADD SWAP1 DUP2 MSTORE PUSH1 0x20 ADD PUSH0 KECCAK256 PUSH0 PUSH1 0x6 PUSH0 SWAP1 SLOAD SWAP1 PUSH2 0x100 EXP SWAP1 DIV PUSH20 0xFFFFFFFFFFFFFFFFFFFFFFFFFFFFFFFFFFFFFFFF AND PUSH20 0xFFFFFFFFFFFFFFFFFFFFFFFFFFFFFFFFFFFFFFFF AND PUSH20 0xFFFFFFFFFFFFFFFFFFFFFFFFFFFFFFFFFFFFFFFF AND DUP2 MSTORE PUSH1 0x20 ADD SWAP1 DUP2 MSTORE PUSH1 0x20 ADD PUSH0 KECCAK256 PUSH0 SWAP1 SLOAD SWAP1 PUSH2 0x100 EXP SWAP1 DIV PUSH3 0xFFFFFF AND PUSH1 0x6 PUSH0 SWAP1 SLOAD SWAP1 PUSH2 0x100 EXP SWAP1 DIV PUSH20 0xFFFFFFFFFFFFFFFFFFFFFFFFFFFFFFFFFFFFFFFF AND PUSH2 0x2E64 JUMP JUMPDEST SWAP1 POP PUSH0 PUSH1 0xE PUSH0 SWAP1 SLOAD SWAP1 PUSH2 0x100 EXP SWAP1 DIV PUSH20 0xFFFFFFFFFFFFFFFFFFFFFFFFFFFFFFFFFFFFFFFF AND PUSH20 0xFFFFFFFFFFFFFFFFFFFFFFFFFFFFFFFFFFFFFFFF AND PUSH4 0xCDCA1753 DUP4 DUP8 PUSH1 0x40 MLOAD DUP4 PUSH4 0xFFFFFFFF AND PUSH1 0xE0 SHL DUP2 MSTORE PUSH1 0x4 ADD PUSH2 0x19C3 SWAP3 SWAP2 SWAP1 PUSH2 0x45F0 JUMP JUMPDEST PUSH0 PUSH1 0x40 MLOAD DUP1 DUP4 SUB DUP2 PUSH0 DUP8 GAS CALL ISZERO DUP1 ISZERO PUSH2 0x19DE JUMPI RETURNDATASIZE PUSH0 DUP1 RETURNDATACOPY RETURNDATASIZE PUSH0 REVERT JUMPDEST POP POP POP POP PUSH1 0x40 MLOAD RETURNDATASIZE PUSH0 DUP3 RETURNDATACOPY RETURNDATASIZE PUSH1 0x1F NOT PUSH1 0x1F DUP3 ADD AND DUP3 ADD DUP1 PUSH1 0x40 MSTORE POP DUP2 ADD SWAP1 PUSH2 0x1A06 SWAP2 SWAP1 PUSH2 0x4801 JUMP JUMPDEST POP POP POP SWAP1 POP PUSH0 PUSH1 0x40 MLOAD DUP1 PUSH1 0xA0 ADD PUSH1 0x40 MSTORE DUP1 DUP5 DUP2 MSTORE PUSH1 0x20 ADD PUSH1 0x11 PUSH0 SWAP1 SLOAD SWAP1 PUSH2 0x100 EXP SWAP1 DIV PUSH20 0xFFFFFFFFFFFFFFFFFFFFFFFFFFFFFFFFFFFFFFFF AND PUSH20 0xFFFFFFFFFFFFFFFFFFFFFFFFFFFFFFFFFFFFFFFF AND DUP2 MSTORE PUSH1 0x20 ADD PUSH1 0x1E TIMESTAMP PUSH2 0x1A67 SWAP2 SWAP1 PUSH2 0x4905 JUMP JUMPDEST DUP2 MSTORE PUSH1 0x20 ADD DUP8 DUP2 MSTORE PUSH1 0x20 ADD DUP4 DUP2 MSTORE POP SWAP1 POP PUSH0 PUSH4 0xC04B8D59 PUSH1 0xE0 SHL DUP3 PUSH1 0x40 MLOAD PUSH1 0x24 ADD PUSH2 0x1A92 SWAP2 SWAP1 PUSH2 0x4E72 JUMP JUMPDEST PUSH1 0x40 MLOAD PUSH1 0x20 DUP2 DUP4 SUB SUB DUP2 MSTORE SWAP1 PUSH1 0x40 MSTORE SWAP1 PUSH28 0xFFFFFFFFFFFFFFFFFFFFFFFFFFFFFFFFFFFFFFFFFFFFFFFFFFFFFFFF NOT AND PUSH1 0x20 DUP3 ADD DUP1 MLOAD PUSH28 0xFFFFFFFFFFFFFFFFFFFFFFFFFFFFFFFFFFFFFFFFFFFFFFFFFFFFFFFF DUP4 DUP2 DUP4 AND OR DUP4 MSTORE POP POP POP POP SWAP1 POP PUSH0 PUSH4 0x5FB043AF PUSH1 0xE0 SHL DUP5 ADDRESS PUSH1 0x40 MLOAD PUSH1 0x24 ADD PUSH2 0x1B0D SWAP3 SWAP2 SWAP1 PUSH2 0x4E92 JUMP JUMPDEST PUSH1 0x40 MLOAD PUSH1 0x20 DUP2 DUP4 SUB SUB DUP2 MSTORE SWAP1 PUSH1 0x40 MSTORE SWAP1 PUSH28 0xFFFFFFFFFFFFFFFFFFFFFFFFFFFFFFFFFFFFFFFFFFFFFFFFFFFFFFFF NOT AND PUSH1 0x20 DUP3 ADD DUP1 MLOAD PUSH28 0xFFFFFFFFFFFFFFFFFFFFFFFFFFFFFFFFFFFFFFFFFFFFFFFFFFFFFFFF DUP4 DUP2 DUP4 AND OR DUP4 MSTORE POP POP POP POP SWAP1 POP PUSH0 PUSH1 0x2 PUSH8 0xFFFFFFFFFFFFFFFF DUP2 GT ISZERO PUSH2 0x1B88 JUMPI PUSH2 0x1B87 PUSH2 0x3917 JUMP JUMPDEST JUMPDEST PUSH1 0x40 MLOAD SWAP1 DUP1 DUP3 MSTORE DUP1 PUSH1 0x20 MUL PUSH1 0x20 ADD DUP3 ADD PUSH1 0x40 MSTORE DUP1 ISZERO PUSH2 0x1BBB JUMPI DUP2 PUSH1 0x20 ADD JUMPDEST PUSH1 0x60 DUP2 MSTORE PUSH1 0x20 ADD SWAP1 PUSH1 0x1 SWAP1 SUB SWAP1 DUP2 PUSH2 0x1BA6 JUMPI SWAP1 POP JUMPDEST POP SWAP1 POP DUP3 DUP2 PUSH0 DUP2 MLOAD DUP2 LT PUSH2 0x1BD2 JUMPI PUSH2 0x1BD1 PUSH2 0x4B17 JUMP JUMPDEST JUMPDEST PUSH1 0x20 MUL PUSH1 0x20 ADD ADD DUP2 SWAP1 MSTORE POP DUP2 DUP2 PUSH1 0x1 DUP2 MLOAD DUP2 LT PUSH2 0x1BF2 JUMPI PUSH2 0x1BF1 PUSH2 0x4B17 JUMP JUMPDEST JUMPDEST PUSH1 0x20 MUL PUSH1 0x20 ADD ADD DUP2 SWAP1 MSTORE POP PUSH0 PUSH1 0xF PUSH0 SWAP1 SLOAD SWAP1 PUSH2 0x100 EXP SWAP1 DIV PUSH20 0xFFFFFFFFFFFFFFFFFFFFFFFFFFFFFFFFFFFFFFFF AND PUSH20 0xFFFFFFFFFFFFFFFFFFFFFFFFFFFFFFFFFFFFFFFF AND PUSH4 0xAC9650D8 DUP4 PUSH1 0x40 MLOAD DUP3 PUSH4 0xFFFFFFFF AND PUSH1 0xE0 SHL DUP2 MSTORE PUSH1 0x4 ADD PUSH2 0x1C58 SWAP2 SWAP1 PUSH2 0x4F64 JUMP JUMPDEST PUSH0 PUSH1 0x40 MLOAD DUP1 DUP4 SUB DUP2 PUSH0 DUP8 GAS CALL ISZERO DUP1 ISZERO PUSH2 0x1C73 JUMPI RETURNDATASIZE PUSH0 DUP1 RETURNDATACOPY RETURNDATASIZE PUSH0 REVERT JUMPDEST POP POP POP POP PUSH1 0x40 MLOAD RETURNDATASIZE PUSH0 DUP3 RETURNDATACOPY RETURNDATASIZE PUSH1 0x1F NOT PUSH1 0x1F DUP3 ADD AND DUP3 ADD DUP1 PUSH1 0x40 MSTORE POP DUP2 ADD SWAP1 PUSH2 0x1C9B SWAP2 SWAP1 PUSH2 0x50D0 JUMP JUMPDEST SWAP1 POP PUSH0 DUP2 PUSH0 DUP2 MLOAD DUP2 LT PUSH2 0x1CB1 JUMPI PUSH2 0x1CB0 PUSH2 0x4B17 JUMP JUMPDEST JUMPDEST PUSH1 0x20 MUL PUSH1 0x20 ADD ADD MLOAD DUP1 PUSH1 0x20 ADD SWAP1 MLOAD DUP2 ADD SWAP1 PUSH2 0x1CCC SWAP2 SWAP1 PUSH2 0x40FF JUMP JUMPDEST SWAP1 POP DUP1 SWAP10 POP POP POP POP POP POP POP POP POP JUMPDEST POP JUMPDEST DUP3 ISZERO PUSH2 0x1D0F JUMPI DUP1 PUSH1 0xA PUSH0 PUSH1 0xD SLOAD DUP2 MSTORE PUSH1 0x20 ADD SWAP1 DUP2 MSTORE PUSH1 0x20 ADD PUSH0 KECCAK256 PUSH1 0x2 ADD PUSH0 DUP3 DUP3 SLOAD PUSH2 0x1D07 SWAP2 SWAP1 PUSH2 0x4905 JUMP JUMPDEST SWAP3 POP POP DUP2 SWAP1 SSTORE POP JUMPDEST CALLER PUSH20 0xFFFFFFFFFFFFFFFFFFFFFFFFFFFFFFFFFFFFFFFF AND PUSH32 0x8E74F2E568A8FC64D8E10A0DD9CE40F78F234368743079FFB0E60EE702693AC9 DUP9 DUP7 DUP7 DUP6 PUSH1 0x40 MLOAD PUSH2 0x1D5B SWAP5 SWAP4 SWAP3 SWAP2 SWAP1 PUSH2 0x5117 JUMP JUMPDEST PUSH1 0x40 MLOAD DUP1 SWAP2 SUB SWAP1 LOG2 POP POP POP POP POP POP PUSH2 0x1D71 PUSH2 0x3045 JUMP JUMPDEST POP JUMP JUMPDEST PUSH2 0x1D7C PUSH2 0x2AC6 JUMP JUMPDEST PUSH0 DUP2 GT PUSH2 0x1DBE JUMPI PUSH1 0x40 MLOAD PUSH32 0x8C379A000000000000000000000000000000000000000000000000000000000 DUP2 MSTORE PUSH1 0x4 ADD PUSH2 0x1DB5 SWAP1 PUSH2 0x51A4 JUMP JUMPDEST PUSH1 0x40 MLOAD DUP1 SWAP2 SUB SWAP1 REVERT JUMPDEST DUP1 PUSH1 0x4 DUP2 SWAP1 SSTORE POP POP JUMP JUMPDEST PUSH1 0x12 SLOAD DUP2 JUMP JUMPDEST PUSH2 0x1DD6 PUSH2 0x2AC6 JUMP JUMPDEST PUSH0 DUP2 PUSH3 0xFFFFFF AND SUB PUSH2 0x1E1D JUMPI PUSH1 0x40 MLOAD PUSH32 0x8C379A000000000000000000000000000000000000000000000000000000000 DUP2 MSTORE PUSH1 0x4 ADD PUSH2 0x1E14 SWAP1 PUSH2 0x520C JUMP JUMPDEST PUSH1 0x40 MLOAD DUP1 SWAP2 SUB SWAP1 REVERT JUMPDEST DUP1 PUSH1 0x7 PUSH0 DUP6 PUSH20 0xFFFFFFFFFFFFFFFFFFFFFFFFFFFFFFFFFFFFFFFF AND PUSH20 0xFFFFFFFFFFFFFFFFFFFFFFFFFFFFFFFFFFFFFFFF AND DUP2 MSTORE PUSH1 0x20 ADD SWAP1 DUP2 MSTORE PUSH1 0x20 ADD PUSH0 KECCAK256 PUSH0 DUP5 PUSH20 0xFFFFFFFFFFFFFFFFFFFFFFFFFFFFFFFFFFFFFFFF AND PUSH20 0xFFFFFFFFFFFFFFFFFFFFFFFFFFFFFFFFFFFFFFFF AND DUP2 MSTORE PUSH1 0x20 ADD SWAP1 DUP2 MSTORE PUSH1 0x20 ADD PUSH0 KECCAK256 PUSH0 PUSH2 0x100 EXP DUP2 SLOAD DUP2 PUSH3 0xFFFFFF MUL NOT AND SWAP1 DUP4 PUSH3 0xFFFFFF AND MUL OR SWAP1 SSTORE POP POP POP POP JUMP JUMPDEST PUSH1 0x4 SLOAD DUP2 JUMP JUMPDEST PUSH1 0x6 PUSH0 SWAP1 SLOAD SWAP1 PUSH2 0x100 EXP SWAP1 DIV PUSH20 0xFFFFFFFFFFFFFFFFFFFFFFFFFFFFFFFFFFFFFFFF AND DUP2 JUMP JUMPDEST PUSH1 0xB PUSH1 0x20 MSTORE DUP3 PUSH0 MSTORE PUSH1 0x40 PUSH0 KECCAK256 PUSH1 0x20 MSTORE DUP2 PUSH0 MSTORE PUSH1 0x40 PUSH0 KECCAK256 PUSH1 0x20 MSTORE DUP1 PUSH0 MSTORE PUSH1 0x40 PUSH0 KECCAK256 PUSH0 SWAP3 POP SWAP3 POP POP SWAP1 SLOAD SWAP1 PUSH2 0x100 EXP SWAP1 DIV PUSH1 0xFF AND DUP2 JUMP JUMPDEST PUSH2 0x1F1E PUSH2 0x2AC6 JUMP JUMPDEST DUP1 PUSH1 0x12 DUP2 SWAP1 SSTORE POP POP JUMP JUMPDEST PUSH1 0x2 SLOAD DUP2 JUMP JUMPDEST PUSH0 PUSH1 0x60 PUSH0 DUP1 PUSH2 0x167 PUSH20 0xFFFFFFFFFFFFFFFFFFFFFFFFFFFFFFFFFFFFFFFF AND PUSH4 0x618DC65E PUSH1 0xE0 SHL DUP8 DUP8 PUSH1 0x40 MLOAD PUSH1 0x24 ADD PUSH2 0x1F67 SWAP3 SWAP2 SWAP1 PUSH2 0x522A JUMP JUMPDEST PUSH1 0x40 MLOAD PUSH1 0x20 DUP2 DUP4 SUB SUB DUP2 MSTORE SWAP1 PUSH1 0x40 MSTORE SWAP1 PUSH28 0xFFFFFFFFFFFFFFFFFFFFFFFFFFFFFFFFFFFFFFFFFFFFFFFFFFFFFFFF NOT AND PUSH1 0x20 DUP3 ADD DUP1 MLOAD PUSH28 0xFFFFFFFFFFFFFFFFFFFFFFFFFFFFFFFFFFFFFFFFFFFFFFFFFFFFFFFF DUP4 DUP2 DUP4 AND OR DUP4 MSTORE POP POP POP POP PUSH1 0x40 MLOAD PUSH2 0x1FD1 SWAP2 SWAP1 PUSH2 0x4A06 JUMP JUMPDEST PUSH0 PUSH1 0x40 MLOAD DUP1 DUP4 SUB DUP2 PUSH0 DUP7 GAS CALL SWAP2 POP POP RETURNDATASIZE DUP1 PUSH0 DUP2 EQ PUSH2 0x200A JUMPI PUSH1 0x40 MLOAD SWAP2 POP PUSH1 0x1F NOT PUSH1 0x3F RETURNDATASIZE ADD AND DUP3 ADD PUSH1 0x40 MSTORE RETURNDATASIZE DUP3 MSTORE RETURNDATASIZE PUSH0 PUSH1 0x20 DUP5 ADD RETURNDATACOPY PUSH2 0x200F JUMP JUMPDEST PUSH1 0x60 SWAP2 POP JUMPDEST POP SWAP2 POP SWAP2 POP PUSH32 0x4AF4780E06FE8CB9DF64B0794FA6F01399AF979175BB988E35E0E57E594567BC DUP3 DUP3 PUSH1 0x40 MLOAD PUSH2 0x2045 SWAP3 SWAP2 SWAP1 PUSH2 0x5258 JUMP JUMPDEST PUSH1 0x40 MLOAD DUP1 SWAP2 SUB SWAP1 LOG1 DUP2 PUSH2 0x2068 JUMPI PUSH1 0x15 PUSH1 0x40 MLOAD DUP1 PUSH1 0x20 ADD PUSH1 0x40 MSTORE DUP1 PUSH0 DUP2 MSTORE POP PUSH2 0x206C JUMP JUMPDEST PUSH1 0x16 DUP2 JUMPDEST DUP2 PUSH1 0x3 SIGNEXTEND SWAP2 POP DUP1 SWAP5 POP DUP2 SWAP6 POP POP POP POP POP SWAP3 POP SWAP3 SWAP1 POP JUMP JUMPDEST PUSH2 0x208B PUSH2 0x2AC6 JUMP JUMPDEST PUSH0 PUSH20 0xFFFFFFFFFFFFFFFFFFFFFFFFFFFFFFFFFFFFFFFF AND DUP2 PUSH20 0xFFFFFFFFFFFFFFFFFFFFFFFFFFFFFFFFFFFFFFFF AND SUB PUSH2 0x20F9 JUMPI PUSH1 0x40 MLOAD PUSH32 0x8C379A000000000000000000000000000000000000000000000000000000000 DUP2 MSTORE PUSH1 0x4 ADD PUSH2 0x20F0 SWAP1 PUSH2 0x3E1B JUMP JUMPDEST PUSH1 0x40 MLOAD DUP1 SWAP2 SUB SWAP1 REVERT JUMPDEST DUP1 PUSH1 0xE PUSH0 PUSH2 0x100 EXP DUP2 SLOAD DUP2 PUSH20 0xFFFFFFFFFFFFFFFFFFFFFFFFFFFFFFFFFFFFFFFF MUL NOT AND SWAP1 DUP4 PUSH20 0xFFFFFFFFFFFFFFFFFFFFFFFFFFFFFFFFFFFFFFFF AND MUL OR SWAP1 SSTORE POP POP JUMP JUMPDEST PUSH2 0x2144 PUSH2 0x2AC6 JUMP JUMPDEST PUSH2 0x214D PUSH0 PUSH2 0x32CC JUMP JUMPDEST JUMP JUMPDEST PUSH1 0x3 SLOAD DUP2 JUMP JUMPDEST PUSH0 PUSH1 0x1 PUSH0 SWAP1 SLOAD SWAP1 PUSH2 0x100 EXP SWAP1 DIV PUSH20 0xFFFFFFFFFFFFFFFFFFFFFFFFFFFFFFFFFFFFFFFF AND SWAP1 POP SWAP1 JUMP JUMPDEST PUSH0 DUP1 PUSH0 PUSH2 0x167 PUSH20 0xFFFFFFFFFFFFFFFFFFFFFFFFFFFFFFFFFFFFFFFF AND PUSH4 0x9B23D3D9 PUSH1 0xE0 SHL DUP9 DUP9 DUP9 DUP9 PUSH1 0x40 MLOAD PUSH1 0x24 ADD PUSH2 0x21B8 SWAP5 SWAP4 SWAP3 SWAP2 SWAP1 PUSH2 0x4989 JUMP JUMPDEST PUSH1 0x40 MLOAD PUSH1 0x20 DUP2 DUP4 SUB SUB DUP2 MSTORE SWAP1 PUSH1 0x40 MSTORE SWAP1 PUSH28 0xFFFFFFFFFFFFFFFFFFFFFFFFFFFFFFFFFFFFFFFFFFFFFFFFFFFFFFFF NOT AND PUSH1 0x20 DUP3 ADD DUP1 MLOAD PUSH28 0xFFFFFFFFFFFFFFFFFFFFFFFFFFFFFFFFFFFFFFFFFFFFFFFFFFFFFFFF DUP4 DUP2 DUP4 AND OR DUP4 MSTORE POP POP POP POP PUSH1 0x40 MLOAD PUSH2 0x2222 SWAP2 SWAP1 PUSH2 0x4A06 JUMP JUMPDEST PUSH0 PUSH1 0x40 MLOAD DUP1 DUP4 SUB DUP2 PUSH0 DUP7 GAS CALL SWAP2 POP POP RETURNDATASIZE DUP1 PUSH0 DUP2 EQ PUSH2 0x225B JUMPI PUSH1 0x40 MLOAD SWAP2 POP PUSH1 0x1F NOT PUSH1 0x3F RETURNDATASIZE ADD AND DUP3 ADD PUSH1 0x40 MSTORE RETURNDATASIZE DUP3 MSTORE RETURNDATASIZE PUSH0 PUSH1 0x20 DUP5 ADD RETURNDATACOPY PUSH2 0x2260 JUMP JUMPDEST PUSH1 0x60 SWAP2 POP JUMPDEST POP SWAP2 POP SWAP2 POP DUP2 PUSH2 0x2271 JUMPI PUSH1 0x15 PUSH2 0x2286 JUMP JUMPDEST DUP1 DUP1 PUSH1 0x20 ADD SWAP1 MLOAD DUP2 ADD SWAP1 PUSH2 0x2285 SWAP2 SWAP1 PUSH2 0x4A1C JUMP JUMPDEST JUMPDEST PUSH1 0x3 SIGNEXTEND SWAP3 POP POP POP SWAP5 SWAP4 POP POP POP POP JUMP JUMPDEST PUSH1 0x7 PUSH1 0x20 MSTORE DUP2 PUSH0 MSTORE PUSH1 0x40 PUSH0 KECCAK256 PUSH1 0x20 MSTORE DUP1 PUSH0 MSTORE PUSH1 0x40 PUSH0 KECCAK256 PUSH0 SWAP2 POP SWAP2 POP SWAP1 SLOAD SWAP1 PUSH2 0x100 EXP SWAP1 DIV PUSH3 0xFFFFFF AND DUP2 JUMP JUMPDEST PUSH1 0x8 PUSH1 0x20 MSTORE DUP1 PUSH0 MSTORE PUSH1 0x40 PUSH0 KECCAK256 PUSH0 SWAP2 POP SWAP1 POP SLOAD DUP2 JUMP JUMPDEST PUSH2 0x22DE PUSH2 0x2AC6 JUMP JUMPDEST PUSH1 0x64 DUP2 GT ISZERO PUSH2 0x2322 JUMPI PUSH1 0x40 MLOAD PUSH32 0x8C379A000000000000000000000000000000000000000000000000000000000 DUP2 MSTORE PUSH1 0x4 ADD PUSH2 0x2319 SWAP1 PUSH2 0x52D0 JUMP JUMPDEST PUSH1 0x40 MLOAD DUP1 SWAP2 SUB SWAP1 REVERT JUMPDEST DUP1 PUSH1 0xC DUP2 SWAP1 SSTORE POP POP JUMP JUMPDEST PUSH1 0xD SLOAD DUP2 JUMP JUMPDEST PUSH1 0x11 PUSH0 SWAP1 SLOAD SWAP1 PUSH2 0x100 EXP SWAP1 DIV PUSH20 0xFFFFFFFFFFFFFFFFFFFFFFFFFFFFFFFFFFFFFFFF AND DUP2 JUMP JUMPDEST PUSH1 0x9 PUSH1 0x20 MSTORE DUP2 PUSH0 MSTORE PUSH1 0x40 PUSH0 KECCAK256 DUP2 DUP2 SLOAD DUP2 LT PUSH2 0x2370 JUMPI PUSH0 DUP1 REVERT JUMPDEST SWAP1 PUSH0 MSTORE PUSH1 0x20 PUSH0 KECCAK256 SWAP1 PUSH1 0x6 MUL ADD PUSH0 SWAP2 POP SWAP2 POP POP DUP1 PUSH0 ADD PUSH0 SWAP1 SLOAD SWAP1 PUSH2 0x100 EXP SWAP1 DIV PUSH20 0xFFFFFFFFFFFFFFFFFFFFFFFFFFFFFFFFFFFFFFFF AND SWAP1 DUP1 PUSH1 0x1 ADD SLOAD SWAP1 DUP1 PUSH1 0x2 ADD SLOAD SWAP1 DUP1 PUSH1 0x3 ADD SLOAD SWAP1 DUP1 PUSH1 0x4 ADD SLOAD SWAP1 DUP1 PUSH1 0x5 ADD SLOAD SWAP1 POP DUP7 JUMP JUMPDEST PUSH2 0x23D0 PUSH2 0x2B4D JUMP JUMPDEST PUSH0 PUSH1 0xA PUSH0 PUSH1 0xD SLOAD DUP2 MSTORE PUSH1 0x20 ADD SWAP1 DUP2 MSTORE PUSH1 0x20 ADD PUSH0 KECCAK256 SWAP1 POP DUP1 PUSH1 0x1 ADD SLOAD TIMESTAMP GT DUP1 ISZERO PUSH2 0x2407 JUMPI POP DUP1 PUSH1 0x5 ADD PUSH0 SWAP1 SLOAD SWAP1 PUSH2 0x100 EXP SWAP1 DIV PUSH1 0xFF AND ISZERO JUMPDEST ISZERO PUSH2 0x241D JUMPI PUSH2 0x2414 PUSH2 0x2B91 JUMP JUMPDEST PUSH2 0x241C PUSH2 0x2CDF JUMP JUMPDEST JUMPDEST PUSH0 PUSH1 0x9 PUSH0 CALLER PUSH20 0xFFFFFFFFFFFFFFFFFFFFFFFFFFFFFFFFFFFFFFFF AND PUSH20 0xFFFFFFFFFFFFFFFFFFFFFFFFFFFFFFFFFFFFFFFF AND DUP2 MSTORE PUSH1 0x20 ADD SWAP1 DUP2 MSTORE PUSH1 0x20 ADD PUSH0 KECCAK256 SWAP1 POP PUSH0 DUP2 DUP1 SLOAD SWAP1 POP GT PUSH2 0x24A3 JUMPI PUSH1 0x40 MLOAD PUSH32 0x8C379A000000000000000000000000000000000000000000000000000000000 DUP2 MSTORE PUSH1 0x4 ADD PUSH2 0x249A SWAP1 PUSH2 0x5338 JUMP JUMPDEST PUSH1 0x40 MLOAD DUP1 SWAP2 SUB SWAP1 REVERT JUMPDEST PUSH0 DUP1 JUMPDEST DUP3 DUP1 SLOAD SWAP1 POP DUP2 LT ISZERO PUSH2 0x257A JUMPI PUSH0 DUP4 DUP3 DUP2 SLOAD DUP2 LT PUSH2 0x24C6 JUMPI PUSH2 0x24C5 PUSH2 0x4B17 JUMP JUMPDEST JUMPDEST SWAP1 PUSH0 MSTORE PUSH1 0x20 PUSH0 KECCAK256 SWAP1 PUSH1 0x6 MUL ADD SWAP1 POP PUSH0 DUP2 PUSH1 0x5 ADD SLOAD SWAP1 POP JUMPDEST PUSH1 0xD SLOAD DUP2 LT ISZERO PUSH2 0x2560 JUMPI PUSH0 PUSH1 0xA PUSH0 DUP4 DUP2 MSTORE PUSH1 0x20 ADD SWAP1 DUP2 MSTORE PUSH1 0x20 ADD PUSH0 KECCAK256 SWAP1 POP DUP1 PUSH1 0x5 ADD PUSH0 SWAP1 SLOAD SWAP1 PUSH2 0x100 EXP SWAP1 DIV PUSH1 0xFF AND DUP1 ISZERO PUSH2 0x251C JUMPI POP PUSH0 DUP2 PUSH1 0x4 ADD SLOAD EQ ISZERO JUMPDEST ISZERO PUSH2 0x2552 JUMPI PUSH4 0x5F5E100 DUP4 PUSH1 0x4 ADD SLOAD DUP3 PUSH1 0x4 ADD SLOAD PUSH2 0x253A SWAP2 SWAP1 PUSH2 0x4547 JUMP JUMPDEST PUSH2 0x2544 SWAP2 SWAP1 PUSH2 0x4517 JUMP JUMPDEST DUP6 PUSH2 0x254F SWAP2 SWAP1 PUSH2 0x4905 JUMP JUMPDEST SWAP5 POP JUMPDEST POP DUP1 DUP1 PUSH1 0x1 ADD SWAP2 POP POP PUSH2 0x24DD JUMP JUMPDEST POP PUSH1 0xD SLOAD DUP2 PUSH1 0x5 ADD DUP2 SWAP1 SSTORE POP POP DUP1 DUP1 PUSH1 0x1 ADD SWAP2 POP POP PUSH2 0x24A6 JUMP JUMPDEST POP DUP1 SELFBALANCE LT ISZERO PUSH2 0x25BE JUMPI PUSH1 0x40 MLOAD PUSH32 0x8C379A000000000000000000000000000000000000000000000000000000000 DUP2 MSTORE PUSH1 0x4 ADD PUSH2 0x25B5 SWAP1 PUSH2 0x4BF6 JUMP JUMPDEST PUSH1 0x40 MLOAD DUP1 SWAP2 SUB SWAP1 REVERT JUMPDEST PUSH0 CALLER PUSH20 0xFFFFFFFFFFFFFFFFFFFFFFFFFFFFFFFFFFFFFFFF AND DUP3 PUSH1 0x40 MLOAD PUSH2 0x25E3 SWAP1 PUSH2 0x4C37 JUMP JUMPDEST PUSH0 PUSH1 0x40 MLOAD DUP1 DUP4 SUB DUP2 DUP6 DUP8 GAS CALL SWAP3 POP POP POP RETURNDATASIZE DUP1 PUSH0 DUP2 EQ PUSH2 0x261D JUMPI PUSH1 0x40 MLOAD SWAP2 POP PUSH1 0x1F NOT PUSH1 0x3F RETURNDATASIZE ADD AND DUP3 ADD PUSH1 0x40 MSTORE RETURNDATASIZE DUP3 MSTORE RETURNDATASIZE PUSH0 PUSH1 0x20 DUP5 ADD RETURNDATACOPY PUSH2 0x2622 JUMP JUMPDEST PUSH1 0x60 SWAP2 POP JUMPDEST POP POP SWAP1 POP DUP1 PUSH2 0x2666 JUMPI PUSH1 0x40 MLOAD PUSH32 0x8C379A000000000000000000000000000000000000000000000000000000000 DUP2 MSTORE PUSH1 0x4 ADD PUSH2 0x265D SWAP1 PUSH2 0x53A0 JUMP JUMPDEST PUSH1 0x40 MLOAD DUP1 SWAP2 SUB SWAP1 REVERT JUMPDEST CALLER PUSH20 0xFFFFFFFFFFFFFFFFFFFFFFFFFFFFFFFFFFFFFFFF AND PUSH32 0x106F923F993C2149D49B4255FF723ACAFA1F2D94393F561D3EDA32AE348F7241 DUP4 PUSH1 0x40 MLOAD PUSH2 0x26AC SWAP2 SWAP1 PUSH2 0x3812 JUMP JUMPDEST PUSH1 0x40 MLOAD DUP1 SWAP2 SUB SWAP1 LOG2 POP POP POP POP PUSH2 0x26C0 PUSH2 0x3045 JUMP JUMPDEST JUMP JUMPDEST PUSH2 0x26CA PUSH2 0x2AC6 JUMP JUMPDEST PUSH0 PUSH20 0xFFFFFFFFFFFFFFFFFFFFFFFFFFFFFFFFFFFFFFFF AND DUP2 PUSH20 0xFFFFFFFFFFFFFFFFFFFFFFFFFFFFFFFFFFFFFFFF AND SUB PUSH2 0x2738 JUMPI PUSH1 0x40 MLOAD PUSH32 0x8C379A000000000000000000000000000000000000000000000000000000000 DUP2 MSTORE PUSH1 0x4 ADD PUSH2 0x272F SWAP1 PUSH2 0x3E1B JUMP JUMPDEST PUSH1 0x40 MLOAD DUP1 SWAP2 SUB SWAP1 REVERT JUMPDEST DUP1 PUSH1 0xF PUSH0 PUSH2 0x100 EXP DUP2 SLOAD DUP2 PUSH20 0xFFFFFFFFFFFFFFFFFFFFFFFFFFFFFFFFFFFFFFFF MUL NOT AND SWAP1 DUP4 PUSH20 0xFFFFFFFFFFFFFFFFFFFFFFFFFFFFFFFFFFFFFFFF AND MUL OR SWAP1 SSTORE POP DUP1 PUSH1 0x11 PUSH0 PUSH2 0x100 EXP DUP2 SLOAD DUP2 PUSH20 0xFFFFFFFFFFFFFFFFFFFFFFFFFFFFFFFFFFFFFFFF MUL NOT AND SWAP1 DUP4 PUSH20 0xFFFFFFFFFFFFFFFFFFFFFFFFFFFFFFFFFFFFFFFF AND MUL OR SWAP1 SSTORE POP POP JUMP JUMPDEST PUSH1 0xA PUSH1 0x20 MSTORE DUP1 PUSH0 MSTORE PUSH1 0x40 PUSH0 KECCAK256 PUSH0 SWAP2 POP SWAP1 POP DUP1 PUSH0 ADD SLOAD SWAP1 DUP1 PUSH1 0x1 ADD SLOAD SWAP1 DUP1 PUSH1 0x2 ADD SLOAD SWAP1 DUP1 PUSH1 0x3 ADD SLOAD SWAP1 DUP1 PUSH1 0x4 ADD SLOAD SWAP1 DUP1 PUSH1 0x5 ADD PUSH0 SWAP1 SLOAD SWAP1 PUSH2 0x100 EXP SWAP1 DIV PUSH1 0xFF AND SWAP1 POP DUP7 JUMP JUMPDEST PUSH2 0x2807 PUSH2 0x2AC6 JUMP JUMPDEST PUSH0 PUSH20 0xFFFFFFFFFFFFFFFFFFFFFFFFFFFFFFFFFFFFFFFF AND DUP2 PUSH20 0xFFFFFFFFFFFFFFFFFFFFFFFFFFFFFFFFFFFFFFFF AND SUB PUSH2 0x2875 JUMPI PUSH1 0x40 MLOAD PUSH32 0x8C379A000000000000000000000000000000000000000000000000000000000 DUP2 MSTORE PUSH1 0x4 ADD PUSH2 0x286C SWAP1 PUSH2 0x3E1B JUMP JUMPDEST PUSH1 0x40 MLOAD DUP1 SWAP2 SUB SWAP1 REVERT JUMPDEST DUP1 PUSH1 0x5 PUSH0 PUSH2 0x100 EXP DUP2 SLOAD DUP2 PUSH20 0xFFFFFFFFFFFFFFFFFFFFFFFFFFFFFFFFFFFFFFFF MUL NOT AND SWAP1 DUP4 PUSH20 0xFFFFFFFFFFFFFFFFFFFFFFFFFFFFFFFFFFFFFFFF AND MUL OR SWAP1 SSTORE POP POP JUMP JUMPDEST PUSH1 0xC SLOAD DUP2 JUMP JUMPDEST PUSH2 0x28C6 PUSH2 0x2AC6 JUMP JUMPDEST DUP1 DUP3 LT PUSH2 0x2908 JUMPI PUSH1 0x40 MLOAD PUSH32 0x8C379A000000000000000000000000000000000000000000000000000000000 DUP2 MSTORE PUSH1 0x4 ADD PUSH2 0x28FF SWAP1 PUSH2 0x5408 JUMP JUMPDEST PUSH1 0x40 MLOAD DUP1 SWAP2 SUB SWAP1 REVERT JUMPDEST DUP2 PUSH1 0x2 DUP2 SWAP1 SSTORE POP DUP1 PUSH1 0x3 DUP2 SWAP1 SSTORE POP POP POP JUMP JUMPDEST PUSH1 0xE PUSH0 SWAP1 SLOAD SWAP1 PUSH2 0x100 EXP SWAP1 DIV PUSH20 0xFFFFFFFFFFFFFFFFFFFFFFFFFFFFFFFFFFFFFFFF AND DUP2 JUMP JUMPDEST PUSH1 0xF PUSH0 SWAP1 SLOAD SWAP1 PUSH2 0x100 EXP SWAP1 DIV PUSH20 0xFFFFFFFFFFFFFFFFFFFFFFFFFFFFFFFFFFFFFFFF AND DUP2 JUMP JUMPDEST PUSH2 0x296C PUSH2 0x2AC6 JUMP JUMPDEST PUSH0 PUSH20 0xFFFFFFFFFFFFFFFFFFFFFFFFFFFFFFFFFFFFFFFF AND DUP2 PUSH20 0xFFFFFFFFFFFFFFFFFFFFFFFFFFFFFFFFFFFFFFFF AND SUB PUSH2 0x29DA JUMPI PUSH1 0x40 MLOAD PUSH32 0x8C379A000000000000000000000000000000000000000000000000000000000 DUP2 MSTORE PUSH1 0x4 ADD PUSH2 0x29D1 SWAP1 PUSH2 0x3E1B JUMP JUMPDEST PUSH1 0x40 MLOAD DUP1 SWAP2 SUB SWAP1 REVERT JUMPDEST DUP1 PUSH1 0x10 PUSH0 PUSH2 0x100 EXP DUP2 SLOAD DUP2 PUSH20 0xFFFFFFFFFFFFFFFFFFFFFFFFFFFFFFFFFFFFFFFF MUL NOT AND SWAP1 DUP4 PUSH20 0xFFFFFFFFFFFFFFFFFFFFFFFFFFFFFFFFFFFFFFFF AND MUL OR SWAP1 SSTORE POP POP JUMP JUMPDEST PUSH2 0x2A25 PUSH2 0x2AC6 JUMP JUMPDEST PUSH0 PUSH20 0xFFFFFFFFFFFFFFFFFFFFFFFFFFFFFFFFFFFFFFFF AND DUP2 PUSH20 0xFFFFFFFFFFFFFFFFFFFFFFFFFFFFFFFFFFFFFFFF AND SUB PUSH2 0x2A95 JUMPI PUSH0 PUSH1 0x40 MLOAD PUSH32 0x1E4FBDF700000000000000000000000000000000000000000000000000000000 DUP2 MSTORE PUSH1 0x4 ADD PUSH2 0x2A8C SWAP2 SWAP1 PUSH2 0x3544 JUMP JUMPDEST PUSH1 0x40 MLOAD DUP1 SWAP2 SUB SWAP1 REVERT JUMPDEST PUSH2 0x2A9E DUP2 PUSH2 0x32CC JUMP JUMPDEST POP JUMP JUMPDEST PUSH1 0x10 PUSH0 SWAP1 SLOAD SWAP1 PUSH2 0x100 EXP SWAP1 DIV PUSH20 0xFFFFFFFFFFFFFFFFFFFFFFFFFFFFFFFFFFFFFFFF AND DUP2 JUMP JUMPDEST PUSH2 0x2ACE PUSH2 0x338F JUMP JUMPDEST PUSH20 0xFFFFFFFFFFFFFFFFFFFFFFFFFFFFFFFFFFFFFFFF AND PUSH2 0x2AEC PUSH2 0x2155 JUMP JUMPDEST PUSH20 0xFFFFFFFFFFFFFFFFFFFFFFFFFFFFFFFFFFFFFFFF AND EQ PUSH2 0x2B4B JUMPI PUSH2 0x2B0F PUSH2 0x338F JUMP JUMPDEST PUSH1 0x40 MLOAD PUSH32 0x118CDAA700000000000000000000000000000000000000000000000000000000 DUP2 MSTORE PUSH1 0x4 ADD PUSH2 0x2B42 SWAP2 SWAP1 PUSH2 0x3544 JUMP JUMPDEST PUSH1 0x40 MLOAD DUP1 SWAP2 SUB SWAP1 REVERT JUMPDEST JUMP JUMPDEST PUSH1 0x2 PUSH0 SLOAD SUB PUSH2 0x2B88 JUMPI PUSH1 0x40 MLOAD PUSH32 0x3EE5AEB500000000000000000000000000000000000000000000000000000000 DUP2 MSTORE PUSH1 0x4 ADD PUSH1 0x40 MLOAD DUP1 SWAP2 SUB SWAP1 REVERT JUMPDEST PUSH1 0x2 PUSH0 DUP2 SWAP1 SSTORE POP JUMP JUMPDEST PUSH0 PUSH1 0xA PUSH0 PUSH1 0xD SLOAD DUP2 MSTORE PUSH1 0x20 ADD SWAP1 DUP2 MSTORE PUSH1 0x20 ADD PUSH0 KECCAK256 SWAP1 POP DUP1 PUSH1 0x5 ADD PUSH0 SWAP1 SLOAD SWAP1 PUSH2 0x100 EXP SWAP1 DIV PUSH1 0xFF AND ISZERO PUSH2 0x2BF8 JUMPI PUSH1 0x40 MLOAD PUSH32 0x8C379A000000000000000000000000000000000000000000000000000000000 DUP2 MSTORE PUSH1 0x4 ADD PUSH2 0x2BEF SWAP1 PUSH2 0x5470 JUMP JUMPDEST PUSH1 0x40 MLOAD DUP1 SWAP2 SUB SWAP1 REVERT JUMPDEST DUP1 PUSH1 0x1 ADD SLOAD TIMESTAMP GT PUSH2 0x2C3E JUMPI PUSH1 0x40 MLOAD PUSH32 0x8C379A000000000000000000000000000000000000000000000000000000000 DUP2 MSTORE PUSH1 0x4 ADD PUSH2 0x2C35 SWAP1 PUSH2 0x54D8 JUMP JUMPDEST PUSH1 0x40 MLOAD DUP1 SWAP2 SUB SWAP1 REVERT JUMPDEST PUSH1 0x1 DUP2 PUSH1 0x5 ADD PUSH0 PUSH2 0x100 EXP DUP2 SLOAD DUP2 PUSH1 0xFF MUL NOT AND SWAP1 DUP4 ISZERO ISZERO MUL OR SWAP1 SSTORE POP PUSH0 DUP2 PUSH1 0x3 ADD SLOAD GT ISZERO PUSH2 0x2C92 JUMPI DUP1 PUSH1 0x3 ADD SLOAD PUSH4 0x5F5E100 DUP3 PUSH1 0x2 ADD SLOAD PUSH2 0x2C7F SWAP2 SWAP1 PUSH2 0x4547 JUMP JUMPDEST PUSH2 0x2C89 SWAP2 SWAP1 PUSH2 0x4517 JUMP JUMPDEST DUP2 PUSH1 0x4 ADD DUP2 SWAP1 SSTORE POP JUMPDEST PUSH1 0xD SLOAD PUSH32 0x70801D4D63B3DA6C19BA7349911F45BED5A99CCDFB51B8138C105872529BEBD5 DUP3 PUSH1 0x2 ADD SLOAD DUP4 PUSH1 0x3 ADD SLOAD DUP5 PUSH1 0x4 ADD SLOAD PUSH1 0x40 MLOAD PUSH2 0x2CD4 SWAP4 SWAP3 SWAP2 SWAP1 PUSH2 0x54F6 JUMP JUMPDEST PUSH1 0x40 MLOAD DUP1 SWAP2 SUB SWAP1 LOG2 POP JUMP JUMPDEST PUSH0 DUP1 PUSH1 0xD SLOAD GT ISZERO PUSH2 0x2D66 JUMPI PUSH1 0xA PUSH0 PUSH1 0xD SLOAD DUP2 MSTORE PUSH1 0x20 ADD SWAP1 DUP2 MSTORE PUSH1 0x20 ADD PUSH0 KECCAK256 PUSH1 0x5 ADD PUSH0 SWAP1 SLOAD SWAP1 PUSH2 0x100 EXP SWAP1 DIV PUSH1 0xFF AND PUSH2 0x2D4C JUMPI PUSH1 0x40 MLOAD PUSH32 0x8C379A000000000000000000000000000000000000000000000000000000000 DUP2 MSTORE PUSH1 0x4 ADD PUSH2 0x2D43 SWAP1 PUSH2 0x5575 JUMP JUMPDEST PUSH1 0x40 MLOAD DUP1 SWAP2 SUB SWAP1 REVERT JUMPDEST PUSH1 0xA PUSH0 PUSH1 0xD SLOAD DUP2 MSTORE PUSH1 0x20 ADD SWAP1 DUP2 MSTORE PUSH1 0x20 ADD PUSH0 KECCAK256 PUSH1 0x3 ADD SLOAD SWAP1 POP JUMPDEST PUSH0 PUSH1 0x4 SLOAD TIMESTAMP PUSH2 0x2D75 SWAP2 SWAP1 PUSH2 0x4905 JUMP JUMPDEST SWAP1 POP PUSH1 0x1 PUSH1 0xD PUSH0 DUP3 DUP3 SLOAD PUSH2 0x2D89 SWAP2 SWAP1 PUSH2 0x4905 JUMP JUMPDEST SWAP3 POP POP DUP2 SWAP1 SSTORE POP PUSH1 0x40 MLOAD DUP1 PUSH1 0xC0 ADD PUSH1 0x40 MSTORE DUP1 TIMESTAMP DUP2 MSTORE PUSH1 0x20 ADD DUP3 DUP2 MSTORE PUSH1 0x20 ADD PUSH0 DUP2 MSTORE PUSH1 0x20 ADD DUP4 DUP2 MSTORE PUSH1 0x20 ADD PUSH0 DUP2 MSTORE PUSH1 0x20 ADD PUSH0 ISZERO ISZERO DUP2 MSTORE POP PUSH1 0xA PUSH0 PUSH1 0xD SLOAD DUP2 MSTORE PUSH1 0x20 ADD SWAP1 DUP2 MSTORE PUSH1 0x20 ADD PUSH0 KECCAK256 PUSH0 DUP3 ADD MLOAD DUP2 PUSH0 ADD SSTORE PUSH1 0x20 DUP3 ADD MLOAD DUP2 PUSH1 0x1 ADD SSTORE PUSH1 0x40 DUP3 ADD MLOAD DUP2 PUSH1 0x2 ADD SSTORE PUSH1 0x60 DUP3 ADD MLOAD DUP2 PUSH1 0x3 ADD SSTORE PUSH1 0x80 DUP3 ADD MLOAD DUP2 PUSH1 0x4 ADD SSTORE PUSH1 0xA0 DUP3 ADD MLOAD DUP2 PUSH1 0x5 ADD PUSH0 PUSH2 0x100 EXP DUP2 SLOAD DUP2 PUSH1 0xFF MUL NOT AND SWAP1 DUP4 ISZERO ISZERO MUL OR SWAP1 SSTORE POP SWAP1 POP POP PUSH1 0xD SLOAD PUSH32 0x29DB3DEB62EF2036E5EB93AAD68D2362AEC0711AF592CB365566603BD88651D4 TIMESTAMP DUP4 PUSH1 0x40 MLOAD PUSH2 0x2E58 SWAP3 SWAP2 SWAP1 PUSH2 0x5593 JUMP JUMPDEST PUSH1 0x40 MLOAD DUP1 SWAP2 SUB SWAP1 LOG2 POP POP JUMP JUMPDEST PUSH1 0x60 DUP4 DUP4 DUP4 PUSH1 0x40 MLOAD PUSH1 0x20 ADD PUSH2 0x2E7B SWAP4 SWAP3 SWAP2 SWAP1 PUSH2 0x5633 JUMP JUMPDEST PUSH1 0x40 MLOAD PUSH1 0x20 DUP2 DUP4 SUB SUB DUP2 MSTORE SWAP1 PUSH1 0x40 MSTORE SWAP1 POP SWAP4 SWAP3 POP POP POP JUMP JUMPDEST PUSH0 DUP1 PUSH0 PUSH2 0x167 PUSH20 0xFFFFFFFFFFFFFFFFFFFFFFFFFFFFFFFFFFFFFFFF AND PUSH4 0xECA36917 PUSH1 0xE0 SHL DUP9 DUP9 DUP9 DUP9 PUSH1 0x40 MLOAD PUSH1 0x24 ADD PUSH2 0x2ECE SWAP5 SWAP4 SWAP3 SWAP2 SWAP1 PUSH2 0x566F JUMP JUMPDEST PUSH1 0x40 MLOAD PUSH1 0x20 DUP2 DUP4 SUB SUB DUP2 MSTORE SWAP1 PUSH1 0x40 MSTORE SWAP1 PUSH28 0xFFFFFFFFFFFFFFFFFFFFFFFFFFFFFFFFFFFFFFFFFFFFFFFFFFFFFFFF NOT AND PUSH1 0x20 DUP3 ADD DUP1 MLOAD PUSH28 0xFFFFFFFFFFFFFFFFFFFFFFFFFFFFFFFFFFFFFFFFFFFFFFFFFFFFFFFF DUP4 DUP2 DUP4 AND OR DUP4 MSTORE POP POP POP POP PUSH1 0x40 MLOAD PUSH2 0x2F38 SWAP2 SWAP1 PUSH2 0x4A06 JUMP JUMPDEST PUSH0 PUSH1 0x40 MLOAD DUP1 DUP4 SUB DUP2 PUSH0 DUP7 GAS CALL SWAP2 POP POP RETURNDATASIZE DUP1 PUSH0 DUP2 EQ PUSH2 0x2F71 JUMPI PUSH1 0x40 MLOAD SWAP2 POP PUSH1 0x1F NOT PUSH1 0x3F RETURNDATASIZE ADD AND DUP3 ADD PUSH1 0x40 MSTORE RETURNDATASIZE DUP3 MSTORE RETURNDATASIZE PUSH0 PUSH1 0x20 DUP5 ADD RETURNDATACOPY PUSH2 0x2F76 JUMP JUMPDEST PUSH1 0x60 SWAP2 POP JUMPDEST POP SWAP2 POP SWAP2 POP DUP2 PUSH2 0x2F87 JUMPI PUSH1 0x15 PUSH2 0x2F9C JUMP JUMPDEST DUP1 DUP1 PUSH1 0x20 ADD SWAP1 MLOAD DUP2 ADD SWAP1 PUSH2 0x2F9B SWAP2 SWAP1 PUSH2 0x4A1C JUMP JUMPDEST JUMPDEST PUSH1 0x3 SIGNEXTEND SWAP3 POP POP POP SWAP5 SWAP4 POP POP POP POP JUMP JUMPDEST PUSH0 PUSH1 0x1 DUP3 LT ISZERO PUSH2 0x2FBD JUMPI DUP3 SWAP1 POP PUSH2 0x303F JUMP JUMPDEST PUSH0 PUSH2 0x3E8 PUSH2 0x2FD6 PUSH1 0x1 DUP6 PUSH2 0x2FD1 SWAP2 SWAP1 PUSH2 0x4905 JUMP JUMPDEST PUSH2 0x3396 JUMP JUMPDEST PUSH2 0x2FE0 SWAP2 SWAP1 PUSH2 0x4547 JUMP JUMPDEST SWAP1 POP PUSH0 PUSH2 0x169 SWAP1 POP PUSH0 PUSH3 0x186A0 DUP3 DUP5 PUSH2 0x2FF9 SWAP2 SWAP1 PUSH2 0x4547 JUMP JUMPDEST PUSH2 0x3003 SWAP2 SWAP1 PUSH2 0x4517 JUMP JUMPDEST SWAP1 POP PUSH2 0x9C4 DUP2 GT ISZERO PUSH2 0x3015 JUMPI PUSH2 0x9C4 SWAP1 POP JUMPDEST PUSH1 0x64 DUP2 PUSH1 0x64 PUSH2 0x3024 SWAP2 SWAP1 PUSH2 0x4905 JUMP JUMPDEST DUP8 PUSH2 0x302F SWAP2 SWAP1 PUSH2 0x4547 JUMP JUMPDEST PUSH2 0x3039 SWAP2 SWAP1 PUSH2 0x4517 JUMP JUMPDEST SWAP4 POP POP POP POP JUMPDEST SWAP3 SWAP2 POP POP JUMP JUMPDEST PUSH1 0x1 PUSH0 DUP2 SWAP1 SSTORE POP JUMP JUMPDEST PUSH0 DUP1 PUSH0 PUSH2 0x167 PUSH20 0xFFFFFFFFFFFFFFFFFFFFFFFFFFFFFFFFFFFFFFFF AND PUSH4 0x49146BDE PUSH1 0xE0 SHL DUP7 DUP7 PUSH1 0x40 MLOAD PUSH1 0x24 ADD PUSH2 0x3085 SWAP3 SWAP2 SWAP1 PUSH2 0x56B2 JUMP JUMPDEST PUSH1 0x40 MLOAD PUSH1 0x20 DUP2 DUP4 SUB SUB DUP2 MSTORE SWAP1 PUSH1 0x40 MSTORE SWAP1 PUSH28 0xFFFFFFFFFFFFFFFFFFFFFFFFFFFFFFFFFFFFFFFFFFFFFFFFFFFFFFFF NOT AND PUSH1 0x20 DUP3 ADD DUP1 MLOAD PUSH28 0xFFFFFFFFFFFFFFFFFFFFFFFFFFFFFFFFFFFFFFFFFFFFFFFFFFFFFFFF DUP4 DUP2 DUP4 AND OR DUP4 MSTORE POP POP POP POP PUSH1 0x40 MLOAD PUSH2 0x30EF SWAP2 SWAP1 PUSH2 0x4A06 JUMP JUMPDEST PUSH0 PUSH1 0x40 MLOAD DUP1 DUP4 SUB DUP2 PUSH0 DUP7 GAS CALL SWAP2 POP POP RETURNDATASIZE DUP1 PUSH0 DUP2 EQ PUSH2 0x3128 JUMPI PUSH1 0x40 MLOAD SWAP2 POP PUSH1 0x1F NOT PUSH1 0x3F RETURNDATASIZE ADD AND DUP3 ADD PUSH1 0x40 MSTORE RETURNDATASIZE DUP3 MSTORE RETURNDATASIZE PUSH0 PUSH1 0x20 DUP5 ADD RETURNDATACOPY PUSH2 0x312D JUMP JUMPDEST PUSH1 0x60 SWAP2 POP JUMPDEST POP SWAP2 POP SWAP2 POP DUP2 PUSH2 0x313E JUMPI PUSH1 0x15 PUSH2 0x3153 JUMP JUMPDEST DUP1 DUP1 PUSH1 0x20 ADD SWAP1 MLOAD DUP2 ADD SWAP1 PUSH2 0x3152 SWAP2 SWAP1 PUSH2 0x4A1C JUMP JUMPDEST JUMPDEST PUSH1 0x3 SIGNEXTEND SWAP3 POP POP POP SWAP3 SWAP2 POP POP JUMP JUMPDEST PUSH0 PUSH8 0x7FFFFFFFFFFFFFFF PUSH1 0x7 SIGNEXTEND DUP3 GT ISZERO PUSH2 0x31AF JUMPI PUSH1 0x40 MLOAD PUSH32 0x8C379A000000000000000000000000000000000000000000000000000000000 DUP2 MSTORE PUSH1 0x4 ADD PUSH2 0x31A6 SWAP1 PUSH2 0x5723 JUMP JUMPDEST PUSH1 0x40 MLOAD DUP1 SWAP2 SUB SWAP1 REVERT JUMPDEST DUP2 SWAP1 POP SWAP2 SWAP1 POP JUMP JUMPDEST PUSH0 DUP1 PUSH0 PUSH2 0x167 PUSH20 0xFFFFFFFFFFFFFFFFFFFFFFFFFFFFFFFFFFFFFFFF AND PUSH4 0xE1F21C67 PUSH1 0xE0 SHL DUP8 DUP8 DUP8 PUSH1 0x40 MLOAD PUSH1 0x24 ADD PUSH2 0x31F0 SWAP4 SWAP3 SWAP2 SWAP1 PUSH2 0x5741 JUMP JUMPDEST PUSH1 0x40 MLOAD PUSH1 0x20 DUP2 DUP4 SUB SUB DUP2 MSTORE SWAP1 PUSH1 0x40 MSTORE SWAP1 PUSH28 0xFFFFFFFFFFFFFFFFFFFFFFFFFFFFFFFFFFFFFFFFFFFFFFFFFFFFFFFF NOT AND PUSH1 0x20 DUP3 ADD DUP1 MLOAD PUSH28 0xFFFFFFFFFFFFFFFFFFFFFFFFFFFFFFFFFFFFFFFFFFFFFFFFFFFFFFFF DUP4 DUP2 DUP4 AND OR DUP4 MSTORE POP POP POP POP PUSH1 0x40 MLOAD PUSH2 0x325A SWAP2 SWAP1 PUSH2 0x4A06 JUMP JUMPDEST PUSH0 PUSH1 0x40 MLOAD DUP1 DUP4 SUB DUP2 PUSH0 DUP7 GAS CALL SWAP2 POP POP RETURNDATASIZE DUP1 PUSH0 DUP2 EQ PUSH2 0x3293 JUMPI PUSH1 0x40 MLOAD SWAP2 POP PUSH1 0x1F NOT PUSH1 0x3F RETURNDATASIZE ADD AND DUP3 ADD PUSH1 0x40 MSTORE RETURNDATASIZE DUP3 MSTORE RETURNDATASIZE PUSH0 PUSH1 0x20 DUP5 ADD RETURNDATACOPY PUSH2 0x3298 JUMP JUMPDEST PUSH1 0x60 SWAP2 POP JUMPDEST POP SWAP2 POP SWAP2 POP DUP2 PUSH2 0x32A9 JUMPI PUSH1 0x15 PUSH2 0x32BE JUMP JUMPDEST DUP1 DUP1 PUSH1 0x20 ADD SWAP1 MLOAD DUP2 ADD SWAP1 PUSH2 0x32BD SWAP2 SWAP1 PUSH2 0x4A1C JUMP JUMPDEST JUMPDEST PUSH1 0x3 SIGNEXTEND SWAP3 POP POP POP SWAP4 SWAP3 POP POP POP JUMP JUMPDEST PUSH0 PUSH1 0x1 PUSH0 SWAP1 SLOAD SWAP1 PUSH2 0x100 EXP SWAP1 DIV PUSH20 0xFFFFFFFFFFFFFFFFFFFFFFFFFFFFFFFFFFFFFFFF AND SWAP1 POP DUP2 PUSH1 0x1 PUSH0 PUSH2 0x100 EXP DUP2 SLOAD DUP2 PUSH20 0xFFFFFFFFFFFFFFFFFFFFFFFFFFFFFFFFFFFFFFFF MUL NOT AND SWAP1 DUP4 PUSH20 0xFFFFFFFFFFFFFFFFFFFFFFFFFFFFFFFFFFFFFFFF AND MUL OR SWAP1 SSTORE POP DUP2 PUSH20 0xFFFFFFFFFFFFFFFFFFFFFFFFFFFFFFFFFFFFFFFF AND DUP2 PUSH20 0xFFFFFFFFFFFFFFFFFFFFFFFFFFFFFFFFFFFFFFFF AND PUSH32 0x8BE0079C531659141344CD1FD0A4F28419497F9722A3DAAFE3B4186F6B6457E0 PUSH1 0x40 MLOAD PUSH1 0x40 MLOAD DUP1 SWAP2 SUB SWAP1 LOG3 POP POP JUMP JUMPDEST PUSH0 CALLER SWAP1 POP SWAP1 JUMP JUMPDEST PUSH0 DUP1 PUSH0 SWAP1 POP PUSH0 PUSH2 0x33B7 PUSH16 0xFFFFFFFFFFFFFFFFFFFFFFFFFFFFFFFF DUP6 GT PUSH2 0x3494 JUMP JUMPDEST PUSH1 0x80 MUL SWAP1 POP DUP1 DUP5 SWAP1 SHR SWAP4 POP DUP1 DUP3 ADD SWAP2 POP PUSH2 0x33DA PUSH8 0xFFFFFFFFFFFFFFFF DUP6 GT PUSH2 0x3494 JUMP JUMPDEST PUSH1 0x40 MUL SWAP1 POP DUP1 DUP5 SWAP1 SHR SWAP4 POP DUP1 DUP3 ADD SWAP2 POP PUSH2 0x33F9 PUSH4 0xFFFFFFFF DUP6 GT PUSH2 0x3494 JUMP JUMPDEST PUSH1 0x20 MUL SWAP1 POP DUP1 DUP5 SWAP1 SHR SWAP4 POP DUP1 DUP3 ADD SWAP2 POP PUSH2 0x3416 PUSH2 0xFFFF DUP6 GT PUSH2 0x3494 JUMP JUMPDEST PUSH1 0x10 MUL SWAP1 POP DUP1 DUP5 SWAP1 SHR SWAP4 POP DUP1 DUP3 ADD SWAP2 POP PUSH2 0x3432 PUSH1 0xFF DUP6 GT PUSH2 0x3494 JUMP JUMPDEST PUSH1 0x8 MUL SWAP1 POP DUP1 DUP5 SWAP1 SHR SWAP4 POP DUP1 DUP3 ADD SWAP2 POP PUSH2 0x344E PUSH1 0xF DUP6 GT PUSH2 0x3494 JUMP JUMPDEST PUSH1 0x4 MUL SWAP1 POP DUP1 DUP5 SWAP1 SHR SWAP4 POP DUP1 DUP3 ADD SWAP2 POP PUSH2 0x346A PUSH1 0x3 DUP6 GT PUSH2 0x3494 JUMP JUMPDEST PUSH1 0x2 MUL SWAP1 POP DUP1 DUP5 SWAP1 SHR SWAP4 POP DUP1 DUP3 ADD SWAP2 POP PUSH2 0x3486 PUSH1 0x1 DUP6 GT PUSH2 0x3494 JUMP JUMPDEST DUP3 ADD SWAP2 POP DUP2 SWAP3 POP POP POP SWAP2 SWAP1 POP JUMP JUMPDEST PUSH0 DUP2 ISZERO ISZERO SWAP1 POP SWAP2 SWAP1 POP JUMP JUMPDEST PUSH0 PUSH1 0x40 MLOAD SWAP1 POP SWAP1 JUMP JUMPDEST PUSH0 DUP1 REVERT JUMPDEST PUSH0 DUP1 REVERT JUMPDEST PUSH0 PUSH20 0xFFFFFFFFFFFFFFFFFFFFFFFFFFFFFFFFFFFFFFFF DUP3 AND SWAP1 POP SWAP2 SWAP1 POP JUMP JUMPDEST PUSH0 PUSH2 0x34D9 DUP3 PUSH2 0x34B0 JUMP JUMPDEST SWAP1 POP SWAP2 SWAP1 POP JUMP JUMPDEST PUSH2 0x34E9 DUP2 PUSH2 0x34CF JUMP JUMPDEST DUP2 EQ PUSH2 0x34F3 JUMPI PUSH0 DUP1 REVERT JUMPDEST POP JUMP JUMPDEST PUSH0 DUP2 CALLDATALOAD SWAP1 POP PUSH2 0x3504 DUP2 PUSH2 0x34E0 JUMP JUMPDEST SWAP3 SWAP2 POP POP JUMP JUMPDEST PUSH0 PUSH1 0x20 DUP3 DUP5 SUB SLT ISZERO PUSH2 0x351F JUMPI PUSH2 0x351E PUSH2 0x34A8 JUMP JUMPDEST JUMPDEST PUSH0 PUSH2 0x352C DUP5 DUP3 DUP6 ADD PUSH2 0x34F6 JUMP JUMPDEST SWAP2 POP POP SWAP3 SWAP2 POP POP JUMP JUMPDEST PUSH2 0x353E DUP2 PUSH2 0x34CF JUMP JUMPDEST DUP3 MSTORE POP POP JUMP JUMPDEST PUSH0 PUSH1 0x20 DUP3 ADD SWAP1 POP PUSH2 0x3557 PUSH0 DUP4 ADD DUP5 PUSH2 0x3535 JUMP JUMPDEST SWAP3 SWAP2 POP POP JUMP JUMPDEST PUSH0 DUP2 SWAP1 POP SWAP2 SWAP1 POP JUMP JUMPDEST PUSH2 0x356F DUP2 PUSH2 0x355D JUMP JUMPDEST DUP2 EQ PUSH2 0x3579 JUMPI PUSH0 DUP1 REVERT JUMPDEST POP JUMP JUMPDEST PUSH0 DUP2 CALLDATALOAD SWAP1 POP PUSH2 0x358A DUP2 PUSH2 0x3566 JUMP JUMPDEST SWAP3 SWAP2 POP POP JUMP JUMPDEST PUSH0 DUP1 REVERT JUMPDEST PUSH0 DUP1 REVERT JUMPDEST PUSH0 DUP1 REVERT JUMPDEST PUSH0 DUP1 DUP4 PUSH1 0x1F DUP5 ADD SLT PUSH2 0x35B1 JUMPI PUSH2 0x35B0 PUSH2 0x3590 JUMP JUMPDEST JUMPDEST DUP3 CALLDATALOAD SWAP1 POP PUSH8 0xFFFFFFFFFFFFFFFF DUP2 GT ISZERO PUSH2 0x35CE JUMPI PUSH2 0x35CD PUSH2 0x3594 JUMP JUMPDEST JUMPDEST PUSH1 0x20 DUP4 ADD SWAP2 POP DUP4 PUSH1 0x20 DUP3 MUL DUP4 ADD GT ISZERO PUSH2 0x35EA JUMPI PUSH2 0x35E9 PUSH2 0x3598 JUMP JUMPDEST JUMPDEST SWAP3 POP SWAP3 SWAP1 POP JUMP JUMPDEST PUSH0 DUP1 PUSH0 DUP1 PUSH0 DUP1 PUSH1 0xA0 DUP8 DUP10 SUB SLT ISZERO PUSH2 0x360B JUMPI PUSH2 0x360A PUSH2 0x34A8 JUMP JUMPDEST JUMPDEST PUSH0 PUSH2 0x3618 DUP10 DUP3 DUP11 ADD PUSH2 0x34F6 JUMP JUMPDEST SWAP7 POP POP PUSH1 0x20 PUSH2 0x3629 DUP10 DUP3 DUP11 ADD PUSH2 0x357C JUMP JUMPDEST SWAP6 POP POP PUSH1 0x40 PUSH2 0x363A DUP10 DUP3 DUP11 ADD PUSH2 0x357C JUMP JUMPDEST SWAP5 POP POP PUSH1 0x60 PUSH2 0x364B DUP10 DUP3 DUP11 ADD PUSH2 0x357C JUMP JUMPDEST SWAP4 POP POP PUSH1 0x80 DUP8 ADD CALLDATALOAD PUSH8 0xFFFFFFFFFFFFFFFF DUP2 GT ISZERO PUSH2 0x366C JUMPI PUSH2 0x366B PUSH2 0x34AC JUMP JUMPDEST JUMPDEST PUSH2 0x3678 DUP10 DUP3 DUP11 ADD PUSH2 0x359C JUMP JUMPDEST SWAP3 POP SWAP3 POP POP SWAP3 SWAP6 POP SWAP3 SWAP6 POP SWAP3 SWAP6 JUMP JUMPDEST PUSH0 DUP1 PUSH0 DUP1 PUSH1 0x80 DUP6 DUP8 SUB SLT ISZERO PUSH2 0x369F JUMPI PUSH2 0x369E PUSH2 0x34A8 JUMP JUMPDEST JUMPDEST PUSH0 PUSH2 0x36AC DUP8 DUP3 DUP9 ADD PUSH2 0x34F6 JUMP JUMPDEST SWAP5 POP POP PUSH1 0x20 PUSH2 0x36BD DUP8 DUP3 DUP9 ADD PUSH2 0x34F6 JUMP JUMPDEST SWAP4 POP POP PUSH1 0x40 PUSH2 0x36CE DUP8 DUP3 DUP9 ADD PUSH2 0x34F6 JUMP JUMPDEST SWAP3 POP POP PUSH1 0x60 PUSH2 0x36DF DUP8 DUP3 DUP9 ADD PUSH2 0x357C JUMP JUMPDEST SWAP2 POP POP SWAP3 SWAP6 SWAP2 SWAP5 POP SWAP3 POP JUMP JUMPDEST PUSH0 DUP2 PUSH1 0x7 SIGNEXTEND SWAP1 POP SWAP2 SWAP1 POP JUMP JUMPDEST PUSH2 0x3700 DUP2 PUSH2 0x36EB JUMP JUMPDEST DUP3 MSTORE POP POP JUMP JUMPDEST PUSH0 PUSH1 0x20 DUP3 ADD SWAP1 POP PUSH2 0x3719 PUSH0 DUP4 ADD DUP5 PUSH2 0x36F7 JUMP JUMPDEST SWAP3 SWAP2 POP POP JUMP JUMPDEST PUSH0 PUSH1 0x20 DUP3 DUP5 SUB SLT ISZERO PUSH2 0x3734 JUMPI PUSH2 0x3733 PUSH2 0x34A8 JUMP JUMPDEST JUMPDEST PUSH0 PUSH2 0x3741 DUP5 DUP3 DUP6 ADD PUSH2 0x357C JUMP JUMPDEST SWAP2 POP POP SWAP3 SWAP2 POP POP JUMP JUMPDEST PUSH0 DUP2 SWAP1 POP SWAP2 SWAP1 POP JUMP JUMPDEST PUSH2 0x375C DUP2 PUSH2 0x374A JUMP JUMPDEST DUP3 MSTORE POP POP JUMP JUMPDEST PUSH0 PUSH1 0x20 DUP3 ADD SWAP1 POP PUSH2 0x3775 PUSH0 DUP4 ADD DUP5 PUSH2 0x3753 JUMP JUMPDEST SWAP3 SWAP2 POP POP JUMP JUMPDEST PUSH0 PUSH3 0xFFFFFF DUP3 AND SWAP1 POP SWAP2 SWAP1 POP JUMP JUMPDEST PUSH2 0x3792 DUP2 PUSH2 0x377B JUMP JUMPDEST DUP2 EQ PUSH2 0x379C JUMPI PUSH0 DUP1 REVERT JUMPDEST POP JUMP JUMPDEST PUSH0 DUP2 CALLDATALOAD SWAP1 POP PUSH2 0x37AD DUP2 PUSH2 0x3789 JUMP JUMPDEST SWAP3 SWAP2 POP POP JUMP JUMPDEST PUSH0 DUP1 PUSH0 PUSH1 0x60 DUP5 DUP7 SUB SLT ISZERO PUSH2 0x37CA JUMPI PUSH2 0x37C9 PUSH2 0x34A8 JUMP JUMPDEST JUMPDEST PUSH0 PUSH2 0x37D7 DUP7 DUP3 DUP8 ADD PUSH2 0x34F6 JUMP JUMPDEST SWAP4 POP POP PUSH1 0x20 PUSH2 0x37E8 DUP7 DUP3 DUP8 ADD PUSH2 0x34F6 JUMP JUMPDEST SWAP3 POP POP PUSH1 0x40 PUSH2 0x37F9 DUP7 DUP3 DUP8 ADD PUSH2 0x379F JUMP JUMPDEST SWAP2 POP POP SWAP3 POP SWAP3 POP SWAP3 JUMP JUMPDEST PUSH2 0x380C DUP2 PUSH2 0x355D JUMP JUMPDEST DUP3 MSTORE POP POP JUMP JUMPDEST PUSH0 PUSH1 0x20 DUP3 ADD SWAP1 POP PUSH2 0x3825 PUSH0 DUP4 ADD DUP5 PUSH2 0x3803 JUMP JUMPDEST SWAP3 SWAP2 POP POP JUMP JUMPDEST PUSH0 DUP1 PUSH0 PUSH1 0x60 DUP5 DUP7 SUB SLT ISZERO PUSH2 0x3842 JUMPI PUSH2 0x3841 PUSH2 0x34A8 JUMP JUMPDEST JUMPDEST PUSH0 PUSH2 0x384F DUP7 DUP3 DUP8 ADD PUSH2 0x357C JUMP JUMPDEST SWAP4 POP POP PUSH1 0x20 PUSH2 0x3860 DUP7 DUP3 DUP8 ADD PUSH2 0x34F6 JUMP JUMPDEST SWAP3 POP POP PUSH1 0x40 PUSH2 0x3871 DUP7 DUP3 DUP8 ADD PUSH2 0x357C JUMP JUMPDEST SWAP2 POP POP SWAP3 POP SWAP3 POP SWAP3 JUMP JUMPDEST PUSH0 DUP2 ISZERO ISZERO SWAP1 POP SWAP2 SWAP1 POP JUMP JUMPDEST PUSH2 0x388F DUP2 PUSH2 0x387B JUMP JUMPDEST DUP3 MSTORE POP POP JUMP JUMPDEST PUSH0 PUSH1 0x20 DUP3 ADD SWAP1 POP PUSH2 0x38A8 PUSH0 DUP4 ADD DUP5 PUSH2 0x3886 JUMP JUMPDEST SWAP3 SWAP2 POP POP JUMP JUMPDEST PUSH2 0x38B7 DUP2 PUSH2 0x374A JUMP JUMPDEST DUP2 EQ PUSH2 0x38C1 JUMPI PUSH0 DUP1 REVERT JUMPDEST POP JUMP JUMPDEST PUSH0 DUP2 CALLDATALOAD SWAP1 POP PUSH2 0x38D2 DUP2 PUSH2 0x38AE JUMP JUMPDEST SWAP3 SWAP2 POP POP JUMP JUMPDEST PUSH0 PUSH1 0x20 DUP3 DUP5 SUB SLT ISZERO PUSH2 0x38ED JUMPI PUSH2 0x38EC PUSH2 0x34A8 JUMP JUMPDEST JUMPDEST PUSH0 PUSH2 0x38FA DUP5 DUP3 DUP6 ADD PUSH2 0x38C4 JUMP JUMPDEST SWAP2 POP POP SWAP3 SWAP2 POP POP JUMP JUMPDEST PUSH0 DUP1 REVERT JUMPDEST PUSH0 PUSH1 0x1F NOT PUSH1 0x1F DUP4 ADD AND SWAP1 POP SWAP2 SWAP1 POP JUMP JUMPDEST PUSH32 0x4E487B7100000000000000000000000000000000000000000000000000000000 PUSH0 MSTORE PUSH1 0x41 PUSH1 0x4 MSTORE PUSH1 0x24 PUSH0 REVERT JUMPDEST PUSH2 0x394D DUP3 PUSH2 0x3907 JUMP JUMPDEST DUP2 ADD DUP2 DUP2 LT PUSH8 0xFFFFFFFFFFFFFFFF DUP3 GT OR ISZERO PUSH2 0x396C JUMPI PUSH2 0x396B PUSH2 0x3917 JUMP JUMPDEST JUMPDEST DUP1 PUSH1 0x40 MSTORE POP POP POP JUMP JUMPDEST PUSH0 PUSH2 0x397E PUSH2 0x349F JUMP JUMPDEST SWAP1 POP PUSH2 0x398A DUP3 DUP3 PUSH2 0x3944 JUMP JUMPDEST SWAP2 SWAP1 POP JUMP JUMPDEST PUSH0 PUSH8 0xFFFFFFFFFFFFFFFF DUP3 GT ISZERO PUSH2 0x39A9 JUMPI PUSH2 0x39A8 PUSH2 0x3917 JUMP JUMPDEST JUMPDEST PUSH2 0x39B2 DUP3 PUSH2 0x3907 JUMP JUMPDEST SWAP1 POP PUSH1 0x20 DUP2 ADD SWAP1 POP SWAP2 SWAP1 POP JUMP JUMPDEST DUP3 DUP2 DUP4 CALLDATACOPY PUSH0 DUP4 DUP4 ADD MSTORE POP POP POP JUMP JUMPDEST PUSH0 PUSH2 0x39DF PUSH2 0x39DA DUP5 PUSH2 0x398F JUMP JUMPDEST PUSH2 0x3975 JUMP JUMPDEST SWAP1 POP DUP3 DUP2 MSTORE PUSH1 0x20 DUP2 ADD DUP5 DUP5 DUP5 ADD GT ISZERO PUSH2 0x39FB JUMPI PUSH2 0x39FA PUSH2 0x3903 JUMP JUMPDEST JUMPDEST PUSH2 0x3A06 DUP5 DUP3 DUP6 PUSH2 0x39BF JUMP JUMPDEST POP SWAP4 SWAP3 POP POP POP JUMP JUMPDEST PUSH0 DUP3 PUSH1 0x1F DUP4 ADD SLT PUSH2 0x3A22 JUMPI PUSH2 0x3A21 PUSH2 0x3590 JUMP JUMPDEST JUMPDEST DUP2 CALLDATALOAD PUSH2 0x3A32 DUP5 DUP3 PUSH1 0x20 DUP7 ADD PUSH2 0x39CD JUMP JUMPDEST SWAP2 POP POP SWAP3 SWAP2 POP POP JUMP JUMPDEST PUSH0 DUP1 PUSH1 0x40 DUP4 DUP6 SUB SLT ISZERO PUSH2 0x3A51 JUMPI PUSH2 0x3A50 PUSH2 0x34A8 JUMP JUMPDEST JUMPDEST PUSH0 PUSH2 0x3A5E DUP6 DUP3 DUP7 ADD PUSH2 0x34F6 JUMP JUMPDEST SWAP3 POP POP PUSH1 0x20 DUP4 ADD CALLDATALOAD PUSH8 0xFFFFFFFFFFFFFFFF DUP2 GT ISZERO PUSH2 0x3A7F JUMPI PUSH2 0x3A7E PUSH2 0x34AC JUMP JUMPDEST JUMPDEST PUSH2 0x3A8B DUP6 DUP3 DUP7 ADD PUSH2 0x3A0E JUMP JUMPDEST SWAP2 POP POP SWAP3 POP SWAP3 SWAP1 POP JUMP JUMPDEST PUSH0 DUP2 SWAP1 POP SWAP2 SWAP1 POP JUMP JUMPDEST PUSH2 0x3AA7 DUP2 PUSH2 0x3A95 JUMP JUMPDEST DUP3 MSTORE POP POP JUMP JUMPDEST PUSH0 DUP2 MLOAD SWAP1 POP SWAP2 SWAP1 POP JUMP JUMPDEST PUSH0 DUP3 DUP3 MSTORE PUSH1 0x20 DUP3 ADD SWAP1 POP SWAP3 SWAP2 POP POP JUMP JUMPDEST DUP3 DUP2 DUP4 MCOPY PUSH0 DUP4 DUP4 ADD MSTORE POP POP POP JUMP JUMPDEST PUSH0 PUSH2 0x3ADF DUP3 PUSH2 0x3AAD JUMP JUMPDEST PUSH2 0x3AE9 DUP2 DUP6 PUSH2 0x3AB7 JUMP JUMPDEST SWAP4 POP PUSH2 0x3AF9 DUP2 DUP6 PUSH1 0x20 DUP7 ADD PUSH2 0x3AC7 JUMP JUMPDEST PUSH2 0x3B02 DUP2 PUSH2 0x3907 JUMP JUMPDEST DUP5 ADD SWAP2 POP POP SWAP3 SWAP2 POP POP JUMP JUMPDEST PUSH0 PUSH1 0x40 DUP3 ADD SWAP1 POP PUSH2 0x3B20 PUSH0 DUP4 ADD DUP6 PUSH2 0x3A9E JUMP JUMPDEST DUP2 DUP2 SUB PUSH1 0x20 DUP4 ADD MSTORE PUSH2 0x3B32 DUP2 DUP5 PUSH2 0x3AD5 JUMP JUMPDEST SWAP1 POP SWAP4 SWAP3 POP POP POP JUMP JUMPDEST PUSH0 DUP1 PUSH1 0x40 DUP4 DUP6 SUB SLT ISZERO PUSH2 0x3B51 JUMPI PUSH2 0x3B50 PUSH2 0x34A8 JUMP JUMPDEST JUMPDEST PUSH0 PUSH2 0x3B5E DUP6 DUP3 DUP7 ADD PUSH2 0x34F6 JUMP JUMPDEST SWAP3 POP POP PUSH1 0x20 PUSH2 0x3B6F DUP6 DUP3 DUP7 ADD PUSH2 0x34F6 JUMP JUMPDEST SWAP2 POP POP SWAP3 POP SWAP3 SWAP1 POP JUMP JUMPDEST PUSH2 0x3B82 DUP2 PUSH2 0x377B JUMP JUMPDEST DUP3 MSTORE POP POP JUMP JUMPDEST PUSH0 PUSH1 0x20 DUP3 ADD SWAP1 POP PUSH2 0x3B9B PUSH0 DUP4 ADD DUP5 PUSH2 0x3B79 JUMP JUMPDEST SWAP3 SWAP2 POP POP JUMP JUMPDEST PUSH0 DUP1 PUSH1 0x40 DUP4 DUP6 SUB SLT ISZERO PUSH2 0x3BB7 JUMPI PUSH2 0x3BB6 PUSH2 0x34A8 JUMP JUMPDEST JUMPDEST PUSH0 PUSH2 0x3BC4 DUP6 DUP3 DUP7 ADD PUSH2 0x34F6 JUMP JUMPDEST SWAP3 POP POP PUSH1 0x20 PUSH2 0x3BD5 DUP6 DUP3 DUP7 ADD PUSH2 0x357C JUMP JUMPDEST SWAP2 POP POP SWAP3 POP SWAP3 SWAP1 POP JUMP JUMPDEST PUSH0 PUSH1 0xC0 DUP3 ADD SWAP1 POP PUSH2 0x3BF2 PUSH0 DUP4 ADD DUP10 PUSH2 0x3535 JUMP JUMPDEST PUSH2 0x3BFF PUSH1 0x20 DUP4 ADD DUP9 PUSH2 0x3803 JUMP JUMPDEST PUSH2 0x3C0C PUSH1 0x40 DUP4 ADD DUP8 PUSH2 0x3803 JUMP JUMPDEST PUSH2 0x3C19 PUSH1 0x60 DUP4 ADD DUP7 PUSH2 0x3803 JUMP JUMPDEST PUSH2 0x3C26 PUSH1 0x80 DUP4 ADD DUP6 PUSH2 0x3803 JUMP JUMPDEST PUSH2 0x3C33 PUSH1 0xA0 DUP4 ADD DUP5 PUSH2 0x3803 JUMP JUMPDEST SWAP8 SWAP7 POP POP POP POP POP POP POP JUMP JUMPDEST PUSH0 PUSH1 0xC0 DUP3 ADD SWAP1 POP PUSH2 0x3C51 PUSH0 DUP4 ADD DUP10 PUSH2 0x3803 JUMP JUMPDEST PUSH2 0x3C5E PUSH1 0x20 DUP4 ADD DUP9 PUSH2 0x3803 JUMP JUMPDEST PUSH2 0x3C6B PUSH1 0x40 DUP4 ADD DUP8 PUSH2 0x3803 JUMP JUMPDEST PUSH2 0x3C78 PUSH1 0x60 DUP4 ADD DUP7 PUSH2 0x3803 JUMP JUMPDEST PUSH2 0x3C85 PUSH1 0x80 DUP4 ADD DUP6 PUSH2 0x3803 JUMP JUMPDEST PUSH2 0x3C92 PUSH1 0xA0 DUP4 ADD DUP5 PUSH2 0x3886 JUMP JUMPDEST SWAP8 SWAP7 POP POP POP POP POP POP POP JUMP JUMPDEST PUSH0 DUP1 PUSH1 0x40 DUP4 DUP6 SUB SLT ISZERO PUSH2 0x3CB3 JUMPI PUSH2 0x3CB2 PUSH2 0x34A8 JUMP JUMPDEST JUMPDEST PUSH0 PUSH2 0x3CC0 DUP6 DUP3 DUP7 ADD PUSH2 0x357C JUMP JUMPDEST SWAP3 POP POP PUSH1 0x20 PUSH2 0x3CD1 DUP6 DUP3 DUP7 ADD PUSH2 0x357C JUMP JUMPDEST SWAP2 POP POP SWAP3 POP SWAP3 SWAP1 POP JUMP JUMPDEST PUSH0 DUP2 SWAP1 POP SWAP2 SWAP1 POP JUMP JUMPDEST PUSH0 PUSH2 0x3CFE PUSH2 0x3CF9 PUSH2 0x3CF4 DUP5 PUSH2 0x34B0 JUMP JUMPDEST PUSH2 0x3CDB JUMP JUMPDEST PUSH2 0x34B0 JUMP JUMPDEST SWAP1 POP SWAP2 SWAP1 POP JUMP JUMPDEST PUSH0 PUSH2 0x3D0F DUP3 PUSH2 0x3CE4 JUMP JUMPDEST SWAP1 POP SWAP2 SWAP1 POP JUMP JUMPDEST PUSH0 PUSH2 0x3D20 DUP3 PUSH2 0x3D05 JUMP JUMPDEST SWAP1 POP SWAP2 SWAP1 POP JUMP JUMPDEST PUSH2 0x3D30 DUP2 PUSH2 0x3D16 JUMP JUMPDEST DUP3 MSTORE POP POP JUMP JUMPDEST PUSH0 PUSH1 0x20 DUP3 ADD SWAP1 POP PUSH2 0x3D49 PUSH0 DUP4 ADD DUP5 PUSH2 0x3D27 JUMP JUMPDEST SWAP3 SWAP2 POP POP JUMP JUMPDEST PUSH0 PUSH2 0x3D59 DUP3 PUSH2 0x3D05 JUMP JUMPDEST SWAP1 POP SWAP2 SWAP1 POP JUMP JUMPDEST PUSH2 0x3D69 DUP2 PUSH2 0x3D4F JUMP JUMPDEST DUP3 MSTORE POP POP JUMP JUMPDEST PUSH0 PUSH1 0x20 DUP3 ADD SWAP1 POP PUSH2 0x3D82 PUSH0 DUP4 ADD DUP5 PUSH2 0x3D60 JUMP JUMPDEST SWAP3 SWAP2 POP POP JUMP JUMPDEST PUSH0 PUSH2 0x3D92 DUP3 PUSH2 0x3D05 JUMP JUMPDEST SWAP1 POP SWAP2 SWAP1 POP JUMP JUMPDEST PUSH2 0x3DA2 DUP2 PUSH2 0x3D88 JUMP JUMPDEST DUP3 MSTORE POP POP JUMP JUMPDEST PUSH0 PUSH1 0x20 DUP3 ADD SWAP1 POP PUSH2 0x3DBB PUSH0 DUP4 ADD DUP5 PUSH2 0x3D99 JUMP JUMPDEST SWAP3 SWAP2 POP POP JUMP JUMPDEST PUSH0 DUP3 DUP3 MSTORE PUSH1 0x20 DUP3 ADD SWAP1 POP SWAP3 SWAP2 POP POP JUMP JUMPDEST PUSH32 0x496E76616C696420616464726573730000000000000000000000000000000000 PUSH0 DUP3 ADD MSTORE POP JUMP JUMPDEST PUSH0 PUSH2 0x3E05 PUSH1 0xF DUP4 PUSH2 0x3DC1 JUMP JUMPDEST SWAP2 POP PUSH2 0x3E10 DUP3 PUSH2 0x3DD1 JUMP JUMPDEST PUSH1 0x20 DUP3 ADD SWAP1 POP SWAP2 SWAP1 POP JUMP JUMPDEST PUSH0 PUSH1 0x20 DUP3 ADD SWAP1 POP DUP2 DUP2 SUB PUSH0 DUP4 ADD MSTORE PUSH2 0x3E32 DUP2 PUSH2 0x3DF9 JUMP JUMPDEST SWAP1 POP SWAP2 SWAP1 POP JUMP JUMPDEST PUSH32 0x5374616B6520616D6F756E74206D757374206265203E20300000000000000000 PUSH0 DUP3 ADD MSTORE POP JUMP JUMPDEST PUSH0 PUSH2 0x3E6D PUSH1 0x18 DUP4 PUSH2 0x3DC1 JUMP JUMPDEST SWAP2 POP PUSH2 0x3E78 DUP3 PUSH2 0x3E39 JUMP JUMPDEST PUSH1 0x20 DUP3 ADD SWAP1 POP SWAP2 SWAP1 POP JUMP JUMPDEST PUSH0 PUSH1 0x20 DUP3 ADD SWAP1 POP DUP2 DUP2 SUB PUSH0 DUP4 ADD MSTORE PUSH2 0x3E9A DUP2 PUSH2 0x3E61 JUMP JUMPDEST SWAP1 POP SWAP2 SWAP1 POP JUMP JUMPDEST PUSH32 0x5374616B65206475726174696F6E206F7574206F662072616E67650000000000 PUSH0 DUP3 ADD MSTORE POP JUMP JUMPDEST PUSH0 PUSH2 0x3ED5 PUSH1 0x1B DUP4 PUSH2 0x3DC1 JUMP JUMPDEST SWAP2 POP PUSH2 0x3EE0 DUP3 PUSH2 0x3EA1 JUMP JUMPDEST PUSH1 0x20 DUP3 ADD SWAP1 POP SWAP2 SWAP1 POP JUMP JUMPDEST PUSH0 PUSH1 0x20 DUP3 ADD SWAP1 POP DUP2 DUP2 SUB PUSH0 DUP4 ADD MSTORE PUSH2 0x3F02 DUP2 PUSH2 0x3EC9 JUMP JUMPDEST SWAP1 POP SWAP2 SWAP1 POP JUMP JUMPDEST PUSH32 0x496E636F7272656374204842415220616D6F756E742073656E74000000000000 PUSH0 DUP3 ADD MSTORE POP JUMP JUMPDEST PUSH0 PUSH2 0x3F3D PUSH1 0x1A DUP4 PUSH2 0x3DC1 JUMP JUMPDEST SWAP2 POP PUSH2 0x3F48 DUP3 PUSH2 0x3F09 JUMP JUMPDEST PUSH1 0x20 DUP3 ADD SWAP1 POP SWAP2 SWAP1 POP JUMP JUMPDEST PUSH0 PUSH1 0x20 DUP3 ADD SWAP1 POP DUP2 DUP2 SUB PUSH0 DUP4 ADD MSTORE PUSH2 0x3F6A DUP2 PUSH2 0x3F31 JUMP JUMPDEST SWAP1 POP SWAP2 SWAP1 POP JUMP JUMPDEST PUSH0 DUP3 DUP3 MSTORE PUSH1 0x20 DUP3 ADD SWAP1 POP SWAP3 SWAP2 POP POP JUMP JUMPDEST PUSH0 DUP2 SWAP1 POP SWAP2 SWAP1 POP JUMP JUMPDEST PUSH0 DUP3 DUP3 MSTORE PUSH1 0x20 DUP3 ADD SWAP1 POP SWAP3 SWAP2 POP POP JUMP JUMPDEST PUSH0 PUSH2 0x3FA5 DUP4 DUP6 PUSH2 0x3F8A JUMP JUMPDEST SWAP4 POP PUSH2 0x3FB2 DUP4 DUP6 DUP5 PUSH2 0x39BF JUMP JUMPDEST PUSH2 0x3FBB DUP4 PUSH2 0x3907 JUMP JUMPDEST DUP5 ADD SWAP1 POP SWAP4 SWAP3 POP POP POP JUMP JUMPDEST PUSH0 PUSH2 0x3FD2 DUP5 DUP5 DUP5 PUSH2 0x3F9A JUMP JUMPDEST SWAP1 POP SWAP4 SWAP3 POP POP POP JUMP JUMPDEST PUSH0 DUP1 REVERT JUMPDEST PUSH0 DUP1 REVERT JUMPDEST PUSH0 DUP1 REVERT JUMPDEST PUSH0 DUP1 DUP4 CALLDATALOAD PUSH1 0x1 PUSH1 0x20 SUB DUP5 CALLDATASIZE SUB SUB DUP2 SLT PUSH2 0x4003 JUMPI PUSH2 0x4002 PUSH2 0x3FE3 JUMP JUMPDEST JUMPDEST DUP4 DUP2 ADD SWAP3 POP DUP3 CALLDATALOAD SWAP2 POP PUSH1 0x20 DUP4 ADD SWAP3 POP PUSH8 0xFFFFFFFFFFFFFFFF DUP3 GT ISZERO PUSH2 0x402B JUMPI PUSH2 0x402A PUSH2 0x3FDB JUMP JUMPDEST JUMPDEST PUSH1 0x1 DUP3 MUL CALLDATASIZE SUB DUP4 SGT ISZERO PUSH2 0x4041 JUMPI PUSH2 0x4040 PUSH2 0x3FDF JUMP JUMPDEST JUMPDEST POP SWAP3 POP SWAP3 SWAP1 POP JUMP JUMPDEST PUSH0 PUSH1 0x20 DUP3 ADD SWAP1 POP SWAP2 SWAP1 POP JUMP JUMPDEST PUSH0 PUSH2 0x4060 DUP4 DUP6 PUSH2 0x3F71 JUMP JUMPDEST SWAP4 POP DUP4 PUSH1 0x20 DUP5 MUL DUP6 ADD PUSH2 0x4072 DUP5 PUSH2 0x3F81 JUMP JUMPDEST DUP1 PUSH0 JUMPDEST DUP8 DUP2 LT ISZERO PUSH2 0x40B7 JUMPI DUP5 DUP5 SUB DUP10 MSTORE PUSH2 0x408C DUP3 DUP5 PUSH2 0x3FE7 JUMP JUMPDEST PUSH2 0x4097 DUP7 DUP3 DUP5 PUSH2 0x3FC6 JUMP JUMPDEST SWAP6 POP PUSH2 0x40A2 DUP5 PUSH2 0x4049 JUMP JUMPDEST SWAP4 POP PUSH1 0x20 DUP12 ADD SWAP11 POP POP POP PUSH1 0x1 DUP2 ADD SWAP1 POP PUSH2 0x4075 JUMP JUMPDEST POP DUP3 SWAP8 POP DUP8 SWAP5 POP POP POP POP POP SWAP4 SWAP3 POP POP POP JUMP JUMPDEST PUSH0 PUSH1 0x20 DUP3 ADD SWAP1 POP DUP2 DUP2 SUB PUSH0 DUP4 ADD MSTORE PUSH2 0x40E2 DUP2 DUP5 DUP7 PUSH2 0x4055 JUMP JUMPDEST SWAP1 POP SWAP4 SWAP3 POP POP POP JUMP JUMPDEST PUSH0 DUP2 MLOAD SWAP1 POP PUSH2 0x40F9 DUP2 PUSH2 0x3566 JUMP JUMPDEST SWAP3 SWAP2 POP POP JUMP JUMPDEST PUSH0 PUSH1 0x20 DUP3 DUP5 SUB SLT ISZERO PUSH2 0x4114 JUMPI PUSH2 0x4113 PUSH2 0x34A8 JUMP JUMPDEST JUMPDEST PUSH0 PUSH2 0x4121 DUP5 DUP3 DUP6 ADD PUSH2 0x40EB JUMP JUMPDEST SWAP2 POP POP SWAP3 SWAP2 POP POP JUMP JUMPDEST PUSH32 0x4E487B7100000000000000000000000000000000000000000000000000000000 PUSH0 MSTORE PUSH1 0x11 PUSH1 0x4 MSTORE PUSH1 0x24 PUSH0 REVERT JUMPDEST PUSH0 PUSH2 0x4161 DUP3 PUSH2 0x355D JUMP JUMPDEST SWAP2 POP PUSH2 0x416C DUP4 PUSH2 0x355D JUMP JUMPDEST SWAP3 POP DUP3 DUP3 SUB SWAP1 POP DUP2 DUP2 GT ISZERO PUSH2 0x4184 JUMPI PUSH2 0x4183 PUSH2 0x412A JUMP JUMPDEST JUMPDEST SWAP3 SWAP2 POP POP JUMP JUMPDEST PUSH0 DUP2 SWAP1 POP SWAP2 SWAP1 POP JUMP JUMPDEST PUSH0 PUSH2 0x41AD PUSH2 0x41A8 PUSH2 0x41A3 DUP5 PUSH2 0x418A JUMP JUMPDEST PUSH2 0x3CDB JUMP JUMPDEST PUSH2 0x355D JUMP JUMPDEST SWAP1 POP SWAP2 SWAP1 POP JUMP JUMPDEST PUSH2 0x41BD DUP2 PUSH2 0x4193 JUMP JUMPDEST DUP3 MSTORE POP POP JUMP JUMPDEST PUSH0 PUSH1 0x40 DUP3 ADD SWAP1 POP PUSH2 0x41D6 PUSH0 DUP4 ADD DUP6 PUSH2 0x3753 JUMP JUMPDEST PUSH2 0x41E3 PUSH1 0x20 DUP4 ADD DUP5 PUSH2 0x41B4 JUMP JUMPDEST SWAP4 SWAP3 POP POP POP JUMP JUMPDEST PUSH0 DUP1 REVERT JUMPDEST PUSH2 0x41F7 DUP2 PUSH2 0x36EB JUMP JUMPDEST DUP2 EQ PUSH2 0x4201 JUMPI PUSH0 DUP1 REVERT JUMPDEST POP JUMP JUMPDEST PUSH0 DUP2 MLOAD SWAP1 POP PUSH2 0x4212 DUP2 PUSH2 0x41EE JUMP JUMPDEST SWAP3 SWAP2 POP POP JUMP JUMPDEST PUSH0 PUSH8 0xFFFFFFFFFFFFFFFF DUP3 AND SWAP1 POP SWAP2 SWAP1 POP JUMP JUMPDEST PUSH2 0x4234 DUP2 PUSH2 0x4218 JUMP JUMPDEST DUP2 EQ PUSH2 0x423E JUMPI PUSH0 DUP1 REVERT JUMPDEST POP JUMP JUMPDEST PUSH0 DUP2 MLOAD SWAP1 POP PUSH2 0x424F DUP2 PUSH2 0x422B JUMP JUMPDEST SWAP3 SWAP2 POP POP JUMP JUMPDEST PUSH0 DUP2 PUSH1 0x3 SIGNEXTEND SWAP1 POP SWAP2 SWAP1 POP JUMP JUMPDEST PUSH2 0x426A DUP2 PUSH2 0x4255 JUMP JUMPDEST DUP2 EQ PUSH2 0x4274 JUMPI PUSH0 DUP1 REVERT JUMPDEST POP JUMP JUMPDEST PUSH0 DUP2 MLOAD SWAP1 POP PUSH2 0x4285 DUP2 PUSH2 0x4261 JUMP JUMPDEST SWAP3 SWAP2 POP POP JUMP JUMPDEST PUSH0 PUSH1 0x80 DUP3 DUP5 SUB SLT ISZERO PUSH2 0x42A0 JUMPI PUSH2 0x429F PUSH2 0x41EA JUMP JUMPDEST JUMPDEST PUSH2 0x42AA PUSH1 0x80 PUSH2 0x3975 JUMP JUMPDEST SWAP1 POP PUSH0 PUSH2 0x42B9 DUP5 DUP3 DUP6 ADD PUSH2 0x4204 JUMP JUMPDEST PUSH0 DUP4 ADD MSTORE POP PUSH1 0x20 PUSH2 0x42CC DUP5 DUP3 DUP6 ADD PUSH2 0x4241 JUMP JUMPDEST PUSH1 0x20 DUP4 ADD MSTORE POP PUSH1 0x40 PUSH2 0x42E0 DUP5 DUP3 DUP6 ADD PUSH2 0x4277 JUMP JUMPDEST PUSH1 0x40 DUP4 ADD MSTORE POP PUSH1 0x60 PUSH2 0x42F4 DUP5 DUP3 DUP6 ADD PUSH2 0x40EB JUMP JUMPDEST PUSH1 0x60 DUP4 ADD MSTORE POP SWAP3 SWAP2 POP POP JUMP JUMPDEST PUSH0 PUSH1 0x80 DUP3 DUP5 SUB SLT ISZERO PUSH2 0x4315 JUMPI PUSH2 0x4314 PUSH2 0x34A8 JUMP JUMPDEST JUMPDEST PUSH0 PUSH2 0x4322 DUP5 DUP3 DUP6 ADD PUSH2 0x428B JUMP JUMPDEST SWAP2 POP POP SWAP3 SWAP2 POP POP JUMP JUMPDEST PUSH0 PUSH2 0x4335 DUP3 PUSH2 0x4255 JUMP JUMPDEST SWAP2 POP PUSH32 0xFFFFFFFFFFFFFFFFFFFFFFFFFFFFFFFFFFFFFFFFFFFFFFFFFFFFFFFF80000000 DUP3 SUB PUSH2 0x4367 JUMPI PUSH2 0x4366 PUSH2 0x412A JUMP JUMPDEST JUMPDEST DUP2 PUSH0 SUB SWAP1 POP SWAP2 SWAP1 POP JUMP JUMPDEST PUSH0 DUP2 PUSH1 0x1 SHR SWAP1 POP SWAP2 SWAP1 POP JUMP JUMPDEST PUSH0 DUP1 DUP3 SWAP2 POP DUP4 SWAP1 POP JUMPDEST PUSH1 0x1 DUP6 GT ISZERO PUSH2 0x43C6 JUMPI DUP1 DUP7 DIV DUP2 GT ISZERO PUSH2 0x43A2 JUMPI PUSH2 0x43A1 PUSH2 0x412A JUMP JUMPDEST JUMPDEST PUSH1 0x1 DUP6 AND ISZERO PUSH2 0x43B1 JUMPI DUP1 DUP3 MUL SWAP2 POP JUMPDEST DUP1 DUP2 MUL SWAP1 POP PUSH2 0x43BF DUP6 PUSH2 0x4371 JUMP JUMPDEST SWAP5 POP PUSH2 0x4386 JUMP JUMPDEST SWAP5 POP SWAP5 SWAP3 POP POP POP JUMP JUMPDEST PUSH0 DUP3 PUSH2 0x43DE JUMPI PUSH1 0x1 SWAP1 POP PUSH2 0x4499 JUMP JUMPDEST DUP2 PUSH2 0x43EB JUMPI PUSH0 SWAP1 POP PUSH2 0x4499 JUMP JUMPDEST DUP2 PUSH1 0x1 DUP2 EQ PUSH2 0x4401 JUMPI PUSH1 0x2 DUP2 EQ PUSH2 0x440B JUMPI PUSH2 0x443A JUMP JUMPDEST PUSH1 0x1 SWAP2 POP POP PUSH2 0x4499 JUMP JUMPDEST PUSH1 0xFF DUP5 GT ISZERO PUSH2 0x441D JUMPI PUSH2 0x441C PUSH2 0x412A JUMP JUMPDEST JUMPDEST DUP4 PUSH1 0x2 EXP SWAP2 POP DUP5 DUP3 GT ISZERO PUSH2 0x4434 JUMPI PUSH2 0x4433 PUSH2 0x412A JUMP JUMPDEST JUMPDEST POP PUSH2 0x4499 JUMP JUMPDEST POP PUSH1 0x20 DUP4 LT PUSH2 0x133 DUP4 LT AND PUSH1 0x4E DUP5 LT PUSH1 0xB DUP5 LT AND OR ISZERO PUSH2 0x446F JUMPI DUP3 DUP3 EXP SWAP1 POP DUP4 DUP2 GT ISZERO PUSH2 0x446A JUMPI PUSH2 0x4469 PUSH2 0x412A JUMP JUMPDEST JUMPDEST PUSH2 0x4499 JUMP JUMPDEST PUSH2 0x447C DUP5 DUP5 DUP5 PUSH1 0x1 PUSH2 0x437D JUMP JUMPDEST SWAP3 POP SWAP1 POP DUP2 DUP5 DIV DUP2 GT ISZERO PUSH2 0x4493 JUMPI PUSH2 0x4492 PUSH2 0x412A JUMP JUMPDEST JUMPDEST DUP2 DUP2 MUL SWAP1 POP JUMPDEST SWAP4 SWAP3 POP POP POP JUMP JUMPDEST PUSH0 PUSH2 0x44AA DUP3 PUSH2 0x355D JUMP JUMPDEST SWAP2 POP PUSH2 0x44B5 DUP4 PUSH2 0x355D JUMP JUMPDEST SWAP3 POP PUSH2 0x44E2 PUSH32 0xFFFFFFFFFFFFFFFFFFFFFFFFFFFFFFFFFFFFFFFFFFFFFFFFFFFFFFFFFFFFFFFF DUP5 DUP5 PUSH2 0x43CF JUMP JUMPDEST SWAP1 POP SWAP3 SWAP2 POP POP JUMP JUMPDEST PUSH32 0x4E487B7100000000000000000000000000000000000000000000000000000000 PUSH0 MSTORE PUSH1 0x12 PUSH1 0x4 MSTORE PUSH1 0x24 PUSH0 REVERT JUMPDEST PUSH0 PUSH2 0x4521 DUP3 PUSH2 0x355D JUMP JUMPDEST SWAP2 POP PUSH2 0x452C DUP4 PUSH2 0x355D JUMP JUMPDEST SWAP3 POP DUP3 PUSH2 0x453C JUMPI PUSH2 0x453B PUSH2 0x44EA JUMP JUMPDEST JUMPDEST DUP3 DUP3 DIV SWAP1 POP SWAP3 SWAP2 POP POP JUMP JUMPDEST PUSH0 PUSH2 0x4551 DUP3 PUSH2 0x355D JUMP JUMPDEST SWAP2 POP PUSH2 0x455C DUP4 PUSH2 0x355D JUMP JUMPDEST SWAP3 POP DUP3 DUP3 MUL PUSH2 0x456A DUP2 PUSH2 0x355D JUMP JUMPDEST SWAP2 POP DUP3 DUP3 DIV DUP5 EQ DUP4 ISZERO OR PUSH2 0x4581 JUMPI PUSH2 0x4580 PUSH2 0x412A JUMP JUMPDEST JUMPDEST POP SWAP3 SWAP2 POP POP JUMP JUMPDEST PUSH32 0x546F6B656E2076616C756520756E646572203120555344000000000000000000 PUSH0 DUP3 ADD MSTORE POP JUMP JUMPDEST PUSH0 PUSH2 0x45BC PUSH1 0x17 DUP4 PUSH2 0x3DC1 JUMP JUMPDEST SWAP2 POP PUSH2 0x45C7 DUP3 PUSH2 0x4588 JUMP JUMPDEST PUSH1 0x20 DUP3 ADD SWAP1 POP SWAP2 SWAP1 POP JUMP JUMPDEST PUSH0 PUSH1 0x20 DUP3 ADD SWAP1 POP DUP2 DUP2 SUB PUSH0 DUP4 ADD MSTORE PUSH2 0x45E9 DUP2 PUSH2 0x45B0 JUMP JUMPDEST SWAP1 POP SWAP2 SWAP1 POP JUMP JUMPDEST PUSH0 PUSH1 0x40 DUP3 ADD SWAP1 POP DUP2 DUP2 SUB PUSH0 DUP4 ADD MSTORE PUSH2 0x4608 DUP2 DUP6 PUSH2 0x3AD5 JUMP JUMPDEST SWAP1 POP PUSH2 0x4617 PUSH1 0x20 DUP4 ADD DUP5 PUSH2 0x3803 JUMP JUMPDEST SWAP4 SWAP3 POP POP POP JUMP JUMPDEST PUSH0 PUSH8 0xFFFFFFFFFFFFFFFF DUP3 GT ISZERO PUSH2 0x4638 JUMPI PUSH2 0x4637 PUSH2 0x3917 JUMP JUMPDEST JUMPDEST PUSH1 0x20 DUP3 MUL SWAP1 POP PUSH1 0x20 DUP2 ADD SWAP1 POP SWAP2 SWAP1 POP JUMP JUMPDEST PUSH2 0x4652 DUP2 PUSH2 0x34B0 JUMP JUMPDEST DUP2 EQ PUSH2 0x465C JUMPI PUSH0 DUP1 REVERT JUMPDEST POP JUMP JUMPDEST PUSH0 DUP2 MLOAD SWAP1 POP PUSH2 0x466D DUP2 PUSH2 0x4649 JUMP JUMPDEST SWAP3 SWAP2 POP POP JUMP JUMPDEST PUSH0 PUSH2 0x4685 PUSH2 0x4680 DUP5 PUSH2 0x461E JUMP JUMPDEST PUSH2 0x3975 JUMP JUMPDEST SWAP1 POP DUP1 DUP4 DUP3 MSTORE PUSH1 0x20 DUP3 ADD SWAP1 POP PUSH1 0x20 DUP5 MUL DUP4 ADD DUP6 DUP2 GT ISZERO PUSH2 0x46A8 JUMPI PUSH2 0x46A7 PUSH2 0x3598 JUMP JUMPDEST JUMPDEST DUP4 JUMPDEST DUP2 DUP2 LT ISZERO PUSH2 0x46D1 JUMPI DUP1 PUSH2 0x46BD DUP9 DUP3 PUSH2 0x465F JUMP JUMPDEST DUP5 MSTORE PUSH1 0x20 DUP5 ADD SWAP4 POP POP PUSH1 0x20 DUP2 ADD SWAP1 POP PUSH2 0x46AA JUMP JUMPDEST POP POP POP SWAP4 SWAP3 POP POP POP JUMP JUMPDEST PUSH0 DUP3 PUSH1 0x1F DUP4 ADD SLT PUSH2 0x46EF JUMPI PUSH2 0x46EE PUSH2 0x3590 JUMP JUMPDEST JUMPDEST DUP2 MLOAD PUSH2 0x46FF DUP5 DUP3 PUSH1 0x20 DUP7 ADD PUSH2 0x4673 JUMP JUMPDEST SWAP2 POP POP SWAP3 SWAP2 POP POP JUMP JUMPDEST PUSH0 PUSH8 0xFFFFFFFFFFFFFFFF DUP3 GT ISZERO PUSH2 0x4722 JUMPI PUSH2 0x4721 PUSH2 0x3917 JUMP JUMPDEST JUMPDEST PUSH1 0x20 DUP3 MUL SWAP1 POP PUSH1 0x20 DUP2 ADD SWAP1 POP SWAP2 SWAP1 POP JUMP JUMPDEST PUSH0 PUSH4 0xFFFFFFFF DUP3 AND SWAP1 POP SWAP2 SWAP1 POP JUMP JUMPDEST PUSH2 0x474B DUP2 PUSH2 0x4733 JUMP JUMPDEST DUP2 EQ PUSH2 0x4755 JUMPI PUSH0 DUP1 REVERT JUMPDEST POP JUMP JUMPDEST PUSH0 DUP2 MLOAD SWAP1 POP PUSH2 0x4766 DUP2 PUSH2 0x4742 JUMP JUMPDEST SWAP3 SWAP2 POP POP JUMP JUMPDEST PUSH0 PUSH2 0x477E PUSH2 0x4779 DUP5 PUSH2 0x4708 JUMP JUMPDEST PUSH2 0x3975 JUMP JUMPDEST SWAP1 POP DUP1 DUP4 DUP3 MSTORE PUSH1 0x20 DUP3 ADD SWAP1 POP PUSH1 0x20 DUP5 MUL DUP4 ADD DUP6 DUP2 GT ISZERO PUSH2 0x47A1 JUMPI PUSH2 0x47A0 PUSH2 0x3598 JUMP JUMPDEST JUMPDEST DUP4 JUMPDEST DUP2 DUP2 LT ISZERO PUSH2 0x47CA JUMPI DUP1 PUSH2 0x47B6 DUP9 DUP3 PUSH2 0x4758 JUMP JUMPDEST DUP5 MSTORE PUSH1 0x20 DUP5 ADD SWAP4 POP POP PUSH1 0x20 DUP2 ADD SWAP1 POP PUSH2 0x47A3 JUMP JUMPDEST POP POP POP SWAP4 SWAP3 POP POP POP JUMP JUMPDEST PUSH0 DUP3 PUSH1 0x1F DUP4 ADD SLT PUSH2 0x47E8 JUMPI PUSH2 0x47E7 PUSH2 0x3590 JUMP JUMPDEST JUMPDEST DUP2 MLOAD PUSH2 0x47F8 DUP5 DUP3 PUSH1 0x20 DUP7 ADD PUSH2 0x476C JUMP JUMPDEST SWAP2 POP POP SWAP3 SWAP2 POP POP JUMP JUMPDEST PUSH0 DUP1 PUSH0 DUP1 PUSH1 0x80 DUP6 DUP8 SUB SLT ISZERO PUSH2 0x4819 JUMPI PUSH2 0x4818 PUSH2 0x34A8 JUMP JUMPDEST JUMPDEST PUSH0 PUSH2 0x4826 DUP8 DUP3 DUP9 ADD PUSH2 0x40EB JUMP JUMPDEST SWAP5 POP POP PUSH1 0x20 DUP6 ADD MLOAD PUSH8 0xFFFFFFFFFFFFFFFF DUP2 GT ISZERO PUSH2 0x4847 JUMPI PUSH2 0x4846 PUSH2 0x34AC JUMP JUMPDEST JUMPDEST PUSH2 0x4853 DUP8 DUP3 DUP9 ADD PUSH2 0x46DB JUMP JUMPDEST SWAP4 POP POP PUSH1 0x40 DUP6 ADD MLOAD PUSH8 0xFFFFFFFFFFFFFFFF DUP2 GT ISZERO PUSH2 0x4874 JUMPI PUSH2 0x4873 PUSH2 0x34AC JUMP JUMPDEST JUMPDEST PUSH2 0x4880 DUP8 DUP3 DUP9 ADD PUSH2 0x47D4 JUMP JUMPDEST SWAP3 POP POP PUSH1 0x60 PUSH2 0x4891 DUP8 DUP3 DUP9 ADD PUSH2 0x40EB JUMP JUMPDEST SWAP2 POP POP SWAP3 SWAP6 SWAP2 SWAP5 POP SWAP3 POP JUMP JUMPDEST PUSH32 0x546F6B656E207472616E73666572206661696C65640000000000000000000000 PUSH0 DUP3 ADD MSTORE POP JUMP JUMPDEST PUSH0 PUSH2 0x48D1 PUSH1 0x15 DUP4 PUSH2 0x3DC1 JUMP JUMPDEST SWAP2 POP PUSH2 0x48DC DUP3 PUSH2 0x489D JUMP JUMPDEST PUSH1 0x20 DUP3 ADD SWAP1 POP SWAP2 SWAP1 POP JUMP JUMPDEST PUSH0 PUSH1 0x20 DUP3 ADD SWAP1 POP DUP2 DUP2 SUB PUSH0 DUP4 ADD MSTORE PUSH2 0x48FE DUP2 PUSH2 0x48C5 JUMP JUMPDEST SWAP1 POP SWAP2 SWAP1 POP JUMP JUMPDEST PUSH0 PUSH2 0x490F DUP3 PUSH2 0x355D JUMP JUMPDEST SWAP2 POP PUSH2 0x491A DUP4 PUSH2 0x355D JUMP JUMPDEST SWAP3 POP DUP3 DUP3 ADD SWAP1 POP DUP1 DUP3 GT ISZERO PUSH2 0x4932 JUMPI PUSH2 0x4931 PUSH2 0x412A JUMP JUMPDEST JUMPDEST SWAP3 SWAP2 POP POP JUMP JUMPDEST PUSH0 PUSH1 0xA0 DUP3 ADD SWAP1 POP PUSH2 0x494B PUSH0 DUP4 ADD DUP9 PUSH2 0x3803 JUMP JUMPDEST PUSH2 0x4958 PUSH1 0x20 DUP4 ADD DUP8 PUSH2 0x3803 JUMP JUMPDEST PUSH2 0x4965 PUSH1 0x40 DUP4 ADD DUP7 PUSH2 0x3803 JUMP JUMPDEST PUSH2 0x4972 PUSH1 0x60 DUP4 ADD DUP6 PUSH2 0x3803 JUMP JUMPDEST PUSH2 0x497F PUSH1 0x80 DUP4 ADD DUP5 PUSH2 0x3535 JUMP JUMPDEST SWAP7 SWAP6 POP POP POP POP POP POP JUMP JUMPDEST PUSH0 PUSH1 0x80 DUP3 ADD SWAP1 POP PUSH2 0x499C PUSH0 DUP4 ADD DUP8 PUSH2 0x3535 JUMP JUMPDEST PUSH2 0x49A9 PUSH1 0x20 DUP4 ADD DUP7 PUSH2 0x3535 JUMP JUMPDEST PUSH2 0x49B6 PUSH1 0x40 DUP4 ADD DUP6 PUSH2 0x3535 JUMP JUMPDEST PUSH2 0x49C3 PUSH1 0x60 DUP4 ADD DUP5 PUSH2 0x3803 JUMP JUMPDEST SWAP6 SWAP5 POP POP POP POP POP JUMP JUMPDEST PUSH0 DUP2 SWAP1 POP SWAP3 SWAP2 POP POP JUMP JUMPDEST PUSH0 PUSH2 0x49E0 DUP3 PUSH2 0x3AAD JUMP JUMPDEST PUSH2 0x49EA DUP2 DUP6 PUSH2 0x49CC JUMP JUMPDEST SWAP4 POP PUSH2 0x49FA DUP2 DUP6 PUSH1 0x20 DUP7 ADD PUSH2 0x3AC7 JUMP JUMPDEST DUP1 DUP5 ADD SWAP2 POP POP SWAP3 SWAP2 POP POP JUMP JUMPDEST PUSH0 PUSH2 0x4A11 DUP3 DUP5 PUSH2 0x49D6 JUMP JUMPDEST SWAP2 POP DUP2 SWAP1 POP SWAP3 SWAP2 POP POP JUMP JUMPDEST PUSH0 PUSH1 0x20 DUP3 DUP5 SUB SLT ISZERO PUSH2 0x4A31 JUMPI PUSH2 0x4A30 PUSH2 0x34A8 JUMP JUMPDEST JUMPDEST PUSH0 PUSH2 0x4A3E DUP5 DUP3 DUP6 ADD PUSH2 0x4277 JUMP JUMPDEST SWAP2 POP POP SWAP3 SWAP2 POP POP JUMP JUMPDEST PUSH32 0x4173736F6369617465204661696C656400000000000000000000000000000000 PUSH0 DUP3 ADD MSTORE POP JUMP JUMPDEST PUSH0 PUSH2 0x4A7B PUSH1 0x10 DUP4 PUSH2 0x3DC1 JUMP JUMPDEST SWAP2 POP PUSH2 0x4A86 DUP3 PUSH2 0x4A47 JUMP JUMPDEST PUSH1 0x20 DUP3 ADD SWAP1 POP SWAP2 SWAP1 POP JUMP JUMPDEST PUSH0 PUSH1 0x20 DUP3 ADD SWAP1 POP DUP2 DUP2 SUB PUSH0 DUP4 ADD MSTORE PUSH2 0x4AA8 DUP2 PUSH2 0x4A6F JUMP JUMPDEST SWAP1 POP SWAP2 SWAP1 POP JUMP JUMPDEST PUSH32 0x496E76616C696420696E64657800000000000000000000000000000000000000 PUSH0 DUP3 ADD MSTORE POP JUMP JUMPDEST PUSH0 PUSH2 0x4AE3 PUSH1 0xD DUP4 PUSH2 0x3DC1 JUMP JUMPDEST SWAP2 POP PUSH2 0x4AEE DUP3 PUSH2 0x4AAF JUMP JUMPDEST PUSH1 0x20 DUP3 ADD SWAP1 POP SWAP2 SWAP1 POP JUMP JUMPDEST PUSH0 PUSH1 0x20 DUP3 ADD SWAP1 POP DUP2 DUP2 SUB PUSH0 DUP4 ADD MSTORE PUSH2 0x4B10 DUP2 PUSH2 0x4AD7 JUMP JUMPDEST SWAP1 POP SWAP2 SWAP1 POP JUMP JUMPDEST PUSH32 0x4E487B7100000000000000000000000000000000000000000000000000000000 PUSH0 MSTORE PUSH1 0x32 PUSH1 0x4 MSTORE PUSH1 0x24 PUSH0 REVERT JUMPDEST PUSH32 0x416C72656164792077697468647261776E000000000000000000000000000000 PUSH0 DUP3 ADD MSTORE POP JUMP JUMPDEST PUSH0 PUSH2 0x4B78 PUSH1 0x11 DUP4 PUSH2 0x3DC1 JUMP JUMPDEST SWAP2 POP PUSH2 0x4B83 DUP3 PUSH2 0x4B44 JUMP JUMPDEST PUSH1 0x20 DUP3 ADD SWAP1 POP SWAP2 SWAP1 POP JUMP JUMPDEST PUSH0 PUSH1 0x20 DUP3 ADD SWAP1 POP DUP2 DUP2 SUB PUSH0 DUP4 ADD MSTORE PUSH2 0x4BA5 DUP2 PUSH2 0x4B6C JUMP JUMPDEST SWAP1 POP SWAP2 SWAP1 POP JUMP JUMPDEST PUSH32 0x496E73756666696369656E7420636F6E74726163742062616C616E6365000000 PUSH0 DUP3 ADD MSTORE POP JUMP JUMPDEST PUSH0 PUSH2 0x4BE0 PUSH1 0x1D DUP4 PUSH2 0x3DC1 JUMP JUMPDEST SWAP2 POP PUSH2 0x4BEB DUP3 PUSH2 0x4BAC JUMP JUMPDEST PUSH1 0x20 DUP3 ADD SWAP1 POP SWAP2 SWAP1 POP JUMP JUMPDEST PUSH0 PUSH1 0x20 DUP3 ADD SWAP1 POP DUP2 DUP2 SUB PUSH0 DUP4 ADD MSTORE PUSH2 0x4C0D DUP2 PUSH2 0x4BD4 JUMP JUMPDEST SWAP1 POP SWAP2 SWAP1 POP JUMP JUMPDEST POP JUMP JUMPDEST PUSH0 PUSH2 0x4C22 PUSH0 DUP4 PUSH2 0x49CC JUMP JUMPDEST SWAP2 POP PUSH2 0x4C2D DUP3 PUSH2 0x4C14 JUMP JUMPDEST PUSH0 DUP3 ADD SWAP1 POP SWAP2 SWAP1 POP JUMP JUMPDEST PUSH0 PUSH2 0x4C41 DUP3 PUSH2 0x4C17 JUMP JUMPDEST SWAP2 POP DUP2 SWAP1 POP SWAP2 SWAP1 POP JUMP JUMPDEST PUSH32 0x4661696C656420746F2073656E64204842415200000000000000000000000000 PUSH0 DUP3 ADD MSTORE POP JUMP JUMPDEST PUSH0 PUSH2 0x4C7F PUSH1 0x13 DUP4 PUSH2 0x3DC1 JUMP JUMPDEST SWAP2 POP PUSH2 0x4C8A DUP3 PUSH2 0x4C4B JUMP JUMPDEST PUSH1 0x20 DUP3 ADD SWAP1 POP SWAP2 SWAP1 POP JUMP JUMPDEST PUSH0 PUSH1 0x20 DUP3 ADD SWAP1 POP DUP2 DUP2 SUB PUSH0 DUP4 ADD MSTORE PUSH2 0x4CAC DUP2 PUSH2 0x4C73 JUMP JUMPDEST SWAP1 POP SWAP2 SWAP1 POP JUMP JUMPDEST PUSH32 0x546F6B656E207472616E73666572206261636B206661696C6564000000000000 PUSH0 DUP3 ADD MSTORE POP JUMP JUMPDEST PUSH0 PUSH2 0x4CE7 PUSH1 0x1A DUP4 PUSH2 0x3DC1 JUMP JUMPDEST SWAP2 POP PUSH2 0x4CF2 DUP3 PUSH2 0x4CB3 JUMP JUMPDEST PUSH1 0x20 DUP3 ADD SWAP1 POP SWAP2 SWAP1 POP JUMP JUMPDEST PUSH0 PUSH1 0x20 DUP3 ADD SWAP1 POP DUP2 DUP2 SUB PUSH0 DUP4 ADD MSTORE PUSH2 0x4D14 DUP2 PUSH2 0x4CDB JUMP JUMPDEST SWAP1 POP SWAP2 SWAP1 POP JUMP JUMPDEST PUSH32 0x4661696C656420746F20617070726F766520746F6B656E7320666F7220726F75 PUSH0 DUP3 ADD MSTORE PUSH32 0x7465720000000000000000000000000000000000000000000000000000000000 PUSH1 0x20 DUP3 ADD MSTORE POP JUMP JUMPDEST PUSH0 PUSH2 0x4D75 PUSH1 0x23 DUP4 PUSH2 0x3DC1 JUMP JUMPDEST SWAP2 POP PUSH2 0x4D80 DUP3 PUSH2 0x4D1B JUMP JUMPDEST PUSH1 0x40 DUP3 ADD SWAP1 POP SWAP2 SWAP1 POP JUMP JUMPDEST PUSH0 PUSH1 0x20 DUP3 ADD SWAP1 POP DUP2 DUP2 SUB PUSH0 DUP4 ADD MSTORE PUSH2 0x4DA2 DUP2 PUSH2 0x4D69 JUMP JUMPDEST SWAP1 POP SWAP2 SWAP1 POP JUMP JUMPDEST PUSH0 PUSH2 0x4DB3 DUP3 PUSH2 0x3AAD JUMP JUMPDEST PUSH2 0x4DBD DUP2 DUP6 PUSH2 0x3F8A JUMP JUMPDEST SWAP4 POP PUSH2 0x4DCD DUP2 DUP6 PUSH1 0x20 DUP7 ADD PUSH2 0x3AC7 JUMP JUMPDEST PUSH2 0x4DD6 DUP2 PUSH2 0x3907 JUMP JUMPDEST DUP5 ADD SWAP2 POP POP SWAP3 SWAP2 POP POP JUMP JUMPDEST PUSH2 0x4DEA DUP2 PUSH2 0x34CF JUMP JUMPDEST DUP3 MSTORE POP POP JUMP JUMPDEST PUSH2 0x4DF9 DUP2 PUSH2 0x355D JUMP JUMPDEST DUP3 MSTORE POP POP JUMP JUMPDEST PUSH0 PUSH1 0xA0 DUP4 ADD PUSH0 DUP4 ADD MLOAD DUP5 DUP3 SUB PUSH0 DUP7 ADD MSTORE PUSH2 0x4E19 DUP3 DUP3 PUSH2 0x4DA9 JUMP JUMPDEST SWAP2 POP POP PUSH1 0x20 DUP4 ADD MLOAD PUSH2 0x4E2E PUSH1 0x20 DUP7 ADD DUP3 PUSH2 0x4DE1 JUMP JUMPDEST POP PUSH1 0x40 DUP4 ADD MLOAD PUSH2 0x4E41 PUSH1 0x40 DUP7 ADD DUP3 PUSH2 0x4DF0 JUMP JUMPDEST POP PUSH1 0x60 DUP4 ADD MLOAD PUSH2 0x4E54 PUSH1 0x60 DUP7 ADD DUP3 PUSH2 0x4DF0 JUMP JUMPDEST POP PUSH1 0x80 DUP4 ADD MLOAD PUSH2 0x4E67 PUSH1 0x80 DUP7 ADD DUP3 PUSH2 0x4DF0 JUMP JUMPDEST POP DUP1 SWAP2 POP POP SWAP3 SWAP2 POP POP JUMP JUMPDEST PUSH0 PUSH1 0x20 DUP3 ADD SWAP1 POP DUP2 DUP2 SUB PUSH0 DUP4 ADD MSTORE PUSH2 0x4E8A DUP2 DUP5 PUSH2 0x4DFF JUMP JUMPDEST SWAP1 POP SWAP3 SWAP2 POP POP JUMP JUMPDEST PUSH0 PUSH1 0x40 DUP3 ADD SWAP1 POP PUSH2 0x4EA5 PUSH0 DUP4 ADD DUP6 PUSH2 0x3803 JUMP JUMPDEST PUSH2 0x4EB2 PUSH1 0x20 DUP4 ADD DUP5 PUSH2 0x3535 JUMP JUMPDEST SWAP4 SWAP3 POP POP POP JUMP JUMPDEST PUSH0 DUP2 MLOAD SWAP1 POP SWAP2 SWAP1 POP JUMP JUMPDEST PUSH0 DUP2 SWAP1 POP PUSH1 0x20 DUP3 ADD SWAP1 POP SWAP2 SWAP1 POP JUMP JUMPDEST PUSH0 PUSH2 0x4EDD DUP4 DUP4 PUSH2 0x4DA9 JUMP JUMPDEST SWAP1 POP SWAP3 SWAP2 POP POP JUMP JUMPDEST PUSH0 PUSH1 0x20 DUP3 ADD SWAP1 POP SWAP2 SWAP1 POP JUMP JUMPDEST PUSH0 PUSH2 0x4EFB DUP3 PUSH2 0x4EB9 JUMP JUMPDEST PUSH2 0x4F05 DUP2 DUP6 PUSH2 0x3F71 JUMP JUMPDEST SWAP4 POP DUP4 PUSH1 0x20 DUP3 MUL DUP6 ADD PUSH2 0x4F17 DUP6 PUSH2 0x4EC3 JUMP JUMPDEST DUP1 PUSH0 JUMPDEST DUP6 DUP2 LT ISZERO PUSH2 0x4F52 JUMPI DUP5 DUP5 SUB DUP10 MSTORE DUP2 MLOAD PUSH2 0x4F33 DUP6 DUP3 PUSH2 0x4ED2 JUMP JUMPDEST SWAP5 POP PUSH2 0x4F3E DUP4 PUSH2 0x4EE5 JUMP JUMPDEST SWAP3 POP PUSH1 0x20 DUP11 ADD SWAP10 POP POP PUSH1 0x1 DUP2 ADD SWAP1 POP PUSH2 0x4F1A JUMP JUMPDEST POP DUP3 SWAP8 POP DUP8 SWAP6 POP POP POP POP POP POP SWAP3 SWAP2 POP POP JUMP JUMPDEST PUSH0 PUSH1 0x20 DUP3 ADD SWAP1 POP DUP2 DUP2 SUB PUSH0 DUP4 ADD MSTORE PUSH2 0x4F7C DUP2 DUP5 PUSH2 0x4EF1 JUMP JUMPDEST SWAP1 POP SWAP3 SWAP2 POP POP JUMP JUMPDEST PUSH0 PUSH8 0xFFFFFFFFFFFFFFFF DUP3 GT ISZERO PUSH2 0x4F9E JUMPI PUSH2 0x4F9D PUSH2 0x3917 JUMP JUMPDEST JUMPDEST PUSH1 0x20 DUP3 MUL SWAP1 POP PUSH1 0x20 DUP2 ADD SWAP1 POP SWAP2 SWAP1 POP JUMP JUMPDEST PUSH0 PUSH2 0x4FC1 PUSH2 0x4FBC DUP5 PUSH2 0x398F JUMP JUMPDEST PUSH2 0x3975 JUMP JUMPDEST SWAP1 POP DUP3 DUP2 MSTORE PUSH1 0x20 DUP2 ADD DUP5 DUP5 DUP5 ADD GT ISZERO PUSH2 0x4FDD JUMPI PUSH2 0x4FDC PUSH2 0x3903 JUMP JUMPDEST JUMPDEST PUSH2 0x4FE8 DUP5 DUP3 DUP6 PUSH2 0x3AC7 JUMP JUMPDEST POP SWAP4 SWAP3 POP POP POP JUMP JUMPDEST PUSH0 DUP3 PUSH1 0x1F DUP4 ADD SLT PUSH2 0x5004 JUMPI PUSH2 0x5003 PUSH2 0x3590 JUMP JUMPDEST JUMPDEST DUP2 MLOAD PUSH2 0x5014 DUP5 DUP3 PUSH1 0x20 DUP7 ADD PUSH2 0x4FAF JUMP JUMPDEST SWAP2 POP POP SWAP3 SWAP2 POP POP JUMP JUMPDEST PUSH0 PUSH2 0x502F PUSH2 0x502A DUP5 PUSH2 0x4F84 JUMP JUMPDEST PUSH2 0x3975 JUMP JUMPDEST SWAP1 POP DUP1 DUP4 DUP3 MSTORE PUSH1 0x20 DUP3 ADD SWAP1 POP PUSH1 0x20 DUP5 MUL DUP4 ADD DUP6 DUP2 GT ISZERO PUSH2 0x5052 JUMPI PUSH2 0x5051 PUSH2 0x3598 JUMP JUMPDEST JUMPDEST DUP4 JUMPDEST DUP2 DUP2 LT ISZERO PUSH2 0x5099 JUMPI DUP1 MLOAD PUSH8 0xFFFFFFFFFFFFFFFF DUP2 GT ISZERO PUSH2 0x5077 JUMPI PUSH2 0x5076 PUSH2 0x3590 JUMP JUMPDEST JUMPDEST DUP1 DUP7 ADD PUSH2 0x5084 DUP10 DUP3 PUSH2 0x4FF0 JUMP JUMPDEST DUP6 MSTORE PUSH1 0x20 DUP6 ADD SWAP5 POP POP POP PUSH1 0x20 DUP2 ADD SWAP1 POP PUSH2 0x5054 JUMP JUMPDEST POP POP POP SWAP4 SWAP3 POP POP POP JUMP JUMPDEST PUSH0 DUP3 PUSH1 0x1F DUP4 ADD SLT PUSH2 0x50B7 JUMPI PUSH2 0x50B6 PUSH2 0x3590 JUMP JUMPDEST JUMPDEST DUP2 MLOAD PUSH2 0x50C7 DUP5 DUP3 PUSH1 0x20 DUP7 ADD PUSH2 0x501D JUMP JUMPDEST SWAP2 POP POP SWAP3 SWAP2 POP POP JUMP JUMPDEST PUSH0 PUSH1 0x20 DUP3 DUP5 SUB SLT ISZERO PUSH2 0x50E5 JUMPI PUSH2 0x50E4 PUSH2 0x34A8 JUMP JUMPDEST JUMPDEST PUSH0 DUP3 ADD MLOAD PUSH8 0xFFFFFFFFFFFFFFFF DUP2 GT ISZERO PUSH2 0x5102 JUMPI PUSH2 0x5101 PUSH2 0x34AC JUMP JUMPDEST JUMPDEST PUSH2 0x510E DUP5 DUP3 DUP6 ADD PUSH2 0x50A3 JUMP JUMPDEST SWAP2 POP POP SWAP3 SWAP2 POP POP JUMP JUMPDEST PUSH0 PUSH1 0x80 DUP3 ADD SWAP1 POP PUSH2 0x512A PUSH0 DUP4 ADD DUP8 PUSH2 0x3803 JUMP JUMPDEST PUSH2 0x5137 PUSH1 0x20 DUP4 ADD DUP7 PUSH2 0x3803 JUMP JUMPDEST PUSH2 0x5144 PUSH1 0x40 DUP4 ADD DUP6 PUSH2 0x3886 JUMP JUMPDEST PUSH2 0x5151 PUSH1 0x60 DUP4 ADD DUP5 PUSH2 0x3803 JUMP JUMPDEST SWAP6 SWAP5 POP POP POP POP POP JUMP JUMPDEST PUSH32 0x45706F6368206475726174696F6E206D757374206265203E2030000000000000 PUSH0 DUP3 ADD MSTORE POP JUMP JUMPDEST PUSH0 PUSH2 0x518E PUSH1 0x1A DUP4 PUSH2 0x3DC1 JUMP JUMPDEST SWAP2 POP PUSH2 0x5199 DUP3 PUSH2 0x515A JUMP JUMPDEST PUSH1 0x20 DUP3 ADD SWAP1 POP SWAP2 SWAP1 POP JUMP JUMPDEST PUSH0 PUSH1 0x20 DUP3 ADD SWAP1 POP DUP2 DUP2 SUB PUSH0 DUP4 ADD MSTORE PUSH2 0x51BB DUP2 PUSH2 0x5182 JUMP JUMPDEST SWAP1 POP SWAP2 SWAP1 POP JUMP JUMPDEST PUSH32 0x466565732063616E6E6F74206265203000000000000000000000000000000000 PUSH0 DUP3 ADD MSTORE POP JUMP JUMPDEST PUSH0 PUSH2 0x51F6 PUSH1 0x10 DUP4 PUSH2 0x3DC1 JUMP JUMPDEST SWAP2 POP PUSH2 0x5201 DUP3 PUSH2 0x51C2 JUMP JUMPDEST PUSH1 0x20 DUP3 ADD SWAP1 POP SWAP2 SWAP1 POP JUMP JUMPDEST PUSH0 PUSH1 0x20 DUP3 ADD SWAP1 POP DUP2 DUP2 SUB PUSH0 DUP4 ADD MSTORE PUSH2 0x5223 DUP2 PUSH2 0x51EA JUMP JUMPDEST SWAP1 POP SWAP2 SWAP1 POP JUMP JUMPDEST PUSH0 PUSH1 0x40 DUP3 ADD SWAP1 POP PUSH2 0x523D PUSH0 DUP4 ADD DUP6 PUSH2 0x3535 JUMP JUMPDEST DUP2 DUP2 SUB PUSH1 0x20 DUP4 ADD MSTORE PUSH2 0x524F DUP2 DUP5 PUSH2 0x3AD5 JUMP JUMPDEST SWAP1 POP SWAP4 SWAP3 POP POP POP JUMP JUMPDEST PUSH0 PUSH1 0x40 DUP3 ADD SWAP1 POP PUSH2 0x526B PUSH0 DUP4 ADD DUP6 PUSH2 0x3886 JUMP JUMPDEST DUP2 DUP2 SUB PUSH1 0x20 DUP4 ADD MSTORE PUSH2 0x527D DUP2 DUP5 PUSH2 0x3AD5 JUMP JUMPDEST SWAP1 POP SWAP4 SWAP3 POP POP POP JUMP JUMPDEST PUSH32 0x50656E616C747920726174652065786365656473203130302500000000000000 PUSH0 DUP3 ADD MSTORE POP JUMP JUMPDEST PUSH0 PUSH2 0x52BA PUSH1 0x19 DUP4 PUSH2 0x3DC1 JUMP JUMPDEST SWAP2 POP PUSH2 0x52C5 DUP3 PUSH2 0x5286 JUMP JUMPDEST PUSH1 0x20 DUP3 ADD SWAP1 POP SWAP2 SWAP1 POP JUMP JUMPDEST PUSH0 PUSH1 0x20 DUP3 ADD SWAP1 POP DUP2 DUP2 SUB PUSH0 DUP4 ADD MSTORE PUSH2 0x52E7 DUP2 PUSH2 0x52AE JUMP JUMPDEST SWAP1 POP SWAP2 SWAP1 POP JUMP JUMPDEST PUSH32 0x4E6F20616374697665207374616B657300000000000000000000000000000000 PUSH0 DUP3 ADD MSTORE POP JUMP JUMPDEST PUSH0 PUSH2 0x5322 PUSH1 0x10 DUP4 PUSH2 0x3DC1 JUMP JUMPDEST SWAP2 POP PUSH2 0x532D DUP3 PUSH2 0x52EE JUMP JUMPDEST PUSH1 0x20 DUP3 ADD SWAP1 POP SWAP2 SWAP1 POP JUMP JUMPDEST PUSH0 PUSH1 0x20 DUP3 ADD SWAP1 POP DUP2 DUP2 SUB PUSH0 DUP4 ADD MSTORE PUSH2 0x534F DUP2 PUSH2 0x5316 JUMP JUMPDEST SWAP1 POP SWAP2 SWAP1 POP JUMP JUMPDEST PUSH32 0x48424152207472616E73666572206661696C6564000000000000000000000000 PUSH0 DUP3 ADD MSTORE POP JUMP JUMPDEST PUSH0 PUSH2 0x538A PUSH1 0x14 DUP4 PUSH2 0x3DC1 JUMP JUMPDEST SWAP2 POP PUSH2 0x5395 DUP3 PUSH2 0x5356 JUMP JUMPDEST PUSH1 0x20 DUP3 ADD SWAP1 POP SWAP2 SWAP1 POP JUMP JUMPDEST PUSH0 PUSH1 0x20 DUP3 ADD SWAP1 POP DUP2 DUP2 SUB PUSH0 DUP4 ADD MSTORE PUSH2 0x53B7 DUP2 PUSH2 0x537E JUMP JUMPDEST SWAP1 POP SWAP2 SWAP1 POP JUMP JUMPDEST PUSH32 0x6D696E206D757374206265203C206D6178000000000000000000000000000000 PUSH0 DUP3 ADD MSTORE POP JUMP JUMPDEST PUSH0 PUSH2 0x53F2 PUSH1 0x11 DUP4 PUSH2 0x3DC1 JUMP JUMPDEST SWAP2 POP PUSH2 0x53FD DUP3 PUSH2 0x53BE JUMP JUMPDEST PUSH1 0x20 DUP3 ADD SWAP1 POP SWAP2 SWAP1 POP JUMP JUMPDEST PUSH0 PUSH1 0x20 DUP3 ADD SWAP1 POP DUP2 DUP2 SUB PUSH0 DUP4 ADD MSTORE PUSH2 0x541F DUP2 PUSH2 0x53E6 JUMP JUMPDEST SWAP1 POP SWAP2 SWAP1 POP JUMP JUMPDEST PUSH32 0x416C72656164792066696E616C697A6564000000000000000000000000000000 PUSH0 DUP3 ADD MSTORE POP JUMP JUMPDEST PUSH0 PUSH2 0x545A PUSH1 0x11 DUP4 PUSH2 0x3DC1 JUMP JUMPDEST SWAP2 POP PUSH2 0x5465 DUP3 PUSH2 0x5426 JUMP JUMPDEST PUSH1 0x20 DUP3 ADD SWAP1 POP SWAP2 SWAP1 POP JUMP JUMPDEST PUSH0 PUSH1 0x20 DUP3 ADD SWAP1 POP DUP2 DUP2 SUB PUSH0 DUP4 ADD MSTORE PUSH2 0x5487 DUP2 PUSH2 0x544E JUMP JUMPDEST SWAP1 POP SWAP2 SWAP1 POP JUMP JUMPDEST PUSH32 0x45706F6368206E6F7420656E6465640000000000000000000000000000000000 PUSH0 DUP3 ADD MSTORE POP JUMP JUMPDEST PUSH0 PUSH2 0x54C2 PUSH1 0xF DUP4 PUSH2 0x3DC1 JUMP JUMPDEST SWAP2 POP PUSH2 0x54CD DUP3 PUSH2 0x548E JUMP JUMPDEST PUSH1 0x20 DUP3 ADD SWAP1 POP SWAP2 SWAP1 POP JUMP JUMPDEST PUSH0 PUSH1 0x20 DUP3 ADD SWAP1 POP DUP2 DUP2 SUB PUSH0 DUP4 ADD MSTORE PUSH2 0x54EF DUP2 PUSH2 0x54B6 JUMP JUMPDEST SWAP1 POP SWAP2 SWAP1 POP JUMP JUMPDEST PUSH0 PUSH1 0x60 DUP3 ADD SWAP1 POP PUSH2 0x5509 PUSH0 DUP4 ADD DUP7 PUSH2 0x3803 JUMP JUMPDEST PUSH2 0x5516 PUSH1 0x20 DUP4 ADD DUP6 PUSH2 0x3803 JUMP JUMPDEST PUSH2 0x5523 PUSH1 0x40 DUP4 ADD DUP5 PUSH2 0x3803 JUMP JUMPDEST SWAP5 SWAP4 POP POP POP POP JUMP JUMPDEST PUSH32 0x50726576696F75732065706F6368206E6F742066696E616C697A656400000000 PUSH0 DUP3 ADD MSTORE POP JUMP JUMPDEST PUSH0 PUSH2 0x555F PUSH1 0x1C DUP4 PUSH2 0x3DC1 JUMP JUMPDEST SWAP2 POP PUSH2 0x556A DUP3 PUSH2 0x552B JUMP JUMPDEST PUSH1 0x20 DUP3 ADD SWAP1 POP SWAP2 SWAP1 POP JUMP JUMPDEST PUSH0 PUSH1 0x20 DUP3 ADD SWAP1 POP DUP2 DUP2 SUB PUSH0 DUP4 ADD MSTORE PUSH2 0x558C DUP2 PUSH2 0x5553 JUMP JUMPDEST SWAP1 POP SWAP2 SWAP1 POP JUMP JUMPDEST PUSH0 PUSH1 0x40 DUP3 ADD SWAP1 POP PUSH2 0x55A6 PUSH0 DUP4 ADD DUP6 PUSH2 0x3803 JUMP JUMPDEST PUSH2 0x55B3 PUSH1 0x20 DUP4 ADD DUP5 PUSH2 0x3803 JUMP JUMPDEST SWAP4 SWAP3 POP POP POP JUMP JUMPDEST PUSH0 DUP2 PUSH1 0x60 SHL SWAP1 POP SWAP2 SWAP1 POP JUMP JUMPDEST PUSH0 PUSH2 0x55D0 DUP3 PUSH2 0x55BA JUMP JUMPDEST SWAP1 POP SWAP2 SWAP1 POP JUMP JUMPDEST PUSH0 PUSH2 0x55E1 DUP3 PUSH2 0x55C6 JUMP JUMPDEST SWAP1 POP SWAP2 SWAP1 POP JUMP JUMPDEST PUSH2 0x55F9 PUSH2 0x55F4 DUP3 PUSH2 0x34CF JUMP JUMPDEST PUSH2 0x55D7 JUMP JUMPDEST DUP3 MSTORE POP POP JUMP JUMPDEST PUSH0 DUP2 PUSH1 0xE8 SHL SWAP1 POP SWAP2 SWAP1 POP JUMP JUMPDEST PUSH0 PUSH2 0x5615 DUP3 PUSH2 0x55FF JUMP JUMPDEST SWAP1 POP SWAP2 SWAP1 POP JUMP JUMPDEST PUSH2 0x562D PUSH2 0x5628 DUP3 PUSH2 0x377B JUMP JUMPDEST PUSH2 0x560B JUMP JUMPDEST DUP3 MSTORE POP POP JUMP JUMPDEST PUSH0 PUSH2 0x563E DUP3 DUP7 PUSH2 0x55E8 JUMP JUMPDEST PUSH1 0x14 DUP3 ADD SWAP2 POP PUSH2 0x564E DUP3 DUP6 PUSH2 0x561C JUMP JUMPDEST PUSH1 0x3 DUP3 ADD SWAP2 POP PUSH2 0x565E DUP3 DUP5 PUSH2 0x55E8 JUMP JUMPDEST PUSH1 0x14 DUP3 ADD SWAP2 POP DUP2 SWAP1 POP SWAP5 SWAP4 POP POP POP POP JUMP JUMPDEST PUSH0 PUSH1 0x80 DUP3 ADD SWAP1 POP PUSH2 0x5682 PUSH0 DUP4 ADD DUP8 PUSH2 0x3535 JUMP JUMPDEST PUSH2 0x568F PUSH1 0x20 DUP4 ADD DUP7 PUSH2 0x3535 JUMP JUMPDEST PUSH2 0x569C PUSH1 0x40 DUP4 ADD DUP6 PUSH2 0x3535 JUMP JUMPDEST PUSH2 0x56A9 PUSH1 0x60 DUP4 ADD DUP5 PUSH2 0x36F7 JUMP JUMPDEST SWAP6 SWAP5 POP POP POP POP POP JUMP JUMPDEST PUSH0 PUSH1 0x40 DUP3 ADD SWAP1 POP PUSH2 0x56C5 PUSH0 DUP4 ADD DUP6 PUSH2 0x3535 JUMP JUMPDEST PUSH2 0x56D2 PUSH1 0x20 DUP4 ADD DUP5 PUSH2 0x3535 JUMP JUMPDEST SWAP4 SWAP3 POP POP POP JUMP JUMPDEST PUSH32 0x56616C7565206578636565647320696E743634206D6178000000000000000000 PUSH0 DUP3 ADD MSTORE POP JUMP JUMPDEST PUSH0 PUSH2 0x570D PUSH1 0x17 DUP4 PUSH2 0x3DC1 JUMP JUMPDEST SWAP2 POP PUSH2 0x5718 DUP3 PUSH2 0x56D9 JUMP JUMPDEST PUSH1 0x20 DUP3 ADD SWAP1 POP SWAP2 SWAP1 POP JUMP JUMPDEST PUSH0 PUSH1 0x20 DUP3 ADD SWAP1 POP DUP2 DUP2 SUB PUSH0 DUP4 ADD MSTORE PUSH2 0x573A DUP2 PUSH2 0x5701 JUMP JUMPDEST SWAP1 POP SWAP2 SWAP1 POP JUMP JUMPDEST PUSH0 PUSH1 0x60 DUP3 ADD SWAP1 POP PUSH2 0x5754 PUSH0 DUP4 ADD DUP7 PUSH2 0x3535 JUMP JUMPDEST PUSH2 0x5761 PUSH1 0x20 DUP4 ADD DUP6 PUSH2 0x3535 JUMP JUMPDEST PUSH2 0x576E PUSH1 0x40 DUP4 ADD DUP5 PUSH2 0x3803 JUMP JUMPDEST SWAP5 SWAP4 POP POP POP POP JUMP INVALID LOG2 PUSH5 0x6970667358 0x22 SLT KECCAK256 PREVRANDAO 0xEE 0xC7 PUSH24 0xC848BEC5D7BC79A91C359ABB603B54EBBEFEF42A3A9B21F6 0xE 0xA5 PUSH1 0x23 PUSH5 0x736F6C6343 STOP ADDMOD BYTE STOP CALLER "
		},
		"gasEstimates": {
			"creation": {
				"codeDepositCost": "4488800",
				"executionCost": "infinite",
				"totalCost": "infinite"
			},
			"external": {
				"": "219",
				"claimReward()": "infinite",
				"epochClaimed(uint256,address,uint256)": "infinite",
				"epochDuration()": "2471",
				"epochId()": "2492",
				"epochs(uint256)": "infinite",
				"fees(address,address)": "infinite",
				"hbarUsdPriceId()": "2537",
				"maxStakeDuration()": "2558",
				"minStakeDuration()": "2470",
				"owner()": "2561",
				"penaltyRate()": "2536",
				"pyth()": "infinite",
				"quoterV2()": "infinite",
				"redirectForToken(address,bytes)": "infinite",
				"renounceOwnership()": "infinite",
				"saucerSwapV2Router()": "infinite",
				"saucerSwapV2RouterAddress()": "2597",
				"setEpochDuration(uint256)": "infinite",
				"setFees(address,address,uint24)": "infinite",
				"setHbarUsdPriceId(bytes32)": "infinite",
				"setPenaltyRate(uint256)": "infinite",
				"setPyth(address)": "infinite",
				"setQuoterV2(address)": "infinite",
				"setSaucerSwapV2Router(address)": "infinite",
				"setStakeDurationBounds(uint256,uint256)": "infinite",
				"setUsdcAddress(address)": "infinite",
				"setWhbarAddress(address)": "infinite",
				"stake(address,uint256,uint256,uint256,bytes[])": "infinite",
				"tokenAssociate(address)": "infinite",
				"totalStaked(address)": "2914",
				"transferFrom(address,address,address,uint256)": "infinite",
				"transferFromNFT(address,address,address,uint256)": "infinite",
				"transferOwnership(address)": "infinite",
				"usdcAddress()": "2577",
				"userStakes(address,uint256)": "infinite",
				"whbarAddress()": "2576",
				"withdraw(uint256)": "infinite"
			},
			"internal": {
				"_calculateBoostedShares(uint256,uint256)": "infinite",
				"_finalizeEpoch()": "infinite",
				"_startNewEpoch()": "infinite",
				"buildPath(address,uint24,address)": "infinite",
				"safeCastToInt64(uint256)": "infinite"
			}
		},
		"methodIdentifiers": {
			"claimReward()": "b88a802f",
			"epochClaimed(uint256,address,uint256)": "56fdfc57",
			"epochDuration()": "4ff0876a",
			"epochId()": "aa9bbc0c",
			"epochs(uint256)": "c6b61e4c",
			"fees(address,address)": "9b9ac2cb",
			"hbarUsdPriceId()": "4a9138c6",
			"maxStakeDuration()": "76f70003",
			"minStakeDuration()": "5fec5c64",
			"owner()": "8da5cb5b",
			"penaltyRate()": "d6b7494f",
			"pyth()": "f98d06f0",
			"quoterV2()": "e20dccb2",
			"redirectForToken(address,bytes)": "618dc65e",
			"renounceOwnership()": "715018a6",
			"saucerSwapV2Router()": "ee1da7c2",
			"saucerSwapV2RouterAddress()": "abd10b10",
			"setEpochDuration(uint256)": "30024dfe",
			"setFees(address,address,uint24)": "4d7098ef",
			"setHbarUsdPriceId(bytes32)": "587b47b0",
			"setPenaltyRate(uint256)": "a1bab447",
			"setPyth(address)": "ee22fd6f",
			"setQuoterV2(address)": "61e7bc12",
			"setSaucerSwapV2Router(address)": "be7b26aa",
			"setStakeDurationBounds(uint256,uint256)": "d8990c11",
			"setUsdcAddress(address)": "d38bcdee",
			"setWhbarAddress(address)": "015e358d",
			"stake(address,uint256,uint256,uint256,bytes[])": "09716dee",
			"tokenAssociate(address)": "1a2a5e15",
			"totalStaked(address)": "9bfd8d61",
			"transferFrom(address,address,address,uint256)": "15dacbea",
			"transferFromNFT(address,address,address,uint256)": "9b23d3d9",
			"transferOwnership(address)": "f2fde38b",
			"usdcAddress()": "02d45457",
			"userStakes(address,uint256)": "b5d5b5fa",
			"whbarAddress()": "500f6e14",
			"withdraw(uint256)": "2e1a7d4d"
		}
	},
	"abi": [
		{
			"inputs": [
				{
					"internalType": "address",
					"name": "_pyth",
					"type": "address"
				},
				{
					"internalType": "address",
					"name": "quoterV2Address",
					"type": "address"
				},
				{
					"internalType": "address",
					"name": "_saucerSwapV2RouterAddress",
					"type": "address"
				},
				{
					"internalType": "bytes32",
					"name": "_hbarUsdPriceId",
					"type": "bytes32"
				}
			],
			"stateMutability": "nonpayable",
			"type": "constructor"
		},
		{
			"inputs": [
				{
					"internalType": "address",
					"name": "owner",
					"type": "address"
				}
			],
			"name": "OwnableInvalidOwner",
			"type": "error"
		},
		{
			"inputs": [
				{
					"internalType": "address",
					"name": "account",
					"type": "address"
				}
			],
			"name": "OwnableUnauthorizedAccount",
			"type": "error"
		},
		{
			"inputs": [],
			"name": "ReentrancyGuardReentrantCall",
			"type": "error"
		},
		{
			"anonymous": false,
			"inputs": [
				{
					"indexed": true,
					"internalType": "address",
					"name": "user",
					"type": "address"
				},
				{
					"indexed": false,
					"internalType": "uint256",
					"name": "stakeIndex",
					"type": "uint256"
				},
				{
					"indexed": false,
					"internalType": "uint256",
					"name": "boostAmount",
					"type": "uint256"
				},
				{
					"indexed": false,
					"internalType": "uint256",
					"name": "newRewardPercent",
					"type": "uint256"
				}
			],
			"name": "BoostUsed",
			"type": "event"
		},
		{
			"anonymous": false,
			"inputs": [
				{
					"indexed": false,
					"internalType": "bool",
					"name": "",
					"type": "bool"
				},
				{
					"indexed": false,
					"internalType": "bytes",
					"name": "",
					"type": "bytes"
				}
			],
			"name": "CallResponseEvent",
			"type": "event"
		},
		{
			"anonymous": false,
			"inputs": [
				{
					"indexed": true,
					"internalType": "uint256",
					"name": "epochId",
					"type": "uint256"
				},
				{
					"indexed": false,
					"internalType": "uint256",
					"name": "totalReward",
					"type": "uint256"
				},
				{
					"indexed": false,
					"internalType": "uint256",
					"name": "totalRewardShares",
					"type": "uint256"
				},
				{
					"indexed": false,
					"internalType": "uint256",
					"name": "rewardPerShare",
					"type": "uint256"
				}
			],
			"name": "EpochFinalized",
			"type": "event"
		},
		{
			"anonymous": false,
			"inputs": [
				{
					"indexed": true,
					"internalType": "uint256",
					"name": "epochId",
					"type": "uint256"
				},
				{
					"indexed": false,
					"internalType": "uint256",
					"name": "startTime",
					"type": "uint256"
				},
				{
					"indexed": false,
					"internalType": "uint256",
					"name": "endTime",
					"type": "uint256"
				}
			],
			"name": "EpochStarted",
			"type": "event"
		},
		{
			"anonymous": false,
			"inputs": [
				{
					"indexed": true,
					"internalType": "address",
					"name": "previousOwner",
					"type": "address"
				},
				{
					"indexed": true,
					"internalType": "address",
					"name": "newOwner",
					"type": "address"
				}
			],
			"name": "OwnershipTransferred",
			"type": "event"
		},
		{
			"anonymous": false,
			"inputs": [
				{
					"indexed": true,
					"internalType": "address",
					"name": "user",
					"type": "address"
				},
				{
					"indexed": false,
					"internalType": "uint256",
					"name": "totalReward",
					"type": "uint256"
				}
			],
			"name": "RewardClaimed",
			"type": "event"
		},
		{
			"anonymous": false,
			"inputs": [
				{
					"indexed": true,
					"internalType": "address",
					"name": "user",
					"type": "address"
				},
				{
					"indexed": false,
					"internalType": "uint256",
					"name": "amount",
					"type": "uint256"
				},
				{
					"indexed": false,
					"internalType": "uint256",
					"name": "startTime",
					"type": "uint256"
				},
				{
					"indexed": false,
					"internalType": "uint256",
					"name": "endTime",
					"type": "uint256"
				},
				{
					"indexed": false,
					"internalType": "uint256",
					"name": "stakeIndex",
					"type": "uint256"
				},
				{
					"indexed": false,
					"internalType": "address",
					"name": "tokenId",
					"type": "address"
				}
			],
			"name": "Staked",
			"type": "event"
		},
		{
			"anonymous": false,
			"inputs": [
				{
					"indexed": false,
					"internalType": "address",
					"name": "tokenId",
					"type": "address"
				}
			],
			"name": "TokenAssociated",
			"type": "event"
		},
		{
			"anonymous": false,
			"inputs": [
				{
					"indexed": true,
					"internalType": "address",
					"name": "user",
					"type": "address"
				},
				{
					"indexed": false,
					"internalType": "uint256",
					"name": "stakeIndex",
					"type": "uint256"
				},
				{
					"indexed": false,
					"internalType": "uint256",
					"name": "amount",
					"type": "uint256"
				},
				{
					"indexed": false,
					"internalType": "bool",
					"name": "early",
					"type": "bool"
				},
				{
					"indexed": false,
					"internalType": "uint256",
					"name": "penalty",
					"type": "uint256"
				}
			],
			"name": "Withdrawn",
			"type": "event"
		},
		{
			"stateMutability": "payable",
			"type": "fallback"
		},
		{
			"inputs": [],
			"name": "claimReward",
			"outputs": [],
			"stateMutability": "nonpayable",
			"type": "function"
		},
		{
			"inputs": [
				{
					"internalType": "uint256",
					"name": "",
					"type": "uint256"
				},
				{
					"internalType": "address",
					"name": "",
					"type": "address"
				},
				{
					"internalType": "uint256",
					"name": "",
					"type": "uint256"
				}
			],
			"name": "epochClaimed",
			"outputs": [
				{
					"internalType": "bool",
					"name": "",
					"type": "bool"
				}
			],
			"stateMutability": "view",
			"type": "function"
		},
		{
			"inputs": [],
			"name": "epochDuration",
			"outputs": [
				{
					"internalType": "uint256",
					"name": "",
					"type": "uint256"
				}
			],
			"stateMutability": "view",
			"type": "function"
		},
		{
			"inputs": [],
			"name": "epochId",
			"outputs": [
				{
					"internalType": "uint256",
					"name": "",
					"type": "uint256"
				}
			],
			"stateMutability": "view",
			"type": "function"
		},
		{
			"inputs": [
				{
					"internalType": "uint256",
					"name": "",
					"type": "uint256"
				}
			],
			"name": "epochs",
			"outputs": [
				{
					"internalType": "uint256",
					"name": "startTime",
					"type": "uint256"
				},
				{
					"internalType": "uint256",
					"name": "endTime",
					"type": "uint256"
				},
				{
					"internalType": "uint256",
					"name": "totalReward",
					"type": "uint256"
				},
				{
					"internalType": "uint256",
					"name": "totalRewardShares",
					"type": "uint256"
				},
				{
					"internalType": "uint256",
					"name": "rewardPerShare",
					"type": "uint256"
				},
				{
					"internalType": "bool",
					"name": "finalized",
					"type": "bool"
				}
			],
			"stateMutability": "view",
			"type": "function"
		},
		{
			"inputs": [
				{
					"internalType": "address",
					"name": "",
					"type": "address"
				},
				{
					"internalType": "address",
					"name": "",
					"type": "address"
				}
			],
			"name": "fees",
			"outputs": [
				{
					"internalType": "uint24",
					"name": "",
					"type": "uint24"
				}
			],
			"stateMutability": "view",
			"type": "function"
		},
		{
			"inputs": [],
			"name": "hbarUsdPriceId",
			"outputs": [
				{
					"internalType": "bytes32",
					"name": "",
					"type": "bytes32"
				}
			],
			"stateMutability": "view",
			"type": "function"
		},
		{
			"inputs": [],
			"name": "maxStakeDuration",
			"outputs": [
				{
					"internalType": "uint256",
					"name": "",
					"type": "uint256"
				}
			],
			"stateMutability": "view",
			"type": "function"
		},
		{
			"inputs": [],
			"name": "minStakeDuration",
			"outputs": [
				{
					"internalType": "uint256",
					"name": "",
					"type": "uint256"
				}
			],
			"stateMutability": "view",
			"type": "function"
		},
		{
			"inputs": [],
			"name": "owner",
			"outputs": [
				{
					"internalType": "address",
					"name": "",
					"type": "address"
				}
			],
			"stateMutability": "view",
			"type": "function"
		},
		{
			"inputs": [],
			"name": "penaltyRate",
			"outputs": [
				{
					"internalType": "uint256",
					"name": "",
					"type": "uint256"
				}
			],
			"stateMutability": "view",
			"type": "function"
		},
		{
			"inputs": [],
			"name": "pyth",
			"outputs": [
				{
					"internalType": "contract IPyth",
					"name": "",
					"type": "address"
				}
			],
			"stateMutability": "view",
			"type": "function"
		},
		{
			"inputs": [],
			"name": "quoterV2",
			"outputs": [
				{
					"internalType": "contract IQuoterV2",
					"name": "",
					"type": "address"
				}
			],
			"stateMutability": "view",
			"type": "function"
		},
		{
			"inputs": [
				{
					"internalType": "address",
					"name": "token",
					"type": "address"
				},
				{
					"internalType": "bytes",
					"name": "encodedFunctionSelector",
					"type": "bytes"
				}
			],
			"name": "redirectForToken",
			"outputs": [
				{
					"internalType": "int256",
					"name": "responseCode",
					"type": "int256"
				},
				{
					"internalType": "bytes",
					"name": "response",
					"type": "bytes"
				}
			],
			"stateMutability": "nonpayable",
			"type": "function"
		},
		{
			"inputs": [],
			"name": "renounceOwnership",
			"outputs": [],
			"stateMutability": "nonpayable",
			"type": "function"
		},
		{
			"inputs": [],
			"name": "saucerSwapV2Router",
			"outputs": [
				{
					"internalType": "contract ISaucerSwapV2Router",
					"name": "",
					"type": "address"
				}
			],
			"stateMutability": "view",
			"type": "function"
		},
		{
			"inputs": [],
			"name": "saucerSwapV2RouterAddress",
			"outputs": [
				{
					"internalType": "address",
					"name": "",
					"type": "address"
				}
			],
			"stateMutability": "view",
			"type": "function"
		},
		{
			"inputs": [
				{
					"internalType": "uint256",
					"name": "_epochDuration",
					"type": "uint256"
				}
			],
			"name": "setEpochDuration",
			"outputs": [],
			"stateMutability": "nonpayable",
			"type": "function"
		},
		{
			"inputs": [
				{
					"internalType": "address",
					"name": "token1",
					"type": "address"
				},
				{
					"internalType": "address",
					"name": "token2",
					"type": "address"
				},
				{
					"internalType": "uint24",
					"name": "newFees",
					"type": "uint24"
				}
			],
			"name": "setFees",
			"outputs": [],
			"stateMutability": "nonpayable",
			"type": "function"
		},
		{
			"inputs": [
				{
					"internalType": "bytes32",
					"name": "_priceId",
					"type": "bytes32"
				}
			],
			"name": "setHbarUsdPriceId",
			"outputs": [],
			"stateMutability": "nonpayable",
			"type": "function"
		},
		{
			"inputs": [
				{
					"internalType": "uint256",
					"name": "_penaltyRate",
					"type": "uint256"
				}
			],
			"name": "setPenaltyRate",
			"outputs": [],
			"stateMutability": "nonpayable",
			"type": "function"
		},
		{
			"inputs": [
				{
					"internalType": "address",
					"name": "_pyth",
					"type": "address"
				}
			],
			"name": "setPyth",
			"outputs": [],
			"stateMutability": "nonpayable",
			"type": "function"
		},
		{
			"inputs": [
				{
					"internalType": "address",
					"name": "_quoterV2",
					"type": "address"
				}
			],
			"name": "setQuoterV2",
			"outputs": [],
			"stateMutability": "nonpayable",
			"type": "function"
		},
		{
			"inputs": [
				{
					"internalType": "address",
					"name": "_router",
					"type": "address"
				}
			],
			"name": "setSaucerSwapV2Router",
			"outputs": [],
			"stateMutability": "nonpayable",
			"type": "function"
		},
		{
			"inputs": [
				{
					"internalType": "uint256",
					"name": "_min",
					"type": "uint256"
				},
				{
					"internalType": "uint256",
					"name": "_max",
					"type": "uint256"
				}
			],
			"name": "setStakeDurationBounds",
			"outputs": [],
			"stateMutability": "nonpayable",
			"type": "function"
		},
		{
			"inputs": [
				{
					"internalType": "address",
					"name": "usdc",
					"type": "address"
				}
			],
			"name": "setUsdcAddress",
			"outputs": [],
			"stateMutability": "nonpayable",
			"type": "function"
		},
		{
			"inputs": [
				{
					"internalType": "address",
					"name": "whbar",
					"type": "address"
				}
			],
			"name": "setWhbarAddress",
			"outputs": [],
			"stateMutability": "nonpayable",
			"type": "function"
		},
		{
			"inputs": [
				{
					"internalType": "address",
					"name": "tokenId",
					"type": "address"
				},
				{
					"internalType": "uint256",
					"name": "amount",
					"type": "uint256"
				},
				{
					"internalType": "uint256",
					"name": "duration",
					"type": "uint256"
				},
				{
					"internalType": "uint256",
					"name": "boostTokenAmount",
					"type": "uint256"
				},
				{
					"internalType": "bytes[]",
					"name": "priceUpdate",
					"type": "bytes[]"
				}
			],
			"name": "stake",
			"outputs": [],
			"stateMutability": "payable",
			"type": "function"
		},
		{
			"inputs": [
				{
					"internalType": "address",
					"name": "tokenId",
					"type": "address"
				}
			],
			"name": "tokenAssociate",
			"outputs": [],
			"stateMutability": "nonpayable",
			"type": "function"
		},
		{
			"inputs": [
				{
					"internalType": "address",
					"name": "",
					"type": "address"
				}
			],
			"name": "totalStaked",
			"outputs": [
				{
					"internalType": "uint256",
					"name": "",
					"type": "uint256"
				}
			],
			"stateMutability": "view",
			"type": "function"
		},
		{
			"inputs": [
				{
					"internalType": "address",
					"name": "token",
					"type": "address"
				},
				{
					"internalType": "address",
					"name": "from",
					"type": "address"
				},
				{
					"internalType": "address",
					"name": "to",
					"type": "address"
				},
				{
					"internalType": "uint256",
					"name": "amount",
					"type": "uint256"
				}
			],
			"name": "transferFrom",
			"outputs": [
				{
					"internalType": "int64",
					"name": "responseCode",
					"type": "int64"
				}
			],
			"stateMutability": "nonpayable",
			"type": "function"
		},
		{
			"inputs": [
				{
					"internalType": "address",
					"name": "token",
					"type": "address"
				},
				{
					"internalType": "address",
					"name": "from",
					"type": "address"
				},
				{
					"internalType": "address",
					"name": "to",
					"type": "address"
				},
				{
					"internalType": "uint256",
					"name": "serialNumber",
					"type": "uint256"
				}
			],
			"name": "transferFromNFT",
			"outputs": [
				{
					"internalType": "int64",
					"name": "responseCode",
					"type": "int64"
				}
			],
			"stateMutability": "nonpayable",
			"type": "function"
		},
		{
			"inputs": [
				{
					"internalType": "address",
					"name": "newOwner",
					"type": "address"
				}
			],
			"name": "transferOwnership",
			"outputs": [],
			"stateMutability": "nonpayable",
			"type": "function"
		},
		{
			"inputs": [],
			"name": "usdcAddress",
			"outputs": [
				{
					"internalType": "address",
					"name": "",
					"type": "address"
				}
			],
			"stateMutability": "view",
			"type": "function"
		},
		{
			"inputs": [
				{
					"internalType": "address",
					"name": "",
					"type": "address"
				},
				{
					"internalType": "uint256",
					"name": "",
					"type": "uint256"
				}
			],
			"name": "userStakes",
			"outputs": [
				{
					"internalType": "address",
					"name": "tokenId",
					"type": "address"
				},
				{
					"internalType": "uint256",
					"name": "amount",
					"type": "uint256"
				},
				{
					"internalType": "uint256",
					"name": "startTime",
					"type": "uint256"
				},
				{
					"internalType": "uint256",
					"name": "endTime",
					"type": "uint256"
				},
				{
					"internalType": "uint256",
					"name": "rewardShares",
					"type": "uint256"
				},
				{
					"internalType": "uint256",
					"name": "nextToClaim",
					"type": "uint256"
				}
			],
			"stateMutability": "view",
			"type": "function"
		},
		{
			"inputs": [],
			"name": "whbarAddress",
			"outputs": [
				{
					"internalType": "address",
					"name": "",
					"type": "address"
				}
			],
			"stateMutability": "view",
			"type": "function"
		},
		{
			"inputs": [
				{
					"internalType": "uint256",
					"name": "stakeIndex",
					"type": "uint256"
				}
			],
			"name": "withdraw",
			"outputs": [],
			"stateMutability": "nonpayable",
			"type": "function"
		},
		{
			"stateMutability": "payable",
			"type": "receive"
		}
	]
}