{
	"data": {
		"bytecode": {
			"linkReferences": {},
			"object": "6080604052600a600b555f600c55348015610018575f80fd5b50604051616274380380616274833981810160405281019061003a9190610586565b3360015f819055505f73ffffffffffffffffffffffffffffffffffffffff168173ffffffffffffffffffffffffffffffffffffffff16036100b2575f6040517f1e4fbdf70000000000000000000000000000000000000000000000000000000081526004016100a99190610659565b60405180910390fd5b6100c18161027a60201b60201c565b5088600f5f6101000a81548173ffffffffffffffffffffffffffffffffffffffff021916908373ffffffffffffffffffffffffffffffffffffffff16021790555087600d5f6101000a81548173ffffffffffffffffffffffffffffffffffffffff021916908373ffffffffffffffffffffffffffffffffffffffff16021790555086600e5f6101000a81548173ffffffffffffffffffffffffffffffffffffffff021916908373ffffffffffffffffffffffffffffffffffffffff1602179055508660105f6101000a81548173ffffffffffffffffffffffffffffffffffffffff021916908373ffffffffffffffffffffffffffffffffffffffff1602179055508560055f6101000a81548173ffffffffffffffffffffffffffffffffffffffff021916908373ffffffffffffffffffffffffffffffffffffffff1602179055508460065f6101000a81548173ffffffffffffffffffffffffffffffffffffffff021916908373ffffffffffffffffffffffffffffffffffffffff1602179055508360118190555082600281905550816003819055508060048190555061026c61033d60201b60201c565b505050505050505050610780565b5f60015f9054906101000a900473ffffffffffffffffffffffffffffffffffffffff1690508160015f6101000a81548173ffffffffffffffffffffffffffffffffffffffff021916908373ffffffffffffffffffffffffffffffffffffffff1602179055508173ffffffffffffffffffffffffffffffffffffffff168173ffffffffffffffffffffffffffffffffffffffff167f8be0079c531659141344cd1fd0a4f28419497f9722a3daafe3b4186f6b6457e060405160405180910390a35050565b5f80600c5411156103c457600a5f600c5481526020019081526020015f206005015f9054906101000a900460ff166103aa576040517f08c379a00000000000000000000000000000000000000000000000000000000081526004016103a1906106cc565b60405180910390fd5b600a5f600c5481526020019081526020015f206003015490505b5f600454426103d39190610717565b90506001600c5f8282546103e79190610717565b925050819055506040518060c001604052804281526020018281526020015f81526020018381526020015f81526020015f1515815250600a5f600c5481526020019081526020015f205f820151815f01556020820151816001015560408201518160020155606082015181600301556080820151816004015560a0820151816005015f6101000a81548160ff021916908315150217905550905050600c547f29db3deb62ef2036e5eb93aad68d2362aec0711af592cb365566603bd88651d442836040516104b6929190610759565b60405180910390a25050565b5f80fd5b5f73ffffffffffffffffffffffffffffffffffffffff82169050919050565b5f6104ef826104c6565b9050919050565b6104ff816104e5565b8114610509575f80fd5b50565b5f8151905061051a816104f6565b92915050565b5f819050919050565b61053281610520565b811461053c575f80fd5b50565b5f8151905061054d81610529565b92915050565b5f819050919050565b61056581610553565b811461056f575f80fd5b50565b5f815190506105808161055c565b92915050565b5f805f805f805f805f6101208a8c0312156105a4576105a36104c2565b5b5f6105b18c828d0161050c565b99505060206105c28c828d0161050c565b98505060406105d38c828d0161050c565b97505060606105e48c828d0161050c565b96505060806105f58c828d0161050c565b95505060a06106068c828d0161053f565b94505060c06106178c828d01610572565b93505060e06106288c828d01610572565b92505061010061063a8c828d01610572565b9150509295985092959850929598565b610653816104e5565b82525050565b5f60208201905061066c5f83018461064a565b92915050565b5f82825260208201905092915050565b7f50726576696f75732065706f6368206e6f742066696e616c697a6564000000005f82015250565b5f6106b6601c83610672565b91506106c182610682565b602082019050919050565b5f6020820190508181035f8301526106e3816106aa565b9050919050565b7f4e487b71000000000000000000000000000000000000000000000000000000005f52601160045260245ffd5b5f61072182610553565b915061072c83610553565b9250828201905080821115610744576107436106ea565b5b92915050565b61075381610553565b82525050565b5f60408201905061076c5f83018561074a565b610779602083018461074a565b9392505050565b615ae78061078d5f395ff3fe608060405260043610610212575f3560e01c80638da5cb5b11610117578063c6b61e4c1161009f578063ee22fd6f1161006e578063ee22fd6f1461075e578063f2fde38b14610786578063f3dbdfe5146107ae578063f3fd622f146107ea578063f98d06f01461081257610219565b8063c6b61e4c146106a3578063d6b7494f146106e4578063d8990c111461070e578063d9cd6e391461073657610219565b8063a8559a96116100e6578063a8559a96146105bc578063a9563e4f146105e6578063aa9bbc0c14610622578063b5d5b5fa1461064c578063b88a802f1461068d57610219565b80638da5cb5b1461050457806391e98f551461052e5780639b23d3d914610558578063a1bab4471461059457610219565b806355f741fa1161019a5780636ee8cc45116101695780636ee8cc4514610448578063715018a61461047257806376f700031461048857806377b53ece146104b25780637a04ea99146104dc57610219565b806355f741fa14610391578063587b47b0146103b95780635fec5c64146103e1578063618dc65e1461040b57610219565b80631a2a5e15116101e15780631a2a5e15146102c55780632e1a7d4d146102ed57806330024dfe146103155780634a9138c61461033d5780634ff0876a1461036757610219565b80630818f6d71461021b57806309716dee146102435780630d07be2d1461025f57806315dacbea1461028957610219565b3661021957005b005b348015610226575f80fd5b50610241600480360381019061023c91906137cd565b61083c565b005b61025d6004803603810190610258919061388c565b610935565b005b34801561026a575f80fd5b50610273611263565b604051610280919061397d565b60405180910390f35b348015610294575f80fd5b506102af60048036038101906102aa9190613996565b611288565b6040516102bc9190613a15565b60405180910390f35b3480156102d0575f80fd5b506102eb60048036038101906102e691906137cd565b6113a0565b005b3480156102f8575f80fd5b50610313600480360381019061030e9190613a2e565b611436565b005b348015610320575f80fd5b5061033b60048036038101906103369190613a2e565b61208e565b005b348015610348575f80fd5b506103516120e2565b60405161035e9190613a71565b60405180910390f35b348015610372575f80fd5b5061037b6120e8565b6040516103889190613a99565b60405180910390f35b34801561039c575f80fd5b506103b760048036038101906103b291906137cd565b6120ee565b005b3480156103c4575f80fd5b506103df60048036038101906103da9190613adc565b6121a7565b005b3480156103ec575f80fd5b506103f56121b9565b6040516104029190613a99565b60405180910390f35b348015610416575f80fd5b50610431600480360381019061042c9190613c3f565b6121bf565b60405161043f929190613d11565b60405180910390f35b348015610453575f80fd5b5061045c612314565b6040516104699190613d4e565b60405180910390f35b34801561047d575f80fd5b50610486612339565b005b348015610493575f80fd5b5061049c61234c565b6040516104a99190613a99565b60405180910390f35b3480156104bd575f80fd5b506104c6612352565b6040516104d39190613d4e565b60405180910390f35b3480156104e7575f80fd5b5061050260048036038101906104fd91906137cd565b612377565b005b34801561050f575f80fd5b50610518612430565b6040516105259190613d4e565b60405180910390f35b348015610539575f80fd5b50610542612458565b60405161054f9190613d4e565b60405180910390f35b348015610563575f80fd5b5061057e60048036038101906105799190613996565b61247d565b60405161058b9190613a15565b60405180910390f35b34801561059f575f80fd5b506105ba60048036038101906105b59190613a2e565b612595565b005b3480156105c7575f80fd5b506105d06125eb565b6040516105dd9190613d87565b60405180910390f35b3480156105f1575f80fd5b5061060c60048036038101906106079190613da0565b612610565b6040516106199190613dfb565b60405180910390f35b34801561062d575f80fd5b5061063661263c565b6040516106439190613a99565b60405180910390f35b348015610657575f80fd5b50610672600480360381019061066d9190613e14565b612642565b60405161068496959493929190613e52565b60405180910390f35b348015610698575f80fd5b506106a16126b3565b005b3480156106ae575f80fd5b506106c960048036038101906106c49190613a2e565b6126cd565b6040516106db96959493929190613ecb565b60405180910390f35b3480156106ef575f80fd5b506106f8612711565b6040516107059190613a99565b60405180910390f35b348015610719575f80fd5b50610734600480360381019061072f9190613f2a565b612717565b005b348015610741575f80fd5b5061075c60048036038101906107579190613f92565b612773565b005b348015610769575f80fd5b50610784600480360381019061077f91906137cd565b61285b565b005b348015610791575f80fd5b506107ac60048036038101906107a791906137cd565b612914565b005b3480156107b9575f80fd5b506107d460048036038101906107cf91906137cd565b612998565b6040516107e19190613a99565b60405180910390f35b3480156107f5575f80fd5b50610810600480360381019061080b91906137cd565b6129ad565b005b34801561081d575f80fd5b50610826612a66565b6040516108339190614002565b60405180910390f35b610844612a8b565b5f73ffffffffffffffffffffffffffffffffffffffff168173ffffffffffffffffffffffffffffffffffffffff16036108b2576040517f08c379a00000000000000000000000000000000000000000000000000000000081526004016108a990614075565b60405180910390fd5b80600e5f6101000a81548173ffffffffffffffffffffffffffffffffffffffff021916908373ffffffffffffffffffffffffffffffffffffffff1602179055508060105f6101000a81548173ffffffffffffffffffffffffffffffffffffffff021916908373ffffffffffffffffffffffffffffffffffffffff16021790555050565b61093d612b12565b5f600a5f600c5481526020019081526020015f2090508060010154421180156109745750806005015f9054906101000a900460ff16155b1561098a57610981612b56565b610989612ca4565b5b5f86116109cc576040517f08c379a00000000000000000000000000000000000000000000000000000000081526004016109c3906140dd565b60405180910390fd5b60025485101580156109e057506003548511155b610a1f576040517f08c379a0000000000000000000000000000000000000000000000000000000008152600401610a1690614145565b60405180910390fd5b600a60095f3373ffffffffffffffffffffffffffffffffffffffff1673ffffffffffffffffffffffffffffffffffffffff1681526020019081526020015f208054905010610aa2576040517f08c379a0000000000000000000000000000000000000000000000000000000008152600401610a99906141d3565b60405180910390fd5b5f808790505f73ffffffffffffffffffffffffffffffffffffffff168973ffffffffffffffffffffffffffffffffffffffff1603610dab57873414610b1c576040517f08c379a0000000000000000000000000000000000000000000000000000000008152600401610b139061423b565b60405180910390fd5b5f600f5f9054906101000a900473ffffffffffffffffffffffffffffffffffffffff1673ffffffffffffffffffffffffffffffffffffffff1663d47eed4587876040518363ffffffff1660e01b8152600401610b799291906143b1565b602060405180830381865afa158015610b94573d5f803e3d5ffd5b505050506040513d601f19601f82011682018060405250810190610bb891906143e7565b90508082610bc6919061443f565b9150600f5f9054906101000a900473ffffffffffffffffffffffffffffffffffffffff1673ffffffffffffffffffffffffffffffffffffffff1663ef9e5e288288886040518463ffffffff1660e01b8152600401610c259291906143b1565b5f604051808303818588803b158015610c3c575f80fd5b505af1158015610c4e573d5f803e3d5ffd5b50505050505f600f5f9054906101000a900473ffffffffffffffffffffffffffffffffffffffff1673ffffffffffffffffffffffffffffffffffffffff1663a4ae35e0601154603c6040518363ffffffff1660e01b8152600401610cb39291906144ab565b608060405180830381865afa158015610cce573d5f803e3d5ffd5b505050506040513d601f19601f82011682018060405250810190610cf291906145e8565b90505f8160400151610d0390614613565b63ffffffff16600a610d159190614788565b670de0b6b3a7640000835f015160070b610d2f91906147d2565b610d399190614840565b90506a52b7d2dcc80cd2e40000008482610d5391906147d2565b610d5d9190614840565b94506001851015610da3576040517f08c379a0000000000000000000000000000000000000000000000000000000008152600401610d9a906148ba565b60405180910390fd5b505050610fd4565b5f610e7f8a60075f8d73ffffffffffffffffffffffffffffffffffffffff1673ffffffffffffffffffffffffffffffffffffffff1681526020019081526020015f205f60055f9054906101000a900473ffffffffffffffffffffffffffffffffffffffff1673ffffffffffffffffffffffffffffffffffffffff1673ffffffffffffffffffffffffffffffffffffffff1681526020019081526020015f205f9054906101000a900462ffffff1660055f9054906101000a900473ffffffffffffffffffffffffffffffffffffffff16612e29565b90505f600d5f9054906101000a900473ffffffffffffffffffffffffffffffffffffffff1673ffffffffffffffffffffffffffffffffffffffff1663cdca1753838c6040518363ffffffff1660e01b8152600401610ede9291906148d8565b5f604051808303815f875af1158015610ef9573d5f803e3d5ffd5b505050506040513d5f823e3d601f19601f82011682018060405250810190610f219190614ae9565b5050509050620f424081610f359190614840565b93506001841015610f7b576040517f08c379a0000000000000000000000000000000000000000000000000000000008152600401610f72906148ba565b60405180910390fd5b5f610f888c33308e612e58565b9050601660030b8114610fd0576040517f08c379a0000000000000000000000000000000000000000000000000000000008152600401610fc790614bcf565b60405180910390fd5b5050505b5f8783610fe191906147d2565b90505f871115610ff857610ff58188612f70565b90505b60095f3373ffffffffffffffffffffffffffffffffffffffff1673ffffffffffffffffffffffffffffffffffffffff1681526020019081526020015f206040518060c001604052808c73ffffffffffffffffffffffffffffffffffffffff1681526020018481526020014281526020018a426110749190614bed565b8152602001838152602001600c54815250908060018154018082558091505060019003905f5260205f2090600602015f909190919091505f820151815f015f6101000a81548173ffffffffffffffffffffffffffffffffffffffff021916908373ffffffffffffffffffffffffffffffffffffffff1602179055506020820151816001015560408201518160020155606082015181600301556080820151816004015560a0820151816005015550508860085f8c73ffffffffffffffffffffffffffffffffffffffff1673ffffffffffffffffffffffffffffffffffffffff1681526020019081526020015f205f82825461116f9190614bed565b9250508190555080600a5f600c5481526020019081526020015f206003015f82825461119b9190614bed565b925050819055503373ffffffffffffffffffffffffffffffffffffffff167f902788162368fcc78ad80de846b620b397de2884386dbff8339fb699955dacc583428b426111e89190614bed565b600160095f3373ffffffffffffffffffffffffffffffffffffffff1673ffffffffffffffffffffffffffffffffffffffff1681526020019081526020015f2080549050611235919061443f565b8f604051611247959493929190614c20565b60405180910390a25050505061125b612fdc565b505050505050565b600e5f9054906101000a900473ffffffffffffffffffffffffffffffffffffffff1681565b5f805f61016773ffffffffffffffffffffffffffffffffffffffff166315dacbea60e01b888888886040516024016112c39493929190614c71565b604051602081830303815290604052907bffffffffffffffffffffffffffffffffffffffffffffffffffffffff19166020820180517bffffffffffffffffffffffffffffffffffffffffffffffffffffffff838183161783525050505060405161132d9190614cee565b5f604051808303815f865af19150503d805f8114611366576040519150601f19603f3d011682016040523d82523d5f602084013e61136b565b606091505b50915091508161137c576015611391565b808060200190518101906113909190614d04565b5b60030b92505050949350505050565b6113a8612a8b565b5f6113b33083612fe5565b9050601660030b81146113fb576040517f08c379a00000000000000000000000000000000000000000000000000000000081526004016113f290614d79565b60405180910390fd5b7fbbbf805ef99ca7d0b7d2cc769719f2a281c9b3331a3642efa75a712e3094a1668260405161142a9190613d4e565b60405180910390a15050565b61143e612b12565b5f600a5f600c5481526020019081526020015f2090508060010154421180156114755750806005015f9054906101000a900460ff16155b1561148b57611482612b56565b61148a612ca4565b5b6114936130f7565b5f60095f3373ffffffffffffffffffffffffffffffffffffffff1673ffffffffffffffffffffffffffffffffffffffff1681526020019081526020015f20805490509050808310611519576040517f08c379a000000000000000000000000000000000000000000000000000000000815260040161151090614de1565b60405180910390fd5b5f60095f3373ffffffffffffffffffffffffffffffffffffffff1673ffffffffffffffffffffffffffffffffffffffff1681526020019081526020015f20848154811061156957611568614dff565b5b905f5260205f20906006020190505f8160010154116115bd576040517f08c379a00000000000000000000000000000000000000000000000000000000081526004016115b490614e76565b60405180910390fd5b5f816001015490505f8260030154421090505f808215611602576064600b54856115e791906147d2565b6115f19190614840565b915081846115ff919061443f565b93505b818461160e9190614bed565b60085f875f015f9054906101000a900473ffffffffffffffffffffffffffffffffffffffff1673ffffffffffffffffffffffffffffffffffffffff1673ffffffffffffffffffffffffffffffffffffffff1681526020019081526020015f205f82825461167b919061443f565b925050819055505f73ffffffffffffffffffffffffffffffffffffffff16855f015f9054906101000a900473ffffffffffffffffffffffffffffffffffffffff1673ffffffffffffffffffffffffffffffffffffffff16036117cb578190508347101561171d576040517f08c379a000000000000000000000000000000000000000000000000000000000815260040161171490614ede565b60405180910390fd5b5f3373ffffffffffffffffffffffffffffffffffffffff168560405161174290614f1f565b5f6040518083038185875af1925050503d805f811461177c576040519150601f19603f3d011682016040523d82523d5f602084013e611781565b606091505b50509050806117c5576040517f08c379a00000000000000000000000000000000000000000000000000000000081526004016117bc90614f7d565b60405180910390fd5b50611d76565b5f611802865f015f9054906101000a900473ffffffffffffffffffffffffffffffffffffffff1630336117fd89613423565b612e58565b9050601660030b811461184a576040517f08c379a000000000000000000000000000000000000000000000000000000000815260040161184190614fe5565b60405180910390fd5b8315611d745761189e865f015f9054906101000a900473ffffffffffffffffffffffffffffffffffffffff1660105f9054906101000a900473ffffffffffffffffffffffffffffffffffffffff168561347a565b9050601660030b81146118e6576040517f08c379a00000000000000000000000000000000000000000000000000000000081526004016118dd90615073565b60405180910390fd5b5f6119fe875f015f9054906101000a900473ffffffffffffffffffffffffffffffffffffffff1660075f8a5f015f9054906101000a900473ffffffffffffffffffffffffffffffffffffffff1673ffffffffffffffffffffffffffffffffffffffff1673ffffffffffffffffffffffffffffffffffffffff1681526020019081526020015f205f60065f9054906101000a900473ffffffffffffffffffffffffffffffffffffffff1673ffffffffffffffffffffffffffffffffffffffff1673ffffffffffffffffffffffffffffffffffffffff1681526020019081526020015f205f9054906101000a900462ffffff1660065f9054906101000a900473ffffffffffffffffffffffffffffffffffffffff16612e29565b90505f600d5f9054906101000a900473ffffffffffffffffffffffffffffffffffffffff1673ffffffffffffffffffffffffffffffffffffffff1663cdca175383876040518363ffffffff1660e01b8152600401611a5d9291906148d8565b5f604051808303815f875af1158015611a78573d5f803e3d5ffd5b505050506040513d5f823e3d601f19601f82011682018060405250810190611aa09190614ae9565b50505090505f6040518060a0016040528084815260200160105f9054906101000a900473ffffffffffffffffffffffffffffffffffffffff1673ffffffffffffffffffffffffffffffffffffffff168152602001601e42611b019190614bed565b81526020018781526020018381525090505f63c04b8d5960e01b82604051602401611b2c919061515a565b604051602081830303815290604052907bffffffffffffffffffffffffffffffffffffffffffffffffffffffff19166020820180517bffffffffffffffffffffffffffffffffffffffffffffffffffffffff838183161783525050505090505f635fb043af60e01b8430604051602401611ba792919061517a565b604051602081830303815290604052907bffffffffffffffffffffffffffffffffffffffffffffffffffffffff19166020820180517bffffffffffffffffffffffffffffffffffffffffffffffffffffffff838183161783525050505090505f600267ffffffffffffffff811115611c2257611c21613b1b565b5b604051908082528060200260200182016040528015611c5557816020015b6060815260200190600190039081611c405790505b50905082815f81518110611c6c57611c6b614dff565b5b60200260200101819052508181600181518110611c8c57611c8b614dff565b5b60200260200101819052505f600e5f9054906101000a900473ffffffffffffffffffffffffffffffffffffffff1673ffffffffffffffffffffffffffffffffffffffff1663ac9650d8836040518263ffffffff1660e01b8152600401611cf2919061524c565b5f604051808303815f875af1158015611d0d573d5f803e3d5ffd5b505050506040513d5f823e3d601f19601f82011682018060405250810190611d3591906153b8565b90505f815f81518110611d4b57611d4a614dff565b5b6020026020010151806020019051810190611d6691906143e7565b905080995050505050505050505b505b8215611da95780600a5f600c5481526020019081526020015f206002015f828254611da19190614bed565b925050819055505b8460040154600a5f600c5481526020019081526020015f206003015f828254611dd2919061443f565b925050819055503373ffffffffffffffffffffffffffffffffffffffff167f8e74f2e568a8fc64d8e10a0dd9ce40f78f234368743079ffb0e60ee702693ac989868685604051611e2594939291906153ff565b60405180910390a2600186118015611e495750600186611e45919061443f565b8814155b15611fd0575f8890505b600187611e60919061443f565b811015611fce5760095f3373ffffffffffffffffffffffffffffffffffffffff1673ffffffffffffffffffffffffffffffffffffffff1681526020019081526020015f20600182611eb19190614bed565b81548110611ec257611ec1614dff565b5b905f5260205f20906006020160095f3373ffffffffffffffffffffffffffffffffffffffff1673ffffffffffffffffffffffffffffffffffffffff1681526020019081526020015f208281548110611f1d57611f1c614dff565b5b905f5260205f2090600602015f82015f9054906101000a900473ffffffffffffffffffffffffffffffffffffffff16815f015f6101000a81548173ffffffffffffffffffffffffffffffffffffffff021916908373ffffffffffffffffffffffffffffffffffffffff16021790555060018201548160010155600282015481600201556003820154816003015560048201548160040155600582015481600501559050508080600101915050611e53565b505b60095f3373ffffffffffffffffffffffffffffffffffffffff1673ffffffffffffffffffffffffffffffffffffffff1681526020019081526020015f2080548061201d5761201c615442565b5b600190038181905f5260205f2090600602015f8082015f6101000a81549073ffffffffffffffffffffffffffffffffffffffff0219169055600182015f9055600282015f9055600382015f9055600482015f9055600582015f9055505090555050505050505061208b612fdc565b50565b612096612a8b565b5f81116120d8576040517f08c379a00000000000000000000000000000000000000000000000000000000081526004016120cf906154b9565b60405180910390fd5b8060048190555050565b60115481565b60045481565b6120f6612a8b565b5f73ffffffffffffffffffffffffffffffffffffffff168173ffffffffffffffffffffffffffffffffffffffff1603612164576040517f08c379a000000000000000000000000000000000000000000000000000000000815260040161215b90614075565b60405180910390fd5b8060065f6101000a81548173ffffffffffffffffffffffffffffffffffffffff021916908373ffffffffffffffffffffffffffffffffffffffff16021790555050565b6121af612a8b565b8060118190555050565b60025481565b5f60605f8061016773ffffffffffffffffffffffffffffffffffffffff1663618dc65e60e01b87876040516024016121f89291906154d7565b604051602081830303815290604052907bffffffffffffffffffffffffffffffffffffffffffffffffffffffff19166020820180517bffffffffffffffffffffffffffffffffffffffffffffffffffffffff83818316178352505050506040516122629190614cee565b5f604051808303815f865af19150503d805f811461229b576040519150601f19603f3d011682016040523d82523d5f602084013e6122a0565b606091505b50915091507f4af4780e06fe8cb9df64b0794fa6f01399af979175bb988e35e0e57e594567bc82826040516122d6929190615505565b60405180910390a1816122f957601560405180602001604052805f8152506122fd565b6016815b8160030b9150809450819550505050509250929050565b60105f9054906101000a900473ffffffffffffffffffffffffffffffffffffffff1681565b612341612a8b565b61234a5f61358f565b565b60035481565b60055f9054906101000a900473ffffffffffffffffffffffffffffffffffffffff1681565b61237f612a8b565b5f73ffffffffffffffffffffffffffffffffffffffff168173ffffffffffffffffffffffffffffffffffffffff16036123ed576040517f08c379a00000000000000000000000000000000000000000000000000000000081526004016123e490614075565b60405180910390fd5b80600d5f6101000a81548173ffffffffffffffffffffffffffffffffffffffff021916908373ffffffffffffffffffffffffffffffffffffffff16021790555050565b5f60015f9054906101000a900473ffffffffffffffffffffffffffffffffffffffff16905090565b60065f9054906101000a900473ffffffffffffffffffffffffffffffffffffffff1681565b5f805f61016773ffffffffffffffffffffffffffffffffffffffff16639b23d3d960e01b888888886040516024016124b89493929190614c71565b604051602081830303815290604052907bffffffffffffffffffffffffffffffffffffffffffffffffffffffff19166020820180517bffffffffffffffffffffffffffffffffffffffffffffffffffffffff83818316178352505050506040516125229190614cee565b5f604051808303815f865af19150503d805f811461255b576040519150601f19603f3d011682016040523d82523d5f602084013e612560565b606091505b509150915081612571576015612586565b808060200190518101906125859190614d04565b5b60030b92505050949350505050565b61259d612a8b565b60648111156125e1576040517f08c379a00000000000000000000000000000000000000000000000000000000081526004016125d89061557d565b60405180910390fd5b80600b8190555050565b600d5f9054906101000a900473ffffffffffffffffffffffffffffffffffffffff1681565b6007602052815f5260405f20602052805f5260405f205f915091509054906101000a900462ffffff1681565b600c5481565b6009602052815f5260405f20818154811061265b575f80fd5b905f5260205f2090600602015f9150915050805f015f9054906101000a900473ffffffffffffffffffffffffffffffffffffffff16908060010154908060020154908060030154908060040154908060050154905086565b6126bb612b12565b6126c36130f7565b6126cb612fdc565b565b600a602052805f5260405f205f91509050805f015490806001015490806002015490806003015490806004015490806005015f9054906101000a900460ff16905086565b600b5481565b61271f612a8b565b808210612761576040517f08c379a00000000000000000000000000000000000000000000000000000000081526004016127589061560b565b60405180910390fd5b81600281905550806003819055505050565b61277b612a8b565b5f8162ffffff16036127c2576040517f08c379a00000000000000000000000000000000000000000000000000000000081526004016127b990615673565b60405180910390fd5b8060075f8573ffffffffffffffffffffffffffffffffffffffff1673ffffffffffffffffffffffffffffffffffffffff1681526020019081526020015f205f8473ffffffffffffffffffffffffffffffffffffffff1673ffffffffffffffffffffffffffffffffffffffff1681526020019081526020015f205f6101000a81548162ffffff021916908362ffffff160217905550505050565b612863612a8b565b5f73ffffffffffffffffffffffffffffffffffffffff168173ffffffffffffffffffffffffffffffffffffffff16036128d1576040517f08c379a00000000000000000000000000000000000000000000000000000000081526004016128c890614075565b60405180910390fd5b80600f5f6101000a81548173ffffffffffffffffffffffffffffffffffffffff021916908373ffffffffffffffffffffffffffffffffffffffff16021790555050565b61291c612a8b565b5f73ffffffffffffffffffffffffffffffffffffffff168173ffffffffffffffffffffffffffffffffffffffff160361298c575f6040517f1e4fbdf70000000000000000000000000000000000000000000000000000000081526004016129839190613d4e565b60405180910390fd5b6129958161358f565b50565b6008602052805f5260405f205f915090505481565b6129b5612a8b565b5f73ffffffffffffffffffffffffffffffffffffffff168173ffffffffffffffffffffffffffffffffffffffff1603612a23576040517f08c379a0000000000000000000000000000000000000000000000000000000008152600401612a1a90614075565b60405180910390fd5b8060055f6101000a81548173ffffffffffffffffffffffffffffffffffffffff021916908373ffffffffffffffffffffffffffffffffffffffff16021790555050565b600f5f9054906101000a900473ffffffffffffffffffffffffffffffffffffffff1681565b612a93613652565b73ffffffffffffffffffffffffffffffffffffffff16612ab1612430565b73ffffffffffffffffffffffffffffffffffffffff1614612b1057612ad4613652565b6040517f118cdaa7000000000000000000000000000000000000000000000000000000008152600401612b079190613d4e565b60405180910390fd5b565b60025f5403612b4d576040517f3ee5aeb500000000000000000000000000000000000000000000000000000000815260040160405180910390fd5b60025f81905550565b5f600a5f600c5481526020019081526020015f209050806005015f9054906101000a900460ff1615612bbd576040517f08c379a0000000000000000000000000000000000000000000000000000000008152600401612bb4906156db565b60405180910390fd5b80600101544211612c03576040517f08c379a0000000000000000000000000000000000000000000000000000000008152600401612bfa90615743565b60405180910390fd5b6001816005015f6101000a81548160ff0219169083151502179055505f81600301541115612c575780600301546305f5e1008260020154612c4491906147d2565b612c4e9190614840565b81600401819055505b600c547f70801d4d63b3da6c19ba7349911f45bed5a99ccdfb51b8138c105872529bebd5826002015483600301548460040154604051612c9993929190615761565b60405180910390a250565b5f80600c541115612d2b57600a5f600c5481526020019081526020015f206005015f9054906101000a900460ff16612d11576040517f08c379a0000000000000000000000000000000000000000000000000000000008152600401612d08906157e0565b60405180910390fd5b600a5f600c5481526020019081526020015f206003015490505b5f60045442612d3a9190614bed565b90506001600c5f828254612d4e9190614bed565b925050819055506040518060c001604052804281526020018281526020015f81526020018381526020015f81526020015f1515815250600a5f600c5481526020019081526020015f205f820151815f01556020820151816001015560408201518160020155606082015181600301556080820151816004015560a0820151816005015f6101000a81548160ff021916908315150217905550905050600c547f29db3deb62ef2036e5eb93aad68d2362aec0711af592cb365566603bd88651d44283604051612e1d9291906157fe565b60405180910390a25050565b6060838383604051602001612e409392919061589e565b60405160208183030381529060405290509392505050565b5f805f61016773ffffffffffffffffffffffffffffffffffffffff1663eca3691760e01b88888888604051602401612e9394939291906158da565b604051602081830303815290604052907bffffffffffffffffffffffffffffffffffffffffffffffffffffffff19166020820180517bffffffffffffffffffffffffffffffffffffffffffffffffffffffff8381831617835250505050604051612efd9190614cee565b5f604051808303815f865af19150503d805f8114612f36576040519150601f19603f3d011682016040523d82523d5f602084013e612f3b565b606091505b509150915081612f4c576015612f61565b80806020019051810190612f609190614d04565b5b60030b92505050949350505050565b5f6305f5e100821015612f8557829050612fd6565b5f612f9e6305f5e10084612f999190614840565b613659565b90506019811115612fae57601990505b6064816064612fbd9190614bed565b85612fc891906147d2565b612fd29190614840565b9150505b92915050565b60015f81905550565b5f805f61016773ffffffffffffffffffffffffffffffffffffffff166349146bde60e01b868660405160240161301c92919061591d565b604051602081830303815290604052907bffffffffffffffffffffffffffffffffffffffffffffffffffffffff19166020820180517bffffffffffffffffffffffffffffffffffffffffffffffffffffffff83818316178352505050506040516130869190614cee565b5f604051808303815f865af19150503d805f81146130bf576040519150601f19603f3d011682016040523d82523d5f602084013e6130c4565b606091505b5091509150816130d55760156130ea565b808060200190518101906130e99190614d04565b5b60030b9250505092915050565b5f600a5f600c5481526020019081526020015f20905080600101544211801561312e5750806005015f9054906101000a900460ff16155b156131445761313b612b56565b613143612ca4565b5b5f8060095f3373ffffffffffffffffffffffffffffffffffffffff1673ffffffffffffffffffffffffffffffffffffffff1681526020019081526020015f208054905090505f81116131cb576040517f08c379a00000000000000000000000000000000000000000000000000000000081526004016131c29061598e565b60405180910390fd5b5f5b818110156132e3575f60095f3373ffffffffffffffffffffffffffffffffffffffff1673ffffffffffffffffffffffffffffffffffffffff1681526020019081526020015f20828154811061322557613224614dff565b5b905f5260205f20906006020190505f816004015490505f826005015490505f8190505b600c548110156132c7575f600a5f8381526020019081526020015f209050806005015f9054906101000a900460ff16801561328757505f816004015414155b156132b9576305f5e1008482600401546132a191906147d2565b6132ab9190614840565b886132b69190614bed565b97505b508080600101915050613248565b50600c54836005018190555050505080806001019150506131cd565b5081471015613327576040517f08c379a000000000000000000000000000000000000000000000000000000000815260040161331e90614ede565b60405180910390fd5b5f3373ffffffffffffffffffffffffffffffffffffffff168360405161334c90614f1f565b5f6040518083038185875af1925050503d805f8114613386576040519150601f19603f3d011682016040523d82523d5f602084013e61338b565b606091505b50509050806133cf576040517f08c379a00000000000000000000000000000000000000000000000000000000081526004016133c6906159f6565b60405180910390fd5b3373ffffffffffffffffffffffffffffffffffffffff167f106f923f993c2149d49b4255ff723acafa1f2d94393f561d3eda32ae348f7241846040516134159190613a99565b60405180910390a250505050565b5f677fffffffffffffff60070b821115613472576040517f08c379a000000000000000000000000000000000000000000000000000000000815260040161346990615a5e565b60405180910390fd5b819050919050565b5f805f61016773ffffffffffffffffffffffffffffffffffffffff1663e1f21c6760e01b8787876040516024016134b393929190615a7c565b604051602081830303815290604052907bffffffffffffffffffffffffffffffffffffffffffffffffffffffff19166020820180517bffffffffffffffffffffffffffffffffffffffffffffffffffffffff838183161783525050505060405161351d9190614cee565b5f604051808303815f865af19150503d805f8114613556576040519150601f19603f3d011682016040523d82523d5f602084013e61355b565b606091505b50915091508161356c576015613581565b808060200190518101906135809190614d04565b5b60030b925050509392505050565b5f60015f9054906101000a900473ffffffffffffffffffffffffffffffffffffffff1690508160015f6101000a81548173ffffffffffffffffffffffffffffffffffffffff021916908373ffffffffffffffffffffffffffffffffffffffff1602179055508173ffffffffffffffffffffffffffffffffffffffff168173ffffffffffffffffffffffffffffffffffffffff167f8be0079c531659141344cd1fd0a4f28419497f9722a3daafe3b4186f6b6457e060405160405180910390a35050565b5f33905090565b5f805f90505f61367a6fffffffffffffffffffffffffffffffff8511613757565b60800290508084901c9350808201915061369d67ffffffffffffffff8511613757565b60400290508084901c935080820191506136bc63ffffffff8511613757565b60200290508084901c935080820191506136d961ffff8511613757565b60100290508084901c935080820191506136f560ff8511613757565b60080290508084901c93508082019150613711600f8511613757565b60040290508084901c9350808201915061372d60038511613757565b60020290508084901c9350808201915061374960018511613757565b820191508192505050919050565b5f8115159050919050565b5f604051905090565b5f80fd5b5f80fd5b5f73ffffffffffffffffffffffffffffffffffffffff82169050919050565b5f61379c82613773565b9050919050565b6137ac81613792565b81146137b6575f80fd5b50565b5f813590506137c7816137a3565b92915050565b5f602082840312156137e2576137e161376b565b5b5f6137ef848285016137b9565b91505092915050565b5f819050919050565b61380a816137f8565b8114613814575f80fd5b50565b5f8135905061382581613801565b92915050565b5f80fd5b5f80fd5b5f80fd5b5f8083601f84011261384c5761384b61382b565b5b8235905067ffffffffffffffff8111156138695761386861382f565b5b60208301915083602082028301111561388557613884613833565b5b9250929050565b5f805f805f8060a087890312156138a6576138a561376b565b5b5f6138b389828a016137b9565b96505060206138c489828a01613817565b95505060406138d589828a01613817565b94505060606138e689828a01613817565b935050608087013567ffffffffffffffff8111156139075761390661376f565b5b61391389828a01613837565b92509250509295509295509295565b5f819050919050565b5f61394561394061393b84613773565b613922565b613773565b9050919050565b5f6139568261392b565b9050919050565b5f6139678261394c565b9050919050565b6139778161395d565b82525050565b5f6020820190506139905f83018461396e565b92915050565b5f805f80608085870312156139ae576139ad61376b565b5b5f6139bb878288016137b9565b94505060206139cc878288016137b9565b93505060406139dd878288016137b9565b92505060606139ee87828801613817565b91505092959194509250565b5f8160070b9050919050565b613a0f816139fa565b82525050565b5f602082019050613a285f830184613a06565b92915050565b5f60208284031215613a4357613a4261376b565b5b5f613a5084828501613817565b91505092915050565b5f819050919050565b613a6b81613a59565b82525050565b5f602082019050613a845f830184613a62565b92915050565b613a93816137f8565b82525050565b5f602082019050613aac5f830184613a8a565b92915050565b613abb81613a59565b8114613ac5575f80fd5b50565b5f81359050613ad681613ab2565b92915050565b5f60208284031215613af157613af061376b565b5b5f613afe84828501613ac8565b91505092915050565b5f80fd5b5f601f19601f8301169050919050565b7f4e487b71000000000000000000000000000000000000000000000000000000005f52604160045260245ffd5b613b5182613b0b565b810181811067ffffffffffffffff82111715613b7057613b6f613b1b565b5b80604052505050565b5f613b82613762565b9050613b8e8282613b48565b919050565b5f67ffffffffffffffff821115613bad57613bac613b1b565b5b613bb682613b0b565b9050602081019050919050565b828183375f83830152505050565b5f613be3613bde84613b93565b613b79565b905082815260208101848484011115613bff57613bfe613b07565b5b613c0a848285613bc3565b509392505050565b5f82601f830112613c2657613c2561382b565b5b8135613c36848260208601613bd1565b91505092915050565b5f8060408385031215613c5557613c5461376b565b5b5f613c62858286016137b9565b925050602083013567ffffffffffffffff811115613c8357613c8261376f565b5b613c8f85828601613c12565b9150509250929050565b5f819050919050565b613cab81613c99565b82525050565b5f81519050919050565b5f82825260208201905092915050565b8281835e5f83830152505050565b5f613ce382613cb1565b613ced8185613cbb565b9350613cfd818560208601613ccb565b613d0681613b0b565b840191505092915050565b5f604082019050613d245f830185613ca2565b8181036020830152613d368184613cd9565b90509392505050565b613d4881613792565b82525050565b5f602082019050613d615f830184613d3f565b92915050565b5f613d718261394c565b9050919050565b613d8181613d67565b82525050565b5f602082019050613d9a5f830184613d78565b92915050565b5f8060408385031215613db657613db561376b565b5b5f613dc3858286016137b9565b9250506020613dd4858286016137b9565b9150509250929050565b5f62ffffff82169050919050565b613df581613dde565b82525050565b5f602082019050613e0e5f830184613dec565b92915050565b5f8060408385031215613e2a57613e2961376b565b5b5f613e37858286016137b9565b9250506020613e4885828601613817565b9150509250929050565b5f60c082019050613e655f830189613d3f565b613e726020830188613a8a565b613e7f6040830187613a8a565b613e8c6060830186613a8a565b613e996080830185613a8a565b613ea660a0830184613a8a565b979650505050505050565b5f8115159050919050565b613ec581613eb1565b82525050565b5f60c082019050613ede5f830189613a8a565b613eeb6020830188613a8a565b613ef86040830187613a8a565b613f056060830186613a8a565b613f126080830185613a8a565b613f1f60a0830184613ebc565b979650505050505050565b5f8060408385031215613f4057613f3f61376b565b5b5f613f4d85828601613817565b9250506020613f5e85828601613817565b9150509250929050565b613f7181613dde565b8114613f7b575f80fd5b50565b5f81359050613f8c81613f68565b92915050565b5f805f60608486031215613fa957613fa861376b565b5b5f613fb6868287016137b9565b9350506020613fc7868287016137b9565b9250506040613fd886828701613f7e565b9150509250925092565b5f613fec8261394c565b9050919050565b613ffc81613fe2565b82525050565b5f6020820190506140155f830184613ff3565b92915050565b5f82825260208201905092915050565b7f496e76616c6964206164647265737300000000000000000000000000000000005f82015250565b5f61405f600f8361401b565b915061406a8261402b565b602082019050919050565b5f6020820190508181035f83015261408c81614053565b9050919050565b7f5374616b6520616d6f756e74206d757374206265203e203000000000000000005f82015250565b5f6140c760188361401b565b91506140d282614093565b602082019050919050565b5f6020820190508181035f8301526140f4816140bb565b9050919050565b7f5374616b65206475726174696f6e206f7574206f662072616e676500000000005f82015250565b5f61412f601b8361401b565b915061413a826140fb565b602082019050919050565b5f6020820190508181035f83015261415c81614123565b9050919050565b7f4d6178696d756d206e756d626572206f6620616374697665207374616b6573205f8201527f7265616368656400000000000000000000000000000000000000000000000000602082015250565b5f6141bd60278361401b565b91506141c882614163565b604082019050919050565b5f6020820190508181035f8301526141ea816141b1565b9050919050565b7f496e636f7272656374204842415220616d6f756e742073656e740000000000005f82015250565b5f614225601a8361401b565b9150614230826141f1565b602082019050919050565b5f6020820190508181035f83015261425281614219565b9050919050565b5f82825260208201905092915050565b5f819050919050565b5f82825260208201905092915050565b5f61428d8385614272565b935061429a838584613bc3565b6142a383613b0b565b840190509392505050565b5f6142ba848484614282565b90509392505050565b5f80fd5b5f80fd5b5f80fd5b5f80833560016020038436030381126142eb576142ea6142cb565b5b83810192508235915060208301925067ffffffffffffffff821115614313576143126142c3565b5b600182023603831315614329576143286142c7565b5b509250929050565b5f602082019050919050565b5f6143488385614259565b93508360208402850161435a84614269565b805f5b8781101561439f57848403895261437482846142cf565b61437f8682846142ae565b955061438a84614331565b935060208b019a50505060018101905061435d565b50829750879450505050509392505050565b5f6020820190508181035f8301526143ca81848661433d565b90509392505050565b5f815190506143e181613801565b92915050565b5f602082840312156143fc576143fb61376b565b5b5f614409848285016143d3565b91505092915050565b7f4e487b71000000000000000000000000000000000000000000000000000000005f52601160045260245ffd5b5f614449826137f8565b9150614454836137f8565b925082820390508181111561446c5761446b614412565b5b92915050565b5f819050919050565b5f61449561449061448b84614472565b613922565b6137f8565b9050919050565b6144a58161447b565b82525050565b5f6040820190506144be5f830185613a62565b6144cb602083018461449c565b9392505050565b5f80fd5b6144df816139fa565b81146144e9575f80fd5b50565b5f815190506144fa816144d6565b92915050565b5f67ffffffffffffffff82169050919050565b61451c81614500565b8114614526575f80fd5b50565b5f8151905061453781614513565b92915050565b5f8160030b9050919050565b6145528161453d565b811461455c575f80fd5b50565b5f8151905061456d81614549565b92915050565b5f60808284031215614588576145876144d2565b5b6145926080613b79565b90505f6145a1848285016144ec565b5f8301525060206145b484828501614529565b60208301525060406145c88482850161455f565b60408301525060606145dc848285016143d3565b60608301525092915050565b5f608082840312156145fd576145fc61376b565b5b5f61460a84828501614573565b91505092915050565b5f61461d8261453d565b91507fffffffffffffffffffffffffffffffffffffffffffffffffffffffff80000000820361464f5761464e614412565b5b815f039050919050565b5f8160011c9050919050565b5f808291508390505b60018511156146ae5780860481111561468a57614689614412565b5b60018516156146995780820291505b80810290506146a785614659565b945061466e565b94509492505050565b5f826146c65760019050614781565b816146d3575f9050614781565b81600181146146e957600281146146f357614722565b6001915050614781565b60ff84111561470557614704614412565b5b8360020a91508482111561471c5761471b614412565b5b50614781565b5060208310610133831016604e8410600b84101617156147575782820a90508381111561475257614751614412565b5b614781565b6147648484846001614665565b9250905081840481111561477b5761477a614412565b5b81810290505b9392505050565b5f614792826137f8565b915061479d836137f8565b92506147ca7fffffffffffffffffffffffffffffffffffffffffffffffffffffffffffffffff84846146b7565b905092915050565b5f6147dc826137f8565b91506147e7836137f8565b92508282026147f5816137f8565b9150828204841483151761480c5761480b614412565b5b5092915050565b7f4e487b71000000000000000000000000000000000000000000000000000000005f52601260045260245ffd5b5f61484a826137f8565b9150614855836137f8565b92508261486557614864614813565b5b828204905092915050565b7f546f6b656e2076616c756520756e6465722031205553440000000000000000005f82015250565b5f6148a460178361401b565b91506148af82614870565b602082019050919050565b5f6020820190508181035f8301526148d181614898565b9050919050565b5f6040820190508181035f8301526148f08185613cd9565b90506148ff6020830184613a8a565b9392505050565b5f67ffffffffffffffff8211156149205761491f613b1b565b5b602082029050602081019050919050565b61493a81613773565b8114614944575f80fd5b50565b5f8151905061495581614931565b92915050565b5f61496d61496884614906565b613b79565b905080838252602082019050602084028301858111156149905761498f613833565b5b835b818110156149b957806149a58882614947565b845260208401935050602081019050614992565b5050509392505050565b5f82601f8301126149d7576149d661382b565b5b81516149e784826020860161495b565b91505092915050565b5f67ffffffffffffffff821115614a0a57614a09613b1b565b5b602082029050602081019050919050565b5f63ffffffff82169050919050565b614a3381614a1b565b8114614a3d575f80fd5b50565b5f81519050614a4e81614a2a565b92915050565b5f614a66614a61846149f0565b613b79565b90508083825260208201905060208402830185811115614a8957614a88613833565b5b835b81811015614ab25780614a9e8882614a40565b845260208401935050602081019050614a8b565b5050509392505050565b5f82601f830112614ad057614acf61382b565b5b8151614ae0848260208601614a54565b91505092915050565b5f805f8060808587031215614b0157614b0061376b565b5b5f614b0e878288016143d3565b945050602085015167ffffffffffffffff811115614b2f57614b2e61376f565b5b614b3b878288016149c3565b935050604085015167ffffffffffffffff811115614b5c57614b5b61376f565b5b614b6887828801614abc565b9250506060614b79878288016143d3565b91505092959194509250565b7f546f6b656e207472616e73666572206661696c656400000000000000000000005f82015250565b5f614bb960158361401b565b9150614bc482614b85565b602082019050919050565b5f6020820190508181035f830152614be681614bad565b9050919050565b5f614bf7826137f8565b9150614c02836137f8565b9250828201905080821115614c1a57614c19614412565b5b92915050565b5f60a082019050614c335f830188613a8a565b614c406020830187613a8a565b614c4d6040830186613a8a565b614c5a6060830185613a8a565b614c676080830184613d3f565b9695505050505050565b5f608082019050614c845f830187613d3f565b614c916020830186613d3f565b614c9e6040830185613d3f565b614cab6060830184613a8a565b95945050505050565b5f81905092915050565b5f614cc882613cb1565b614cd28185614cb4565b9350614ce2818560208601613ccb565b80840191505092915050565b5f614cf98284614cbe565b915081905092915050565b5f60208284031215614d1957614d1861376b565b5b5f614d268482850161455f565b91505092915050565b7f4173736f6369617465204661696c6564000000000000000000000000000000005f82015250565b5f614d6360108361401b565b9150614d6e82614d2f565b602082019050919050565b5f6020820190508181035f830152614d9081614d57565b9050919050565b7f496e76616c696420696e646578000000000000000000000000000000000000005f82015250565b5f614dcb600d8361401b565b9150614dd682614d97565b602082019050919050565b5f6020820190508181035f830152614df881614dbf565b9050919050565b7f4e487b71000000000000000000000000000000000000000000000000000000005f52603260045260245ffd5b7f416c72656164792077697468647261776e0000000000000000000000000000005f82015250565b5f614e6060118361401b565b9150614e6b82614e2c565b602082019050919050565b5f6020820190508181035f830152614e8d81614e54565b9050919050565b7f496e73756666696369656e7420636f6e74726163742062616c616e63650000005f82015250565b5f614ec8601d8361401b565b9150614ed382614e94565b602082019050919050565b5f6020820190508181035f830152614ef581614ebc565b9050919050565b50565b5f614f0a5f83614cb4565b9150614f1582614efc565b5f82019050919050565b5f614f2982614eff565b9150819050919050565b7f4661696c656420746f2073656e642048424152000000000000000000000000005f82015250565b5f614f6760138361401b565b9150614f7282614f33565b602082019050919050565b5f6020820190508181035f830152614f9481614f5b565b9050919050565b7f546f6b656e207472616e73666572206261636b206661696c65640000000000005f82015250565b5f614fcf601a8361401b565b9150614fda82614f9b565b602082019050919050565b5f6020820190508181035f830152614ffc81614fc3565b9050919050565b7f4661696c656420746f20617070726f766520746f6b656e7320666f7220726f755f8201527f7465720000000000000000000000000000000000000000000000000000000000602082015250565b5f61505d60238361401b565b915061506882615003565b604082019050919050565b5f6020820190508181035f83015261508a81615051565b9050919050565b5f61509b82613cb1565b6150a58185614272565b93506150b5818560208601613ccb565b6150be81613b0b565b840191505092915050565b6150d281613792565b82525050565b6150e1816137f8565b82525050565b5f60a083015f8301518482035f8601526151018282615091565b915050602083015161511660208601826150c9565b50604083015161512960408601826150d8565b50606083015161513c60608601826150d8565b50608083015161514f60808601826150d8565b508091505092915050565b5f6020820190508181035f83015261517281846150e7565b905092915050565b5f60408201905061518d5f830185613a8a565b61519a6020830184613d3f565b9392505050565b5f81519050919050565b5f819050602082019050919050565b5f6151c58383615091565b905092915050565b5f602082019050919050565b5f6151e3826151a1565b6151ed8185614259565b9350836020820285016151ff856151ab565b805f5b8581101561523a578484038952815161521b85826151ba565b9450615226836151cd565b925060208a01995050600181019050615202565b50829750879550505050505092915050565b5f6020820190508181035f83015261526481846151d9565b905092915050565b5f67ffffffffffffffff82111561528657615285613b1b565b5b602082029050602081019050919050565b5f6152a96152a484613b93565b613b79565b9050828152602081018484840111156152c5576152c4613b07565b5b6152d0848285613ccb565b509392505050565b5f82601f8301126152ec576152eb61382b565b5b81516152fc848260208601615297565b91505092915050565b5f6153176153128461526c565b613b79565b9050808382526020820190506020840283018581111561533a57615339613833565b5b835b8181101561538157805167ffffffffffffffff81111561535f5761535e61382b565b5b80860161536c89826152d8565b8552602085019450505060208101905061533c565b5050509392505050565b5f82601f83011261539f5761539e61382b565b5b81516153af848260208601615305565b91505092915050565b5f602082840312156153cd576153cc61376b565b5b5f82015167ffffffffffffffff8111156153ea576153e961376f565b5b6153f68482850161538b565b91505092915050565b5f6080820190506154125f830187613a8a565b61541f6020830186613a8a565b61542c6040830185613ebc565b6154396060830184613a8a565b95945050505050565b7f4e487b71000000000000000000000000000000000000000000000000000000005f52603160045260245ffd5b7f45706f6368206475726174696f6e206d757374206265203e20300000000000005f82015250565b5f6154a3601a8361401b565b91506154ae8261546f565b602082019050919050565b5f6020820190508181035f8301526154d081615497565b9050919050565b5f6040820190506154ea5f830185613d3f565b81810360208301526154fc8184613cd9565b90509392505050565b5f6040820190506155185f830185613ebc565b818103602083015261552a8184613cd9565b90509392505050565b7f50656e616c7479207261746520657863656564732031303025000000000000005f82015250565b5f61556760198361401b565b915061557282615533565b602082019050919050565b5f6020820190508181035f8301526155948161555b565b9050919050565b7f4d696e696d756d206475726174696f6e206d757374206265206c6573732074685f8201527f616e206d6178696d756d00000000000000000000000000000000000000000000602082015250565b5f6155f5602a8361401b565b91506156008261559b565b604082019050919050565b5f6020820190508181035f830152615622816155e9565b9050919050565b7f4665652063616e6e6f74206265203000000000000000000000000000000000005f82015250565b5f61565d600f8361401b565b915061566882615629565b602082019050919050565b5f6020820190508181035f83015261568a81615651565b9050919050565b7f416c72656164792066696e616c697a65640000000000000000000000000000005f82015250565b5f6156c560118361401b565b91506156d082615691565b602082019050919050565b5f6020820190508181035f8301526156f2816156b9565b9050919050565b7f45706f6368206e6f7420656e64656400000000000000000000000000000000005f82015250565b5f61572d600f8361401b565b9150615738826156f9565b602082019050919050565b5f6020820190508181035f83015261575a81615721565b9050919050565b5f6060820190506157745f830186613a8a565b6157816020830185613a8a565b61578e6040830184613a8a565b949350505050565b7f50726576696f75732065706f6368206e6f742066696e616c697a6564000000005f82015250565b5f6157ca601c8361401b565b91506157d582615796565b602082019050919050565b5f6020820190508181035f8301526157f7816157be565b9050919050565b5f6040820190506158115f830185613a8a565b61581e6020830184613a8a565b9392505050565b5f8160601b9050919050565b5f61583b82615825565b9050919050565b5f61584c82615831565b9050919050565b61586461585f82613792565b615842565b82525050565b5f8160e81b9050919050565b5f6158808261586a565b9050919050565b61589861589382613dde565b615876565b82525050565b5f6158a98286615853565b6014820191506158b98285615887565b6003820191506158c98284615853565b601482019150819050949350505050565b5f6080820190506158ed5f830187613d3f565b6158fa6020830186613d3f565b6159076040830185613d3f565b6159146060830184613a06565b95945050505050565b5f6040820190506159305f830185613d3f565b61593d6020830184613d3f565b9392505050565b7f4e6f20616374697665207374616b6573000000000000000000000000000000005f82015250565b5f61597860108361401b565b915061598382615944565b602082019050919050565b5f6020820190508181035f8301526159a58161596c565b9050919050565b7f48424152207472616e73666572206661696c65640000000000000000000000005f82015250565b5f6159e060148361401b565b91506159eb826159ac565b602082019050919050565b5f6020820190508181035f830152615a0d816159d4565b9050919050565b7f56616c7565206578636565647320696e743634206d61780000000000000000005f82015250565b5f615a4860178361401b565b9150615a5382615a14565b602082019050919050565b5f6020820190508181035f830152615a7581615a3c565b9050919050565b5f606082019050615a8f5f830186613d3f565b615a9c6020830185613d3f565b615aa96040830184613a8a565b94935050505056fea264697066735822122056df788d67e349bc24f0f328a53c2f17aef0c15939867b2ffc56eff5c521137e64736f6c634300081a0033",
			"opcodes": "PUSH1 0x80 PUSH1 0x40 MSTORE PUSH1 0xA PUSH1 0xB SSTORE PUSH0 PUSH1 0xC SSTORE CALLVALUE DUP1 ISZERO PUSH2 0x18 JUMPI PUSH0 DUP1 REVERT JUMPDEST POP PUSH1 0x40 MLOAD PUSH2 0x6274 CODESIZE SUB DUP1 PUSH2 0x6274 DUP4 CODECOPY DUP2 DUP2 ADD PUSH1 0x40 MSTORE DUP2 ADD SWAP1 PUSH2 0x3A SWAP2 SWAP1 PUSH2 0x586 JUMP JUMPDEST CALLER PUSH1 0x1 PUSH0 DUP2 SWAP1 SSTORE POP PUSH0 PUSH20 0xFFFFFFFFFFFFFFFFFFFFFFFFFFFFFFFFFFFFFFFF AND DUP2 PUSH20 0xFFFFFFFFFFFFFFFFFFFFFFFFFFFFFFFFFFFFFFFF AND SUB PUSH2 0xB2 JUMPI PUSH0 PUSH1 0x40 MLOAD PUSH32 0x1E4FBDF700000000000000000000000000000000000000000000000000000000 DUP2 MSTORE PUSH1 0x4 ADD PUSH2 0xA9 SWAP2 SWAP1 PUSH2 0x659 JUMP JUMPDEST PUSH1 0x40 MLOAD DUP1 SWAP2 SUB SWAP1 REVERT JUMPDEST PUSH2 0xC1 DUP2 PUSH2 0x27A PUSH1 0x20 SHL PUSH1 0x20 SHR JUMP JUMPDEST POP DUP9 PUSH1 0xF PUSH0 PUSH2 0x100 EXP DUP2 SLOAD DUP2 PUSH20 0xFFFFFFFFFFFFFFFFFFFFFFFFFFFFFFFFFFFFFFFF MUL NOT AND SWAP1 DUP4 PUSH20 0xFFFFFFFFFFFFFFFFFFFFFFFFFFFFFFFFFFFFFFFF AND MUL OR SWAP1 SSTORE POP DUP8 PUSH1 0xD PUSH0 PUSH2 0x100 EXP DUP2 SLOAD DUP2 PUSH20 0xFFFFFFFFFFFFFFFFFFFFFFFFFFFFFFFFFFFFFFFF MUL NOT AND SWAP1 DUP4 PUSH20 0xFFFFFFFFFFFFFFFFFFFFFFFFFFFFFFFFFFFFFFFF AND MUL OR SWAP1 SSTORE POP DUP7 PUSH1 0xE PUSH0 PUSH2 0x100 EXP DUP2 SLOAD DUP2 PUSH20 0xFFFFFFFFFFFFFFFFFFFFFFFFFFFFFFFFFFFFFFFF MUL NOT AND SWAP1 DUP4 PUSH20 0xFFFFFFFFFFFFFFFFFFFFFFFFFFFFFFFFFFFFFFFF AND MUL OR SWAP1 SSTORE POP DUP7 PUSH1 0x10 PUSH0 PUSH2 0x100 EXP DUP2 SLOAD DUP2 PUSH20 0xFFFFFFFFFFFFFFFFFFFFFFFFFFFFFFFFFFFFFFFF MUL NOT AND SWAP1 DUP4 PUSH20 0xFFFFFFFFFFFFFFFFFFFFFFFFFFFFFFFFFFFFFFFF AND MUL OR SWAP1 SSTORE POP DUP6 PUSH1 0x5 PUSH0 PUSH2 0x100 EXP DUP2 SLOAD DUP2 PUSH20 0xFFFFFFFFFFFFFFFFFFFFFFFFFFFFFFFFFFFFFFFF MUL NOT AND SWAP1 DUP4 PUSH20 0xFFFFFFFFFFFFFFFFFFFFFFFFFFFFFFFFFFFFFFFF AND MUL OR SWAP1 SSTORE POP DUP5 PUSH1 0x6 PUSH0 PUSH2 0x100 EXP DUP2 SLOAD DUP2 PUSH20 0xFFFFFFFFFFFFFFFFFFFFFFFFFFFFFFFFFFFFFFFF MUL NOT AND SWAP1 DUP4 PUSH20 0xFFFFFFFFFFFFFFFFFFFFFFFFFFFFFFFFFFFFFFFF AND MUL OR SWAP1 SSTORE POP DUP4 PUSH1 0x11 DUP2 SWAP1 SSTORE POP DUP3 PUSH1 0x2 DUP2 SWAP1 SSTORE POP DUP2 PUSH1 0x3 DUP2 SWAP1 SSTORE POP DUP1 PUSH1 0x4 DUP2 SWAP1 SSTORE POP PUSH2 0x26C PUSH2 0x33D PUSH1 0x20 SHL PUSH1 0x20 SHR JUMP JUMPDEST POP POP POP POP POP POP POP POP POP PUSH2 0x780 JUMP JUMPDEST PUSH0 PUSH1 0x1 PUSH0 SWAP1 SLOAD SWAP1 PUSH2 0x100 EXP SWAP1 DIV PUSH20 0xFFFFFFFFFFFFFFFFFFFFFFFFFFFFFFFFFFFFFFFF AND SWAP1 POP DUP2 PUSH1 0x1 PUSH0 PUSH2 0x100 EXP DUP2 SLOAD DUP2 PUSH20 0xFFFFFFFFFFFFFFFFFFFFFFFFFFFFFFFFFFFFFFFF MUL NOT AND SWAP1 DUP4 PUSH20 0xFFFFFFFFFFFFFFFFFFFFFFFFFFFFFFFFFFFFFFFF AND MUL OR SWAP1 SSTORE POP DUP2 PUSH20 0xFFFFFFFFFFFFFFFFFFFFFFFFFFFFFFFFFFFFFFFF AND DUP2 PUSH20 0xFFFFFFFFFFFFFFFFFFFFFFFFFFFFFFFFFFFFFFFF AND PUSH32 0x8BE0079C531659141344CD1FD0A4F28419497F9722A3DAAFE3B4186F6B6457E0 PUSH1 0x40 MLOAD PUSH1 0x40 MLOAD DUP1 SWAP2 SUB SWAP1 LOG3 POP POP JUMP JUMPDEST PUSH0 DUP1 PUSH1 0xC SLOAD GT ISZERO PUSH2 0x3C4 JUMPI PUSH1 0xA PUSH0 PUSH1 0xC SLOAD DUP2 MSTORE PUSH1 0x20 ADD SWAP1 DUP2 MSTORE PUSH1 0x20 ADD PUSH0 KECCAK256 PUSH1 0x5 ADD PUSH0 SWAP1 SLOAD SWAP1 PUSH2 0x100 EXP SWAP1 DIV PUSH1 0xFF AND PUSH2 0x3AA JUMPI PUSH1 0x40 MLOAD PUSH32 0x8C379A000000000000000000000000000000000000000000000000000000000 DUP2 MSTORE PUSH1 0x4 ADD PUSH2 0x3A1 SWAP1 PUSH2 0x6CC JUMP JUMPDEST PUSH1 0x40 MLOAD DUP1 SWAP2 SUB SWAP1 REVERT JUMPDEST PUSH1 0xA PUSH0 PUSH1 0xC SLOAD DUP2 MSTORE PUSH1 0x20 ADD SWAP1 DUP2 MSTORE PUSH1 0x20 ADD PUSH0 KECCAK256 PUSH1 0x3 ADD SLOAD SWAP1 POP JUMPDEST PUSH0 PUSH1 0x4 SLOAD TIMESTAMP PUSH2 0x3D3 SWAP2 SWAP1 PUSH2 0x717 JUMP JUMPDEST SWAP1 POP PUSH1 0x1 PUSH1 0xC PUSH0 DUP3 DUP3 SLOAD PUSH2 0x3E7 SWAP2 SWAP1 PUSH2 0x717 JUMP JUMPDEST SWAP3 POP POP DUP2 SWAP1 SSTORE POP PUSH1 0x40 MLOAD DUP1 PUSH1 0xC0 ADD PUSH1 0x40 MSTORE DUP1 TIMESTAMP DUP2 MSTORE PUSH1 0x20 ADD DUP3 DUP2 MSTORE PUSH1 0x20 ADD PUSH0 DUP2 MSTORE PUSH1 0x20 ADD DUP4 DUP2 MSTORE PUSH1 0x20 ADD PUSH0 DUP2 MSTORE PUSH1 0x20 ADD PUSH0 ISZERO ISZERO DUP2 MSTORE POP PUSH1 0xA PUSH0 PUSH1 0xC SLOAD DUP2 MSTORE PUSH1 0x20 ADD SWAP1 DUP2 MSTORE PUSH1 0x20 ADD PUSH0 KECCAK256 PUSH0 DUP3 ADD MLOAD DUP2 PUSH0 ADD SSTORE PUSH1 0x20 DUP3 ADD MLOAD DUP2 PUSH1 0x1 ADD SSTORE PUSH1 0x40 DUP3 ADD MLOAD DUP2 PUSH1 0x2 ADD SSTORE PUSH1 0x60 DUP3 ADD MLOAD DUP2 PUSH1 0x3 ADD SSTORE PUSH1 0x80 DUP3 ADD MLOAD DUP2 PUSH1 0x4 ADD SSTORE PUSH1 0xA0 DUP3 ADD MLOAD DUP2 PUSH1 0x5 ADD PUSH0 PUSH2 0x100 EXP DUP2 SLOAD DUP2 PUSH1 0xFF MUL NOT AND SWAP1 DUP4 ISZERO ISZERO MUL OR SWAP1 SSTORE POP SWAP1 POP POP PUSH1 0xC SLOAD PUSH32 0x29DB3DEB62EF2036E5EB93AAD68D2362AEC0711AF592CB365566603BD88651D4 TIMESTAMP DUP4 PUSH1 0x40 MLOAD PUSH2 0x4B6 SWAP3 SWAP2 SWAP1 PUSH2 0x759 JUMP JUMPDEST PUSH1 0x40 MLOAD DUP1 SWAP2 SUB SWAP1 LOG2 POP POP JUMP JUMPDEST PUSH0 DUP1 REVERT JUMPDEST PUSH0 PUSH20 0xFFFFFFFFFFFFFFFFFFFFFFFFFFFFFFFFFFFFFFFF DUP3 AND SWAP1 POP SWAP2 SWAP1 POP JUMP JUMPDEST PUSH0 PUSH2 0x4EF DUP3 PUSH2 0x4C6 JUMP JUMPDEST SWAP1 POP SWAP2 SWAP1 POP JUMP JUMPDEST PUSH2 0x4FF DUP2 PUSH2 0x4E5 JUMP JUMPDEST DUP2 EQ PUSH2 0x509 JUMPI PUSH0 DUP1 REVERT JUMPDEST POP JUMP JUMPDEST PUSH0 DUP2 MLOAD SWAP1 POP PUSH2 0x51A DUP2 PUSH2 0x4F6 JUMP JUMPDEST SWAP3 SWAP2 POP POP JUMP JUMPDEST PUSH0 DUP2 SWAP1 POP SWAP2 SWAP1 POP JUMP JUMPDEST PUSH2 0x532 DUP2 PUSH2 0x520 JUMP JUMPDEST DUP2 EQ PUSH2 0x53C JUMPI PUSH0 DUP1 REVERT JUMPDEST POP JUMP JUMPDEST PUSH0 DUP2 MLOAD SWAP1 POP PUSH2 0x54D DUP2 PUSH2 0x529 JUMP JUMPDEST SWAP3 SWAP2 POP POP JUMP JUMPDEST PUSH0 DUP2 SWAP1 POP SWAP2 SWAP1 POP JUMP JUMPDEST PUSH2 0x565 DUP2 PUSH2 0x553 JUMP JUMPDEST DUP2 EQ PUSH2 0x56F JUMPI PUSH0 DUP1 REVERT JUMPDEST POP JUMP JUMPDEST PUSH0 DUP2 MLOAD SWAP1 POP PUSH2 0x580 DUP2 PUSH2 0x55C JUMP JUMPDEST SWAP3 SWAP2 POP POP JUMP JUMPDEST PUSH0 DUP1 PUSH0 DUP1 PUSH0 DUP1 PUSH0 DUP1 PUSH0 PUSH2 0x120 DUP11 DUP13 SUB SLT ISZERO PUSH2 0x5A4 JUMPI PUSH2 0x5A3 PUSH2 0x4C2 JUMP JUMPDEST JUMPDEST PUSH0 PUSH2 0x5B1 DUP13 DUP3 DUP14 ADD PUSH2 0x50C JUMP JUMPDEST SWAP10 POP POP PUSH1 0x20 PUSH2 0x5C2 DUP13 DUP3 DUP14 ADD PUSH2 0x50C JUMP JUMPDEST SWAP9 POP POP PUSH1 0x40 PUSH2 0x5D3 DUP13 DUP3 DUP14 ADD PUSH2 0x50C JUMP JUMPDEST SWAP8 POP POP PUSH1 0x60 PUSH2 0x5E4 DUP13 DUP3 DUP14 ADD PUSH2 0x50C JUMP JUMPDEST SWAP7 POP POP PUSH1 0x80 PUSH2 0x5F5 DUP13 DUP3 DUP14 ADD PUSH2 0x50C JUMP JUMPDEST SWAP6 POP POP PUSH1 0xA0 PUSH2 0x606 DUP13 DUP3 DUP14 ADD PUSH2 0x53F JUMP JUMPDEST SWAP5 POP POP PUSH1 0xC0 PUSH2 0x617 DUP13 DUP3 DUP14 ADD PUSH2 0x572 JUMP JUMPDEST SWAP4 POP POP PUSH1 0xE0 PUSH2 0x628 DUP13 DUP3 DUP14 ADD PUSH2 0x572 JUMP JUMPDEST SWAP3 POP POP PUSH2 0x100 PUSH2 0x63A DUP13 DUP3 DUP14 ADD PUSH2 0x572 JUMP JUMPDEST SWAP2 POP POP SWAP3 SWAP6 SWAP9 POP SWAP3 SWAP6 SWAP9 POP SWAP3 SWAP6 SWAP9 JUMP JUMPDEST PUSH2 0x653 DUP2 PUSH2 0x4E5 JUMP JUMPDEST DUP3 MSTORE POP POP JUMP JUMPDEST PUSH0 PUSH1 0x20 DUP3 ADD SWAP1 POP PUSH2 0x66C PUSH0 DUP4 ADD DUP5 PUSH2 0x64A JUMP JUMPDEST SWAP3 SWAP2 POP POP JUMP JUMPDEST PUSH0 DUP3 DUP3 MSTORE PUSH1 0x20 DUP3 ADD SWAP1 POP SWAP3 SWAP2 POP POP JUMP JUMPDEST PUSH32 0x50726576696F75732065706F6368206E6F742066696E616C697A656400000000 PUSH0 DUP3 ADD MSTORE POP JUMP JUMPDEST PUSH0 PUSH2 0x6B6 PUSH1 0x1C DUP4 PUSH2 0x672 JUMP JUMPDEST SWAP2 POP PUSH2 0x6C1 DUP3 PUSH2 0x682 JUMP JUMPDEST PUSH1 0x20 DUP3 ADD SWAP1 POP SWAP2 SWAP1 POP JUMP JUMPDEST PUSH0 PUSH1 0x20 DUP3 ADD SWAP1 POP DUP2 DUP2 SUB PUSH0 DUP4 ADD MSTORE PUSH2 0x6E3 DUP2 PUSH2 0x6AA JUMP JUMPDEST SWAP1 POP SWAP2 SWAP1 POP JUMP JUMPDEST PUSH32 0x4E487B7100000000000000000000000000000000000000000000000000000000 PUSH0 MSTORE PUSH1 0x11 PUSH1 0x4 MSTORE PUSH1 0x24 PUSH0 REVERT JUMPDEST PUSH0 PUSH2 0x721 DUP3 PUSH2 0x553 JUMP JUMPDEST SWAP2 POP PUSH2 0x72C DUP4 PUSH2 0x553 JUMP JUMPDEST SWAP3 POP DUP3 DUP3 ADD SWAP1 POP DUP1 DUP3 GT ISZERO PUSH2 0x744 JUMPI PUSH2 0x743 PUSH2 0x6EA JUMP JUMPDEST JUMPDEST SWAP3 SWAP2 POP POP JUMP JUMPDEST PUSH2 0x753 DUP2 PUSH2 0x553 JUMP JUMPDEST DUP3 MSTORE POP POP JUMP JUMPDEST PUSH0 PUSH1 0x40 DUP3 ADD SWAP1 POP PUSH2 0x76C PUSH0 DUP4 ADD DUP6 PUSH2 0x74A JUMP JUMPDEST PUSH2 0x779 PUSH1 0x20 DUP4 ADD DUP5 PUSH2 0x74A JUMP JUMPDEST SWAP4 SWAP3 POP POP POP JUMP JUMPDEST PUSH2 0x5AE7 DUP1 PUSH2 0x78D PUSH0 CODECOPY PUSH0 RETURN INVALID PUSH1 0x80 PUSH1 0x40 MSTORE PUSH1 0x4 CALLDATASIZE LT PUSH2 0x212 JUMPI PUSH0 CALLDATALOAD PUSH1 0xE0 SHR DUP1 PUSH4 0x8DA5CB5B GT PUSH2 0x117 JUMPI DUP1 PUSH4 0xC6B61E4C GT PUSH2 0x9F JUMPI DUP1 PUSH4 0xEE22FD6F GT PUSH2 0x6E JUMPI DUP1 PUSH4 0xEE22FD6F EQ PUSH2 0x75E JUMPI DUP1 PUSH4 0xF2FDE38B EQ PUSH2 0x786 JUMPI DUP1 PUSH4 0xF3DBDFE5 EQ PUSH2 0x7AE JUMPI DUP1 PUSH4 0xF3FD622F EQ PUSH2 0x7EA JUMPI DUP1 PUSH4 0xF98D06F0 EQ PUSH2 0x812 JUMPI PUSH2 0x219 JUMP JUMPDEST DUP1 PUSH4 0xC6B61E4C EQ PUSH2 0x6A3 JUMPI DUP1 PUSH4 0xD6B7494F EQ PUSH2 0x6E4 JUMPI DUP1 PUSH4 0xD8990C11 EQ PUSH2 0x70E JUMPI DUP1 PUSH4 0xD9CD6E39 EQ PUSH2 0x736 JUMPI PUSH2 0x219 JUMP JUMPDEST DUP1 PUSH4 0xA8559A96 GT PUSH2 0xE6 JUMPI DUP1 PUSH4 0xA8559A96 EQ PUSH2 0x5BC JUMPI DUP1 PUSH4 0xA9563E4F EQ PUSH2 0x5E6 JUMPI DUP1 PUSH4 0xAA9BBC0C EQ PUSH2 0x622 JUMPI DUP1 PUSH4 0xB5D5B5FA EQ PUSH2 0x64C JUMPI DUP1 PUSH4 0xB88A802F EQ PUSH2 0x68D JUMPI PUSH2 0x219 JUMP JUMPDEST DUP1 PUSH4 0x8DA5CB5B EQ PUSH2 0x504 JUMPI DUP1 PUSH4 0x91E98F55 EQ PUSH2 0x52E JUMPI DUP1 PUSH4 0x9B23D3D9 EQ PUSH2 0x558 JUMPI DUP1 PUSH4 0xA1BAB447 EQ PUSH2 0x594 JUMPI PUSH2 0x219 JUMP JUMPDEST DUP1 PUSH4 0x55F741FA GT PUSH2 0x19A JUMPI DUP1 PUSH4 0x6EE8CC45 GT PUSH2 0x169 JUMPI DUP1 PUSH4 0x6EE8CC45 EQ PUSH2 0x448 JUMPI DUP1 PUSH4 0x715018A6 EQ PUSH2 0x472 JUMPI DUP1 PUSH4 0x76F70003 EQ PUSH2 0x488 JUMPI DUP1 PUSH4 0x77B53ECE EQ PUSH2 0x4B2 JUMPI DUP1 PUSH4 0x7A04EA99 EQ PUSH2 0x4DC JUMPI PUSH2 0x219 JUMP JUMPDEST DUP1 PUSH4 0x55F741FA EQ PUSH2 0x391 JUMPI DUP1 PUSH4 0x587B47B0 EQ PUSH2 0x3B9 JUMPI DUP1 PUSH4 0x5FEC5C64 EQ PUSH2 0x3E1 JUMPI DUP1 PUSH4 0x618DC65E EQ PUSH2 0x40B JUMPI PUSH2 0x219 JUMP JUMPDEST DUP1 PUSH4 0x1A2A5E15 GT PUSH2 0x1E1 JUMPI DUP1 PUSH4 0x1A2A5E15 EQ PUSH2 0x2C5 JUMPI DUP1 PUSH4 0x2E1A7D4D EQ PUSH2 0x2ED JUMPI DUP1 PUSH4 0x30024DFE EQ PUSH2 0x315 JUMPI DUP1 PUSH4 0x4A9138C6 EQ PUSH2 0x33D JUMPI DUP1 PUSH4 0x4FF0876A EQ PUSH2 0x367 JUMPI PUSH2 0x219 JUMP JUMPDEST DUP1 PUSH4 0x818F6D7 EQ PUSH2 0x21B JUMPI DUP1 PUSH4 0x9716DEE EQ PUSH2 0x243 JUMPI DUP1 PUSH4 0xD07BE2D EQ PUSH2 0x25F JUMPI DUP1 PUSH4 0x15DACBEA EQ PUSH2 0x289 JUMPI PUSH2 0x219 JUMP JUMPDEST CALLDATASIZE PUSH2 0x219 JUMPI STOP JUMPDEST STOP JUMPDEST CALLVALUE DUP1 ISZERO PUSH2 0x226 JUMPI PUSH0 DUP1 REVERT JUMPDEST POP PUSH2 0x241 PUSH1 0x4 DUP1 CALLDATASIZE SUB DUP2 ADD SWAP1 PUSH2 0x23C SWAP2 SWAP1 PUSH2 0x37CD JUMP JUMPDEST PUSH2 0x83C JUMP JUMPDEST STOP JUMPDEST PUSH2 0x25D PUSH1 0x4 DUP1 CALLDATASIZE SUB DUP2 ADD SWAP1 PUSH2 0x258 SWAP2 SWAP1 PUSH2 0x388C JUMP JUMPDEST PUSH2 0x935 JUMP JUMPDEST STOP JUMPDEST CALLVALUE DUP1 ISZERO PUSH2 0x26A JUMPI PUSH0 DUP1 REVERT JUMPDEST POP PUSH2 0x273 PUSH2 0x1263 JUMP JUMPDEST PUSH1 0x40 MLOAD PUSH2 0x280 SWAP2 SWAP1 PUSH2 0x397D JUMP JUMPDEST PUSH1 0x40 MLOAD DUP1 SWAP2 SUB SWAP1 RETURN JUMPDEST CALLVALUE DUP1 ISZERO PUSH2 0x294 JUMPI PUSH0 DUP1 REVERT JUMPDEST POP PUSH2 0x2AF PUSH1 0x4 DUP1 CALLDATASIZE SUB DUP2 ADD SWAP1 PUSH2 0x2AA SWAP2 SWAP1 PUSH2 0x3996 JUMP JUMPDEST PUSH2 0x1288 JUMP JUMPDEST PUSH1 0x40 MLOAD PUSH2 0x2BC SWAP2 SWAP1 PUSH2 0x3A15 JUMP JUMPDEST PUSH1 0x40 MLOAD DUP1 SWAP2 SUB SWAP1 RETURN JUMPDEST CALLVALUE DUP1 ISZERO PUSH2 0x2D0 JUMPI PUSH0 DUP1 REVERT JUMPDEST POP PUSH2 0x2EB PUSH1 0x4 DUP1 CALLDATASIZE SUB DUP2 ADD SWAP1 PUSH2 0x2E6 SWAP2 SWAP1 PUSH2 0x37CD JUMP JUMPDEST PUSH2 0x13A0 JUMP JUMPDEST STOP JUMPDEST CALLVALUE DUP1 ISZERO PUSH2 0x2F8 JUMPI PUSH0 DUP1 REVERT JUMPDEST POP PUSH2 0x313 PUSH1 0x4 DUP1 CALLDATASIZE SUB DUP2 ADD SWAP1 PUSH2 0x30E SWAP2 SWAP1 PUSH2 0x3A2E JUMP JUMPDEST PUSH2 0x1436 JUMP JUMPDEST STOP JUMPDEST CALLVALUE DUP1 ISZERO PUSH2 0x320 JUMPI PUSH0 DUP1 REVERT JUMPDEST POP PUSH2 0x33B PUSH1 0x4 DUP1 CALLDATASIZE SUB DUP2 ADD SWAP1 PUSH2 0x336 SWAP2 SWAP1 PUSH2 0x3A2E JUMP JUMPDEST PUSH2 0x208E JUMP JUMPDEST STOP JUMPDEST CALLVALUE DUP1 ISZERO PUSH2 0x348 JUMPI PUSH0 DUP1 REVERT JUMPDEST POP PUSH2 0x351 PUSH2 0x20E2 JUMP JUMPDEST PUSH1 0x40 MLOAD PUSH2 0x35E SWAP2 SWAP1 PUSH2 0x3A71 JUMP JUMPDEST PUSH1 0x40 MLOAD DUP1 SWAP2 SUB SWAP1 RETURN JUMPDEST CALLVALUE DUP1 ISZERO PUSH2 0x372 JUMPI PUSH0 DUP1 REVERT JUMPDEST POP PUSH2 0x37B PUSH2 0x20E8 JUMP JUMPDEST PUSH1 0x40 MLOAD PUSH2 0x388 SWAP2 SWAP1 PUSH2 0x3A99 JUMP JUMPDEST PUSH1 0x40 MLOAD DUP1 SWAP2 SUB SWAP1 RETURN JUMPDEST CALLVALUE DUP1 ISZERO PUSH2 0x39C JUMPI PUSH0 DUP1 REVERT JUMPDEST POP PUSH2 0x3B7 PUSH1 0x4 DUP1 CALLDATASIZE SUB DUP2 ADD SWAP1 PUSH2 0x3B2 SWAP2 SWAP1 PUSH2 0x37CD JUMP JUMPDEST PUSH2 0x20EE JUMP JUMPDEST STOP JUMPDEST CALLVALUE DUP1 ISZERO PUSH2 0x3C4 JUMPI PUSH0 DUP1 REVERT JUMPDEST POP PUSH2 0x3DF PUSH1 0x4 DUP1 CALLDATASIZE SUB DUP2 ADD SWAP1 PUSH2 0x3DA SWAP2 SWAP1 PUSH2 0x3ADC JUMP JUMPDEST PUSH2 0x21A7 JUMP JUMPDEST STOP JUMPDEST CALLVALUE DUP1 ISZERO PUSH2 0x3EC JUMPI PUSH0 DUP1 REVERT JUMPDEST POP PUSH2 0x3F5 PUSH2 0x21B9 JUMP JUMPDEST PUSH1 0x40 MLOAD PUSH2 0x402 SWAP2 SWAP1 PUSH2 0x3A99 JUMP JUMPDEST PUSH1 0x40 MLOAD DUP1 SWAP2 SUB SWAP1 RETURN JUMPDEST CALLVALUE DUP1 ISZERO PUSH2 0x416 JUMPI PUSH0 DUP1 REVERT JUMPDEST POP PUSH2 0x431 PUSH1 0x4 DUP1 CALLDATASIZE SUB DUP2 ADD SWAP1 PUSH2 0x42C SWAP2 SWAP1 PUSH2 0x3C3F JUMP JUMPDEST PUSH2 0x21BF JUMP JUMPDEST PUSH1 0x40 MLOAD PUSH2 0x43F SWAP3 SWAP2 SWAP1 PUSH2 0x3D11 JUMP JUMPDEST PUSH1 0x40 MLOAD DUP1 SWAP2 SUB SWAP1 RETURN JUMPDEST CALLVALUE DUP1 ISZERO PUSH2 0x453 JUMPI PUSH0 DUP1 REVERT JUMPDEST POP PUSH2 0x45C PUSH2 0x2314 JUMP JUMPDEST PUSH1 0x40 MLOAD PUSH2 0x469 SWAP2 SWAP1 PUSH2 0x3D4E JUMP JUMPDEST PUSH1 0x40 MLOAD DUP1 SWAP2 SUB SWAP1 RETURN JUMPDEST CALLVALUE DUP1 ISZERO PUSH2 0x47D JUMPI PUSH0 DUP1 REVERT JUMPDEST POP PUSH2 0x486 PUSH2 0x2339 JUMP JUMPDEST STOP JUMPDEST CALLVALUE DUP1 ISZERO PUSH2 0x493 JUMPI PUSH0 DUP1 REVERT JUMPDEST POP PUSH2 0x49C PUSH2 0x234C JUMP JUMPDEST PUSH1 0x40 MLOAD PUSH2 0x4A9 SWAP2 SWAP1 PUSH2 0x3A99 JUMP JUMPDEST PUSH1 0x40 MLOAD DUP1 SWAP2 SUB SWAP1 RETURN JUMPDEST CALLVALUE DUP1 ISZERO PUSH2 0x4BD JUMPI PUSH0 DUP1 REVERT JUMPDEST POP PUSH2 0x4C6 PUSH2 0x2352 JUMP JUMPDEST PUSH1 0x40 MLOAD PUSH2 0x4D3 SWAP2 SWAP1 PUSH2 0x3D4E JUMP JUMPDEST PUSH1 0x40 MLOAD DUP1 SWAP2 SUB SWAP1 RETURN JUMPDEST CALLVALUE DUP1 ISZERO PUSH2 0x4E7 JUMPI PUSH0 DUP1 REVERT JUMPDEST POP PUSH2 0x502 PUSH1 0x4 DUP1 CALLDATASIZE SUB DUP2 ADD SWAP1 PUSH2 0x4FD SWAP2 SWAP1 PUSH2 0x37CD JUMP JUMPDEST PUSH2 0x2377 JUMP JUMPDEST STOP JUMPDEST CALLVALUE DUP1 ISZERO PUSH2 0x50F JUMPI PUSH0 DUP1 REVERT JUMPDEST POP PUSH2 0x518 PUSH2 0x2430 JUMP JUMPDEST PUSH1 0x40 MLOAD PUSH2 0x525 SWAP2 SWAP1 PUSH2 0x3D4E JUMP JUMPDEST PUSH1 0x40 MLOAD DUP1 SWAP2 SUB SWAP1 RETURN JUMPDEST CALLVALUE DUP1 ISZERO PUSH2 0x539 JUMPI PUSH0 DUP1 REVERT JUMPDEST POP PUSH2 0x542 PUSH2 0x2458 JUMP JUMPDEST PUSH1 0x40 MLOAD PUSH2 0x54F SWAP2 SWAP1 PUSH2 0x3D4E JUMP JUMPDEST PUSH1 0x40 MLOAD DUP1 SWAP2 SUB SWAP1 RETURN JUMPDEST CALLVALUE DUP1 ISZERO PUSH2 0x563 JUMPI PUSH0 DUP1 REVERT JUMPDEST POP PUSH2 0x57E PUSH1 0x4 DUP1 CALLDATASIZE SUB DUP2 ADD SWAP1 PUSH2 0x579 SWAP2 SWAP1 PUSH2 0x3996 JUMP JUMPDEST PUSH2 0x247D JUMP JUMPDEST PUSH1 0x40 MLOAD PUSH2 0x58B SWAP2 SWAP1 PUSH2 0x3A15 JUMP JUMPDEST PUSH1 0x40 MLOAD DUP1 SWAP2 SUB SWAP1 RETURN JUMPDEST CALLVALUE DUP1 ISZERO PUSH2 0x59F JUMPI PUSH0 DUP1 REVERT JUMPDEST POP PUSH2 0x5BA PUSH1 0x4 DUP1 CALLDATASIZE SUB DUP2 ADD SWAP1 PUSH2 0x5B5 SWAP2 SWAP1 PUSH2 0x3A2E JUMP JUMPDEST PUSH2 0x2595 JUMP JUMPDEST STOP JUMPDEST CALLVALUE DUP1 ISZERO PUSH2 0x5C7 JUMPI PUSH0 DUP1 REVERT JUMPDEST POP PUSH2 0x5D0 PUSH2 0x25EB JUMP JUMPDEST PUSH1 0x40 MLOAD PUSH2 0x5DD SWAP2 SWAP1 PUSH2 0x3D87 JUMP JUMPDEST PUSH1 0x40 MLOAD DUP1 SWAP2 SUB SWAP1 RETURN JUMPDEST CALLVALUE DUP1 ISZERO PUSH2 0x5F1 JUMPI PUSH0 DUP1 REVERT JUMPDEST POP PUSH2 0x60C PUSH1 0x4 DUP1 CALLDATASIZE SUB DUP2 ADD SWAP1 PUSH2 0x607 SWAP2 SWAP1 PUSH2 0x3DA0 JUMP JUMPDEST PUSH2 0x2610 JUMP JUMPDEST PUSH1 0x40 MLOAD PUSH2 0x619 SWAP2 SWAP1 PUSH2 0x3DFB JUMP JUMPDEST PUSH1 0x40 MLOAD DUP1 SWAP2 SUB SWAP1 RETURN JUMPDEST CALLVALUE DUP1 ISZERO PUSH2 0x62D JUMPI PUSH0 DUP1 REVERT JUMPDEST POP PUSH2 0x636 PUSH2 0x263C JUMP JUMPDEST PUSH1 0x40 MLOAD PUSH2 0x643 SWAP2 SWAP1 PUSH2 0x3A99 JUMP JUMPDEST PUSH1 0x40 MLOAD DUP1 SWAP2 SUB SWAP1 RETURN JUMPDEST CALLVALUE DUP1 ISZERO PUSH2 0x657 JUMPI PUSH0 DUP1 REVERT JUMPDEST POP PUSH2 0x672 PUSH1 0x4 DUP1 CALLDATASIZE SUB DUP2 ADD SWAP1 PUSH2 0x66D SWAP2 SWAP1 PUSH2 0x3E14 JUMP JUMPDEST PUSH2 0x2642 JUMP JUMPDEST PUSH1 0x40 MLOAD PUSH2 0x684 SWAP7 SWAP6 SWAP5 SWAP4 SWAP3 SWAP2 SWAP1 PUSH2 0x3E52 JUMP JUMPDEST PUSH1 0x40 MLOAD DUP1 SWAP2 SUB SWAP1 RETURN JUMPDEST CALLVALUE DUP1 ISZERO PUSH2 0x698 JUMPI PUSH0 DUP1 REVERT JUMPDEST POP PUSH2 0x6A1 PUSH2 0x26B3 JUMP JUMPDEST STOP JUMPDEST CALLVALUE DUP1 ISZERO PUSH2 0x6AE JUMPI PUSH0 DUP1 REVERT JUMPDEST POP PUSH2 0x6C9 PUSH1 0x4 DUP1 CALLDATASIZE SUB DUP2 ADD SWAP1 PUSH2 0x6C4 SWAP2 SWAP1 PUSH2 0x3A2E JUMP JUMPDEST PUSH2 0x26CD JUMP JUMPDEST PUSH1 0x40 MLOAD PUSH2 0x6DB SWAP7 SWAP6 SWAP5 SWAP4 SWAP3 SWAP2 SWAP1 PUSH2 0x3ECB JUMP JUMPDEST PUSH1 0x40 MLOAD DUP1 SWAP2 SUB SWAP1 RETURN JUMPDEST CALLVALUE DUP1 ISZERO PUSH2 0x6EF JUMPI PUSH0 DUP1 REVERT JUMPDEST POP PUSH2 0x6F8 PUSH2 0x2711 JUMP JUMPDEST PUSH1 0x40 MLOAD PUSH2 0x705 SWAP2 SWAP1 PUSH2 0x3A99 JUMP JUMPDEST PUSH1 0x40 MLOAD DUP1 SWAP2 SUB SWAP1 RETURN JUMPDEST CALLVALUE DUP1 ISZERO PUSH2 0x719 JUMPI PUSH0 DUP1 REVERT JUMPDEST POP PUSH2 0x734 PUSH1 0x4 DUP1 CALLDATASIZE SUB DUP2 ADD SWAP1 PUSH2 0x72F SWAP2 SWAP1 PUSH2 0x3F2A JUMP JUMPDEST PUSH2 0x2717 JUMP JUMPDEST STOP JUMPDEST CALLVALUE DUP1 ISZERO PUSH2 0x741 JUMPI PUSH0 DUP1 REVERT JUMPDEST POP PUSH2 0x75C PUSH1 0x4 DUP1 CALLDATASIZE SUB DUP2 ADD SWAP1 PUSH2 0x757 SWAP2 SWAP1 PUSH2 0x3F92 JUMP JUMPDEST PUSH2 0x2773 JUMP JUMPDEST STOP JUMPDEST CALLVALUE DUP1 ISZERO PUSH2 0x769 JUMPI PUSH0 DUP1 REVERT JUMPDEST POP PUSH2 0x784 PUSH1 0x4 DUP1 CALLDATASIZE SUB DUP2 ADD SWAP1 PUSH2 0x77F SWAP2 SWAP1 PUSH2 0x37CD JUMP JUMPDEST PUSH2 0x285B JUMP JUMPDEST STOP JUMPDEST CALLVALUE DUP1 ISZERO PUSH2 0x791 JUMPI PUSH0 DUP1 REVERT JUMPDEST POP PUSH2 0x7AC PUSH1 0x4 DUP1 CALLDATASIZE SUB DUP2 ADD SWAP1 PUSH2 0x7A7 SWAP2 SWAP1 PUSH2 0x37CD JUMP JUMPDEST PUSH2 0x2914 JUMP JUMPDEST STOP JUMPDEST CALLVALUE DUP1 ISZERO PUSH2 0x7B9 JUMPI PUSH0 DUP1 REVERT JUMPDEST POP PUSH2 0x7D4 PUSH1 0x4 DUP1 CALLDATASIZE SUB DUP2 ADD SWAP1 PUSH2 0x7CF SWAP2 SWAP1 PUSH2 0x37CD JUMP JUMPDEST PUSH2 0x2998 JUMP JUMPDEST PUSH1 0x40 MLOAD PUSH2 0x7E1 SWAP2 SWAP1 PUSH2 0x3A99 JUMP JUMPDEST PUSH1 0x40 MLOAD DUP1 SWAP2 SUB SWAP1 RETURN JUMPDEST CALLVALUE DUP1 ISZERO PUSH2 0x7F5 JUMPI PUSH0 DUP1 REVERT JUMPDEST POP PUSH2 0x810 PUSH1 0x4 DUP1 CALLDATASIZE SUB DUP2 ADD SWAP1 PUSH2 0x80B SWAP2 SWAP1 PUSH2 0x37CD JUMP JUMPDEST PUSH2 0x29AD JUMP JUMPDEST STOP JUMPDEST CALLVALUE DUP1 ISZERO PUSH2 0x81D JUMPI PUSH0 DUP1 REVERT JUMPDEST POP PUSH2 0x826 PUSH2 0x2A66 JUMP JUMPDEST PUSH1 0x40 MLOAD PUSH2 0x833 SWAP2 SWAP1 PUSH2 0x4002 JUMP JUMPDEST PUSH1 0x40 MLOAD DUP1 SWAP2 SUB SWAP1 RETURN JUMPDEST PUSH2 0x844 PUSH2 0x2A8B JUMP JUMPDEST PUSH0 PUSH20 0xFFFFFFFFFFFFFFFFFFFFFFFFFFFFFFFFFFFFFFFF AND DUP2 PUSH20 0xFFFFFFFFFFFFFFFFFFFFFFFFFFFFFFFFFFFFFFFF AND SUB PUSH2 0x8B2 JUMPI PUSH1 0x40 MLOAD PUSH32 0x8C379A000000000000000000000000000000000000000000000000000000000 DUP2 MSTORE PUSH1 0x4 ADD PUSH2 0x8A9 SWAP1 PUSH2 0x4075 JUMP JUMPDEST PUSH1 0x40 MLOAD DUP1 SWAP2 SUB SWAP1 REVERT JUMPDEST DUP1 PUSH1 0xE PUSH0 PUSH2 0x100 EXP DUP2 SLOAD DUP2 PUSH20 0xFFFFFFFFFFFFFFFFFFFFFFFFFFFFFFFFFFFFFFFF MUL NOT AND SWAP1 DUP4 PUSH20 0xFFFFFFFFFFFFFFFFFFFFFFFFFFFFFFFFFFFFFFFF AND MUL OR SWAP1 SSTORE POP DUP1 PUSH1 0x10 PUSH0 PUSH2 0x100 EXP DUP2 SLOAD DUP2 PUSH20 0xFFFFFFFFFFFFFFFFFFFFFFFFFFFFFFFFFFFFFFFF MUL NOT AND SWAP1 DUP4 PUSH20 0xFFFFFFFFFFFFFFFFFFFFFFFFFFFFFFFFFFFFFFFF AND MUL OR SWAP1 SSTORE POP POP JUMP JUMPDEST PUSH2 0x93D PUSH2 0x2B12 JUMP JUMPDEST PUSH0 PUSH1 0xA PUSH0 PUSH1 0xC SLOAD DUP2 MSTORE PUSH1 0x20 ADD SWAP1 DUP2 MSTORE PUSH1 0x20 ADD PUSH0 KECCAK256 SWAP1 POP DUP1 PUSH1 0x1 ADD SLOAD TIMESTAMP GT DUP1 ISZERO PUSH2 0x974 JUMPI POP DUP1 PUSH1 0x5 ADD PUSH0 SWAP1 SLOAD SWAP1 PUSH2 0x100 EXP SWAP1 DIV PUSH1 0xFF AND ISZERO JUMPDEST ISZERO PUSH2 0x98A JUMPI PUSH2 0x981 PUSH2 0x2B56 JUMP JUMPDEST PUSH2 0x989 PUSH2 0x2CA4 JUMP JUMPDEST JUMPDEST PUSH0 DUP7 GT PUSH2 0x9CC JUMPI PUSH1 0x40 MLOAD PUSH32 0x8C379A000000000000000000000000000000000000000000000000000000000 DUP2 MSTORE PUSH1 0x4 ADD PUSH2 0x9C3 SWAP1 PUSH2 0x40DD JUMP JUMPDEST PUSH1 0x40 MLOAD DUP1 SWAP2 SUB SWAP1 REVERT JUMPDEST PUSH1 0x2 SLOAD DUP6 LT ISZERO DUP1 ISZERO PUSH2 0x9E0 JUMPI POP PUSH1 0x3 SLOAD DUP6 GT ISZERO JUMPDEST PUSH2 0xA1F JUMPI PUSH1 0x40 MLOAD PUSH32 0x8C379A000000000000000000000000000000000000000000000000000000000 DUP2 MSTORE PUSH1 0x4 ADD PUSH2 0xA16 SWAP1 PUSH2 0x4145 JUMP JUMPDEST PUSH1 0x40 MLOAD DUP1 SWAP2 SUB SWAP1 REVERT JUMPDEST PUSH1 0xA PUSH1 0x9 PUSH0 CALLER PUSH20 0xFFFFFFFFFFFFFFFFFFFFFFFFFFFFFFFFFFFFFFFF AND PUSH20 0xFFFFFFFFFFFFFFFFFFFFFFFFFFFFFFFFFFFFFFFF AND DUP2 MSTORE PUSH1 0x20 ADD SWAP1 DUP2 MSTORE PUSH1 0x20 ADD PUSH0 KECCAK256 DUP1 SLOAD SWAP1 POP LT PUSH2 0xAA2 JUMPI PUSH1 0x40 MLOAD PUSH32 0x8C379A000000000000000000000000000000000000000000000000000000000 DUP2 MSTORE PUSH1 0x4 ADD PUSH2 0xA99 SWAP1 PUSH2 0x41D3 JUMP JUMPDEST PUSH1 0x40 MLOAD DUP1 SWAP2 SUB SWAP1 REVERT JUMPDEST PUSH0 DUP1 DUP8 SWAP1 POP PUSH0 PUSH20 0xFFFFFFFFFFFFFFFFFFFFFFFFFFFFFFFFFFFFFFFF AND DUP10 PUSH20 0xFFFFFFFFFFFFFFFFFFFFFFFFFFFFFFFFFFFFFFFF AND SUB PUSH2 0xDAB JUMPI DUP8 CALLVALUE EQ PUSH2 0xB1C JUMPI PUSH1 0x40 MLOAD PUSH32 0x8C379A000000000000000000000000000000000000000000000000000000000 DUP2 MSTORE PUSH1 0x4 ADD PUSH2 0xB13 SWAP1 PUSH2 0x423B JUMP JUMPDEST PUSH1 0x40 MLOAD DUP1 SWAP2 SUB SWAP1 REVERT JUMPDEST PUSH0 PUSH1 0xF PUSH0 SWAP1 SLOAD SWAP1 PUSH2 0x100 EXP SWAP1 DIV PUSH20 0xFFFFFFFFFFFFFFFFFFFFFFFFFFFFFFFFFFFFFFFF AND PUSH20 0xFFFFFFFFFFFFFFFFFFFFFFFFFFFFFFFFFFFFFFFF AND PUSH4 0xD47EED45 DUP8 DUP8 PUSH1 0x40 MLOAD DUP4 PUSH4 0xFFFFFFFF AND PUSH1 0xE0 SHL DUP2 MSTORE PUSH1 0x4 ADD PUSH2 0xB79 SWAP3 SWAP2 SWAP1 PUSH2 0x43B1 JUMP JUMPDEST PUSH1 0x20 PUSH1 0x40 MLOAD DUP1 DUP4 SUB DUP2 DUP7 GAS STATICCALL ISZERO DUP1 ISZERO PUSH2 0xB94 JUMPI RETURNDATASIZE PUSH0 DUP1 RETURNDATACOPY RETURNDATASIZE PUSH0 REVERT JUMPDEST POP POP POP POP PUSH1 0x40 MLOAD RETURNDATASIZE PUSH1 0x1F NOT PUSH1 0x1F DUP3 ADD AND DUP3 ADD DUP1 PUSH1 0x40 MSTORE POP DUP2 ADD SWAP1 PUSH2 0xBB8 SWAP2 SWAP1 PUSH2 0x43E7 JUMP JUMPDEST SWAP1 POP DUP1 DUP3 PUSH2 0xBC6 SWAP2 SWAP1 PUSH2 0x443F JUMP JUMPDEST SWAP2 POP PUSH1 0xF PUSH0 SWAP1 SLOAD SWAP1 PUSH2 0x100 EXP SWAP1 DIV PUSH20 0xFFFFFFFFFFFFFFFFFFFFFFFFFFFFFFFFFFFFFFFF AND PUSH20 0xFFFFFFFFFFFFFFFFFFFFFFFFFFFFFFFFFFFFFFFF AND PUSH4 0xEF9E5E28 DUP3 DUP9 DUP9 PUSH1 0x40 MLOAD DUP5 PUSH4 0xFFFFFFFF AND PUSH1 0xE0 SHL DUP2 MSTORE PUSH1 0x4 ADD PUSH2 0xC25 SWAP3 SWAP2 SWAP1 PUSH2 0x43B1 JUMP JUMPDEST PUSH0 PUSH1 0x40 MLOAD DUP1 DUP4 SUB DUP2 DUP6 DUP9 DUP1 EXTCODESIZE ISZERO DUP1 ISZERO PUSH2 0xC3C JUMPI PUSH0 DUP1 REVERT JUMPDEST POP GAS CALL ISZERO DUP1 ISZERO PUSH2 0xC4E JUMPI RETURNDATASIZE PUSH0 DUP1 RETURNDATACOPY RETURNDATASIZE PUSH0 REVERT JUMPDEST POP POP POP POP POP PUSH0 PUSH1 0xF PUSH0 SWAP1 SLOAD SWAP1 PUSH2 0x100 EXP SWAP1 DIV PUSH20 0xFFFFFFFFFFFFFFFFFFFFFFFFFFFFFFFFFFFFFFFF AND PUSH20 0xFFFFFFFFFFFFFFFFFFFFFFFFFFFFFFFFFFFFFFFF AND PUSH4 0xA4AE35E0 PUSH1 0x11 SLOAD PUSH1 0x3C PUSH1 0x40 MLOAD DUP4 PUSH4 0xFFFFFFFF AND PUSH1 0xE0 SHL DUP2 MSTORE PUSH1 0x4 ADD PUSH2 0xCB3 SWAP3 SWAP2 SWAP1 PUSH2 0x44AB JUMP JUMPDEST PUSH1 0x80 PUSH1 0x40 MLOAD DUP1 DUP4 SUB DUP2 DUP7 GAS STATICCALL ISZERO DUP1 ISZERO PUSH2 0xCCE JUMPI RETURNDATASIZE PUSH0 DUP1 RETURNDATACOPY RETURNDATASIZE PUSH0 REVERT JUMPDEST POP POP POP POP PUSH1 0x40 MLOAD RETURNDATASIZE PUSH1 0x1F NOT PUSH1 0x1F DUP3 ADD AND DUP3 ADD DUP1 PUSH1 0x40 MSTORE POP DUP2 ADD SWAP1 PUSH2 0xCF2 SWAP2 SWAP1 PUSH2 0x45E8 JUMP JUMPDEST SWAP1 POP PUSH0 DUP2 PUSH1 0x40 ADD MLOAD PUSH2 0xD03 SWAP1 PUSH2 0x4613 JUMP JUMPDEST PUSH4 0xFFFFFFFF AND PUSH1 0xA PUSH2 0xD15 SWAP2 SWAP1 PUSH2 0x4788 JUMP JUMPDEST PUSH8 0xDE0B6B3A7640000 DUP4 PUSH0 ADD MLOAD PUSH1 0x7 SIGNEXTEND PUSH2 0xD2F SWAP2 SWAP1 PUSH2 0x47D2 JUMP JUMPDEST PUSH2 0xD39 SWAP2 SWAP1 PUSH2 0x4840 JUMP JUMPDEST SWAP1 POP PUSH11 0x52B7D2DCC80CD2E4000000 DUP5 DUP3 PUSH2 0xD53 SWAP2 SWAP1 PUSH2 0x47D2 JUMP JUMPDEST PUSH2 0xD5D SWAP2 SWAP1 PUSH2 0x4840 JUMP JUMPDEST SWAP5 POP PUSH1 0x1 DUP6 LT ISZERO PUSH2 0xDA3 JUMPI PUSH1 0x40 MLOAD PUSH32 0x8C379A000000000000000000000000000000000000000000000000000000000 DUP2 MSTORE PUSH1 0x4 ADD PUSH2 0xD9A SWAP1 PUSH2 0x48BA JUMP JUMPDEST PUSH1 0x40 MLOAD DUP1 SWAP2 SUB SWAP1 REVERT JUMPDEST POP POP POP PUSH2 0xFD4 JUMP JUMPDEST PUSH0 PUSH2 0xE7F DUP11 PUSH1 0x7 PUSH0 DUP14 PUSH20 0xFFFFFFFFFFFFFFFFFFFFFFFFFFFFFFFFFFFFFFFF AND PUSH20 0xFFFFFFFFFFFFFFFFFFFFFFFFFFFFFFFFFFFFFFFF AND DUP2 MSTORE PUSH1 0x20 ADD SWAP1 DUP2 MSTORE PUSH1 0x20 ADD PUSH0 KECCAK256 PUSH0 PUSH1 0x5 PUSH0 SWAP1 SLOAD SWAP1 PUSH2 0x100 EXP SWAP1 DIV PUSH20 0xFFFFFFFFFFFFFFFFFFFFFFFFFFFFFFFFFFFFFFFF AND PUSH20 0xFFFFFFFFFFFFFFFFFFFFFFFFFFFFFFFFFFFFFFFF AND PUSH20 0xFFFFFFFFFFFFFFFFFFFFFFFFFFFFFFFFFFFFFFFF AND DUP2 MSTORE PUSH1 0x20 ADD SWAP1 DUP2 MSTORE PUSH1 0x20 ADD PUSH0 KECCAK256 PUSH0 SWAP1 SLOAD SWAP1 PUSH2 0x100 EXP SWAP1 DIV PUSH3 0xFFFFFF AND PUSH1 0x5 PUSH0 SWAP1 SLOAD SWAP1 PUSH2 0x100 EXP SWAP1 DIV PUSH20 0xFFFFFFFFFFFFFFFFFFFFFFFFFFFFFFFFFFFFFFFF AND PUSH2 0x2E29 JUMP JUMPDEST SWAP1 POP PUSH0 PUSH1 0xD PUSH0 SWAP1 SLOAD SWAP1 PUSH2 0x100 EXP SWAP1 DIV PUSH20 0xFFFFFFFFFFFFFFFFFFFFFFFFFFFFFFFFFFFFFFFF AND PUSH20 0xFFFFFFFFFFFFFFFFFFFFFFFFFFFFFFFFFFFFFFFF AND PUSH4 0xCDCA1753 DUP4 DUP13 PUSH1 0x40 MLOAD DUP4 PUSH4 0xFFFFFFFF AND PUSH1 0xE0 SHL DUP2 MSTORE PUSH1 0x4 ADD PUSH2 0xEDE SWAP3 SWAP2 SWAP1 PUSH2 0x48D8 JUMP JUMPDEST PUSH0 PUSH1 0x40 MLOAD DUP1 DUP4 SUB DUP2 PUSH0 DUP8 GAS CALL ISZERO DUP1 ISZERO PUSH2 0xEF9 JUMPI RETURNDATASIZE PUSH0 DUP1 RETURNDATACOPY RETURNDATASIZE PUSH0 REVERT JUMPDEST POP POP POP POP PUSH1 0x40 MLOAD RETURNDATASIZE PUSH0 DUP3 RETURNDATACOPY RETURNDATASIZE PUSH1 0x1F NOT PUSH1 0x1F DUP3 ADD AND DUP3 ADD DUP1 PUSH1 0x40 MSTORE POP DUP2 ADD SWAP1 PUSH2 0xF21 SWAP2 SWAP1 PUSH2 0x4AE9 JUMP JUMPDEST POP POP POP SWAP1 POP PUSH3 0xF4240 DUP2 PUSH2 0xF35 SWAP2 SWAP1 PUSH2 0x4840 JUMP JUMPDEST SWAP4 POP PUSH1 0x1 DUP5 LT ISZERO PUSH2 0xF7B JUMPI PUSH1 0x40 MLOAD PUSH32 0x8C379A000000000000000000000000000000000000000000000000000000000 DUP2 MSTORE PUSH1 0x4 ADD PUSH2 0xF72 SWAP1 PUSH2 0x48BA JUMP JUMPDEST PUSH1 0x40 MLOAD DUP1 SWAP2 SUB SWAP1 REVERT JUMPDEST PUSH0 PUSH2 0xF88 DUP13 CALLER ADDRESS DUP15 PUSH2 0x2E58 JUMP JUMPDEST SWAP1 POP PUSH1 0x16 PUSH1 0x3 SIGNEXTEND DUP2 EQ PUSH2 0xFD0 JUMPI PUSH1 0x40 MLOAD PUSH32 0x8C379A000000000000000000000000000000000000000000000000000000000 DUP2 MSTORE PUSH1 0x4 ADD PUSH2 0xFC7 SWAP1 PUSH2 0x4BCF JUMP JUMPDEST PUSH1 0x40 MLOAD DUP1 SWAP2 SUB SWAP1 REVERT JUMPDEST POP POP POP JUMPDEST PUSH0 DUP8 DUP4 PUSH2 0xFE1 SWAP2 SWAP1 PUSH2 0x47D2 JUMP JUMPDEST SWAP1 POP PUSH0 DUP8 GT ISZERO PUSH2 0xFF8 JUMPI PUSH2 0xFF5 DUP2 DUP9 PUSH2 0x2F70 JUMP JUMPDEST SWAP1 POP JUMPDEST PUSH1 0x9 PUSH0 CALLER PUSH20 0xFFFFFFFFFFFFFFFFFFFFFFFFFFFFFFFFFFFFFFFF AND PUSH20 0xFFFFFFFFFFFFFFFFFFFFFFFFFFFFFFFFFFFFFFFF AND DUP2 MSTORE PUSH1 0x20 ADD SWAP1 DUP2 MSTORE PUSH1 0x20 ADD PUSH0 KECCAK256 PUSH1 0x40 MLOAD DUP1 PUSH1 0xC0 ADD PUSH1 0x40 MSTORE DUP1 DUP13 PUSH20 0xFFFFFFFFFFFFFFFFFFFFFFFFFFFFFFFFFFFFFFFF AND DUP2 MSTORE PUSH1 0x20 ADD DUP5 DUP2 MSTORE PUSH1 0x20 ADD TIMESTAMP DUP2 MSTORE PUSH1 0x20 ADD DUP11 TIMESTAMP PUSH2 0x1074 SWAP2 SWAP1 PUSH2 0x4BED JUMP JUMPDEST DUP2 MSTORE PUSH1 0x20 ADD DUP4 DUP2 MSTORE PUSH1 0x20 ADD PUSH1 0xC SLOAD DUP2 MSTORE POP SWAP1 DUP1 PUSH1 0x1 DUP2 SLOAD ADD DUP1 DUP3 SSTORE DUP1 SWAP2 POP POP PUSH1 0x1 SWAP1 SUB SWAP1 PUSH0 MSTORE PUSH1 0x20 PUSH0 KECCAK256 SWAP1 PUSH1 0x6 MUL ADD PUSH0 SWAP1 SWAP2 SWAP1 SWAP2 SWAP1 SWAP2 POP PUSH0 DUP3 ADD MLOAD DUP2 PUSH0 ADD PUSH0 PUSH2 0x100 EXP DUP2 SLOAD DUP2 PUSH20 0xFFFFFFFFFFFFFFFFFFFFFFFFFFFFFFFFFFFFFFFF MUL NOT AND SWAP1 DUP4 PUSH20 0xFFFFFFFFFFFFFFFFFFFFFFFFFFFFFFFFFFFFFFFF AND MUL OR SWAP1 SSTORE POP PUSH1 0x20 DUP3 ADD MLOAD DUP2 PUSH1 0x1 ADD SSTORE PUSH1 0x40 DUP3 ADD MLOAD DUP2 PUSH1 0x2 ADD SSTORE PUSH1 0x60 DUP3 ADD MLOAD DUP2 PUSH1 0x3 ADD SSTORE PUSH1 0x80 DUP3 ADD MLOAD DUP2 PUSH1 0x4 ADD SSTORE PUSH1 0xA0 DUP3 ADD MLOAD DUP2 PUSH1 0x5 ADD SSTORE POP POP DUP9 PUSH1 0x8 PUSH0 DUP13 PUSH20 0xFFFFFFFFFFFFFFFFFFFFFFFFFFFFFFFFFFFFFFFF AND PUSH20 0xFFFFFFFFFFFFFFFFFFFFFFFFFFFFFFFFFFFFFFFF AND DUP2 MSTORE PUSH1 0x20 ADD SWAP1 DUP2 MSTORE PUSH1 0x20 ADD PUSH0 KECCAK256 PUSH0 DUP3 DUP3 SLOAD PUSH2 0x116F SWAP2 SWAP1 PUSH2 0x4BED JUMP JUMPDEST SWAP3 POP POP DUP2 SWAP1 SSTORE POP DUP1 PUSH1 0xA PUSH0 PUSH1 0xC SLOAD DUP2 MSTORE PUSH1 0x20 ADD SWAP1 DUP2 MSTORE PUSH1 0x20 ADD PUSH0 KECCAK256 PUSH1 0x3 ADD PUSH0 DUP3 DUP3 SLOAD PUSH2 0x119B SWAP2 SWAP1 PUSH2 0x4BED JUMP JUMPDEST SWAP3 POP POP DUP2 SWAP1 SSTORE POP CALLER PUSH20 0xFFFFFFFFFFFFFFFFFFFFFFFFFFFFFFFFFFFFFFFF AND PUSH32 0x902788162368FCC78AD80DE846B620B397DE2884386DBFF8339FB699955DACC5 DUP4 TIMESTAMP DUP12 TIMESTAMP PUSH2 0x11E8 SWAP2 SWAP1 PUSH2 0x4BED JUMP JUMPDEST PUSH1 0x1 PUSH1 0x9 PUSH0 CALLER PUSH20 0xFFFFFFFFFFFFFFFFFFFFFFFFFFFFFFFFFFFFFFFF AND PUSH20 0xFFFFFFFFFFFFFFFFFFFFFFFFFFFFFFFFFFFFFFFF AND DUP2 MSTORE PUSH1 0x20 ADD SWAP1 DUP2 MSTORE PUSH1 0x20 ADD PUSH0 KECCAK256 DUP1 SLOAD SWAP1 POP PUSH2 0x1235 SWAP2 SWAP1 PUSH2 0x443F JUMP JUMPDEST DUP16 PUSH1 0x40 MLOAD PUSH2 0x1247 SWAP6 SWAP5 SWAP4 SWAP3 SWAP2 SWAP1 PUSH2 0x4C20 JUMP JUMPDEST PUSH1 0x40 MLOAD DUP1 SWAP2 SUB SWAP1 LOG2 POP POP POP POP PUSH2 0x125B PUSH2 0x2FDC JUMP JUMPDEST POP POP POP POP POP POP JUMP JUMPDEST PUSH1 0xE PUSH0 SWAP1 SLOAD SWAP1 PUSH2 0x100 EXP SWAP1 DIV PUSH20 0xFFFFFFFFFFFFFFFFFFFFFFFFFFFFFFFFFFFFFFFF AND DUP2 JUMP JUMPDEST PUSH0 DUP1 PUSH0 PUSH2 0x167 PUSH20 0xFFFFFFFFFFFFFFFFFFFFFFFFFFFFFFFFFFFFFFFF AND PUSH4 0x15DACBEA PUSH1 0xE0 SHL DUP9 DUP9 DUP9 DUP9 PUSH1 0x40 MLOAD PUSH1 0x24 ADD PUSH2 0x12C3 SWAP5 SWAP4 SWAP3 SWAP2 SWAP1 PUSH2 0x4C71 JUMP JUMPDEST PUSH1 0x40 MLOAD PUSH1 0x20 DUP2 DUP4 SUB SUB DUP2 MSTORE SWAP1 PUSH1 0x40 MSTORE SWAP1 PUSH28 0xFFFFFFFFFFFFFFFFFFFFFFFFFFFFFFFFFFFFFFFFFFFFFFFFFFFFFFFF NOT AND PUSH1 0x20 DUP3 ADD DUP1 MLOAD PUSH28 0xFFFFFFFFFFFFFFFFFFFFFFFFFFFFFFFFFFFFFFFFFFFFFFFFFFFFFFFF DUP4 DUP2 DUP4 AND OR DUP4 MSTORE POP POP POP POP PUSH1 0x40 MLOAD PUSH2 0x132D SWAP2 SWAP1 PUSH2 0x4CEE JUMP JUMPDEST PUSH0 PUSH1 0x40 MLOAD DUP1 DUP4 SUB DUP2 PUSH0 DUP7 GAS CALL SWAP2 POP POP RETURNDATASIZE DUP1 PUSH0 DUP2 EQ PUSH2 0x1366 JUMPI PUSH1 0x40 MLOAD SWAP2 POP PUSH1 0x1F NOT PUSH1 0x3F RETURNDATASIZE ADD AND DUP3 ADD PUSH1 0x40 MSTORE RETURNDATASIZE DUP3 MSTORE RETURNDATASIZE PUSH0 PUSH1 0x20 DUP5 ADD RETURNDATACOPY PUSH2 0x136B JUMP JUMPDEST PUSH1 0x60 SWAP2 POP JUMPDEST POP SWAP2 POP SWAP2 POP DUP2 PUSH2 0x137C JUMPI PUSH1 0x15 PUSH2 0x1391 JUMP JUMPDEST DUP1 DUP1 PUSH1 0x20 ADD SWAP1 MLOAD DUP2 ADD SWAP1 PUSH2 0x1390 SWAP2 SWAP1 PUSH2 0x4D04 JUMP JUMPDEST JUMPDEST PUSH1 0x3 SIGNEXTEND SWAP3 POP POP POP SWAP5 SWAP4 POP POP POP POP JUMP JUMPDEST PUSH2 0x13A8 PUSH2 0x2A8B JUMP JUMPDEST PUSH0 PUSH2 0x13B3 ADDRESS DUP4 PUSH2 0x2FE5 JUMP JUMPDEST SWAP1 POP PUSH1 0x16 PUSH1 0x3 SIGNEXTEND DUP2 EQ PUSH2 0x13FB JUMPI PUSH1 0x40 MLOAD PUSH32 0x8C379A000000000000000000000000000000000000000000000000000000000 DUP2 MSTORE PUSH1 0x4 ADD PUSH2 0x13F2 SWAP1 PUSH2 0x4D79 JUMP JUMPDEST PUSH1 0x40 MLOAD DUP1 SWAP2 SUB SWAP1 REVERT JUMPDEST PUSH32 0xBBBF805EF99CA7D0B7D2CC769719F2A281C9B3331A3642EFA75A712E3094A166 DUP3 PUSH1 0x40 MLOAD PUSH2 0x142A SWAP2 SWAP1 PUSH2 0x3D4E JUMP JUMPDEST PUSH1 0x40 MLOAD DUP1 SWAP2 SUB SWAP1 LOG1 POP POP JUMP JUMPDEST PUSH2 0x143E PUSH2 0x2B12 JUMP JUMPDEST PUSH0 PUSH1 0xA PUSH0 PUSH1 0xC SLOAD DUP2 MSTORE PUSH1 0x20 ADD SWAP1 DUP2 MSTORE PUSH1 0x20 ADD PUSH0 KECCAK256 SWAP1 POP DUP1 PUSH1 0x1 ADD SLOAD TIMESTAMP GT DUP1 ISZERO PUSH2 0x1475 JUMPI POP DUP1 PUSH1 0x5 ADD PUSH0 SWAP1 SLOAD SWAP1 PUSH2 0x100 EXP SWAP1 DIV PUSH1 0xFF AND ISZERO JUMPDEST ISZERO PUSH2 0x148B JUMPI PUSH2 0x1482 PUSH2 0x2B56 JUMP JUMPDEST PUSH2 0x148A PUSH2 0x2CA4 JUMP JUMPDEST JUMPDEST PUSH2 0x1493 PUSH2 0x30F7 JUMP JUMPDEST PUSH0 PUSH1 0x9 PUSH0 CALLER PUSH20 0xFFFFFFFFFFFFFFFFFFFFFFFFFFFFFFFFFFFFFFFF AND PUSH20 0xFFFFFFFFFFFFFFFFFFFFFFFFFFFFFFFFFFFFFFFF AND DUP2 MSTORE PUSH1 0x20 ADD SWAP1 DUP2 MSTORE PUSH1 0x20 ADD PUSH0 KECCAK256 DUP1 SLOAD SWAP1 POP SWAP1 POP DUP1 DUP4 LT PUSH2 0x1519 JUMPI PUSH1 0x40 MLOAD PUSH32 0x8C379A000000000000000000000000000000000000000000000000000000000 DUP2 MSTORE PUSH1 0x4 ADD PUSH2 0x1510 SWAP1 PUSH2 0x4DE1 JUMP JUMPDEST PUSH1 0x40 MLOAD DUP1 SWAP2 SUB SWAP1 REVERT JUMPDEST PUSH0 PUSH1 0x9 PUSH0 CALLER PUSH20 0xFFFFFFFFFFFFFFFFFFFFFFFFFFFFFFFFFFFFFFFF AND PUSH20 0xFFFFFFFFFFFFFFFFFFFFFFFFFFFFFFFFFFFFFFFF AND DUP2 MSTORE PUSH1 0x20 ADD SWAP1 DUP2 MSTORE PUSH1 0x20 ADD PUSH0 KECCAK256 DUP5 DUP2 SLOAD DUP2 LT PUSH2 0x1569 JUMPI PUSH2 0x1568 PUSH2 0x4DFF JUMP JUMPDEST JUMPDEST SWAP1 PUSH0 MSTORE PUSH1 0x20 PUSH0 KECCAK256 SWAP1 PUSH1 0x6 MUL ADD SWAP1 POP PUSH0 DUP2 PUSH1 0x1 ADD SLOAD GT PUSH2 0x15BD JUMPI PUSH1 0x40 MLOAD PUSH32 0x8C379A000000000000000000000000000000000000000000000000000000000 DUP2 MSTORE PUSH1 0x4 ADD PUSH2 0x15B4 SWAP1 PUSH2 0x4E76 JUMP JUMPDEST PUSH1 0x40 MLOAD DUP1 SWAP2 SUB SWAP1 REVERT JUMPDEST PUSH0 DUP2 PUSH1 0x1 ADD SLOAD SWAP1 POP PUSH0 DUP3 PUSH1 0x3 ADD SLOAD TIMESTAMP LT SWAP1 POP PUSH0 DUP1 DUP3 ISZERO PUSH2 0x1602 JUMPI PUSH1 0x64 PUSH1 0xB SLOAD DUP6 PUSH2 0x15E7 SWAP2 SWAP1 PUSH2 0x47D2 JUMP JUMPDEST PUSH2 0x15F1 SWAP2 SWAP1 PUSH2 0x4840 JUMP JUMPDEST SWAP2 POP DUP2 DUP5 PUSH2 0x15FF SWAP2 SWAP1 PUSH2 0x443F JUMP JUMPDEST SWAP4 POP JUMPDEST DUP2 DUP5 PUSH2 0x160E SWAP2 SWAP1 PUSH2 0x4BED JUMP JUMPDEST PUSH1 0x8 PUSH0 DUP8 PUSH0 ADD PUSH0 SWAP1 SLOAD SWAP1 PUSH2 0x100 EXP SWAP1 DIV PUSH20 0xFFFFFFFFFFFFFFFFFFFFFFFFFFFFFFFFFFFFFFFF AND PUSH20 0xFFFFFFFFFFFFFFFFFFFFFFFFFFFFFFFFFFFFFFFF AND PUSH20 0xFFFFFFFFFFFFFFFFFFFFFFFFFFFFFFFFFFFFFFFF AND DUP2 MSTORE PUSH1 0x20 ADD SWAP1 DUP2 MSTORE PUSH1 0x20 ADD PUSH0 KECCAK256 PUSH0 DUP3 DUP3 SLOAD PUSH2 0x167B SWAP2 SWAP1 PUSH2 0x443F JUMP JUMPDEST SWAP3 POP POP DUP2 SWAP1 SSTORE POP PUSH0 PUSH20 0xFFFFFFFFFFFFFFFFFFFFFFFFFFFFFFFFFFFFFFFF AND DUP6 PUSH0 ADD PUSH0 SWAP1 SLOAD SWAP1 PUSH2 0x100 EXP SWAP1 DIV PUSH20 0xFFFFFFFFFFFFFFFFFFFFFFFFFFFFFFFFFFFFFFFF AND PUSH20 0xFFFFFFFFFFFFFFFFFFFFFFFFFFFFFFFFFFFFFFFF AND SUB PUSH2 0x17CB JUMPI DUP2 SWAP1 POP DUP4 SELFBALANCE LT ISZERO PUSH2 0x171D JUMPI PUSH1 0x40 MLOAD PUSH32 0x8C379A000000000000000000000000000000000000000000000000000000000 DUP2 MSTORE PUSH1 0x4 ADD PUSH2 0x1714 SWAP1 PUSH2 0x4EDE JUMP JUMPDEST PUSH1 0x40 MLOAD DUP1 SWAP2 SUB SWAP1 REVERT JUMPDEST PUSH0 CALLER PUSH20 0xFFFFFFFFFFFFFFFFFFFFFFFFFFFFFFFFFFFFFFFF AND DUP6 PUSH1 0x40 MLOAD PUSH2 0x1742 SWAP1 PUSH2 0x4F1F JUMP JUMPDEST PUSH0 PUSH1 0x40 MLOAD DUP1 DUP4 SUB DUP2 DUP6 DUP8 GAS CALL SWAP3 POP POP POP RETURNDATASIZE DUP1 PUSH0 DUP2 EQ PUSH2 0x177C JUMPI PUSH1 0x40 MLOAD SWAP2 POP PUSH1 0x1F NOT PUSH1 0x3F RETURNDATASIZE ADD AND DUP3 ADD PUSH1 0x40 MSTORE RETURNDATASIZE DUP3 MSTORE RETURNDATASIZE PUSH0 PUSH1 0x20 DUP5 ADD RETURNDATACOPY PUSH2 0x1781 JUMP JUMPDEST PUSH1 0x60 SWAP2 POP JUMPDEST POP POP SWAP1 POP DUP1 PUSH2 0x17C5 JUMPI PUSH1 0x40 MLOAD PUSH32 0x8C379A000000000000000000000000000000000000000000000000000000000 DUP2 MSTORE PUSH1 0x4 ADD PUSH2 0x17BC SWAP1 PUSH2 0x4F7D JUMP JUMPDEST PUSH1 0x40 MLOAD DUP1 SWAP2 SUB SWAP1 REVERT JUMPDEST POP PUSH2 0x1D76 JUMP JUMPDEST PUSH0 PUSH2 0x1802 DUP7 PUSH0 ADD PUSH0 SWAP1 SLOAD SWAP1 PUSH2 0x100 EXP SWAP1 DIV PUSH20 0xFFFFFFFFFFFFFFFFFFFFFFFFFFFFFFFFFFFFFFFF AND ADDRESS CALLER PUSH2 0x17FD DUP10 PUSH2 0x3423 JUMP JUMPDEST PUSH2 0x2E58 JUMP JUMPDEST SWAP1 POP PUSH1 0x16 PUSH1 0x3 SIGNEXTEND DUP2 EQ PUSH2 0x184A JUMPI PUSH1 0x40 MLOAD PUSH32 0x8C379A000000000000000000000000000000000000000000000000000000000 DUP2 MSTORE PUSH1 0x4 ADD PUSH2 0x1841 SWAP1 PUSH2 0x4FE5 JUMP JUMPDEST PUSH1 0x40 MLOAD DUP1 SWAP2 SUB SWAP1 REVERT JUMPDEST DUP4 ISZERO PUSH2 0x1D74 JUMPI PUSH2 0x189E DUP7 PUSH0 ADD PUSH0 SWAP1 SLOAD SWAP1 PUSH2 0x100 EXP SWAP1 DIV PUSH20 0xFFFFFFFFFFFFFFFFFFFFFFFFFFFFFFFFFFFFFFFF AND PUSH1 0x10 PUSH0 SWAP1 SLOAD SWAP1 PUSH2 0x100 EXP SWAP1 DIV PUSH20 0xFFFFFFFFFFFFFFFFFFFFFFFFFFFFFFFFFFFFFFFF AND DUP6 PUSH2 0x347A JUMP JUMPDEST SWAP1 POP PUSH1 0x16 PUSH1 0x3 SIGNEXTEND DUP2 EQ PUSH2 0x18E6 JUMPI PUSH1 0x40 MLOAD PUSH32 0x8C379A000000000000000000000000000000000000000000000000000000000 DUP2 MSTORE PUSH1 0x4 ADD PUSH2 0x18DD SWAP1 PUSH2 0x5073 JUMP JUMPDEST PUSH1 0x40 MLOAD DUP1 SWAP2 SUB SWAP1 REVERT JUMPDEST PUSH0 PUSH2 0x19FE DUP8 PUSH0 ADD PUSH0 SWAP1 SLOAD SWAP1 PUSH2 0x100 EXP SWAP1 DIV PUSH20 0xFFFFFFFFFFFFFFFFFFFFFFFFFFFFFFFFFFFFFFFF AND PUSH1 0x7 PUSH0 DUP11 PUSH0 ADD PUSH0 SWAP1 SLOAD SWAP1 PUSH2 0x100 EXP SWAP1 DIV PUSH20 0xFFFFFFFFFFFFFFFFFFFFFFFFFFFFFFFFFFFFFFFF AND PUSH20 0xFFFFFFFFFFFFFFFFFFFFFFFFFFFFFFFFFFFFFFFF AND PUSH20 0xFFFFFFFFFFFFFFFFFFFFFFFFFFFFFFFFFFFFFFFF AND DUP2 MSTORE PUSH1 0x20 ADD SWAP1 DUP2 MSTORE PUSH1 0x20 ADD PUSH0 KECCAK256 PUSH0 PUSH1 0x6 PUSH0 SWAP1 SLOAD SWAP1 PUSH2 0x100 EXP SWAP1 DIV PUSH20 0xFFFFFFFFFFFFFFFFFFFFFFFFFFFFFFFFFFFFFFFF AND PUSH20 0xFFFFFFFFFFFFFFFFFFFFFFFFFFFFFFFFFFFFFFFF AND PUSH20 0xFFFFFFFFFFFFFFFFFFFFFFFFFFFFFFFFFFFFFFFF AND DUP2 MSTORE PUSH1 0x20 ADD SWAP1 DUP2 MSTORE PUSH1 0x20 ADD PUSH0 KECCAK256 PUSH0 SWAP1 SLOAD SWAP1 PUSH2 0x100 EXP SWAP1 DIV PUSH3 0xFFFFFF AND PUSH1 0x6 PUSH0 SWAP1 SLOAD SWAP1 PUSH2 0x100 EXP SWAP1 DIV PUSH20 0xFFFFFFFFFFFFFFFFFFFFFFFFFFFFFFFFFFFFFFFF AND PUSH2 0x2E29 JUMP JUMPDEST SWAP1 POP PUSH0 PUSH1 0xD PUSH0 SWAP1 SLOAD SWAP1 PUSH2 0x100 EXP SWAP1 DIV PUSH20 0xFFFFFFFFFFFFFFFFFFFFFFFFFFFFFFFFFFFFFFFF AND PUSH20 0xFFFFFFFFFFFFFFFFFFFFFFFFFFFFFFFFFFFFFFFF AND PUSH4 0xCDCA1753 DUP4 DUP8 PUSH1 0x40 MLOAD DUP4 PUSH4 0xFFFFFFFF AND PUSH1 0xE0 SHL DUP2 MSTORE PUSH1 0x4 ADD PUSH2 0x1A5D SWAP3 SWAP2 SWAP1 PUSH2 0x48D8 JUMP JUMPDEST PUSH0 PUSH1 0x40 MLOAD DUP1 DUP4 SUB DUP2 PUSH0 DUP8 GAS CALL ISZERO DUP1 ISZERO PUSH2 0x1A78 JUMPI RETURNDATASIZE PUSH0 DUP1 RETURNDATACOPY RETURNDATASIZE PUSH0 REVERT JUMPDEST POP POP POP POP PUSH1 0x40 MLOAD RETURNDATASIZE PUSH0 DUP3 RETURNDATACOPY RETURNDATASIZE PUSH1 0x1F NOT PUSH1 0x1F DUP3 ADD AND DUP3 ADD DUP1 PUSH1 0x40 MSTORE POP DUP2 ADD SWAP1 PUSH2 0x1AA0 SWAP2 SWAP1 PUSH2 0x4AE9 JUMP JUMPDEST POP POP POP SWAP1 POP PUSH0 PUSH1 0x40 MLOAD DUP1 PUSH1 0xA0 ADD PUSH1 0x40 MSTORE DUP1 DUP5 DUP2 MSTORE PUSH1 0x20 ADD PUSH1 0x10 PUSH0 SWAP1 SLOAD SWAP1 PUSH2 0x100 EXP SWAP1 DIV PUSH20 0xFFFFFFFFFFFFFFFFFFFFFFFFFFFFFFFFFFFFFFFF AND PUSH20 0xFFFFFFFFFFFFFFFFFFFFFFFFFFFFFFFFFFFFFFFF AND DUP2 MSTORE PUSH1 0x20 ADD PUSH1 0x1E TIMESTAMP PUSH2 0x1B01 SWAP2 SWAP1 PUSH2 0x4BED JUMP JUMPDEST DUP2 MSTORE PUSH1 0x20 ADD DUP8 DUP2 MSTORE PUSH1 0x20 ADD DUP4 DUP2 MSTORE POP SWAP1 POP PUSH0 PUSH4 0xC04B8D59 PUSH1 0xE0 SHL DUP3 PUSH1 0x40 MLOAD PUSH1 0x24 ADD PUSH2 0x1B2C SWAP2 SWAP1 PUSH2 0x515A JUMP JUMPDEST PUSH1 0x40 MLOAD PUSH1 0x20 DUP2 DUP4 SUB SUB DUP2 MSTORE SWAP1 PUSH1 0x40 MSTORE SWAP1 PUSH28 0xFFFFFFFFFFFFFFFFFFFFFFFFFFFFFFFFFFFFFFFFFFFFFFFFFFFFFFFF NOT AND PUSH1 0x20 DUP3 ADD DUP1 MLOAD PUSH28 0xFFFFFFFFFFFFFFFFFFFFFFFFFFFFFFFFFFFFFFFFFFFFFFFFFFFFFFFF DUP4 DUP2 DUP4 AND OR DUP4 MSTORE POP POP POP POP SWAP1 POP PUSH0 PUSH4 0x5FB043AF PUSH1 0xE0 SHL DUP5 ADDRESS PUSH1 0x40 MLOAD PUSH1 0x24 ADD PUSH2 0x1BA7 SWAP3 SWAP2 SWAP1 PUSH2 0x517A JUMP JUMPDEST PUSH1 0x40 MLOAD PUSH1 0x20 DUP2 DUP4 SUB SUB DUP2 MSTORE SWAP1 PUSH1 0x40 MSTORE SWAP1 PUSH28 0xFFFFFFFFFFFFFFFFFFFFFFFFFFFFFFFFFFFFFFFFFFFFFFFFFFFFFFFF NOT AND PUSH1 0x20 DUP3 ADD DUP1 MLOAD PUSH28 0xFFFFFFFFFFFFFFFFFFFFFFFFFFFFFFFFFFFFFFFFFFFFFFFFFFFFFFFF DUP4 DUP2 DUP4 AND OR DUP4 MSTORE POP POP POP POP SWAP1 POP PUSH0 PUSH1 0x2 PUSH8 0xFFFFFFFFFFFFFFFF DUP2 GT ISZERO PUSH2 0x1C22 JUMPI PUSH2 0x1C21 PUSH2 0x3B1B JUMP JUMPDEST JUMPDEST PUSH1 0x40 MLOAD SWAP1 DUP1 DUP3 MSTORE DUP1 PUSH1 0x20 MUL PUSH1 0x20 ADD DUP3 ADD PUSH1 0x40 MSTORE DUP1 ISZERO PUSH2 0x1C55 JUMPI DUP2 PUSH1 0x20 ADD JUMPDEST PUSH1 0x60 DUP2 MSTORE PUSH1 0x20 ADD SWAP1 PUSH1 0x1 SWAP1 SUB SWAP1 DUP2 PUSH2 0x1C40 JUMPI SWAP1 POP JUMPDEST POP SWAP1 POP DUP3 DUP2 PUSH0 DUP2 MLOAD DUP2 LT PUSH2 0x1C6C JUMPI PUSH2 0x1C6B PUSH2 0x4DFF JUMP JUMPDEST JUMPDEST PUSH1 0x20 MUL PUSH1 0x20 ADD ADD DUP2 SWAP1 MSTORE POP DUP2 DUP2 PUSH1 0x1 DUP2 MLOAD DUP2 LT PUSH2 0x1C8C JUMPI PUSH2 0x1C8B PUSH2 0x4DFF JUMP JUMPDEST JUMPDEST PUSH1 0x20 MUL PUSH1 0x20 ADD ADD DUP2 SWAP1 MSTORE POP PUSH0 PUSH1 0xE PUSH0 SWAP1 SLOAD SWAP1 PUSH2 0x100 EXP SWAP1 DIV PUSH20 0xFFFFFFFFFFFFFFFFFFFFFFFFFFFFFFFFFFFFFFFF AND PUSH20 0xFFFFFFFFFFFFFFFFFFFFFFFFFFFFFFFFFFFFFFFF AND PUSH4 0xAC9650D8 DUP4 PUSH1 0x40 MLOAD DUP3 PUSH4 0xFFFFFFFF AND PUSH1 0xE0 SHL DUP2 MSTORE PUSH1 0x4 ADD PUSH2 0x1CF2 SWAP2 SWAP1 PUSH2 0x524C JUMP JUMPDEST PUSH0 PUSH1 0x40 MLOAD DUP1 DUP4 SUB DUP2 PUSH0 DUP8 GAS CALL ISZERO DUP1 ISZERO PUSH2 0x1D0D JUMPI RETURNDATASIZE PUSH0 DUP1 RETURNDATACOPY RETURNDATASIZE PUSH0 REVERT JUMPDEST POP POP POP POP PUSH1 0x40 MLOAD RETURNDATASIZE PUSH0 DUP3 RETURNDATACOPY RETURNDATASIZE PUSH1 0x1F NOT PUSH1 0x1F DUP3 ADD AND DUP3 ADD DUP1 PUSH1 0x40 MSTORE POP DUP2 ADD SWAP1 PUSH2 0x1D35 SWAP2 SWAP1 PUSH2 0x53B8 JUMP JUMPDEST SWAP1 POP PUSH0 DUP2 PUSH0 DUP2 MLOAD DUP2 LT PUSH2 0x1D4B JUMPI PUSH2 0x1D4A PUSH2 0x4DFF JUMP JUMPDEST JUMPDEST PUSH1 0x20 MUL PUSH1 0x20 ADD ADD MLOAD DUP1 PUSH1 0x20 ADD SWAP1 MLOAD DUP2 ADD SWAP1 PUSH2 0x1D66 SWAP2 SWAP1 PUSH2 0x43E7 JUMP JUMPDEST SWAP1 POP DUP1 SWAP10 POP POP POP POP POP POP POP POP POP JUMPDEST POP JUMPDEST DUP3 ISZERO PUSH2 0x1DA9 JUMPI DUP1 PUSH1 0xA PUSH0 PUSH1 0xC SLOAD DUP2 MSTORE PUSH1 0x20 ADD SWAP1 DUP2 MSTORE PUSH1 0x20 ADD PUSH0 KECCAK256 PUSH1 0x2 ADD PUSH0 DUP3 DUP3 SLOAD PUSH2 0x1DA1 SWAP2 SWAP1 PUSH2 0x4BED JUMP JUMPDEST SWAP3 POP POP DUP2 SWAP1 SSTORE POP JUMPDEST DUP5 PUSH1 0x4 ADD SLOAD PUSH1 0xA PUSH0 PUSH1 0xC SLOAD DUP2 MSTORE PUSH1 0x20 ADD SWAP1 DUP2 MSTORE PUSH1 0x20 ADD PUSH0 KECCAK256 PUSH1 0x3 ADD PUSH0 DUP3 DUP3 SLOAD PUSH2 0x1DD2 SWAP2 SWAP1 PUSH2 0x443F JUMP JUMPDEST SWAP3 POP POP DUP2 SWAP1 SSTORE POP CALLER PUSH20 0xFFFFFFFFFFFFFFFFFFFFFFFFFFFFFFFFFFFFFFFF AND PUSH32 0x8E74F2E568A8FC64D8E10A0DD9CE40F78F234368743079FFB0E60EE702693AC9 DUP10 DUP7 DUP7 DUP6 PUSH1 0x40 MLOAD PUSH2 0x1E25 SWAP5 SWAP4 SWAP3 SWAP2 SWAP1 PUSH2 0x53FF JUMP JUMPDEST PUSH1 0x40 MLOAD DUP1 SWAP2 SUB SWAP1 LOG2 PUSH1 0x1 DUP7 GT DUP1 ISZERO PUSH2 0x1E49 JUMPI POP PUSH1 0x1 DUP7 PUSH2 0x1E45 SWAP2 SWAP1 PUSH2 0x443F JUMP JUMPDEST DUP9 EQ ISZERO JUMPDEST ISZERO PUSH2 0x1FD0 JUMPI PUSH0 DUP9 SWAP1 POP JUMPDEST PUSH1 0x1 DUP8 PUSH2 0x1E60 SWAP2 SWAP1 PUSH2 0x443F JUMP JUMPDEST DUP2 LT ISZERO PUSH2 0x1FCE JUMPI PUSH1 0x9 PUSH0 CALLER PUSH20 0xFFFFFFFFFFFFFFFFFFFFFFFFFFFFFFFFFFFFFFFF AND PUSH20 0xFFFFFFFFFFFFFFFFFFFFFFFFFFFFFFFFFFFFFFFF AND DUP2 MSTORE PUSH1 0x20 ADD SWAP1 DUP2 MSTORE PUSH1 0x20 ADD PUSH0 KECCAK256 PUSH1 0x1 DUP3 PUSH2 0x1EB1 SWAP2 SWAP1 PUSH2 0x4BED JUMP JUMPDEST DUP2 SLOAD DUP2 LT PUSH2 0x1EC2 JUMPI PUSH2 0x1EC1 PUSH2 0x4DFF JUMP JUMPDEST JUMPDEST SWAP1 PUSH0 MSTORE PUSH1 0x20 PUSH0 KECCAK256 SWAP1 PUSH1 0x6 MUL ADD PUSH1 0x9 PUSH0 CALLER PUSH20 0xFFFFFFFFFFFFFFFFFFFFFFFFFFFFFFFFFFFFFFFF AND PUSH20 0xFFFFFFFFFFFFFFFFFFFFFFFFFFFFFFFFFFFFFFFF AND DUP2 MSTORE PUSH1 0x20 ADD SWAP1 DUP2 MSTORE PUSH1 0x20 ADD PUSH0 KECCAK256 DUP3 DUP2 SLOAD DUP2 LT PUSH2 0x1F1D JUMPI PUSH2 0x1F1C PUSH2 0x4DFF JUMP JUMPDEST JUMPDEST SWAP1 PUSH0 MSTORE PUSH1 0x20 PUSH0 KECCAK256 SWAP1 PUSH1 0x6 MUL ADD PUSH0 DUP3 ADD PUSH0 SWAP1 SLOAD SWAP1 PUSH2 0x100 EXP SWAP1 DIV PUSH20 0xFFFFFFFFFFFFFFFFFFFFFFFFFFFFFFFFFFFFFFFF AND DUP2 PUSH0 ADD PUSH0 PUSH2 0x100 EXP DUP2 SLOAD DUP2 PUSH20 0xFFFFFFFFFFFFFFFFFFFFFFFFFFFFFFFFFFFFFFFF MUL NOT AND SWAP1 DUP4 PUSH20 0xFFFFFFFFFFFFFFFFFFFFFFFFFFFFFFFFFFFFFFFF AND MUL OR SWAP1 SSTORE POP PUSH1 0x1 DUP3 ADD SLOAD DUP2 PUSH1 0x1 ADD SSTORE PUSH1 0x2 DUP3 ADD SLOAD DUP2 PUSH1 0x2 ADD SSTORE PUSH1 0x3 DUP3 ADD SLOAD DUP2 PUSH1 0x3 ADD SSTORE PUSH1 0x4 DUP3 ADD SLOAD DUP2 PUSH1 0x4 ADD SSTORE PUSH1 0x5 DUP3 ADD SLOAD DUP2 PUSH1 0x5 ADD SSTORE SWAP1 POP POP DUP1 DUP1 PUSH1 0x1 ADD SWAP2 POP POP PUSH2 0x1E53 JUMP JUMPDEST POP JUMPDEST PUSH1 0x9 PUSH0 CALLER PUSH20 0xFFFFFFFFFFFFFFFFFFFFFFFFFFFFFFFFFFFFFFFF AND PUSH20 0xFFFFFFFFFFFFFFFFFFFFFFFFFFFFFFFFFFFFFFFF AND DUP2 MSTORE PUSH1 0x20 ADD SWAP1 DUP2 MSTORE PUSH1 0x20 ADD PUSH0 KECCAK256 DUP1 SLOAD DUP1 PUSH2 0x201D JUMPI PUSH2 0x201C PUSH2 0x5442 JUMP JUMPDEST JUMPDEST PUSH1 0x1 SWAP1 SUB DUP2 DUP2 SWAP1 PUSH0 MSTORE PUSH1 0x20 PUSH0 KECCAK256 SWAP1 PUSH1 0x6 MUL ADD PUSH0 DUP1 DUP3 ADD PUSH0 PUSH2 0x100 EXP DUP2 SLOAD SWAP1 PUSH20 0xFFFFFFFFFFFFFFFFFFFFFFFFFFFFFFFFFFFFFFFF MUL NOT AND SWAP1 SSTORE PUSH1 0x1 DUP3 ADD PUSH0 SWAP1 SSTORE PUSH1 0x2 DUP3 ADD PUSH0 SWAP1 SSTORE PUSH1 0x3 DUP3 ADD PUSH0 SWAP1 SSTORE PUSH1 0x4 DUP3 ADD PUSH0 SWAP1 SSTORE PUSH1 0x5 DUP3 ADD PUSH0 SWAP1 SSTORE POP POP SWAP1 SSTORE POP POP POP POP POP POP POP PUSH2 0x208B PUSH2 0x2FDC JUMP JUMPDEST POP JUMP JUMPDEST PUSH2 0x2096 PUSH2 0x2A8B JUMP JUMPDEST PUSH0 DUP2 GT PUSH2 0x20D8 JUMPI PUSH1 0x40 MLOAD PUSH32 0x8C379A000000000000000000000000000000000000000000000000000000000 DUP2 MSTORE PUSH1 0x4 ADD PUSH2 0x20CF SWAP1 PUSH2 0x54B9 JUMP JUMPDEST PUSH1 0x40 MLOAD DUP1 SWAP2 SUB SWAP1 REVERT JUMPDEST DUP1 PUSH1 0x4 DUP2 SWAP1 SSTORE POP POP JUMP JUMPDEST PUSH1 0x11 SLOAD DUP2 JUMP JUMPDEST PUSH1 0x4 SLOAD DUP2 JUMP JUMPDEST PUSH2 0x20F6 PUSH2 0x2A8B JUMP JUMPDEST PUSH0 PUSH20 0xFFFFFFFFFFFFFFFFFFFFFFFFFFFFFFFFFFFFFFFF AND DUP2 PUSH20 0xFFFFFFFFFFFFFFFFFFFFFFFFFFFFFFFFFFFFFFFF AND SUB PUSH2 0x2164 JUMPI PUSH1 0x40 MLOAD PUSH32 0x8C379A000000000000000000000000000000000000000000000000000000000 DUP2 MSTORE PUSH1 0x4 ADD PUSH2 0x215B SWAP1 PUSH2 0x4075 JUMP JUMPDEST PUSH1 0x40 MLOAD DUP1 SWAP2 SUB SWAP1 REVERT JUMPDEST DUP1 PUSH1 0x6 PUSH0 PUSH2 0x100 EXP DUP2 SLOAD DUP2 PUSH20 0xFFFFFFFFFFFFFFFFFFFFFFFFFFFFFFFFFFFFFFFF MUL NOT AND SWAP1 DUP4 PUSH20 0xFFFFFFFFFFFFFFFFFFFFFFFFFFFFFFFFFFFFFFFF AND MUL OR SWAP1 SSTORE POP POP JUMP JUMPDEST PUSH2 0x21AF PUSH2 0x2A8B JUMP JUMPDEST DUP1 PUSH1 0x11 DUP2 SWAP1 SSTORE POP POP JUMP JUMPDEST PUSH1 0x2 SLOAD DUP2 JUMP JUMPDEST PUSH0 PUSH1 0x60 PUSH0 DUP1 PUSH2 0x167 PUSH20 0xFFFFFFFFFFFFFFFFFFFFFFFFFFFFFFFFFFFFFFFF AND PUSH4 0x618DC65E PUSH1 0xE0 SHL DUP8 DUP8 PUSH1 0x40 MLOAD PUSH1 0x24 ADD PUSH2 0x21F8 SWAP3 SWAP2 SWAP1 PUSH2 0x54D7 JUMP JUMPDEST PUSH1 0x40 MLOAD PUSH1 0x20 DUP2 DUP4 SUB SUB DUP2 MSTORE SWAP1 PUSH1 0x40 MSTORE SWAP1 PUSH28 0xFFFFFFFFFFFFFFFFFFFFFFFFFFFFFFFFFFFFFFFFFFFFFFFFFFFFFFFF NOT AND PUSH1 0x20 DUP3 ADD DUP1 MLOAD PUSH28 0xFFFFFFFFFFFFFFFFFFFFFFFFFFFFFFFFFFFFFFFFFFFFFFFFFFFFFFFF DUP4 DUP2 DUP4 AND OR DUP4 MSTORE POP POP POP POP PUSH1 0x40 MLOAD PUSH2 0x2262 SWAP2 SWAP1 PUSH2 0x4CEE JUMP JUMPDEST PUSH0 PUSH1 0x40 MLOAD DUP1 DUP4 SUB DUP2 PUSH0 DUP7 GAS CALL SWAP2 POP POP RETURNDATASIZE DUP1 PUSH0 DUP2 EQ PUSH2 0x229B JUMPI PUSH1 0x40 MLOAD SWAP2 POP PUSH1 0x1F NOT PUSH1 0x3F RETURNDATASIZE ADD AND DUP3 ADD PUSH1 0x40 MSTORE RETURNDATASIZE DUP3 MSTORE RETURNDATASIZE PUSH0 PUSH1 0x20 DUP5 ADD RETURNDATACOPY PUSH2 0x22A0 JUMP JUMPDEST PUSH1 0x60 SWAP2 POP JUMPDEST POP SWAP2 POP SWAP2 POP PUSH32 0x4AF4780E06FE8CB9DF64B0794FA6F01399AF979175BB988E35E0E57E594567BC DUP3 DUP3 PUSH1 0x40 MLOAD PUSH2 0x22D6 SWAP3 SWAP2 SWAP1 PUSH2 0x5505 JUMP JUMPDEST PUSH1 0x40 MLOAD DUP1 SWAP2 SUB SWAP1 LOG1 DUP2 PUSH2 0x22F9 JUMPI PUSH1 0x15 PUSH1 0x40 MLOAD DUP1 PUSH1 0x20 ADD PUSH1 0x40 MSTORE DUP1 PUSH0 DUP2 MSTORE POP PUSH2 0x22FD JUMP JUMPDEST PUSH1 0x16 DUP2 JUMPDEST DUP2 PUSH1 0x3 SIGNEXTEND SWAP2 POP DUP1 SWAP5 POP DUP2 SWAP6 POP POP POP POP POP SWAP3 POP SWAP3 SWAP1 POP JUMP JUMPDEST PUSH1 0x10 PUSH0 SWAP1 SLOAD SWAP1 PUSH2 0x100 EXP SWAP1 DIV PUSH20 0xFFFFFFFFFFFFFFFFFFFFFFFFFFFFFFFFFFFFFFFF AND DUP2 JUMP JUMPDEST PUSH2 0x2341 PUSH2 0x2A8B JUMP JUMPDEST PUSH2 0x234A PUSH0 PUSH2 0x358F JUMP JUMPDEST JUMP JUMPDEST PUSH1 0x3 SLOAD DUP2 JUMP JUMPDEST PUSH1 0x5 PUSH0 SWAP1 SLOAD SWAP1 PUSH2 0x100 EXP SWAP1 DIV PUSH20 0xFFFFFFFFFFFFFFFFFFFFFFFFFFFFFFFFFFFFFFFF AND DUP2 JUMP JUMPDEST PUSH2 0x237F PUSH2 0x2A8B JUMP JUMPDEST PUSH0 PUSH20 0xFFFFFFFFFFFFFFFFFFFFFFFFFFFFFFFFFFFFFFFF AND DUP2 PUSH20 0xFFFFFFFFFFFFFFFFFFFFFFFFFFFFFFFFFFFFFFFF AND SUB PUSH2 0x23ED JUMPI PUSH1 0x40 MLOAD PUSH32 0x8C379A000000000000000000000000000000000000000000000000000000000 DUP2 MSTORE PUSH1 0x4 ADD PUSH2 0x23E4 SWAP1 PUSH2 0x4075 JUMP JUMPDEST PUSH1 0x40 MLOAD DUP1 SWAP2 SUB SWAP1 REVERT JUMPDEST DUP1 PUSH1 0xD PUSH0 PUSH2 0x100 EXP DUP2 SLOAD DUP2 PUSH20 0xFFFFFFFFFFFFFFFFFFFFFFFFFFFFFFFFFFFFFFFF MUL NOT AND SWAP1 DUP4 PUSH20 0xFFFFFFFFFFFFFFFFFFFFFFFFFFFFFFFFFFFFFFFF AND MUL OR SWAP1 SSTORE POP POP JUMP JUMPDEST PUSH0 PUSH1 0x1 PUSH0 SWAP1 SLOAD SWAP1 PUSH2 0x100 EXP SWAP1 DIV PUSH20 0xFFFFFFFFFFFFFFFFFFFFFFFFFFFFFFFFFFFFFFFF AND SWAP1 POP SWAP1 JUMP JUMPDEST PUSH1 0x6 PUSH0 SWAP1 SLOAD SWAP1 PUSH2 0x100 EXP SWAP1 DIV PUSH20 0xFFFFFFFFFFFFFFFFFFFFFFFFFFFFFFFFFFFFFFFF AND DUP2 JUMP JUMPDEST PUSH0 DUP1 PUSH0 PUSH2 0x167 PUSH20 0xFFFFFFFFFFFFFFFFFFFFFFFFFFFFFFFFFFFFFFFF AND PUSH4 0x9B23D3D9 PUSH1 0xE0 SHL DUP9 DUP9 DUP9 DUP9 PUSH1 0x40 MLOAD PUSH1 0x24 ADD PUSH2 0x24B8 SWAP5 SWAP4 SWAP3 SWAP2 SWAP1 PUSH2 0x4C71 JUMP JUMPDEST PUSH1 0x40 MLOAD PUSH1 0x20 DUP2 DUP4 SUB SUB DUP2 MSTORE SWAP1 PUSH1 0x40 MSTORE SWAP1 PUSH28 0xFFFFFFFFFFFFFFFFFFFFFFFFFFFFFFFFFFFFFFFFFFFFFFFFFFFFFFFF NOT AND PUSH1 0x20 DUP3 ADD DUP1 MLOAD PUSH28 0xFFFFFFFFFFFFFFFFFFFFFFFFFFFFFFFFFFFFFFFFFFFFFFFFFFFFFFFF DUP4 DUP2 DUP4 AND OR DUP4 MSTORE POP POP POP POP PUSH1 0x40 MLOAD PUSH2 0x2522 SWAP2 SWAP1 PUSH2 0x4CEE JUMP JUMPDEST PUSH0 PUSH1 0x40 MLOAD DUP1 DUP4 SUB DUP2 PUSH0 DUP7 GAS CALL SWAP2 POP POP RETURNDATASIZE DUP1 PUSH0 DUP2 EQ PUSH2 0x255B JUMPI PUSH1 0x40 MLOAD SWAP2 POP PUSH1 0x1F NOT PUSH1 0x3F RETURNDATASIZE ADD AND DUP3 ADD PUSH1 0x40 MSTORE RETURNDATASIZE DUP3 MSTORE RETURNDATASIZE PUSH0 PUSH1 0x20 DUP5 ADD RETURNDATACOPY PUSH2 0x2560 JUMP JUMPDEST PUSH1 0x60 SWAP2 POP JUMPDEST POP SWAP2 POP SWAP2 POP DUP2 PUSH2 0x2571 JUMPI PUSH1 0x15 PUSH2 0x2586 JUMP JUMPDEST DUP1 DUP1 PUSH1 0x20 ADD SWAP1 MLOAD DUP2 ADD SWAP1 PUSH2 0x2585 SWAP2 SWAP1 PUSH2 0x4D04 JUMP JUMPDEST JUMPDEST PUSH1 0x3 SIGNEXTEND SWAP3 POP POP POP SWAP5 SWAP4 POP POP POP POP JUMP JUMPDEST PUSH2 0x259D PUSH2 0x2A8B JUMP JUMPDEST PUSH1 0x64 DUP2 GT ISZERO PUSH2 0x25E1 JUMPI PUSH1 0x40 MLOAD PUSH32 0x8C379A000000000000000000000000000000000000000000000000000000000 DUP2 MSTORE PUSH1 0x4 ADD PUSH2 0x25D8 SWAP1 PUSH2 0x557D JUMP JUMPDEST PUSH1 0x40 MLOAD DUP1 SWAP2 SUB SWAP1 REVERT JUMPDEST DUP1 PUSH1 0xB DUP2 SWAP1 SSTORE POP POP JUMP JUMPDEST PUSH1 0xD PUSH0 SWAP1 SLOAD SWAP1 PUSH2 0x100 EXP SWAP1 DIV PUSH20 0xFFFFFFFFFFFFFFFFFFFFFFFFFFFFFFFFFFFFFFFF AND DUP2 JUMP JUMPDEST PUSH1 0x7 PUSH1 0x20 MSTORE DUP2 PUSH0 MSTORE PUSH1 0x40 PUSH0 KECCAK256 PUSH1 0x20 MSTORE DUP1 PUSH0 MSTORE PUSH1 0x40 PUSH0 KECCAK256 PUSH0 SWAP2 POP SWAP2 POP SWAP1 SLOAD SWAP1 PUSH2 0x100 EXP SWAP1 DIV PUSH3 0xFFFFFF AND DUP2 JUMP JUMPDEST PUSH1 0xC SLOAD DUP2 JUMP JUMPDEST PUSH1 0x9 PUSH1 0x20 MSTORE DUP2 PUSH0 MSTORE PUSH1 0x40 PUSH0 KECCAK256 DUP2 DUP2 SLOAD DUP2 LT PUSH2 0x265B JUMPI PUSH0 DUP1 REVERT JUMPDEST SWAP1 PUSH0 MSTORE PUSH1 0x20 PUSH0 KECCAK256 SWAP1 PUSH1 0x6 MUL ADD PUSH0 SWAP2 POP SWAP2 POP POP DUP1 PUSH0 ADD PUSH0 SWAP1 SLOAD SWAP1 PUSH2 0x100 EXP SWAP1 DIV PUSH20 0xFFFFFFFFFFFFFFFFFFFFFFFFFFFFFFFFFFFFFFFF AND SWAP1 DUP1 PUSH1 0x1 ADD SLOAD SWAP1 DUP1 PUSH1 0x2 ADD SLOAD SWAP1 DUP1 PUSH1 0x3 ADD SLOAD SWAP1 DUP1 PUSH1 0x4 ADD SLOAD SWAP1 DUP1 PUSH1 0x5 ADD SLOAD SWAP1 POP DUP7 JUMP JUMPDEST PUSH2 0x26BB PUSH2 0x2B12 JUMP JUMPDEST PUSH2 0x26C3 PUSH2 0x30F7 JUMP JUMPDEST PUSH2 0x26CB PUSH2 0x2FDC JUMP JUMPDEST JUMP JUMPDEST PUSH1 0xA PUSH1 0x20 MSTORE DUP1 PUSH0 MSTORE PUSH1 0x40 PUSH0 KECCAK256 PUSH0 SWAP2 POP SWAP1 POP DUP1 PUSH0 ADD SLOAD SWAP1 DUP1 PUSH1 0x1 ADD SLOAD SWAP1 DUP1 PUSH1 0x2 ADD SLOAD SWAP1 DUP1 PUSH1 0x3 ADD SLOAD SWAP1 DUP1 PUSH1 0x4 ADD SLOAD SWAP1 DUP1 PUSH1 0x5 ADD PUSH0 SWAP1 SLOAD SWAP1 PUSH2 0x100 EXP SWAP1 DIV PUSH1 0xFF AND SWAP1 POP DUP7 JUMP JUMPDEST PUSH1 0xB SLOAD DUP2 JUMP JUMPDEST PUSH2 0x271F PUSH2 0x2A8B JUMP JUMPDEST DUP1 DUP3 LT PUSH2 0x2761 JUMPI PUSH1 0x40 MLOAD PUSH32 0x8C379A000000000000000000000000000000000000000000000000000000000 DUP2 MSTORE PUSH1 0x4 ADD PUSH2 0x2758 SWAP1 PUSH2 0x560B JUMP JUMPDEST PUSH1 0x40 MLOAD DUP1 SWAP2 SUB SWAP1 REVERT JUMPDEST DUP2 PUSH1 0x2 DUP2 SWAP1 SSTORE POP DUP1 PUSH1 0x3 DUP2 SWAP1 SSTORE POP POP POP JUMP JUMPDEST PUSH2 0x277B PUSH2 0x2A8B JUMP JUMPDEST PUSH0 DUP2 PUSH3 0xFFFFFF AND SUB PUSH2 0x27C2 JUMPI PUSH1 0x40 MLOAD PUSH32 0x8C379A000000000000000000000000000000000000000000000000000000000 DUP2 MSTORE PUSH1 0x4 ADD PUSH2 0x27B9 SWAP1 PUSH2 0x5673 JUMP JUMPDEST PUSH1 0x40 MLOAD DUP1 SWAP2 SUB SWAP1 REVERT JUMPDEST DUP1 PUSH1 0x7 PUSH0 DUP6 PUSH20 0xFFFFFFFFFFFFFFFFFFFFFFFFFFFFFFFFFFFFFFFF AND PUSH20 0xFFFFFFFFFFFFFFFFFFFFFFFFFFFFFFFFFFFFFFFF AND DUP2 MSTORE PUSH1 0x20 ADD SWAP1 DUP2 MSTORE PUSH1 0x20 ADD PUSH0 KECCAK256 PUSH0 DUP5 PUSH20 0xFFFFFFFFFFFFFFFFFFFFFFFFFFFFFFFFFFFFFFFF AND PUSH20 0xFFFFFFFFFFFFFFFFFFFFFFFFFFFFFFFFFFFFFFFF AND DUP2 MSTORE PUSH1 0x20 ADD SWAP1 DUP2 MSTORE PUSH1 0x20 ADD PUSH0 KECCAK256 PUSH0 PUSH2 0x100 EXP DUP2 SLOAD DUP2 PUSH3 0xFFFFFF MUL NOT AND SWAP1 DUP4 PUSH3 0xFFFFFF AND MUL OR SWAP1 SSTORE POP POP POP POP JUMP JUMPDEST PUSH2 0x2863 PUSH2 0x2A8B JUMP JUMPDEST PUSH0 PUSH20 0xFFFFFFFFFFFFFFFFFFFFFFFFFFFFFFFFFFFFFFFF AND DUP2 PUSH20 0xFFFFFFFFFFFFFFFFFFFFFFFFFFFFFFFFFFFFFFFF AND SUB PUSH2 0x28D1 JUMPI PUSH1 0x40 MLOAD PUSH32 0x8C379A000000000000000000000000000000000000000000000000000000000 DUP2 MSTORE PUSH1 0x4 ADD PUSH2 0x28C8 SWAP1 PUSH2 0x4075 JUMP JUMPDEST PUSH1 0x40 MLOAD DUP1 SWAP2 SUB SWAP1 REVERT JUMPDEST DUP1 PUSH1 0xF PUSH0 PUSH2 0x100 EXP DUP2 SLOAD DUP2 PUSH20 0xFFFFFFFFFFFFFFFFFFFFFFFFFFFFFFFFFFFFFFFF MUL NOT AND SWAP1 DUP4 PUSH20 0xFFFFFFFFFFFFFFFFFFFFFFFFFFFFFFFFFFFFFFFF AND MUL OR SWAP1 SSTORE POP POP JUMP JUMPDEST PUSH2 0x291C PUSH2 0x2A8B JUMP JUMPDEST PUSH0 PUSH20 0xFFFFFFFFFFFFFFFFFFFFFFFFFFFFFFFFFFFFFFFF AND DUP2 PUSH20 0xFFFFFFFFFFFFFFFFFFFFFFFFFFFFFFFFFFFFFFFF AND SUB PUSH2 0x298C JUMPI PUSH0 PUSH1 0x40 MLOAD PUSH32 0x1E4FBDF700000000000000000000000000000000000000000000000000000000 DUP2 MSTORE PUSH1 0x4 ADD PUSH2 0x2983 SWAP2 SWAP1 PUSH2 0x3D4E JUMP JUMPDEST PUSH1 0x40 MLOAD DUP1 SWAP2 SUB SWAP1 REVERT JUMPDEST PUSH2 0x2995 DUP2 PUSH2 0x358F JUMP JUMPDEST POP JUMP JUMPDEST PUSH1 0x8 PUSH1 0x20 MSTORE DUP1 PUSH0 MSTORE PUSH1 0x40 PUSH0 KECCAK256 PUSH0 SWAP2 POP SWAP1 POP SLOAD DUP2 JUMP JUMPDEST PUSH2 0x29B5 PUSH2 0x2A8B JUMP JUMPDEST PUSH0 PUSH20 0xFFFFFFFFFFFFFFFFFFFFFFFFFFFFFFFFFFFFFFFF AND DUP2 PUSH20 0xFFFFFFFFFFFFFFFFFFFFFFFFFFFFFFFFFFFFFFFF AND SUB PUSH2 0x2A23 JUMPI PUSH1 0x40 MLOAD PUSH32 0x8C379A000000000000000000000000000000000000000000000000000000000 DUP2 MSTORE PUSH1 0x4 ADD PUSH2 0x2A1A SWAP1 PUSH2 0x4075 JUMP JUMPDEST PUSH1 0x40 MLOAD DUP1 SWAP2 SUB SWAP1 REVERT JUMPDEST DUP1 PUSH1 0x5 PUSH0 PUSH2 0x100 EXP DUP2 SLOAD DUP2 PUSH20 0xFFFFFFFFFFFFFFFFFFFFFFFFFFFFFFFFFFFFFFFF MUL NOT AND SWAP1 DUP4 PUSH20 0xFFFFFFFFFFFFFFFFFFFFFFFFFFFFFFFFFFFFFFFF AND MUL OR SWAP1 SSTORE POP POP JUMP JUMPDEST PUSH1 0xF PUSH0 SWAP1 SLOAD SWAP1 PUSH2 0x100 EXP SWAP1 DIV PUSH20 0xFFFFFFFFFFFFFFFFFFFFFFFFFFFFFFFFFFFFFFFF AND DUP2 JUMP JUMPDEST PUSH2 0x2A93 PUSH2 0x3652 JUMP JUMPDEST PUSH20 0xFFFFFFFFFFFFFFFFFFFFFFFFFFFFFFFFFFFFFFFF AND PUSH2 0x2AB1 PUSH2 0x2430 JUMP JUMPDEST PUSH20 0xFFFFFFFFFFFFFFFFFFFFFFFFFFFFFFFFFFFFFFFF AND EQ PUSH2 0x2B10 JUMPI PUSH2 0x2AD4 PUSH2 0x3652 JUMP JUMPDEST PUSH1 0x40 MLOAD PUSH32 0x118CDAA700000000000000000000000000000000000000000000000000000000 DUP2 MSTORE PUSH1 0x4 ADD PUSH2 0x2B07 SWAP2 SWAP1 PUSH2 0x3D4E JUMP JUMPDEST PUSH1 0x40 MLOAD DUP1 SWAP2 SUB SWAP1 REVERT JUMPDEST JUMP JUMPDEST PUSH1 0x2 PUSH0 SLOAD SUB PUSH2 0x2B4D JUMPI PUSH1 0x40 MLOAD PUSH32 0x3EE5AEB500000000000000000000000000000000000000000000000000000000 DUP2 MSTORE PUSH1 0x4 ADD PUSH1 0x40 MLOAD DUP1 SWAP2 SUB SWAP1 REVERT JUMPDEST PUSH1 0x2 PUSH0 DUP2 SWAP1 SSTORE POP JUMP JUMPDEST PUSH0 PUSH1 0xA PUSH0 PUSH1 0xC SLOAD DUP2 MSTORE PUSH1 0x20 ADD SWAP1 DUP2 MSTORE PUSH1 0x20 ADD PUSH0 KECCAK256 SWAP1 POP DUP1 PUSH1 0x5 ADD PUSH0 SWAP1 SLOAD SWAP1 PUSH2 0x100 EXP SWAP1 DIV PUSH1 0xFF AND ISZERO PUSH2 0x2BBD JUMPI PUSH1 0x40 MLOAD PUSH32 0x8C379A000000000000000000000000000000000000000000000000000000000 DUP2 MSTORE PUSH1 0x4 ADD PUSH2 0x2BB4 SWAP1 PUSH2 0x56DB JUMP JUMPDEST PUSH1 0x40 MLOAD DUP1 SWAP2 SUB SWAP1 REVERT JUMPDEST DUP1 PUSH1 0x1 ADD SLOAD TIMESTAMP GT PUSH2 0x2C03 JUMPI PUSH1 0x40 MLOAD PUSH32 0x8C379A000000000000000000000000000000000000000000000000000000000 DUP2 MSTORE PUSH1 0x4 ADD PUSH2 0x2BFA SWAP1 PUSH2 0x5743 JUMP JUMPDEST PUSH1 0x40 MLOAD DUP1 SWAP2 SUB SWAP1 REVERT JUMPDEST PUSH1 0x1 DUP2 PUSH1 0x5 ADD PUSH0 PUSH2 0x100 EXP DUP2 SLOAD DUP2 PUSH1 0xFF MUL NOT AND SWAP1 DUP4 ISZERO ISZERO MUL OR SWAP1 SSTORE POP PUSH0 DUP2 PUSH1 0x3 ADD SLOAD GT ISZERO PUSH2 0x2C57 JUMPI DUP1 PUSH1 0x3 ADD SLOAD PUSH4 0x5F5E100 DUP3 PUSH1 0x2 ADD SLOAD PUSH2 0x2C44 SWAP2 SWAP1 PUSH2 0x47D2 JUMP JUMPDEST PUSH2 0x2C4E SWAP2 SWAP1 PUSH2 0x4840 JUMP JUMPDEST DUP2 PUSH1 0x4 ADD DUP2 SWAP1 SSTORE POP JUMPDEST PUSH1 0xC SLOAD PUSH32 0x70801D4D63B3DA6C19BA7349911F45BED5A99CCDFB51B8138C105872529BEBD5 DUP3 PUSH1 0x2 ADD SLOAD DUP4 PUSH1 0x3 ADD SLOAD DUP5 PUSH1 0x4 ADD SLOAD PUSH1 0x40 MLOAD PUSH2 0x2C99 SWAP4 SWAP3 SWAP2 SWAP1 PUSH2 0x5761 JUMP JUMPDEST PUSH1 0x40 MLOAD DUP1 SWAP2 SUB SWAP1 LOG2 POP JUMP JUMPDEST PUSH0 DUP1 PUSH1 0xC SLOAD GT ISZERO PUSH2 0x2D2B JUMPI PUSH1 0xA PUSH0 PUSH1 0xC SLOAD DUP2 MSTORE PUSH1 0x20 ADD SWAP1 DUP2 MSTORE PUSH1 0x20 ADD PUSH0 KECCAK256 PUSH1 0x5 ADD PUSH0 SWAP1 SLOAD SWAP1 PUSH2 0x100 EXP SWAP1 DIV PUSH1 0xFF AND PUSH2 0x2D11 JUMPI PUSH1 0x40 MLOAD PUSH32 0x8C379A000000000000000000000000000000000000000000000000000000000 DUP2 MSTORE PUSH1 0x4 ADD PUSH2 0x2D08 SWAP1 PUSH2 0x57E0 JUMP JUMPDEST PUSH1 0x40 MLOAD DUP1 SWAP2 SUB SWAP1 REVERT JUMPDEST PUSH1 0xA PUSH0 PUSH1 0xC SLOAD DUP2 MSTORE PUSH1 0x20 ADD SWAP1 DUP2 MSTORE PUSH1 0x20 ADD PUSH0 KECCAK256 PUSH1 0x3 ADD SLOAD SWAP1 POP JUMPDEST PUSH0 PUSH1 0x4 SLOAD TIMESTAMP PUSH2 0x2D3A SWAP2 SWAP1 PUSH2 0x4BED JUMP JUMPDEST SWAP1 POP PUSH1 0x1 PUSH1 0xC PUSH0 DUP3 DUP3 SLOAD PUSH2 0x2D4E SWAP2 SWAP1 PUSH2 0x4BED JUMP JUMPDEST SWAP3 POP POP DUP2 SWAP1 SSTORE POP PUSH1 0x40 MLOAD DUP1 PUSH1 0xC0 ADD PUSH1 0x40 MSTORE DUP1 TIMESTAMP DUP2 MSTORE PUSH1 0x20 ADD DUP3 DUP2 MSTORE PUSH1 0x20 ADD PUSH0 DUP2 MSTORE PUSH1 0x20 ADD DUP4 DUP2 MSTORE PUSH1 0x20 ADD PUSH0 DUP2 MSTORE PUSH1 0x20 ADD PUSH0 ISZERO ISZERO DUP2 MSTORE POP PUSH1 0xA PUSH0 PUSH1 0xC SLOAD DUP2 MSTORE PUSH1 0x20 ADD SWAP1 DUP2 MSTORE PUSH1 0x20 ADD PUSH0 KECCAK256 PUSH0 DUP3 ADD MLOAD DUP2 PUSH0 ADD SSTORE PUSH1 0x20 DUP3 ADD MLOAD DUP2 PUSH1 0x1 ADD SSTORE PUSH1 0x40 DUP3 ADD MLOAD DUP2 PUSH1 0x2 ADD SSTORE PUSH1 0x60 DUP3 ADD MLOAD DUP2 PUSH1 0x3 ADD SSTORE PUSH1 0x80 DUP3 ADD MLOAD DUP2 PUSH1 0x4 ADD SSTORE PUSH1 0xA0 DUP3 ADD MLOAD DUP2 PUSH1 0x5 ADD PUSH0 PUSH2 0x100 EXP DUP2 SLOAD DUP2 PUSH1 0xFF MUL NOT AND SWAP1 DUP4 ISZERO ISZERO MUL OR SWAP1 SSTORE POP SWAP1 POP POP PUSH1 0xC SLOAD PUSH32 0x29DB3DEB62EF2036E5EB93AAD68D2362AEC0711AF592CB365566603BD88651D4 TIMESTAMP DUP4 PUSH1 0x40 MLOAD PUSH2 0x2E1D SWAP3 SWAP2 SWAP1 PUSH2 0x57FE JUMP JUMPDEST PUSH1 0x40 MLOAD DUP1 SWAP2 SUB SWAP1 LOG2 POP POP JUMP JUMPDEST PUSH1 0x60 DUP4 DUP4 DUP4 PUSH1 0x40 MLOAD PUSH1 0x20 ADD PUSH2 0x2E40 SWAP4 SWAP3 SWAP2 SWAP1 PUSH2 0x589E JUMP JUMPDEST PUSH1 0x40 MLOAD PUSH1 0x20 DUP2 DUP4 SUB SUB DUP2 MSTORE SWAP1 PUSH1 0x40 MSTORE SWAP1 POP SWAP4 SWAP3 POP POP POP JUMP JUMPDEST PUSH0 DUP1 PUSH0 PUSH2 0x167 PUSH20 0xFFFFFFFFFFFFFFFFFFFFFFFFFFFFFFFFFFFFFFFF AND PUSH4 0xECA36917 PUSH1 0xE0 SHL DUP9 DUP9 DUP9 DUP9 PUSH1 0x40 MLOAD PUSH1 0x24 ADD PUSH2 0x2E93 SWAP5 SWAP4 SWAP3 SWAP2 SWAP1 PUSH2 0x58DA JUMP JUMPDEST PUSH1 0x40 MLOAD PUSH1 0x20 DUP2 DUP4 SUB SUB DUP2 MSTORE SWAP1 PUSH1 0x40 MSTORE SWAP1 PUSH28 0xFFFFFFFFFFFFFFFFFFFFFFFFFFFFFFFFFFFFFFFFFFFFFFFFFFFFFFFF NOT AND PUSH1 0x20 DUP3 ADD DUP1 MLOAD PUSH28 0xFFFFFFFFFFFFFFFFFFFFFFFFFFFFFFFFFFFFFFFFFFFFFFFFFFFFFFFF DUP4 DUP2 DUP4 AND OR DUP4 MSTORE POP POP POP POP PUSH1 0x40 MLOAD PUSH2 0x2EFD SWAP2 SWAP1 PUSH2 0x4CEE JUMP JUMPDEST PUSH0 PUSH1 0x40 MLOAD DUP1 DUP4 SUB DUP2 PUSH0 DUP7 GAS CALL SWAP2 POP POP RETURNDATASIZE DUP1 PUSH0 DUP2 EQ PUSH2 0x2F36 JUMPI PUSH1 0x40 MLOAD SWAP2 POP PUSH1 0x1F NOT PUSH1 0x3F RETURNDATASIZE ADD AND DUP3 ADD PUSH1 0x40 MSTORE RETURNDATASIZE DUP3 MSTORE RETURNDATASIZE PUSH0 PUSH1 0x20 DUP5 ADD RETURNDATACOPY PUSH2 0x2F3B JUMP JUMPDEST PUSH1 0x60 SWAP2 POP JUMPDEST POP SWAP2 POP SWAP2 POP DUP2 PUSH2 0x2F4C JUMPI PUSH1 0x15 PUSH2 0x2F61 JUMP JUMPDEST DUP1 DUP1 PUSH1 0x20 ADD SWAP1 MLOAD DUP2 ADD SWAP1 PUSH2 0x2F60 SWAP2 SWAP1 PUSH2 0x4D04 JUMP JUMPDEST JUMPDEST PUSH1 0x3 SIGNEXTEND SWAP3 POP POP POP SWAP5 SWAP4 POP POP POP POP JUMP JUMPDEST PUSH0 PUSH4 0x5F5E100 DUP3 LT ISZERO PUSH2 0x2F85 JUMPI DUP3 SWAP1 POP PUSH2 0x2FD6 JUMP JUMPDEST PUSH0 PUSH2 0x2F9E PUSH4 0x5F5E100 DUP5 PUSH2 0x2F99 SWAP2 SWAP1 PUSH2 0x4840 JUMP JUMPDEST PUSH2 0x3659 JUMP JUMPDEST SWAP1 POP PUSH1 0x19 DUP2 GT ISZERO PUSH2 0x2FAE JUMPI PUSH1 0x19 SWAP1 POP JUMPDEST PUSH1 0x64 DUP2 PUSH1 0x64 PUSH2 0x2FBD SWAP2 SWAP1 PUSH2 0x4BED JUMP JUMPDEST DUP6 PUSH2 0x2FC8 SWAP2 SWAP1 PUSH2 0x47D2 JUMP JUMPDEST PUSH2 0x2FD2 SWAP2 SWAP1 PUSH2 0x4840 JUMP JUMPDEST SWAP2 POP POP JUMPDEST SWAP3 SWAP2 POP POP JUMP JUMPDEST PUSH1 0x1 PUSH0 DUP2 SWAP1 SSTORE POP JUMP JUMPDEST PUSH0 DUP1 PUSH0 PUSH2 0x167 PUSH20 0xFFFFFFFFFFFFFFFFFFFFFFFFFFFFFFFFFFFFFFFF AND PUSH4 0x49146BDE PUSH1 0xE0 SHL DUP7 DUP7 PUSH1 0x40 MLOAD PUSH1 0x24 ADD PUSH2 0x301C SWAP3 SWAP2 SWAP1 PUSH2 0x591D JUMP JUMPDEST PUSH1 0x40 MLOAD PUSH1 0x20 DUP2 DUP4 SUB SUB DUP2 MSTORE SWAP1 PUSH1 0x40 MSTORE SWAP1 PUSH28 0xFFFFFFFFFFFFFFFFFFFFFFFFFFFFFFFFFFFFFFFFFFFFFFFFFFFFFFFF NOT AND PUSH1 0x20 DUP3 ADD DUP1 MLOAD PUSH28 0xFFFFFFFFFFFFFFFFFFFFFFFFFFFFFFFFFFFFFFFFFFFFFFFFFFFFFFFF DUP4 DUP2 DUP4 AND OR DUP4 MSTORE POP POP POP POP PUSH1 0x40 MLOAD PUSH2 0x3086 SWAP2 SWAP1 PUSH2 0x4CEE JUMP JUMPDEST PUSH0 PUSH1 0x40 MLOAD DUP1 DUP4 SUB DUP2 PUSH0 DUP7 GAS CALL SWAP2 POP POP RETURNDATASIZE DUP1 PUSH0 DUP2 EQ PUSH2 0x30BF JUMPI PUSH1 0x40 MLOAD SWAP2 POP PUSH1 0x1F NOT PUSH1 0x3F RETURNDATASIZE ADD AND DUP3 ADD PUSH1 0x40 MSTORE RETURNDATASIZE DUP3 MSTORE RETURNDATASIZE PUSH0 PUSH1 0x20 DUP5 ADD RETURNDATACOPY PUSH2 0x30C4 JUMP JUMPDEST PUSH1 0x60 SWAP2 POP JUMPDEST POP SWAP2 POP SWAP2 POP DUP2 PUSH2 0x30D5 JUMPI PUSH1 0x15 PUSH2 0x30EA JUMP JUMPDEST DUP1 DUP1 PUSH1 0x20 ADD SWAP1 MLOAD DUP2 ADD SWAP1 PUSH2 0x30E9 SWAP2 SWAP1 PUSH2 0x4D04 JUMP JUMPDEST JUMPDEST PUSH1 0x3 SIGNEXTEND SWAP3 POP POP POP SWAP3 SWAP2 POP POP JUMP JUMPDEST PUSH0 PUSH1 0xA PUSH0 PUSH1 0xC SLOAD DUP2 MSTORE PUSH1 0x20 ADD SWAP1 DUP2 MSTORE PUSH1 0x20 ADD PUSH0 KECCAK256 SWAP1 POP DUP1 PUSH1 0x1 ADD SLOAD TIMESTAMP GT DUP1 ISZERO PUSH2 0x312E JUMPI POP DUP1 PUSH1 0x5 ADD PUSH0 SWAP1 SLOAD SWAP1 PUSH2 0x100 EXP SWAP1 DIV PUSH1 0xFF AND ISZERO JUMPDEST ISZERO PUSH2 0x3144 JUMPI PUSH2 0x313B PUSH2 0x2B56 JUMP JUMPDEST PUSH2 0x3143 PUSH2 0x2CA4 JUMP JUMPDEST JUMPDEST PUSH0 DUP1 PUSH1 0x9 PUSH0 CALLER PUSH20 0xFFFFFFFFFFFFFFFFFFFFFFFFFFFFFFFFFFFFFFFF AND PUSH20 0xFFFFFFFFFFFFFFFFFFFFFFFFFFFFFFFFFFFFFFFF AND DUP2 MSTORE PUSH1 0x20 ADD SWAP1 DUP2 MSTORE PUSH1 0x20 ADD PUSH0 KECCAK256 DUP1 SLOAD SWAP1 POP SWAP1 POP PUSH0 DUP2 GT PUSH2 0x31CB JUMPI PUSH1 0x40 MLOAD PUSH32 0x8C379A000000000000000000000000000000000000000000000000000000000 DUP2 MSTORE PUSH1 0x4 ADD PUSH2 0x31C2 SWAP1 PUSH2 0x598E JUMP JUMPDEST PUSH1 0x40 MLOAD DUP1 SWAP2 SUB SWAP1 REVERT JUMPDEST PUSH0 JUMPDEST DUP2 DUP2 LT ISZERO PUSH2 0x32E3 JUMPI PUSH0 PUSH1 0x9 PUSH0 CALLER PUSH20 0xFFFFFFFFFFFFFFFFFFFFFFFFFFFFFFFFFFFFFFFF AND PUSH20 0xFFFFFFFFFFFFFFFFFFFFFFFFFFFFFFFFFFFFFFFF AND DUP2 MSTORE PUSH1 0x20 ADD SWAP1 DUP2 MSTORE PUSH1 0x20 ADD PUSH0 KECCAK256 DUP3 DUP2 SLOAD DUP2 LT PUSH2 0x3225 JUMPI PUSH2 0x3224 PUSH2 0x4DFF JUMP JUMPDEST JUMPDEST SWAP1 PUSH0 MSTORE PUSH1 0x20 PUSH0 KECCAK256 SWAP1 PUSH1 0x6 MUL ADD SWAP1 POP PUSH0 DUP2 PUSH1 0x4 ADD SLOAD SWAP1 POP PUSH0 DUP3 PUSH1 0x5 ADD SLOAD SWAP1 POP PUSH0 DUP2 SWAP1 POP JUMPDEST PUSH1 0xC SLOAD DUP2 LT ISZERO PUSH2 0x32C7 JUMPI PUSH0 PUSH1 0xA PUSH0 DUP4 DUP2 MSTORE PUSH1 0x20 ADD SWAP1 DUP2 MSTORE PUSH1 0x20 ADD PUSH0 KECCAK256 SWAP1 POP DUP1 PUSH1 0x5 ADD PUSH0 SWAP1 SLOAD SWAP1 PUSH2 0x100 EXP SWAP1 DIV PUSH1 0xFF AND DUP1 ISZERO PUSH2 0x3287 JUMPI POP PUSH0 DUP2 PUSH1 0x4 ADD SLOAD EQ ISZERO JUMPDEST ISZERO PUSH2 0x32B9 JUMPI PUSH4 0x5F5E100 DUP5 DUP3 PUSH1 0x4 ADD SLOAD PUSH2 0x32A1 SWAP2 SWAP1 PUSH2 0x47D2 JUMP JUMPDEST PUSH2 0x32AB SWAP2 SWAP1 PUSH2 0x4840 JUMP JUMPDEST DUP9 PUSH2 0x32B6 SWAP2 SWAP1 PUSH2 0x4BED JUMP JUMPDEST SWAP8 POP JUMPDEST POP DUP1 DUP1 PUSH1 0x1 ADD SWAP2 POP POP PUSH2 0x3248 JUMP JUMPDEST POP PUSH1 0xC SLOAD DUP4 PUSH1 0x5 ADD DUP2 SWAP1 SSTORE POP POP POP POP DUP1 DUP1 PUSH1 0x1 ADD SWAP2 POP POP PUSH2 0x31CD JUMP JUMPDEST POP DUP2 SELFBALANCE LT ISZERO PUSH2 0x3327 JUMPI PUSH1 0x40 MLOAD PUSH32 0x8C379A000000000000000000000000000000000000000000000000000000000 DUP2 MSTORE PUSH1 0x4 ADD PUSH2 0x331E SWAP1 PUSH2 0x4EDE JUMP JUMPDEST PUSH1 0x40 MLOAD DUP1 SWAP2 SUB SWAP1 REVERT JUMPDEST PUSH0 CALLER PUSH20 0xFFFFFFFFFFFFFFFFFFFFFFFFFFFFFFFFFFFFFFFF AND DUP4 PUSH1 0x40 MLOAD PUSH2 0x334C SWAP1 PUSH2 0x4F1F JUMP JUMPDEST PUSH0 PUSH1 0x40 MLOAD DUP1 DUP4 SUB DUP2 DUP6 DUP8 GAS CALL SWAP3 POP POP POP RETURNDATASIZE DUP1 PUSH0 DUP2 EQ PUSH2 0x3386 JUMPI PUSH1 0x40 MLOAD SWAP2 POP PUSH1 0x1F NOT PUSH1 0x3F RETURNDATASIZE ADD AND DUP3 ADD PUSH1 0x40 MSTORE RETURNDATASIZE DUP3 MSTORE RETURNDATASIZE PUSH0 PUSH1 0x20 DUP5 ADD RETURNDATACOPY PUSH2 0x338B JUMP JUMPDEST PUSH1 0x60 SWAP2 POP JUMPDEST POP POP SWAP1 POP DUP1 PUSH2 0x33CF JUMPI PUSH1 0x40 MLOAD PUSH32 0x8C379A000000000000000000000000000000000000000000000000000000000 DUP2 MSTORE PUSH1 0x4 ADD PUSH2 0x33C6 SWAP1 PUSH2 0x59F6 JUMP JUMPDEST PUSH1 0x40 MLOAD DUP1 SWAP2 SUB SWAP1 REVERT JUMPDEST CALLER PUSH20 0xFFFFFFFFFFFFFFFFFFFFFFFFFFFFFFFFFFFFFFFF AND PUSH32 0x106F923F993C2149D49B4255FF723ACAFA1F2D94393F561D3EDA32AE348F7241 DUP5 PUSH1 0x40 MLOAD PUSH2 0x3415 SWAP2 SWAP1 PUSH2 0x3A99 JUMP JUMPDEST PUSH1 0x40 MLOAD DUP1 SWAP2 SUB SWAP1 LOG2 POP POP POP POP JUMP JUMPDEST PUSH0 PUSH8 0x7FFFFFFFFFFFFFFF PUSH1 0x7 SIGNEXTEND DUP3 GT ISZERO PUSH2 0x3472 JUMPI PUSH1 0x40 MLOAD PUSH32 0x8C379A000000000000000000000000000000000000000000000000000000000 DUP2 MSTORE PUSH1 0x4 ADD PUSH2 0x3469 SWAP1 PUSH2 0x5A5E JUMP JUMPDEST PUSH1 0x40 MLOAD DUP1 SWAP2 SUB SWAP1 REVERT JUMPDEST DUP2 SWAP1 POP SWAP2 SWAP1 POP JUMP JUMPDEST PUSH0 DUP1 PUSH0 PUSH2 0x167 PUSH20 0xFFFFFFFFFFFFFFFFFFFFFFFFFFFFFFFFFFFFFFFF AND PUSH4 0xE1F21C67 PUSH1 0xE0 SHL DUP8 DUP8 DUP8 PUSH1 0x40 MLOAD PUSH1 0x24 ADD PUSH2 0x34B3 SWAP4 SWAP3 SWAP2 SWAP1 PUSH2 0x5A7C JUMP JUMPDEST PUSH1 0x40 MLOAD PUSH1 0x20 DUP2 DUP4 SUB SUB DUP2 MSTORE SWAP1 PUSH1 0x40 MSTORE SWAP1 PUSH28 0xFFFFFFFFFFFFFFFFFFFFFFFFFFFFFFFFFFFFFFFFFFFFFFFFFFFFFFFF NOT AND PUSH1 0x20 DUP3 ADD DUP1 MLOAD PUSH28 0xFFFFFFFFFFFFFFFFFFFFFFFFFFFFFFFFFFFFFFFFFFFFFFFFFFFFFFFF DUP4 DUP2 DUP4 AND OR DUP4 MSTORE POP POP POP POP PUSH1 0x40 MLOAD PUSH2 0x351D SWAP2 SWAP1 PUSH2 0x4CEE JUMP JUMPDEST PUSH0 PUSH1 0x40 MLOAD DUP1 DUP4 SUB DUP2 PUSH0 DUP7 GAS CALL SWAP2 POP POP RETURNDATASIZE DUP1 PUSH0 DUP2 EQ PUSH2 0x3556 JUMPI PUSH1 0x40 MLOAD SWAP2 POP PUSH1 0x1F NOT PUSH1 0x3F RETURNDATASIZE ADD AND DUP3 ADD PUSH1 0x40 MSTORE RETURNDATASIZE DUP3 MSTORE RETURNDATASIZE PUSH0 PUSH1 0x20 DUP5 ADD RETURNDATACOPY PUSH2 0x355B JUMP JUMPDEST PUSH1 0x60 SWAP2 POP JUMPDEST POP SWAP2 POP SWAP2 POP DUP2 PUSH2 0x356C JUMPI PUSH1 0x15 PUSH2 0x3581 JUMP JUMPDEST DUP1 DUP1 PUSH1 0x20 ADD SWAP1 MLOAD DUP2 ADD SWAP1 PUSH2 0x3580 SWAP2 SWAP1 PUSH2 0x4D04 JUMP JUMPDEST JUMPDEST PUSH1 0x3 SIGNEXTEND SWAP3 POP POP POP SWAP4 SWAP3 POP POP POP JUMP JUMPDEST PUSH0 PUSH1 0x1 PUSH0 SWAP1 SLOAD SWAP1 PUSH2 0x100 EXP SWAP1 DIV PUSH20 0xFFFFFFFFFFFFFFFFFFFFFFFFFFFFFFFFFFFFFFFF AND SWAP1 POP DUP2 PUSH1 0x1 PUSH0 PUSH2 0x100 EXP DUP2 SLOAD DUP2 PUSH20 0xFFFFFFFFFFFFFFFFFFFFFFFFFFFFFFFFFFFFFFFF MUL NOT AND SWAP1 DUP4 PUSH20 0xFFFFFFFFFFFFFFFFFFFFFFFFFFFFFFFFFFFFFFFF AND MUL OR SWAP1 SSTORE POP DUP2 PUSH20 0xFFFFFFFFFFFFFFFFFFFFFFFFFFFFFFFFFFFFFFFF AND DUP2 PUSH20 0xFFFFFFFFFFFFFFFFFFFFFFFFFFFFFFFFFFFFFFFF AND PUSH32 0x8BE0079C531659141344CD1FD0A4F28419497F9722A3DAAFE3B4186F6B6457E0 PUSH1 0x40 MLOAD PUSH1 0x40 MLOAD DUP1 SWAP2 SUB SWAP1 LOG3 POP POP JUMP JUMPDEST PUSH0 CALLER SWAP1 POP SWAP1 JUMP JUMPDEST PUSH0 DUP1 PUSH0 SWAP1 POP PUSH0 PUSH2 0x367A PUSH16 0xFFFFFFFFFFFFFFFFFFFFFFFFFFFFFFFF DUP6 GT PUSH2 0x3757 JUMP JUMPDEST PUSH1 0x80 MUL SWAP1 POP DUP1 DUP5 SWAP1 SHR SWAP4 POP DUP1 DUP3 ADD SWAP2 POP PUSH2 0x369D PUSH8 0xFFFFFFFFFFFFFFFF DUP6 GT PUSH2 0x3757 JUMP JUMPDEST PUSH1 0x40 MUL SWAP1 POP DUP1 DUP5 SWAP1 SHR SWAP4 POP DUP1 DUP3 ADD SWAP2 POP PUSH2 0x36BC PUSH4 0xFFFFFFFF DUP6 GT PUSH2 0x3757 JUMP JUMPDEST PUSH1 0x20 MUL SWAP1 POP DUP1 DUP5 SWAP1 SHR SWAP4 POP DUP1 DUP3 ADD SWAP2 POP PUSH2 0x36D9 PUSH2 0xFFFF DUP6 GT PUSH2 0x3757 JUMP JUMPDEST PUSH1 0x10 MUL SWAP1 POP DUP1 DUP5 SWAP1 SHR SWAP4 POP DUP1 DUP3 ADD SWAP2 POP PUSH2 0x36F5 PUSH1 0xFF DUP6 GT PUSH2 0x3757 JUMP JUMPDEST PUSH1 0x8 MUL SWAP1 POP DUP1 DUP5 SWAP1 SHR SWAP4 POP DUP1 DUP3 ADD SWAP2 POP PUSH2 0x3711 PUSH1 0xF DUP6 GT PUSH2 0x3757 JUMP JUMPDEST PUSH1 0x4 MUL SWAP1 POP DUP1 DUP5 SWAP1 SHR SWAP4 POP DUP1 DUP3 ADD SWAP2 POP PUSH2 0x372D PUSH1 0x3 DUP6 GT PUSH2 0x3757 JUMP JUMPDEST PUSH1 0x2 MUL SWAP1 POP DUP1 DUP5 SWAP1 SHR SWAP4 POP DUP1 DUP3 ADD SWAP2 POP PUSH2 0x3749 PUSH1 0x1 DUP6 GT PUSH2 0x3757 JUMP JUMPDEST DUP3 ADD SWAP2 POP DUP2 SWAP3 POP POP POP SWAP2 SWAP1 POP JUMP JUMPDEST PUSH0 DUP2 ISZERO ISZERO SWAP1 POP SWAP2 SWAP1 POP JUMP JUMPDEST PUSH0 PUSH1 0x40 MLOAD SWAP1 POP SWAP1 JUMP JUMPDEST PUSH0 DUP1 REVERT JUMPDEST PUSH0 DUP1 REVERT JUMPDEST PUSH0 PUSH20 0xFFFFFFFFFFFFFFFFFFFFFFFFFFFFFFFFFFFFFFFF DUP3 AND SWAP1 POP SWAP2 SWAP1 POP JUMP JUMPDEST PUSH0 PUSH2 0x379C DUP3 PUSH2 0x3773 JUMP JUMPDEST SWAP1 POP SWAP2 SWAP1 POP JUMP JUMPDEST PUSH2 0x37AC DUP2 PUSH2 0x3792 JUMP JUMPDEST DUP2 EQ PUSH2 0x37B6 JUMPI PUSH0 DUP1 REVERT JUMPDEST POP JUMP JUMPDEST PUSH0 DUP2 CALLDATALOAD SWAP1 POP PUSH2 0x37C7 DUP2 PUSH2 0x37A3 JUMP JUMPDEST SWAP3 SWAP2 POP POP JUMP JUMPDEST PUSH0 PUSH1 0x20 DUP3 DUP5 SUB SLT ISZERO PUSH2 0x37E2 JUMPI PUSH2 0x37E1 PUSH2 0x376B JUMP JUMPDEST JUMPDEST PUSH0 PUSH2 0x37EF DUP5 DUP3 DUP6 ADD PUSH2 0x37B9 JUMP JUMPDEST SWAP2 POP POP SWAP3 SWAP2 POP POP JUMP JUMPDEST PUSH0 DUP2 SWAP1 POP SWAP2 SWAP1 POP JUMP JUMPDEST PUSH2 0x380A DUP2 PUSH2 0x37F8 JUMP JUMPDEST DUP2 EQ PUSH2 0x3814 JUMPI PUSH0 DUP1 REVERT JUMPDEST POP JUMP JUMPDEST PUSH0 DUP2 CALLDATALOAD SWAP1 POP PUSH2 0x3825 DUP2 PUSH2 0x3801 JUMP JUMPDEST SWAP3 SWAP2 POP POP JUMP JUMPDEST PUSH0 DUP1 REVERT JUMPDEST PUSH0 DUP1 REVERT JUMPDEST PUSH0 DUP1 REVERT JUMPDEST PUSH0 DUP1 DUP4 PUSH1 0x1F DUP5 ADD SLT PUSH2 0x384C JUMPI PUSH2 0x384B PUSH2 0x382B JUMP JUMPDEST JUMPDEST DUP3 CALLDATALOAD SWAP1 POP PUSH8 0xFFFFFFFFFFFFFFFF DUP2 GT ISZERO PUSH2 0x3869 JUMPI PUSH2 0x3868 PUSH2 0x382F JUMP JUMPDEST JUMPDEST PUSH1 0x20 DUP4 ADD SWAP2 POP DUP4 PUSH1 0x20 DUP3 MUL DUP4 ADD GT ISZERO PUSH2 0x3885 JUMPI PUSH2 0x3884 PUSH2 0x3833 JUMP JUMPDEST JUMPDEST SWAP3 POP SWAP3 SWAP1 POP JUMP JUMPDEST PUSH0 DUP1 PUSH0 DUP1 PUSH0 DUP1 PUSH1 0xA0 DUP8 DUP10 SUB SLT ISZERO PUSH2 0x38A6 JUMPI PUSH2 0x38A5 PUSH2 0x376B JUMP JUMPDEST JUMPDEST PUSH0 PUSH2 0x38B3 DUP10 DUP3 DUP11 ADD PUSH2 0x37B9 JUMP JUMPDEST SWAP7 POP POP PUSH1 0x20 PUSH2 0x38C4 DUP10 DUP3 DUP11 ADD PUSH2 0x3817 JUMP JUMPDEST SWAP6 POP POP PUSH1 0x40 PUSH2 0x38D5 DUP10 DUP3 DUP11 ADD PUSH2 0x3817 JUMP JUMPDEST SWAP5 POP POP PUSH1 0x60 PUSH2 0x38E6 DUP10 DUP3 DUP11 ADD PUSH2 0x3817 JUMP JUMPDEST SWAP4 POP POP PUSH1 0x80 DUP8 ADD CALLDATALOAD PUSH8 0xFFFFFFFFFFFFFFFF DUP2 GT ISZERO PUSH2 0x3907 JUMPI PUSH2 0x3906 PUSH2 0x376F JUMP JUMPDEST JUMPDEST PUSH2 0x3913 DUP10 DUP3 DUP11 ADD PUSH2 0x3837 JUMP JUMPDEST SWAP3 POP SWAP3 POP POP SWAP3 SWAP6 POP SWAP3 SWAP6 POP SWAP3 SWAP6 JUMP JUMPDEST PUSH0 DUP2 SWAP1 POP SWAP2 SWAP1 POP JUMP JUMPDEST PUSH0 PUSH2 0x3945 PUSH2 0x3940 PUSH2 0x393B DUP5 PUSH2 0x3773 JUMP JUMPDEST PUSH2 0x3922 JUMP JUMPDEST PUSH2 0x3773 JUMP JUMPDEST SWAP1 POP SWAP2 SWAP1 POP JUMP JUMPDEST PUSH0 PUSH2 0x3956 DUP3 PUSH2 0x392B JUMP JUMPDEST SWAP1 POP SWAP2 SWAP1 POP JUMP JUMPDEST PUSH0 PUSH2 0x3967 DUP3 PUSH2 0x394C JUMP JUMPDEST SWAP1 POP SWAP2 SWAP1 POP JUMP JUMPDEST PUSH2 0x3977 DUP2 PUSH2 0x395D JUMP JUMPDEST DUP3 MSTORE POP POP JUMP JUMPDEST PUSH0 PUSH1 0x20 DUP3 ADD SWAP1 POP PUSH2 0x3990 PUSH0 DUP4 ADD DUP5 PUSH2 0x396E JUMP JUMPDEST SWAP3 SWAP2 POP POP JUMP JUMPDEST PUSH0 DUP1 PUSH0 DUP1 PUSH1 0x80 DUP6 DUP8 SUB SLT ISZERO PUSH2 0x39AE JUMPI PUSH2 0x39AD PUSH2 0x376B JUMP JUMPDEST JUMPDEST PUSH0 PUSH2 0x39BB DUP8 DUP3 DUP9 ADD PUSH2 0x37B9 JUMP JUMPDEST SWAP5 POP POP PUSH1 0x20 PUSH2 0x39CC DUP8 DUP3 DUP9 ADD PUSH2 0x37B9 JUMP JUMPDEST SWAP4 POP POP PUSH1 0x40 PUSH2 0x39DD DUP8 DUP3 DUP9 ADD PUSH2 0x37B9 JUMP JUMPDEST SWAP3 POP POP PUSH1 0x60 PUSH2 0x39EE DUP8 DUP3 DUP9 ADD PUSH2 0x3817 JUMP JUMPDEST SWAP2 POP POP SWAP3 SWAP6 SWAP2 SWAP5 POP SWAP3 POP JUMP JUMPDEST PUSH0 DUP2 PUSH1 0x7 SIGNEXTEND SWAP1 POP SWAP2 SWAP1 POP JUMP JUMPDEST PUSH2 0x3A0F DUP2 PUSH2 0x39FA JUMP JUMPDEST DUP3 MSTORE POP POP JUMP JUMPDEST PUSH0 PUSH1 0x20 DUP3 ADD SWAP1 POP PUSH2 0x3A28 PUSH0 DUP4 ADD DUP5 PUSH2 0x3A06 JUMP JUMPDEST SWAP3 SWAP2 POP POP JUMP JUMPDEST PUSH0 PUSH1 0x20 DUP3 DUP5 SUB SLT ISZERO PUSH2 0x3A43 JUMPI PUSH2 0x3A42 PUSH2 0x376B JUMP JUMPDEST JUMPDEST PUSH0 PUSH2 0x3A50 DUP5 DUP3 DUP6 ADD PUSH2 0x3817 JUMP JUMPDEST SWAP2 POP POP SWAP3 SWAP2 POP POP JUMP JUMPDEST PUSH0 DUP2 SWAP1 POP SWAP2 SWAP1 POP JUMP JUMPDEST PUSH2 0x3A6B DUP2 PUSH2 0x3A59 JUMP JUMPDEST DUP3 MSTORE POP POP JUMP JUMPDEST PUSH0 PUSH1 0x20 DUP3 ADD SWAP1 POP PUSH2 0x3A84 PUSH0 DUP4 ADD DUP5 PUSH2 0x3A62 JUMP JUMPDEST SWAP3 SWAP2 POP POP JUMP JUMPDEST PUSH2 0x3A93 DUP2 PUSH2 0x37F8 JUMP JUMPDEST DUP3 MSTORE POP POP JUMP JUMPDEST PUSH0 PUSH1 0x20 DUP3 ADD SWAP1 POP PUSH2 0x3AAC PUSH0 DUP4 ADD DUP5 PUSH2 0x3A8A JUMP JUMPDEST SWAP3 SWAP2 POP POP JUMP JUMPDEST PUSH2 0x3ABB DUP2 PUSH2 0x3A59 JUMP JUMPDEST DUP2 EQ PUSH2 0x3AC5 JUMPI PUSH0 DUP1 REVERT JUMPDEST POP JUMP JUMPDEST PUSH0 DUP2 CALLDATALOAD SWAP1 POP PUSH2 0x3AD6 DUP2 PUSH2 0x3AB2 JUMP JUMPDEST SWAP3 SWAP2 POP POP JUMP JUMPDEST PUSH0 PUSH1 0x20 DUP3 DUP5 SUB SLT ISZERO PUSH2 0x3AF1 JUMPI PUSH2 0x3AF0 PUSH2 0x376B JUMP JUMPDEST JUMPDEST PUSH0 PUSH2 0x3AFE DUP5 DUP3 DUP6 ADD PUSH2 0x3AC8 JUMP JUMPDEST SWAP2 POP POP SWAP3 SWAP2 POP POP JUMP JUMPDEST PUSH0 DUP1 REVERT JUMPDEST PUSH0 PUSH1 0x1F NOT PUSH1 0x1F DUP4 ADD AND SWAP1 POP SWAP2 SWAP1 POP JUMP JUMPDEST PUSH32 0x4E487B7100000000000000000000000000000000000000000000000000000000 PUSH0 MSTORE PUSH1 0x41 PUSH1 0x4 MSTORE PUSH1 0x24 PUSH0 REVERT JUMPDEST PUSH2 0x3B51 DUP3 PUSH2 0x3B0B JUMP JUMPDEST DUP2 ADD DUP2 DUP2 LT PUSH8 0xFFFFFFFFFFFFFFFF DUP3 GT OR ISZERO PUSH2 0x3B70 JUMPI PUSH2 0x3B6F PUSH2 0x3B1B JUMP JUMPDEST JUMPDEST DUP1 PUSH1 0x40 MSTORE POP POP POP JUMP JUMPDEST PUSH0 PUSH2 0x3B82 PUSH2 0x3762 JUMP JUMPDEST SWAP1 POP PUSH2 0x3B8E DUP3 DUP3 PUSH2 0x3B48 JUMP JUMPDEST SWAP2 SWAP1 POP JUMP JUMPDEST PUSH0 PUSH8 0xFFFFFFFFFFFFFFFF DUP3 GT ISZERO PUSH2 0x3BAD JUMPI PUSH2 0x3BAC PUSH2 0x3B1B JUMP JUMPDEST JUMPDEST PUSH2 0x3BB6 DUP3 PUSH2 0x3B0B JUMP JUMPDEST SWAP1 POP PUSH1 0x20 DUP2 ADD SWAP1 POP SWAP2 SWAP1 POP JUMP JUMPDEST DUP3 DUP2 DUP4 CALLDATACOPY PUSH0 DUP4 DUP4 ADD MSTORE POP POP POP JUMP JUMPDEST PUSH0 PUSH2 0x3BE3 PUSH2 0x3BDE DUP5 PUSH2 0x3B93 JUMP JUMPDEST PUSH2 0x3B79 JUMP JUMPDEST SWAP1 POP DUP3 DUP2 MSTORE PUSH1 0x20 DUP2 ADD DUP5 DUP5 DUP5 ADD GT ISZERO PUSH2 0x3BFF JUMPI PUSH2 0x3BFE PUSH2 0x3B07 JUMP JUMPDEST JUMPDEST PUSH2 0x3C0A DUP5 DUP3 DUP6 PUSH2 0x3BC3 JUMP JUMPDEST POP SWAP4 SWAP3 POP POP POP JUMP JUMPDEST PUSH0 DUP3 PUSH1 0x1F DUP4 ADD SLT PUSH2 0x3C26 JUMPI PUSH2 0x3C25 PUSH2 0x382B JUMP JUMPDEST JUMPDEST DUP2 CALLDATALOAD PUSH2 0x3C36 DUP5 DUP3 PUSH1 0x20 DUP7 ADD PUSH2 0x3BD1 JUMP JUMPDEST SWAP2 POP POP SWAP3 SWAP2 POP POP JUMP JUMPDEST PUSH0 DUP1 PUSH1 0x40 DUP4 DUP6 SUB SLT ISZERO PUSH2 0x3C55 JUMPI PUSH2 0x3C54 PUSH2 0x376B JUMP JUMPDEST JUMPDEST PUSH0 PUSH2 0x3C62 DUP6 DUP3 DUP7 ADD PUSH2 0x37B9 JUMP JUMPDEST SWAP3 POP POP PUSH1 0x20 DUP4 ADD CALLDATALOAD PUSH8 0xFFFFFFFFFFFFFFFF DUP2 GT ISZERO PUSH2 0x3C83 JUMPI PUSH2 0x3C82 PUSH2 0x376F JUMP JUMPDEST JUMPDEST PUSH2 0x3C8F DUP6 DUP3 DUP7 ADD PUSH2 0x3C12 JUMP JUMPDEST SWAP2 POP POP SWAP3 POP SWAP3 SWAP1 POP JUMP JUMPDEST PUSH0 DUP2 SWAP1 POP SWAP2 SWAP1 POP JUMP JUMPDEST PUSH2 0x3CAB DUP2 PUSH2 0x3C99 JUMP JUMPDEST DUP3 MSTORE POP POP JUMP JUMPDEST PUSH0 DUP2 MLOAD SWAP1 POP SWAP2 SWAP1 POP JUMP JUMPDEST PUSH0 DUP3 DUP3 MSTORE PUSH1 0x20 DUP3 ADD SWAP1 POP SWAP3 SWAP2 POP POP JUMP JUMPDEST DUP3 DUP2 DUP4 MCOPY PUSH0 DUP4 DUP4 ADD MSTORE POP POP POP JUMP JUMPDEST PUSH0 PUSH2 0x3CE3 DUP3 PUSH2 0x3CB1 JUMP JUMPDEST PUSH2 0x3CED DUP2 DUP6 PUSH2 0x3CBB JUMP JUMPDEST SWAP4 POP PUSH2 0x3CFD DUP2 DUP6 PUSH1 0x20 DUP7 ADD PUSH2 0x3CCB JUMP JUMPDEST PUSH2 0x3D06 DUP2 PUSH2 0x3B0B JUMP JUMPDEST DUP5 ADD SWAP2 POP POP SWAP3 SWAP2 POP POP JUMP JUMPDEST PUSH0 PUSH1 0x40 DUP3 ADD SWAP1 POP PUSH2 0x3D24 PUSH0 DUP4 ADD DUP6 PUSH2 0x3CA2 JUMP JUMPDEST DUP2 DUP2 SUB PUSH1 0x20 DUP4 ADD MSTORE PUSH2 0x3D36 DUP2 DUP5 PUSH2 0x3CD9 JUMP JUMPDEST SWAP1 POP SWAP4 SWAP3 POP POP POP JUMP JUMPDEST PUSH2 0x3D48 DUP2 PUSH2 0x3792 JUMP JUMPDEST DUP3 MSTORE POP POP JUMP JUMPDEST PUSH0 PUSH1 0x20 DUP3 ADD SWAP1 POP PUSH2 0x3D61 PUSH0 DUP4 ADD DUP5 PUSH2 0x3D3F JUMP JUMPDEST SWAP3 SWAP2 POP POP JUMP JUMPDEST PUSH0 PUSH2 0x3D71 DUP3 PUSH2 0x394C JUMP JUMPDEST SWAP1 POP SWAP2 SWAP1 POP JUMP JUMPDEST PUSH2 0x3D81 DUP2 PUSH2 0x3D67 JUMP JUMPDEST DUP3 MSTORE POP POP JUMP JUMPDEST PUSH0 PUSH1 0x20 DUP3 ADD SWAP1 POP PUSH2 0x3D9A PUSH0 DUP4 ADD DUP5 PUSH2 0x3D78 JUMP JUMPDEST SWAP3 SWAP2 POP POP JUMP JUMPDEST PUSH0 DUP1 PUSH1 0x40 DUP4 DUP6 SUB SLT ISZERO PUSH2 0x3DB6 JUMPI PUSH2 0x3DB5 PUSH2 0x376B JUMP JUMPDEST JUMPDEST PUSH0 PUSH2 0x3DC3 DUP6 DUP3 DUP7 ADD PUSH2 0x37B9 JUMP JUMPDEST SWAP3 POP POP PUSH1 0x20 PUSH2 0x3DD4 DUP6 DUP3 DUP7 ADD PUSH2 0x37B9 JUMP JUMPDEST SWAP2 POP POP SWAP3 POP SWAP3 SWAP1 POP JUMP JUMPDEST PUSH0 PUSH3 0xFFFFFF DUP3 AND SWAP1 POP SWAP2 SWAP1 POP JUMP JUMPDEST PUSH2 0x3DF5 DUP2 PUSH2 0x3DDE JUMP JUMPDEST DUP3 MSTORE POP POP JUMP JUMPDEST PUSH0 PUSH1 0x20 DUP3 ADD SWAP1 POP PUSH2 0x3E0E PUSH0 DUP4 ADD DUP5 PUSH2 0x3DEC JUMP JUMPDEST SWAP3 SWAP2 POP POP JUMP JUMPDEST PUSH0 DUP1 PUSH1 0x40 DUP4 DUP6 SUB SLT ISZERO PUSH2 0x3E2A JUMPI PUSH2 0x3E29 PUSH2 0x376B JUMP JUMPDEST JUMPDEST PUSH0 PUSH2 0x3E37 DUP6 DUP3 DUP7 ADD PUSH2 0x37B9 JUMP JUMPDEST SWAP3 POP POP PUSH1 0x20 PUSH2 0x3E48 DUP6 DUP3 DUP7 ADD PUSH2 0x3817 JUMP JUMPDEST SWAP2 POP POP SWAP3 POP SWAP3 SWAP1 POP JUMP JUMPDEST PUSH0 PUSH1 0xC0 DUP3 ADD SWAP1 POP PUSH2 0x3E65 PUSH0 DUP4 ADD DUP10 PUSH2 0x3D3F JUMP JUMPDEST PUSH2 0x3E72 PUSH1 0x20 DUP4 ADD DUP9 PUSH2 0x3A8A JUMP JUMPDEST PUSH2 0x3E7F PUSH1 0x40 DUP4 ADD DUP8 PUSH2 0x3A8A JUMP JUMPDEST PUSH2 0x3E8C PUSH1 0x60 DUP4 ADD DUP7 PUSH2 0x3A8A JUMP JUMPDEST PUSH2 0x3E99 PUSH1 0x80 DUP4 ADD DUP6 PUSH2 0x3A8A JUMP JUMPDEST PUSH2 0x3EA6 PUSH1 0xA0 DUP4 ADD DUP5 PUSH2 0x3A8A JUMP JUMPDEST SWAP8 SWAP7 POP POP POP POP POP POP POP JUMP JUMPDEST PUSH0 DUP2 ISZERO ISZERO SWAP1 POP SWAP2 SWAP1 POP JUMP JUMPDEST PUSH2 0x3EC5 DUP2 PUSH2 0x3EB1 JUMP JUMPDEST DUP3 MSTORE POP POP JUMP JUMPDEST PUSH0 PUSH1 0xC0 DUP3 ADD SWAP1 POP PUSH2 0x3EDE PUSH0 DUP4 ADD DUP10 PUSH2 0x3A8A JUMP JUMPDEST PUSH2 0x3EEB PUSH1 0x20 DUP4 ADD DUP9 PUSH2 0x3A8A JUMP JUMPDEST PUSH2 0x3EF8 PUSH1 0x40 DUP4 ADD DUP8 PUSH2 0x3A8A JUMP JUMPDEST PUSH2 0x3F05 PUSH1 0x60 DUP4 ADD DUP7 PUSH2 0x3A8A JUMP JUMPDEST PUSH2 0x3F12 PUSH1 0x80 DUP4 ADD DUP6 PUSH2 0x3A8A JUMP JUMPDEST PUSH2 0x3F1F PUSH1 0xA0 DUP4 ADD DUP5 PUSH2 0x3EBC JUMP JUMPDEST SWAP8 SWAP7 POP POP POP POP POP POP POP JUMP JUMPDEST PUSH0 DUP1 PUSH1 0x40 DUP4 DUP6 SUB SLT ISZERO PUSH2 0x3F40 JUMPI PUSH2 0x3F3F PUSH2 0x376B JUMP JUMPDEST JUMPDEST PUSH0 PUSH2 0x3F4D DUP6 DUP3 DUP7 ADD PUSH2 0x3817 JUMP JUMPDEST SWAP3 POP POP PUSH1 0x20 PUSH2 0x3F5E DUP6 DUP3 DUP7 ADD PUSH2 0x3817 JUMP JUMPDEST SWAP2 POP POP SWAP3 POP SWAP3 SWAP1 POP JUMP JUMPDEST PUSH2 0x3F71 DUP2 PUSH2 0x3DDE JUMP JUMPDEST DUP2 EQ PUSH2 0x3F7B JUMPI PUSH0 DUP1 REVERT JUMPDEST POP JUMP JUMPDEST PUSH0 DUP2 CALLDATALOAD SWAP1 POP PUSH2 0x3F8C DUP2 PUSH2 0x3F68 JUMP JUMPDEST SWAP3 SWAP2 POP POP JUMP JUMPDEST PUSH0 DUP1 PUSH0 PUSH1 0x60 DUP5 DUP7 SUB SLT ISZERO PUSH2 0x3FA9 JUMPI PUSH2 0x3FA8 PUSH2 0x376B JUMP JUMPDEST JUMPDEST PUSH0 PUSH2 0x3FB6 DUP7 DUP3 DUP8 ADD PUSH2 0x37B9 JUMP JUMPDEST SWAP4 POP POP PUSH1 0x20 PUSH2 0x3FC7 DUP7 DUP3 DUP8 ADD PUSH2 0x37B9 JUMP JUMPDEST SWAP3 POP POP PUSH1 0x40 PUSH2 0x3FD8 DUP7 DUP3 DUP8 ADD PUSH2 0x3F7E JUMP JUMPDEST SWAP2 POP POP SWAP3 POP SWAP3 POP SWAP3 JUMP JUMPDEST PUSH0 PUSH2 0x3FEC DUP3 PUSH2 0x394C JUMP JUMPDEST SWAP1 POP SWAP2 SWAP1 POP JUMP JUMPDEST PUSH2 0x3FFC DUP2 PUSH2 0x3FE2 JUMP JUMPDEST DUP3 MSTORE POP POP JUMP JUMPDEST PUSH0 PUSH1 0x20 DUP3 ADD SWAP1 POP PUSH2 0x4015 PUSH0 DUP4 ADD DUP5 PUSH2 0x3FF3 JUMP JUMPDEST SWAP3 SWAP2 POP POP JUMP JUMPDEST PUSH0 DUP3 DUP3 MSTORE PUSH1 0x20 DUP3 ADD SWAP1 POP SWAP3 SWAP2 POP POP JUMP JUMPDEST PUSH32 0x496E76616C696420616464726573730000000000000000000000000000000000 PUSH0 DUP3 ADD MSTORE POP JUMP JUMPDEST PUSH0 PUSH2 0x405F PUSH1 0xF DUP4 PUSH2 0x401B JUMP JUMPDEST SWAP2 POP PUSH2 0x406A DUP3 PUSH2 0x402B JUMP JUMPDEST PUSH1 0x20 DUP3 ADD SWAP1 POP SWAP2 SWAP1 POP JUMP JUMPDEST PUSH0 PUSH1 0x20 DUP3 ADD SWAP1 POP DUP2 DUP2 SUB PUSH0 DUP4 ADD MSTORE PUSH2 0x408C DUP2 PUSH2 0x4053 JUMP JUMPDEST SWAP1 POP SWAP2 SWAP1 POP JUMP JUMPDEST PUSH32 0x5374616B6520616D6F756E74206D757374206265203E20300000000000000000 PUSH0 DUP3 ADD MSTORE POP JUMP JUMPDEST PUSH0 PUSH2 0x40C7 PUSH1 0x18 DUP4 PUSH2 0x401B JUMP JUMPDEST SWAP2 POP PUSH2 0x40D2 DUP3 PUSH2 0x4093 JUMP JUMPDEST PUSH1 0x20 DUP3 ADD SWAP1 POP SWAP2 SWAP1 POP JUMP JUMPDEST PUSH0 PUSH1 0x20 DUP3 ADD SWAP1 POP DUP2 DUP2 SUB PUSH0 DUP4 ADD MSTORE PUSH2 0x40F4 DUP2 PUSH2 0x40BB JUMP JUMPDEST SWAP1 POP SWAP2 SWAP1 POP JUMP JUMPDEST PUSH32 0x5374616B65206475726174696F6E206F7574206F662072616E67650000000000 PUSH0 DUP3 ADD MSTORE POP JUMP JUMPDEST PUSH0 PUSH2 0x412F PUSH1 0x1B DUP4 PUSH2 0x401B JUMP JUMPDEST SWAP2 POP PUSH2 0x413A DUP3 PUSH2 0x40FB JUMP JUMPDEST PUSH1 0x20 DUP3 ADD SWAP1 POP SWAP2 SWAP1 POP JUMP JUMPDEST PUSH0 PUSH1 0x20 DUP3 ADD SWAP1 POP DUP2 DUP2 SUB PUSH0 DUP4 ADD MSTORE PUSH2 0x415C DUP2 PUSH2 0x4123 JUMP JUMPDEST SWAP1 POP SWAP2 SWAP1 POP JUMP JUMPDEST PUSH32 0x4D6178696D756D206E756D626572206F6620616374697665207374616B657320 PUSH0 DUP3 ADD MSTORE PUSH32 0x7265616368656400000000000000000000000000000000000000000000000000 PUSH1 0x20 DUP3 ADD MSTORE POP JUMP JUMPDEST PUSH0 PUSH2 0x41BD PUSH1 0x27 DUP4 PUSH2 0x401B JUMP JUMPDEST SWAP2 POP PUSH2 0x41C8 DUP3 PUSH2 0x4163 JUMP JUMPDEST PUSH1 0x40 DUP3 ADD SWAP1 POP SWAP2 SWAP1 POP JUMP JUMPDEST PUSH0 PUSH1 0x20 DUP3 ADD SWAP1 POP DUP2 DUP2 SUB PUSH0 DUP4 ADD MSTORE PUSH2 0x41EA DUP2 PUSH2 0x41B1 JUMP JUMPDEST SWAP1 POP SWAP2 SWAP1 POP JUMP JUMPDEST PUSH32 0x496E636F7272656374204842415220616D6F756E742073656E74000000000000 PUSH0 DUP3 ADD MSTORE POP JUMP JUMPDEST PUSH0 PUSH2 0x4225 PUSH1 0x1A DUP4 PUSH2 0x401B JUMP JUMPDEST SWAP2 POP PUSH2 0x4230 DUP3 PUSH2 0x41F1 JUMP JUMPDEST PUSH1 0x20 DUP3 ADD SWAP1 POP SWAP2 SWAP1 POP JUMP JUMPDEST PUSH0 PUSH1 0x20 DUP3 ADD SWAP1 POP DUP2 DUP2 SUB PUSH0 DUP4 ADD MSTORE PUSH2 0x4252 DUP2 PUSH2 0x4219 JUMP JUMPDEST SWAP1 POP SWAP2 SWAP1 POP JUMP JUMPDEST PUSH0 DUP3 DUP3 MSTORE PUSH1 0x20 DUP3 ADD SWAP1 POP SWAP3 SWAP2 POP POP JUMP JUMPDEST PUSH0 DUP2 SWAP1 POP SWAP2 SWAP1 POP JUMP JUMPDEST PUSH0 DUP3 DUP3 MSTORE PUSH1 0x20 DUP3 ADD SWAP1 POP SWAP3 SWAP2 POP POP JUMP JUMPDEST PUSH0 PUSH2 0x428D DUP4 DUP6 PUSH2 0x4272 JUMP JUMPDEST SWAP4 POP PUSH2 0x429A DUP4 DUP6 DUP5 PUSH2 0x3BC3 JUMP JUMPDEST PUSH2 0x42A3 DUP4 PUSH2 0x3B0B JUMP JUMPDEST DUP5 ADD SWAP1 POP SWAP4 SWAP3 POP POP POP JUMP JUMPDEST PUSH0 PUSH2 0x42BA DUP5 DUP5 DUP5 PUSH2 0x4282 JUMP JUMPDEST SWAP1 POP SWAP4 SWAP3 POP POP POP JUMP JUMPDEST PUSH0 DUP1 REVERT JUMPDEST PUSH0 DUP1 REVERT JUMPDEST PUSH0 DUP1 REVERT JUMPDEST PUSH0 DUP1 DUP4 CALLDATALOAD PUSH1 0x1 PUSH1 0x20 SUB DUP5 CALLDATASIZE SUB SUB DUP2 SLT PUSH2 0x42EB JUMPI PUSH2 0x42EA PUSH2 0x42CB JUMP JUMPDEST JUMPDEST DUP4 DUP2 ADD SWAP3 POP DUP3 CALLDATALOAD SWAP2 POP PUSH1 0x20 DUP4 ADD SWAP3 POP PUSH8 0xFFFFFFFFFFFFFFFF DUP3 GT ISZERO PUSH2 0x4313 JUMPI PUSH2 0x4312 PUSH2 0x42C3 JUMP JUMPDEST JUMPDEST PUSH1 0x1 DUP3 MUL CALLDATASIZE SUB DUP4 SGT ISZERO PUSH2 0x4329 JUMPI PUSH2 0x4328 PUSH2 0x42C7 JUMP JUMPDEST JUMPDEST POP SWAP3 POP SWAP3 SWAP1 POP JUMP JUMPDEST PUSH0 PUSH1 0x20 DUP3 ADD SWAP1 POP SWAP2 SWAP1 POP JUMP JUMPDEST PUSH0 PUSH2 0x4348 DUP4 DUP6 PUSH2 0x4259 JUMP JUMPDEST SWAP4 POP DUP4 PUSH1 0x20 DUP5 MUL DUP6 ADD PUSH2 0x435A DUP5 PUSH2 0x4269 JUMP JUMPDEST DUP1 PUSH0 JUMPDEST DUP8 DUP2 LT ISZERO PUSH2 0x439F JUMPI DUP5 DUP5 SUB DUP10 MSTORE PUSH2 0x4374 DUP3 DUP5 PUSH2 0x42CF JUMP JUMPDEST PUSH2 0x437F DUP7 DUP3 DUP5 PUSH2 0x42AE JUMP JUMPDEST SWAP6 POP PUSH2 0x438A DUP5 PUSH2 0x4331 JUMP JUMPDEST SWAP4 POP PUSH1 0x20 DUP12 ADD SWAP11 POP POP POP PUSH1 0x1 DUP2 ADD SWAP1 POP PUSH2 0x435D JUMP JUMPDEST POP DUP3 SWAP8 POP DUP8 SWAP5 POP POP POP POP POP SWAP4 SWAP3 POP POP POP JUMP JUMPDEST PUSH0 PUSH1 0x20 DUP3 ADD SWAP1 POP DUP2 DUP2 SUB PUSH0 DUP4 ADD MSTORE PUSH2 0x43CA DUP2 DUP5 DUP7 PUSH2 0x433D JUMP JUMPDEST SWAP1 POP SWAP4 SWAP3 POP POP POP JUMP JUMPDEST PUSH0 DUP2 MLOAD SWAP1 POP PUSH2 0x43E1 DUP2 PUSH2 0x3801 JUMP JUMPDEST SWAP3 SWAP2 POP POP JUMP JUMPDEST PUSH0 PUSH1 0x20 DUP3 DUP5 SUB SLT ISZERO PUSH2 0x43FC JUMPI PUSH2 0x43FB PUSH2 0x376B JUMP JUMPDEST JUMPDEST PUSH0 PUSH2 0x4409 DUP5 DUP3 DUP6 ADD PUSH2 0x43D3 JUMP JUMPDEST SWAP2 POP POP SWAP3 SWAP2 POP POP JUMP JUMPDEST PUSH32 0x4E487B7100000000000000000000000000000000000000000000000000000000 PUSH0 MSTORE PUSH1 0x11 PUSH1 0x4 MSTORE PUSH1 0x24 PUSH0 REVERT JUMPDEST PUSH0 PUSH2 0x4449 DUP3 PUSH2 0x37F8 JUMP JUMPDEST SWAP2 POP PUSH2 0x4454 DUP4 PUSH2 0x37F8 JUMP JUMPDEST SWAP3 POP DUP3 DUP3 SUB SWAP1 POP DUP2 DUP2 GT ISZERO PUSH2 0x446C JUMPI PUSH2 0x446B PUSH2 0x4412 JUMP JUMPDEST JUMPDEST SWAP3 SWAP2 POP POP JUMP JUMPDEST PUSH0 DUP2 SWAP1 POP SWAP2 SWAP1 POP JUMP JUMPDEST PUSH0 PUSH2 0x4495 PUSH2 0x4490 PUSH2 0x448B DUP5 PUSH2 0x4472 JUMP JUMPDEST PUSH2 0x3922 JUMP JUMPDEST PUSH2 0x37F8 JUMP JUMPDEST SWAP1 POP SWAP2 SWAP1 POP JUMP JUMPDEST PUSH2 0x44A5 DUP2 PUSH2 0x447B JUMP JUMPDEST DUP3 MSTORE POP POP JUMP JUMPDEST PUSH0 PUSH1 0x40 DUP3 ADD SWAP1 POP PUSH2 0x44BE PUSH0 DUP4 ADD DUP6 PUSH2 0x3A62 JUMP JUMPDEST PUSH2 0x44CB PUSH1 0x20 DUP4 ADD DUP5 PUSH2 0x449C JUMP JUMPDEST SWAP4 SWAP3 POP POP POP JUMP JUMPDEST PUSH0 DUP1 REVERT JUMPDEST PUSH2 0x44DF DUP2 PUSH2 0x39FA JUMP JUMPDEST DUP2 EQ PUSH2 0x44E9 JUMPI PUSH0 DUP1 REVERT JUMPDEST POP JUMP JUMPDEST PUSH0 DUP2 MLOAD SWAP1 POP PUSH2 0x44FA DUP2 PUSH2 0x44D6 JUMP JUMPDEST SWAP3 SWAP2 POP POP JUMP JUMPDEST PUSH0 PUSH8 0xFFFFFFFFFFFFFFFF DUP3 AND SWAP1 POP SWAP2 SWAP1 POP JUMP JUMPDEST PUSH2 0x451C DUP2 PUSH2 0x4500 JUMP JUMPDEST DUP2 EQ PUSH2 0x4526 JUMPI PUSH0 DUP1 REVERT JUMPDEST POP JUMP JUMPDEST PUSH0 DUP2 MLOAD SWAP1 POP PUSH2 0x4537 DUP2 PUSH2 0x4513 JUMP JUMPDEST SWAP3 SWAP2 POP POP JUMP JUMPDEST PUSH0 DUP2 PUSH1 0x3 SIGNEXTEND SWAP1 POP SWAP2 SWAP1 POP JUMP JUMPDEST PUSH2 0x4552 DUP2 PUSH2 0x453D JUMP JUMPDEST DUP2 EQ PUSH2 0x455C JUMPI PUSH0 DUP1 REVERT JUMPDEST POP JUMP JUMPDEST PUSH0 DUP2 MLOAD SWAP1 POP PUSH2 0x456D DUP2 PUSH2 0x4549 JUMP JUMPDEST SWAP3 SWAP2 POP POP JUMP JUMPDEST PUSH0 PUSH1 0x80 DUP3 DUP5 SUB SLT ISZERO PUSH2 0x4588 JUMPI PUSH2 0x4587 PUSH2 0x44D2 JUMP JUMPDEST JUMPDEST PUSH2 0x4592 PUSH1 0x80 PUSH2 0x3B79 JUMP JUMPDEST SWAP1 POP PUSH0 PUSH2 0x45A1 DUP5 DUP3 DUP6 ADD PUSH2 0x44EC JUMP JUMPDEST PUSH0 DUP4 ADD MSTORE POP PUSH1 0x20 PUSH2 0x45B4 DUP5 DUP3 DUP6 ADD PUSH2 0x4529 JUMP JUMPDEST PUSH1 0x20 DUP4 ADD MSTORE POP PUSH1 0x40 PUSH2 0x45C8 DUP5 DUP3 DUP6 ADD PUSH2 0x455F JUMP JUMPDEST PUSH1 0x40 DUP4 ADD MSTORE POP PUSH1 0x60 PUSH2 0x45DC DUP5 DUP3 DUP6 ADD PUSH2 0x43D3 JUMP JUMPDEST PUSH1 0x60 DUP4 ADD MSTORE POP SWAP3 SWAP2 POP POP JUMP JUMPDEST PUSH0 PUSH1 0x80 DUP3 DUP5 SUB SLT ISZERO PUSH2 0x45FD JUMPI PUSH2 0x45FC PUSH2 0x376B JUMP JUMPDEST JUMPDEST PUSH0 PUSH2 0x460A DUP5 DUP3 DUP6 ADD PUSH2 0x4573 JUMP JUMPDEST SWAP2 POP POP SWAP3 SWAP2 POP POP JUMP JUMPDEST PUSH0 PUSH2 0x461D DUP3 PUSH2 0x453D JUMP JUMPDEST SWAP2 POP PUSH32 0xFFFFFFFFFFFFFFFFFFFFFFFFFFFFFFFFFFFFFFFFFFFFFFFFFFFFFFFF80000000 DUP3 SUB PUSH2 0x464F JUMPI PUSH2 0x464E PUSH2 0x4412 JUMP JUMPDEST JUMPDEST DUP2 PUSH0 SUB SWAP1 POP SWAP2 SWAP1 POP JUMP JUMPDEST PUSH0 DUP2 PUSH1 0x1 SHR SWAP1 POP SWAP2 SWAP1 POP JUMP JUMPDEST PUSH0 DUP1 DUP3 SWAP2 POP DUP4 SWAP1 POP JUMPDEST PUSH1 0x1 DUP6 GT ISZERO PUSH2 0x46AE JUMPI DUP1 DUP7 DIV DUP2 GT ISZERO PUSH2 0x468A JUMPI PUSH2 0x4689 PUSH2 0x4412 JUMP JUMPDEST JUMPDEST PUSH1 0x1 DUP6 AND ISZERO PUSH2 0x4699 JUMPI DUP1 DUP3 MUL SWAP2 POP JUMPDEST DUP1 DUP2 MUL SWAP1 POP PUSH2 0x46A7 DUP6 PUSH2 0x4659 JUMP JUMPDEST SWAP5 POP PUSH2 0x466E JUMP JUMPDEST SWAP5 POP SWAP5 SWAP3 POP POP POP JUMP JUMPDEST PUSH0 DUP3 PUSH2 0x46C6 JUMPI PUSH1 0x1 SWAP1 POP PUSH2 0x4781 JUMP JUMPDEST DUP2 PUSH2 0x46D3 JUMPI PUSH0 SWAP1 POP PUSH2 0x4781 JUMP JUMPDEST DUP2 PUSH1 0x1 DUP2 EQ PUSH2 0x46E9 JUMPI PUSH1 0x2 DUP2 EQ PUSH2 0x46F3 JUMPI PUSH2 0x4722 JUMP JUMPDEST PUSH1 0x1 SWAP2 POP POP PUSH2 0x4781 JUMP JUMPDEST PUSH1 0xFF DUP5 GT ISZERO PUSH2 0x4705 JUMPI PUSH2 0x4704 PUSH2 0x4412 JUMP JUMPDEST JUMPDEST DUP4 PUSH1 0x2 EXP SWAP2 POP DUP5 DUP3 GT ISZERO PUSH2 0x471C JUMPI PUSH2 0x471B PUSH2 0x4412 JUMP JUMPDEST JUMPDEST POP PUSH2 0x4781 JUMP JUMPDEST POP PUSH1 0x20 DUP4 LT PUSH2 0x133 DUP4 LT AND PUSH1 0x4E DUP5 LT PUSH1 0xB DUP5 LT AND OR ISZERO PUSH2 0x4757 JUMPI DUP3 DUP3 EXP SWAP1 POP DUP4 DUP2 GT ISZERO PUSH2 0x4752 JUMPI PUSH2 0x4751 PUSH2 0x4412 JUMP JUMPDEST JUMPDEST PUSH2 0x4781 JUMP JUMPDEST PUSH2 0x4764 DUP5 DUP5 DUP5 PUSH1 0x1 PUSH2 0x4665 JUMP JUMPDEST SWAP3 POP SWAP1 POP DUP2 DUP5 DIV DUP2 GT ISZERO PUSH2 0x477B JUMPI PUSH2 0x477A PUSH2 0x4412 JUMP JUMPDEST JUMPDEST DUP2 DUP2 MUL SWAP1 POP JUMPDEST SWAP4 SWAP3 POP POP POP JUMP JUMPDEST PUSH0 PUSH2 0x4792 DUP3 PUSH2 0x37F8 JUMP JUMPDEST SWAP2 POP PUSH2 0x479D DUP4 PUSH2 0x37F8 JUMP JUMPDEST SWAP3 POP PUSH2 0x47CA PUSH32 0xFFFFFFFFFFFFFFFFFFFFFFFFFFFFFFFFFFFFFFFFFFFFFFFFFFFFFFFFFFFFFFFF DUP5 DUP5 PUSH2 0x46B7 JUMP JUMPDEST SWAP1 POP SWAP3 SWAP2 POP POP JUMP JUMPDEST PUSH0 PUSH2 0x47DC DUP3 PUSH2 0x37F8 JUMP JUMPDEST SWAP2 POP PUSH2 0x47E7 DUP4 PUSH2 0x37F8 JUMP JUMPDEST SWAP3 POP DUP3 DUP3 MUL PUSH2 0x47F5 DUP2 PUSH2 0x37F8 JUMP JUMPDEST SWAP2 POP DUP3 DUP3 DIV DUP5 EQ DUP4 ISZERO OR PUSH2 0x480C JUMPI PUSH2 0x480B PUSH2 0x4412 JUMP JUMPDEST JUMPDEST POP SWAP3 SWAP2 POP POP JUMP JUMPDEST PUSH32 0x4E487B7100000000000000000000000000000000000000000000000000000000 PUSH0 MSTORE PUSH1 0x12 PUSH1 0x4 MSTORE PUSH1 0x24 PUSH0 REVERT JUMPDEST PUSH0 PUSH2 0x484A DUP3 PUSH2 0x37F8 JUMP JUMPDEST SWAP2 POP PUSH2 0x4855 DUP4 PUSH2 0x37F8 JUMP JUMPDEST SWAP3 POP DUP3 PUSH2 0x4865 JUMPI PUSH2 0x4864 PUSH2 0x4813 JUMP JUMPDEST JUMPDEST DUP3 DUP3 DIV SWAP1 POP SWAP3 SWAP2 POP POP JUMP JUMPDEST PUSH32 0x546F6B656E2076616C756520756E646572203120555344000000000000000000 PUSH0 DUP3 ADD MSTORE POP JUMP JUMPDEST PUSH0 PUSH2 0x48A4 PUSH1 0x17 DUP4 PUSH2 0x401B JUMP JUMPDEST SWAP2 POP PUSH2 0x48AF DUP3 PUSH2 0x4870 JUMP JUMPDEST PUSH1 0x20 DUP3 ADD SWAP1 POP SWAP2 SWAP1 POP JUMP JUMPDEST PUSH0 PUSH1 0x20 DUP3 ADD SWAP1 POP DUP2 DUP2 SUB PUSH0 DUP4 ADD MSTORE PUSH2 0x48D1 DUP2 PUSH2 0x4898 JUMP JUMPDEST SWAP1 POP SWAP2 SWAP1 POP JUMP JUMPDEST PUSH0 PUSH1 0x40 DUP3 ADD SWAP1 POP DUP2 DUP2 SUB PUSH0 DUP4 ADD MSTORE PUSH2 0x48F0 DUP2 DUP6 PUSH2 0x3CD9 JUMP JUMPDEST SWAP1 POP PUSH2 0x48FF PUSH1 0x20 DUP4 ADD DUP5 PUSH2 0x3A8A JUMP JUMPDEST SWAP4 SWAP3 POP POP POP JUMP JUMPDEST PUSH0 PUSH8 0xFFFFFFFFFFFFFFFF DUP3 GT ISZERO PUSH2 0x4920 JUMPI PUSH2 0x491F PUSH2 0x3B1B JUMP JUMPDEST JUMPDEST PUSH1 0x20 DUP3 MUL SWAP1 POP PUSH1 0x20 DUP2 ADD SWAP1 POP SWAP2 SWAP1 POP JUMP JUMPDEST PUSH2 0x493A DUP2 PUSH2 0x3773 JUMP JUMPDEST DUP2 EQ PUSH2 0x4944 JUMPI PUSH0 DUP1 REVERT JUMPDEST POP JUMP JUMPDEST PUSH0 DUP2 MLOAD SWAP1 POP PUSH2 0x4955 DUP2 PUSH2 0x4931 JUMP JUMPDEST SWAP3 SWAP2 POP POP JUMP JUMPDEST PUSH0 PUSH2 0x496D PUSH2 0x4968 DUP5 PUSH2 0x4906 JUMP JUMPDEST PUSH2 0x3B79 JUMP JUMPDEST SWAP1 POP DUP1 DUP4 DUP3 MSTORE PUSH1 0x20 DUP3 ADD SWAP1 POP PUSH1 0x20 DUP5 MUL DUP4 ADD DUP6 DUP2 GT ISZERO PUSH2 0x4990 JUMPI PUSH2 0x498F PUSH2 0x3833 JUMP JUMPDEST JUMPDEST DUP4 JUMPDEST DUP2 DUP2 LT ISZERO PUSH2 0x49B9 JUMPI DUP1 PUSH2 0x49A5 DUP9 DUP3 PUSH2 0x4947 JUMP JUMPDEST DUP5 MSTORE PUSH1 0x20 DUP5 ADD SWAP4 POP POP PUSH1 0x20 DUP2 ADD SWAP1 POP PUSH2 0x4992 JUMP JUMPDEST POP POP POP SWAP4 SWAP3 POP POP POP JUMP JUMPDEST PUSH0 DUP3 PUSH1 0x1F DUP4 ADD SLT PUSH2 0x49D7 JUMPI PUSH2 0x49D6 PUSH2 0x382B JUMP JUMPDEST JUMPDEST DUP2 MLOAD PUSH2 0x49E7 DUP5 DUP3 PUSH1 0x20 DUP7 ADD PUSH2 0x495B JUMP JUMPDEST SWAP2 POP POP SWAP3 SWAP2 POP POP JUMP JUMPDEST PUSH0 PUSH8 0xFFFFFFFFFFFFFFFF DUP3 GT ISZERO PUSH2 0x4A0A JUMPI PUSH2 0x4A09 PUSH2 0x3B1B JUMP JUMPDEST JUMPDEST PUSH1 0x20 DUP3 MUL SWAP1 POP PUSH1 0x20 DUP2 ADD SWAP1 POP SWAP2 SWAP1 POP JUMP JUMPDEST PUSH0 PUSH4 0xFFFFFFFF DUP3 AND SWAP1 POP SWAP2 SWAP1 POP JUMP JUMPDEST PUSH2 0x4A33 DUP2 PUSH2 0x4A1B JUMP JUMPDEST DUP2 EQ PUSH2 0x4A3D JUMPI PUSH0 DUP1 REVERT JUMPDEST POP JUMP JUMPDEST PUSH0 DUP2 MLOAD SWAP1 POP PUSH2 0x4A4E DUP2 PUSH2 0x4A2A JUMP JUMPDEST SWAP3 SWAP2 POP POP JUMP JUMPDEST PUSH0 PUSH2 0x4A66 PUSH2 0x4A61 DUP5 PUSH2 0x49F0 JUMP JUMPDEST PUSH2 0x3B79 JUMP JUMPDEST SWAP1 POP DUP1 DUP4 DUP3 MSTORE PUSH1 0x20 DUP3 ADD SWAP1 POP PUSH1 0x20 DUP5 MUL DUP4 ADD DUP6 DUP2 GT ISZERO PUSH2 0x4A89 JUMPI PUSH2 0x4A88 PUSH2 0x3833 JUMP JUMPDEST JUMPDEST DUP4 JUMPDEST DUP2 DUP2 LT ISZERO PUSH2 0x4AB2 JUMPI DUP1 PUSH2 0x4A9E DUP9 DUP3 PUSH2 0x4A40 JUMP JUMPDEST DUP5 MSTORE PUSH1 0x20 DUP5 ADD SWAP4 POP POP PUSH1 0x20 DUP2 ADD SWAP1 POP PUSH2 0x4A8B JUMP JUMPDEST POP POP POP SWAP4 SWAP3 POP POP POP JUMP JUMPDEST PUSH0 DUP3 PUSH1 0x1F DUP4 ADD SLT PUSH2 0x4AD0 JUMPI PUSH2 0x4ACF PUSH2 0x382B JUMP JUMPDEST JUMPDEST DUP2 MLOAD PUSH2 0x4AE0 DUP5 DUP3 PUSH1 0x20 DUP7 ADD PUSH2 0x4A54 JUMP JUMPDEST SWAP2 POP POP SWAP3 SWAP2 POP POP JUMP JUMPDEST PUSH0 DUP1 PUSH0 DUP1 PUSH1 0x80 DUP6 DUP8 SUB SLT ISZERO PUSH2 0x4B01 JUMPI PUSH2 0x4B00 PUSH2 0x376B JUMP JUMPDEST JUMPDEST PUSH0 PUSH2 0x4B0E DUP8 DUP3 DUP9 ADD PUSH2 0x43D3 JUMP JUMPDEST SWAP5 POP POP PUSH1 0x20 DUP6 ADD MLOAD PUSH8 0xFFFFFFFFFFFFFFFF DUP2 GT ISZERO PUSH2 0x4B2F JUMPI PUSH2 0x4B2E PUSH2 0x376F JUMP JUMPDEST JUMPDEST PUSH2 0x4B3B DUP8 DUP3 DUP9 ADD PUSH2 0x49C3 JUMP JUMPDEST SWAP4 POP POP PUSH1 0x40 DUP6 ADD MLOAD PUSH8 0xFFFFFFFFFFFFFFFF DUP2 GT ISZERO PUSH2 0x4B5C JUMPI PUSH2 0x4B5B PUSH2 0x376F JUMP JUMPDEST JUMPDEST PUSH2 0x4B68 DUP8 DUP3 DUP9 ADD PUSH2 0x4ABC JUMP JUMPDEST SWAP3 POP POP PUSH1 0x60 PUSH2 0x4B79 DUP8 DUP3 DUP9 ADD PUSH2 0x43D3 JUMP JUMPDEST SWAP2 POP POP SWAP3 SWAP6 SWAP2 SWAP5 POP SWAP3 POP JUMP JUMPDEST PUSH32 0x546F6B656E207472616E73666572206661696C65640000000000000000000000 PUSH0 DUP3 ADD MSTORE POP JUMP JUMPDEST PUSH0 PUSH2 0x4BB9 PUSH1 0x15 DUP4 PUSH2 0x401B JUMP JUMPDEST SWAP2 POP PUSH2 0x4BC4 DUP3 PUSH2 0x4B85 JUMP JUMPDEST PUSH1 0x20 DUP3 ADD SWAP1 POP SWAP2 SWAP1 POP JUMP JUMPDEST PUSH0 PUSH1 0x20 DUP3 ADD SWAP1 POP DUP2 DUP2 SUB PUSH0 DUP4 ADD MSTORE PUSH2 0x4BE6 DUP2 PUSH2 0x4BAD JUMP JUMPDEST SWAP1 POP SWAP2 SWAP1 POP JUMP JUMPDEST PUSH0 PUSH2 0x4BF7 DUP3 PUSH2 0x37F8 JUMP JUMPDEST SWAP2 POP PUSH2 0x4C02 DUP4 PUSH2 0x37F8 JUMP JUMPDEST SWAP3 POP DUP3 DUP3 ADD SWAP1 POP DUP1 DUP3 GT ISZERO PUSH2 0x4C1A JUMPI PUSH2 0x4C19 PUSH2 0x4412 JUMP JUMPDEST JUMPDEST SWAP3 SWAP2 POP POP JUMP JUMPDEST PUSH0 PUSH1 0xA0 DUP3 ADD SWAP1 POP PUSH2 0x4C33 PUSH0 DUP4 ADD DUP9 PUSH2 0x3A8A JUMP JUMPDEST PUSH2 0x4C40 PUSH1 0x20 DUP4 ADD DUP8 PUSH2 0x3A8A JUMP JUMPDEST PUSH2 0x4C4D PUSH1 0x40 DUP4 ADD DUP7 PUSH2 0x3A8A JUMP JUMPDEST PUSH2 0x4C5A PUSH1 0x60 DUP4 ADD DUP6 PUSH2 0x3A8A JUMP JUMPDEST PUSH2 0x4C67 PUSH1 0x80 DUP4 ADD DUP5 PUSH2 0x3D3F JUMP JUMPDEST SWAP7 SWAP6 POP POP POP POP POP POP JUMP JUMPDEST PUSH0 PUSH1 0x80 DUP3 ADD SWAP1 POP PUSH2 0x4C84 PUSH0 DUP4 ADD DUP8 PUSH2 0x3D3F JUMP JUMPDEST PUSH2 0x4C91 PUSH1 0x20 DUP4 ADD DUP7 PUSH2 0x3D3F JUMP JUMPDEST PUSH2 0x4C9E PUSH1 0x40 DUP4 ADD DUP6 PUSH2 0x3D3F JUMP JUMPDEST PUSH2 0x4CAB PUSH1 0x60 DUP4 ADD DUP5 PUSH2 0x3A8A JUMP JUMPDEST SWAP6 SWAP5 POP POP POP POP POP JUMP JUMPDEST PUSH0 DUP2 SWAP1 POP SWAP3 SWAP2 POP POP JUMP JUMPDEST PUSH0 PUSH2 0x4CC8 DUP3 PUSH2 0x3CB1 JUMP JUMPDEST PUSH2 0x4CD2 DUP2 DUP6 PUSH2 0x4CB4 JUMP JUMPDEST SWAP4 POP PUSH2 0x4CE2 DUP2 DUP6 PUSH1 0x20 DUP7 ADD PUSH2 0x3CCB JUMP JUMPDEST DUP1 DUP5 ADD SWAP2 POP POP SWAP3 SWAP2 POP POP JUMP JUMPDEST PUSH0 PUSH2 0x4CF9 DUP3 DUP5 PUSH2 0x4CBE JUMP JUMPDEST SWAP2 POP DUP2 SWAP1 POP SWAP3 SWAP2 POP POP JUMP JUMPDEST PUSH0 PUSH1 0x20 DUP3 DUP5 SUB SLT ISZERO PUSH2 0x4D19 JUMPI PUSH2 0x4D18 PUSH2 0x376B JUMP JUMPDEST JUMPDEST PUSH0 PUSH2 0x4D26 DUP5 DUP3 DUP6 ADD PUSH2 0x455F JUMP JUMPDEST SWAP2 POP POP SWAP3 SWAP2 POP POP JUMP JUMPDEST PUSH32 0x4173736F6369617465204661696C656400000000000000000000000000000000 PUSH0 DUP3 ADD MSTORE POP JUMP JUMPDEST PUSH0 PUSH2 0x4D63 PUSH1 0x10 DUP4 PUSH2 0x401B JUMP JUMPDEST SWAP2 POP PUSH2 0x4D6E DUP3 PUSH2 0x4D2F JUMP JUMPDEST PUSH1 0x20 DUP3 ADD SWAP1 POP SWAP2 SWAP1 POP JUMP JUMPDEST PUSH0 PUSH1 0x20 DUP3 ADD SWAP1 POP DUP2 DUP2 SUB PUSH0 DUP4 ADD MSTORE PUSH2 0x4D90 DUP2 PUSH2 0x4D57 JUMP JUMPDEST SWAP1 POP SWAP2 SWAP1 POP JUMP JUMPDEST PUSH32 0x496E76616C696420696E64657800000000000000000000000000000000000000 PUSH0 DUP3 ADD MSTORE POP JUMP JUMPDEST PUSH0 PUSH2 0x4DCB PUSH1 0xD DUP4 PUSH2 0x401B JUMP JUMPDEST SWAP2 POP PUSH2 0x4DD6 DUP3 PUSH2 0x4D97 JUMP JUMPDEST PUSH1 0x20 DUP3 ADD SWAP1 POP SWAP2 SWAP1 POP JUMP JUMPDEST PUSH0 PUSH1 0x20 DUP3 ADD SWAP1 POP DUP2 DUP2 SUB PUSH0 DUP4 ADD MSTORE PUSH2 0x4DF8 DUP2 PUSH2 0x4DBF JUMP JUMPDEST SWAP1 POP SWAP2 SWAP1 POP JUMP JUMPDEST PUSH32 0x4E487B7100000000000000000000000000000000000000000000000000000000 PUSH0 MSTORE PUSH1 0x32 PUSH1 0x4 MSTORE PUSH1 0x24 PUSH0 REVERT JUMPDEST PUSH32 0x416C72656164792077697468647261776E000000000000000000000000000000 PUSH0 DUP3 ADD MSTORE POP JUMP JUMPDEST PUSH0 PUSH2 0x4E60 PUSH1 0x11 DUP4 PUSH2 0x401B JUMP JUMPDEST SWAP2 POP PUSH2 0x4E6B DUP3 PUSH2 0x4E2C JUMP JUMPDEST PUSH1 0x20 DUP3 ADD SWAP1 POP SWAP2 SWAP1 POP JUMP JUMPDEST PUSH0 PUSH1 0x20 DUP3 ADD SWAP1 POP DUP2 DUP2 SUB PUSH0 DUP4 ADD MSTORE PUSH2 0x4E8D DUP2 PUSH2 0x4E54 JUMP JUMPDEST SWAP1 POP SWAP2 SWAP1 POP JUMP JUMPDEST PUSH32 0x496E73756666696369656E7420636F6E74726163742062616C616E6365000000 PUSH0 DUP3 ADD MSTORE POP JUMP JUMPDEST PUSH0 PUSH2 0x4EC8 PUSH1 0x1D DUP4 PUSH2 0x401B JUMP JUMPDEST SWAP2 POP PUSH2 0x4ED3 DUP3 PUSH2 0x4E94 JUMP JUMPDEST PUSH1 0x20 DUP3 ADD SWAP1 POP SWAP2 SWAP1 POP JUMP JUMPDEST PUSH0 PUSH1 0x20 DUP3 ADD SWAP1 POP DUP2 DUP2 SUB PUSH0 DUP4 ADD MSTORE PUSH2 0x4EF5 DUP2 PUSH2 0x4EBC JUMP JUMPDEST SWAP1 POP SWAP2 SWAP1 POP JUMP JUMPDEST POP JUMP JUMPDEST PUSH0 PUSH2 0x4F0A PUSH0 DUP4 PUSH2 0x4CB4 JUMP JUMPDEST SWAP2 POP PUSH2 0x4F15 DUP3 PUSH2 0x4EFC JUMP JUMPDEST PUSH0 DUP3 ADD SWAP1 POP SWAP2 SWAP1 POP JUMP JUMPDEST PUSH0 PUSH2 0x4F29 DUP3 PUSH2 0x4EFF JUMP JUMPDEST SWAP2 POP DUP2 SWAP1 POP SWAP2 SWAP1 POP JUMP JUMPDEST PUSH32 0x4661696C656420746F2073656E64204842415200000000000000000000000000 PUSH0 DUP3 ADD MSTORE POP JUMP JUMPDEST PUSH0 PUSH2 0x4F67 PUSH1 0x13 DUP4 PUSH2 0x401B JUMP JUMPDEST SWAP2 POP PUSH2 0x4F72 DUP3 PUSH2 0x4F33 JUMP JUMPDEST PUSH1 0x20 DUP3 ADD SWAP1 POP SWAP2 SWAP1 POP JUMP JUMPDEST PUSH0 PUSH1 0x20 DUP3 ADD SWAP1 POP DUP2 DUP2 SUB PUSH0 DUP4 ADD MSTORE PUSH2 0x4F94 DUP2 PUSH2 0x4F5B JUMP JUMPDEST SWAP1 POP SWAP2 SWAP1 POP JUMP JUMPDEST PUSH32 0x546F6B656E207472616E73666572206261636B206661696C6564000000000000 PUSH0 DUP3 ADD MSTORE POP JUMP JUMPDEST PUSH0 PUSH2 0x4FCF PUSH1 0x1A DUP4 PUSH2 0x401B JUMP JUMPDEST SWAP2 POP PUSH2 0x4FDA DUP3 PUSH2 0x4F9B JUMP JUMPDEST PUSH1 0x20 DUP3 ADD SWAP1 POP SWAP2 SWAP1 POP JUMP JUMPDEST PUSH0 PUSH1 0x20 DUP3 ADD SWAP1 POP DUP2 DUP2 SUB PUSH0 DUP4 ADD MSTORE PUSH2 0x4FFC DUP2 PUSH2 0x4FC3 JUMP JUMPDEST SWAP1 POP SWAP2 SWAP1 POP JUMP JUMPDEST PUSH32 0x4661696C656420746F20617070726F766520746F6B656E7320666F7220726F75 PUSH0 DUP3 ADD MSTORE PUSH32 0x7465720000000000000000000000000000000000000000000000000000000000 PUSH1 0x20 DUP3 ADD MSTORE POP JUMP JUMPDEST PUSH0 PUSH2 0x505D PUSH1 0x23 DUP4 PUSH2 0x401B JUMP JUMPDEST SWAP2 POP PUSH2 0x5068 DUP3 PUSH2 0x5003 JUMP JUMPDEST PUSH1 0x40 DUP3 ADD SWAP1 POP SWAP2 SWAP1 POP JUMP JUMPDEST PUSH0 PUSH1 0x20 DUP3 ADD SWAP1 POP DUP2 DUP2 SUB PUSH0 DUP4 ADD MSTORE PUSH2 0x508A DUP2 PUSH2 0x5051 JUMP JUMPDEST SWAP1 POP SWAP2 SWAP1 POP JUMP JUMPDEST PUSH0 PUSH2 0x509B DUP3 PUSH2 0x3CB1 JUMP JUMPDEST PUSH2 0x50A5 DUP2 DUP6 PUSH2 0x4272 JUMP JUMPDEST SWAP4 POP PUSH2 0x50B5 DUP2 DUP6 PUSH1 0x20 DUP7 ADD PUSH2 0x3CCB JUMP JUMPDEST PUSH2 0x50BE DUP2 PUSH2 0x3B0B JUMP JUMPDEST DUP5 ADD SWAP2 POP POP SWAP3 SWAP2 POP POP JUMP JUMPDEST PUSH2 0x50D2 DUP2 PUSH2 0x3792 JUMP JUMPDEST DUP3 MSTORE POP POP JUMP JUMPDEST PUSH2 0x50E1 DUP2 PUSH2 0x37F8 JUMP JUMPDEST DUP3 MSTORE POP POP JUMP JUMPDEST PUSH0 PUSH1 0xA0 DUP4 ADD PUSH0 DUP4 ADD MLOAD DUP5 DUP3 SUB PUSH0 DUP7 ADD MSTORE PUSH2 0x5101 DUP3 DUP3 PUSH2 0x5091 JUMP JUMPDEST SWAP2 POP POP PUSH1 0x20 DUP4 ADD MLOAD PUSH2 0x5116 PUSH1 0x20 DUP7 ADD DUP3 PUSH2 0x50C9 JUMP JUMPDEST POP PUSH1 0x40 DUP4 ADD MLOAD PUSH2 0x5129 PUSH1 0x40 DUP7 ADD DUP3 PUSH2 0x50D8 JUMP JUMPDEST POP PUSH1 0x60 DUP4 ADD MLOAD PUSH2 0x513C PUSH1 0x60 DUP7 ADD DUP3 PUSH2 0x50D8 JUMP JUMPDEST POP PUSH1 0x80 DUP4 ADD MLOAD PUSH2 0x514F PUSH1 0x80 DUP7 ADD DUP3 PUSH2 0x50D8 JUMP JUMPDEST POP DUP1 SWAP2 POP POP SWAP3 SWAP2 POP POP JUMP JUMPDEST PUSH0 PUSH1 0x20 DUP3 ADD SWAP1 POP DUP2 DUP2 SUB PUSH0 DUP4 ADD MSTORE PUSH2 0x5172 DUP2 DUP5 PUSH2 0x50E7 JUMP JUMPDEST SWAP1 POP SWAP3 SWAP2 POP POP JUMP JUMPDEST PUSH0 PUSH1 0x40 DUP3 ADD SWAP1 POP PUSH2 0x518D PUSH0 DUP4 ADD DUP6 PUSH2 0x3A8A JUMP JUMPDEST PUSH2 0x519A PUSH1 0x20 DUP4 ADD DUP5 PUSH2 0x3D3F JUMP JUMPDEST SWAP4 SWAP3 POP POP POP JUMP JUMPDEST PUSH0 DUP2 MLOAD SWAP1 POP SWAP2 SWAP1 POP JUMP JUMPDEST PUSH0 DUP2 SWAP1 POP PUSH1 0x20 DUP3 ADD SWAP1 POP SWAP2 SWAP1 POP JUMP JUMPDEST PUSH0 PUSH2 0x51C5 DUP4 DUP4 PUSH2 0x5091 JUMP JUMPDEST SWAP1 POP SWAP3 SWAP2 POP POP JUMP JUMPDEST PUSH0 PUSH1 0x20 DUP3 ADD SWAP1 POP SWAP2 SWAP1 POP JUMP JUMPDEST PUSH0 PUSH2 0x51E3 DUP3 PUSH2 0x51A1 JUMP JUMPDEST PUSH2 0x51ED DUP2 DUP6 PUSH2 0x4259 JUMP JUMPDEST SWAP4 POP DUP4 PUSH1 0x20 DUP3 MUL DUP6 ADD PUSH2 0x51FF DUP6 PUSH2 0x51AB JUMP JUMPDEST DUP1 PUSH0 JUMPDEST DUP6 DUP2 LT ISZERO PUSH2 0x523A JUMPI DUP5 DUP5 SUB DUP10 MSTORE DUP2 MLOAD PUSH2 0x521B DUP6 DUP3 PUSH2 0x51BA JUMP JUMPDEST SWAP5 POP PUSH2 0x5226 DUP4 PUSH2 0x51CD JUMP JUMPDEST SWAP3 POP PUSH1 0x20 DUP11 ADD SWAP10 POP POP PUSH1 0x1 DUP2 ADD SWAP1 POP PUSH2 0x5202 JUMP JUMPDEST POP DUP3 SWAP8 POP DUP8 SWAP6 POP POP POP POP POP POP SWAP3 SWAP2 POP POP JUMP JUMPDEST PUSH0 PUSH1 0x20 DUP3 ADD SWAP1 POP DUP2 DUP2 SUB PUSH0 DUP4 ADD MSTORE PUSH2 0x5264 DUP2 DUP5 PUSH2 0x51D9 JUMP JUMPDEST SWAP1 POP SWAP3 SWAP2 POP POP JUMP JUMPDEST PUSH0 PUSH8 0xFFFFFFFFFFFFFFFF DUP3 GT ISZERO PUSH2 0x5286 JUMPI PUSH2 0x5285 PUSH2 0x3B1B JUMP JUMPDEST JUMPDEST PUSH1 0x20 DUP3 MUL SWAP1 POP PUSH1 0x20 DUP2 ADD SWAP1 POP SWAP2 SWAP1 POP JUMP JUMPDEST PUSH0 PUSH2 0x52A9 PUSH2 0x52A4 DUP5 PUSH2 0x3B93 JUMP JUMPDEST PUSH2 0x3B79 JUMP JUMPDEST SWAP1 POP DUP3 DUP2 MSTORE PUSH1 0x20 DUP2 ADD DUP5 DUP5 DUP5 ADD GT ISZERO PUSH2 0x52C5 JUMPI PUSH2 0x52C4 PUSH2 0x3B07 JUMP JUMPDEST JUMPDEST PUSH2 0x52D0 DUP5 DUP3 DUP6 PUSH2 0x3CCB JUMP JUMPDEST POP SWAP4 SWAP3 POP POP POP JUMP JUMPDEST PUSH0 DUP3 PUSH1 0x1F DUP4 ADD SLT PUSH2 0x52EC JUMPI PUSH2 0x52EB PUSH2 0x382B JUMP JUMPDEST JUMPDEST DUP2 MLOAD PUSH2 0x52FC DUP5 DUP3 PUSH1 0x20 DUP7 ADD PUSH2 0x5297 JUMP JUMPDEST SWAP2 POP POP SWAP3 SWAP2 POP POP JUMP JUMPDEST PUSH0 PUSH2 0x5317 PUSH2 0x5312 DUP5 PUSH2 0x526C JUMP JUMPDEST PUSH2 0x3B79 JUMP JUMPDEST SWAP1 POP DUP1 DUP4 DUP3 MSTORE PUSH1 0x20 DUP3 ADD SWAP1 POP PUSH1 0x20 DUP5 MUL DUP4 ADD DUP6 DUP2 GT ISZERO PUSH2 0x533A JUMPI PUSH2 0x5339 PUSH2 0x3833 JUMP JUMPDEST JUMPDEST DUP4 JUMPDEST DUP2 DUP2 LT ISZERO PUSH2 0x5381 JUMPI DUP1 MLOAD PUSH8 0xFFFFFFFFFFFFFFFF DUP2 GT ISZERO PUSH2 0x535F JUMPI PUSH2 0x535E PUSH2 0x382B JUMP JUMPDEST JUMPDEST DUP1 DUP7 ADD PUSH2 0x536C DUP10 DUP3 PUSH2 0x52D8 JUMP JUMPDEST DUP6 MSTORE PUSH1 0x20 DUP6 ADD SWAP5 POP POP POP PUSH1 0x20 DUP2 ADD SWAP1 POP PUSH2 0x533C JUMP JUMPDEST POP POP POP SWAP4 SWAP3 POP POP POP JUMP JUMPDEST PUSH0 DUP3 PUSH1 0x1F DUP4 ADD SLT PUSH2 0x539F JUMPI PUSH2 0x539E PUSH2 0x382B JUMP JUMPDEST JUMPDEST DUP2 MLOAD PUSH2 0x53AF DUP5 DUP3 PUSH1 0x20 DUP7 ADD PUSH2 0x5305 JUMP JUMPDEST SWAP2 POP POP SWAP3 SWAP2 POP POP JUMP JUMPDEST PUSH0 PUSH1 0x20 DUP3 DUP5 SUB SLT ISZERO PUSH2 0x53CD JUMPI PUSH2 0x53CC PUSH2 0x376B JUMP JUMPDEST JUMPDEST PUSH0 DUP3 ADD MLOAD PUSH8 0xFFFFFFFFFFFFFFFF DUP2 GT ISZERO PUSH2 0x53EA JUMPI PUSH2 0x53E9 PUSH2 0x376F JUMP JUMPDEST JUMPDEST PUSH2 0x53F6 DUP5 DUP3 DUP6 ADD PUSH2 0x538B JUMP JUMPDEST SWAP2 POP POP SWAP3 SWAP2 POP POP JUMP JUMPDEST PUSH0 PUSH1 0x80 DUP3 ADD SWAP1 POP PUSH2 0x5412 PUSH0 DUP4 ADD DUP8 PUSH2 0x3A8A JUMP JUMPDEST PUSH2 0x541F PUSH1 0x20 DUP4 ADD DUP7 PUSH2 0x3A8A JUMP JUMPDEST PUSH2 0x542C PUSH1 0x40 DUP4 ADD DUP6 PUSH2 0x3EBC JUMP JUMPDEST PUSH2 0x5439 PUSH1 0x60 DUP4 ADD DUP5 PUSH2 0x3A8A JUMP JUMPDEST SWAP6 SWAP5 POP POP POP POP POP JUMP JUMPDEST PUSH32 0x4E487B7100000000000000000000000000000000000000000000000000000000 PUSH0 MSTORE PUSH1 0x31 PUSH1 0x4 MSTORE PUSH1 0x24 PUSH0 REVERT JUMPDEST PUSH32 0x45706F6368206475726174696F6E206D757374206265203E2030000000000000 PUSH0 DUP3 ADD MSTORE POP JUMP JUMPDEST PUSH0 PUSH2 0x54A3 PUSH1 0x1A DUP4 PUSH2 0x401B JUMP JUMPDEST SWAP2 POP PUSH2 0x54AE DUP3 PUSH2 0x546F JUMP JUMPDEST PUSH1 0x20 DUP3 ADD SWAP1 POP SWAP2 SWAP1 POP JUMP JUMPDEST PUSH0 PUSH1 0x20 DUP3 ADD SWAP1 POP DUP2 DUP2 SUB PUSH0 DUP4 ADD MSTORE PUSH2 0x54D0 DUP2 PUSH2 0x5497 JUMP JUMPDEST SWAP1 POP SWAP2 SWAP1 POP JUMP JUMPDEST PUSH0 PUSH1 0x40 DUP3 ADD SWAP1 POP PUSH2 0x54EA PUSH0 DUP4 ADD DUP6 PUSH2 0x3D3F JUMP JUMPDEST DUP2 DUP2 SUB PUSH1 0x20 DUP4 ADD MSTORE PUSH2 0x54FC DUP2 DUP5 PUSH2 0x3CD9 JUMP JUMPDEST SWAP1 POP SWAP4 SWAP3 POP POP POP JUMP JUMPDEST PUSH0 PUSH1 0x40 DUP3 ADD SWAP1 POP PUSH2 0x5518 PUSH0 DUP4 ADD DUP6 PUSH2 0x3EBC JUMP JUMPDEST DUP2 DUP2 SUB PUSH1 0x20 DUP4 ADD MSTORE PUSH2 0x552A DUP2 DUP5 PUSH2 0x3CD9 JUMP JUMPDEST SWAP1 POP SWAP4 SWAP3 POP POP POP JUMP JUMPDEST PUSH32 0x50656E616C747920726174652065786365656473203130302500000000000000 PUSH0 DUP3 ADD MSTORE POP JUMP JUMPDEST PUSH0 PUSH2 0x5567 PUSH1 0x19 DUP4 PUSH2 0x401B JUMP JUMPDEST SWAP2 POP PUSH2 0x5572 DUP3 PUSH2 0x5533 JUMP JUMPDEST PUSH1 0x20 DUP3 ADD SWAP1 POP SWAP2 SWAP1 POP JUMP JUMPDEST PUSH0 PUSH1 0x20 DUP3 ADD SWAP1 POP DUP2 DUP2 SUB PUSH0 DUP4 ADD MSTORE PUSH2 0x5594 DUP2 PUSH2 0x555B JUMP JUMPDEST SWAP1 POP SWAP2 SWAP1 POP JUMP JUMPDEST PUSH32 0x4D696E696D756D206475726174696F6E206D757374206265206C657373207468 PUSH0 DUP3 ADD MSTORE PUSH32 0x616E206D6178696D756D00000000000000000000000000000000000000000000 PUSH1 0x20 DUP3 ADD MSTORE POP JUMP JUMPDEST PUSH0 PUSH2 0x55F5 PUSH1 0x2A DUP4 PUSH2 0x401B JUMP JUMPDEST SWAP2 POP PUSH2 0x5600 DUP3 PUSH2 0x559B JUMP JUMPDEST PUSH1 0x40 DUP3 ADD SWAP1 POP SWAP2 SWAP1 POP JUMP JUMPDEST PUSH0 PUSH1 0x20 DUP3 ADD SWAP1 POP DUP2 DUP2 SUB PUSH0 DUP4 ADD MSTORE PUSH2 0x5622 DUP2 PUSH2 0x55E9 JUMP JUMPDEST SWAP1 POP SWAP2 SWAP1 POP JUMP JUMPDEST PUSH32 0x4665652063616E6E6F7420626520300000000000000000000000000000000000 PUSH0 DUP3 ADD MSTORE POP JUMP JUMPDEST PUSH0 PUSH2 0x565D PUSH1 0xF DUP4 PUSH2 0x401B JUMP JUMPDEST SWAP2 POP PUSH2 0x5668 DUP3 PUSH2 0x5629 JUMP JUMPDEST PUSH1 0x20 DUP3 ADD SWAP1 POP SWAP2 SWAP1 POP JUMP JUMPDEST PUSH0 PUSH1 0x20 DUP3 ADD SWAP1 POP DUP2 DUP2 SUB PUSH0 DUP4 ADD MSTORE PUSH2 0x568A DUP2 PUSH2 0x5651 JUMP JUMPDEST SWAP1 POP SWAP2 SWAP1 POP JUMP JUMPDEST PUSH32 0x416C72656164792066696E616C697A6564000000000000000000000000000000 PUSH0 DUP3 ADD MSTORE POP JUMP JUMPDEST PUSH0 PUSH2 0x56C5 PUSH1 0x11 DUP4 PUSH2 0x401B JUMP JUMPDEST SWAP2 POP PUSH2 0x56D0 DUP3 PUSH2 0x5691 JUMP JUMPDEST PUSH1 0x20 DUP3 ADD SWAP1 POP SWAP2 SWAP1 POP JUMP JUMPDEST PUSH0 PUSH1 0x20 DUP3 ADD SWAP1 POP DUP2 DUP2 SUB PUSH0 DUP4 ADD MSTORE PUSH2 0x56F2 DUP2 PUSH2 0x56B9 JUMP JUMPDEST SWAP1 POP SWAP2 SWAP1 POP JUMP JUMPDEST PUSH32 0x45706F6368206E6F7420656E6465640000000000000000000000000000000000 PUSH0 DUP3 ADD MSTORE POP JUMP JUMPDEST PUSH0 PUSH2 0x572D PUSH1 0xF DUP4 PUSH2 0x401B JUMP JUMPDEST SWAP2 POP PUSH2 0x5738 DUP3 PUSH2 0x56F9 JUMP JUMPDEST PUSH1 0x20 DUP3 ADD SWAP1 POP SWAP2 SWAP1 POP JUMP JUMPDEST PUSH0 PUSH1 0x20 DUP3 ADD SWAP1 POP DUP2 DUP2 SUB PUSH0 DUP4 ADD MSTORE PUSH2 0x575A DUP2 PUSH2 0x5721 JUMP JUMPDEST SWAP1 POP SWAP2 SWAP1 POP JUMP JUMPDEST PUSH0 PUSH1 0x60 DUP3 ADD SWAP1 POP PUSH2 0x5774 PUSH0 DUP4 ADD DUP7 PUSH2 0x3A8A JUMP JUMPDEST PUSH2 0x5781 PUSH1 0x20 DUP4 ADD DUP6 PUSH2 0x3A8A JUMP JUMPDEST PUSH2 0x578E PUSH1 0x40 DUP4 ADD DUP5 PUSH2 0x3A8A JUMP JUMPDEST SWAP5 SWAP4 POP POP POP POP JUMP JUMPDEST PUSH32 0x50726576696F75732065706F6368206E6F742066696E616C697A656400000000 PUSH0 DUP3 ADD MSTORE POP JUMP JUMPDEST PUSH0 PUSH2 0x57CA PUSH1 0x1C DUP4 PUSH2 0x401B JUMP JUMPDEST SWAP2 POP PUSH2 0x57D5 DUP3 PUSH2 0x5796 JUMP JUMPDEST PUSH1 0x20 DUP3 ADD SWAP1 POP SWAP2 SWAP1 POP JUMP JUMPDEST PUSH0 PUSH1 0x20 DUP3 ADD SWAP1 POP DUP2 DUP2 SUB PUSH0 DUP4 ADD MSTORE PUSH2 0x57F7 DUP2 PUSH2 0x57BE JUMP JUMPDEST SWAP1 POP SWAP2 SWAP1 POP JUMP JUMPDEST PUSH0 PUSH1 0x40 DUP3 ADD SWAP1 POP PUSH2 0x5811 PUSH0 DUP4 ADD DUP6 PUSH2 0x3A8A JUMP JUMPDEST PUSH2 0x581E PUSH1 0x20 DUP4 ADD DUP5 PUSH2 0x3A8A JUMP JUMPDEST SWAP4 SWAP3 POP POP POP JUMP JUMPDEST PUSH0 DUP2 PUSH1 0x60 SHL SWAP1 POP SWAP2 SWAP1 POP JUMP JUMPDEST PUSH0 PUSH2 0x583B DUP3 PUSH2 0x5825 JUMP JUMPDEST SWAP1 POP SWAP2 SWAP1 POP JUMP JUMPDEST PUSH0 PUSH2 0x584C DUP3 PUSH2 0x5831 JUMP JUMPDEST SWAP1 POP SWAP2 SWAP1 POP JUMP JUMPDEST PUSH2 0x5864 PUSH2 0x585F DUP3 PUSH2 0x3792 JUMP JUMPDEST PUSH2 0x5842 JUMP JUMPDEST DUP3 MSTORE POP POP JUMP JUMPDEST PUSH0 DUP2 PUSH1 0xE8 SHL SWAP1 POP SWAP2 SWAP1 POP JUMP JUMPDEST PUSH0 PUSH2 0x5880 DUP3 PUSH2 0x586A JUMP JUMPDEST SWAP1 POP SWAP2 SWAP1 POP JUMP JUMPDEST PUSH2 0x5898 PUSH2 0x5893 DUP3 PUSH2 0x3DDE JUMP JUMPDEST PUSH2 0x5876 JUMP JUMPDEST DUP3 MSTORE POP POP JUMP JUMPDEST PUSH0 PUSH2 0x58A9 DUP3 DUP7 PUSH2 0x5853 JUMP JUMPDEST PUSH1 0x14 DUP3 ADD SWAP2 POP PUSH2 0x58B9 DUP3 DUP6 PUSH2 0x5887 JUMP JUMPDEST PUSH1 0x3 DUP3 ADD SWAP2 POP PUSH2 0x58C9 DUP3 DUP5 PUSH2 0x5853 JUMP JUMPDEST PUSH1 0x14 DUP3 ADD SWAP2 POP DUP2 SWAP1 POP SWAP5 SWAP4 POP POP POP POP JUMP JUMPDEST PUSH0 PUSH1 0x80 DUP3 ADD SWAP1 POP PUSH2 0x58ED PUSH0 DUP4 ADD DUP8 PUSH2 0x3D3F JUMP JUMPDEST PUSH2 0x58FA PUSH1 0x20 DUP4 ADD DUP7 PUSH2 0x3D3F JUMP JUMPDEST PUSH2 0x5907 PUSH1 0x40 DUP4 ADD DUP6 PUSH2 0x3D3F JUMP JUMPDEST PUSH2 0x5914 PUSH1 0x60 DUP4 ADD DUP5 PUSH2 0x3A06 JUMP JUMPDEST SWAP6 SWAP5 POP POP POP POP POP JUMP JUMPDEST PUSH0 PUSH1 0x40 DUP3 ADD SWAP1 POP PUSH2 0x5930 PUSH0 DUP4 ADD DUP6 PUSH2 0x3D3F JUMP JUMPDEST PUSH2 0x593D PUSH1 0x20 DUP4 ADD DUP5 PUSH2 0x3D3F JUMP JUMPDEST SWAP4 SWAP3 POP POP POP JUMP JUMPDEST PUSH32 0x4E6F20616374697665207374616B657300000000000000000000000000000000 PUSH0 DUP3 ADD MSTORE POP JUMP JUMPDEST PUSH0 PUSH2 0x5978 PUSH1 0x10 DUP4 PUSH2 0x401B JUMP JUMPDEST SWAP2 POP PUSH2 0x5983 DUP3 PUSH2 0x5944 JUMP JUMPDEST PUSH1 0x20 DUP3 ADD SWAP1 POP SWAP2 SWAP1 POP JUMP JUMPDEST PUSH0 PUSH1 0x20 DUP3 ADD SWAP1 POP DUP2 DUP2 SUB PUSH0 DUP4 ADD MSTORE PUSH2 0x59A5 DUP2 PUSH2 0x596C JUMP JUMPDEST SWAP1 POP SWAP2 SWAP1 POP JUMP JUMPDEST PUSH32 0x48424152207472616E73666572206661696C6564000000000000000000000000 PUSH0 DUP3 ADD MSTORE POP JUMP JUMPDEST PUSH0 PUSH2 0x59E0 PUSH1 0x14 DUP4 PUSH2 0x401B JUMP JUMPDEST SWAP2 POP PUSH2 0x59EB DUP3 PUSH2 0x59AC JUMP JUMPDEST PUSH1 0x20 DUP3 ADD SWAP1 POP SWAP2 SWAP1 POP JUMP JUMPDEST PUSH0 PUSH1 0x20 DUP3 ADD SWAP1 POP DUP2 DUP2 SUB PUSH0 DUP4 ADD MSTORE PUSH2 0x5A0D DUP2 PUSH2 0x59D4 JUMP JUMPDEST SWAP1 POP SWAP2 SWAP1 POP JUMP JUMPDEST PUSH32 0x56616C7565206578636565647320696E743634206D6178000000000000000000 PUSH0 DUP3 ADD MSTORE POP JUMP JUMPDEST PUSH0 PUSH2 0x5A48 PUSH1 0x17 DUP4 PUSH2 0x401B JUMP JUMPDEST SWAP2 POP PUSH2 0x5A53 DUP3 PUSH2 0x5A14 JUMP JUMPDEST PUSH1 0x20 DUP3 ADD SWAP1 POP SWAP2 SWAP1 POP JUMP JUMPDEST PUSH0 PUSH1 0x20 DUP3 ADD SWAP1 POP DUP2 DUP2 SUB PUSH0 DUP4 ADD MSTORE PUSH2 0x5A75 DUP2 PUSH2 0x5A3C JUMP JUMPDEST SWAP1 POP SWAP2 SWAP1 POP JUMP JUMPDEST PUSH0 PUSH1 0x60 DUP3 ADD SWAP1 POP PUSH2 0x5A8F PUSH0 DUP4 ADD DUP7 PUSH2 0x3D3F JUMP JUMPDEST PUSH2 0x5A9C PUSH1 0x20 DUP4 ADD DUP6 PUSH2 0x3D3F JUMP JUMPDEST PUSH2 0x5AA9 PUSH1 0x40 DUP4 ADD DUP5 PUSH2 0x3A8A JUMP JUMPDEST SWAP5 SWAP4 POP POP POP POP JUMP INVALID LOG2 PUSH5 0x6970667358 0x22 SLT KECCAK256 JUMP 0xDF PUSH25 0x8D67E349BC24F0F328A53C2F17AEF0C15939867B2FFC56EFF5 0xC5 0x21 SGT PUSH31 0x64736F6C634300081A00330000000000000000000000000000000000000000 "
		},
		"gasEstimates": {
			"creation": {
				"codeDepositCost": "4654200",
				"executionCost": "infinite",
				"totalCost": "infinite"
			},
			"external": {
				"": "219",
				"claimReward()": "infinite",
				"epochDuration()": "2559",
				"epochId()": "2514",
				"epochs(uint256)": "infinite",
				"hbarUsdPriceId()": "2537",
				"maxStakeDuration()": "2514",
				"minStakeDuration()": "2515",
				"owner()": "2561",
				"penaltyRate()": "2492",
				"poolFees(address,address)": "infinite",
				"pyth()": "infinite",
				"redirectForToken(address,bytes)": "infinite",
				"renounceOwnership()": "infinite",
				"saucerSwapQuoter()": "infinite",
				"saucerSwapRouter()": "infinite",
				"saucerSwapRouterAddress()": "2553",
				"setEpochDuration(uint256)": "infinite",
				"setHbarUsdPriceId(bytes32)": "infinite",
				"setPenaltyRate(uint256)": "infinite",
				"setPoolFees(address,address,uint24)": "infinite",
				"setPyth(address)": "infinite",
				"setStakeDurationBounds(uint256,uint256)": "infinite",
				"setUsdcTokenAddress(address)": "infinite",
				"setWhbarTokenAddress(address)": "infinite",
				"setsaucerSwapQuoter(address)": "infinite",
				"setsaucerSwapRouter(address)": "infinite",
				"stake(address,uint256,uint256,uint256,bytes[])": "infinite",
				"tokenAssociate(address)": "infinite",
				"totalStakedAmount(address)": "2890",
				"transferFrom(address,address,address,uint256)": "infinite",
				"transferFromNFT(address,address,address,uint256)": "infinite",
				"transferOwnership(address)": "infinite",
				"usdcTokenAddress()": "2619",
				"userStakes(address,uint256)": "infinite",
				"whbarTokenAddress()": "2576",
				"withdraw(uint256)": "infinite"
			},
			"internal": {
				"_calculateBoostedShares(uint256,uint256)": "infinite",
				"_claimReward()": "infinite",
				"_finalizeEpoch()": "infinite",
				"_startNewEpoch()": "infinite",
				"encodeSwapPath(address,uint24,address)": "infinite",
				"safeCastToInt64(uint256)": "infinite"
			}
		},
		"methodIdentifiers": {
			"claimReward()": "b88a802f",
			"epochDuration()": "4ff0876a",
			"epochId()": "aa9bbc0c",
			"epochs(uint256)": "c6b61e4c",
			"hbarUsdPriceId()": "4a9138c6",
			"maxStakeDuration()": "76f70003",
			"minStakeDuration()": "5fec5c64",
			"owner()": "8da5cb5b",
			"penaltyRate()": "d6b7494f",
			"poolFees(address,address)": "a9563e4f",
			"pyth()": "f98d06f0",
			"redirectForToken(address,bytes)": "618dc65e",
			"renounceOwnership()": "715018a6",
			"saucerSwapQuoter()": "a8559a96",
			"saucerSwapRouter()": "0d07be2d",
			"saucerSwapRouterAddress()": "6ee8cc45",
			"setEpochDuration(uint256)": "30024dfe",
			"setHbarUsdPriceId(bytes32)": "587b47b0",
			"setPenaltyRate(uint256)": "a1bab447",
			"setPoolFees(address,address,uint24)": "d9cd6e39",
			"setPyth(address)": "ee22fd6f",
			"setStakeDurationBounds(uint256,uint256)": "d8990c11",
			"setUsdcTokenAddress(address)": "f3fd622f",
			"setWhbarTokenAddress(address)": "55f741fa",
			"setsaucerSwapQuoter(address)": "7a04ea99",
			"setsaucerSwapRouter(address)": "0818f6d7",
			"stake(address,uint256,uint256,uint256,bytes[])": "09716dee",
			"tokenAssociate(address)": "1a2a5e15",
			"totalStakedAmount(address)": "f3dbdfe5",
			"transferFrom(address,address,address,uint256)": "15dacbea",
			"transferFromNFT(address,address,address,uint256)": "9b23d3d9",
			"transferOwnership(address)": "f2fde38b",
			"usdcTokenAddress()": "77b53ece",
			"userStakes(address,uint256)": "b5d5b5fa",
			"whbarTokenAddress()": "91e98f55",
			"withdraw(uint256)": "2e1a7d4d"
		}
	},
	"abi": [
		{
			"inputs": [
				{
					"internalType": "address",
					"name": "_pyth",
					"type": "address"
				},
				{
					"internalType": "address",
					"name": "_saucerSwapQuoterAddress",
					"type": "address"
				},
				{
					"internalType": "address",
					"name": "_saucerSwapRouterAddress",
					"type": "address"
				},
				{
					"internalType": "address",
					"name": "_usdcTokenAddress",
					"type": "address"
				},
				{
					"internalType": "address",
					"name": "_whbarTokenAddress",
					"type": "address"
				},
				{
					"internalType": "bytes32",
					"name": "_hbarUsdPriceId",
					"type": "bytes32"
				},
				{
					"internalType": "uint256",
					"name": "_minStakeDuration",
					"type": "uint256"
				},
				{
					"internalType": "uint256",
					"name": "_maxStakeDuration",
					"type": "uint256"
				},
				{
					"internalType": "uint256",
					"name": "_epochDuration",
					"type": "uint256"
				}
			],
			"stateMutability": "nonpayable",
			"type": "constructor"
		},
		{
			"inputs": [
				{
					"internalType": "address",
					"name": "owner",
					"type": "address"
				}
			],
			"name": "OwnableInvalidOwner",
			"type": "error"
		},
		{
			"inputs": [
				{
					"internalType": "address",
					"name": "account",
					"type": "address"
				}
			],
			"name": "OwnableUnauthorizedAccount",
			"type": "error"
		},
		{
			"inputs": [],
			"name": "ReentrancyGuardReentrantCall",
			"type": "error"
		},
		{
			"anonymous": false,
			"inputs": [
				{
					"indexed": true,
					"internalType": "address",
					"name": "user",
					"type": "address"
				},
				{
					"indexed": false,
					"internalType": "uint256",
					"name": "stakeIndex",
					"type": "uint256"
				},
				{
					"indexed": false,
					"internalType": "uint256",
					"name": "boostAmount",
					"type": "uint256"
				},
				{
					"indexed": false,
					"internalType": "uint256",
					"name": "newRewardPercent",
					"type": "uint256"
				}
			],
			"name": "BoostUsed",
			"type": "event"
		},
		{
			"anonymous": false,
			"inputs": [
				{
					"indexed": false,
					"internalType": "bool",
					"name": "",
					"type": "bool"
				},
				{
					"indexed": false,
					"internalType": "bytes",
					"name": "",
					"type": "bytes"
				}
			],
			"name": "CallResponseEvent",
			"type": "event"
		},
		{
			"anonymous": false,
			"inputs": [
				{
					"indexed": true,
					"internalType": "uint256",
					"name": "epochId",
					"type": "uint256"
				},
				{
					"indexed": false,
					"internalType": "uint256",
					"name": "totalReward",
					"type": "uint256"
				},
				{
					"indexed": false,
					"internalType": "uint256",
					"name": "totalRewardShares",
					"type": "uint256"
				},
				{
					"indexed": false,
					"internalType": "uint256",
					"name": "rewardPerShare",
					"type": "uint256"
				}
			],
			"name": "EpochFinalized",
			"type": "event"
		},
		{
			"anonymous": false,
			"inputs": [
				{
					"indexed": true,
					"internalType": "uint256",
					"name": "epochId",
					"type": "uint256"
				},
				{
					"indexed": false,
					"internalType": "uint256",
					"name": "startTime",
					"type": "uint256"
				},
				{
					"indexed": false,
					"internalType": "uint256",
					"name": "endTime",
					"type": "uint256"
				}
			],
			"name": "EpochStarted",
			"type": "event"
		},
		{
			"anonymous": false,
			"inputs": [
				{
					"indexed": true,
					"internalType": "address",
					"name": "previousOwner",
					"type": "address"
				},
				{
					"indexed": true,
					"internalType": "address",
					"name": "newOwner",
					"type": "address"
				}
			],
			"name": "OwnershipTransferred",
			"type": "event"
		},
		{
			"anonymous": false,
			"inputs": [
				{
					"indexed": true,
					"internalType": "address",
					"name": "user",
					"type": "address"
				},
				{
					"indexed": false,
					"internalType": "uint256",
					"name": "totalReward",
					"type": "uint256"
				}
			],
			"name": "RewardClaimed",
			"type": "event"
		},
		{
			"anonymous": false,
			"inputs": [
				{
					"indexed": true,
					"internalType": "address",
					"name": "user",
					"type": "address"
				},
				{
					"indexed": false,
					"internalType": "uint256",
					"name": "amount",
					"type": "uint256"
				},
				{
					"indexed": false,
					"internalType": "uint256",
					"name": "startTime",
					"type": "uint256"
				},
				{
					"indexed": false,
					"internalType": "uint256",
					"name": "endTime",
					"type": "uint256"
				},
				{
					"indexed": false,
					"internalType": "uint256",
					"name": "stakeIndex",
					"type": "uint256"
				},
				{
					"indexed": false,
					"internalType": "address",
					"name": "tokenId",
					"type": "address"
				}
			],
			"name": "Staked",
			"type": "event"
		},
		{
			"anonymous": false,
			"inputs": [
				{
					"indexed": false,
					"internalType": "address",
					"name": "tokenId",
					"type": "address"
				}
			],
			"name": "TokenAssociated",
			"type": "event"
		},
		{
			"anonymous": false,
			"inputs": [
				{
					"indexed": true,
					"internalType": "address",
					"name": "user",
					"type": "address"
				},
				{
					"indexed": false,
					"internalType": "uint256",
					"name": "stakeIndex",
					"type": "uint256"
				},
				{
					"indexed": false,
					"internalType": "uint256",
					"name": "amount",
					"type": "uint256"
				},
				{
					"indexed": false,
					"internalType": "bool",
					"name": "early",
					"type": "bool"
				},
				{
					"indexed": false,
					"internalType": "uint256",
					"name": "penalty",
					"type": "uint256"
				}
			],
			"name": "Withdrawn",
			"type": "event"
		},
		{
			"stateMutability": "payable",
			"type": "fallback"
		},
		{
			"inputs": [],
			"name": "claimReward",
			"outputs": [],
			"stateMutability": "nonpayable",
			"type": "function"
		},
		{
			"inputs": [],
			"name": "epochDuration",
			"outputs": [
				{
					"internalType": "uint256",
					"name": "",
					"type": "uint256"
				}
			],
			"stateMutability": "view",
			"type": "function"
		},
		{
			"inputs": [],
			"name": "epochId",
			"outputs": [
				{
					"internalType": "uint256",
					"name": "",
					"type": "uint256"
				}
			],
			"stateMutability": "view",
			"type": "function"
		},
		{
			"inputs": [
				{
					"internalType": "uint256",
					"name": "",
					"type": "uint256"
				}
			],
			"name": "epochs",
			"outputs": [
				{
					"internalType": "uint256",
					"name": "startTime",
					"type": "uint256"
				},
				{
					"internalType": "uint256",
					"name": "endTime",
					"type": "uint256"
				},
				{
					"internalType": "uint256",
					"name": "totalReward",
					"type": "uint256"
				},
				{
					"internalType": "uint256",
					"name": "totalRewardShares",
					"type": "uint256"
				},
				{
					"internalType": "uint256",
					"name": "rewardPerShare",
					"type": "uint256"
				},
				{
					"internalType": "bool",
					"name": "finalized",
					"type": "bool"
				}
			],
			"stateMutability": "view",
			"type": "function"
		},
		{
			"inputs": [],
			"name": "hbarUsdPriceId",
			"outputs": [
				{
					"internalType": "bytes32",
					"name": "",
					"type": "bytes32"
				}
			],
			"stateMutability": "view",
			"type": "function"
		},
		{
			"inputs": [],
			"name": "maxStakeDuration",
			"outputs": [
				{
					"internalType": "uint256",
					"name": "",
					"type": "uint256"
				}
			],
			"stateMutability": "view",
			"type": "function"
		},
		{
			"inputs": [],
			"name": "minStakeDuration",
			"outputs": [
				{
					"internalType": "uint256",
					"name": "",
					"type": "uint256"
				}
			],
			"stateMutability": "view",
			"type": "function"
		},
		{
			"inputs": [],
			"name": "owner",
			"outputs": [
				{
					"internalType": "address",
					"name": "",
					"type": "address"
				}
			],
			"stateMutability": "view",
			"type": "function"
		},
		{
			"inputs": [],
			"name": "penaltyRate",
			"outputs": [
				{
					"internalType": "uint256",
					"name": "",
					"type": "uint256"
				}
			],
			"stateMutability": "view",
			"type": "function"
		},
		{
			"inputs": [
				{
					"internalType": "address",
					"name": "",
					"type": "address"
				},
				{
					"internalType": "address",
					"name": "",
					"type": "address"
				}
			],
			"name": "poolFees",
			"outputs": [
				{
					"internalType": "uint24",
					"name": "",
					"type": "uint24"
				}
			],
			"stateMutability": "view",
			"type": "function"
		},
		{
			"inputs": [],
			"name": "pyth",
			"outputs": [
				{
					"internalType": "contract IPyth",
					"name": "",
					"type": "address"
				}
			],
			"stateMutability": "view",
			"type": "function"
		},
		{
			"inputs": [
				{
					"internalType": "address",
					"name": "token",
					"type": "address"
				},
				{
					"internalType": "bytes",
					"name": "encodedFunctionSelector",
					"type": "bytes"
				}
			],
			"name": "redirectForToken",
			"outputs": [
				{
					"internalType": "int256",
					"name": "responseCode",
					"type": "int256"
				},
				{
					"internalType": "bytes",
					"name": "response",
					"type": "bytes"
				}
			],
			"stateMutability": "nonpayable",
			"type": "function"
		},
		{
			"inputs": [],
			"name": "renounceOwnership",
			"outputs": [],
			"stateMutability": "nonpayable",
			"type": "function"
		},
		{
			"inputs": [],
			"name": "saucerSwapQuoter",
			"outputs": [
				{
					"internalType": "contract IQuoter",
					"name": "",
					"type": "address"
				}
			],
			"stateMutability": "view",
			"type": "function"
		},
		{
			"inputs": [],
			"name": "saucerSwapRouter",
			"outputs": [
				{
					"internalType": "contract IRouter",
					"name": "",
					"type": "address"
				}
			],
			"stateMutability": "view",
			"type": "function"
		},
		{
			"inputs": [],
			"name": "saucerSwapRouterAddress",
			"outputs": [
				{
					"internalType": "address",
					"name": "",
					"type": "address"
				}
			],
			"stateMutability": "view",
			"type": "function"
		},
		{
			"inputs": [
				{
					"internalType": "uint256",
					"name": "_epochDuration",
					"type": "uint256"
				}
			],
			"name": "setEpochDuration",
			"outputs": [],
			"stateMutability": "nonpayable",
			"type": "function"
		},
		{
			"inputs": [
				{
					"internalType": "bytes32",
					"name": "_priceId",
					"type": "bytes32"
				}
			],
			"name": "setHbarUsdPriceId",
			"outputs": [],
			"stateMutability": "nonpayable",
			"type": "function"
		},
		{
			"inputs": [
				{
					"internalType": "uint256",
					"name": "_penaltyRate",
					"type": "uint256"
				}
			],
			"name": "setPenaltyRate",
			"outputs": [],
			"stateMutability": "nonpayable",
			"type": "function"
		},
		{
			"inputs": [
				{
					"internalType": "address",
					"name": "token1",
					"type": "address"
				},
				{
					"internalType": "address",
					"name": "token2",
					"type": "address"
				},
				{
					"internalType": "uint24",
					"name": "newFee",
					"type": "uint24"
				}
			],
			"name": "setPoolFees",
			"outputs": [],
			"stateMutability": "nonpayable",
			"type": "function"
		},
		{
			"inputs": [
				{
					"internalType": "address",
					"name": "_pyth",
					"type": "address"
				}
			],
			"name": "setPyth",
			"outputs": [],
			"stateMutability": "nonpayable",
			"type": "function"
		},
		{
			"inputs": [
				{
					"internalType": "uint256",
					"name": "_min",
					"type": "uint256"
				},
				{
					"internalType": "uint256",
					"name": "_max",
					"type": "uint256"
				}
			],
			"name": "setStakeDurationBounds",
			"outputs": [],
			"stateMutability": "nonpayable",
			"type": "function"
		},
		{
			"inputs": [
				{
					"internalType": "address",
					"name": "_usdcTokenAddress",
					"type": "address"
				}
			],
			"name": "setUsdcTokenAddress",
			"outputs": [],
			"stateMutability": "nonpayable",
			"type": "function"
		},
		{
			"inputs": [
				{
					"internalType": "address",
					"name": "_whbarTokenAddress",
					"type": "address"
				}
			],
			"name": "setWhbarTokenAddress",
			"outputs": [],
			"stateMutability": "nonpayable",
			"type": "function"
		},
		{
			"inputs": [
				{
					"internalType": "address",
					"name": "_saucerSwapQuoter",
					"type": "address"
				}
			],
			"name": "setsaucerSwapQuoter",
			"outputs": [],
			"stateMutability": "nonpayable",
			"type": "function"
		},
		{
			"inputs": [
				{
					"internalType": "address",
					"name": "_router",
					"type": "address"
				}
			],
			"name": "setsaucerSwapRouter",
			"outputs": [],
			"stateMutability": "nonpayable",
			"type": "function"
		},
		{
			"inputs": [
				{
					"internalType": "address",
					"name": "tokenId",
					"type": "address"
				},
				{
					"internalType": "uint256",
					"name": "amount",
					"type": "uint256"
				},
				{
					"internalType": "uint256",
					"name": "duration",
					"type": "uint256"
				},
				{
					"internalType": "uint256",
					"name": "boostTokenAmount",
					"type": "uint256"
				},
				{
					"internalType": "bytes[]",
					"name": "priceUpdate",
					"type": "bytes[]"
				}
			],
			"name": "stake",
			"outputs": [],
			"stateMutability": "payable",
			"type": "function"
		},
		{
			"inputs": [
				{
					"internalType": "address",
					"name": "tokenId",
					"type": "address"
				}
			],
			"name": "tokenAssociate",
			"outputs": [],
			"stateMutability": "nonpayable",
			"type": "function"
		},
		{
			"inputs": [
				{
					"internalType": "address",
					"name": "",
					"type": "address"
				}
			],
			"name": "totalStakedAmount",
			"outputs": [
				{
					"internalType": "uint256",
					"name": "",
					"type": "uint256"
				}
			],
			"stateMutability": "view",
			"type": "function"
		},
		{
			"inputs": [
				{
					"internalType": "address",
					"name": "token",
					"type": "address"
				},
				{
					"internalType": "address",
					"name": "from",
					"type": "address"
				},
				{
					"internalType": "address",
					"name": "to",
					"type": "address"
				},
				{
					"internalType": "uint256",
					"name": "amount",
					"type": "uint256"
				}
			],
			"name": "transferFrom",
			"outputs": [
				{
					"internalType": "int64",
					"name": "responseCode",
					"type": "int64"
				}
			],
			"stateMutability": "nonpayable",
			"type": "function"
		},
		{
			"inputs": [
				{
					"internalType": "address",
					"name": "token",
					"type": "address"
				},
				{
					"internalType": "address",
					"name": "from",
					"type": "address"
				},
				{
					"internalType": "address",
					"name": "to",
					"type": "address"
				},
				{
					"internalType": "uint256",
					"name": "serialNumber",
					"type": "uint256"
				}
			],
			"name": "transferFromNFT",
			"outputs": [
				{
					"internalType": "int64",
					"name": "responseCode",
					"type": "int64"
				}
			],
			"stateMutability": "nonpayable",
			"type": "function"
		},
		{
			"inputs": [
				{
					"internalType": "address",
					"name": "newOwner",
					"type": "address"
				}
			],
			"name": "transferOwnership",
			"outputs": [],
			"stateMutability": "nonpayable",
			"type": "function"
		},
		{
			"inputs": [],
			"name": "usdcTokenAddress",
			"outputs": [
				{
					"internalType": "address",
					"name": "",
					"type": "address"
				}
			],
			"stateMutability": "view",
			"type": "function"
		},
		{
			"inputs": [
				{
					"internalType": "address",
					"name": "",
					"type": "address"
				},
				{
					"internalType": "uint256",
					"name": "",
					"type": "uint256"
				}
			],
			"name": "userStakes",
			"outputs": [
				{
					"internalType": "address",
					"name": "tokenId",
					"type": "address"
				},
				{
					"internalType": "uint256",
					"name": "amount",
					"type": "uint256"
				},
				{
					"internalType": "uint256",
					"name": "startTime",
					"type": "uint256"
				},
				{
					"internalType": "uint256",
					"name": "endTime",
					"type": "uint256"
				},
				{
					"internalType": "uint256",
					"name": "rewardShares",
					"type": "uint256"
				},
				{
					"internalType": "uint256",
					"name": "nextToClaim",
					"type": "uint256"
				}
			],
			"stateMutability": "view",
			"type": "function"
		},
		{
			"inputs": [],
			"name": "whbarTokenAddress",
			"outputs": [
				{
					"internalType": "address",
					"name": "",
					"type": "address"
				}
			],
			"stateMutability": "view",
			"type": "function"
		},
		{
			"inputs": [
				{
					"internalType": "uint256",
					"name": "stakeIndex",
					"type": "uint256"
				}
			],
			"name": "withdraw",
			"outputs": [],
			"stateMutability": "nonpayable",
			"type": "function"
		},
		{
			"stateMutability": "payable",
			"type": "receive"
		}
	]
}